{
  "contractName": "Base",
  "abi": [
    {
      "anonymous": false,
      "inputs": [
        {
          "indexed": true,
          "internalType": "address",
          "name": "previousOwner",
          "type": "address"
        },
        {
          "indexed": true,
          "internalType": "address",
          "name": "newOwner",
          "type": "address"
        }
      ],
      "name": "OwnershipTransferred",
      "type": "event"
    },
    {
      "anonymous": false,
      "inputs": [
        {
          "indexed": true,
          "internalType": "address",
          "name": "implementation",
          "type": "address"
        }
      ],
      "name": "Upgraded",
      "type": "event"
    },
    {
      "inputs": [],
      "name": "owner",
      "outputs": [
        {
          "internalType": "address",
          "name": "",
          "type": "address"
        }
      ],
      "stateMutability": "view",
      "type": "function"
    },
    {
      "inputs": [],
      "name": "renounceOwnership",
      "outputs": [],
      "stateMutability": "nonpayable",
      "type": "function"
    },
    {
      "inputs": [
        {
          "internalType": "address",
          "name": "newOwner",
          "type": "address"
        }
      ],
      "name": "transferOwnership",
      "outputs": [],
      "stateMutability": "nonpayable",
      "type": "function"
    },
    {
      "stateMutability": "payable",
      "type": "receive"
    },
    {
      "inputs": [],
      "name": "initialize",
      "outputs": [],
      "stateMutability": "nonpayable",
      "type": "function"
    },
    {
      "inputs": [],
      "name": "implementation",
      "outputs": [
        {
          "internalType": "address",
          "name": "",
          "type": "address"
        }
      ],
      "stateMutability": "view",
      "type": "function"
    },
    {
      "inputs": [
        {
          "internalType": "address",
          "name": "impl",
          "type": "address"
        }
      ],
      "name": "upgradeTo",
      "outputs": [],
      "stateMutability": "nonpayable",
      "type": "function"
    }
  ],
  "bytecode": "0x608060405234801561001057600080fd5b50610e49806100206000396000f3fe6080604052600436106100595760003560e01c80633659cfe6146101205780635c60da1b14610149578063715018a6146101745780638129fc1c1461018b5780638da5cb5b146101a2578063f2fde38b146101cd5761011b565b3661011b576000606560009054906101000a900473ffffffffffffffffffffffffffffffffffffffff169050600073ffffffffffffffffffffffffffffffffffffffff168173ffffffffffffffffffffffffffffffffffffffff1614156100f5576040517f08c379a00000000000000000000000000000000000000000000000000000000081526004016100ec90610ba6565b60405180910390fd5b3660008037600080366000845af43d6000803e8060008114610116573d6000f35b3d6000fd5b600080fd5b34801561012c57600080fd5b5061014760048036038101906101429190610a3d565b6101f6565b005b34801561015557600080fd5b5061015e6103fa565b60405161016b9190610b4b565b60405180910390f35b34801561018057600080fd5b50610189610424565b005b34801561019757600080fd5b506101a06104ac565b005b3480156101ae57600080fd5b506101b761058d565b6040516101c49190610b4b565b60405180910390f35b3480156101d957600080fd5b506101f460048036038101906101ef9190610a3d565b6105b7565b005b6101fe6106af565b73ffffffffffffffffffffffffffffffffffffffff1661021c61058d565b73ffffffffffffffffffffffffffffffffffffffff1614610272576040517f08c379a000000000000000000000000000000000000000000000000000000000815260040161026990610be6565b60405180910390fd5b600073ffffffffffffffffffffffffffffffffffffffff168173ffffffffffffffffffffffffffffffffffffffff1614156102e2576040517f08c379a00000000000000000000000000000000000000000000000000000000081526004016102d990610b86565b60405180910390fd5b606560009054906101000a900473ffffffffffffffffffffffffffffffffffffffff1673ffffffffffffffffffffffffffffffffffffffff168173ffffffffffffffffffffffffffffffffffffffff161415610373576040517f08c379a000000000000000000000000000000000000000000000000000000000815260040161036a90610c06565b60405180910390fd5b80606560006101000a81548173ffffffffffffffffffffffffffffffffffffffff021916908373ffffffffffffffffffffffffffffffffffffffff1602179055508073ffffffffffffffffffffffffffffffffffffffff167fbc7cd75a20ee27fd9adebab32041f755214dbc6bffa90cc0225b39da2e5c2d3b60405160405180910390a250565b6000606560009054906101000a900473ffffffffffffffffffffffffffffffffffffffff16905090565b61042c6106af565b73ffffffffffffffffffffffffffffffffffffffff1661044a61058d565b73ffffffffffffffffffffffffffffffffffffffff16146104a0576040517f08c379a000000000000000000000000000000000000000000000000000000000815260040161049790610be6565b60405180910390fd5b6104aa60006106b7565b565b600060019054906101000a900460ff16806104d2575060008054906101000a900460ff16155b610511576040517f08c379a000000000000000000000000000000000000000000000000000000000815260040161050890610bc6565b60405180910390fd5b60008060019054906101000a900460ff161590508015610561576001600060016101000a81548160ff02191690831515021790555060016000806101000a81548160ff0219169083151502179055505b61056961077d565b801561058a5760008060016101000a81548160ff0219169083151502179055505b50565b6000603360009054906101000a900473ffffffffffffffffffffffffffffffffffffffff16905090565b6105bf6106af565b73ffffffffffffffffffffffffffffffffffffffff166105dd61058d565b73ffffffffffffffffffffffffffffffffffffffff1614610633576040517f08c379a000000000000000000000000000000000000000000000000000000000815260040161062a90610be6565b60405180910390fd5b600073ffffffffffffffffffffffffffffffffffffffff168173ffffffffffffffffffffffffffffffffffffffff1614156106a3576040517f08c379a000000000000000000000000000000000000000000000000000000000815260040161069a90610b66565b60405180910390fd5b6106ac816106b7565b50565b600033905090565b6000603360009054906101000a900473ffffffffffffffffffffffffffffffffffffffff16905081603360006101000a81548173ffffffffffffffffffffffffffffffffffffffff021916908373ffffffffffffffffffffffffffffffffffffffff1602179055508173ffffffffffffffffffffffffffffffffffffffff168173ffffffffffffffffffffffffffffffffffffffff167f8be0079c531659141344cd1fd0a4f28419497f9722a3daafe3b4186f6b6457e060405160405180910390a35050565b600060019054906101000a900460ff16806107a3575060008054906101000a900460ff16155b6107e2576040517f08c379a00000000000000000000000000000000000000000000000000000000081526004016107d990610bc6565b60405180910390fd5b60008060019054906101000a900460ff161590508015610832576001600060016101000a81548160ff02191690831515021790555060016000806101000a81548160ff0219169083151502179055505b61083a610866565b61084261093f565b80156108635760008060016101000a81548160ff0219169083151502179055505b50565b600060019054906101000a900460ff168061088c575060008054906101000a900460ff16155b6108cb576040517f08c379a00000000000000000000000000000000000000000000000000000000081526004016108c290610bc6565b60405180910390fd5b60008060019054906101000a900460ff16159050801561091b576001600060016101000a81548160ff02191690831515021790555060016000806101000a81548160ff0219169083151502179055505b801561093c5760008060016101000a81548160ff0219169083151502179055505b50565b600060019054906101000a900460ff1680610965575060008054906101000a900460ff16155b6109a4576040517f08c379a000000000000000000000000000000000000000000000000000000000815260040161099b90610bc6565b60405180910390fd5b60008060019054906101000a900460ff1615905080156109f4576001600060016101000a81548160ff02191690831515021790555060016000806101000a81548160ff0219169083151502179055505b610a046109ff6106af565b6106b7565b8015610a255760008060016101000a81548160ff0219169083151502179055505b50565b600081359050610a3781610dfc565b92915050565b600060208284031215610a5357610a52610c69565b5b6000610a6184828501610a28565b91505092915050565b610a7381610c37565b82525050565b6000610a86602683610c26565b9150610a9182610c6e565b604082019050919050565b6000610aa9602183610c26565b9150610ab482610cbd565b604082019050919050565b6000610acc601f83610c26565b9150610ad782610d0c565b602082019050919050565b6000610aef602e83610c26565b9150610afa82610d35565b604082019050919050565b6000610b12602083610c26565b9150610b1d82610d84565b602082019050919050565b6000610b35602983610c26565b9150610b4082610dad565b604082019050919050565b6000602082019050610b606000830184610a6a565b92915050565b60006020820190508181036000830152610b7f81610a79565b9050919050565b60006020820190508181036000830152610b9f81610a9c565b9050919050565b60006020820190508181036000830152610bbf81610abf565b9050919050565b60006020820190508181036000830152610bdf81610ae2565b9050919050565b60006020820190508181036000830152610bff81610b05565b9050919050565b60006020820190508181036000830152610c1f81610b28565b9050919050565b600082825260208201905092915050565b6000610c4282610c49565b9050919050565b600073ffffffffffffffffffffffffffffffffffffffff82169050919050565b600080fd5b7f4f776e61626c653a206e6577206f776e657220697320746865207a65726f206160008201527f6464726573730000000000000000000000000000000000000000000000000000602082015250565b7f43616e6e6f74207570677261646520746f20696e76616c69642061646472657360008201527f7300000000000000000000000000000000000000000000000000000000000000602082015250565b7f696d706c656d656e746174696f6e20636f6e7472616374206e6f742073657400600082015250565b7f496e697469616c697a61626c653a20636f6e747261637420697320616c72656160008201527f647920696e697469616c697a6564000000000000000000000000000000000000602082015250565b7f4f776e61626c653a2063616c6c6572206973206e6f7420746865206f776e6572600082015250565b7f43616e6e6f74207570677261646520746f207468652073616d6520696d706c6560008201527f6d656e746174696f6e0000000000000000000000000000000000000000000000602082015250565b610e0581610c37565b8114610e1057600080fd5b5056fea2646970667358221220aefc1ec2e4d6a35ee17112935d86e8e5ae25753a96e69fdae5e18562383c5d0164736f6c63430008070033",
  "immutableReferences": {},
  "source": "// SPDX-License-Identifier: MIT\r\npragma solidity ^0.8.0;\r\n\r\nimport \"@openzeppelin/contracts-upgradeable/access/OwnableUpgradeable.sol\";\r\n\r\ncontract Base is OwnableUpgradeable {\r\n\r\n    address internal _implementation;\r\n\r\n    function initialize() public initializer {\r\n        __Ownable_init();\r\n    }\r\n\r\n    /**  */\r\n    function implementation() public view returns (address) {\r\n        return _implementation;\r\n    }\r\n\r\n    /**  */\r\n    function upgradeTo(address impl) public onlyOwner {\r\n        require(impl != address(0), \"Cannot upgrade to invalid address\");\r\n        require(impl != _implementation, \"Cannot upgrade to the same implementation\");\r\n        _implementation = impl;\r\n        emit Upgraded(impl);\r\n    }\r\n\r\n    receive() payable external {\r\n        address _impl = _implementation;\r\n        require(_impl != address(0), \"implementation contract not set\");\r\n\r\n        assembly {\r\n            // Copy msg.data. We take full control of memory in this inline assembly\r\n            // block because it will not return to Solidity code. We overwrite the\r\n            // Solidity scratch pad at memory position 0.\r\n            calldatacopy(0, 0, calldatasize())\r\n\r\n            // Call the implementation.\r\n            // out and outsize are 0 because we don't know the size yet.\r\n            let result := delegatecall(gas(), _impl, 0, calldatasize(), 0, 0)\r\n\r\n            // Copy the returned data.\r\n            returndatacopy(0, 0, returndatasize())\r\n\r\n            switch result\r\n            // delegatecall returns 0 on error.\r\n            case 0 {\r\n                revert(0, returndatasize())\r\n            }\r\n            default {\r\n                return(0, returndatasize())\r\n            }\r\n        }\r\n    }\r\n\r\n    event Upgraded(address indexed implementation);\r\n}",
  "sourcePath": "D:\\solidity\\sol-test1\\contracts\\proxy\\Base.sol",
  "compiler": {
    "name": "solc",
    "version": "0.8.7+commit.e28d00a7.Emscripten.clang"
  },
  "schemaVersion": "3.4.3",
  "updatedAt": "2021-12-18T12:41:19.485Z",
  "devdoc": {
    "kind": "dev",
    "methods": {
      "owner()": {
        "details": "Returns the address of the current owner."
      },
      "renounceOwnership()": {
        "details": "Leaves the contract without owner. It will not be possible to call `onlyOwner` functions anymore. Can only be called by the current owner. NOTE: Renouncing ownership will leave the contract without an owner, thereby removing any functionality that is only available to the owner."
      },
      "transferOwnership(address)": {
        "details": "Transfers ownership of the contract to a new account (`newOwner`). Can only be called by the current owner."
      }
    },
    "version": 1
  },
  "userdoc": {
    "kind": "user",
    "methods": {
      "implementation()": {
        "notice": " "
      },
      "upgradeTo(address)": {
        "notice": " "
      }
    },
    "version": 1
  }
}