{
  "contractName": "Base",
  "abi": [
    {
      "anonymous": false,
      "inputs": [
        {
          "indexed": true,
          "internalType": "address",
          "name": "previousOwner",
          "type": "address"
        },
        {
          "indexed": true,
          "internalType": "address",
          "name": "newOwner",
          "type": "address"
        }
      ],
      "name": "OwnershipTransferred",
      "type": "event"
    },
    {
      "anonymous": false,
      "inputs": [
        {
          "indexed": true,
          "internalType": "address",
          "name": "implementation",
          "type": "address"
        }
      ],
      "name": "Upgraded",
      "type": "event"
    },
    {
      "inputs": [],
      "name": "owner",
      "outputs": [
        {
          "internalType": "address",
          "name": "",
          "type": "address"
        }
      ],
      "stateMutability": "view",
      "type": "function"
    },
    {
      "inputs": [],
      "name": "renounceOwnership",
      "outputs": [],
      "stateMutability": "nonpayable",
      "type": "function"
    },
    {
      "inputs": [
        {
          "internalType": "address",
          "name": "newOwner",
          "type": "address"
        }
      ],
      "name": "transferOwnership",
      "outputs": [],
      "stateMutability": "nonpayable",
      "type": "function"
    },
    {
      "stateMutability": "payable",
      "type": "receive"
    },
    {
      "inputs": [],
      "name": "implementation",
      "outputs": [
        {
          "internalType": "address",
          "name": "",
          "type": "address"
        }
      ],
      "stateMutability": "view",
      "type": "function"
    },
    {
      "inputs": [
        {
          "internalType": "address",
          "name": "impl",
          "type": "address"
        }
      ],
      "name": "upgradeTo",
      "outputs": [],
      "stateMutability": "nonpayable",
      "type": "function"
    }
  ],
  "bytecode": "0x608060405234801561001057600080fd5b50610a09806100206000396000f3fe60806040526004361061004e5760003560e01c80633659cfe6146101155780635c60da1b1461013e578063715018a6146101695780638da5cb5b14610180578063f2fde38b146101ab57610110565b36610110576000606560009054906101000a900473ffffffffffffffffffffffffffffffffffffffff169050600073ffffffffffffffffffffffffffffffffffffffff168173ffffffffffffffffffffffffffffffffffffffff1614156100ea576040517f08c379a00000000000000000000000000000000000000000000000000000000081526004016100e1906107d5565b60405180910390fd5b3660008037600080366000845af43d6000803e806000811461010b573d6000f35b3d6000fd5b600080fd5b34801561012157600080fd5b5061013c6004803603810190610137919061068f565b6101d4565b005b34801561014a57600080fd5b506101536103d8565b604051610160919061077a565b60405180910390f35b34801561017557600080fd5b5061017e610402565b005b34801561018c57600080fd5b5061019561048a565b6040516101a2919061077a565b60405180910390f35b3480156101b757600080fd5b506101d260048036038101906101cd919061068f565b6104b4565b005b6101dc6105ac565b73ffffffffffffffffffffffffffffffffffffffff166101fa61048a565b73ffffffffffffffffffffffffffffffffffffffff1614610250576040517f08c379a0000000000000000000000000000000000000000000000000000000008152600401610247906107f5565b60405180910390fd5b600073ffffffffffffffffffffffffffffffffffffffff168173ffffffffffffffffffffffffffffffffffffffff1614156102c0576040517f08c379a00000000000000000000000000000000000000000000000000000000081526004016102b7906107b5565b60405180910390fd5b606560009054906101000a900473ffffffffffffffffffffffffffffffffffffffff1673ffffffffffffffffffffffffffffffffffffffff168173ffffffffffffffffffffffffffffffffffffffff161415610351576040517f08c379a000000000000000000000000000000000000000000000000000000000815260040161034890610815565b60405180910390fd5b80606560006101000a81548173ffffffffffffffffffffffffffffffffffffffff021916908373ffffffffffffffffffffffffffffffffffffffff1602179055508073ffffffffffffffffffffffffffffffffffffffff167fbc7cd75a20ee27fd9adebab32041f755214dbc6bffa90cc0225b39da2e5c2d3b60405160405180910390a250565b6000606560009054906101000a900473ffffffffffffffffffffffffffffffffffffffff16905090565b61040a6105ac565b73ffffffffffffffffffffffffffffffffffffffff1661042861048a565b73ffffffffffffffffffffffffffffffffffffffff161461047e576040517f08c379a0000000000000000000000000000000000000000000000000000000008152600401610475906107f5565b60405180910390fd5b61048860006105b4565b565b6000603360009054906101000a900473ffffffffffffffffffffffffffffffffffffffff16905090565b6104bc6105ac565b73ffffffffffffffffffffffffffffffffffffffff166104da61048a565b73ffffffffffffffffffffffffffffffffffffffff1614610530576040517f08c379a0000000000000000000000000000000000000000000000000000000008152600401610527906107f5565b60405180910390fd5b600073ffffffffffffffffffffffffffffffffffffffff168173ffffffffffffffffffffffffffffffffffffffff1614156105a0576040517f08c379a000000000000000000000000000000000000000000000000000000000815260040161059790610795565b60405180910390fd5b6105a9816105b4565b50565b600033905090565b6000603360009054906101000a900473ffffffffffffffffffffffffffffffffffffffff16905081603360006101000a81548173ffffffffffffffffffffffffffffffffffffffff021916908373ffffffffffffffffffffffffffffffffffffffff1602179055508173ffffffffffffffffffffffffffffffffffffffff168173ffffffffffffffffffffffffffffffffffffffff167f8be0079c531659141344cd1fd0a4f28419497f9722a3daafe3b4186f6b6457e060405160405180910390a35050565b600081359050610689816109bc565b92915050565b6000602082840312156106a5576106a4610878565b5b60006106b38482850161067a565b91505092915050565b6106c581610846565b82525050565b60006106d8602683610835565b91506106e38261087d565b604082019050919050565b60006106fb602183610835565b9150610706826108cc565b604082019050919050565b600061071e601f83610835565b91506107298261091b565b602082019050919050565b6000610741602083610835565b915061074c82610944565b602082019050919050565b6000610764602983610835565b915061076f8261096d565b604082019050919050565b600060208201905061078f60008301846106bc565b92915050565b600060208201905081810360008301526107ae816106cb565b9050919050565b600060208201905081810360008301526107ce816106ee565b9050919050565b600060208201905081810360008301526107ee81610711565b9050919050565b6000602082019050818103600083015261080e81610734565b9050919050565b6000602082019050818103600083015261082e81610757565b9050919050565b600082825260208201905092915050565b600061085182610858565b9050919050565b600073ffffffffffffffffffffffffffffffffffffffff82169050919050565b600080fd5b7f4f776e61626c653a206e6577206f776e657220697320746865207a65726f206160008201527f6464726573730000000000000000000000000000000000000000000000000000602082015250565b7f43616e6e6f74207570677261646520746f20696e76616c69642061646472657360008201527f7300000000000000000000000000000000000000000000000000000000000000602082015250565b7f696d706c656d656e746174696f6e20636f6e7472616374206e6f742073657400600082015250565b7f4f776e61626c653a2063616c6c6572206973206e6f7420746865206f776e6572600082015250565b7f43616e6e6f74207570677261646520746f207468652073616d6520696d706c6560008201527f6d656e746174696f6e0000000000000000000000000000000000000000000000602082015250565b6109c581610846565b81146109d057600080fd5b5056fea2646970667358221220f4de4ef448267e3b3c0148d20cecf0d3ecabb72e024ffd8923ed8646009837d664736f6c63430008070033",
  "immutableReferences": {},
  "source": "// SPDX-License-Identifier: MIT\r\npragma solidity ^0.8.0;\r\n\r\nimport \"@openzeppelin/contracts-upgradeable/access/OwnableUpgradeable.sol\";\r\n\r\ncontract Base is OwnableUpgradeable {\r\n\r\n    address internal _implementation;\r\n\r\n    /**  */\r\n    function implementation() public view returns (address) {\r\n        return _implementation;\r\n    }\r\n\r\n    /**  */\r\n    function upgradeTo(address impl) public onlyOwner {\r\n        require(impl != address(0), \"Cannot upgrade to invalid address\");\r\n        require(impl != _implementation, \"Cannot upgrade to the same implementation\");\r\n        _implementation = impl;\r\n        emit Upgraded(impl);\r\n    }\r\n\r\n    receive() payable external {\r\n        address _impl = _implementation;\r\n        require(_impl != address(0), \"implementation contract not set\");\r\n\r\n        assembly {\r\n            // Copy msg.data. We take full control of memory in this inline assembly\r\n            // block because it will not return to Solidity code. We overwrite the\r\n            // Solidity scratch pad at memory position 0.\r\n            calldatacopy(0, 0, calldatasize())\r\n\r\n            // Call the implementation.\r\n            // out and outsize are 0 because we don't know the size yet.\r\n            let result := delegatecall(gas(), _impl, 0, calldatasize(), 0, 0)\r\n\r\n            // Copy the returned data.\r\n            returndatacopy(0, 0, returndatasize())\r\n\r\n            switch result\r\n            // delegatecall returns 0 on error.\r\n            case 0 {\r\n                revert(0, returndatasize())\r\n            }\r\n            default {\r\n                return(0, returndatasize())\r\n            }\r\n        }\r\n    }\r\n\r\n    event Upgraded(address indexed implementation);\r\n}",
  "sourcePath": "D:\\solidity\\sol-test1\\contracts\\proxy\\Base.sol",
  "compiler": {
    "name": "solc",
    "version": "0.8.7+commit.e28d00a7.Emscripten.clang"
  },
  "schemaVersion": "3.4.3",
  "updatedAt": "2021-09-30T07:19:17.950Z",
  "devdoc": {
    "kind": "dev",
    "methods": {
      "owner()": {
        "details": "Returns the address of the current owner."
      },
      "renounceOwnership()": {
        "details": "Leaves the contract without owner. It will not be possible to call `onlyOwner` functions anymore. Can only be called by the current owner. NOTE: Renouncing ownership will leave the contract without an owner, thereby removing any functionality that is only available to the owner."
      },
      "transferOwnership(address)": {
        "details": "Transfers ownership of the contract to a new account (`newOwner`). Can only be called by the current owner."
      }
    },
    "version": 1
  },
  "userdoc": {
    "kind": "user",
    "methods": {
      "implementation()": {
        "notice": " "
      },
      "upgradeTo(address)": {
        "notice": " "
      }
    },
    "version": 1
  }
}