{
  "contractName": "Diamond",
  "abi": [
    {
      "anonymous": false,
      "inputs": [
        {
          "indexed": true,
          "internalType": "address",
          "name": "owner",
          "type": "address"
        },
        {
          "indexed": true,
          "internalType": "address",
          "name": "spender",
          "type": "address"
        },
        {
          "indexed": false,
          "internalType": "uint256",
          "name": "value",
          "type": "uint256"
        }
      ],
      "name": "Approval",
      "type": "event"
    },
    {
      "anonymous": false,
      "inputs": [
        {
          "indexed": true,
          "internalType": "address",
          "name": "previousOwner",
          "type": "address"
        },
        {
          "indexed": true,
          "internalType": "address",
          "name": "newOwner",
          "type": "address"
        }
      ],
      "name": "OwnershipTransferred",
      "type": "event"
    },
    {
      "anonymous": false,
      "inputs": [
        {
          "indexed": true,
          "internalType": "address",
          "name": "from",
          "type": "address"
        },
        {
          "indexed": true,
          "internalType": "address",
          "name": "to",
          "type": "address"
        },
        {
          "indexed": false,
          "internalType": "uint256",
          "name": "value",
          "type": "uint256"
        }
      ],
      "name": "Transfer",
      "type": "event"
    },
    {
      "inputs": [
        {
          "internalType": "address",
          "name": "owner",
          "type": "address"
        },
        {
          "internalType": "address",
          "name": "spender",
          "type": "address"
        }
      ],
      "name": "allowance",
      "outputs": [
        {
          "internalType": "uint256",
          "name": "",
          "type": "uint256"
        }
      ],
      "stateMutability": "view",
      "type": "function",
      "constant": true
    },
    {
      "inputs": [
        {
          "internalType": "address",
          "name": "spender",
          "type": "address"
        },
        {
          "internalType": "uint256",
          "name": "amount",
          "type": "uint256"
        }
      ],
      "name": "approve",
      "outputs": [
        {
          "internalType": "bool",
          "name": "",
          "type": "bool"
        }
      ],
      "stateMutability": "nonpayable",
      "type": "function"
    },
    {
      "inputs": [
        {
          "internalType": "address",
          "name": "account",
          "type": "address"
        }
      ],
      "name": "balanceOf",
      "outputs": [
        {
          "internalType": "uint256",
          "name": "",
          "type": "uint256"
        }
      ],
      "stateMutability": "view",
      "type": "function",
      "constant": true
    },
    {
      "inputs": [
        {
          "internalType": "address",
          "name": "spender",
          "type": "address"
        },
        {
          "internalType": "uint256",
          "name": "subtractedValue",
          "type": "uint256"
        }
      ],
      "name": "decreaseAllowance",
      "outputs": [
        {
          "internalType": "bool",
          "name": "",
          "type": "bool"
        }
      ],
      "stateMutability": "nonpayable",
      "type": "function"
    },
    {
      "inputs": [
        {
          "internalType": "address",
          "name": "spender",
          "type": "address"
        },
        {
          "internalType": "uint256",
          "name": "addedValue",
          "type": "uint256"
        }
      ],
      "name": "increaseAllowance",
      "outputs": [
        {
          "internalType": "bool",
          "name": "",
          "type": "bool"
        }
      ],
      "stateMutability": "nonpayable",
      "type": "function"
    },
    {
      "inputs": [],
      "name": "name",
      "outputs": [
        {
          "internalType": "string",
          "name": "",
          "type": "string"
        }
      ],
      "stateMutability": "view",
      "type": "function",
      "constant": true
    },
    {
      "inputs": [],
      "name": "owner",
      "outputs": [
        {
          "internalType": "address",
          "name": "",
          "type": "address"
        }
      ],
      "stateMutability": "view",
      "type": "function",
      "constant": true
    },
    {
      "inputs": [],
      "name": "renounceOwnership",
      "outputs": [],
      "stateMutability": "nonpayable",
      "type": "function"
    },
    {
      "inputs": [],
      "name": "symbol",
      "outputs": [
        {
          "internalType": "string",
          "name": "",
          "type": "string"
        }
      ],
      "stateMutability": "view",
      "type": "function",
      "constant": true
    },
    {
      "inputs": [],
      "name": "totalSupply",
      "outputs": [
        {
          "internalType": "uint256",
          "name": "",
          "type": "uint256"
        }
      ],
      "stateMutability": "view",
      "type": "function",
      "constant": true
    },
    {
      "inputs": [
        {
          "internalType": "address",
          "name": "recipient",
          "type": "address"
        },
        {
          "internalType": "uint256",
          "name": "amount",
          "type": "uint256"
        }
      ],
      "name": "transfer",
      "outputs": [
        {
          "internalType": "bool",
          "name": "",
          "type": "bool"
        }
      ],
      "stateMutability": "nonpayable",
      "type": "function"
    },
    {
      "inputs": [
        {
          "internalType": "address",
          "name": "sender",
          "type": "address"
        },
        {
          "internalType": "address",
          "name": "recipient",
          "type": "address"
        },
        {
          "internalType": "uint256",
          "name": "amount",
          "type": "uint256"
        }
      ],
      "name": "transferFrom",
      "outputs": [
        {
          "internalType": "bool",
          "name": "",
          "type": "bool"
        }
      ],
      "stateMutability": "nonpayable",
      "type": "function"
    },
    {
      "inputs": [
        {
          "internalType": "address",
          "name": "newOwner",
          "type": "address"
        }
      ],
      "name": "transferOwnership",
      "outputs": [],
      "stateMutability": "nonpayable",
      "type": "function"
    },
    {
      "inputs": [],
      "name": "initialize",
      "outputs": [],
      "stateMutability": "nonpayable",
      "type": "function"
    },
    {
      "inputs": [
        {
          "internalType": "uint256",
          "name": "amount",
          "type": "uint256"
        }
      ],
      "name": "mint",
      "outputs": [],
      "stateMutability": "nonpayable",
      "type": "function"
    },
    {
      "inputs": [],
      "name": "decimals",
      "outputs": [
        {
          "internalType": "uint8",
          "name": "",
          "type": "uint8"
        }
      ],
      "stateMutability": "pure",
      "type": "function",
      "constant": true
    }
  ],
  "bytecode": "0x608060405234801561001057600080fd5b506121d0806100206000396000f3fe608060405234801561001057600080fd5b50600436106101005760003560e01c80638129fc1c11610097578063a457c2d711610066578063a457c2d71461028b578063a9059cbb146102bb578063dd62ed3e146102eb578063f2fde38b1461031b57610100565b80638129fc1c146102295780638da5cb5b1461023357806395d89b4114610251578063a0712d681461026f57610100565b8063313ce567116100d3578063313ce567146101a157806339509351146101bf57806370a08231146101ef578063715018a61461021f57610100565b806306fdde0314610105578063095ea7b31461012357806318160ddd1461015357806323b872dd14610171575b600080fd5b61010d610337565b60405161011a9190611afb565b60405180910390f35b61013d60048036038101906101389190611862565b6103c9565b60405161014a9190611ae0565b60405180910390f35b61015b6103e7565b6040516101689190611c7d565b60405180910390f35b61018b6004803603810190610186919061180f565b6103f1565b6040516101989190611ae0565b60405180910390f35b6101a96104e9565b6040516101b69190611c98565b60405180910390f35b6101d960048036038101906101d49190611862565b6104f2565b6040516101e69190611ae0565b60405180910390f35b610209600480360381019061020491906117a2565b61059e565b6040516102169190611c7d565b60405180910390f35b6102276105e7565b005b61023161066f565b005b61023b6107d8565b6040516102489190611ac5565b60405180910390f35b610259610802565b6040516102669190611afb565b60405180910390f35b610289600480360381019061028491906118a2565b610894565b005b6102a560048036038101906102a09190611862565b610924565b6040516102b29190611ae0565b60405180910390f35b6102d560048036038101906102d09190611862565b610a0f565b6040516102e29190611ae0565b60405180910390f35b610305600480360381019061030091906117cf565b610a2d565b6040516103129190611c7d565b60405180910390f35b610335600480360381019061033091906117a2565b610ab4565b005b60606036805461034690611dad565b80601f016020809104026020016040519081016040528092919081815260200182805461037290611dad565b80156103bf5780601f10610394576101008083540402835291602001916103bf565b820191906000526020600020905b8154815290600101906020018083116103a257829003601f168201915b5050505050905090565b60006103dd6103d6610bac565b8484610bb4565b6001905092915050565b6000603554905090565b60006103fe848484610d7f565b6000603460008673ffffffffffffffffffffffffffffffffffffffff1673ffffffffffffffffffffffffffffffffffffffff1681526020019081526020016000206000610449610bac565b73ffffffffffffffffffffffffffffffffffffffff1673ffffffffffffffffffffffffffffffffffffffff168152602001908152602001600020549050828110156104c9576040517f08c379a00000000000000000000000000000000000000000000000000000000081526004016104c090611bbd565b60405180910390fd5b6104dd856104d5610bac565b858403610bb4565b60019150509392505050565b60006012905090565b60006105946104ff610bac565b84846034600061050d610bac565b73ffffffffffffffffffffffffffffffffffffffff1673ffffffffffffffffffffffffffffffffffffffff16815260200190815260200160002060008873ffffffffffffffffffffffffffffffffffffffff1673ffffffffffffffffffffffffffffffffffffffff1681526020019081526020016000205461058f9190611ccf565b610bb4565b6001905092915050565b6000603360008373ffffffffffffffffffffffffffffffffffffffff1673ffffffffffffffffffffffffffffffffffffffff168152602001908152602001600020549050919050565b6105ef610bac565b73ffffffffffffffffffffffffffffffffffffffff1661060d6107d8565b73ffffffffffffffffffffffffffffffffffffffff1614610663576040517f08c379a000000000000000000000000000000000000000000000000000000000815260040161065a90611bdd565b60405180910390fd5b61066d6000611003565b565b600060019054906101000a900460ff1680610695575060008054906101000a900460ff16155b6106d4576040517f08c379a00000000000000000000000000000000000000000000000000000000081526004016106cb90611b9d565b60405180910390fd5b60008060019054906101000a900460ff161590508015610724576001600060016101000a81548160ff02191690831515021790555060016000806101000a81548160ff0219169083151502179055505b6107986040518060400160405280600b81526020017f54616d657220546f6b656e0000000000000000000000000000000000000000008152506040518060400160405280600381526020017f544d5400000000000000000000000000000000000000000000000000000000008152506110c9565b6107a06111b6565b6107b43369021e19e0c9bab240000061129f565b80156107d55760008060016101000a81548160ff0219169083151502179055505b50565b6000606560009054906101000a900473ffffffffffffffffffffffffffffffffffffffff16905090565b60606037805461081190611dad565b80601f016020809104026020016040519081016040528092919081815260200182805461083d90611dad565b801561088a5780601f1061085f5761010080835404028352916020019161088a565b820191906000526020600020905b81548152906001019060200180831161086d57829003601f168201915b5050505050905090565b61089c610bac565b73ffffffffffffffffffffffffffffffffffffffff166108ba6107d8565b73ffffffffffffffffffffffffffffffffffffffff1614610910576040517f08c379a000000000000000000000000000000000000000000000000000000000815260040161090790611bdd565b60405180910390fd5b61092161091b6107d8565b8261129f565b50565b60008060346000610933610bac565b73ffffffffffffffffffffffffffffffffffffffff1673ffffffffffffffffffffffffffffffffffffffff16815260200190815260200160002060008573ffffffffffffffffffffffffffffffffffffffff1673ffffffffffffffffffffffffffffffffffffffff168152602001908152602001600020549050828110156109f0576040517f08c379a00000000000000000000000000000000000000000000000000000000081526004016109e790611c3d565b60405180910390fd5b610a046109fb610bac565b85858403610bb4565b600191505092915050565b6000610a23610a1c610bac565b8484610d7f565b6001905092915050565b6000603460008473ffffffffffffffffffffffffffffffffffffffff1673ffffffffffffffffffffffffffffffffffffffff16815260200190815260200160002060008373ffffffffffffffffffffffffffffffffffffffff1673ffffffffffffffffffffffffffffffffffffffff16815260200190815260200160002054905092915050565b610abc610bac565b73ffffffffffffffffffffffffffffffffffffffff16610ada6107d8565b73ffffffffffffffffffffffffffffffffffffffff1614610b30576040517f08c379a0000000000000000000000000000000000000000000000000000000008152600401610b2790611bdd565b60405180910390fd5b600073ffffffffffffffffffffffffffffffffffffffff168173ffffffffffffffffffffffffffffffffffffffff161415610ba0576040517f08c379a0000000000000000000000000000000000000000000000000000000008152600401610b9790611b3d565b60405180910390fd5b610ba981611003565b50565b600033905090565b600073ffffffffffffffffffffffffffffffffffffffff168373ffffffffffffffffffffffffffffffffffffffff161415610c24576040517f08c379a0000000000000000000000000000000000000000000000000000000008152600401610c1b90611c1d565b60405180910390fd5b600073ffffffffffffffffffffffffffffffffffffffff168273ffffffffffffffffffffffffffffffffffffffff161415610c94576040517f08c379a0000000000000000000000000000000000000000000000000000000008152600401610c8b90611b5d565b60405180910390fd5b80603460008573ffffffffffffffffffffffffffffffffffffffff1673ffffffffffffffffffffffffffffffffffffffff16815260200190815260200160002060008473ffffffffffffffffffffffffffffffffffffffff1673ffffffffffffffffffffffffffffffffffffffff168152602001908152602001600020819055508173ffffffffffffffffffffffffffffffffffffffff168373ffffffffffffffffffffffffffffffffffffffff167f8c5be1e5ebec7d5bd14f71427d1e84f3dd0314c0f7b2291e5b200ac8c7c3b92583604051610d729190611c7d565b60405180910390a3505050565b600073ffffffffffffffffffffffffffffffffffffffff168373ffffffffffffffffffffffffffffffffffffffff161415610def576040517f08c379a0000000000000000000000000000000000000000000000000000000008152600401610de690611bfd565b60405180910390fd5b600073ffffffffffffffffffffffffffffffffffffffff168273ffffffffffffffffffffffffffffffffffffffff161415610e5f576040517f08c379a0000000000000000000000000000000000000000000000000000000008152600401610e5690611b1d565b60405180910390fd5b610e6a838383611400565b6000603360008573ffffffffffffffffffffffffffffffffffffffff1673ffffffffffffffffffffffffffffffffffffffff16815260200190815260200160002054905081811015610ef1576040517f08c379a0000000000000000000000000000000000000000000000000000000008152600401610ee890611b7d565b60405180910390fd5b818103603360008673ffffffffffffffffffffffffffffffffffffffff1673ffffffffffffffffffffffffffffffffffffffff1681526020019081526020016000208190555081603360008573ffffffffffffffffffffffffffffffffffffffff1673ffffffffffffffffffffffffffffffffffffffff1681526020019081526020016000206000828254610f869190611ccf565b925050819055508273ffffffffffffffffffffffffffffffffffffffff168473ffffffffffffffffffffffffffffffffffffffff167fddf252ad1be2c89b69c2b068fc378daa952ba7f163c4a11628f55a4df523b3ef84604051610fea9190611c7d565b60405180910390a3610ffd848484611405565b50505050565b6000606560009054906101000a900473ffffffffffffffffffffffffffffffffffffffff16905081606560006101000a81548173ffffffffffffffffffffffffffffffffffffffff021916908373ffffffffffffffffffffffffffffffffffffffff1602179055508173ffffffffffffffffffffffffffffffffffffffff168173ffffffffffffffffffffffffffffffffffffffff167f8be0079c531659141344cd1fd0a4f28419497f9722a3daafe3b4186f6b6457e060405160405180910390a35050565b600060019054906101000a900460ff16806110ef575060008054906101000a900460ff16155b61112e576040517f08c379a000000000000000000000000000000000000000000000000000000000815260040161112590611b9d565b60405180910390fd5b60008060019054906101000a900460ff16159050801561117e576001600060016101000a81548160ff02191690831515021790555060016000806101000a81548160ff0219169083151502179055505b61118661140a565b61119083836114e3565b80156111b15760008060016101000a81548160ff0219169083151502179055505b505050565b600060019054906101000a900460ff16806111dc575060008054906101000a900460ff16155b61121b576040517f08c379a000000000000000000000000000000000000000000000000000000000815260040161121290611b9d565b60405180910390fd5b60008060019054906101000a900460ff16159050801561126b576001600060016101000a81548160ff02191690831515021790555060016000806101000a81548160ff0219169083151502179055505b61127361140a565b61127b6115ec565b801561129c5760008060016101000a81548160ff0219169083151502179055505b50565b600073ffffffffffffffffffffffffffffffffffffffff168273ffffffffffffffffffffffffffffffffffffffff16141561130f576040517f08c379a000000000000000000000000000000000000000000000000000000000815260040161130690611c5d565b60405180910390fd5b61131b60008383611400565b806035600082825461132d9190611ccf565b9250508190555080603360008473ffffffffffffffffffffffffffffffffffffffff1673ffffffffffffffffffffffffffffffffffffffff16815260200190815260200160002060008282546113839190611ccf565b925050819055508173ffffffffffffffffffffffffffffffffffffffff16600073ffffffffffffffffffffffffffffffffffffffff167fddf252ad1be2c89b69c2b068fc378daa952ba7f163c4a11628f55a4df523b3ef836040516113e89190611c7d565b60405180910390a36113fc60008383611405565b5050565b505050565b505050565b600060019054906101000a900460ff1680611430575060008054906101000a900460ff16155b61146f576040517f08c379a000000000000000000000000000000000000000000000000000000000815260040161146690611b9d565b60405180910390fd5b60008060019054906101000a900460ff1615905080156114bf576001600060016101000a81548160ff02191690831515021790555060016000806101000a81548160ff0219169083151502179055505b80156114e05760008060016101000a81548160ff0219169083151502179055505b50565b600060019054906101000a900460ff1680611509575060008054906101000a900460ff16155b611548576040517f08c379a000000000000000000000000000000000000000000000000000000000815260040161153f90611b9d565b60405180910390fd5b60008060019054906101000a900460ff161590508015611598576001600060016101000a81548160ff02191690831515021790555060016000806101000a81548160ff0219169083151502179055505b82603690805190602001906115ae9291906116d5565b5081603790805190602001906115c59291906116d5565b5080156115e75760008060016101000a81548160ff0219169083151502179055505b505050565b600060019054906101000a900460ff1680611612575060008054906101000a900460ff16155b611651576040517f08c379a000000000000000000000000000000000000000000000000000000000815260040161164890611b9d565b60405180910390fd5b60008060019054906101000a900460ff1615905080156116a1576001600060016101000a81548160ff02191690831515021790555060016000806101000a81548160ff0219169083151502179055505b6116b16116ac610bac565b611003565b80156116d25760008060016101000a81548160ff0219169083151502179055505b50565b8280546116e190611dad565b90600052602060002090601f016020900481019282611703576000855561174a565b82601f1061171c57805160ff191683800117855561174a565b8280016001018555821561174a579182015b8281111561174957825182559160200191906001019061172e565b5b509050611757919061175b565b5090565b5b8082111561177457600081600090555060010161175c565b5090565b6000813590506117878161216c565b92915050565b60008135905061179c81612183565b92915050565b6000602082840312156117b8576117b7611e3d565b5b60006117c684828501611778565b91505092915050565b600080604083850312156117e6576117e5611e3d565b5b60006117f485828601611778565b925050602061180585828601611778565b9150509250929050565b60008060006060848603121561182857611827611e3d565b5b600061183686828701611778565b935050602061184786828701611778565b92505060406118588682870161178d565b9150509250925092565b6000806040838503121561187957611878611e3d565b5b600061188785828601611778565b92505060206118988582860161178d565b9150509250929050565b6000602082840312156118b8576118b7611e3d565b5b60006118c68482850161178d565b91505092915050565b6118d881611d25565b82525050565b6118e781611d37565b82525050565b60006118f882611cb3565b6119028185611cbe565b9350611912818560208601611d7a565b61191b81611e42565b840191505092915050565b6000611933602383611cbe565b915061193e82611e53565b604082019050919050565b6000611956602683611cbe565b915061196182611ea2565b604082019050919050565b6000611979602283611cbe565b915061198482611ef1565b604082019050919050565b600061199c602683611cbe565b91506119a782611f40565b604082019050919050565b60006119bf602e83611cbe565b91506119ca82611f8f565b604082019050919050565b60006119e2602883611cbe565b91506119ed82611fde565b604082019050919050565b6000611a05602083611cbe565b9150611a108261202d565b602082019050919050565b6000611a28602583611cbe565b9150611a3382612056565b604082019050919050565b6000611a4b602483611cbe565b9150611a56826120a5565b604082019050919050565b6000611a6e602583611cbe565b9150611a79826120f4565b604082019050919050565b6000611a91601f83611cbe565b9150611a9c82612143565b602082019050919050565b611ab081611d63565b82525050565b611abf81611d6d565b82525050565b6000602082019050611ada60008301846118cf565b92915050565b6000602082019050611af560008301846118de565b92915050565b60006020820190508181036000830152611b1581846118ed565b905092915050565b60006020820190508181036000830152611b3681611926565b9050919050565b60006020820190508181036000830152611b5681611949565b9050919050565b60006020820190508181036000830152611b768161196c565b9050919050565b60006020820190508181036000830152611b968161198f565b9050919050565b60006020820190508181036000830152611bb6816119b2565b9050919050565b60006020820190508181036000830152611bd6816119d5565b9050919050565b60006020820190508181036000830152611bf6816119f8565b9050919050565b60006020820190508181036000830152611c1681611a1b565b9050919050565b60006020820190508181036000830152611c3681611a3e565b9050919050565b60006020820190508181036000830152611c5681611a61565b9050919050565b60006020820190508181036000830152611c7681611a84565b9050919050565b6000602082019050611c926000830184611aa7565b92915050565b6000602082019050611cad6000830184611ab6565b92915050565b600081519050919050565b600082825260208201905092915050565b6000611cda82611d63565b9150611ce583611d63565b9250827fffffffffffffffffffffffffffffffffffffffffffffffffffffffffffffffff03821115611d1a57611d19611ddf565b5b828201905092915050565b6000611d3082611d43565b9050919050565b60008115159050919050565b600073ffffffffffffffffffffffffffffffffffffffff82169050919050565b6000819050919050565b600060ff82169050919050565b60005b83811015611d98578082015181840152602081019050611d7d565b83811115611da7576000848401525b50505050565b60006002820490506001821680611dc557607f821691505b60208210811415611dd957611dd8611e0e565b5b50919050565b7f4e487b7100000000000000000000000000000000000000000000000000000000600052601160045260246000fd5b7f4e487b7100000000000000000000000000000000000000000000000000000000600052602260045260246000fd5b600080fd5b6000601f19601f8301169050919050565b7f45524332303a207472616e7366657220746f20746865207a65726f206164647260008201527f6573730000000000000000000000000000000000000000000000000000000000602082015250565b7f4f776e61626c653a206e6577206f776e657220697320746865207a65726f206160008201527f6464726573730000000000000000000000000000000000000000000000000000602082015250565b7f45524332303a20617070726f766520746f20746865207a65726f20616464726560008201527f7373000000000000000000000000000000000000000000000000000000000000602082015250565b7f45524332303a207472616e7366657220616d6f756e742065786365656473206260008201527f616c616e63650000000000000000000000000000000000000000000000000000602082015250565b7f496e697469616c697a61626c653a20636f6e747261637420697320616c72656160008201527f647920696e697469616c697a6564000000000000000000000000000000000000602082015250565b7f45524332303a207472616e7366657220616d6f756e742065786365656473206160008201527f6c6c6f77616e6365000000000000000000000000000000000000000000000000602082015250565b7f4f776e61626c653a2063616c6c6572206973206e6f7420746865206f776e6572600082015250565b7f45524332303a207472616e736665722066726f6d20746865207a65726f20616460008201527f6472657373000000000000000000000000000000000000000000000000000000602082015250565b7f45524332303a20617070726f76652066726f6d20746865207a65726f2061646460008201527f7265737300000000000000000000000000000000000000000000000000000000602082015250565b7f45524332303a2064656372656173656420616c6c6f77616e63652062656c6f7760008201527f207a65726f000000000000000000000000000000000000000000000000000000602082015250565b7f45524332303a206d696e7420746f20746865207a65726f206164647265737300600082015250565b61217581611d25565b811461218057600080fd5b50565b61218c81611d63565b811461219757600080fd5b5056fea26469706673582212206b9961d60ae131113c1b1b042c9c31fba51094b77a15aee4ef38fe7103bce2d964736f6c63430008070033",
  "immutableReferences": {},
  "source": "// SPDX-License-Identifier: MIT\npragma solidity ^0.8.0;\n\nimport \"@openzeppelin/contracts-upgradeable/token/ERC20/ERC20Upgradeable.sol\";\nimport \"@openzeppelin/contracts-upgradeable/access/OwnableUpgradeable.sol\";\n\n/**\n    -\n */\ncontract Diamond is ERC20Upgradeable,OwnableUpgradeable {\n\n    function initialize() public initializer {\n        __ERC20_init(\"Tamer Token\",\"TMT\");\n        __Ownable_init();\n        \n        //\n        super._mint(msg.sender, 10000* 1e18);\n    }\n\n    /**  */\n    function mint(uint256 amount) public onlyOwner {\n        super._mint(owner(), amount);\n    }\n\n    //\n    function decimals() public override pure returns (uint8) {\n        return 18;\n    }\n}",
  "sourcePath": "D:\\solidity\\sol-test1\\contracts\\Diamond.sol",
  "compiler": {
    "name": "solc",
    "version": "0.8.7+commit.e28d00a7.Emscripten.clang"
  },
  "schemaVersion": "3.4.3",
  "updatedAt": "2021-12-02T09:58:34.228Z",
  "networkType": "ethereum",
  "devdoc": {
    "kind": "dev",
    "methods": {
      "allowance(address,address)": {
        "details": "See {IERC20-allowance}."
      },
      "approve(address,uint256)": {
        "details": "See {IERC20-approve}. Requirements: - `spender` cannot be the zero address."
      },
      "balanceOf(address)": {
        "details": "See {IERC20-balanceOf}."
      },
      "decimals()": {
        "details": "Returns the number of decimals used to get its user representation. For example, if `decimals` equals `2`, a balance of `505` tokens should be displayed to a user as `5.05` (`505 / 10 ** 2`). Tokens usually opt for a value of 18, imitating the relationship between Ether and Wei. This is the value {ERC20} uses, unless this function is overridden; NOTE: This information is only used for _display_ purposes: it in no way affects any of the arithmetic of the contract, including {IERC20-balanceOf} and {IERC20-transfer}."
      },
      "decreaseAllowance(address,uint256)": {
        "details": "Atomically decreases the allowance granted to `spender` by the caller. This is an alternative to {approve} that can be used as a mitigation for problems described in {IERC20-approve}. Emits an {Approval} event indicating the updated allowance. Requirements: - `spender` cannot be the zero address. - `spender` must have allowance for the caller of at least `subtractedValue`."
      },
      "increaseAllowance(address,uint256)": {
        "details": "Atomically increases the allowance granted to `spender` by the caller. This is an alternative to {approve} that can be used as a mitigation for problems described in {IERC20-approve}. Emits an {Approval} event indicating the updated allowance. Requirements: - `spender` cannot be the zero address."
      },
      "name()": {
        "details": "Returns the name of the token."
      },
      "owner()": {
        "details": "Returns the address of the current owner."
      },
      "renounceOwnership()": {
        "details": "Leaves the contract without owner. It will not be possible to call `onlyOwner` functions anymore. Can only be called by the current owner. NOTE: Renouncing ownership will leave the contract without an owner, thereby removing any functionality that is only available to the owner."
      },
      "symbol()": {
        "details": "Returns the symbol of the token, usually a shorter version of the name."
      },
      "totalSupply()": {
        "details": "See {IERC20-totalSupply}."
      },
      "transfer(address,uint256)": {
        "details": "See {IERC20-transfer}. Requirements: - `recipient` cannot be the zero address. - the caller must have a balance of at least `amount`."
      },
      "transferFrom(address,address,uint256)": {
        "details": "See {IERC20-transferFrom}. Emits an {Approval} event indicating the updated allowance. This is not required by the EIP. See the note at the beginning of {ERC20}. Requirements: - `sender` and `recipient` cannot be the zero address. - `sender` must have a balance of at least `amount`. - the caller must have allowance for ``sender``'s tokens of at least `amount`."
      },
      "transferOwnership(address)": {
        "details": "Transfers ownership of the contract to a new account (`newOwner`). Can only be called by the current owner."
      }
    },
    "version": 1
  },
  "userdoc": {
    "kind": "user",
    "methods": {
      "mint(uint256)": {
        "notice": " "
      }
    },
    "notice": "-",
    "version": 1
  }
}