{
  "contractName": "Diamond",
  "abi": [
    {
      "anonymous": false,
      "inputs": [
        {
          "indexed": true,
          "internalType": "address",
          "name": "owner",
          "type": "address"
        },
        {
          "indexed": true,
          "internalType": "address",
          "name": "spender",
          "type": "address"
        },
        {
          "indexed": false,
          "internalType": "uint256",
          "name": "value",
          "type": "uint256"
        }
      ],
      "name": "Approval",
      "type": "event"
    },
    {
      "anonymous": false,
      "inputs": [
        {
          "indexed": true,
          "internalType": "address",
          "name": "previousOwner",
          "type": "address"
        },
        {
          "indexed": true,
          "internalType": "address",
          "name": "newOwner",
          "type": "address"
        }
      ],
      "name": "OwnershipTransferred",
      "type": "event"
    },
    {
      "anonymous": false,
      "inputs": [
        {
          "indexed": true,
          "internalType": "address",
          "name": "from",
          "type": "address"
        },
        {
          "indexed": true,
          "internalType": "address",
          "name": "to",
          "type": "address"
        },
        {
          "indexed": false,
          "internalType": "uint256",
          "name": "value",
          "type": "uint256"
        }
      ],
      "name": "Transfer",
      "type": "event"
    },
    {
      "inputs": [
        {
          "internalType": "address",
          "name": "owner",
          "type": "address"
        },
        {
          "internalType": "address",
          "name": "spender",
          "type": "address"
        }
      ],
      "name": "allowance",
      "outputs": [
        {
          "internalType": "uint256",
          "name": "",
          "type": "uint256"
        }
      ],
      "stateMutability": "view",
      "type": "function"
    },
    {
      "inputs": [
        {
          "internalType": "address",
          "name": "spender",
          "type": "address"
        },
        {
          "internalType": "uint256",
          "name": "amount",
          "type": "uint256"
        }
      ],
      "name": "approve",
      "outputs": [
        {
          "internalType": "bool",
          "name": "",
          "type": "bool"
        }
      ],
      "stateMutability": "nonpayable",
      "type": "function"
    },
    {
      "inputs": [
        {
          "internalType": "address",
          "name": "account",
          "type": "address"
        }
      ],
      "name": "balanceOf",
      "outputs": [
        {
          "internalType": "uint256",
          "name": "",
          "type": "uint256"
        }
      ],
      "stateMutability": "view",
      "type": "function"
    },
    {
      "inputs": [
        {
          "internalType": "address",
          "name": "spender",
          "type": "address"
        },
        {
          "internalType": "uint256",
          "name": "subtractedValue",
          "type": "uint256"
        }
      ],
      "name": "decreaseAllowance",
      "outputs": [
        {
          "internalType": "bool",
          "name": "",
          "type": "bool"
        }
      ],
      "stateMutability": "nonpayable",
      "type": "function"
    },
    {
      "inputs": [
        {
          "internalType": "address",
          "name": "spender",
          "type": "address"
        },
        {
          "internalType": "uint256",
          "name": "addedValue",
          "type": "uint256"
        }
      ],
      "name": "increaseAllowance",
      "outputs": [
        {
          "internalType": "bool",
          "name": "",
          "type": "bool"
        }
      ],
      "stateMutability": "nonpayable",
      "type": "function"
    },
    {
      "inputs": [],
      "name": "name",
      "outputs": [
        {
          "internalType": "string",
          "name": "",
          "type": "string"
        }
      ],
      "stateMutability": "view",
      "type": "function"
    },
    {
      "inputs": [],
      "name": "owner",
      "outputs": [
        {
          "internalType": "address",
          "name": "",
          "type": "address"
        }
      ],
      "stateMutability": "view",
      "type": "function"
    },
    {
      "inputs": [],
      "name": "renounceOwnership",
      "outputs": [],
      "stateMutability": "nonpayable",
      "type": "function"
    },
    {
      "inputs": [],
      "name": "symbol",
      "outputs": [
        {
          "internalType": "string",
          "name": "",
          "type": "string"
        }
      ],
      "stateMutability": "view",
      "type": "function"
    },
    {
      "inputs": [],
      "name": "totalSupply",
      "outputs": [
        {
          "internalType": "uint256",
          "name": "",
          "type": "uint256"
        }
      ],
      "stateMutability": "view",
      "type": "function"
    },
    {
      "inputs": [
        {
          "internalType": "address",
          "name": "recipient",
          "type": "address"
        },
        {
          "internalType": "uint256",
          "name": "amount",
          "type": "uint256"
        }
      ],
      "name": "transfer",
      "outputs": [
        {
          "internalType": "bool",
          "name": "",
          "type": "bool"
        }
      ],
      "stateMutability": "nonpayable",
      "type": "function"
    },
    {
      "inputs": [
        {
          "internalType": "address",
          "name": "sender",
          "type": "address"
        },
        {
          "internalType": "address",
          "name": "recipient",
          "type": "address"
        },
        {
          "internalType": "uint256",
          "name": "amount",
          "type": "uint256"
        }
      ],
      "name": "transferFrom",
      "outputs": [
        {
          "internalType": "bool",
          "name": "",
          "type": "bool"
        }
      ],
      "stateMutability": "nonpayable",
      "type": "function"
    },
    {
      "inputs": [
        {
          "internalType": "address",
          "name": "newOwner",
          "type": "address"
        }
      ],
      "name": "transferOwnership",
      "outputs": [],
      "stateMutability": "nonpayable",
      "type": "function"
    },
    {
      "inputs": [],
      "name": "initialize",
      "outputs": [],
      "stateMutability": "nonpayable",
      "type": "function"
    },
    {
      "inputs": [
        {
          "internalType": "uint256",
          "name": "amount",
          "type": "uint256"
        }
      ],
      "name": "mint",
      "outputs": [],
      "stateMutability": "nonpayable",
      "type": "function"
    },
    {
      "inputs": [],
      "name": "decimals",
      "outputs": [
        {
          "internalType": "uint8",
          "name": "",
          "type": "uint8"
        }
      ],
      "stateMutability": "pure",
      "type": "function"
    }
  ],
  "bytecode": "0x608060405234801561001057600080fd5b50611fea806100206000396000f3fe608060405234801561001057600080fd5b50600436106101005760003560e01c80638129fc1c11610097578063a457c2d711610066578063a457c2d71461028b578063a9059cbb146102bb578063dd62ed3e146102eb578063f2fde38b1461031b57610100565b80638129fc1c146102295780638da5cb5b1461023357806395d89b4114610251578063a0712d681461026f57610100565b8063313ce567116100d3578063313ce567146101a157806339509351146101bf57806370a08231146101ef578063715018a61461021f57610100565b806306fdde0314610105578063095ea7b31461012357806318160ddd1461015357806323b872dd14610171575b600080fd5b61010d610337565b60405161011a9190611915565b60405180910390f35b61013d6004803603810190610138919061167c565b6103c9565b60405161014a91906118fa565b60405180910390f35b61015b6103e7565b6040516101689190611a97565b60405180910390f35b61018b60048036038101906101869190611629565b6103f1565b60405161019891906118fa565b60405180910390f35b6101a96104e9565b6040516101b69190611ab2565b60405180910390f35b6101d960048036038101906101d4919061167c565b6104ee565b6040516101e691906118fa565b60405180910390f35b610209600480360381019061020491906115bc565b61059a565b6040516102169190611a97565b60405180910390f35b6102276105e3565b005b61023161066b565b005b61023b6107c4565b60405161024891906118df565b60405180910390f35b6102596107ee565b6040516102669190611915565b60405180910390f35b610289600480360381019061028491906116bc565b610880565b005b6102a560048036038101906102a0919061167c565b610910565b6040516102b291906118fa565b60405180910390f35b6102d560048036038101906102d0919061167c565b6109fb565b6040516102e291906118fa565b60405180910390f35b610305600480360381019061030091906115e9565b610a19565b6040516103129190611a97565b60405180910390f35b610335600480360381019061033091906115bc565b610aa0565b005b60606036805461034690611bc7565b80601f016020809104026020016040519081016040528092919081815260200182805461037290611bc7565b80156103bf5780601f10610394576101008083540402835291602001916103bf565b820191906000526020600020905b8154815290600101906020018083116103a257829003601f168201915b5050505050905090565b60006103dd6103d6610b98565b8484610ba0565b6001905092915050565b6000603554905090565b60006103fe848484610d6b565b6000603460008673ffffffffffffffffffffffffffffffffffffffff1673ffffffffffffffffffffffffffffffffffffffff1681526020019081526020016000206000610449610b98565b73ffffffffffffffffffffffffffffffffffffffff1673ffffffffffffffffffffffffffffffffffffffff168152602001908152602001600020549050828110156104c9576040517f08c379a00000000000000000000000000000000000000000000000000000000081526004016104c0906119d7565b60405180910390fd5b6104dd856104d5610b98565b858403610ba0565b60019150509392505050565b600090565b60006105906104fb610b98565b848460346000610509610b98565b73ffffffffffffffffffffffffffffffffffffffff1673ffffffffffffffffffffffffffffffffffffffff16815260200190815260200160002060008873ffffffffffffffffffffffffffffffffffffffff1673ffffffffffffffffffffffffffffffffffffffff1681526020019081526020016000205461058b9190611ae9565b610ba0565b6001905092915050565b6000603360008373ffffffffffffffffffffffffffffffffffffffff1673ffffffffffffffffffffffffffffffffffffffff168152602001908152602001600020549050919050565b6105eb610b98565b73ffffffffffffffffffffffffffffffffffffffff166106096107c4565b73ffffffffffffffffffffffffffffffffffffffff161461065f576040517f08c379a0000000000000000000000000000000000000000000000000000000008152600401610656906119f7565b60405180910390fd5b6106696000610fef565b565b600060019054906101000a900460ff1680610691575060008054906101000a900460ff16155b6106d0576040517f08c379a00000000000000000000000000000000000000000000000000000000081526004016106c7906119b7565b60405180910390fd5b60008060019054906101000a900460ff161590508015610720576001600060016101000a81548160ff02191690831515021790555060016000806101000a81548160ff0219169083151502179055505b6107946040518060400160405280600a81526020017f464d204469616d6f6e64000000000000000000000000000000000000000000008152506040518060400160405280600381526020017f464d4400000000000000000000000000000000000000000000000000000000008152506110b5565b6107a0336127106111a2565b80156107c15760008060016101000a81548160ff0219169083151502179055505b50565b6000606560009054906101000a900473ffffffffffffffffffffffffffffffffffffffff16905090565b6060603780546107fd90611bc7565b80601f016020809104026020016040519081016040528092919081815260200182805461082990611bc7565b80156108765780601f1061084b57610100808354040283529160200191610876565b820191906000526020600020905b81548152906001019060200180831161085957829003601f168201915b5050505050905090565b610888610b98565b73ffffffffffffffffffffffffffffffffffffffff166108a66107c4565b73ffffffffffffffffffffffffffffffffffffffff16146108fc576040517f08c379a00000000000000000000000000000000000000000000000000000000081526004016108f3906119f7565b60405180910390fd5b61090d6109076107c4565b826111a2565b50565b6000806034600061091f610b98565b73ffffffffffffffffffffffffffffffffffffffff1673ffffffffffffffffffffffffffffffffffffffff16815260200190815260200160002060008573ffffffffffffffffffffffffffffffffffffffff1673ffffffffffffffffffffffffffffffffffffffff168152602001908152602001600020549050828110156109dc576040517f08c379a00000000000000000000000000000000000000000000000000000000081526004016109d390611a57565b60405180910390fd5b6109f06109e7610b98565b85858403610ba0565b600191505092915050565b6000610a0f610a08610b98565b8484610d6b565b6001905092915050565b6000603460008473ffffffffffffffffffffffffffffffffffffffff1673ffffffffffffffffffffffffffffffffffffffff16815260200190815260200160002060008373ffffffffffffffffffffffffffffffffffffffff1673ffffffffffffffffffffffffffffffffffffffff16815260200190815260200160002054905092915050565b610aa8610b98565b73ffffffffffffffffffffffffffffffffffffffff16610ac66107c4565b73ffffffffffffffffffffffffffffffffffffffff1614610b1c576040517f08c379a0000000000000000000000000000000000000000000000000000000008152600401610b13906119f7565b60405180910390fd5b600073ffffffffffffffffffffffffffffffffffffffff168173ffffffffffffffffffffffffffffffffffffffff161415610b8c576040517f08c379a0000000000000000000000000000000000000000000000000000000008152600401610b8390611957565b60405180910390fd5b610b9581610fef565b50565b600033905090565b600073ffffffffffffffffffffffffffffffffffffffff168373ffffffffffffffffffffffffffffffffffffffff161415610c10576040517f08c379a0000000000000000000000000000000000000000000000000000000008152600401610c0790611a37565b60405180910390fd5b600073ffffffffffffffffffffffffffffffffffffffff168273ffffffffffffffffffffffffffffffffffffffff161415610c80576040517f08c379a0000000000000000000000000000000000000000000000000000000008152600401610c7790611977565b60405180910390fd5b80603460008573ffffffffffffffffffffffffffffffffffffffff1673ffffffffffffffffffffffffffffffffffffffff16815260200190815260200160002060008473ffffffffffffffffffffffffffffffffffffffff1673ffffffffffffffffffffffffffffffffffffffff168152602001908152602001600020819055508173ffffffffffffffffffffffffffffffffffffffff168373ffffffffffffffffffffffffffffffffffffffff167f8c5be1e5ebec7d5bd14f71427d1e84f3dd0314c0f7b2291e5b200ac8c7c3b92583604051610d5e9190611a97565b60405180910390a3505050565b600073ffffffffffffffffffffffffffffffffffffffff168373ffffffffffffffffffffffffffffffffffffffff161415610ddb576040517f08c379a0000000000000000000000000000000000000000000000000000000008152600401610dd290611a17565b60405180910390fd5b600073ffffffffffffffffffffffffffffffffffffffff168273ffffffffffffffffffffffffffffffffffffffff161415610e4b576040517f08c379a0000000000000000000000000000000000000000000000000000000008152600401610e4290611937565b60405180910390fd5b610e56838383611303565b6000603360008573ffffffffffffffffffffffffffffffffffffffff1673ffffffffffffffffffffffffffffffffffffffff16815260200190815260200160002054905081811015610edd576040517f08c379a0000000000000000000000000000000000000000000000000000000008152600401610ed490611997565b60405180910390fd5b818103603360008673ffffffffffffffffffffffffffffffffffffffff1673ffffffffffffffffffffffffffffffffffffffff1681526020019081526020016000208190555081603360008573ffffffffffffffffffffffffffffffffffffffff1673ffffffffffffffffffffffffffffffffffffffff1681526020019081526020016000206000828254610f729190611ae9565b925050819055508273ffffffffffffffffffffffffffffffffffffffff168473ffffffffffffffffffffffffffffffffffffffff167fddf252ad1be2c89b69c2b068fc378daa952ba7f163c4a11628f55a4df523b3ef84604051610fd69190611a97565b60405180910390a3610fe9848484611308565b50505050565b6000606560009054906101000a900473ffffffffffffffffffffffffffffffffffffffff16905081606560006101000a81548173ffffffffffffffffffffffffffffffffffffffff021916908373ffffffffffffffffffffffffffffffffffffffff1602179055508173ffffffffffffffffffffffffffffffffffffffff168173ffffffffffffffffffffffffffffffffffffffff167f8be0079c531659141344cd1fd0a4f28419497f9722a3daafe3b4186f6b6457e060405160405180910390a35050565b600060019054906101000a900460ff16806110db575060008054906101000a900460ff16155b61111a576040517f08c379a0000000000000000000000000000000000000000000000000000000008152600401611111906119b7565b60405180910390fd5b60008060019054906101000a900460ff16159050801561116a576001600060016101000a81548160ff02191690831515021790555060016000806101000a81548160ff0219169083151502179055505b61117261130d565b61117c83836113e6565b801561119d5760008060016101000a81548160ff0219169083151502179055505b505050565b600073ffffffffffffffffffffffffffffffffffffffff168273ffffffffffffffffffffffffffffffffffffffff161415611212576040517f08c379a000000000000000000000000000000000000000000000000000000000815260040161120990611a77565b60405180910390fd5b61121e60008383611303565b80603560008282546112309190611ae9565b9250508190555080603360008473ffffffffffffffffffffffffffffffffffffffff1673ffffffffffffffffffffffffffffffffffffffff16815260200190815260200160002060008282546112869190611ae9565b925050819055508173ffffffffffffffffffffffffffffffffffffffff16600073ffffffffffffffffffffffffffffffffffffffff167fddf252ad1be2c89b69c2b068fc378daa952ba7f163c4a11628f55a4df523b3ef836040516112eb9190611a97565b60405180910390a36112ff60008383611308565b5050565b505050565b505050565b600060019054906101000a900460ff1680611333575060008054906101000a900460ff16155b611372576040517f08c379a0000000000000000000000000000000000000000000000000000000008152600401611369906119b7565b60405180910390fd5b60008060019054906101000a900460ff1615905080156113c2576001600060016101000a81548160ff02191690831515021790555060016000806101000a81548160ff0219169083151502179055505b80156113e35760008060016101000a81548160ff0219169083151502179055505b50565b600060019054906101000a900460ff168061140c575060008054906101000a900460ff16155b61144b576040517f08c379a0000000000000000000000000000000000000000000000000000000008152600401611442906119b7565b60405180910390fd5b60008060019054906101000a900460ff16159050801561149b576001600060016101000a81548160ff02191690831515021790555060016000806101000a81548160ff0219169083151502179055505b82603690805190602001906114b19291906114ef565b5081603790805190602001906114c89291906114ef565b5080156114ea5760008060016101000a81548160ff0219169083151502179055505b505050565b8280546114fb90611bc7565b90600052602060002090601f01602090048101928261151d5760008555611564565b82601f1061153657805160ff1916838001178555611564565b82800160010185558215611564579182015b82811115611563578251825591602001919060010190611548565b5b5090506115719190611575565b5090565b5b8082111561158e576000816000905550600101611576565b5090565b6000813590506115a181611f86565b92915050565b6000813590506115b681611f9d565b92915050565b6000602082840312156115d2576115d1611c57565b5b60006115e084828501611592565b91505092915050565b60008060408385031215611600576115ff611c57565b5b600061160e85828601611592565b925050602061161f85828601611592565b9150509250929050565b60008060006060848603121561164257611641611c57565b5b600061165086828701611592565b935050602061166186828701611592565b9250506040611672868287016115a7565b9150509250925092565b6000806040838503121561169357611692611c57565b5b60006116a185828601611592565b92505060206116b2858286016115a7565b9150509250929050565b6000602082840312156116d2576116d1611c57565b5b60006116e0848285016115a7565b91505092915050565b6116f281611b3f565b82525050565b61170181611b51565b82525050565b600061171282611acd565b61171c8185611ad8565b935061172c818560208601611b94565b61173581611c5c565b840191505092915050565b600061174d602383611ad8565b915061175882611c6d565b604082019050919050565b6000611770602683611ad8565b915061177b82611cbc565b604082019050919050565b6000611793602283611ad8565b915061179e82611d0b565b604082019050919050565b60006117b6602683611ad8565b91506117c182611d5a565b604082019050919050565b60006117d9602e83611ad8565b91506117e482611da9565b604082019050919050565b60006117fc602883611ad8565b915061180782611df8565b604082019050919050565b600061181f602083611ad8565b915061182a82611e47565b602082019050919050565b6000611842602583611ad8565b915061184d82611e70565b604082019050919050565b6000611865602483611ad8565b915061187082611ebf565b604082019050919050565b6000611888602583611ad8565b915061189382611f0e565b604082019050919050565b60006118ab601f83611ad8565b91506118b682611f5d565b602082019050919050565b6118ca81611b7d565b82525050565b6118d981611b87565b82525050565b60006020820190506118f460008301846116e9565b92915050565b600060208201905061190f60008301846116f8565b92915050565b6000602082019050818103600083015261192f8184611707565b905092915050565b6000602082019050818103600083015261195081611740565b9050919050565b6000602082019050818103600083015261197081611763565b9050919050565b6000602082019050818103600083015261199081611786565b9050919050565b600060208201905081810360008301526119b0816117a9565b9050919050565b600060208201905081810360008301526119d0816117cc565b9050919050565b600060208201905081810360008301526119f0816117ef565b9050919050565b60006020820190508181036000830152611a1081611812565b9050919050565b60006020820190508181036000830152611a3081611835565b9050919050565b60006020820190508181036000830152611a5081611858565b9050919050565b60006020820190508181036000830152611a708161187b565b9050919050565b60006020820190508181036000830152611a908161189e565b9050919050565b6000602082019050611aac60008301846118c1565b92915050565b6000602082019050611ac760008301846118d0565b92915050565b600081519050919050565b600082825260208201905092915050565b6000611af482611b7d565b9150611aff83611b7d565b9250827fffffffffffffffffffffffffffffffffffffffffffffffffffffffffffffffff03821115611b3457611b33611bf9565b5b828201905092915050565b6000611b4a82611b5d565b9050919050565b60008115159050919050565b600073ffffffffffffffffffffffffffffffffffffffff82169050919050565b6000819050919050565b600060ff82169050919050565b60005b83811015611bb2578082015181840152602081019050611b97565b83811115611bc1576000848401525b50505050565b60006002820490506001821680611bdf57607f821691505b60208210811415611bf357611bf2611c28565b5b50919050565b7f4e487b7100000000000000000000000000000000000000000000000000000000600052601160045260246000fd5b7f4e487b7100000000000000000000000000000000000000000000000000000000600052602260045260246000fd5b600080fd5b6000601f19601f8301169050919050565b7f45524332303a207472616e7366657220746f20746865207a65726f206164647260008201527f6573730000000000000000000000000000000000000000000000000000000000602082015250565b7f4f776e61626c653a206e6577206f776e657220697320746865207a65726f206160008201527f6464726573730000000000000000000000000000000000000000000000000000602082015250565b7f45524332303a20617070726f766520746f20746865207a65726f20616464726560008201527f7373000000000000000000000000000000000000000000000000000000000000602082015250565b7f45524332303a207472616e7366657220616d6f756e742065786365656473206260008201527f616c616e63650000000000000000000000000000000000000000000000000000602082015250565b7f496e697469616c697a61626c653a20636f6e747261637420697320616c72656160008201527f647920696e697469616c697a6564000000000000000000000000000000000000602082015250565b7f45524332303a207472616e7366657220616d6f756e742065786365656473206160008201527f6c6c6f77616e6365000000000000000000000000000000000000000000000000602082015250565b7f4f776e61626c653a2063616c6c6572206973206e6f7420746865206f776e6572600082015250565b7f45524332303a207472616e736665722066726f6d20746865207a65726f20616460008201527f6472657373000000000000000000000000000000000000000000000000000000602082015250565b7f45524332303a20617070726f76652066726f6d20746865207a65726f2061646460008201527f7265737300000000000000000000000000000000000000000000000000000000602082015250565b7f45524332303a2064656372656173656420616c6c6f77616e63652062656c6f7760008201527f207a65726f000000000000000000000000000000000000000000000000000000602082015250565b7f45524332303a206d696e7420746f20746865207a65726f206164647265737300600082015250565b611f8f81611b3f565b8114611f9a57600080fd5b50565b611fa681611b7d565b8114611fb157600080fd5b5056fea264697066735822122030a74d9188e820ea10ae49640879ff3a9701627c272f434a2c3c0662a4205ab064736f6c63430008070033",
  "immutableReferences": {},
  "source": "// SPDX-License-Identifier: MIT\npragma solidity ^0.8.0;\n\nimport \"@openzeppelin/contracts-upgradeable/token/ERC20/ERC20Upgradeable.sol\";\nimport \"@openzeppelin/contracts-upgradeable/access/OwnableUpgradeable.sol\";\n\n/**\n    -\n */\ncontract Diamond is ERC20Upgradeable,OwnableUpgradeable {\n\n    function initialize() public initializer {\n        __ERC20_init(\"FM Diamond\",\"FMD\");\n        \n        //\n        super._mint(msg.sender, 10000);\n    }\n\n    /**  */\n    function mint(uint256 amount) public onlyOwner {\n        super._mint(owner(), amount);\n    }\n\n    //\n    function decimals() public override pure returns (uint8) {\n        return 0;\n    }\n}",
  "sourcePath": "D:\\solidity\\sol-test1\\contracts\\Diamond.sol",
  "compiler": {
    "name": "solc",
    "version": "0.8.7+commit.e28d00a7.Emscripten.clang"
  },
  "schemaVersion": "3.4.3",
  "updatedAt": "2021-09-30T06:41:16.985Z",
  "devdoc": {
    "kind": "dev",
    "methods": {
      "allowance(address,address)": {
        "details": "See {IERC20-allowance}."
      },
      "approve(address,uint256)": {
        "details": "See {IERC20-approve}. Requirements: - `spender` cannot be the zero address."
      },
      "balanceOf(address)": {
        "details": "See {IERC20-balanceOf}."
      },
      "decimals()": {
        "details": "Returns the number of decimals used to get its user representation. For example, if `decimals` equals `2`, a balance of `505` tokens should be displayed to a user as `5.05` (`505 / 10 ** 2`). Tokens usually opt for a value of 18, imitating the relationship between Ether and Wei. This is the value {ERC20} uses, unless this function is overridden; NOTE: This information is only used for _display_ purposes: it in no way affects any of the arithmetic of the contract, including {IERC20-balanceOf} and {IERC20-transfer}."
      },
      "decreaseAllowance(address,uint256)": {
        "details": "Atomically decreases the allowance granted to `spender` by the caller. This is an alternative to {approve} that can be used as a mitigation for problems described in {IERC20-approve}. Emits an {Approval} event indicating the updated allowance. Requirements: - `spender` cannot be the zero address. - `spender` must have allowance for the caller of at least `subtractedValue`."
      },
      "increaseAllowance(address,uint256)": {
        "details": "Atomically increases the allowance granted to `spender` by the caller. This is an alternative to {approve} that can be used as a mitigation for problems described in {IERC20-approve}. Emits an {Approval} event indicating the updated allowance. Requirements: - `spender` cannot be the zero address."
      },
      "name()": {
        "details": "Returns the name of the token."
      },
      "owner()": {
        "details": "Returns the address of the current owner."
      },
      "renounceOwnership()": {
        "details": "Leaves the contract without owner. It will not be possible to call `onlyOwner` functions anymore. Can only be called by the current owner. NOTE: Renouncing ownership will leave the contract without an owner, thereby removing any functionality that is only available to the owner."
      },
      "symbol()": {
        "details": "Returns the symbol of the token, usually a shorter version of the name."
      },
      "totalSupply()": {
        "details": "See {IERC20-totalSupply}."
      },
      "transfer(address,uint256)": {
        "details": "See {IERC20-transfer}. Requirements: - `recipient` cannot be the zero address. - the caller must have a balance of at least `amount`."
      },
      "transferFrom(address,address,uint256)": {
        "details": "See {IERC20-transferFrom}. Emits an {Approval} event indicating the updated allowance. This is not required by the EIP. See the note at the beginning of {ERC20}. Requirements: - `sender` and `recipient` cannot be the zero address. - `sender` must have a balance of at least `amount`. - the caller must have allowance for ``sender``'s tokens of at least `amount`."
      },
      "transferOwnership(address)": {
        "details": "Transfers ownership of the contract to a new account (`newOwner`). Can only be called by the current owner."
      }
    },
    "version": 1
  },
  "userdoc": {
    "kind": "user",
    "methods": {
      "mint(uint256)": {
        "notice": " "
      }
    },
    "notice": "-",
    "version": 1
  }
}