{
  "contractName": "HeroPool",
  "abi": [
    {
      "inputs": [
        {
          "internalType": "uint256",
          "name": "total_times",
          "type": "uint256"
        },
        {
          "internalType": "uint256",
          "name": "my_times",
          "type": "uint256"
        }
      ],
      "name": "rand",
      "outputs": [
        {
          "internalType": "uint256",
          "name": "_type",
          "type": "uint256"
        },
        {
          "internalType": "uint256",
          "name": "li",
          "type": "uint256"
        },
        {
          "internalType": "uint256",
          "name": "min",
          "type": "uint256"
        },
        {
          "internalType": "uint256",
          "name": "zhi",
          "type": "uint256"
        }
      ],
      "stateMutability": "view",
      "type": "function",
      "constant": true
    }
  ],
  "bytecode": "0x6080604052604051806106000160405280606260ff168152602001605f60ff168152602001605f60ff168152602001605e60ff168152602001605d60ff168152602001606260ff168152602001605c60ff168152602001605e60ff168152602001605d60ff168152602001605e60ff168152602001606360ff168152602001605d60ff168152602001606060ff168152602001606060ff168152602001605f60ff168152602001605f60ff168152602001606360ff168152602001606060ff168152602001606160ff168152602001606060ff168152602001605c60ff168152602001606060ff168152602001606460ff168152602001605a60ff168152602001605e60ff168152602001605b60ff168152602001605a60ff168152602001605d60ff168152602001605d60ff168152602001605a60ff168152602001605d60ff168152602001605a60ff168152602001606160ff168152602001605b60ff168152602001606260ff168152602001605e60ff168152602001605f60ff168152602001605b60ff168152602001606160ff168152602001605c60ff168152602001605f60ff168152602001605a60ff168152602001605b60ff168152602001605b60ff168152602001606060ff168152602001605e60ff168152602001605c60ff168152602001605c60ff1681525060009060306101fe929190612049565b50604051806109400160405280605d60ff168152602001605560ff168152602001605760ff168152602001605860ff168152602001606260ff168152602001605a60ff168152602001605860ff168152602001605a60ff168152602001605960ff168152602001605e60ff168152602001605660ff168152602001605560ff168152602001605b60ff168152602001605660ff168152602001605e60ff168152602001605c60ff168152602001605f60ff168152602001605660ff168152602001605660ff168152602001605960ff168152602001605d60ff168152602001605c60ff168152602001605c60ff168152602001605560ff168152602001606260ff168152602001605f60ff168152602001605e60ff168152602001605d60ff168152602001605560ff168152602001605e60ff168152602001605c60ff168152602001605d60ff168152602001605b60ff168152602001605660ff168152602001605e60ff168152602001605760ff168152602001605860ff168152602001605960ff168152602001605960ff168152602001605a60ff168152602001606160ff168152602001605b60ff168152602001605d60ff168152602001605a60ff168152602001606060ff168152602001605660ff168152602001606460ff168152602001605860ff168152602001605760ff168152602001606160ff168152602001605b60ff168152602001605860ff168152602001605760ff168152602001605b60ff168152602001605e60ff168152602001605f60ff168152602001605760ff168152602001605860ff168152602001605b60ff168152602001605c60ff168152602001605960ff168152602001606360ff168152602001606060ff168152602001605760ff168152602001605560ff168152602001605c60ff168152602001605d60ff168152602001605960ff168152602001606360ff168152602001605a60ff168152602001605a60ff168152602001606060ff168152602001606160ff168152602001605560ff16815250600190604a6104fd92919061209b565b50604051806116000160405280604a60ff168152602001604260ff168152602001604860ff168152602001604860ff168152602001605760ff168152602001603d60ff168152602001604760ff168152602001605260ff168152602001605860ff168152602001603c60ff168152602001604160ff168152602001603f60ff168152602001604960ff168152602001604b60ff168152602001605b60ff168152602001604760ff168152602001604460ff168152602001605260ff168152602001604160ff168152602001605c60ff168152602001604e60ff168152602001605060ff168152602001604b60ff168152602001604c60ff168152602001604560ff168152602001604760ff168152602001605560ff168152602001605860ff168152602001604460ff168152602001603f60ff168152602001604860ff168152602001605560ff168152602001605960ff168152602001605960ff168152602001605960ff168152602001605a60ff168152602001604d60ff168152602001604060ff168152602001603f60ff168152602001604e60ff168152602001605a60ff168152602001605160ff168152602001605b60ff168152602001604a60ff168152602001604460ff168152602001605160ff168152602001603e60ff168152602001605560ff168152602001604560ff168152602001603d60ff168152602001605360ff168152602001604960ff168152602001604c60ff168152602001605660ff168152602001604760ff168152602001604960ff168152602001605a60ff168152602001605c60ff168152602001604660ff168152602001604f60ff168152602001605260ff168152602001605660ff168152602001604660ff168152602001605360ff168152602001604660ff168152602001605660ff168152602001604a60ff168152602001603f60ff168152602001604d60ff168152602001604560ff168152602001603c60ff168152602001604d60ff168152602001604d60ff168152602001603d60ff168152602001605760ff168152602001604560ff168152602001604c60ff168152602001604a60ff168152602001604360ff168152602001604e60ff168152602001604460ff168152602001604260ff168152602001604360ff168152602001605560ff168152602001603f60ff168152602001604060ff168152602001604260ff168152602001605a60ff168152602001604b60ff168152602001604460ff168152602001605060ff168152602001605660ff168152602001605960ff168152602001605860ff168152602001605260ff168152602001605860ff168152602001603d60ff168152602001605760ff168152602001604e60ff168152602001605660ff168152602001604f60ff168152602001604560ff168152602001605560ff168152602001605660ff168152602001604d60ff168152602001605160ff168152602001605b60ff168152602001605060ff168152602001604260ff168152602001605960ff168152602001605160ff168152602001605060ff168152602001605b60ff168152602001604a60ff168152602001603c60ff168152602001605860ff168152602001604f60ff168152602001605b60ff168152602001605460ff168152602001604960ff168152602001604360ff168152602001604b60ff168152602001605960ff168152602001603c60ff168152602001605a60ff168152602001604f60ff168152602001604860ff168152602001605460ff168152602001603e60ff168152602001604360ff168152602001605360ff168152602001605760ff168152602001605a60ff168152602001605860ff168152602001604060ff168152602001604260ff168152602001605a60ff168152602001603d60ff168152602001605060ff168152602001604b60ff168152602001604860ff168152602001604360ff168152602001604160ff168152602001605560ff168152602001603c60ff168152602001604e60ff168152602001605360ff168152602001604660ff168152602001605460ff168152602001605460ff168152602001604c60ff168152602001605760ff168152602001604f60ff168152602001605b60ff168152602001603e60ff168152602001604960ff168152602001604060ff168152602001604160ff168152602001604160ff168152602001604660ff168152602001605760ff168152602001604c60ff168152602001605860ff168152602001604060ff168152602001604760ff168152602001605160ff168152602001605260ff168152602001605360ff168152602001605660ff168152602001605560ff168152602001603e60ff168152602001603e60ff168152602001605460ff168152602001605960ff168152602001605760ff168152602001605b60ff1681525060029060b0610bf89291906120ed565b50604051806122000160405280604c60ff168152602001603360ff168152602001603160ff168152602001602d60ff168152602001603c60ff168152602001602160ff168152602001602760ff168152602001605260ff168152602001601260ff168152602001603a60ff168152602001603f60ff168152602001603d60ff168152602001601360ff168152602001604160ff168152602001604b60ff168152602001601f60ff168152602001603860ff168152602001605260ff168152602001604460ff168152602001603060ff168152602001604660ff168152602001602060ff168152602001605260ff168152602001604060ff168152602001601660ff168152602001602f60ff168152602001602560ff168152602001601660ff168152602001602860ff168152602001600c60ff168152602001604260ff168152602001603360ff168152602001604560ff168152602001602460ff168152602001603260ff168152602001604e60ff168152602001602560ff168152602001604260ff168152602001605560ff168152602001604f60ff168152602001604d60ff168152602001602160ff168152602001605560ff168152602001604c60ff168152602001602e60ff168152602001602360ff168152602001603060ff168152602001605960ff168152602001604e60ff168152602001603d60ff168152602001605760ff168152602001602460ff168152602001605160ff168152602001601460ff168152602001603960ff168152602001604760ff168152602001601f60ff168152602001601260ff168152602001601960ff168152602001605160ff168152602001603660ff168152602001603b60ff168152602001602960ff168152602001602f60ff168152602001602d60ff168152602001604a60ff168152602001603a60ff168152602001603e60ff168152602001604860ff168152602001602360ff168152602001602160ff168152602001604860ff168152602001604360ff168152602001602560ff168152602001603f60ff168152602001603760ff168152602001603360ff168152602001601860ff168152602001602760ff168152602001602b60ff168152602001603560ff168152602001602a60ff168152602001602e60ff168152602001603660ff168152602001605360ff168152602001605160ff168152602001605560ff168152602001605660ff168152602001605a60ff168152602001600d60ff168152602001603960ff168152602001601d60ff168152602001603560ff168152602001604360ff168152602001603760ff168152602001601c60ff168152602001600f60ff168152602001603160ff168152602001602f60ff168152602001601b60ff168152602001602960ff168152602001603e60ff168152602001603060ff168152602001602160ff168152602001601d60ff168152602001603160ff168152602001604360ff168152602001603c60ff168152602001603560ff168152602001604b60ff168152602001605060ff168152602001601a60ff168152602001604260ff168152602001604f60ff168152602001604760ff168152602001602c60ff168152602001602860ff168152602001602460ff168152602001604660ff168152602001605060ff168152602001603460ff168152602001600b60ff168152602001603960ff168152602001601060ff168152602001602860ff168152602001601560ff168152602001605460ff168152602001605660ff168152602001602760ff168152602001603d60ff168152602001603a60ff168152602001602c60ff168152602001604160ff168152602001604660ff168152602001605960ff168152602001605260ff168152602001604f60ff168152602001605460ff168152602001605160ff168152602001604960ff168152602001603460ff168152602001601f60ff168152602001601160ff168152602001604660ff168152602001602b60ff168152602001604460ff168152602001601460ff168152602001601060ff168152602001604260ff168152602001602e60ff168152602001603b60ff168152602001605860ff168152602001603c60ff168152602001605860ff168152602001600f60ff168152602001603060ff168152602001601f60ff168152602001605760ff168152602001605460ff168152602001601a60ff168152602001602c60ff168152602001602960ff168152602001600a60ff168152602001602660ff168152602001601b60ff168152602001604060ff168152602001601e60ff168152602001604960ff168152602001602f60ff168152602001603260ff168152602001603a60ff168152602001602460ff168152602001604d60ff168152602001600e60ff168152602001604060ff168152602001600e60ff168152602001604160ff168152602001604360ff168152602001603560ff168152602001603860ff168152602001605560ff168152602001605a60ff168152602001605360ff168152602001605360ff168152602001604160ff168152602001602660ff168152602001604760ff168152602001600c60ff168152602001601760ff168152602001602960ff168152602001601160ff168152602001602d60ff168152602001602760ff168152602001603260ff168152602001601c60ff168152602001603360ff168152602001602060ff168152602001603460ff168152602001603860ff168152602001603b60ff168152602001602360ff168152602001604e60ff168152602001604c60ff168152602001603960ff168152602001602260ff168152602001603e60ff168152602001603160ff168152602001604a60ff168152602001602060ff168152602001602660ff168152602001602b60ff168152602001604760ff168152602001603660ff168152602001603b60ff168152602001602260ff168152602001603260ff168152602001604960ff168152602001604460ff168152602001602a60ff168152602001602d60ff168152602001603760ff168152602001604860ff168152602001605360ff168152602001603f60ff168152602001604060ff168152602001602360ff168152602001604a60ff168152602001603860ff168152602001602a60ff168152602001601960ff168152602001604b60ff168152602001604560ff168152602001603d60ff168152602001602260ff168152602001603c60ff168152602001604d60ff168152602001600b60ff168152602001604e60ff168152602001600d60ff168152602001604a60ff168152602001604560ff168152602001601860ff168152602001602060ff168152602001604b60ff168152602001603f60ff168152602001603660ff168152602001602660ff168152602001602260ff168152602001604d60ff168152602001605060ff168152602001604c60ff168152602001603760ff168152602001604f60ff168152602001602860ff168152602001604860ff168152602001605460ff168152602001602b60ff168152602001603460ff168152602001601360ff168152602001604960ff168152602001603e60ff168152602001601760ff168152602001600a60ff168152602001602560ff168152602001601560ff168152602001601e60ff168152602001602c60ff168152602001602a60ff168152602001604560ff168152602001602e60ff168152602001605060ff168152602001604460ff168152506003906101106116b492919061213f565b50604051806117800160405280603d60ff168152602001604a60ff168152602001601460ff168152602001600e60ff168152602001601760ff168152602001603460ff168152602001603760ff168152602001602860ff168152602001604760ff168152602001601e60ff168152602001600c60ff168152602001601f60ff168152602001601360ff168152602001601160ff168152602001602b60ff168152602001603160ff168152602001603360ff168152602001601860ff168152602001603c60ff168152602001602d60ff168152602001602a60ff168152602001602a60ff168152602001603960ff168152602001601560ff168152602001603360ff168152602001602c60ff168152602001601060ff168152602001602560ff168152602001604c60ff168152602001602f60ff168152602001605160ff168152602001602960ff168152602001601960ff168152602001603260ff168152602001603760ff168152602001602160ff168152602001603860ff168152602001604660ff168152602001603b60ff168152602001605360ff168152602001602660ff168152602001604860ff168152602001602660ff168152602001601c60ff168152602001604860ff168152602001600c60ff168152602001604a60ff168152602001602960ff168152602001605460ff168152602001601160ff168152602001604460ff168152602001604060ff168152602001603f60ff168152602001600a60ff168152602001600a60ff168152602001602360ff168152602001601360ff168152602001601460ff168152602001602d60ff168152602001602260ff168152602001602f60ff168152602001601860ff168152602001601f60ff168152602001602660ff168152602001602060ff168152602001602e60ff168152602001603b60ff168152602001601e60ff168152602001602b60ff168152602001602d60ff168152602001603460ff168152602001604260ff168152602001604560ff168152602001603160ff168152602001604460ff168152602001601960ff168152602001602f60ff168152602001603260ff168152602001601060ff168152602001601f60ff168152602001603660ff168152602001603060ff168152602001601560ff168152602001602e60ff168152602001601360ff168152602001602160ff168152602001602460ff168152602001602760ff168152602001604e60ff168152602001600d60ff168152602001602760ff168152602001600d60ff168152602001602560ff168152602001600e60ff168152602001604d60ff168152602001601b60ff168152602001603560ff168152602001601260ff168152602001600e60ff168152602001602460ff168152602001602e60ff168152602001600f60ff168152602001604160ff168152602001602a60ff168152602001601660ff168152602001601660ff168152602001601b60ff168152602001604e60ff168152602001601a60ff168152602001603e60ff168152602001601d60ff168152602001605560ff168152602001603960ff168152602001601a60ff168152602001604b60ff168152602001602360ff168152602001603c60ff168152602001602760ff168152602001602060ff168152602001604560ff168152602001600a60ff168152602001600f60ff168152602001604f60ff168152602001604660ff168152602001604d60ff168152602001603060ff168152602001602160ff168152602001601160ff168152602001603a60ff168152602001601260ff168152602001600b60ff168152602001601d60ff168152602001601e60ff168152602001600c60ff168152602001604f60ff168152602001601260ff168152602001601760ff168152602001602b60ff168152602001605260ff168152602001600d60ff168152602001601660ff168152602001602c60ff168152602001602360ff168152602001601a60ff168152602001604760ff168152602001603660ff168152602001602860ff168152602001603f60ff168152602001601060ff168152602001601460ff168152602001604060ff168152602001603260ff168152602001603160ff168152602001602960ff168152602001604960ff168152602001601760ff168152602001600f60ff168152602001605060ff168152602001601d60ff168152602001602460ff168152602001605060ff168152602001603560ff168152602001603860ff168152602001604b60ff168152602001603060ff168152602001602c60ff168152602001601560ff168152602001604360ff168152602001601c60ff168152602001600b60ff168152602001602560ff168152602001604960ff168152602001601b60ff168152602001601c60ff168152602001602260ff168152602001604260ff168152602001604360ff168152602001604160ff168152602001603a60ff168152602001600b60ff168152602001601960ff168152602001603e60ff168152602001604c60ff168152602001602860ff168152602001602060ff168152602001603d60ff168152602001601860ff168152602001602260ff1681525060049060bc611e27929190612191565b50604051806106400160405280600160ff168152602001600160ff168152602001600360ff168152602001600360ff168152602001600360ff168152602001600260ff168152602001600360ff168152602001600160ff168152602001600260ff168152602001600260ff168152602001600160ff168152602001600360ff168152602001600360ff168152602001600260ff168152602001600260ff168152602001600160ff168152602001600260ff168152602001600160ff168152602001600260ff168152602001600360ff168152602001600160ff168152602001600160ff168152602001600360ff168152602001600260ff168152602001600160ff168152602001600160ff168152602001600260ff168152602001600260ff168152602001600160ff168152602001600260ff168152602001600160ff168152602001600260ff168152602001600360ff168152602001600360ff168152602001600160ff168152602001600260ff168152602001600260ff168152602001600160ff168152602001600260ff168152602001600360ff168152602001600160ff168152602001600160ff168152602001600160ff168152602001600160ff168152602001600360ff168152602001600160ff168152602001600260ff168152602001600260ff168152602001600160ff168152602001600260ff1681525060059060326120369291906121e3565b5034801561204357600080fd5b50612252565b82805482825590600052602060002090810192821561208a579160200282015b82811115612089578251829060ff16905591602001919060010190612069565b5b5090506120979190612235565b5090565b8280548282559060005260206000209081019282156120dc579160200282015b828111156120db578251829060ff169055916020019190600101906120bb565b5b5090506120e99190612235565b5090565b82805482825590600052602060002090810192821561212e579160200282015b8281111561212d578251829060ff1690559160200191906001019061210d565b5b50905061213b9190612235565b5090565b828054828255906000526020600020908101928215612180579160200282015b8281111561217f578251829060ff1690559160200191906001019061215f565b5b50905061218d9190612235565b5090565b8280548282559060005260206000209081019282156121d2579160200282015b828111156121d1578251829060ff169055916020019190600101906121b1565b5b5090506121df9190612235565b5090565b828054828255906000526020600020908101928215612224579160200282015b82811115612223578251829060ff16905591602001919060010190612203565b5b5090506122319190612235565b5090565b5b8082111561224e576000816000905550600101612236565b5090565b6103a0806122616000396000f3fe608060405234801561001057600080fd5b506004361061002b5760003560e01c806395032b6214610030575b600080fd5b61004a60048036038101906100459190610221565b610063565b60405161005a9493929190610270565b60405180910390f35b600080600080600580805490508761007b91906102bf565b8154811061008c5761008b61031f565b5b90600052602060002001549350600060018614156100d95760008080549050886100b691906102bf565b815481106100c7576100c661031f565b5b90600052602060002001549050610155565b60006005876100e891906102bf565b141561012357600180805490508861010091906102bf565b815481106101115761011061031f565b5b90600052602060002001549050610154565b600280805490508861013591906102bf565b815481106101465761014561031f565b5b906000526020600020015490505b5b6000600380805490508961016991906102bf565b8154811061017a5761017961031f565b5b906000526020600020015490506000600480805490508a61019b91906102bf565b815481106101ac576101ab61031f565b5b9060005260206000200154905060018714156101d657868383839650965096509650505050610203565b60028714156101f357868284839650965096509650505050610203565b8681848496509650965096505050505b92959194509250565b60008135905061021b81610353565b92915050565b600080604083850312156102385761023761034e565b5b60006102468582860161020c565b92505060206102578582860161020c565b9150509250929050565b61026a816102b5565b82525050565b60006080820190506102856000830187610261565b6102926020830186610261565b61029f6040830185610261565b6102ac6060830184610261565b95945050505050565b6000819050919050565b60006102ca826102b5565b91506102d5836102b5565b9250826102e5576102e46102f0565b5b828206905092915050565b7f4e487b7100000000000000000000000000000000000000000000000000000000600052601260045260246000fd5b7f4e487b7100000000000000000000000000000000000000000000000000000000600052603260045260246000fd5b600080fd5b61035c816102b5565b811461036757600080fd5b5056fea26469706673582212206650390cdd874b9ee94b5410090de3d83ce5a6d9483084a034fe612e1bc6aef064736f6c63430008070033",
  "immutableReferences": {},
  "source": "// SPDX-License-Identifier: MIT\r\npragma solidity ^0.8.0;\r\n\r\ncontract HeroPool {\r\n    uint256[] private  attr11Pool = [98,95,95,94,93,98,92,94,93,94,99,93,96,96,95,95,99,96,97,96,92,96,100,90,94,91,90,93,93,90,93,90,97,91,98,94,95,91,97,92,95,90,91,91,96,94,92,92];\r\n    uint256[] private  attr12Pool = [93,85,87,88,98,90,88,90,89,94,86,85,91,86,94,92,95,86,86,89,93,92,92,85,98,95,94,93,85,94,92,93,91,86,94,87,88,89,89,90,97,91,93,90,96,86,100,88,87,97,91,88,87,91,94,95,87,88,91,92,89,99,96,87,85,92,93,89,99,90,90,96,97,85];\r\n    uint256[] private  attr13Pool = [74,66,72,72,87,61,71,82,88,60,65,63,73,75,91,71,68,82,65,92,78,80,75,76,69,71,85,88,68,63,72,85,89,89,89,90,77,64,63,78,90,81,91,74,68,81,62,85,69,61,83,73,76,86,71,73,90,92,70,79,82,86,70,83,70,86,74,63,77,69,60,77,77,61,87,69,76,74,67,78,68,66,67,85,63,64,66,90,75,68,80,86,89,88,82,88,61,87,78,86,79,69,85,86,77,81,91,80,66,89,81,80,91,74,60,88,79,91,84,73,67,75,89,60,90,79,72,84,62,67,83,87,90,88,64,66,90,61,80,75,72,67,65,85,60,78,83,70,84,84,76,87,79,91,62,73,64,65,65,70,87,76,88,64,71,81,82,83,86,85,62,62,84,89,87,91];\r\n\r\n    uint256[] private  attr2Pool = [76,51,49,45,60,33,39,82,18,58,63,61,19,65,75,31,56,82,68,48,70,32,82,64,22,47,37,22,40,12,66,51,69,36,50,78,37,66,85,79,77,33,85,76,46,35,48,89,78,61,87,36,81,20,57,71,31,18,25,81,54,59,41,47,45,74,58,62,72,35,33,72,67,37,63,55,51,24,39,43,53,42,46,54,83,81,85,86,90,13,57,29,53,67,55,28,15,49,47,27,41,62,48,33,29,49,67,60,53,75,80,26,66,79,71,44,40,36,70,80,52,11,57,16,40,21,84,86,39,61,58,44,65,70,89,82,79,84,81,73,52,31,17,70,43,68,20,16,66,46,59,88,60,88,15,48,31,87,84,26,44,41,10,38,27,64,30,73,47,50,58,36,77,14,64,14,65,67,53,56,85,90,83,83,65,38,71,12,23,41,17,45,39,50,28,51,32,52,56,59,35,78,76,57,34,62,49,74,32,38,43,71,54,59,34,50,73,68,42,45,55,72,83,63,64,35,74,56,42,25,75,69,61,34,60,77,11,78,13,74,69,24,32,75,63,54,38,34,77,80,76,55,79,40,72,84,43,52,19,73,62,23,10,37,21,30,44,42,69,46,80,68];\r\n    uint256[] private  attr3Pool = [61,74,20,14,23,52,55,40,71,30,12,31,19,17,43,49,51,24,60,45,42,42,57,21,51,44,16,37,76,47,81,41,25,50,55,33,56,70,59,83,38,72,38,28,72,12,74,41,84,17,68,64,63,10,10,35,19,20,45,34,47,24,31,38,32,46,59,30,43,45,52,66,69,49,68,25,47,50,16,31,54,48,21,46,19,33,36,39,78,13,39,13,37,14,77,27,53,18,14,36,46,15,65,42,22,22,27,78,26,62,29,85,57,26,75,35,60,39,32,69,10,15,79,70,77,48,33,17,58,18,11,29,30,12,79,18,23,43,82,13,22,44,35,26,71,54,40,63,16,20,64,50,49,41,73,23,15,80,29,36,80,53,56,75,48,44,21,67,28,11,37,73,27,28,34,66,67,65,58,11,25,62,76,40,32,61,24,34];\r\n\r\n    uint256[] private  typesPool = [1,1,3,3,3,2,3,1,2,2,1,3,3,2,2,1,2,1,2,3,1,1,3,2,1,1,2,2,1,2,1,2,3,3,1,2,2,1,2,3,1,1,1,1,3,1,2,2,1,2];\r\n\r\n\r\n    /* hero */\r\n    function rand(uint256 total_times, uint256 my_times) public view returns (uint256 _type, uint256 li, uint256 min, uint256 zhi) {\r\n        _type = typesPool[total_times % typesPool.length];\r\n\r\n        //\r\n        uint attr1;\r\n        if (my_times == 1) {\r\n            attr1 = attr11Pool[total_times % attr11Pool.length];\r\n        } else if (my_times % 5 == 0) {\r\n            attr1 = attr12Pool[total_times % attr12Pool.length];\r\n        } else {\r\n            attr1 = attr13Pool[total_times % attr13Pool.length];\r\n        }\r\n\r\n        uint attr2 = attr2Pool[total_times % attr2Pool.length];\r\n        uint attr3 = attr3Pool[total_times % attr3Pool.length];\r\n\r\n        if (_type == 1) {\r\n            return (_type, attr1, attr2, attr3);\r\n        } else if (_type == 2) {\r\n            return (_type, attr2, attr1, attr3);\r\n        } else {\r\n            return (_type, attr3, attr1, attr2);\r\n        }\r\n    }\r\n}",
  "sourcePath": "D:\\solidity\\sol-test1\\contracts\\lib\\HeroPool.sol",
  "compiler": {
    "name": "solc",
    "version": "0.8.7+commit.e28d00a7.Emscripten.clang"
  },
  "schemaVersion": "3.4.3",
  "updatedAt": "2021-11-26T03:16:32.701Z",
  "networkType": "ethereum",
  "devdoc": {
    "kind": "dev",
    "methods": {},
    "version": 1
  },
  "userdoc": {
    "kind": "user",
    "methods": {},
    "version": 1
  }
}