{
  "contractName": "HeroPool",
  "abi": [
    {
      "inputs": [
        {
          "internalType": "uint256",
          "name": "total_times",
          "type": "uint256"
        },
        {
          "internalType": "uint256",
          "name": "my_times",
          "type": "uint256"
        }
      ],
      "name": "rand",
      "outputs": [
        {
          "internalType": "uint256",
          "name": "_hero_id",
          "type": "uint256"
        },
        {
          "internalType": "uint256",
          "name": "li",
          "type": "uint256"
        },
        {
          "internalType": "uint256",
          "name": "min",
          "type": "uint256"
        },
        {
          "internalType": "uint256",
          "name": "zhi",
          "type": "uint256"
        }
      ],
      "stateMutability": "view",
      "type": "function",
      "constant": true
    }
  ],
  "bytecode": "0x6080604052604051806106000160405280606260ff168152602001605f60ff168152602001605f60ff168152602001605e60ff168152602001605d60ff168152602001606260ff168152602001605c60ff168152602001605e60ff168152602001605d60ff168152602001605e60ff168152602001606360ff168152602001605d60ff168152602001606060ff168152602001606060ff168152602001605f60ff168152602001605f60ff168152602001606360ff168152602001606060ff168152602001606160ff168152602001606060ff168152602001605c60ff168152602001606060ff168152602001606460ff168152602001605a60ff168152602001605e60ff168152602001605b60ff168152602001605a60ff168152602001605d60ff168152602001605d60ff168152602001605a60ff168152602001605d60ff168152602001605a60ff168152602001606160ff168152602001605b60ff168152602001606260ff168152602001605e60ff168152602001605f60ff168152602001605b60ff168152602001606160ff168152602001605c60ff168152602001605f60ff168152602001605a60ff168152602001605b60ff168152602001605b60ff168152602001606060ff168152602001605e60ff168152602001605c60ff168152602001605c60ff1681525060009060306101fe929190612c66565b50604051806109400160405280605d60ff168152602001605560ff168152602001605760ff168152602001605860ff168152602001606260ff168152602001605a60ff168152602001605860ff168152602001605a60ff168152602001605960ff168152602001605e60ff168152602001605660ff168152602001605560ff168152602001605b60ff168152602001605660ff168152602001605e60ff168152602001605c60ff168152602001605f60ff168152602001605660ff168152602001605660ff168152602001605960ff168152602001605d60ff168152602001605c60ff168152602001605c60ff168152602001605560ff168152602001606260ff168152602001605f60ff168152602001605e60ff168152602001605d60ff168152602001605560ff168152602001605e60ff168152602001605c60ff168152602001605d60ff168152602001605b60ff168152602001605660ff168152602001605e60ff168152602001605760ff168152602001605860ff168152602001605960ff168152602001605960ff168152602001605a60ff168152602001606160ff168152602001605b60ff168152602001605d60ff168152602001605a60ff168152602001606060ff168152602001605660ff168152602001606460ff168152602001605860ff168152602001605760ff168152602001606160ff168152602001605b60ff168152602001605860ff168152602001605760ff168152602001605b60ff168152602001605e60ff168152602001605f60ff168152602001605760ff168152602001605860ff168152602001605b60ff168152602001605c60ff168152602001605960ff168152602001606360ff168152602001606060ff168152602001605760ff168152602001605560ff168152602001605c60ff168152602001605d60ff168152602001605960ff168152602001606360ff168152602001605a60ff168152602001605a60ff168152602001606060ff168152602001606160ff168152602001605560ff16815250600190604a6104fd929190612cb8565b50604051806116000160405280604a60ff168152602001604260ff168152602001604860ff168152602001604860ff168152602001605760ff168152602001603d60ff168152602001604760ff168152602001605260ff168152602001605860ff168152602001603c60ff168152602001604160ff168152602001603f60ff168152602001604960ff168152602001604b60ff168152602001605b60ff168152602001604760ff168152602001604460ff168152602001605260ff168152602001604160ff168152602001605c60ff168152602001604e60ff168152602001605060ff168152602001604b60ff168152602001604c60ff168152602001604560ff168152602001604760ff168152602001605560ff168152602001605860ff168152602001604460ff168152602001603f60ff168152602001604860ff168152602001605560ff168152602001605960ff168152602001605960ff168152602001605960ff168152602001605a60ff168152602001604d60ff168152602001604060ff168152602001603f60ff168152602001604e60ff168152602001605a60ff168152602001605160ff168152602001605b60ff168152602001604a60ff168152602001604460ff168152602001605160ff168152602001603e60ff168152602001605560ff168152602001604560ff168152602001603d60ff168152602001605360ff168152602001604960ff168152602001604c60ff168152602001605660ff168152602001604760ff168152602001604960ff168152602001605a60ff168152602001605c60ff168152602001604660ff168152602001604f60ff168152602001605260ff168152602001605660ff168152602001604660ff168152602001605360ff168152602001604660ff168152602001605660ff168152602001604a60ff168152602001603f60ff168152602001604d60ff168152602001604560ff168152602001603c60ff168152602001604d60ff168152602001604d60ff168152602001603d60ff168152602001605760ff168152602001604560ff168152602001604c60ff168152602001604a60ff168152602001604360ff168152602001604e60ff168152602001604460ff168152602001604260ff168152602001604360ff168152602001605560ff168152602001603f60ff168152602001604060ff168152602001604260ff168152602001605a60ff168152602001604b60ff168152602001604460ff168152602001605060ff168152602001605660ff168152602001605960ff168152602001605860ff168152602001605260ff168152602001605860ff168152602001603d60ff168152602001605760ff168152602001604e60ff168152602001605660ff168152602001604f60ff168152602001604560ff168152602001605560ff168152602001605660ff168152602001604d60ff168152602001605160ff168152602001605b60ff168152602001605060ff168152602001604260ff168152602001605960ff168152602001605160ff168152602001605060ff168152602001605b60ff168152602001604a60ff168152602001603c60ff168152602001605860ff168152602001604f60ff168152602001605b60ff168152602001605460ff168152602001604960ff168152602001604360ff168152602001604b60ff168152602001605960ff168152602001603c60ff168152602001605a60ff168152602001604f60ff168152602001604860ff168152602001605460ff168152602001603e60ff168152602001604360ff168152602001605360ff168152602001605760ff168152602001605a60ff168152602001605860ff168152602001604060ff168152602001604260ff168152602001605a60ff168152602001603d60ff168152602001605060ff168152602001604b60ff168152602001604860ff168152602001604360ff168152602001604160ff168152602001605560ff168152602001603c60ff168152602001604e60ff168152602001605360ff168152602001604660ff168152602001605460ff168152602001605460ff168152602001604c60ff168152602001605760ff168152602001604f60ff168152602001605b60ff168152602001603e60ff168152602001604960ff168152602001604060ff168152602001604160ff168152602001604160ff168152602001604660ff168152602001605760ff168152602001604c60ff168152602001605860ff168152602001604060ff168152602001604760ff168152602001605160ff168152602001605260ff168152602001605360ff168152602001605660ff168152602001605560ff168152602001603e60ff168152602001603e60ff168152602001605460ff168152602001605960ff168152602001605760ff168152602001605b60ff1681525060029060b0610bf8929190612d0a565b50604051806122000160405280604c60ff168152602001603360ff168152602001603160ff168152602001602d60ff168152602001603c60ff168152602001602160ff168152602001602760ff168152602001605260ff168152602001601260ff168152602001603a60ff168152602001603f60ff168152602001603d60ff168152602001601360ff168152602001604160ff168152602001604b60ff168152602001601f60ff168152602001603860ff168152602001605260ff168152602001604460ff168152602001603060ff168152602001604660ff168152602001602060ff168152602001605260ff168152602001604060ff168152602001601660ff168152602001602f60ff168152602001602560ff168152602001601660ff168152602001602860ff168152602001600c60ff168152602001604260ff168152602001603360ff168152602001604560ff168152602001602460ff168152602001603260ff168152602001604e60ff168152602001602560ff168152602001604260ff168152602001605560ff168152602001604f60ff168152602001604d60ff168152602001602160ff168152602001605560ff168152602001604c60ff168152602001602e60ff168152602001602360ff168152602001603060ff168152602001605960ff168152602001604e60ff168152602001603d60ff168152602001605760ff168152602001602460ff168152602001605160ff168152602001601460ff168152602001603960ff168152602001604760ff168152602001601f60ff168152602001601260ff168152602001601960ff168152602001605160ff168152602001603660ff168152602001603b60ff168152602001602960ff168152602001602f60ff168152602001602d60ff168152602001604a60ff168152602001603a60ff168152602001603e60ff168152602001604860ff168152602001602360ff168152602001602160ff168152602001604860ff168152602001604360ff168152602001602560ff168152602001603f60ff168152602001603760ff168152602001603360ff168152602001601860ff168152602001602760ff168152602001602b60ff168152602001603560ff168152602001602a60ff168152602001602e60ff168152602001603660ff168152602001605360ff168152602001605160ff168152602001605560ff168152602001605660ff168152602001605a60ff168152602001600d60ff168152602001603960ff168152602001601d60ff168152602001603560ff168152602001604360ff168152602001603760ff168152602001601c60ff168152602001600f60ff168152602001603160ff168152602001602f60ff168152602001601b60ff168152602001602960ff168152602001603e60ff168152602001603060ff168152602001602160ff168152602001601d60ff168152602001603160ff168152602001604360ff168152602001603c60ff168152602001603560ff168152602001604b60ff168152602001605060ff168152602001601a60ff168152602001604260ff168152602001604f60ff168152602001604760ff168152602001602c60ff168152602001602860ff168152602001602460ff168152602001604660ff168152602001605060ff168152602001603460ff168152602001600b60ff168152602001603960ff168152602001601060ff168152602001602860ff168152602001601560ff168152602001605460ff168152602001605660ff168152602001602760ff168152602001603d60ff168152602001603a60ff168152602001602c60ff168152602001604160ff168152602001604660ff168152602001605960ff168152602001605260ff168152602001604f60ff168152602001605460ff168152602001605160ff168152602001604960ff168152602001603460ff168152602001601f60ff168152602001601160ff168152602001604660ff168152602001602b60ff168152602001604460ff168152602001601460ff168152602001601060ff168152602001604260ff168152602001602e60ff168152602001603b60ff168152602001605860ff168152602001603c60ff168152602001605860ff168152602001600f60ff168152602001603060ff168152602001601f60ff168152602001605760ff168152602001605460ff168152602001601a60ff168152602001602c60ff168152602001602960ff168152602001600a60ff168152602001602660ff168152602001601b60ff168152602001604060ff168152602001601e60ff168152602001604960ff168152602001602f60ff168152602001603260ff168152602001603a60ff168152602001602460ff168152602001604d60ff168152602001600e60ff168152602001604060ff168152602001600e60ff168152602001604160ff168152602001604360ff168152602001603560ff168152602001603860ff168152602001605560ff168152602001605a60ff168152602001605360ff168152602001605360ff168152602001604160ff168152602001602660ff168152602001604760ff168152602001600c60ff168152602001601760ff168152602001602960ff168152602001601160ff168152602001602d60ff168152602001602760ff168152602001603260ff168152602001601c60ff168152602001603360ff168152602001602060ff168152602001603460ff168152602001603860ff168152602001603b60ff168152602001602360ff168152602001604e60ff168152602001604c60ff168152602001603960ff168152602001602260ff168152602001603e60ff168152602001603160ff168152602001604a60ff168152602001602060ff168152602001602660ff168152602001602b60ff168152602001604760ff168152602001603660ff168152602001603b60ff168152602001602260ff168152602001603260ff168152602001604960ff168152602001604460ff168152602001602a60ff168152602001602d60ff168152602001603760ff168152602001604860ff168152602001605360ff168152602001603f60ff168152602001604060ff168152602001602360ff168152602001604a60ff168152602001603860ff168152602001602a60ff168152602001601960ff168152602001604b60ff168152602001604560ff168152602001603d60ff168152602001602260ff168152602001603c60ff168152602001604d60ff168152602001600b60ff168152602001604e60ff168152602001600d60ff168152602001604a60ff168152602001604560ff168152602001601860ff168152602001602060ff168152602001604b60ff168152602001603f60ff168152602001603660ff168152602001602660ff168152602001602260ff168152602001604d60ff168152602001605060ff168152602001604c60ff168152602001603760ff168152602001604f60ff168152602001602860ff168152602001604860ff168152602001605460ff168152602001602b60ff168152602001603460ff168152602001601360ff168152602001604960ff168152602001603e60ff168152602001601760ff168152602001600a60ff168152602001602560ff168152602001601560ff168152602001601e60ff168152602001602c60ff168152602001602a60ff168152602001604560ff168152602001602e60ff168152602001605060ff168152602001604460ff168152506003906101106116b4929190612d5c565b50604051806117800160405280603d60ff168152602001604a60ff168152602001601460ff168152602001600e60ff168152602001601760ff168152602001603460ff168152602001603760ff168152602001602860ff168152602001604760ff168152602001601e60ff168152602001600c60ff168152602001601f60ff168152602001601360ff168152602001601160ff168152602001602b60ff168152602001603160ff168152602001603360ff168152602001601860ff168152602001603c60ff168152602001602d60ff168152602001602a60ff168152602001602a60ff168152602001603960ff168152602001601560ff168152602001603360ff168152602001602c60ff168152602001601060ff168152602001602560ff168152602001604c60ff168152602001602f60ff168152602001605160ff168152602001602960ff168152602001601960ff168152602001603260ff168152602001603760ff168152602001602160ff168152602001603860ff168152602001604660ff168152602001603b60ff168152602001605360ff168152602001602660ff168152602001604860ff168152602001602660ff168152602001601c60ff168152602001604860ff168152602001600c60ff168152602001604a60ff168152602001602960ff168152602001605460ff168152602001601160ff168152602001604460ff168152602001604060ff168152602001603f60ff168152602001600a60ff168152602001600a60ff168152602001602360ff168152602001601360ff168152602001601460ff168152602001602d60ff168152602001602260ff168152602001602f60ff168152602001601860ff168152602001601f60ff168152602001602660ff168152602001602060ff168152602001602e60ff168152602001603b60ff168152602001601e60ff168152602001602b60ff168152602001602d60ff168152602001603460ff168152602001604260ff168152602001604560ff168152602001603160ff168152602001604460ff168152602001601960ff168152602001602f60ff168152602001603260ff168152602001601060ff168152602001601f60ff168152602001603660ff168152602001603060ff168152602001601560ff168152602001602e60ff168152602001601360ff168152602001602160ff168152602001602460ff168152602001602760ff168152602001604e60ff168152602001600d60ff168152602001602760ff168152602001600d60ff168152602001602560ff168152602001600e60ff168152602001604d60ff168152602001601b60ff168152602001603560ff168152602001601260ff168152602001600e60ff168152602001602460ff168152602001602e60ff168152602001600f60ff168152602001604160ff168152602001602a60ff168152602001601660ff168152602001601660ff168152602001601b60ff168152602001604e60ff168152602001601a60ff168152602001603e60ff168152602001601d60ff168152602001605560ff168152602001603960ff168152602001601a60ff168152602001604b60ff168152602001602360ff168152602001603c60ff168152602001602760ff168152602001602060ff168152602001604560ff168152602001600a60ff168152602001600f60ff168152602001604f60ff168152602001604660ff168152602001604d60ff168152602001603060ff168152602001602160ff168152602001601160ff168152602001603a60ff168152602001601260ff168152602001600b60ff168152602001601d60ff168152602001601e60ff168152602001600c60ff168152602001604f60ff168152602001601260ff168152602001601760ff168152602001602b60ff168152602001605260ff168152602001600d60ff168152602001601660ff168152602001602c60ff168152602001602360ff168152602001601a60ff168152602001604760ff168152602001603660ff168152602001602860ff168152602001603f60ff168152602001601060ff168152602001601460ff168152602001604060ff168152602001603260ff168152602001603160ff168152602001602960ff168152602001604960ff168152602001601760ff168152602001600f60ff168152602001605060ff168152602001601d60ff168152602001602460ff168152602001605060ff168152602001603560ff168152602001603860ff168152602001604b60ff168152602001603060ff168152602001602c60ff168152602001601560ff168152602001604360ff168152602001601c60ff168152602001600b60ff168152602001602560ff168152602001604960ff168152602001601b60ff168152602001601c60ff168152602001602260ff168152602001604260ff168152602001604360ff168152602001604160ff168152602001603a60ff168152602001600b60ff168152602001601960ff168152602001603e60ff168152602001604c60ff168152602001602860ff168152602001602060ff168152602001603d60ff168152602001601860ff168152602001602260ff1681525060049060bc611e27929190612dae565b5060405180612800016040528060ca61ffff16815260200161012e61ffff16815260200160cb61ffff16815260200161012d61ffff16815260200161012e61ffff168152602001606661ffff168152602001606661ffff16815260200160ca61ffff16815260200160cc61ffff16815260200160c961ffff16815260200161012e61ffff16815260200160c961ffff16815260200160ca61ffff16815260200160c961ffff16815260200160ca61ffff16815260200161012f61ffff16815260200160c961ffff168152602001606861ffff16815260200160c961ffff16815260200160c961ffff16815260200160c961ffff16815260200160cb61ffff16815260200161012f61ffff16815260200160cc61ffff16815260200160cb61ffff16815260200160cc61ffff16815260200160cc61ffff168152602001606761ffff16815260200161012f61ffff16815260200160c961ffff168152602001606561ffff16815260200160cb61ffff16815260200161012d61ffff16815260200160cc61ffff16815260200160cb61ffff16815260200161012e61ffff16815260200160ca61ffff16815260200160ca61ffff16815260200161012f61ffff16815260200161012f61ffff16815260200161013061ffff168152602001606561ffff16815260200160c961ffff168152602001606661ffff168152602001606761ffff16815260200160c961ffff16815260200160c961ffff16815260200160ca61ffff16815260200161012e61ffff168152602001606561ffff16815260200161013061ffff168152602001606661ffff16815260200161012d61ffff16815260200161012e61ffff16815260200161012e61ffff16815260200161012e61ffff16815260200160cc61ffff168152602001606761ffff16815260200161012f61ffff168152602001606661ffff16815260200160ca61ffff16815260200160c961ffff16815260200160c961ffff16815260200160c961ffff16815260200160ca61ffff16815260200160c961ffff16815260200161012f61ffff16815260200160ca61ffff16815260200161013061ffff16815260200160cc61ffff16815260200160cb61ffff16815260200160ca61ffff16815260200161012e61ffff16815260200160ca61ffff168152602001606661ffff16815260200160ca61ffff16815260200160c961ffff168152602001606861ffff16815260200160cb61ffff16815260200160cb61ffff16815260200160c961ffff16815260200161012f61ffff16815260200160cb61ffff16815260200160ca61ffff16815260200160c961ffff168152602001606561ffff16815260200160c961ffff16815260200161012d61ffff16815260200160cc61ffff16815260200161012f61ffff16815260200160c961ffff16815260200160ca61ffff16815260200160cc61ffff16815260200161013061ffff16815260200160cc61ffff16815260200161012d61ffff16815260200161012f61ffff16815260200160c961ffff16815260200160cb61ffff16815260200160cc61ffff16815260200160ca61ffff16815260200161012d61ffff16815260200160ca61ffff16815260200161012f61ffff16815260200160cb61ffff168152602001606561ffff168152602001606761ffff16815260200161013061ffff16815260200160ca61ffff16815260200160c961ffff168152602001606861ffff16815260200161012d61ffff16815260200160cb61ffff16815260200160cb61ffff168152602001606561ffff16815260200160ca61ffff16815260200160cc61ffff16815260200161012f61ffff168152602001606761ffff168152602001606861ffff16815260200160ca61ffff16815260200160cc61ffff16815260200160cb61ffff16815260200160c961ffff16815260200160cb61ffff16815260200161012e61ffff16815260200160c961ffff16815260200161012d61ffff16815260200160ca61ffff168152602001606661ffff16815260200161012d61ffff16815260200160cb61ffff16815260200160cb61ffff16815260200161013061ffff16815260200160cb61ffff168152602001606861ffff16815260200160cb61ffff168152602001606661ffff168152602001606861ffff16815260200160ca61ffff168152602001606861ffff168152602001606661ffff16815260200160ca61ffff168152602001606761ffff16815260200161013061ffff168152602001606561ffff168152602001606761ffff16815260200160cc61ffff16815260200160ca61ffff16815260200160cb61ffff16815260200161012d61ffff168152602001606761ffff16815260200161013061ffff168152602001606561ffff16815260200160cb61ffff16815260200160ca61ffff16815260200161013061ffff168152602001606761ffff168152602001606861ffff168152602001606761ffff16815260200160ca61ffff168152602001606861ffff16815260200161012e61ffff168152602001606861ffff16815260200161012f61ffff16815260200160ca61ffff16815260200160cc61ffff16815260200161012f61ffff16815260200161012e61ffff168152602001606661ffff168152602001606561ffff16815260200160cc61ffff16815260200160cc61ffff16815260200160cc61ffff16815260200160ca61ffff168152602001606561ffff16815260200160cc61ffff16815260200161012f61ffff168152602001606861ffff16815260200160ca61ffff16815260200161012d61ffff16815260200160cb61ffff16815260200160c961ffff16815260200160cc61ffff16815260200160cc61ffff16815260200160cc61ffff168152602001606661ffff16815260200160c961ffff16815260200161012d61ffff16815260200161012d61ffff16815260200160cc61ffff168152602001606761ffff16815260200160cb61ffff168152602001606561ffff16815260200160c961ffff168152602001606661ffff16815260200161013061ffff16815260200160cb61ffff16815260200161013061ffff16815260200160cc61ffff168152602001606561ffff16815260200161013061ffff16815260200161012d61ffff168152602001606561ffff16815260200161012f61ffff16815260200161012d61ffff16815260200160cb61ffff16815260200160ca61ffff16815260200160cb61ffff16815260200161013061ffff16815260200160c961ffff16815260200161012e61ffff16815260200161013061ffff168152602001606661ffff16815260200160cb61ffff168152602001606761ffff16815260200161013061ffff168152602001606661ffff16815260200160cb61ffff16815260200161012d61ffff16815260200160c961ffff16815260200160cc61ffff16815260200160c961ffff16815260200160cc61ffff16815260200160cc61ffff16815260200160ca61ffff16815260200160ca61ffff16815260200160c961ffff168152602001606561ffff168152602001606761ffff16815260200160ca61ffff16815260200161012d61ffff16815260200160ca61ffff16815260200160cc61ffff16815260200160cc61ffff16815260200160c961ffff168152602001606561ffff16815260200160cc61ffff16815260200160cb61ffff168152602001606861ffff16815260200160ca61ffff16815260200160ca61ffff16815260200161013061ffff16815260200160ca61ffff16815260200160cc61ffff16815260200160c961ffff16815260200161012f61ffff168152602001606761ffff16815260200160cb61ffff168152602001606861ffff168152602001606761ffff16815260200161012e61ffff168152602001606561ffff168152602001606861ffff168152602001606761ffff168152602001606661ffff168152602001606661ffff168152602001606761ffff16815260200160cb61ffff16815260200160cb61ffff16815260200161012e61ffff16815260200160c961ffff168152602001606661ffff16815260200160c961ffff16815260200160c961ffff168152602001606761ffff16815260200160cc61ffff16815260200161012d61ffff16815260200160cb61ffff168152602001606561ffff16815260200160cc61ffff16815260200160cc61ffff168152602001606561ffff16815260200161012e61ffff16815260200160cc61ffff16815260200161012f61ffff16815260200160cc61ffff16815260200161013061ffff16815260200161012f61ffff16815260200161013061ffff168152602001606861ffff16815260200160ca61ffff168152602001606861ffff16815260200160cc61ffff16815260200160cc61ffff16815260200160cb61ffff16815260200160cb61ffff16815260200160cc61ffff16815260200161012d61ffff16815260200161013061ffff16815260200160cb61ffff16815260200161012f61ffff16815260200161012e61ffff168152602001606861ffff16815260200160cb61ffff16815260200160ca61ffff16815260200161012d61ffff16815260200160c961ffff168152602001606661ffff168152602001606661ffff168152602001606561ffff168152602001606661ffff168152602001606861ffff16815260200160c961ffff16815260200160c961ffff168152602001606761ffff16815260200161012e61ffff16815260200161012e61ffff16815260200161013061ffff16815260200160cb61ffff168152602001606861ffff168152602001606561ffff16815260200160cb61ffff16815260200160ca61ffff16815260200160cb61ffff16815260200160c961ffff168152602001606761ffff168152602001606861ffff16815260200161012e61ffff16815260200160cc61ffff16815250600590610140612c53929190612e00565b50348015612c6057600080fd5b50612e70565b828054828255906000526020600020908101928215612ca7579160200282015b82811115612ca6578251829060ff16905591602001919060010190612c86565b5b509050612cb49190612e53565b5090565b828054828255906000526020600020908101928215612cf9579160200282015b82811115612cf8578251829060ff16905591602001919060010190612cd8565b5b509050612d069190612e53565b5090565b828054828255906000526020600020908101928215612d4b579160200282015b82811115612d4a578251829060ff16905591602001919060010190612d2a565b5b509050612d589190612e53565b5090565b828054828255906000526020600020908101928215612d9d579160200282015b82811115612d9c578251829060ff16905591602001919060010190612d7c565b5b509050612daa9190612e53565b5090565b828054828255906000526020600020908101928215612def579160200282015b82811115612dee578251829060ff16905591602001919060010190612dce565b5b509050612dfc9190612e53565b5090565b828054828255906000526020600020908101928215612e42579160200282015b82811115612e41578251829061ffff16905591602001919060010190612e20565b5b509050612e4f9190612e53565b5090565b5b80821115612e6c576000816000905550600101612e54565b5090565b61042280612e7f6000396000f3fe608060405234801561001057600080fd5b506004361061002b5760003560e01c806395032b6214610030575b600080fd5b61004a60048036038101906100459190610240565b610063565b60405161005a949392919061028f565b60405180910390f35b600080600080600580805490508761007b9190610312565b8154811061008c5761008b6103a1565b5b9060005260206000200154935060006064856100a89190610312565b856100b391906102d4565b9050600060018714156100f55760008080549050896100d29190610312565b815481106100e3576100e26103a1565b5b90600052602060002001549050610171565b60006005886101049190610312565b141561013f57600180805490508961011c9190610312565b8154811061012d5761012c6103a1565b5b90600052602060002001549050610170565b60028080549050896101519190610312565b81548110610162576101616103a1565b5b906000526020600020015490505b5b6000600380805490508a6101859190610312565b81548110610196576101956103a1565b5b906000526020600020015490506000600480805490508b6101b79190610312565b815481106101c8576101c76103a1565b5b9060005260206000200154905060018414156101f35787838383975097509750975050505050610222565b60028414156102115787828483975097509750975050505050610222565b878184849750975097509750505050505b92959194509250565b60008135905061023a816103d5565b92915050565b60008060408385031215610257576102566103d0565b5b60006102658582860161022b565b92505060206102768582860161022b565b9150509250929050565b61028981610308565b82525050565b60006080820190506102a46000830187610280565b6102b16020830186610280565b6102be6040830185610280565b6102cb6060830184610280565b95945050505050565b60006102df82610308565b91506102ea83610308565b9250828210156102fd576102fc610343565b5b828203905092915050565b6000819050919050565b600061031d82610308565b915061032883610308565b92508261033857610337610372565b5b828206905092915050565b7f4e487b7100000000000000000000000000000000000000000000000000000000600052601160045260246000fd5b7f4e487b7100000000000000000000000000000000000000000000000000000000600052601260045260246000fd5b7f4e487b7100000000000000000000000000000000000000000000000000000000600052603260045260246000fd5b600080fd5b6103de81610308565b81146103e957600080fd5b5056fea26469706673582212201827534120aaf058b149bc44476c28a740a381615f136936beedef6fc54805eb64736f6c63430008070033",
  "immutableReferences": {},
  "source": "// SPDX-License-Identifier: MIT\r\npragma solidity ^0.8.0;\r\n\r\ncontract HeroPool {\r\n    // A\r\n    uint256[] private  attr11Pool = [98,95,95,94,93,98,92,94,93,94,99,93,96,96,95,95,99,96,97,96,92,96,100,90,94,91,90,93,93,90,93,90,97,91,98,94,95,91,97,92,95,90,91,91,96,94,92,92];\r\n    // B\r\n    uint256[] private  attr12Pool = [93,85,87,88,98,90,88,90,89,94,86,85,91,86,94,92,95,86,86,89,93,92,92,85,98,95,94,93,85,94,92,93,91,86,94,87,88,89,89,90,97,91,93,90,96,86,100,88,87,97,91,88,87,91,94,95,87,88,91,92,89,99,96,87,85,92,93,89,99,90,90,96,97,85];\r\n    // C\r\n    uint256[] private  attr13Pool = [74,66,72,72,87,61,71,82,88,60,65,63,73,75,91,71,68,82,65,92,78,80,75,76,69,71,85,88,68,63,72,85,89,89,89,90,77,64,63,78,90,81,91,74,68,81,62,85,69,61,83,73,76,86,71,73,90,92,70,79,82,86,70,83,70,86,74,63,77,69,60,77,77,61,87,69,76,74,67,78,68,66,67,85,63,64,66,90,75,68,80,86,89,88,82,88,61,87,78,86,79,69,85,86,77,81,91,80,66,89,81,80,91,74,60,88,79,91,84,73,67,75,89,60,90,79,72,84,62,67,83,87,90,88,64,66,90,61,80,75,72,67,65,85,60,78,83,70,84,84,76,87,79,91,62,73,64,65,65,70,87,76,88,64,71,81,82,83,86,85,62,62,84,89,87,91];\r\n\r\n    //\r\n    uint256[] private  attr2Pool = [76,51,49,45,60,33,39,82,18,58,63,61,19,65,75,31,56,82,68,48,70,32,82,64,22,47,37,22,40,12,66,51,69,36,50,78,37,66,85,79,77,33,85,76,46,35,48,89,78,61,87,36,81,20,57,71,31,18,25,81,54,59,41,47,45,74,58,62,72,35,33,72,67,37,63,55,51,24,39,43,53,42,46,54,83,81,85,86,90,13,57,29,53,67,55,28,15,49,47,27,41,62,48,33,29,49,67,60,53,75,80,26,66,79,71,44,40,36,70,80,52,11,57,16,40,21,84,86,39,61,58,44,65,70,89,82,79,84,81,73,52,31,17,70,43,68,20,16,66,46,59,88,60,88,15,48,31,87,84,26,44,41,10,38,27,64,30,73,47,50,58,36,77,14,64,14,65,67,53,56,85,90,83,83,65,38,71,12,23,41,17,45,39,50,28,51,32,52,56,59,35,78,76,57,34,62,49,74,32,38,43,71,54,59,34,50,73,68,42,45,55,72,83,63,64,35,74,56,42,25,75,69,61,34,60,77,11,78,13,74,69,24,32,75,63,54,38,34,77,80,76,55,79,40,72,84,43,52,19,73,62,23,10,37,21,30,44,42,69,46,80,68];\r\n    uint256[] private  attr3Pool = [61,74,20,14,23,52,55,40,71,30,12,31,19,17,43,49,51,24,60,45,42,42,57,21,51,44,16,37,76,47,81,41,25,50,55,33,56,70,59,83,38,72,38,28,72,12,74,41,84,17,68,64,63,10,10,35,19,20,45,34,47,24,31,38,32,46,59,30,43,45,52,66,69,49,68,25,47,50,16,31,54,48,21,46,19,33,36,39,78,13,39,13,37,14,77,27,53,18,14,36,46,15,65,42,22,22,27,78,26,62,29,85,57,26,75,35,60,39,32,69,10,15,79,70,77,48,33,17,58,18,11,29,30,12,79,18,23,43,82,13,22,44,35,26,71,54,40,63,16,20,64,50,49,41,73,23,15,80,29,36,80,53,56,75,48,44,21,67,28,11,37,73,27,28,34,66,67,65,58,11,25,62,76,40,32,61,24,34];\r\n\r\n    uint256[] private  idsPool = [202,302,203,301,302,102,102,202,204,201,302,201,202,201,202,303,201,104,201,201,201,203,303,204,203,204,204,103,303,201,101,203,301,204,203,302,202,202,303,303,304,101,201,102,103,201,201,202,302,101,304,102,301,302,302,302,204,103,303,102,202,201,201,201,202,201,303,202,304,204,203,202,302,202,102,202,201,104,203,203,201,303,203,202,201,101,201,301,204,303,201,202,204,304,204,301,303,201,203,204,202,301,202,303,203,101,103,304,202,201,104,301,203,203,101,202,204,303,103,104,202,204,203,201,203,302,201,301,202,102,301,203,203,304,203,104,203,102,104,202,104,102,202,103,304,101,103,204,202,203,301,103,304,101,203,202,304,103,104,103,202,104,302,104,303,202,204,303,302,102,101,204,204,204,202,101,204,303,104,202,301,203,201,204,204,204,102,201,301,301,204,103,203,101,201,102,304,203,304,204,101,304,301,101,303,301,203,202,203,304,201,302,304,102,203,103,304,102,203,301,201,204,201,204,204,202,202,201,101,103,202,301,202,204,204,201,101,204,203,104,202,202,304,202,204,201,303,103,203,104,103,302,101,104,103,102,102,103,203,203,302,201,102,201,201,103,204,301,203,101,204,204,101,302,204,303,204,304,303,304,104,202,104,204,204,203,203,204,301,304,203,303,302,104,203,202,301,201,102,102,101,102,104,201,201,103,302,302,304,203,104,101,203,202,203,201,103,104,302,204];\r\n\r\n\r\n    /* hero */\r\n    function rand(uint256 total_times, uint256 my_times) public view returns (uint256 _hero_id, uint256 li, uint256 min, uint256 zhi) {\r\n        _hero_id = idsPool[total_times % idsPool.length];\r\n        uint256 _type = _hero_id - (_hero_id % 100);\r\n\r\n        //\r\n        uint attr1;\r\n        if (my_times == 1) {\r\n            attr1 = attr11Pool[total_times % attr11Pool.length];\r\n        } else if (my_times % 5 == 0) {\r\n            attr1 = attr12Pool[total_times % attr12Pool.length];\r\n        } else {\r\n            attr1 = attr13Pool[total_times % attr13Pool.length];\r\n        }\r\n\r\n        uint attr2 = attr2Pool[total_times % attr2Pool.length];\r\n        uint attr3 = attr3Pool[total_times % attr3Pool.length];\r\n\r\n        if (_type == 1) {\r\n            return (_hero_id, attr1, attr2, attr3);\r\n        } else if (_type == 2) {\r\n            return (_hero_id, attr2, attr1, attr3);\r\n        } else {\r\n            return (_hero_id, attr3, attr1, attr2);\r\n        }\r\n    }\r\n}",
  "sourcePath": "D:\\solidity\\sol-test1\\contracts\\lib\\HeroPool.sol",
  "compiler": {
    "name": "solc",
    "version": "0.8.7+commit.e28d00a7.Emscripten.clang"
  },
  "schemaVersion": "3.4.3",
  "updatedAt": "2021-12-18T12:42:44.161Z",
  "networkType": "ethereum",
  "devdoc": {
    "kind": "dev",
    "methods": {},
    "version": 1
  },
  "userdoc": {
    "kind": "user",
    "methods": {},
    "version": 1
  }
}