{
  "contractName": "Marketplace",
  "abi": [
    {
      "anonymous": false,
      "inputs": [
        {
          "indexed": true,
          "internalType": "address",
          "name": "previousOwner",
          "type": "address"
        },
        {
          "indexed": true,
          "internalType": "address",
          "name": "newOwner",
          "type": "address"
        }
      ],
      "name": "OwnershipTransferred",
      "type": "event"
    },
    {
      "anonymous": false,
      "inputs": [
        {
          "indexed": true,
          "internalType": "address",
          "name": "comsumer",
          "type": "address"
        },
        {
          "indexed": true,
          "internalType": "address",
          "name": "staker",
          "type": "address"
        },
        {
          "indexed": false,
          "internalType": "uint256",
          "name": "tokenId",
          "type": "uint256"
        },
        {
          "indexed": false,
          "internalType": "uint256",
          "name": "price",
          "type": "uint256"
        }
      ],
      "name": "onBuy",
      "type": "event"
    },
    {
      "anonymous": false,
      "inputs": [
        {
          "indexed": true,
          "internalType": "address",
          "name": "staker",
          "type": "address"
        },
        {
          "indexed": false,
          "internalType": "uint256",
          "name": "tokenId",
          "type": "uint256"
        },
        {
          "indexed": false,
          "internalType": "uint256",
          "name": "blockNumber",
          "type": "uint256"
        }
      ],
      "name": "onNftLaunch",
      "type": "event"
    },
    {
      "anonymous": false,
      "inputs": [
        {
          "indexed": true,
          "internalType": "address",
          "name": "staker",
          "type": "address"
        },
        {
          "indexed": false,
          "internalType": "uint256",
          "name": "tokenId",
          "type": "uint256"
        },
        {
          "indexed": false,
          "internalType": "uint256",
          "name": "blockNumber",
          "type": "uint256"
        }
      ],
      "name": "onNftWithdraw",
      "type": "event"
    },
    {
      "inputs": [],
      "name": "owner",
      "outputs": [
        {
          "internalType": "address",
          "name": "",
          "type": "address"
        }
      ],
      "stateMutability": "view",
      "type": "function",
      "constant": true
    },
    {
      "inputs": [
        {
          "internalType": "uint256",
          "name": "",
          "type": "uint256"
        }
      ],
      "name": "receipt",
      "outputs": [
        {
          "internalType": "uint256",
          "name": "tokenId",
          "type": "uint256"
        },
        {
          "internalType": "uint256",
          "name": "price",
          "type": "uint256"
        },
        {
          "internalType": "address",
          "name": "owner",
          "type": "address"
        }
      ],
      "stateMutability": "view",
      "type": "function",
      "constant": true
    },
    {
      "inputs": [],
      "name": "renounceOwnership",
      "outputs": [],
      "stateMutability": "nonpayable",
      "type": "function"
    },
    {
      "inputs": [
        {
          "internalType": "address",
          "name": "newOwner",
          "type": "address"
        }
      ],
      "name": "transferOwnership",
      "outputs": [],
      "stateMutability": "nonpayable",
      "type": "function"
    },
    {
      "inputs": [
        {
          "internalType": "address",
          "name": "_diamond",
          "type": "address"
        },
        {
          "internalType": "address",
          "name": "_NftHero",
          "type": "address"
        }
      ],
      "name": "initialize",
      "outputs": [],
      "stateMutability": "nonpayable",
      "type": "function"
    },
    {
      "inputs": [
        {
          "internalType": "address",
          "name": "_NftHero",
          "type": "address"
        }
      ],
      "name": "setNftHeroInst",
      "outputs": [],
      "stateMutability": "nonpayable",
      "type": "function"
    },
    {
      "inputs": [
        {
          "internalType": "string",
          "name": "_name",
          "type": "string"
        },
        {
          "internalType": "uint256",
          "name": "_value",
          "type": "uint256"
        }
      ],
      "name": "setParam",
      "outputs": [],
      "stateMutability": "nonpayable",
      "type": "function"
    },
    {
      "inputs": [
        {
          "internalType": "string",
          "name": "_name",
          "type": "string"
        }
      ],
      "name": "getParam",
      "outputs": [
        {
          "internalType": "uint256",
          "name": "",
          "type": "uint256"
        }
      ],
      "stateMutability": "view",
      "type": "function",
      "constant": true
    },
    {
      "inputs": [
        {
          "internalType": "uint256",
          "name": "tokenId",
          "type": "uint256"
        },
        {
          "internalType": "uint256",
          "name": "_price",
          "type": "uint256"
        }
      ],
      "name": "createProduct",
      "outputs": [],
      "stateMutability": "nonpayable",
      "type": "function"
    },
    {
      "inputs": [],
      "name": "reviewMyProducts",
      "outputs": [
        {
          "internalType": "uint256[]",
          "name": "_tokens",
          "type": "uint256[]"
        },
        {
          "internalType": "uint256[]",
          "name": "_prices",
          "type": "uint256[]"
        }
      ],
      "stateMutability": "view",
      "type": "function",
      "constant": true
    },
    {
      "inputs": [
        {
          "internalType": "uint256",
          "name": "tokenId",
          "type": "uint256"
        }
      ],
      "name": "withdrawProduct",
      "outputs": [],
      "stateMutability": "nonpayable",
      "type": "function"
    },
    {
      "inputs": [
        {
          "internalType": "uint256",
          "name": "tokenId",
          "type": "uint256"
        }
      ],
      "name": "buy",
      "outputs": [],
      "stateMutability": "nonpayable",
      "type": "function"
    },
    {
      "inputs": [
        {
          "internalType": "address",
          "name": "",
          "type": "address"
        },
        {
          "internalType": "address",
          "name": "",
          "type": "address"
        },
        {
          "internalType": "uint256",
          "name": "",
          "type": "uint256"
        },
        {
          "internalType": "bytes",
          "name": "",
          "type": "bytes"
        }
      ],
      "name": "onERC721Received",
      "outputs": [
        {
          "internalType": "bytes4",
          "name": "",
          "type": "bytes4"
        }
      ],
      "stateMutability": "nonpayable",
      "type": "function"
    }
  ],
  "bytecode": "0x608060405234801561001057600080fd5b506130cf806100206000396000f3fe608060405234801561001057600080fd5b50600436106100ce5760003560e01c8063715018a61161008c578063ab34c52411610066578063ab34c52414610200578063b1e3457d1461021c578063d96a094a14610238578063f2fde38b14610254576100ce565b8063715018a6146101a65780638da5cb5b146101b0578063a2aa4337146101ce576100ce565b8062259683146100d3578063150b7a02146100ef57806344d9da681461011f578063485cc9551461013b578063571f25e7146101575780635d4f71d414610176575b600080fd5b6100ed60048036038101906100e89190611e94565b610270565b005b61010960048036038101906101049190611f2e565b610330565b60405161011691906125af565b60405180910390f35b61013960048036038101906101349190612027565b610344565b005b61015560048036038101906101509190611eee565b6103e7565b005b61015f61058e565b60405161016d929190612578565b60405180910390f35b610190600480360381019061018b9190611fde565b610801565b60405161019d919061280a565b60405180910390f35b6101ae610829565b005b6101b86108b1565b6040516101c591906124fd565b60405180910390f35b6101e860048036038101906101e39190612083565b6108db565b6040516101f79392919061284e565b60405180910390f35b61021a60048036038101906102159190612083565b610925565b005b610236600480360381019061023191906120dd565b610d58565b005b610252600480360381019061024d9190612083565b61158d565b005b61026e60048036038101906102699190611e94565b6119d9565b005b610278611ad1565b73ffffffffffffffffffffffffffffffffffffffff166102966108b1565b73ffffffffffffffffffffffffffffffffffffffff16146102ec576040517f08c379a00000000000000000000000000000000000000000000000000000000081526004016102e3906126ea565b60405180910390fd5b80606660006101000a81548173ffffffffffffffffffffffffffffffffffffffff021916908373ffffffffffffffffffffffffffffffffffffffff16021790555050565b600063150b7a0260e01b9050949350505050565b61034c611ad1565b73ffffffffffffffffffffffffffffffffffffffff1661036a6108b1565b73ffffffffffffffffffffffffffffffffffffffff16146103c0576040517f08c379a00000000000000000000000000000000000000000000000000000000081526004016103b7906126ea565b60405180910390fd5b806069836040516103d191906124bc565b9081526020016040518091039020819055505050565b600060019054906101000a900460ff168061040d575060008054906101000a900460ff16155b61044c576040517f08c379a0000000000000000000000000000000000000000000000000000000008152600401610443906126ca565b60405180910390fd5b60008060019054906101000a900460ff16159050801561049c576001600060016101000a81548160ff02191690831515021790555060016000806101000a81548160ff0219169083151502179055505b82606560006101000a81548173ffffffffffffffffffffffffffffffffffffffff021916908373ffffffffffffffffffffffffffffffffffffffff16021790555081606660006101000a81548173ffffffffffffffffffffffffffffffffffffffff021916908373ffffffffffffffffffffffffffffffffffffffff1602179055506005606960405161052e906124d3565b90815260200160405180910390208190555066038d7ea4c680006069604051610556906124e8565b90815260200160405180910390208190555080156105895760008060016101000a81548160ff0219169083151502179055505b505050565b6060806001606860003373ffffffffffffffffffffffffffffffffffffffff1673ffffffffffffffffffffffffffffffffffffffff1681526020019081526020016000208054905010156105e1576107fd565b6000606860003373ffffffffffffffffffffffffffffffffffffffff1673ffffffffffffffffffffffffffffffffffffffff1681526020019081526020016000208054905067ffffffffffffffff81111561063f5761063e612be8565b5b60405190808252806020026020018201604052801561066d5781602001602082028036833780820191505090505b50915060005b606860003373ffffffffffffffffffffffffffffffffffffffff1673ffffffffffffffffffffffffffffffffffffffff1681526020019081526020016000208054905081101561076457606860003373ffffffffffffffffffffffffffffffffffffffff1673ffffffffffffffffffffffffffffffffffffffff168152602001908152602001600020818154811061070e5761070d612bb9565b5b90600052602060002001549150606760008381526020019081526020016000206001015483828151811061074557610744612bb9565b5b602002602001018181525050808061075c90612b12565b915050610673565b50606860003373ffffffffffffffffffffffffffffffffffffffff1673ffffffffffffffffffffffffffffffffffffffff16815260200190815260200160002082818054806020026020016040519081016040528092919081815260200182805480156107f057602002820191906000526020600020905b8154815260200190600101908083116107dc575b5050505050915092509250505b9091565b600060698260405161081391906124bc565b9081526020016040518091039020549050919050565b610831611ad1565b73ffffffffffffffffffffffffffffffffffffffff1661084f6108b1565b73ffffffffffffffffffffffffffffffffffffffff16146108a5576040517f08c379a000000000000000000000000000000000000000000000000000000000815260040161089c906126ea565b60405180910390fd5b6108af6000611ad9565b565b6000603360009054906101000a900473ffffffffffffffffffffffffffffffffffffffff16905090565b60676020528060005260406000206000915090508060000154908060010154908060020160009054906101000a900473ffffffffffffffffffffffffffffffffffffffff16905083565b803073ffffffffffffffffffffffffffffffffffffffff16606660009054906101000a900473ffffffffffffffffffffffffffffffffffffffff1673ffffffffffffffffffffffffffffffffffffffff16636352211e836040518263ffffffff1660e01b8152600401610998919061280a565b60206040518083038186803b1580156109b057600080fd5b505afa1580156109c4573d6000803e3d6000fd5b505050506040513d601f19601f820116820180604052508101906109e89190611ec1565b73ffffffffffffffffffffffffffffffffffffffff1614610a3e576040517f08c379a0000000000000000000000000000000000000000000000000000000008152600401610a35906127ca565b60405180910390fd5b600060676000838152602001908152602001600020600101541415610a98576040517f08c379a0000000000000000000000000000000000000000000000000000000008152600401610a8f9061276a565b60405180910390fd5b3373ffffffffffffffffffffffffffffffffffffffff166067600083815260200190815260200160002060020160009054906101000a900473ffffffffffffffffffffffffffffffffffffffff1673ffffffffffffffffffffffffffffffffffffffff1614610b3c576040517f08c379a0000000000000000000000000000000000000000000000000000000008152600401610b339061260a565b60405180910390fd5b6067600083815260200190815260200160002060008082016000905560018201600090556002820160006101000a81549073ffffffffffffffffffffffffffffffffffffffff02191690555050606660009054906101000a900473ffffffffffffffffffffffffffffffffffffffff1673ffffffffffffffffffffffffffffffffffffffff166342842e0e3033856040518463ffffffff1660e01b8152600401610be893929190612541565b600060405180830381600087803b158015610c0257600080fd5b505af1158015610c16573d6000803e3d6000fd5b505050503373ffffffffffffffffffffffffffffffffffffffff167f0be07f6f16ed499f00de27d5c5b4eccaf5b0fd65f771aab229df245d62e6afae8343604051610c62929190612825565b60405180910390a2610d01606860003373ffffffffffffffffffffffffffffffffffffffff1673ffffffffffffffffffffffffffffffffffffffff168152602001908152602001600020805480602002602001604051908101604052809291908181526020018280548015610cf657602002820191906000526020600020905b815481526020019060010190808311610ce2575b505050505083611b9f565b606860003373ffffffffffffffffffffffffffffffffffffffff1673ffffffffffffffffffffffffffffffffffffffff1681526020019081526020016000209080519060200190610d53929190611ce1565b505050565b3073ffffffffffffffffffffffffffffffffffffffff16606660009054906101000a900473ffffffffffffffffffffffffffffffffffffffff1673ffffffffffffffffffffffffffffffffffffffff16636352211e846040518263ffffffff1660e01b8152600401610dca919061280a565b60206040518083038186803b158015610de257600080fd5b505afa158015610df6573d6000803e3d6000fd5b505050506040513d601f19601f82011682018060405250810190610e1a9190611ec1565b73ffffffffffffffffffffffffffffffffffffffff161415610e71576040517f08c379a0000000000000000000000000000000000000000000000000000000008152600401610e689061268a565b60405180910390fd5b6000606760008481526020019081526020016000206001015414610eca576040517f08c379a0000000000000000000000000000000000000000000000000000000008152600401610ec1906127ea565b60405180910390fd5b6069604051610ed8906124e8565b9081526020016040518091039020548111610f28576040517f08c379a0000000000000000000000000000000000000000000000000000000008152600401610f1f9061262a565b60405180910390fd5b60006064826069604051610f3b906124d3565b908152602001604051809103902054610f54919061299d565b610f5e919061296c565b905060008111610fa3576040517f08c379a0000000000000000000000000000000000000000000000000000000008152600401610f9a9061266a565b60405180910390fd5b818110610fe5576040517f08c379a0000000000000000000000000000000000000000000000000000000008152600401610fdc906125ca565b60405180910390fd5b80606560009054906101000a900473ffffffffffffffffffffffffffffffffffffffff1673ffffffffffffffffffffffffffffffffffffffff1663dd62ed3e33306040518363ffffffff1660e01b8152600401611043929190612518565b60206040518083038186803b15801561105b57600080fd5b505afa15801561106f573d6000803e3d6000fd5b505050506040513d601f19601f8201168201806040525081019061109391906120b0565b11156110d4576040517f08c379a00000000000000000000000000000000000000000000000000000000081526004016110cb9061272a565b60405180910390fd5b3073ffffffffffffffffffffffffffffffffffffffff16606660009054906101000a900473ffffffffffffffffffffffffffffffffffffffff1673ffffffffffffffffffffffffffffffffffffffff1663081812fc856040518263ffffffff1660e01b8152600401611146919061280a565b60206040518083038186803b15801561115e57600080fd5b505afa158015611172573d6000803e3d6000fd5b505050506040513d601f19601f820116820180604052508101906111969190611ec1565b73ffffffffffffffffffffffffffffffffffffffff16146111ec576040517f08c379a00000000000000000000000000000000000000000000000000000000081526004016111e3906126aa565b60405180910390fd5b606560009054906101000a900473ffffffffffffffffffffffffffffffffffffffff1673ffffffffffffffffffffffffffffffffffffffff166323b872dd3330846040518463ffffffff1660e01b815260040161124b93929190612541565b602060405180830381600087803b15801561126557600080fd5b505af1158015611279573d6000803e3d6000fd5b505050506040513d601f19601f8201168201806040525081019061129d9190611fb1565b50606660009054906101000a900473ffffffffffffffffffffffffffffffffffffffff1673ffffffffffffffffffffffffffffffffffffffff166342842e0e3330866040518463ffffffff1660e01b81526004016112fd93929190612541565b600060405180830381600087803b15801561131757600080fd5b505af115801561132b573d6000803e3d6000fd5b505050503073ffffffffffffffffffffffffffffffffffffffff16606660009054906101000a900473ffffffffffffffffffffffffffffffffffffffff1673ffffffffffffffffffffffffffffffffffffffff16636352211e856040518263ffffffff1660e01b81526004016113a1919061280a565b60206040518083038186803b1580156113b957600080fd5b505afa1580156113cd573d6000803e3d6000fd5b505050506040513d601f19601f820116820180604052508101906113f19190611ec1565b73ffffffffffffffffffffffffffffffffffffffff1614611447576040517f08c379a000000000000000000000000000000000000000000000000000000000815260040161143e9061270a565b60405180910390fd5b826067600085815260200190815260200160002060000181905550336067600085815260200190815260200160002060020160006101000a81548173ffffffffffffffffffffffffffffffffffffffff021916908373ffffffffffffffffffffffffffffffffffffffff160217905550816067600085815260200190815260200160002060010181905550606860003373ffffffffffffffffffffffffffffffffffffffff1673ffffffffffffffffffffffffffffffffffffffff1681526020019081526020016000208390806001815401808255809150506001900390600052602060002001600090919091909150553373ffffffffffffffffffffffffffffffffffffffff167f8289de21ba97cbfdfc8fb11d736a54ea777fd1f003b6e224028607419d6f450a8443604051611580929190612825565b60405180910390a2505050565b60006067600083815260200190815260200160002060010154116115e6576040517f08c379a00000000000000000000000000000000000000000000000000000000081526004016115dd9061274a565b60405180910390fd5b60006067600083815260200190815260200160002060405180606001604052908160008201548152602001600182015481526020016002820160009054906101000a900473ffffffffffffffffffffffffffffffffffffffff1673ffffffffffffffffffffffffffffffffffffffff1673ffffffffffffffffffffffffffffffffffffffff168152505090503373ffffffffffffffffffffffffffffffffffffffff16816040015173ffffffffffffffffffffffffffffffffffffffff1614156116e5576040517f08c379a00000000000000000000000000000000000000000000000000000000081526004016116dc906127aa565b60405180910390fd5b8060200151606560009054906101000a900473ffffffffffffffffffffffffffffffffffffffff1673ffffffffffffffffffffffffffffffffffffffff1663dd62ed3e33306040518363ffffffff1660e01b8152600401611747929190612518565b60206040518083038186803b15801561175f57600080fd5b505afa158015611773573d6000803e3d6000fd5b505050506040513d601f19601f8201168201806040525081019061179791906120b0565b116117d7576040517f08c379a00000000000000000000000000000000000000000000000000000000081526004016117ce9061278a565b60405180910390fd5b606560009054906101000a900473ffffffffffffffffffffffffffffffffffffffff1673ffffffffffffffffffffffffffffffffffffffff166323b872dd33836040015184602001516040518463ffffffff1660e01b815260040161183e93929190612541565b602060405180830381600087803b15801561185857600080fd5b505af115801561186c573d6000803e3d6000fd5b505050506040513d601f19601f820116820180604052508101906118909190611fb1565b50606660009054906101000a900473ffffffffffffffffffffffffffffffffffffffff1673ffffffffffffffffffffffffffffffffffffffff166342842e0e3033856040518463ffffffff1660e01b81526004016118f093929190612541565b600060405180830381600087803b15801561190a57600080fd5b505af115801561191e573d6000803e3d6000fd5b505050506067600083815260200190815260200160002060020160009054906101000a900473ffffffffffffffffffffffffffffffffffffffff1673ffffffffffffffffffffffffffffffffffffffff163373ffffffffffffffffffffffffffffffffffffffff167f5af5e093a3712adcb8cb923a394b38561c5572c9beeb065aec555c87ef3993408460676000878152602001908152602001600020600101546040516119cd929190612825565b60405180910390a35050565b6119e1611ad1565b73ffffffffffffffffffffffffffffffffffffffff166119ff6108b1565b73ffffffffffffffffffffffffffffffffffffffff1614611a55576040517f08c379a0000000000000000000000000000000000000000000000000000000008152600401611a4c906126ea565b60405180910390fd5b600073ffffffffffffffffffffffffffffffffffffffff168173ffffffffffffffffffffffffffffffffffffffff161415611ac5576040517f08c379a0000000000000000000000000000000000000000000000000000000008152600401611abc906125ea565b60405180910390fd5b611ace81611ad9565b50565b600033905090565b6000603360009054906101000a900473ffffffffffffffffffffffffffffffffffffffff16905081603360006101000a81548173ffffffffffffffffffffffffffffffffffffffff021916908373ffffffffffffffffffffffffffffffffffffffff1602179055508173ffffffffffffffffffffffffffffffffffffffff168173ffffffffffffffffffffffffffffffffffffffff167f8be0079c531659141344cd1fd0a4f28419497f9722a3daafe3b4186f6b6457e060405160405180910390a35050565b6060600183511015611be6576040517f08c379a0000000000000000000000000000000000000000000000000000000008152600401611bdd9061264a565b60405180910390fd5b600060018451611bf691906129f7565b67ffffffffffffffff811115611c0f57611c0e612be8565b5b604051908082528060200260200182016040528015611c3d5781602001602082028036833780820191505090505b509050600184511115611cd7576000805b8551811015611cd45784868281518110611c6b57611c6a612bb9565b5b602002602001015114611cc157858181518110611c8b57611c8a612bb9565b5b6020026020010151838381518110611ca657611ca5612bb9565b5b6020026020010181815250508180611cbd90612b12565b9250505b8080611ccc90612b12565b915050611c4e565b50505b8091505092915050565b828054828255906000526020600020908101928215611d1d579160200282015b82811115611d1c578251825591602001919060010190611d01565b5b509050611d2a9190611d2e565b5090565b5b80821115611d47576000816000905550600101611d2f565b5090565b6000611d5e611d59846128aa565b612885565b905082815260208101848484011115611d7a57611d79612c1c565b5b611d85848285612a9f565b509392505050565b6000611da0611d9b846128db565b612885565b905082815260208101848484011115611dbc57611dbb612c1c565b5b611dc7848285612a9f565b509392505050565b600081359050611dde81613054565b92915050565b600081519050611df381613054565b92915050565b600081519050611e088161306b565b92915050565b600082601f830112611e2357611e22612c17565b5b8135611e33848260208601611d4b565b91505092915050565b600082601f830112611e5157611e50612c17565b5b8135611e61848260208601611d8d565b91505092915050565b600081359050611e7981613082565b92915050565b600081519050611e8e81613082565b92915050565b600060208284031215611eaa57611ea9612c26565b5b6000611eb884828501611dcf565b91505092915050565b600060208284031215611ed757611ed6612c26565b5b6000611ee584828501611de4565b91505092915050565b60008060408385031215611f0557611f04612c26565b5b6000611f1385828601611dcf565b9250506020611f2485828601611dcf565b9150509250929050565b60008060008060808587031215611f4857611f47612c26565b5b6000611f5687828801611dcf565b9450506020611f6787828801611dcf565b9350506040611f7887828801611e6a565b925050606085013567ffffffffffffffff811115611f9957611f98612c21565b5b611fa587828801611e0e565b91505092959194509250565b600060208284031215611fc757611fc6612c26565b5b6000611fd584828501611df9565b91505092915050565b600060208284031215611ff457611ff3612c26565b5b600082013567ffffffffffffffff81111561201257612011612c21565b5b61201e84828501611e3c565b91505092915050565b6000806040838503121561203e5761203d612c26565b5b600083013567ffffffffffffffff81111561205c5761205b612c21565b5b61206885828601611e3c565b925050602061207985828601611e6a565b9150509250929050565b60006020828403121561209957612098612c26565b5b60006120a784828501611e6a565b91505092915050565b6000602082840312156120c6576120c5612c26565b5b60006120d484828501611e7f565b91505092915050565b600080604083850312156120f4576120f3612c26565b5b600061210285828601611e6a565b925050602061211385828601611e6a565b9150509250929050565b6000612129838361249e565b60208301905092915050565b61213e81612a2b565b82525050565b600061214f8261291c565b612159818561293f565b93506121648361290c565b8060005b8381101561219557815161217c888261211d565b975061218783612932565b925050600181019050612168565b5085935050505092915050565b6121ab81612a49565b82525050565b60006121bc82612927565b6121c68185612961565b93506121d6818560208601612aae565b80840191505092915050565b60006121ef601b83612950565b91506121fa82612c3c565b602082019050919050565b6000612212602683612950565b915061221d82612c65565b604082019050919050565b6000612235602383612950565b915061224082612cb4565b604082019050919050565b6000612258601483612950565b915061226382612d03565b602082019050919050565b600061227b601283612950565b915061228682612d2c565b602082019050919050565b600061229e600c83612950565b91506122a982612d55565b602082019050919050565b60006122c1601f83612950565b91506122cc82612d7e565b602082019050919050565b60006122e4601f83612950565b91506122ef82612da7565b602082019050919050565b6000612307602e83612950565b915061231282612dd0565b604082019050919050565b600061232a602083612950565b915061233582612e1f565b602082019050919050565b600061234d603083612950565b915061235882612e48565b604082019050919050565b6000612370601483612950565b915061237b82612e97565b602082019050919050565b6000612393601083612950565b915061239e82612ec0565b602082019050919050565b60006123b6601f83612950565b91506123c182612ee9565b602082019050919050565b60006123d9601483612950565b91506123e482612f12565b602082019050919050565b60006123fc601383612950565b915061240782612f3b565b602082019050919050565b600061241f600b83612961565b915061242a82612f64565b600b82019050919050565b6000612442602d83612950565b915061244d82612f8d565b604082019050919050565b6000612465600983612961565b915061247082612fdc565b600982019050919050565b6000612488602783612950565b915061249382613005565b604082019050919050565b6124a781612a95565b82525050565b6124b681612a95565b82525050565b60006124c882846121b1565b915081905092915050565b60006124de82612412565b9150819050919050565b60006124f382612458565b9150819050919050565b60006020820190506125126000830184612135565b92915050565b600060408201905061252d6000830185612135565b61253a6020830184612135565b9392505050565b60006060820190506125566000830186612135565b6125636020830185612135565b61257060408301846124ad565b949350505050565b600060408201905081810360008301526125928185612144565b905081810360208301526125a68184612144565b90509392505050565b60006020820190506125c460008301846121a2565b92915050565b600060208201905081810360008301526125e3816121e2565b9050919050565b6000602082019050818103600083015261260381612205565b9050919050565b6000602082019050818103600083015261262381612228565b9050919050565b600060208201905081810360008301526126438161224b565b9050919050565b600060208201905081810360008301526126638161226e565b9050919050565b6000602082019050818103600083015261268381612291565b9050919050565b600060208201905081810360008301526126a3816122b4565b9050919050565b600060208201905081810360008301526126c3816122d7565b9050919050565b600060208201905081810360008301526126e3816122fa565b9050919050565b600060208201905081810360008301526127038161231d565b9050919050565b6000602082019050818103600083015261272381612340565b9050919050565b6000602082019050818103600083015261274381612363565b9050919050565b6000602082019050818103600083015261276381612386565b9050919050565b60006020820190508181036000830152612783816123a9565b9050919050565b600060208201905081810360008301526127a3816123cc565b9050919050565b600060208201905081810360008301526127c3816123ef565b9050919050565b600060208201905081810360008301526127e381612435565b9050919050565b600060208201905081810360008301526128038161247b565b9050919050565b600060208201905061281f60008301846124ad565b92915050565b600060408201905061283a60008301856124ad565b61284760208301846124ad565b9392505050565b600060608201905061286360008301866124ad565b61287060208301856124ad565b61287d6040830184612135565b949350505050565b600061288f6128a0565b905061289b8282612ae1565b919050565b6000604051905090565b600067ffffffffffffffff8211156128c5576128c4612be8565b5b6128ce82612c2b565b9050602081019050919050565b600067ffffffffffffffff8211156128f6576128f5612be8565b5b6128ff82612c2b565b9050602081019050919050565b6000819050602082019050919050565b600081519050919050565b600081519050919050565b6000602082019050919050565b600082825260208201905092915050565b600082825260208201905092915050565b600081905092915050565b600061297782612a95565b915061298283612a95565b92508261299257612991612b8a565b5b828204905092915050565b60006129a882612a95565b91506129b383612a95565b9250817fffffffffffffffffffffffffffffffffffffffffffffffffffffffffffffffff04831182151516156129ec576129eb612b5b565b5b828202905092915050565b6000612a0282612a95565b9150612a0d83612a95565b925082821015612a2057612a1f612b5b565b5b828203905092915050565b6000612a3682612a75565b9050919050565b60008115159050919050565b60007fffffffff0000000000000000000000000000000000000000000000000000000082169050919050565b600073ffffffffffffffffffffffffffffffffffffffff82169050919050565b6000819050919050565b82818337600083830152505050565b60005b83811015612acc578082015181840152602081019050612ab1565b83811115612adb576000848401525b50505050565b612aea82612c2b565b810181811067ffffffffffffffff82111715612b0957612b08612be8565b5b80604052505050565b6000612b1d82612a95565b91507fffffffffffffffffffffffffffffffffffffffffffffffffffffffffffffffff821415612b5057612b4f612b5b565b5b600182019050919050565b7f4e487b7100000000000000000000000000000000000000000000000000000000600052601160045260246000fd5b7f4e487b7100000000000000000000000000000000000000000000000000000000600052601260045260246000fd5b7f4e487b7100000000000000000000000000000000000000000000000000000000600052603260045260246000fd5b7f4e487b7100000000000000000000000000000000000000000000000000000000600052604160045260246000fd5b600080fd5b600080fd5b600080fd5b600080fd5b6000601f19601f8301169050919050565b7f666565206d757374206265206c657373207468616e2070726963650000000000600082015250565b7f4f776e61626c653a206e6577206f776e657220697320746865207a65726f206160008201527f6464726573730000000000000000000000000000000000000000000000000000602082015250565b7f6f6e6c795374616b65723a2043616c6c6572206973206e6f74204e4654206f7760008201527f6e65720000000000000000000000000000000000000000000000000000000000602082015250565b7f707269636520302e303031206174206c65617374000000000000000000000000600082015250565b7f5f61727252656d6f76652066726f6d205b5d0000000000000000000000000000600082015250565b7f666565206d757374203e20300000000000000000000000000000000000000000600082015250565b7f637265617465206661696c65643a206c61756e6368656420616c726561647900600082015250565b7f6e66742073686f756c6420617070726f76656420746f20636f6e747261637400600082015250565b7f496e697469616c697a61626c653a20636f6e747261637420697320616c72656160008201527f647920696e697469616c697a6564000000000000000000000000000000000000602082015250565b7f4f776e61626c653a2063616c6c6572206973206e6f7420746865206f776e6572600082015250565b7f637265617465206661696c65643a206e66742062656c6f6e677320746869732060008201527f636f6e747261637420616c726561647900000000000000000000000000000000602082015250565b7f616c6c6f77616e6365206e6f7420656e6f756768000000000000000000000000600082015250565b7f676f6f6473206e6f742065786973747300000000000000000000000000000000600082015250565b7f6f6e6c795374616b65723a20546f6b656e206973206e6f74206c61756e636800600082015250565b7f6e6f7420656e6f75676820616c6c6f77616e6365000000000000000000000000600082015250565b7f63616e6e74206279206f776e6564206974656d00000000000000000000000000600082015250565b7f6665655f70657263656e74000000000000000000000000000000000000000000600082015250565b7f6f6e6c795374616b65723a20436f6e7472616374206973206e6f74206f776e6560008201527f72206f662074686973204e465400000000000000000000000000000000000000602082015250565b7f6d696e5f70726963650000000000000000000000000000000000000000000000600082015250565b7f637265617465206661696c65643a20746f6b656e6964206c61756e636865642060008201527f616c726561647900000000000000000000000000000000000000000000000000602082015250565b61305d81612a2b565b811461306857600080fd5b50565b61307481612a3d565b811461307f57600080fd5b50565b61308b81612a95565b811461309657600080fd5b5056fea264697066735822122001ea00139cd6e31a2a7d51875fb76ea65ebf2c398100da9a8395e2a18731d4a664736f6c63430008070033",
  "immutableReferences": {},
  "source": "// SPDX-License-Identifier: MIT\r\n// https://github.com/crazyrabbitLTC/NFT-staking-boiler/blob/main/contracts/NftStake.sol\r\npragma solidity ^0.8.0;\r\n\r\nimport \"@openzeppelin/contracts-upgradeable/access/OwnableUpgradeable.sol\";\r\nimport \"@openzeppelin/contracts-upgradeable/utils/math/SafeMathUpgradeable.sol\";\r\nimport \"@openzeppelin/contracts-upgradeable/token/ERC721/ERC721Upgradeable.sol\";\r\nimport \"@openzeppelin/contracts-upgradeable/token/ERC721/IERC721ReceiverUpgradeable.sol\";\r\n//import \"@openzeppelin/contracts-upgradeable/token/ERC20/IERC20Upgradeable.sol\";\r\nimport \"./NftHero.sol\";\r\nimport \"./Diamond.sol\";\r\n\r\n/** nft */\r\ncontract Marketplace is IERC721ReceiverUpgradeable,OwnableUpgradeable {\r\n    using SafeMathUpgradeable for uint256;\r\n\r\n    Diamond diamondInstance;\r\n    NftHero nftHeroInst;\r\n\r\n    //\r\n    struct product {\r\n        uint256 tokenId;\r\n        uint256 price;\r\n        address owner;\r\n    }\r\n    mapping(uint256 => product) public receipt;\r\n    //tokens\r\n    mapping(address => uint256[]) userTokens;\r\n    //\r\n    //launch_rate 0\r\n    mapping(string => uint256) params;\r\n\r\n    /** token */\r\n    modifier onlyStaker(uint256 tokenId) {\r\n        //token\r\n        require(nftHeroInst.ownerOf(tokenId) == address(this), \"onlyStaker: Contract is not owner of this NFT\");\r\n        //\r\n        require(receipt[tokenId].price != 0, \"onlyStaker: Token is not launch\");\r\n        //\r\n        require(receipt[tokenId].owner == msg.sender, \"onlyStaker: Caller is not NFT owner\");\r\n        _;\r\n    }\r\n\r\n    function initialize(address _diamond, address _NftHero) public initializer {\r\n        diamondInstance = Diamond(_diamond);\r\n        nftHeroInst = NftHero(_NftHero);\r\n        params[\"fee_percent\"] = 5; // 5%\r\n        params[\"min_price\"] = uint256(0.001 * 1e18); //\r\n    }\r\n\r\n    function setNftHeroInst(address _NftHero) public onlyOwner {\r\n        nftHeroInst = NftHero(_NftHero);\r\n    }\r\n\r\n    function setParam(string memory _name, uint256 _value) public onlyOwner {\r\n        params[_name] = _value;\r\n    }\r\n\r\n    function getParam(string memory _name) public view returns (uint256) {\r\n        return params[_name];\r\n    }\r\n\r\n    /**  */\r\n    function createProduct(uint256 tokenId, uint256 _price) public {\r\n        //token\r\n        require(nftHeroInst.ownerOf(tokenId) != address(this), \"create failed: launched already\");\r\n        //\r\n        require(receipt[tokenId].price == 0, \"create failed: tokenid launched already\");\r\n        //\r\n        require(_price > params[\"min_price\"], \"price 0.001 at least\");\r\n\r\n        //\r\n        uint256 fee = uint256(params[\"fee_percent\"] * _price / 100);\r\n        //0\r\n        require(fee > 0, \"fee must > 0\");\r\n        //\r\n        require(fee < _price, \"fee must be less than price\");\r\n        //\r\n        require(diamondInstance.allowance(msg.sender, address(this))  <= fee, \"allowance not enough\");\r\n        require(nftHeroInst.getApproved(tokenId) == address(this), \"nft should approved to contract\");\r\n        \r\n        diamondInstance.transferFrom(msg.sender, address(this), fee);\r\n        //NFT\r\n        nftHeroInst.safeTransferFrom(msg.sender, address(this), tokenId); \r\n        require(nftHeroInst.ownerOf(tokenId) == address(this), \"create failed: nft belongs this contract already\");\r\n\r\n        //\r\n        receipt[tokenId].tokenId = tokenId;\r\n        receipt[tokenId].owner = msg.sender;\r\n        receipt[tokenId].price = _price;\r\n\r\n        //tokenstoken\r\n        userTokens[msg.sender].push(tokenId);\r\n\r\n        emit onNftLaunch(msg.sender, tokenId, block.number);\r\n    }\r\n\r\n    /**  */\r\n    function reviewMyProducts() public view returns (uint256[] memory _tokens, uint256[] memory _prices) {\r\n        if (userTokens[msg.sender].length < 1) {\r\n            return (_tokens, _prices);\r\n        }\r\n\r\n        uint256 _tokenId;\r\n        _prices = new uint256[](userTokens[msg.sender].length);\r\n        for (uint i=0; i<userTokens[msg.sender].length; i++) {\r\n            _tokenId = userTokens[msg.sender][i];\r\n            _prices[i] = receipt[_tokenId].price;\r\n        }\r\n        return (userTokens[msg.sender], _prices);\r\n    }\r\n\r\n\r\n    /**  */\r\n    function withdrawProduct(uint256 tokenId) public onlyStaker(tokenId) {\r\n        //\r\n        delete receipt[tokenId];\r\n        //\r\n        nftHeroInst.safeTransferFrom(address(this), msg.sender, tokenId);\r\n        emit onNftWithdraw(msg.sender, tokenId, block.number);\r\n\r\n        //tokenstoken\r\n        userTokens[msg.sender] = _arrRemove(userTokens[msg.sender], tokenId);\r\n    }\r\n\r\n    /**  */\r\n    function buy(uint256 tokenId) public {\r\n        require(receipt[tokenId].price > 0, \"goods not exists\");\r\n\r\n        product memory item = receipt[tokenId];\r\n        require(item.owner != msg.sender, \"cannt by owned item\");\r\n        require(diamondInstance.allowance(msg.sender, address(this)) > item.price, \"not enough allowance\");\r\n\r\n        //\r\n        diamondInstance.transferFrom(msg.sender, item.owner, item.price);\r\n        //\r\n        nftHeroInst.safeTransferFrom(address(this), msg.sender, tokenId);\r\n\r\n        //\r\n        emit onBuy(msg.sender, receipt[tokenId].owner, tokenId, receipt[tokenId].price);\r\n    }\r\n\r\n    /**  */\r\n    function _arrRemove(uint256[] memory arr, uint256 one) private pure returns (uint256[] memory) {\r\n        require(arr.length >= 1, \"_arrRemove from []\");\r\n\r\n        uint256[] memory ret = new uint256[](arr.length - 1);\r\n\r\n        //0\r\n        if (arr.length > 1) {\r\n            uint k;\r\n            for (uint i; i<arr.length; i++) {\r\n                if (arr[i] != one) {\r\n                    ret[k] = arr[i];\r\n                    k++;\r\n                }\r\n            }\r\n        }\r\n        return ret;\r\n    } \r\n\r\n    /**\r\n     * Always returns `IERC721Receiver.onERC721Received.selector`.\r\n     */\r\n    function onERC721Received(\r\n        address,\r\n        address,\r\n        uint256,\r\n        bytes memory\r\n    ) public virtual override returns (bytes4) {\r\n        return this.onERC721Received.selector;\r\n    }\r\n\r\n    event onNftLaunch(address indexed staker, uint256 tokenId, uint256 blockNumber);\r\n    event onNftWithdraw(address indexed staker, uint256 tokenId, uint256 blockNumber);\r\n    event onBuy(address indexed comsumer, address indexed staker, uint256 tokenId, uint256 price);\r\n}",
  "sourcePath": "D:\\solidity\\sol-test1\\contracts\\Marketplace.sol",
  "compiler": {
    "name": "solc",
    "version": "0.8.7+commit.e28d00a7.Emscripten.clang"
  },
  "schemaVersion": "3.4.3",
  "updatedAt": "2021-11-29T09:10:10.801Z",
  "networkType": "ethereum",
  "devdoc": {
    "kind": "dev",
    "methods": {
      "owner()": {
        "details": "Returns the address of the current owner."
      },
      "renounceOwnership()": {
        "details": "Leaves the contract without owner. It will not be possible to call `onlyOwner` functions anymore. Can only be called by the current owner. NOTE: Renouncing ownership will leave the contract without an owner, thereby removing any functionality that is only available to the owner."
      },
      "transferOwnership(address)": {
        "details": "Transfers ownership of the contract to a new account (`newOwner`). Can only be called by the current owner."
      }
    },
    "version": 1
  },
  "userdoc": {
    "kind": "user",
    "methods": {
      "buy(uint256)": {
        "notice": " "
      },
      "createProduct(uint256,uint256)": {
        "notice": " "
      },
      "onERC721Received(address,address,uint256,bytes)": {
        "notice": "Always returns `IERC721Receiver.onERC721Received.selector`."
      },
      "reviewMyProducts()": {
        "notice": " "
      },
      "withdrawProduct(uint256)": {
        "notice": " "
      }
    },
    "notice": "nft ",
    "version": 1
  }
}