{
  "contractName": "Marketplace",
  "abi": [
    {
      "anonymous": false,
      "inputs": [
        {
          "indexed": true,
          "internalType": "address",
          "name": "previousOwner",
          "type": "address"
        },
        {
          "indexed": true,
          "internalType": "address",
          "name": "newOwner",
          "type": "address"
        }
      ],
      "name": "OwnershipTransferred",
      "type": "event"
    },
    {
      "anonymous": false,
      "inputs": [
        {
          "indexed": false,
          "internalType": "address",
          "name": "account",
          "type": "address"
        }
      ],
      "name": "Paused",
      "type": "event"
    },
    {
      "anonymous": false,
      "inputs": [
        {
          "indexed": false,
          "internalType": "address",
          "name": "account",
          "type": "address"
        }
      ],
      "name": "Unpaused",
      "type": "event"
    },
    {
      "anonymous": false,
      "inputs": [
        {
          "indexed": true,
          "internalType": "address",
          "name": "comsumer",
          "type": "address"
        },
        {
          "indexed": true,
          "internalType": "address",
          "name": "staker",
          "type": "address"
        },
        {
          "indexed": false,
          "internalType": "uint256",
          "name": "tokenId",
          "type": "uint256"
        },
        {
          "indexed": false,
          "internalType": "uint256",
          "name": "price",
          "type": "uint256"
        }
      ],
      "name": "onBuy",
      "type": "event"
    },
    {
      "anonymous": false,
      "inputs": [
        {
          "indexed": true,
          "internalType": "address",
          "name": "staker",
          "type": "address"
        },
        {
          "indexed": false,
          "internalType": "uint256",
          "name": "tokenId",
          "type": "uint256"
        },
        {
          "indexed": false,
          "internalType": "uint256",
          "name": "price",
          "type": "uint256"
        }
      ],
      "name": "onCreateProduct",
      "type": "event"
    },
    {
      "anonymous": false,
      "inputs": [
        {
          "indexed": true,
          "internalType": "address",
          "name": "staker",
          "type": "address"
        },
        {
          "indexed": false,
          "internalType": "uint256",
          "name": "tokenId",
          "type": "uint256"
        }
      ],
      "name": "onNftWithdraw",
      "type": "event"
    },
    {
      "inputs": [],
      "name": "owner",
      "outputs": [
        {
          "internalType": "address",
          "name": "",
          "type": "address"
        }
      ],
      "stateMutability": "view",
      "type": "function",
      "constant": true
    },
    {
      "inputs": [],
      "name": "paused",
      "outputs": [
        {
          "internalType": "bool",
          "name": "",
          "type": "bool"
        }
      ],
      "stateMutability": "view",
      "type": "function",
      "constant": true
    },
    {
      "inputs": [
        {
          "internalType": "uint256",
          "name": "",
          "type": "uint256"
        }
      ],
      "name": "receipt",
      "outputs": [
        {
          "internalType": "uint256",
          "name": "tokenId",
          "type": "uint256"
        },
        {
          "internalType": "uint256",
          "name": "price",
          "type": "uint256"
        },
        {
          "internalType": "address",
          "name": "owner",
          "type": "address"
        }
      ],
      "stateMutability": "view",
      "type": "function",
      "constant": true
    },
    {
      "inputs": [],
      "name": "renounceOwnership",
      "outputs": [],
      "stateMutability": "nonpayable",
      "type": "function"
    },
    {
      "inputs": [
        {
          "internalType": "address",
          "name": "newOwner",
          "type": "address"
        }
      ],
      "name": "transferOwnership",
      "outputs": [],
      "stateMutability": "nonpayable",
      "type": "function"
    },
    {
      "inputs": [
        {
          "internalType": "address",
          "name": "_diamond",
          "type": "address"
        },
        {
          "internalType": "address",
          "name": "_NftHero",
          "type": "address"
        }
      ],
      "name": "initialize",
      "outputs": [],
      "stateMutability": "nonpayable",
      "type": "function"
    },
    {
      "inputs": [
        {
          "internalType": "address",
          "name": "_NftHero",
          "type": "address"
        }
      ],
      "name": "setNftHeroInst",
      "outputs": [],
      "stateMutability": "nonpayable",
      "type": "function"
    },
    {
      "inputs": [
        {
          "internalType": "string",
          "name": "_name",
          "type": "string"
        },
        {
          "internalType": "uint256",
          "name": "_value",
          "type": "uint256"
        }
      ],
      "name": "setParam",
      "outputs": [],
      "stateMutability": "nonpayable",
      "type": "function"
    },
    {
      "inputs": [
        {
          "internalType": "string",
          "name": "_name",
          "type": "string"
        }
      ],
      "name": "getParam",
      "outputs": [
        {
          "internalType": "uint256",
          "name": "",
          "type": "uint256"
        }
      ],
      "stateMutability": "view",
      "type": "function",
      "constant": true
    },
    {
      "inputs": [
        {
          "internalType": "uint256",
          "name": "tokenId",
          "type": "uint256"
        },
        {
          "internalType": "uint256",
          "name": "_price",
          "type": "uint256"
        }
      ],
      "name": "createProduct",
      "outputs": [],
      "stateMutability": "nonpayable",
      "type": "function"
    },
    {
      "inputs": [],
      "name": "reviewMyProducts",
      "outputs": [
        {
          "internalType": "uint256[]",
          "name": "_tokens",
          "type": "uint256[]"
        },
        {
          "internalType": "uint256[]",
          "name": "_prices",
          "type": "uint256[]"
        }
      ],
      "stateMutability": "view",
      "type": "function",
      "constant": true
    },
    {
      "inputs": [
        {
          "internalType": "uint256",
          "name": "tokenId",
          "type": "uint256"
        }
      ],
      "name": "withdrawProduct",
      "outputs": [],
      "stateMutability": "nonpayable",
      "type": "function"
    },
    {
      "inputs": [
        {
          "internalType": "uint256",
          "name": "tokenId",
          "type": "uint256"
        }
      ],
      "name": "buy",
      "outputs": [],
      "stateMutability": "nonpayable",
      "type": "function"
    },
    {
      "inputs": [
        {
          "internalType": "address",
          "name": "",
          "type": "address"
        },
        {
          "internalType": "address",
          "name": "",
          "type": "address"
        },
        {
          "internalType": "uint256",
          "name": "",
          "type": "uint256"
        },
        {
          "internalType": "bytes",
          "name": "",
          "type": "bytes"
        }
      ],
      "name": "onERC721Received",
      "outputs": [
        {
          "internalType": "bytes4",
          "name": "",
          "type": "bytes4"
        }
      ],
      "stateMutability": "nonpayable",
      "type": "function"
    }
  ],
  "bytecode": "0x608060405234801561001057600080fd5b506135df806100206000396000f3fe608060405234801561001057600080fd5b50600436106100e95760003560e01c8063715018a61161008c578063ab34c52411610066578063ab34c52414610239578063b1e3457d14610255578063d96a094a14610271578063f2fde38b1461028d576100e9565b8063715018a6146101df5780638da5cb5b146101e9578063a2aa433714610207576100e9565b8063485cc955116100c8578063485cc95514610156578063571f25e7146101725780635c975abb146101915780635d4f71d4146101af576100e9565b8062259683146100ee578063150b7a021461010a57806344d9da681461013a575b600080fd5b6101086004803603810190610103919061237a565b6102a9565b005b610124600480360381019061011f9190612414565b610369565b6040516101319190612abf565b60405180910390f35b610154600480360381019061014f919061250d565b61037d565b005b610170600480360381019061016b91906123d4565b610420565b005b61017a6105d7565b604051610188929190612a6d565b60405180910390f35b61019961084a565b6040516101a69190612aa4565b60405180910390f35b6101c960048036038101906101c491906124c4565b610861565b6040516101d69190612d1a565b60405180910390f35b6101e7610889565b005b6101f1610911565b6040516101fe91906129f2565b60405180910390f35b610221600480360381019061021c9190612569565b61093b565b60405161023093929190612d5e565b60405180910390f35b610253600480360381019061024e9190612569565b610985565b005b61026f600480360381019061026a91906125c3565b610db6565b005b61028b60048036038101906102869190612569565b6115eb565b005b6102a760048036038101906102a2919061237a565b611a37565b005b6102b1611b2f565b73ffffffffffffffffffffffffffffffffffffffff166102cf610911565b73ffffffffffffffffffffffffffffffffffffffff1614610325576040517f08c379a000000000000000000000000000000000000000000000000000000000815260040161031c90612bfa565b60405180910390fd5b80609860006101000a81548173ffffffffffffffffffffffffffffffffffffffff021916908373ffffffffffffffffffffffffffffffffffffffff16021790555050565b600063150b7a0260e01b9050949350505050565b610385611b2f565b73ffffffffffffffffffffffffffffffffffffffff166103a3610911565b73ffffffffffffffffffffffffffffffffffffffff16146103f9576040517f08c379a00000000000000000000000000000000000000000000000000000000081526004016103f090612bfa565b60405180910390fd5b80609b8360405161040a91906129b1565b9081526020016040518091039020819055505050565b600060019054906101000a900460ff1680610446575060008054906101000a900460ff16155b610485576040517f08c379a000000000000000000000000000000000000000000000000000000000815260040161047c90612bda565b60405180910390fd5b60008060019054906101000a900460ff1615905080156104d5576001600060016101000a81548160ff02191690831515021790555060016000806101000a81548160ff0219169083151502179055505b6104dd611b37565b6104e5611c20565b82609760006101000a81548173ffffffffffffffffffffffffffffffffffffffff021916908373ffffffffffffffffffffffffffffffffffffffff16021790555081609860006101000a81548173ffffffffffffffffffffffffffffffffffffffff021916908373ffffffffffffffffffffffffffffffffffffffff1602179055506005609b604051610577906129c8565b90815260200160405180910390208190555066038d7ea4c68000609b60405161059f906129dd565b90815260200160405180910390208190555080156105d25760008060016101000a81548160ff0219169083151502179055505b505050565b6060806001609a60003373ffffffffffffffffffffffffffffffffffffffff1673ffffffffffffffffffffffffffffffffffffffff16815260200190815260200160002080549050101561062a57610846565b6000609a60003373ffffffffffffffffffffffffffffffffffffffff1673ffffffffffffffffffffffffffffffffffffffff1681526020019081526020016000208054905067ffffffffffffffff811115610688576106876130f8565b5b6040519080825280602002602001820160405280156106b65781602001602082028036833780820191505090505b50915060005b609a60003373ffffffffffffffffffffffffffffffffffffffff1673ffffffffffffffffffffffffffffffffffffffff168152602001908152602001600020805490508110156107ad57609a60003373ffffffffffffffffffffffffffffffffffffffff1673ffffffffffffffffffffffffffffffffffffffff1681526020019081526020016000208181548110610757576107566130c9565b5b90600052602060002001549150609960008381526020019081526020016000206001015483828151811061078e5761078d6130c9565b5b60200260200101818152505080806107a590613022565b9150506106bc565b50609a60003373ffffffffffffffffffffffffffffffffffffffff1673ffffffffffffffffffffffffffffffffffffffff168152602001908152602001600020828180548060200260200160405190810160405280929190818152602001828054801561083957602002820191906000526020600020905b815481526020019060010190808311610825575b5050505050915092509250505b9091565b6000606560009054906101000a900460ff16905090565b6000609b8260405161087391906129b1565b9081526020016040518091039020549050919050565b610891611b2f565b73ffffffffffffffffffffffffffffffffffffffff166108af610911565b73ffffffffffffffffffffffffffffffffffffffff1614610905576040517f08c379a00000000000000000000000000000000000000000000000000000000081526004016108fc90612bfa565b60405180910390fd5b61090f6000611d09565b565b6000603360009054906101000a900473ffffffffffffffffffffffffffffffffffffffff16905090565b60996020528060005260406000206000915090508060000154908060010154908060020160009054906101000a900473ffffffffffffffffffffffffffffffffffffffff16905083565b803073ffffffffffffffffffffffffffffffffffffffff16609860009054906101000a900473ffffffffffffffffffffffffffffffffffffffff1673ffffffffffffffffffffffffffffffffffffffff16636352211e836040518263ffffffff1660e01b81526004016109f89190612d1a565b60206040518083038186803b158015610a1057600080fd5b505afa158015610a24573d6000803e3d6000fd5b505050506040513d601f19601f82011682018060405250810190610a4891906123a7565b73ffffffffffffffffffffffffffffffffffffffff1614610a9e576040517f08c379a0000000000000000000000000000000000000000000000000000000008152600401610a9590612cda565b60405180910390fd5b600060996000838152602001908152602001600020600101541415610af8576040517f08c379a0000000000000000000000000000000000000000000000000000000008152600401610aef90612c7a565b60405180910390fd5b3373ffffffffffffffffffffffffffffffffffffffff166099600083815260200190815260200160002060020160009054906101000a900473ffffffffffffffffffffffffffffffffffffffff1673ffffffffffffffffffffffffffffffffffffffff1614610b9c576040517f08c379a0000000000000000000000000000000000000000000000000000000008152600401610b9390612b1a565b60405180910390fd5b6099600083815260200190815260200160002060008082016000905560018201600090556002820160006101000a81549073ffffffffffffffffffffffffffffffffffffffff02191690555050609860009054906101000a900473ffffffffffffffffffffffffffffffffffffffff1673ffffffffffffffffffffffffffffffffffffffff166342842e0e3033856040518463ffffffff1660e01b8152600401610c4893929190612a36565b600060405180830381600087803b158015610c6257600080fd5b505af1158015610c76573d6000803e3d6000fd5b505050503373ffffffffffffffffffffffffffffffffffffffff167fa50d0c3ca7183478efc822664b878c3d87c789b4d903e5d30a98fcd92e051e6783604051610cc09190612d1a565b60405180910390a2610d5f609a60003373ffffffffffffffffffffffffffffffffffffffff1673ffffffffffffffffffffffffffffffffffffffff168152602001908152602001600020805480602002602001604051908101604052809291908181526020018280548015610d5457602002820191906000526020600020905b815481526020019060010190808311610d40575b505050505083611dcf565b609a60003373ffffffffffffffffffffffffffffffffffffffff1673ffffffffffffffffffffffffffffffffffffffff1681526020019081526020016000209080519060200190610db19291906121c7565b505050565b3073ffffffffffffffffffffffffffffffffffffffff16609860009054906101000a900473ffffffffffffffffffffffffffffffffffffffff1673ffffffffffffffffffffffffffffffffffffffff16636352211e846040518263ffffffff1660e01b8152600401610e289190612d1a565b60206040518083038186803b158015610e4057600080fd5b505afa158015610e54573d6000803e3d6000fd5b505050506040513d601f19601f82011682018060405250810190610e7891906123a7565b73ffffffffffffffffffffffffffffffffffffffff161415610ecf576040517f08c379a0000000000000000000000000000000000000000000000000000000008152600401610ec690612b9a565b60405180910390fd5b6000609960008481526020019081526020016000206001015414610f28576040517f08c379a0000000000000000000000000000000000000000000000000000000008152600401610f1f90612cfa565b60405180910390fd5b609b604051610f36906129dd565b9081526020016040518091039020548111610f86576040517f08c379a0000000000000000000000000000000000000000000000000000000008152600401610f7d90612b3a565b60405180910390fd5b6000606482609b604051610f99906129c8565b908152602001604051809103902054610fb29190612ead565b610fbc9190612e7c565b905060008111611001576040517f08c379a0000000000000000000000000000000000000000000000000000000008152600401610ff890612b7a565b60405180910390fd5b818110611043576040517f08c379a000000000000000000000000000000000000000000000000000000000815260040161103a90612ada565b60405180910390fd5b80609760009054906101000a900473ffffffffffffffffffffffffffffffffffffffff1673ffffffffffffffffffffffffffffffffffffffff1663dd62ed3e33306040518363ffffffff1660e01b81526004016110a1929190612a0d565b60206040518083038186803b1580156110b957600080fd5b505afa1580156110cd573d6000803e3d6000fd5b505050506040513d601f19601f820116820180604052508101906110f19190612596565b1115611132576040517f08c379a000000000000000000000000000000000000000000000000000000000815260040161112990612c3a565b60405180910390fd5b3073ffffffffffffffffffffffffffffffffffffffff16609860009054906101000a900473ffffffffffffffffffffffffffffffffffffffff1673ffffffffffffffffffffffffffffffffffffffff1663081812fc856040518263ffffffff1660e01b81526004016111a49190612d1a565b60206040518083038186803b1580156111bc57600080fd5b505afa1580156111d0573d6000803e3d6000fd5b505050506040513d601f19601f820116820180604052508101906111f491906123a7565b73ffffffffffffffffffffffffffffffffffffffff161461124a576040517f08c379a000000000000000000000000000000000000000000000000000000000815260040161124190612bba565b60405180910390fd5b609760009054906101000a900473ffffffffffffffffffffffffffffffffffffffff1673ffffffffffffffffffffffffffffffffffffffff166323b872dd3330846040518463ffffffff1660e01b81526004016112a993929190612a36565b602060405180830381600087803b1580156112c357600080fd5b505af11580156112d7573d6000803e3d6000fd5b505050506040513d601f19601f820116820180604052508101906112fb9190612497565b50609860009054906101000a900473ffffffffffffffffffffffffffffffffffffffff1673ffffffffffffffffffffffffffffffffffffffff166342842e0e3330866040518463ffffffff1660e01b815260040161135b93929190612a36565b600060405180830381600087803b15801561137557600080fd5b505af1158015611389573d6000803e3d6000fd5b505050503073ffffffffffffffffffffffffffffffffffffffff16609860009054906101000a900473ffffffffffffffffffffffffffffffffffffffff1673ffffffffffffffffffffffffffffffffffffffff16636352211e856040518263ffffffff1660e01b81526004016113ff9190612d1a565b60206040518083038186803b15801561141757600080fd5b505afa15801561142b573d6000803e3d6000fd5b505050506040513d601f19601f8201168201806040525081019061144f91906123a7565b73ffffffffffffffffffffffffffffffffffffffff16146114a5576040517f08c379a000000000000000000000000000000000000000000000000000000000815260040161149c90612c1a565b60405180910390fd5b826099600085815260200190815260200160002060000181905550336099600085815260200190815260200160002060020160006101000a81548173ffffffffffffffffffffffffffffffffffffffff021916908373ffffffffffffffffffffffffffffffffffffffff160217905550816099600085815260200190815260200160002060010181905550609a60003373ffffffffffffffffffffffffffffffffffffffff1673ffffffffffffffffffffffffffffffffffffffff1681526020019081526020016000208390806001815401808255809150506001900390600052602060002001600090919091909150553373ffffffffffffffffffffffffffffffffffffffff167fbbde7b201ac7ce1d781d3ad69fd39d34db37a6ccfca7b0e972220aeffa07c16284846040516115de929190612d35565b60405180910390a2505050565b6000609960008381526020019081526020016000206001015411611644576040517f08c379a000000000000000000000000000000000000000000000000000000000815260040161163b90612c5a565b60405180910390fd5b60006099600083815260200190815260200160002060405180606001604052908160008201548152602001600182015481526020016002820160009054906101000a900473ffffffffffffffffffffffffffffffffffffffff1673ffffffffffffffffffffffffffffffffffffffff1673ffffffffffffffffffffffffffffffffffffffff168152505090503373ffffffffffffffffffffffffffffffffffffffff16816040015173ffffffffffffffffffffffffffffffffffffffff161415611743576040517f08c379a000000000000000000000000000000000000000000000000000000000815260040161173a90612cba565b60405180910390fd5b8060200151609760009054906101000a900473ffffffffffffffffffffffffffffffffffffffff1673ffffffffffffffffffffffffffffffffffffffff1663dd62ed3e33306040518363ffffffff1660e01b81526004016117a5929190612a0d565b60206040518083038186803b1580156117bd57600080fd5b505afa1580156117d1573d6000803e3d6000fd5b505050506040513d601f19601f820116820180604052508101906117f59190612596565b11611835576040517f08c379a000000000000000000000000000000000000000000000000000000000815260040161182c90612c9a565b60405180910390fd5b609760009054906101000a900473ffffffffffffffffffffffffffffffffffffffff1673ffffffffffffffffffffffffffffffffffffffff166323b872dd33836040015184602001516040518463ffffffff1660e01b815260040161189c93929190612a36565b602060405180830381600087803b1580156118b657600080fd5b505af11580156118ca573d6000803e3d6000fd5b505050506040513d601f19601f820116820180604052508101906118ee9190612497565b50609860009054906101000a900473ffffffffffffffffffffffffffffffffffffffff1673ffffffffffffffffffffffffffffffffffffffff166342842e0e3033856040518463ffffffff1660e01b815260040161194e93929190612a36565b600060405180830381600087803b15801561196857600080fd5b505af115801561197c573d6000803e3d6000fd5b505050506099600083815260200190815260200160002060020160009054906101000a900473ffffffffffffffffffffffffffffffffffffffff1673ffffffffffffffffffffffffffffffffffffffff163373ffffffffffffffffffffffffffffffffffffffff167f5af5e093a3712adcb8cb923a394b38561c5572c9beeb065aec555c87ef399340846099600087815260200190815260200160002060010154604051611a2b929190612d35565b60405180910390a35050565b611a3f611b2f565b73ffffffffffffffffffffffffffffffffffffffff16611a5d610911565b73ffffffffffffffffffffffffffffffffffffffff1614611ab3576040517f08c379a0000000000000000000000000000000000000000000000000000000008152600401611aaa90612bfa565b60405180910390fd5b600073ffffffffffffffffffffffffffffffffffffffff168173ffffffffffffffffffffffffffffffffffffffff161415611b23576040517f08c379a0000000000000000000000000000000000000000000000000000000008152600401611b1a90612afa565b60405180910390fd5b611b2c81611d09565b50565b600033905090565b600060019054906101000a900460ff1680611b5d575060008054906101000a900460ff16155b611b9c576040517f08c379a0000000000000000000000000000000000000000000000000000000008152600401611b9390612bda565b60405180910390fd5b60008060019054906101000a900460ff161590508015611bec576001600060016101000a81548160ff02191690831515021790555060016000806101000a81548160ff0219169083151502179055505b611bf4611f11565b611bfc611fea565b8015611c1d5760008060016101000a81548160ff0219169083151502179055505b50565b600060019054906101000a900460ff1680611c46575060008054906101000a900460ff16155b611c85576040517f08c379a0000000000000000000000000000000000000000000000000000000008152600401611c7c90612bda565b60405180910390fd5b60008060019054906101000a900460ff161590508015611cd5576001600060016101000a81548160ff02191690831515021790555060016000806101000a81548160ff0219169083151502179055505b611cdd611f11565b611ce56120d3565b8015611d065760008060016101000a81548160ff0219169083151502179055505b50565b6000603360009054906101000a900473ffffffffffffffffffffffffffffffffffffffff16905081603360006101000a81548173ffffffffffffffffffffffffffffffffffffffff021916908373ffffffffffffffffffffffffffffffffffffffff1602179055508173ffffffffffffffffffffffffffffffffffffffff168173ffffffffffffffffffffffffffffffffffffffff167f8be0079c531659141344cd1fd0a4f28419497f9722a3daafe3b4186f6b6457e060405160405180910390a35050565b6060600183511015611e16576040517f08c379a0000000000000000000000000000000000000000000000000000000008152600401611e0d90612b5a565b60405180910390fd5b600060018451611e269190612f07565b67ffffffffffffffff811115611e3f57611e3e6130f8565b5b604051908082528060200260200182016040528015611e6d5781602001602082028036833780820191505090505b509050600184511115611f07576000805b8551811015611f045784868281518110611e9b57611e9a6130c9565b5b602002602001015114611ef157858181518110611ebb57611eba6130c9565b5b6020026020010151838381518110611ed657611ed56130c9565b5b6020026020010181815250508180611eed90613022565b9250505b8080611efc90613022565b915050611e7e565b50505b8091505092915050565b600060019054906101000a900460ff1680611f37575060008054906101000a900460ff16155b611f76576040517f08c379a0000000000000000000000000000000000000000000000000000000008152600401611f6d90612bda565b60405180910390fd5b60008060019054906101000a900460ff161590508015611fc6576001600060016101000a81548160ff02191690831515021790555060016000806101000a81548160ff0219169083151502179055505b8015611fe75760008060016101000a81548160ff0219169083151502179055505b50565b600060019054906101000a900460ff1680612010575060008054906101000a900460ff16155b61204f576040517f08c379a000000000000000000000000000000000000000000000000000000000815260040161204690612bda565b60405180910390fd5b60008060019054906101000a900460ff16159050801561209f576001600060016101000a81548160ff02191690831515021790555060016000806101000a81548160ff0219169083151502179055505b6120af6120aa611b2f565b611d09565b80156120d05760008060016101000a81548160ff0219169083151502179055505b50565b600060019054906101000a900460ff16806120f9575060008054906101000a900460ff16155b612138576040517f08c379a000000000000000000000000000000000000000000000000000000000815260040161212f90612bda565b60405180910390fd5b60008060019054906101000a900460ff161590508015612188576001600060016101000a81548160ff02191690831515021790555060016000806101000a81548160ff0219169083151502179055505b6000606560006101000a81548160ff02191690831515021790555080156121c45760008060016101000a81548160ff0219169083151502179055505b50565b828054828255906000526020600020908101928215612203579160200282015b828111156122025782518255916020019190600101906121e7565b5b5090506122109190612214565b5090565b5b8082111561222d576000816000905550600101612215565b5090565b600061224461223f84612dba565b612d95565b9050828152602081018484840111156122605761225f61312c565b5b61226b848285612faf565b509392505050565b600061228661228184612deb565b612d95565b9050828152602081018484840111156122a2576122a161312c565b5b6122ad848285612faf565b509392505050565b6000813590506122c481613564565b92915050565b6000815190506122d981613564565b92915050565b6000815190506122ee8161357b565b92915050565b600082601f83011261230957612308613127565b5b8135612319848260208601612231565b91505092915050565b600082601f83011261233757612336613127565b5b8135612347848260208601612273565b91505092915050565b60008135905061235f81613592565b92915050565b60008151905061237481613592565b92915050565b6000602082840312156123905761238f613136565b5b600061239e848285016122b5565b91505092915050565b6000602082840312156123bd576123bc613136565b5b60006123cb848285016122ca565b91505092915050565b600080604083850312156123eb576123ea613136565b5b60006123f9858286016122b5565b925050602061240a858286016122b5565b9150509250929050565b6000806000806080858703121561242e5761242d613136565b5b600061243c878288016122b5565b945050602061244d878288016122b5565b935050604061245e87828801612350565b925050606085013567ffffffffffffffff81111561247f5761247e613131565b5b61248b878288016122f4565b91505092959194509250565b6000602082840312156124ad576124ac613136565b5b60006124bb848285016122df565b91505092915050565b6000602082840312156124da576124d9613136565b5b600082013567ffffffffffffffff8111156124f8576124f7613131565b5b61250484828501612322565b91505092915050565b6000806040838503121561252457612523613136565b5b600083013567ffffffffffffffff81111561254257612541613131565b5b61254e85828601612322565b925050602061255f85828601612350565b9150509250929050565b60006020828403121561257f5761257e613136565b5b600061258d84828501612350565b91505092915050565b6000602082840312156125ac576125ab613136565b5b60006125ba84828501612365565b91505092915050565b600080604083850312156125da576125d9613136565b5b60006125e885828601612350565b92505060206125f985828601612350565b9150509250929050565b600061260f8383612993565b60208301905092915050565b61262481612f3b565b82525050565b600061263582612e2c565b61263f8185612e4f565b935061264a83612e1c565b8060005b8381101561267b5781516126628882612603565b975061266d83612e42565b92505060018101905061264e565b5085935050505092915050565b61269181612f4d565b82525050565b6126a081612f59565b82525050565b60006126b182612e37565b6126bb8185612e71565b93506126cb818560208601612fbe565b80840191505092915050565b60006126e4601b83612e60565b91506126ef8261314c565b602082019050919050565b6000612707602683612e60565b915061271282613175565b604082019050919050565b600061272a602383612e60565b9150612735826131c4565b604082019050919050565b600061274d601483612e60565b915061275882613213565b602082019050919050565b6000612770601283612e60565b915061277b8261323c565b602082019050919050565b6000612793600c83612e60565b915061279e82613265565b602082019050919050565b60006127b6601f83612e60565b91506127c18261328e565b602082019050919050565b60006127d9601f83612e60565b91506127e4826132b7565b602082019050919050565b60006127fc602e83612e60565b9150612807826132e0565b604082019050919050565b600061281f602083612e60565b915061282a8261332f565b602082019050919050565b6000612842603083612e60565b915061284d82613358565b604082019050919050565b6000612865601483612e60565b9150612870826133a7565b602082019050919050565b6000612888601083612e60565b9150612893826133d0565b602082019050919050565b60006128ab601f83612e60565b91506128b6826133f9565b602082019050919050565b60006128ce601483612e60565b91506128d982613422565b602082019050919050565b60006128f1601383612e60565b91506128fc8261344b565b602082019050919050565b6000612914600b83612e71565b915061291f82613474565b600b82019050919050565b6000612937602d83612e60565b91506129428261349d565b604082019050919050565b600061295a600983612e71565b9150612965826134ec565b600982019050919050565b600061297d602783612e60565b915061298882613515565b604082019050919050565b61299c81612fa5565b82525050565b6129ab81612fa5565b82525050565b60006129bd82846126a6565b915081905092915050565b60006129d382612907565b9150819050919050565b60006129e88261294d565b9150819050919050565b6000602082019050612a07600083018461261b565b92915050565b6000604082019050612a22600083018561261b565b612a2f602083018461261b565b9392505050565b6000606082019050612a4b600083018661261b565b612a58602083018561261b565b612a6560408301846129a2565b949350505050565b60006040820190508181036000830152612a87818561262a565b90508181036020830152612a9b818461262a565b90509392505050565b6000602082019050612ab96000830184612688565b92915050565b6000602082019050612ad46000830184612697565b92915050565b60006020820190508181036000830152612af3816126d7565b9050919050565b60006020820190508181036000830152612b13816126fa565b9050919050565b60006020820190508181036000830152612b338161271d565b9050919050565b60006020820190508181036000830152612b5381612740565b9050919050565b60006020820190508181036000830152612b7381612763565b9050919050565b60006020820190508181036000830152612b9381612786565b9050919050565b60006020820190508181036000830152612bb3816127a9565b9050919050565b60006020820190508181036000830152612bd3816127cc565b9050919050565b60006020820190508181036000830152612bf3816127ef565b9050919050565b60006020820190508181036000830152612c1381612812565b9050919050565b60006020820190508181036000830152612c3381612835565b9050919050565b60006020820190508181036000830152612c5381612858565b9050919050565b60006020820190508181036000830152612c738161287b565b9050919050565b60006020820190508181036000830152612c938161289e565b9050919050565b60006020820190508181036000830152612cb3816128c1565b9050919050565b60006020820190508181036000830152612cd3816128e4565b9050919050565b60006020820190508181036000830152612cf38161292a565b9050919050565b60006020820190508181036000830152612d1381612970565b9050919050565b6000602082019050612d2f60008301846129a2565b92915050565b6000604082019050612d4a60008301856129a2565b612d5760208301846129a2565b9392505050565b6000606082019050612d7360008301866129a2565b612d8060208301856129a2565b612d8d604083018461261b565b949350505050565b6000612d9f612db0565b9050612dab8282612ff1565b919050565b6000604051905090565b600067ffffffffffffffff821115612dd557612dd46130f8565b5b612dde8261313b565b9050602081019050919050565b600067ffffffffffffffff821115612e0657612e056130f8565b5b612e0f8261313b565b9050602081019050919050565b6000819050602082019050919050565b600081519050919050565b600081519050919050565b6000602082019050919050565b600082825260208201905092915050565b600082825260208201905092915050565b600081905092915050565b6000612e8782612fa5565b9150612e9283612fa5565b925082612ea257612ea161309a565b5b828204905092915050565b6000612eb882612fa5565b9150612ec383612fa5565b9250817fffffffffffffffffffffffffffffffffffffffffffffffffffffffffffffffff0483118215151615612efc57612efb61306b565b5b828202905092915050565b6000612f1282612fa5565b9150612f1d83612fa5565b925082821015612f3057612f2f61306b565b5b828203905092915050565b6000612f4682612f85565b9050919050565b60008115159050919050565b60007fffffffff0000000000000000000000000000000000000000000000000000000082169050919050565b600073ffffffffffffffffffffffffffffffffffffffff82169050919050565b6000819050919050565b82818337600083830152505050565b60005b83811015612fdc578082015181840152602081019050612fc1565b83811115612feb576000848401525b50505050565b612ffa8261313b565b810181811067ffffffffffffffff82111715613019576130186130f8565b5b80604052505050565b600061302d82612fa5565b91507fffffffffffffffffffffffffffffffffffffffffffffffffffffffffffffffff8214156130605761305f61306b565b5b600182019050919050565b7f4e487b7100000000000000000000000000000000000000000000000000000000600052601160045260246000fd5b7f4e487b7100000000000000000000000000000000000000000000000000000000600052601260045260246000fd5b7f4e487b7100000000000000000000000000000000000000000000000000000000600052603260045260246000fd5b7f4e487b7100000000000000000000000000000000000000000000000000000000600052604160045260246000fd5b600080fd5b600080fd5b600080fd5b600080fd5b6000601f19601f8301169050919050565b7f666565206d757374206265206c657373207468616e2070726963650000000000600082015250565b7f4f776e61626c653a206e6577206f776e657220697320746865207a65726f206160008201527f6464726573730000000000000000000000000000000000000000000000000000602082015250565b7f6f6e6c795374616b65723a2043616c6c6572206973206e6f74204e4654206f7760008201527f6e65720000000000000000000000000000000000000000000000000000000000602082015250565b7f707269636520302e303031206174206c65617374000000000000000000000000600082015250565b7f5f61727252656d6f76652066726f6d205b5d0000000000000000000000000000600082015250565b7f666565206d757374203e20300000000000000000000000000000000000000000600082015250565b7f637265617465206661696c65643a206c61756e6368656420616c726561647900600082015250565b7f6e66742073686f756c6420617070726f76656420746f20636f6e747261637400600082015250565b7f496e697469616c697a61626c653a20636f6e747261637420697320616c72656160008201527f647920696e697469616c697a6564000000000000000000000000000000000000602082015250565b7f4f776e61626c653a2063616c6c6572206973206e6f7420746865206f776e6572600082015250565b7f637265617465206661696c65643a206e66742062656c6f6e677320746869732060008201527f636f6e747261637420616c726561647900000000000000000000000000000000602082015250565b7f616c6c6f77616e6365206e6f7420656e6f756768000000000000000000000000600082015250565b7f676f6f6473206e6f742065786973747300000000000000000000000000000000600082015250565b7f6f6e6c795374616b65723a20546f6b656e206973206e6f74206c61756e636800600082015250565b7f6e6f7420656e6f75676820616c6c6f77616e6365000000000000000000000000600082015250565b7f63616e6e74206279206f776e6564206974656d00000000000000000000000000600082015250565b7f6665655f70657263656e74000000000000000000000000000000000000000000600082015250565b7f6f6e6c795374616b65723a20436f6e7472616374206973206e6f74206f776e6560008201527f72206f662074686973204e465400000000000000000000000000000000000000602082015250565b7f6d696e5f70726963650000000000000000000000000000000000000000000000600082015250565b7f637265617465206661696c65643a20746f6b656e6964206c61756e636865642060008201527f616c726561647900000000000000000000000000000000000000000000000000602082015250565b61356d81612f3b565b811461357857600080fd5b50565b61358481612f4d565b811461358f57600080fd5b50565b61359b81612fa5565b81146135a657600080fd5b5056fea26469706673582212204488e70ae6eb0f4e0a3a12674f48c19de26026bc224c8c7dc5acabdcdd16e03264736f6c63430008070033",
  "immutableReferences": {},
  "source": "// SPDX-License-Identifier: MIT\r\n// https://github.com/crazyrabbitLTC/NFT-staking-boiler/blob/main/contracts/NftStake.sol\r\npragma solidity ^0.8.0;\r\n\r\nimport \"@openzeppelin/contracts-upgradeable/access/OwnableUpgradeable.sol\";\r\nimport \"@openzeppelin/contracts-upgradeable/utils/math/SafeMathUpgradeable.sol\";\r\nimport \"@openzeppelin/contracts-upgradeable/token/ERC721/ERC721Upgradeable.sol\";\r\nimport \"@openzeppelin/contracts-upgradeable/token/ERC721/IERC721ReceiverUpgradeable.sol\";\r\nimport \"@openzeppelin/contracts-upgradeable/security/PausableUpgradeable.sol\";\r\n//import \"@openzeppelin/contracts-upgradeable/token/ERC20/IERC20Upgradeable.sol\";\r\nimport \"./NftHero.sol\";\r\nimport \"./Diamond.sol\";\r\n\r\n/** nft */\r\ncontract Marketplace is IERC721ReceiverUpgradeable,OwnableUpgradeable,PausableUpgradeable {\r\n    using SafeMathUpgradeable for uint256;\r\n\r\n    Diamond diamondInstance;\r\n    NftHero nftHeroInst;\r\n\r\n    //\r\n    struct product {\r\n        uint256 tokenId;\r\n        uint256 price;\r\n        address owner;\r\n    }\r\n    mapping(uint256 => product) public receipt;\r\n    //tokens\r\n    mapping(address => uint256[]) userTokens;\r\n    //\r\n    //launch_rate 0\r\n    mapping(string => uint256) params;\r\n\r\n    /** token */\r\n    modifier onlyStaker(uint256 tokenId) {\r\n        //token\r\n        require(nftHeroInst.ownerOf(tokenId) == address(this), \"onlyStaker: Contract is not owner of this NFT\");\r\n        //\r\n        require(receipt[tokenId].price != 0, \"onlyStaker: Token is not launch\");\r\n        //\r\n        require(receipt[tokenId].owner == msg.sender, \"onlyStaker: Caller is not NFT owner\");\r\n        _;\r\n    }\r\n\r\n    function initialize(address _diamond, address _NftHero) public initializer {\r\n        __Ownable_init();\r\n        __Pausable_init();\r\n        \r\n        diamondInstance = Diamond(_diamond);\r\n        nftHeroInst = NftHero(_NftHero);\r\n        params[\"fee_percent\"] = 5; // 5%\r\n        params[\"min_price\"] = uint256(0.001 * 1e18); //\r\n    }\r\n\r\n    function setNftHeroInst(address _NftHero) public onlyOwner {\r\n        nftHeroInst = NftHero(_NftHero);\r\n    }\r\n\r\n    function setParam(string memory _name, uint256 _value) public onlyOwner {\r\n        params[_name] = _value;\r\n    }\r\n\r\n    function getParam(string memory _name) public view returns (uint256) {\r\n        return params[_name];\r\n    }\r\n\r\n    /**  */\r\n    function createProduct(uint256 tokenId, uint256 _price) public {\r\n        //token\r\n        require(nftHeroInst.ownerOf(tokenId) != address(this), \"create failed: launched already\");\r\n        //\r\n        require(receipt[tokenId].price == 0, \"create failed: tokenid launched already\");\r\n        //\r\n        require(_price > params[\"min_price\"], \"price 0.001 at least\");\r\n\r\n        //\r\n        uint256 fee = uint256(params[\"fee_percent\"] * _price / 100);\r\n        //0\r\n        require(fee > 0, \"fee must > 0\");\r\n        //\r\n        require(fee < _price, \"fee must be less than price\");\r\n        //\r\n        require(diamondInstance.allowance(msg.sender, address(this))  <= fee, \"allowance not enough\");\r\n        require(nftHeroInst.getApproved(tokenId) == address(this), \"nft should approved to contract\");\r\n        \r\n        diamondInstance.transferFrom(msg.sender, address(this), fee);\r\n        //NFT\r\n        nftHeroInst.safeTransferFrom(msg.sender, address(this), tokenId); \r\n        require(nftHeroInst.ownerOf(tokenId) == address(this), \"create failed: nft belongs this contract already\");\r\n\r\n        //\r\n        receipt[tokenId].tokenId = tokenId;\r\n        receipt[tokenId].owner = msg.sender;\r\n        receipt[tokenId].price = _price;\r\n\r\n        //tokenstoken\r\n        userTokens[msg.sender].push(tokenId);\r\n\r\n        emit onCreateProduct(msg.sender, tokenId, _price);\r\n    }\r\n\r\n    /**  */\r\n    function reviewMyProducts() public view returns (uint256[] memory _tokens, uint256[] memory _prices) {\r\n        if (userTokens[msg.sender].length < 1) {\r\n            return (_tokens, _prices);\r\n        }\r\n\r\n        uint256 _tokenId;\r\n        _prices = new uint256[](userTokens[msg.sender].length);\r\n        for (uint i=0; i<userTokens[msg.sender].length; i++) {\r\n            _tokenId = userTokens[msg.sender][i];\r\n            _prices[i] = receipt[_tokenId].price;\r\n        }\r\n        return (userTokens[msg.sender], _prices);\r\n    }\r\n\r\n\r\n    /**  */\r\n    function withdrawProduct(uint256 tokenId) public onlyStaker(tokenId) {\r\n        //\r\n        delete receipt[tokenId];\r\n        //\r\n        nftHeroInst.safeTransferFrom(address(this), msg.sender, tokenId);\r\n        emit onNftWithdraw(msg.sender, tokenId);\r\n\r\n        //tokenstoken\r\n        userTokens[msg.sender] = _arrRemove(userTokens[msg.sender], tokenId);\r\n    }\r\n\r\n    /**  */\r\n    function buy(uint256 tokenId) public {\r\n        require(receipt[tokenId].price > 0, \"goods not exists\");\r\n\r\n        product memory item = receipt[tokenId];\r\n        require(item.owner != msg.sender, \"cannt by owned item\");\r\n        require(diamondInstance.allowance(msg.sender, address(this)) > item.price, \"not enough allowance\");\r\n\r\n        //\r\n        diamondInstance.transferFrom(msg.sender, item.owner, item.price);\r\n        //\r\n        nftHeroInst.safeTransferFrom(address(this), msg.sender, tokenId);\r\n\r\n        //\r\n        emit onBuy(msg.sender, receipt[tokenId].owner, tokenId, receipt[tokenId].price);\r\n    }\r\n\r\n    /**  */\r\n    function _arrRemove(uint256[] memory arr, uint256 one) private pure returns (uint256[] memory) {\r\n        require(arr.length >= 1, \"_arrRemove from []\");\r\n\r\n        uint256[] memory ret = new uint256[](arr.length - 1);\r\n\r\n        //0\r\n        if (arr.length > 1) {\r\n            uint k;\r\n            for (uint i; i<arr.length; i++) {\r\n                if (arr[i] != one) {\r\n                    ret[k] = arr[i];\r\n                    k++;\r\n                }\r\n            }\r\n        }\r\n        return ret;\r\n    } \r\n\r\n    /**\r\n     * Always returns `IERC721Receiver.onERC721Received.selector`.\r\n     */\r\n    function onERC721Received(\r\n        address,\r\n        address,\r\n        uint256,\r\n        bytes memory\r\n    ) public virtual override returns (bytes4) {\r\n        return this.onERC721Received.selector;\r\n    }\r\n\r\n    event onCreateProduct(address indexed staker, uint256 tokenId, uint256 price);\r\n    event onNftWithdraw(address indexed staker, uint256 tokenId);\r\n    event onBuy(address indexed comsumer, address indexed staker, uint256 tokenId, uint256 price);\r\n}",
  "sourcePath": "D:\\solidity\\sol-test1\\contracts\\Marketplace.sol",
  "compiler": {
    "name": "solc",
    "version": "0.8.7+commit.e28d00a7.Emscripten.clang"
  },
  "schemaVersion": "3.4.3",
  "updatedAt": "2021-12-17T10:14:42.118Z",
  "networkType": "ethereum",
  "devdoc": {
    "kind": "dev",
    "methods": {
      "owner()": {
        "details": "Returns the address of the current owner."
      },
      "paused()": {
        "details": "Returns true if the contract is paused, and false otherwise."
      },
      "renounceOwnership()": {
        "details": "Leaves the contract without owner. It will not be possible to call `onlyOwner` functions anymore. Can only be called by the current owner. NOTE: Renouncing ownership will leave the contract without an owner, thereby removing any functionality that is only available to the owner."
      },
      "transferOwnership(address)": {
        "details": "Transfers ownership of the contract to a new account (`newOwner`). Can only be called by the current owner."
      }
    },
    "version": 1
  },
  "userdoc": {
    "kind": "user",
    "methods": {
      "buy(uint256)": {
        "notice": " "
      },
      "createProduct(uint256,uint256)": {
        "notice": " "
      },
      "onERC721Received(address,address,uint256,bytes)": {
        "notice": "Always returns `IERC721Receiver.onERC721Received.selector`."
      },
      "reviewMyProducts()": {
        "notice": " "
      },
      "withdrawProduct(uint256)": {
        "notice": " "
      }
    },
    "notice": "nft ",
    "version": 1
  }
}