{
  "contractName": "NftHero",
  "abi": [
    {
      "anonymous": false,
      "inputs": [
        {
          "indexed": true,
          "internalType": "address",
          "name": "owner",
          "type": "address"
        },
        {
          "indexed": true,
          "internalType": "address",
          "name": "approved",
          "type": "address"
        },
        {
          "indexed": true,
          "internalType": "uint256",
          "name": "tokenId",
          "type": "uint256"
        }
      ],
      "name": "Approval",
      "type": "event"
    },
    {
      "anonymous": false,
      "inputs": [
        {
          "indexed": true,
          "internalType": "address",
          "name": "owner",
          "type": "address"
        },
        {
          "indexed": true,
          "internalType": "address",
          "name": "operator",
          "type": "address"
        },
        {
          "indexed": false,
          "internalType": "bool",
          "name": "approved",
          "type": "bool"
        }
      ],
      "name": "ApprovalForAll",
      "type": "event"
    },
    {
      "anonymous": false,
      "inputs": [
        {
          "indexed": true,
          "internalType": "address",
          "name": "previousOwner",
          "type": "address"
        },
        {
          "indexed": true,
          "internalType": "address",
          "name": "newOwner",
          "type": "address"
        }
      ],
      "name": "OwnershipTransferred",
      "type": "event"
    },
    {
      "anonymous": false,
      "inputs": [
        {
          "indexed": true,
          "internalType": "address",
          "name": "from",
          "type": "address"
        },
        {
          "indexed": true,
          "internalType": "address",
          "name": "to",
          "type": "address"
        },
        {
          "indexed": true,
          "internalType": "uint256",
          "name": "tokenId",
          "type": "uint256"
        }
      ],
      "name": "Transfer",
      "type": "event"
    },
    {
      "anonymous": false,
      "inputs": [
        {
          "indexed": false,
          "internalType": "uint256",
          "name": "token",
          "type": "uint256"
        },
        {
          "indexed": false,
          "internalType": "uint256",
          "name": "hero_id",
          "type": "uint256"
        },
        {
          "indexed": false,
          "internalType": "uint256",
          "name": "li",
          "type": "uint256"
        },
        {
          "indexed": false,
          "internalType": "uint256",
          "name": "min",
          "type": "uint256"
        },
        {
          "indexed": false,
          "internalType": "uint256",
          "name": "zhi",
          "type": "uint256"
        }
      ],
      "name": "createCardEvent",
      "type": "event"
    },
    {
      "anonymous": false,
      "inputs": [
        {
          "indexed": false,
          "internalType": "address",
          "name": "from",
          "type": "address"
        },
        {
          "indexed": false,
          "internalType": "address",
          "name": "to",
          "type": "address"
        },
        {
          "indexed": false,
          "internalType": "uint256",
          "name": "tokenId",
          "type": "uint256"
        }
      ],
      "name": "transferCardEvent",
      "type": "event"
    },
    {
      "inputs": [
        {
          "internalType": "address",
          "name": "to",
          "type": "address"
        },
        {
          "internalType": "uint256",
          "name": "tokenId",
          "type": "uint256"
        }
      ],
      "name": "approve",
      "outputs": [],
      "stateMutability": "nonpayable",
      "type": "function"
    },
    {
      "inputs": [
        {
          "internalType": "address",
          "name": "owner",
          "type": "address"
        }
      ],
      "name": "balanceOf",
      "outputs": [
        {
          "internalType": "uint256",
          "name": "",
          "type": "uint256"
        }
      ],
      "stateMutability": "view",
      "type": "function",
      "constant": true
    },
    {
      "inputs": [
        {
          "internalType": "uint256",
          "name": "",
          "type": "uint256"
        }
      ],
      "name": "cardDB",
      "outputs": [
        {
          "internalType": "uint256",
          "name": "id",
          "type": "uint256"
        },
        {
          "internalType": "uint256",
          "name": "li",
          "type": "uint256"
        },
        {
          "internalType": "uint256",
          "name": "min",
          "type": "uint256"
        },
        {
          "internalType": "uint256",
          "name": "zhi",
          "type": "uint256"
        },
        {
          "internalType": "uint256",
          "name": "lv",
          "type": "uint256"
        }
      ],
      "stateMutability": "view",
      "type": "function",
      "constant": true
    },
    {
      "inputs": [
        {
          "internalType": "uint256",
          "name": "tokenId",
          "type": "uint256"
        }
      ],
      "name": "getApproved",
      "outputs": [
        {
          "internalType": "address",
          "name": "",
          "type": "address"
        }
      ],
      "stateMutability": "view",
      "type": "function",
      "constant": true
    },
    {
      "inputs": [
        {
          "internalType": "address",
          "name": "owner",
          "type": "address"
        },
        {
          "internalType": "address",
          "name": "operator",
          "type": "address"
        }
      ],
      "name": "isApprovedForAll",
      "outputs": [
        {
          "internalType": "bool",
          "name": "",
          "type": "bool"
        }
      ],
      "stateMutability": "view",
      "type": "function",
      "constant": true
    },
    {
      "inputs": [],
      "name": "name",
      "outputs": [
        {
          "internalType": "string",
          "name": "",
          "type": "string"
        }
      ],
      "stateMutability": "view",
      "type": "function",
      "constant": true
    },
    {
      "inputs": [],
      "name": "owner",
      "outputs": [
        {
          "internalType": "address",
          "name": "",
          "type": "address"
        }
      ],
      "stateMutability": "view",
      "type": "function",
      "constant": true
    },
    {
      "inputs": [
        {
          "internalType": "uint256",
          "name": "tokenId",
          "type": "uint256"
        }
      ],
      "name": "ownerOf",
      "outputs": [
        {
          "internalType": "address",
          "name": "",
          "type": "address"
        }
      ],
      "stateMutability": "view",
      "type": "function",
      "constant": true
    },
    {
      "inputs": [],
      "name": "renounceOwnership",
      "outputs": [],
      "stateMutability": "nonpayable",
      "type": "function"
    },
    {
      "inputs": [
        {
          "internalType": "address",
          "name": "from",
          "type": "address"
        },
        {
          "internalType": "address",
          "name": "to",
          "type": "address"
        },
        {
          "internalType": "uint256",
          "name": "tokenId",
          "type": "uint256"
        }
      ],
      "name": "safeTransferFrom",
      "outputs": [],
      "stateMutability": "nonpayable",
      "type": "function"
    },
    {
      "inputs": [
        {
          "internalType": "address",
          "name": "from",
          "type": "address"
        },
        {
          "internalType": "address",
          "name": "to",
          "type": "address"
        },
        {
          "internalType": "uint256",
          "name": "tokenId",
          "type": "uint256"
        },
        {
          "internalType": "bytes",
          "name": "_data",
          "type": "bytes"
        }
      ],
      "name": "safeTransferFrom",
      "outputs": [],
      "stateMutability": "nonpayable",
      "type": "function"
    },
    {
      "inputs": [
        {
          "internalType": "address",
          "name": "operator",
          "type": "address"
        },
        {
          "internalType": "bool",
          "name": "approved",
          "type": "bool"
        }
      ],
      "name": "setApprovalForAll",
      "outputs": [],
      "stateMutability": "nonpayable",
      "type": "function"
    },
    {
      "inputs": [
        {
          "internalType": "bytes4",
          "name": "interfaceId",
          "type": "bytes4"
        }
      ],
      "name": "supportsInterface",
      "outputs": [
        {
          "internalType": "bool",
          "name": "",
          "type": "bool"
        }
      ],
      "stateMutability": "view",
      "type": "function",
      "constant": true
    },
    {
      "inputs": [],
      "name": "symbol",
      "outputs": [
        {
          "internalType": "string",
          "name": "",
          "type": "string"
        }
      ],
      "stateMutability": "view",
      "type": "function",
      "constant": true
    },
    {
      "inputs": [
        {
          "internalType": "uint256",
          "name": "tokenId",
          "type": "uint256"
        }
      ],
      "name": "tokenURI",
      "outputs": [
        {
          "internalType": "string",
          "name": "",
          "type": "string"
        }
      ],
      "stateMutability": "view",
      "type": "function",
      "constant": true
    },
    {
      "inputs": [
        {
          "internalType": "address",
          "name": "from",
          "type": "address"
        },
        {
          "internalType": "address",
          "name": "to",
          "type": "address"
        },
        {
          "internalType": "uint256",
          "name": "tokenId",
          "type": "uint256"
        }
      ],
      "name": "transferFrom",
      "outputs": [],
      "stateMutability": "nonpayable",
      "type": "function"
    },
    {
      "inputs": [
        {
          "internalType": "address",
          "name": "newOwner",
          "type": "address"
        }
      ],
      "name": "transferOwnership",
      "outputs": [],
      "stateMutability": "nonpayable",
      "type": "function"
    },
    {
      "inputs": [
        {
          "internalType": "contract Diamond",
          "name": "_diamondInstance",
          "type": "address"
        },
        {
          "internalType": "contract HeroPool",
          "name": "_heroPoolInstance",
          "type": "address"
        }
      ],
      "name": "initialize",
      "outputs": [],
      "stateMutability": "nonpayable",
      "type": "function"
    },
    {
      "inputs": [
        {
          "internalType": "contract HeroPool",
          "name": "_heroPoolInstance",
          "type": "address"
        }
      ],
      "name": "setHeroPool",
      "outputs": [],
      "stateMutability": "nonpayable",
      "type": "function"
    },
    {
      "inputs": [],
      "name": "createCard",
      "outputs": [],
      "stateMutability": "payable",
      "type": "function",
      "payable": true
    },
    {
      "inputs": [
        {
          "internalType": "address",
          "name": "_addr",
          "type": "address"
        }
      ],
      "name": "getMyCards",
      "outputs": [
        {
          "internalType": "uint256[]",
          "name": "",
          "type": "uint256[]"
        },
        {
          "internalType": "uint256[]",
          "name": "",
          "type": "uint256[]"
        },
        {
          "internalType": "uint256[]",
          "name": "",
          "type": "uint256[]"
        },
        {
          "internalType": "uint256[]",
          "name": "",
          "type": "uint256[]"
        },
        {
          "internalType": "uint256[]",
          "name": "",
          "type": "uint256[]"
        },
        {
          "internalType": "uint256[]",
          "name": "",
          "type": "uint256[]"
        }
      ],
      "stateMutability": "view",
      "type": "function",
      "constant": true
    },
    {
      "inputs": [
        {
          "internalType": "uint256",
          "name": "tokenId",
          "type": "uint256"
        }
      ],
      "name": "burn",
      "outputs": [],
      "stateMutability": "nonpayable",
      "type": "function"
    },
    {
      "inputs": [
        {
          "internalType": "uint256",
          "name": "tokenId",
          "type": "uint256"
        }
      ],
      "name": "getAttr",
      "outputs": [
        {
          "internalType": "uint256",
          "name": "_id",
          "type": "uint256"
        },
        {
          "internalType": "uint256",
          "name": "_type",
          "type": "uint256"
        },
        {
          "internalType": "uint256",
          "name": "li",
          "type": "uint256"
        },
        {
          "internalType": "uint256",
          "name": "min",
          "type": "uint256"
        },
        {
          "internalType": "uint256",
          "name": "zhi",
          "type": "uint256"
        },
        {
          "internalType": "uint256",
          "name": "lv",
          "type": "uint256"
        }
      ],
      "stateMutability": "view",
      "type": "function",
      "constant": true
    }
  ],
  "bytecode": "0x608060405234801561001057600080fd5b50614afa806100206000396000f3fe6080604052600436106101405760003560e01c806370a08231116100b6578063a22cb4651161006f578063a22cb4651461048c578063a2d256fa146104b5578063b88d4fde146104bf578063c87b56dd146104e8578063e985e9c514610525578063f2fde38b1461056257610140565b806370a0823114610378578063715018a6146103b55780638da5cb5b146103cc57806395d89b41146103f7578063a00f6d7614610422578063a0a291d61461046357610140565b806337983aed1161010857806337983aed1461023c5780633da1f63c1461027e57806342842e0e146102c057806342966c68146102e9578063485cc955146103125780636352211e1461033b57610140565b806301ffc9a71461014557806306fdde0314610182578063081812fc146101ad578063095ea7b3146101ea57806323b872dd14610213575b600080fd5b34801561015157600080fd5b5061016c60048036038101906101679190613695565b61058b565b6040516101799190613d58565b60405180910390f35b34801561018e57600080fd5b5061019761066d565b6040516101a49190613d73565b60405180910390f35b3480156101b957600080fd5b506101d460048036038101906101cf919061375c565b6106ff565b6040516101e19190613c2f565b60405180910390f35b3480156101f657600080fd5b50610211600480360381019061020c9190613628565b610784565b005b34801561021f57600080fd5b5061023a60048036038101906102359190613512565b61089c565b005b34801561024857600080fd5b50610263600480360381019061025e91906134a5565b6108fc565b60405161027596959493929190613ccd565b60405180910390f35b34801561028a57600080fd5b506102a560048036038101906102a0919061375c565b610c97565b6040516102b79695949392919061408c565b60405180910390f35b3480156102cc57600080fd5b506102e760048036038101906102e29190613512565b610d90565b005b3480156102f557600080fd5b50610310600480360381019061030b919061375c565b610db0565b005b34801561031e57600080fd5b50610339600480360381019061033491906136ef565b610e38565b005b34801561034757600080fd5b50610362600480360381019061035d919061375c565b611149565b60405161036f9190613c2f565b60405180910390f35b34801561038457600080fd5b5061039f600480360381019061039a91906134a5565b6111fb565b6040516103ac9190613ff5565b60405180910390f35b3480156103c157600080fd5b506103ca6112b3565b005b3480156103d857600080fd5b506103e161133b565b6040516103ee9190613c2f565b60405180910390f35b34801561040357600080fd5b5061040c611365565b6040516104199190613d73565b60405180910390f35b34801561042e57600080fd5b506104496004803603810190610444919061375c565b6113f7565b60405161045a959493929190614039565b60405180910390f35b34801561046f57600080fd5b5061048a6004803603810190610485919061372f565b61142d565b005b34801561049857600080fd5b506104b360048036038101906104ae91906135e8565b6114ed565b005b6104bd61166e565b005b3480156104cb57600080fd5b506104e660048036038101906104e19190613565565b611a41565b005b3480156104f457600080fd5b5061050f600480360381019061050a919061375c565b611aa3565b60405161051c9190613d73565b60405180910390f35b34801561053157600080fd5b5061054c600480360381019061054791906134d2565b611b4a565b6040516105599190613d58565b60405180910390f35b34801561056e57600080fd5b50610589600480360381019061058491906134a5565b611bde565b005b60007f80ac58cd000000000000000000000000000000000000000000000000000000007bffffffffffffffffffffffffffffffffffffffffffffffffffffffff1916827bffffffffffffffffffffffffffffffffffffffffffffffffffffffff1916148061065657507f5b5e139f000000000000000000000000000000000000000000000000000000007bffffffffffffffffffffffffffffffffffffffffffffffffffffffff1916827bffffffffffffffffffffffffffffffffffffffffffffffffffffffff1916145b80610666575061066582611cd6565b5b9050919050565b60606065805461067c90614354565b80601f01602080910402602001604051908101604052809291908181526020018280546106a890614354565b80156106f55780601f106106ca576101008083540402835291602001916106f5565b820191906000526020600020905b8154815290600101906020018083116106d857829003601f168201915b5050505050905090565b600061070a82611d40565b610749576040517f08c379a000000000000000000000000000000000000000000000000000000000815260040161074090613f35565b60405180910390fd5b6069600083815260200190815260200160002060009054906101000a900473ffffffffffffffffffffffffffffffffffffffff169050919050565b600061078f82611149565b90508073ffffffffffffffffffffffffffffffffffffffff168373ffffffffffffffffffffffffffffffffffffffff161415610800576040517f08c379a00000000000000000000000000000000000000000000000000000000081526004016107f790613fb5565b60405180910390fd5b8073ffffffffffffffffffffffffffffffffffffffff1661081f611dac565b73ffffffffffffffffffffffffffffffffffffffff16148061084e575061084d81610848611dac565b611b4a565b5b61088d576040517f08c379a000000000000000000000000000000000000000000000000000000000815260040161088490613e95565b60405180910390fd5b6108978383611db4565b505050565b6108ad6108a7611dac565b82611e6d565b6108ec576040517f08c379a00000000000000000000000000000000000000000000000000000000081526004016108e390613fd5565b60405180910390fd5b6108f7838383611f4b565b505050565b606080606080606080600060cf60008973ffffffffffffffffffffffffffffffffffffffff1673ffffffffffffffffffffffffffffffffffffffff16815260200190815260200160002080548060200260200160405190810160405280929190818152602001828054801561099057602002820191906000526020600020905b81548152602001906001019080831161097c575b505050505090506000815167ffffffffffffffff8111156109b4576109b36144ed565b5b6040519080825280602002602001820160405280156109e25781602001602082028036833780820191505090505b5090506000825167ffffffffffffffff811115610a0257610a016144ed565b5b604051908082528060200260200182016040528015610a305781602001602082028036833780820191505090505b5090506000835167ffffffffffffffff811115610a5057610a4f6144ed565b5b604051908082528060200260200182016040528015610a7e5781602001602082028036833780820191505090505b5090506000845167ffffffffffffffff811115610a9e57610a9d6144ed565b5b604051908082528060200260200182016040528015610acc5781602001602082028036833780820191505090505b5090506000855167ffffffffffffffff811115610aec57610aeb6144ed565b5b604051908082528060200260200182016040528015610b1a5781602001602082028036833780820191505090505b509050600086511115610c765760005b8651811015610c74576000878281518110610b4857610b476144be565b5b6020026020010151905060ce600082815260200190815260200160002060000154878381518110610b7c57610b7b6144be565b5b60200260200101818152505060ce600082815260200190815260200160002060010154868381518110610bb257610bb16144be565b5b60200260200101818152505060ce600082815260200190815260200160002060020154858381518110610be857610be76144be565b5b60200260200101818152505060ce600082815260200190815260200160002060030154848381518110610c1e57610c1d6144be565b5b60200260200101818152505060ce600082815260200190815260200160002060040154838381518110610c5457610c536144be565b5b602002602001018181525050508080610c6c906143b7565b915050610b2a565b505b8585858585859b509b509b509b509b509b5050505050505091939550919395565b600080600080600080600060ce60008981526020019081526020016000206000015411610cf9576040517f08c379a0000000000000000000000000000000000000000000000000000000008152600401610cf090613e15565b60405180910390fd5b600060ce60008981526020019081526020016000206040518060a0016040529081600082015481526020016001820154815260200160028201548152602001600382015481526020016004820154815250509050806000015160cd60008981526020019081526020016000205482602001518360400151846060015185608001519650965096509650965096505091939550919395565b610dab83838360405180602001604052806000815250611a41565b505050565b610db8611dac565b73ffffffffffffffffffffffffffffffffffffffff16610dd661133b565b73ffffffffffffffffffffffffffffffffffffffff1614610e2c576040517f08c379a0000000000000000000000000000000000000000000000000000000008152600401610e2390613f55565b60405180910390fd5b610e35816121a7565b50565b600060019054906101000a900460ff1680610e5e575060008054906101000a900460ff16155b610e9d576040517f08c379a0000000000000000000000000000000000000000000000000000000008152600401610e9490613ef5565b60405180910390fd5b60008060019054906101000a900460ff161590508015610eed576001600060016101000a81548160ff02191690831515021790555060016000806101000a81548160ff0219169083151502179055505b610f616040518060400160405280600d81526020017f464d20546f6b656e2043617264000000000000000000000000000000000000008152506040518060400160405280600381526020017f464d4300000000000000000000000000000000000000000000000000000000008152506122b8565b610f696123ad565b8260c960006101000a81548173ffffffffffffffffffffffffffffffffffffffff021916908373ffffffffffffffffffffffffffffffffffffffff1602179055508160ca60006101000a81548173ffffffffffffffffffffffffffffffffffffffff021916908373ffffffffffffffffffffffffffffffffffffffff160217905550600160cd60006001815260200190815260200160002081905550600160cd60006002815260200190815260200160002081905550600160cd60006003815260200190815260200160002081905550600160cd60006004815260200190815260200160002081905550600260cd60006005815260200190815260200160002081905550600260cd60006006815260200190815260200160002081905550600260cd60006007815260200190815260200160002081905550600260cd60006008815260200190815260200160002081905550600360cd60006009815260200190815260200160002081905550600360cd6000600a815260200190815260200160002081905550600360cd6000600b815260200190815260200160002081905550600360cd6000600c81526020019081526020016000208190555080156111445760008060016101000a81548160ff0219169083151502179055505b505050565b6000806067600084815260200190815260200160002060009054906101000a900473ffffffffffffffffffffffffffffffffffffffff169050600073ffffffffffffffffffffffffffffffffffffffff168173ffffffffffffffffffffffffffffffffffffffff1614156111f2576040517f08c379a00000000000000000000000000000000000000000000000000000000081526004016111e990613ed5565b60405180910390fd5b80915050919050565b60008073ffffffffffffffffffffffffffffffffffffffff168273ffffffffffffffffffffffffffffffffffffffff16141561126c576040517f08c379a000000000000000000000000000000000000000000000000000000000815260040161126390613eb5565b60405180910390fd5b606860008373ffffffffffffffffffffffffffffffffffffffff1673ffffffffffffffffffffffffffffffffffffffff168152602001908152602001600020549050919050565b6112bb611dac565b73ffffffffffffffffffffffffffffffffffffffff166112d961133b565b73ffffffffffffffffffffffffffffffffffffffff161461132f576040517f08c379a000000000000000000000000000000000000000000000000000000000815260040161132690613f55565b60405180910390fd5b6113396000612496565b565b6000609760009054906101000a900473ffffffffffffffffffffffffffffffffffffffff16905090565b60606066805461137490614354565b80601f01602080910402602001604051908101604052809291908181526020018280546113a090614354565b80156113ed5780601f106113c2576101008083540402835291602001916113ed565b820191906000526020600020905b8154815290600101906020018083116113d057829003601f168201915b5050505050905090565b60ce6020528060005260406000206000915090508060000154908060010154908060020154908060030154908060040154905085565b611435611dac565b73ffffffffffffffffffffffffffffffffffffffff1661145361133b565b73ffffffffffffffffffffffffffffffffffffffff16146114a9576040517f08c379a00000000000000000000000000000000000000000000000000000000081526004016114a090613f55565b60405180910390fd5b8060ca60006101000a81548173ffffffffffffffffffffffffffffffffffffffff021916908373ffffffffffffffffffffffffffffffffffffffff16021790555050565b6114f5611dac565b73ffffffffffffffffffffffffffffffffffffffff168273ffffffffffffffffffffffffffffffffffffffff161415611563576040517f08c379a000000000000000000000000000000000000000000000000000000000815260040161155a90613e55565b60405180910390fd5b80606a6000611570611dac565b73ffffffffffffffffffffffffffffffffffffffff1673ffffffffffffffffffffffffffffffffffffffff16815260200190815260200160002060008473ffffffffffffffffffffffffffffffffffffffff1673ffffffffffffffffffffffffffffffffffffffff16815260200190815260200160002060006101000a81548160ff0219169083151502179055508173ffffffffffffffffffffffffffffffffffffffff1661161d611dac565b73ffffffffffffffffffffffffffffffffffffffff167f17307eab39ab6107e8899845ad3d59bd9653f200f220920489ca2b5937696c31836040516116629190613d58565b60405180910390a35050565b60006305f5e10090508060c960009054906101000a900473ffffffffffffffffffffffffffffffffffffffff1673ffffffffffffffffffffffffffffffffffffffff166370a08231336040518263ffffffff1660e01b81526004016116d39190613c2f565b60206040518083038186803b1580156116eb57600080fd5b505afa1580156116ff573d6000803e3d6000fd5b505050506040513d601f19601f820116820180604052508101906117239190613789565b1015611764576040517f08c379a000000000000000000000000000000000000000000000000000000000815260040161175b90613d95565b60405180910390fd5b60c960009054906101000a900473ffffffffffffffffffffffffffffffffffffffff1673ffffffffffffffffffffffffffffffffffffffff166323b872dd3360c960009054906101000a900473ffffffffffffffffffffffffffffffffffffffff16846040518463ffffffff1660e01b81526004016117e593929190613c4a565b602060405180830381600087803b1580156117ff57600080fd5b505af1158015611813573d6000803e3d6000fd5b505050506040513d601f19601f820116820180604052508101906118379190613668565b50600060cc60008154611849906143b7565b919050819055905060008060008060ca60009054906101000a900473ffffffffffffffffffffffffffffffffffffffff1673ffffffffffffffffffffffffffffffffffffffff166395032b6260cb600081546118a4906143b7565b91905081905560d060006118b6611dac565b73ffffffffffffffffffffffffffffffffffffffff1673ffffffffffffffffffffffffffffffffffffffff168152602001908152602001600020600081546118fd906143b7565b9190508190556040518363ffffffff1660e01b8152600401611920929190614010565b60806040518083038186803b15801561193857600080fd5b505afa15801561194c573d6000803e3d6000fd5b505050506040513d601f19601f8201168201806040525081019061197091906137b6565b809450819550829650839750505050506040518060a00160405280858152602001848152602001838152602001828152602001600181525060ce600087815260200190815260200160002060008201518160000155602082015181600101556040820151816002015560608201518160030155608082015181600401559050506119fa338661255c565b7f34fe1642a0ca93b1ef0aafba83195bd647a07069c5807c33e3e21d59ff4749c28585858585604051611a31959493929190614039565b60405180910390a1505050505050565b611a52611a4c611dac565b83611e6d565b611a91576040517f08c379a0000000000000000000000000000000000000000000000000000000008152600401611a8890613fd5565b60405180910390fd5b611a9d8484848461272a565b50505050565b6060611aae82611d40565b611aed576040517f08c379a0000000000000000000000000000000000000000000000000000000008152600401611ae490613f95565b60405180910390fd5b6000611af7612786565b90506000815111611b175760405180602001604052806000815250611b42565b80611b218461279d565b604051602001611b32929190613c0b565b6040516020818303038152906040525b915050919050565b6000606a60008473ffffffffffffffffffffffffffffffffffffffff1673ffffffffffffffffffffffffffffffffffffffff16815260200190815260200160002060008373ffffffffffffffffffffffffffffffffffffffff1673ffffffffffffffffffffffffffffffffffffffff16815260200190815260200160002060009054906101000a900460ff16905092915050565b611be6611dac565b73ffffffffffffffffffffffffffffffffffffffff16611c0461133b565b73ffffffffffffffffffffffffffffffffffffffff1614611c5a576040517f08c379a0000000000000000000000000000000000000000000000000000000008152600401611c5190613f55565b60405180910390fd5b600073ffffffffffffffffffffffffffffffffffffffff168173ffffffffffffffffffffffffffffffffffffffff161415611cca576040517f08c379a0000000000000000000000000000000000000000000000000000000008152600401611cc190613dd5565b60405180910390fd5b611cd381612496565b50565b60007f01ffc9a7000000000000000000000000000000000000000000000000000000007bffffffffffffffffffffffffffffffffffffffffffffffffffffffff1916827bffffffffffffffffffffffffffffffffffffffffffffffffffffffff1916149050919050565b60008073ffffffffffffffffffffffffffffffffffffffff166067600084815260200190815260200160002060009054906101000a900473ffffffffffffffffffffffffffffffffffffffff1673ffffffffffffffffffffffffffffffffffffffff1614159050919050565b600033905090565b816069600083815260200190815260200160002060006101000a81548173ffffffffffffffffffffffffffffffffffffffff021916908373ffffffffffffffffffffffffffffffffffffffff160217905550808273ffffffffffffffffffffffffffffffffffffffff16611e2783611149565b73ffffffffffffffffffffffffffffffffffffffff167f8c5be1e5ebec7d5bd14f71427d1e84f3dd0314c0f7b2291e5b200ac8c7c3b92560405160405180910390a45050565b6000611e7882611d40565b611eb7576040517f08c379a0000000000000000000000000000000000000000000000000000000008152600401611eae90613e75565b60405180910390fd5b6000611ec283611149565b90508073ffffffffffffffffffffffffffffffffffffffff168473ffffffffffffffffffffffffffffffffffffffff161480611f3157508373ffffffffffffffffffffffffffffffffffffffff16611f19846106ff565b73ffffffffffffffffffffffffffffffffffffffff16145b80611f425750611f418185611b4a565b5b91505092915050565b8273ffffffffffffffffffffffffffffffffffffffff16611f6b82611149565b73ffffffffffffffffffffffffffffffffffffffff1614611fc1576040517f08c379a0000000000000000000000000000000000000000000000000000000008152600401611fb890613f75565b60405180910390fd5b600073ffffffffffffffffffffffffffffffffffffffff168273ffffffffffffffffffffffffffffffffffffffff161415612031576040517f08c379a000000000000000000000000000000000000000000000000000000000815260040161202890613e35565b60405180910390fd5b61203c8383836128fe565b612047600082611db4565b6001606860008573ffffffffffffffffffffffffffffffffffffffff1673ffffffffffffffffffffffffffffffffffffffff16815260200190815260200160002060008282546120979190614246565b925050819055506001606860008473ffffffffffffffffffffffffffffffffffffffff1673ffffffffffffffffffffffffffffffffffffffff16815260200190815260200160002060008282546120ee91906141bf565b92505081905550816067600083815260200190815260200160002060006101000a81548173ffffffffffffffffffffffffffffffffffffffff021916908373ffffffffffffffffffffffffffffffffffffffff160217905550808273ffffffffffffffffffffffffffffffffffffffff168473ffffffffffffffffffffffffffffffffffffffff167fddf252ad1be2c89b69c2b068fc378daa952ba7f163c4a11628f55a4df523b3ef60405160405180910390a4505050565b60006121b282611149565b90506121c0816000846128fe565b6121cb600083611db4565b6001606860008373ffffffffffffffffffffffffffffffffffffffff1673ffffffffffffffffffffffffffffffffffffffff168152602001908152602001600020600082825461221b9190614246565b925050819055506067600083815260200190815260200160002060006101000a81549073ffffffffffffffffffffffffffffffffffffffff021916905581600073ffffffffffffffffffffffffffffffffffffffff168273ffffffffffffffffffffffffffffffffffffffff167fddf252ad1be2c89b69c2b068fc378daa952ba7f163c4a11628f55a4df523b3ef60405160405180910390a45050565b600060019054906101000a900460ff16806122de575060008054906101000a900460ff16155b61231d576040517f08c379a000000000000000000000000000000000000000000000000000000000815260040161231490613ef5565b60405180910390fd5b60008060019054906101000a900460ff16159050801561236d576001600060016101000a81548160ff02191690831515021790555060016000806101000a81548160ff0219169083151502179055505b612375612d3a565b61237d612e13565b6123878383612eec565b80156123a85760008060016101000a81548160ff0219169083151502179055505b505050565b600060019054906101000a900460ff16806123d3575060008054906101000a900460ff16155b612412576040517f08c379a000000000000000000000000000000000000000000000000000000000815260040161240990613ef5565b60405180910390fd5b60008060019054906101000a900460ff161590508015612462576001600060016101000a81548160ff02191690831515021790555060016000806101000a81548160ff0219169083151502179055505b61246a612d3a565b612472612ff5565b80156124935760008060016101000a81548160ff0219169083151502179055505b50565b6000609760009054906101000a900473ffffffffffffffffffffffffffffffffffffffff16905081609760006101000a81548173ffffffffffffffffffffffffffffffffffffffff021916908373ffffffffffffffffffffffffffffffffffffffff1602179055508173ffffffffffffffffffffffffffffffffffffffff168173ffffffffffffffffffffffffffffffffffffffff167f8be0079c531659141344cd1fd0a4f28419497f9722a3daafe3b4186f6b6457e060405160405180910390a35050565b600073ffffffffffffffffffffffffffffffffffffffff168273ffffffffffffffffffffffffffffffffffffffff1614156125cc576040517f08c379a00000000000000000000000000000000000000000000000000000000081526004016125c390613f15565b60405180910390fd5b6125d581611d40565b15612615576040517f08c379a000000000000000000000000000000000000000000000000000000000815260040161260c90613df5565b60405180910390fd5b612621600083836128fe565b6001606860008473ffffffffffffffffffffffffffffffffffffffff1673ffffffffffffffffffffffffffffffffffffffff168152602001908152602001600020600082825461267191906141bf565b92505081905550816067600083815260200190815260200160002060006101000a81548173ffffffffffffffffffffffffffffffffffffffff021916908373ffffffffffffffffffffffffffffffffffffffff160217905550808273ffffffffffffffffffffffffffffffffffffffff16600073ffffffffffffffffffffffffffffffffffffffff167fddf252ad1be2c89b69c2b068fc378daa952ba7f163c4a11628f55a4df523b3ef60405160405180910390a45050565b612735848484611f4b565b612741848484846130de565b612780576040517f08c379a000000000000000000000000000000000000000000000000000000000815260040161277790613db5565b60405180910390fd5b50505050565b606060405180602001604052806000815250905090565b606060008214156127e5576040518060400160405280600181526020017f300000000000000000000000000000000000000000000000000000000000000081525090506128f9565b600082905060005b60008214612817578080612800906143b7565b915050600a826128109190614215565b91506127ed565b60008167ffffffffffffffff811115612833576128326144ed565b5b6040519080825280601f01601f1916602001820160405280156128655781602001600182028036833780820191505090505b5090505b600085146128f25760018261287e9190614246565b9150600a8561288d9190614400565b603061289991906141bf565b60f81b8183815181106128af576128ae6144be565b5b60200101907effffffffffffffffffffffffffffffffffffffffffffffffffffffffffffff1916908160001a905350600a856128eb9190614215565b9450612869565b8093505050505b919050565b600073ffffffffffffffffffffffffffffffffffffffff168373ffffffffffffffffffffffffffffffffffffffff1614612c1c576000600160cf60008673ffffffffffffffffffffffffffffffffffffffff1673ffffffffffffffffffffffffffffffffffffffff168152602001908152602001600020805490506129839190614246565b67ffffffffffffffff81111561299c5761299b6144ed565b5b6040519080825280602002602001820160405280156129ca5781602001602082028036833780820191505090505b509050600160cf60008673ffffffffffffffffffffffffffffffffffffffff1673ffffffffffffffffffffffffffffffffffffffff168152602001908152602001600020805490501115612bc657600080600090505b60cf60008773ffffffffffffffffffffffffffffffffffffffff1673ffffffffffffffffffffffffffffffffffffffff16815260200190815260200160002080549050811015612b69578360cf60008873ffffffffffffffffffffffffffffffffffffffff1673ffffffffffffffffffffffffffffffffffffffff1681526020019081526020016000208281548110612abc57612abb6144be565b5b906000526020600020015414612b565760cf60008773ffffffffffffffffffffffffffffffffffffffff1673ffffffffffffffffffffffffffffffffffffffff1681526020019081526020016000208181548110612b1d57612b1c6144be565b5b9060005260206000200154838381518110612b3b57612b3a6144be565b5b6020026020010181815250508180612b52906143b7565b9250505b8080612b61906143b7565b915050612a20565b50600160cf60008773ffffffffffffffffffffffffffffffffffffffff1673ffffffffffffffffffffffffffffffffffffffff16815260200190815260200160002080549050612bb99190614246565b8114612bc457600080fd5b505b8060cf60008673ffffffffffffffffffffffffffffffffffffffff1673ffffffffffffffffffffffffffffffffffffffff1681526020019081526020016000209080519060200190612c19929190613288565b50505b600073ffffffffffffffffffffffffffffffffffffffff168273ffffffffffffffffffffffffffffffffffffffff1614612cbb5760cf60008373ffffffffffffffffffffffffffffffffffffffff1673ffffffffffffffffffffffffffffffffffffffff168152602001908152602001600020819080600181540180825580915050600190039060005260206000200160009091909190915055612cfa565b60ce6000828152602001908152602001600020600080820160009055600182016000905560028201600090556003820160009055600482016000905550505b7f4814987054d8fe344e5b80282e88b055b8f4bd467e8762c163d855819694b8a6838383604051612d2d93929190613c4a565b60405180910390a1505050565b600060019054906101000a900460ff1680612d60575060008054906101000a900460ff16155b612d9f576040517f08c379a0000000000000000000000000000000000000000000000000000000008152600401612d9690613ef5565b60405180910390fd5b60008060019054906101000a900460ff161590508015612def576001600060016101000a81548160ff02191690831515021790555060016000806101000a81548160ff0219169083151502179055505b8015612e105760008060016101000a81548160ff0219169083151502179055505b50565b600060019054906101000a900460ff1680612e39575060008054906101000a900460ff16155b612e78576040517f08c379a0000000000000000000000000000000000000000000000000000000008152600401612e6f90613ef5565b60405180910390fd5b60008060019054906101000a900460ff161590508015612ec8576001600060016101000a81548160ff02191690831515021790555060016000806101000a81548160ff0219169083151502179055505b8015612ee95760008060016101000a81548160ff0219169083151502179055505b50565b600060019054906101000a900460ff1680612f12575060008054906101000a900460ff16155b612f51576040517f08c379a0000000000000000000000000000000000000000000000000000000008152600401612f4890613ef5565b60405180910390fd5b60008060019054906101000a900460ff161590508015612fa1576001600060016101000a81548160ff02191690831515021790555060016000806101000a81548160ff0219169083151502179055505b8260659080519060200190612fb79291906132d5565b508160669080519060200190612fce9291906132d5565b508015612ff05760008060016101000a81548160ff0219169083151502179055505b505050565b600060019054906101000a900460ff168061301b575060008054906101000a900460ff16155b61305a576040517f08c379a000000000000000000000000000000000000000000000000000000000815260040161305190613ef5565b60405180910390fd5b60008060019054906101000a900460ff1615905080156130aa576001600060016101000a81548160ff02191690831515021790555060016000806101000a81548160ff0219169083151502179055505b6130ba6130b5611dac565b612496565b80156130db5760008060016101000a81548160ff0219169083151502179055505b50565b60006130ff8473ffffffffffffffffffffffffffffffffffffffff16613275565b15613268578373ffffffffffffffffffffffffffffffffffffffff1663150b7a02613128611dac565b8786866040518563ffffffff1660e01b815260040161314a9493929190613c81565b602060405180830381600087803b15801561316457600080fd5b505af192505050801561319557506040513d601f19601f8201168201806040525081019061319291906136c2565b60015b613218573d80600081146131c5576040519150601f19603f3d011682016040523d82523d6000602084013e6131ca565b606091505b50600081511415613210576040517f08c379a000000000000000000000000000000000000000000000000000000000815260040161320790613db5565b60405180910390fd5b805181602001fd5b63150b7a0260e01b7bffffffffffffffffffffffffffffffffffffffffffffffffffffffff1916817bffffffffffffffffffffffffffffffffffffffffffffffffffffffff19161491505061326d565b600190505b949350505050565b600080823b905060008111915050919050565b8280548282559060005260206000209081019282156132c4579160200282015b828111156132c35782518255916020019190600101906132a8565b5b5090506132d1919061335b565b5090565b8280546132e190614354565b90600052602060002090601f016020900481019282613303576000855561334a565b82601f1061331c57805160ff191683800117855561334a565b8280016001018555821561334a579182015b8281111561334957825182559160200191906001019061332e565b5b509050613357919061335b565b5090565b5b8082111561337457600081600090555060010161335c565b5090565b600061338b61338684614112565b6140ed565b9050828152602081018484840111156133a7576133a6614521565b5b6133b2848285614312565b509392505050565b6000813590506133c981614a3a565b92915050565b6000813590506133de81614a51565b92915050565b6000815190506133f381614a51565b92915050565b60008135905061340881614a68565b92915050565b60008151905061341d81614a68565b92915050565b600082601f8301126134385761343761451c565b5b8135613448848260208601613378565b91505092915050565b60008135905061346081614a7f565b92915050565b60008135905061347581614a96565b92915050565b60008135905061348a81614aad565b92915050565b60008151905061349f81614aad565b92915050565b6000602082840312156134bb576134ba61452b565b5b60006134c9848285016133ba565b91505092915050565b600080604083850312156134e9576134e861452b565b5b60006134f7858286016133ba565b9250506020613508858286016133ba565b9150509250929050565b60008060006060848603121561352b5761352a61452b565b5b6000613539868287016133ba565b935050602061354a868287016133ba565b925050604061355b8682870161347b565b9150509250925092565b6000806000806080858703121561357f5761357e61452b565b5b600061358d878288016133ba565b945050602061359e878288016133ba565b93505060406135af8782880161347b565b925050606085013567ffffffffffffffff8111156135d0576135cf614526565b5b6135dc87828801613423565b91505092959194509250565b600080604083850312156135ff576135fe61452b565b5b600061360d858286016133ba565b925050602061361e858286016133cf565b9150509250929050565b6000806040838503121561363f5761363e61452b565b5b600061364d858286016133ba565b925050602061365e8582860161347b565b9150509250929050565b60006020828403121561367e5761367d61452b565b5b600061368c848285016133e4565b91505092915050565b6000602082840312156136ab576136aa61452b565b5b60006136b9848285016133f9565b91505092915050565b6000602082840312156136d8576136d761452b565b5b60006136e68482850161340e565b91505092915050565b600080604083850312156137065761370561452b565b5b600061371485828601613451565b925050602061372585828601613466565b9150509250929050565b6000602082840312156137455761374461452b565b5b600061375384828501613466565b91505092915050565b6000602082840312156137725761377161452b565b5b60006137808482850161347b565b91505092915050565b60006020828403121561379f5761379e61452b565b5b60006137ad84828501613490565b91505092915050565b600080600080608085870312156137d0576137cf61452b565b5b60006137de87828801613490565b94505060206137ef87828801613490565b935050604061380087828801613490565b925050606061381187828801613490565b91505092959194509250565b60006138298383613bed565b60208301905092915050565b61383e8161427a565b82525050565b600061384f82614153565b6138598185614181565b935061386483614143565b8060005b8381101561389557815161387c888261381d565b975061388783614174565b925050600181019050613868565b5085935050505092915050565b6138ab8161428c565b82525050565b60006138bc8261415e565b6138c68185614192565b93506138d6818560208601614321565b6138df81614530565b840191505092915050565b60006138f582614169565b6138ff81856141a3565b935061390f818560208601614321565b61391881614530565b840191505092915050565b600061392e82614169565b61393881856141b4565b9350613948818560208601614321565b80840191505092915050565b60006139616012836141a3565b915061396c82614541565b602082019050919050565b60006139846032836141a3565b915061398f8261456a565b604082019050919050565b60006139a76026836141a3565b91506139b2826145b9565b604082019050919050565b60006139ca601c836141a3565b91506139d582614608565b602082019050919050565b60006139ed601c836141a3565b91506139f882614631565b602082019050919050565b6000613a106024836141a3565b9150613a1b8261465a565b604082019050919050565b6000613a336019836141a3565b9150613a3e826146a9565b602082019050919050565b6000613a56602c836141a3565b9150613a61826146d2565b604082019050919050565b6000613a796038836141a3565b9150613a8482614721565b604082019050919050565b6000613a9c602a836141a3565b9150613aa782614770565b604082019050919050565b6000613abf6029836141a3565b9150613aca826147bf565b604082019050919050565b6000613ae2602e836141a3565b9150613aed8261480e565b604082019050919050565b6000613b056020836141a3565b9150613b108261485d565b602082019050919050565b6000613b28602c836141a3565b9150613b3382614886565b604082019050919050565b6000613b4b6020836141a3565b9150613b56826148d5565b602082019050919050565b6000613b6e6029836141a3565b9150613b79826148fe565b604082019050919050565b6000613b91602f836141a3565b9150613b9c8261494d565b604082019050919050565b6000613bb46021836141a3565b9150613bbf8261499c565b604082019050919050565b6000613bd76031836141a3565b9150613be2826149eb565b604082019050919050565b613bf681614308565b82525050565b613c0581614308565b82525050565b6000613c178285613923565b9150613c238284613923565b91508190509392505050565b6000602082019050613c446000830184613835565b92915050565b6000606082019050613c5f6000830186613835565b613c6c6020830185613835565b613c796040830184613bfc565b949350505050565b6000608082019050613c966000830187613835565b613ca36020830186613835565b613cb06040830185613bfc565b8181036060830152613cc281846138b1565b905095945050505050565b600060c0820190508181036000830152613ce78189613844565b90508181036020830152613cfb8188613844565b90508181036040830152613d0f8187613844565b90508181036060830152613d238186613844565b90508181036080830152613d378185613844565b905081810360a0830152613d4b8184613844565b9050979650505050505050565b6000602082019050613d6d60008301846138a2565b92915050565b60006020820190508181036000830152613d8d81846138ea565b905092915050565b60006020820190508181036000830152613dae81613954565b9050919050565b60006020820190508181036000830152613dce81613977565b9050919050565b60006020820190508181036000830152613dee8161399a565b9050919050565b60006020820190508181036000830152613e0e816139bd565b9050919050565b60006020820190508181036000830152613e2e816139e0565b9050919050565b60006020820190508181036000830152613e4e81613a03565b9050919050565b60006020820190508181036000830152613e6e81613a26565b9050919050565b60006020820190508181036000830152613e8e81613a49565b9050919050565b60006020820190508181036000830152613eae81613a6c565b9050919050565b60006020820190508181036000830152613ece81613a8f565b9050919050565b60006020820190508181036000830152613eee81613ab2565b9050919050565b60006020820190508181036000830152613f0e81613ad5565b9050919050565b60006020820190508181036000830152613f2e81613af8565b9050919050565b60006020820190508181036000830152613f4e81613b1b565b9050919050565b60006020820190508181036000830152613f6e81613b3e565b9050919050565b60006020820190508181036000830152613f8e81613b61565b9050919050565b60006020820190508181036000830152613fae81613b84565b9050919050565b60006020820190508181036000830152613fce81613ba7565b9050919050565b60006020820190508181036000830152613fee81613bca565b9050919050565b600060208201905061400a6000830184613bfc565b92915050565b60006040820190506140256000830185613bfc565b6140326020830184613bfc565b9392505050565b600060a08201905061404e6000830188613bfc565b61405b6020830187613bfc565b6140686040830186613bfc565b6140756060830185613bfc565b6140826080830184613bfc565b9695505050505050565b600060c0820190506140a16000830189613bfc565b6140ae6020830188613bfc565b6140bb6040830187613bfc565b6140c86060830186613bfc565b6140d56080830185613bfc565b6140e260a0830184613bfc565b979650505050505050565b60006140f7614108565b90506141038282614386565b919050565b6000604051905090565b600067ffffffffffffffff82111561412d5761412c6144ed565b5b61413682614530565b9050602081019050919050565b6000819050602082019050919050565b600081519050919050565b600081519050919050565b600081519050919050565b6000602082019050919050565b600082825260208201905092915050565b600082825260208201905092915050565b600082825260208201905092915050565b600081905092915050565b60006141ca82614308565b91506141d583614308565b9250827fffffffffffffffffffffffffffffffffffffffffffffffffffffffffffffffff0382111561420a57614209614431565b5b828201905092915050565b600061422082614308565b915061422b83614308565b92508261423b5761423a614460565b5b828204905092915050565b600061425182614308565b915061425c83614308565b92508282101561426f5761426e614431565b5b828203905092915050565b6000614285826142e8565b9050919050565b60008115159050919050565b60007fffffffff0000000000000000000000000000000000000000000000000000000082169050919050565b60006142cf8261427a565b9050919050565b60006142e18261427a565b9050919050565b600073ffffffffffffffffffffffffffffffffffffffff82169050919050565b6000819050919050565b82818337600083830152505050565b60005b8381101561433f578082015181840152602081019050614324565b8381111561434e576000848401525b50505050565b6000600282049050600182168061436c57607f821691505b602082108114156143805761437f61448f565b5b50919050565b61438f82614530565b810181811067ffffffffffffffff821117156143ae576143ad6144ed565b5b80604052505050565b60006143c282614308565b91507fffffffffffffffffffffffffffffffffffffffffffffffffffffffffffffffff8214156143f5576143f4614431565b5b600182019050919050565b600061440b82614308565b915061441683614308565b92508261442657614425614460565b5b828206905092915050565b7f4e487b7100000000000000000000000000000000000000000000000000000000600052601160045260246000fd5b7f4e487b7100000000000000000000000000000000000000000000000000000000600052601260045260246000fd5b7f4e487b7100000000000000000000000000000000000000000000000000000000600052602260045260246000fd5b7f4e487b7100000000000000000000000000000000000000000000000000000000600052603260045260246000fd5b7f4e487b7100000000000000000000000000000000000000000000000000000000600052604160045260246000fd5b600080fd5b600080fd5b600080fd5b600080fd5b6000601f19601f8301169050919050565b7f62616c616e6365203c2072657175697265640000000000000000000000000000600082015250565b7f4552433732313a207472616e7366657220746f206e6f6e20455243373231526560008201527f63656976657220696d706c656d656e7465720000000000000000000000000000602082015250565b7f4f776e61626c653a206e6577206f776e657220697320746865207a65726f206160008201527f6464726573730000000000000000000000000000000000000000000000000000602082015250565b7f4552433732313a20746f6b656e20616c7265616479206d696e74656400000000600082015250565b7f6469646e6f7420666f756e64207468697320746f6b656e206174747200000000600082015250565b7f4552433732313a207472616e7366657220746f20746865207a65726f2061646460008201527f7265737300000000000000000000000000000000000000000000000000000000602082015250565b7f4552433732313a20617070726f766520746f2063616c6c657200000000000000600082015250565b7f4552433732313a206f70657261746f7220717565727920666f72206e6f6e657860008201527f697374656e7420746f6b656e0000000000000000000000000000000000000000602082015250565b7f4552433732313a20617070726f76652063616c6c6572206973206e6f74206f7760008201527f6e6572206e6f7220617070726f76656420666f7220616c6c0000000000000000602082015250565b7f4552433732313a2062616c616e636520717565727920666f7220746865207a6560008201527f726f206164647265737300000000000000000000000000000000000000000000602082015250565b7f4552433732313a206f776e657220717565727920666f72206e6f6e657869737460008201527f656e7420746f6b656e0000000000000000000000000000000000000000000000602082015250565b7f496e697469616c697a61626c653a20636f6e747261637420697320616c72656160008201527f647920696e697469616c697a6564000000000000000000000000000000000000602082015250565b7f4552433732313a206d696e7420746f20746865207a65726f2061646472657373600082015250565b7f4552433732313a20617070726f76656420717565727920666f72206e6f6e657860008201527f697374656e7420746f6b656e0000000000000000000000000000000000000000602082015250565b7f4f776e61626c653a2063616c6c6572206973206e6f7420746865206f776e6572600082015250565b7f4552433732313a207472616e73666572206f6620746f6b656e2074686174206960008201527f73206e6f74206f776e0000000000000000000000000000000000000000000000602082015250565b7f4552433732314d657461646174613a2055524920717565727920666f72206e6f60008201527f6e6578697374656e7420746f6b656e0000000000000000000000000000000000602082015250565b7f4552433732313a20617070726f76616c20746f2063757272656e74206f776e6560008201527f7200000000000000000000000000000000000000000000000000000000000000602082015250565b7f4552433732313a207472616e736665722063616c6c6572206973206e6f74206f60008201527f776e6572206e6f7220617070726f766564000000000000000000000000000000602082015250565b614a438161427a565b8114614a4e57600080fd5b50565b614a5a8161428c565b8114614a6557600080fd5b50565b614a7181614298565b8114614a7c57600080fd5b50565b614a88816142c4565b8114614a9357600080fd5b50565b614a9f816142d6565b8114614aaa57600080fd5b50565b614ab681614308565b8114614ac157600080fd5b5056fea2646970667358221220e2632edce312240b4fdddd4e1fd1e504159027aa2491bd5201d7fc9a1db580df64736f6c63430008070033",
  "immutableReferences": {},
  "source": "// SPDX-License-Identifier: MIT\r\npragma solidity ^0.8.0;\r\n\r\nimport \"@openzeppelin/contracts-upgradeable/token/ERC721/ERC721Upgradeable.sol\";\r\nimport \"@openzeppelin/contracts-upgradeable/access/OwnableUpgradeable.sol\";\r\nimport \"./Diamond.sol\";\r\nimport \"./lib/HeroPool.sol\";\r\n\r\n/** / */\r\ncontract NftHero is ERC721Upgradeable,OwnableUpgradeable {\r\n\r\n    Diamond diamondInstance;\r\n    HeroPool heroPoolInstance;\r\n\r\n    //\r\n    uint256 totalRandTimes;\r\n    //tokenID\r\n    uint256 private countor;\r\n    //id,\r\n    mapping(uint256 => uint256) herosType;\r\n    //\r\n    struct HeroInfo {\r\n        uint id;\r\n        uint li; //\r\n        uint min; //\r\n        uint zhi; //\r\n        uint lv; //\r\n    }\r\n    //\r\n    // tokenId => HeroInfo\r\n    mapping(uint256 => HeroInfo) public cardDB;\r\n    // => tokens\r\n    mapping(address => uint256[]) private tokenDB;\r\n    //\r\n    mapping(address => uint) private userRandtimes;\r\n\r\n    function initialize(Diamond _diamondInstance, HeroPool _heroPoolInstance) public initializer {\r\n        __ERC721_init(\"FM Token Card\", \"FMC\");\r\n        __Ownable_init();\r\n        \r\n        diamondInstance = _diamondInstance;\r\n        heroPoolInstance = _heroPoolInstance;\r\n\r\n        herosType[1] = 1;\r\n        herosType[2] = 1;\r\n        herosType[3] = 1;\r\n        herosType[4] = 1;\r\n        herosType[5] = 2;\r\n        herosType[6] = 2;\r\n        herosType[7] = 2;\r\n        herosType[8] = 2;\r\n        herosType[9] = 3;\r\n        herosType[10] = 3;\r\n        herosType[11] = 3;\r\n        herosType[12] = 3;\r\n    }\r\n\r\n    function setHeroPool( HeroPool _heroPoolInstance) public onlyOwner {\r\n        heroPoolInstance = _heroPoolInstance;\r\n    }\r\n\r\n    /**  */\r\n    function createCard() public payable {\r\n        uint256 cost = 1 * 1e8;\r\n        require(\r\n            diamondInstance.balanceOf(msg.sender) >= cost,\r\n            \"balance < required\"\r\n        );\r\n        diamondInstance.transferFrom(msg.sender, address(diamondInstance), cost);\r\n\r\n        uint256 _tokenId = ++countor;\r\n\r\n        //\r\n        uint id; uint li; uint min; uint zhi;\r\n        (id,li,min,zhi) = heroPoolInstance.rand(++totalRandTimes,  ++userRandtimes[_msgSender()]);\r\n        cardDB[_tokenId] = HeroInfo(id,li,min,zhi,1);\r\n\r\n        //mint_beforeTokenTransfer\r\n        super._mint(msg.sender, _tokenId);\r\n        emit createCardEvent(_tokenId, id,li,min,zhi);\r\n    }\r\n\r\n    /**  */\r\n    function getMyCards(address _addr) public view returns ( uint256[] memory, uint[] memory, uint[] memory, uint[] memory, uint[] memory, uint[] memory) {\r\n        uint256[] memory _tokens = tokenDB[_addr];\r\n        uint[] memory _hero_ids = new uint[](_tokens.length);\r\n        uint[] memory _li = new uint[](_tokens.length);\r\n        uint[] memory _min = new uint[](_tokens.length);\r\n        uint[] memory _zhi = new uint[](_tokens.length);\r\n        uint[] memory _lv = new uint[](_tokens.length);\r\n\r\n        if (_tokens.length > 0) {\r\n            for (uint i=0; i<_tokens.length; i++) {\r\n                uint256 _tokenId = _tokens[i];\r\n                _hero_ids[i] = cardDB[ _tokenId ].id;\r\n                _li[i] = cardDB[ _tokenId ].li;\r\n                _min[i] = cardDB[ _tokenId ].min;\r\n                _zhi[i] = cardDB[ _tokenId ].zhi;\r\n                _lv[i] = cardDB[ _tokenId ].lv;\r\n            }\r\n        }\r\n\r\n        return (_tokens, _hero_ids, _li, _min, _zhi, _lv);\r\n    }\r\n\r\n    //token\r\n    function burn(uint256 tokenId) public onlyOwner {\r\n        _burn(tokenId);\r\n    }\r\n\r\n    /* nft */\r\n    function _beforeTokenTransfer(address from, address to, uint256 tokenId) internal override {\r\n        if (from != address(0)) {\r\n            uint256[] memory newUserTokens = new uint256[](tokenDB[from].length - 1);\r\n            if (tokenDB[from].length > 1) {\r\n                uint256 realLen;\r\n                for (uint i=0; i<tokenDB[from].length; i++) {\r\n                    if (tokenDB[from][i] != tokenId) {\r\n                        newUserTokens[realLen] = tokenDB[from][i];\r\n                        realLen ++;\r\n                    }\r\n                }\r\n                require(realLen == tokenDB[from].length - 1);\r\n            }\r\n            tokenDB[from] = newUserTokens;\r\n        }\r\n\r\n        if (to != address(0)) {\r\n            tokenDB[to].push(tokenId);\r\n        } else {\r\n            delete cardDB[tokenId];\r\n        }\r\n        \r\n        emit transferCardEvent(from, to, tokenId);\r\n    }\r\n\r\n    /**  */\r\n    function getAttr(uint256 tokenId) public view returns (uint256 _id, uint256 _type, uint256 li, uint256 min, uint256 zhi, uint lv)  {\r\n        require(cardDB[tokenId].id > 0, \"didnot found this token attr\");\r\n        HeroInfo memory info = cardDB[tokenId];\r\n        return (info.id, herosType[_id], info.li, info.min, info.zhi, info.lv);\r\n    }\r\n\r\n    function rand(uint256 _min,uint256 _max) private view returns(uint256) {\r\n        require(_max > _min);\r\n        uint256 random = uint256(keccak256(abi.encodePacked(block.difficulty, block.timestamp+ totalRandTimes)));\r\n        return uint256(random % (_max-_min)) + _min;\r\n    }\r\n\r\n    event createCardEvent(uint256 token, uint hero_id, uint li, uint min, uint zhi);\r\n    event transferCardEvent(address from, address to, uint256 tokenId);\r\n}",
  "sourcePath": "D:\\solidity\\sol-test1\\contracts\\NftHero.sol",
  "compiler": {
    "name": "solc",
    "version": "0.8.7+commit.e28d00a7.Emscripten.clang"
  },
  "schemaVersion": "3.4.3",
  "updatedAt": "2021-11-26T03:16:36.508Z",
  "networkType": "ethereum",
  "devdoc": {
    "kind": "dev",
    "methods": {
      "approve(address,uint256)": {
        "details": "See {IERC721-approve}."
      },
      "balanceOf(address)": {
        "details": "See {IERC721-balanceOf}."
      },
      "getApproved(uint256)": {
        "details": "See {IERC721-getApproved}."
      },
      "isApprovedForAll(address,address)": {
        "details": "See {IERC721-isApprovedForAll}."
      },
      "name()": {
        "details": "See {IERC721Metadata-name}."
      },
      "owner()": {
        "details": "Returns the address of the current owner."
      },
      "ownerOf(uint256)": {
        "details": "See {IERC721-ownerOf}."
      },
      "renounceOwnership()": {
        "details": "Leaves the contract without owner. It will not be possible to call `onlyOwner` functions anymore. Can only be called by the current owner. NOTE: Renouncing ownership will leave the contract without an owner, thereby removing any functionality that is only available to the owner."
      },
      "safeTransferFrom(address,address,uint256)": {
        "details": "See {IERC721-safeTransferFrom}."
      },
      "safeTransferFrom(address,address,uint256,bytes)": {
        "details": "See {IERC721-safeTransferFrom}."
      },
      "setApprovalForAll(address,bool)": {
        "details": "See {IERC721-setApprovalForAll}."
      },
      "supportsInterface(bytes4)": {
        "details": "See {IERC165-supportsInterface}."
      },
      "symbol()": {
        "details": "See {IERC721Metadata-symbol}."
      },
      "tokenURI(uint256)": {
        "details": "See {IERC721Metadata-tokenURI}."
      },
      "transferFrom(address,address,uint256)": {
        "details": "See {IERC721-transferFrom}."
      },
      "transferOwnership(address)": {
        "details": "Transfers ownership of the contract to a new account (`newOwner`). Can only be called by the current owner."
      }
    },
    "version": 1
  },
  "userdoc": {
    "kind": "user",
    "methods": {
      "createCard()": {
        "notice": " "
      },
      "getAttr(uint256)": {
        "notice": " "
      },
      "getMyCards(address)": {
        "notice": " "
      }
    },
    "notice": "/ ",
    "version": 1
  }
}