{
  "contractName": "NftHero",
  "abi": [
    {
      "anonymous": false,
      "inputs": [
        {
          "indexed": true,
          "internalType": "address",
          "name": "owner",
          "type": "address"
        },
        {
          "indexed": true,
          "internalType": "address",
          "name": "approved",
          "type": "address"
        },
        {
          "indexed": true,
          "internalType": "uint256",
          "name": "tokenId",
          "type": "uint256"
        }
      ],
      "name": "Approval",
      "type": "event"
    },
    {
      "anonymous": false,
      "inputs": [
        {
          "indexed": true,
          "internalType": "address",
          "name": "owner",
          "type": "address"
        },
        {
          "indexed": true,
          "internalType": "address",
          "name": "operator",
          "type": "address"
        },
        {
          "indexed": false,
          "internalType": "bool",
          "name": "approved",
          "type": "bool"
        }
      ],
      "name": "ApprovalForAll",
      "type": "event"
    },
    {
      "anonymous": false,
      "inputs": [
        {
          "indexed": true,
          "internalType": "address",
          "name": "previousOwner",
          "type": "address"
        },
        {
          "indexed": true,
          "internalType": "address",
          "name": "newOwner",
          "type": "address"
        }
      ],
      "name": "OwnershipTransferred",
      "type": "event"
    },
    {
      "anonymous": false,
      "inputs": [
        {
          "indexed": false,
          "internalType": "address",
          "name": "account",
          "type": "address"
        }
      ],
      "name": "Paused",
      "type": "event"
    },
    {
      "anonymous": false,
      "inputs": [
        {
          "indexed": true,
          "internalType": "address",
          "name": "from",
          "type": "address"
        },
        {
          "indexed": true,
          "internalType": "address",
          "name": "to",
          "type": "address"
        },
        {
          "indexed": true,
          "internalType": "uint256",
          "name": "tokenId",
          "type": "uint256"
        }
      ],
      "name": "Transfer",
      "type": "event"
    },
    {
      "anonymous": false,
      "inputs": [
        {
          "indexed": false,
          "internalType": "address",
          "name": "account",
          "type": "address"
        }
      ],
      "name": "Unpaused",
      "type": "event"
    },
    {
      "anonymous": false,
      "inputs": [
        {
          "indexed": false,
          "internalType": "address",
          "name": "owner",
          "type": "address"
        },
        {
          "indexed": false,
          "internalType": "uint256",
          "name": "token",
          "type": "uint256"
        },
        {
          "indexed": false,
          "internalType": "uint256",
          "name": "hero_id",
          "type": "uint256"
        },
        {
          "indexed": false,
          "internalType": "uint256",
          "name": "li",
          "type": "uint256"
        },
        {
          "indexed": false,
          "internalType": "uint256",
          "name": "min",
          "type": "uint256"
        },
        {
          "indexed": false,
          "internalType": "uint256",
          "name": "zhi",
          "type": "uint256"
        }
      ],
      "name": "createCardEvent",
      "type": "event"
    },
    {
      "anonymous": false,
      "inputs": [
        {
          "indexed": false,
          "internalType": "address",
          "name": "from",
          "type": "address"
        },
        {
          "indexed": false,
          "internalType": "address",
          "name": "to",
          "type": "address"
        },
        {
          "indexed": false,
          "internalType": "uint256",
          "name": "tokenId",
          "type": "uint256"
        }
      ],
      "name": "transferCardEvent",
      "type": "event"
    },
    {
      "inputs": [
        {
          "internalType": "address",
          "name": "to",
          "type": "address"
        },
        {
          "internalType": "uint256",
          "name": "tokenId",
          "type": "uint256"
        }
      ],
      "name": "approve",
      "outputs": [],
      "stateMutability": "nonpayable",
      "type": "function"
    },
    {
      "inputs": [
        {
          "internalType": "address",
          "name": "owner",
          "type": "address"
        }
      ],
      "name": "balanceOf",
      "outputs": [
        {
          "internalType": "uint256",
          "name": "",
          "type": "uint256"
        }
      ],
      "stateMutability": "view",
      "type": "function",
      "constant": true
    },
    {
      "inputs": [
        {
          "internalType": "uint256",
          "name": "",
          "type": "uint256"
        }
      ],
      "name": "cardDB",
      "outputs": [
        {
          "internalType": "uint256",
          "name": "id",
          "type": "uint256"
        },
        {
          "internalType": "uint256",
          "name": "li",
          "type": "uint256"
        },
        {
          "internalType": "uint256",
          "name": "min",
          "type": "uint256"
        },
        {
          "internalType": "uint256",
          "name": "zhi",
          "type": "uint256"
        },
        {
          "internalType": "uint256",
          "name": "lv",
          "type": "uint256"
        }
      ],
      "stateMutability": "view",
      "type": "function",
      "constant": true
    },
    {
      "inputs": [
        {
          "internalType": "uint256",
          "name": "tokenId",
          "type": "uint256"
        }
      ],
      "name": "getApproved",
      "outputs": [
        {
          "internalType": "address",
          "name": "",
          "type": "address"
        }
      ],
      "stateMutability": "view",
      "type": "function",
      "constant": true
    },
    {
      "inputs": [
        {
          "internalType": "address",
          "name": "owner",
          "type": "address"
        },
        {
          "internalType": "address",
          "name": "operator",
          "type": "address"
        }
      ],
      "name": "isApprovedForAll",
      "outputs": [
        {
          "internalType": "bool",
          "name": "",
          "type": "bool"
        }
      ],
      "stateMutability": "view",
      "type": "function",
      "constant": true
    },
    {
      "inputs": [],
      "name": "name",
      "outputs": [
        {
          "internalType": "string",
          "name": "",
          "type": "string"
        }
      ],
      "stateMutability": "view",
      "type": "function",
      "constant": true
    },
    {
      "inputs": [],
      "name": "owner",
      "outputs": [
        {
          "internalType": "address",
          "name": "",
          "type": "address"
        }
      ],
      "stateMutability": "view",
      "type": "function",
      "constant": true
    },
    {
      "inputs": [
        {
          "internalType": "uint256",
          "name": "tokenId",
          "type": "uint256"
        }
      ],
      "name": "ownerOf",
      "outputs": [
        {
          "internalType": "address",
          "name": "",
          "type": "address"
        }
      ],
      "stateMutability": "view",
      "type": "function",
      "constant": true
    },
    {
      "inputs": [],
      "name": "paused",
      "outputs": [
        {
          "internalType": "bool",
          "name": "",
          "type": "bool"
        }
      ],
      "stateMutability": "view",
      "type": "function",
      "constant": true
    },
    {
      "inputs": [],
      "name": "renounceOwnership",
      "outputs": [],
      "stateMutability": "nonpayable",
      "type": "function"
    },
    {
      "inputs": [
        {
          "internalType": "address",
          "name": "from",
          "type": "address"
        },
        {
          "internalType": "address",
          "name": "to",
          "type": "address"
        },
        {
          "internalType": "uint256",
          "name": "tokenId",
          "type": "uint256"
        }
      ],
      "name": "safeTransferFrom",
      "outputs": [],
      "stateMutability": "nonpayable",
      "type": "function"
    },
    {
      "inputs": [
        {
          "internalType": "address",
          "name": "from",
          "type": "address"
        },
        {
          "internalType": "address",
          "name": "to",
          "type": "address"
        },
        {
          "internalType": "uint256",
          "name": "tokenId",
          "type": "uint256"
        },
        {
          "internalType": "bytes",
          "name": "_data",
          "type": "bytes"
        }
      ],
      "name": "safeTransferFrom",
      "outputs": [],
      "stateMutability": "nonpayable",
      "type": "function"
    },
    {
      "inputs": [
        {
          "internalType": "address",
          "name": "operator",
          "type": "address"
        },
        {
          "internalType": "bool",
          "name": "approved",
          "type": "bool"
        }
      ],
      "name": "setApprovalForAll",
      "outputs": [],
      "stateMutability": "nonpayable",
      "type": "function"
    },
    {
      "inputs": [
        {
          "internalType": "bytes4",
          "name": "interfaceId",
          "type": "bytes4"
        }
      ],
      "name": "supportsInterface",
      "outputs": [
        {
          "internalType": "bool",
          "name": "",
          "type": "bool"
        }
      ],
      "stateMutability": "view",
      "type": "function",
      "constant": true
    },
    {
      "inputs": [],
      "name": "symbol",
      "outputs": [
        {
          "internalType": "string",
          "name": "",
          "type": "string"
        }
      ],
      "stateMutability": "view",
      "type": "function",
      "constant": true
    },
    {
      "inputs": [
        {
          "internalType": "uint256",
          "name": "tokenId",
          "type": "uint256"
        }
      ],
      "name": "tokenURI",
      "outputs": [
        {
          "internalType": "string",
          "name": "",
          "type": "string"
        }
      ],
      "stateMutability": "view",
      "type": "function",
      "constant": true
    },
    {
      "inputs": [
        {
          "internalType": "address",
          "name": "from",
          "type": "address"
        },
        {
          "internalType": "address",
          "name": "to",
          "type": "address"
        },
        {
          "internalType": "uint256",
          "name": "tokenId",
          "type": "uint256"
        }
      ],
      "name": "transferFrom",
      "outputs": [],
      "stateMutability": "nonpayable",
      "type": "function"
    },
    {
      "inputs": [
        {
          "internalType": "address",
          "name": "newOwner",
          "type": "address"
        }
      ],
      "name": "transferOwnership",
      "outputs": [],
      "stateMutability": "nonpayable",
      "type": "function"
    },
    {
      "inputs": [
        {
          "internalType": "contract Diamond",
          "name": "_diamondInstance",
          "type": "address"
        },
        {
          "internalType": "contract HeroPool",
          "name": "_heroPoolInstance",
          "type": "address"
        }
      ],
      "name": "initialize",
      "outputs": [],
      "stateMutability": "nonpayable",
      "type": "function"
    },
    {
      "inputs": [
        {
          "internalType": "contract HeroPool",
          "name": "_heroPoolInstance",
          "type": "address"
        }
      ],
      "name": "setHeroPool",
      "outputs": [],
      "stateMutability": "nonpayable",
      "type": "function"
    },
    {
      "inputs": [],
      "name": "createCard",
      "outputs": [],
      "stateMutability": "payable",
      "type": "function",
      "payable": true
    },
    {
      "inputs": [
        {
          "internalType": "address",
          "name": "_addr",
          "type": "address"
        }
      ],
      "name": "getMyCards",
      "outputs": [
        {
          "internalType": "uint256[]",
          "name": "",
          "type": "uint256[]"
        },
        {
          "internalType": "uint256[]",
          "name": "",
          "type": "uint256[]"
        },
        {
          "internalType": "uint256[]",
          "name": "",
          "type": "uint256[]"
        },
        {
          "internalType": "uint256[]",
          "name": "",
          "type": "uint256[]"
        },
        {
          "internalType": "uint256[]",
          "name": "",
          "type": "uint256[]"
        },
        {
          "internalType": "uint256[]",
          "name": "",
          "type": "uint256[]"
        }
      ],
      "stateMutability": "view",
      "type": "function",
      "constant": true
    },
    {
      "inputs": [
        {
          "internalType": "uint256",
          "name": "tokenId",
          "type": "uint256"
        }
      ],
      "name": "burn",
      "outputs": [],
      "stateMutability": "nonpayable",
      "type": "function"
    },
    {
      "inputs": [
        {
          "internalType": "uint256",
          "name": "tokenId",
          "type": "uint256"
        }
      ],
      "name": "getAttr",
      "outputs": [
        {
          "internalType": "uint256",
          "name": "_id",
          "type": "uint256"
        },
        {
          "internalType": "uint256",
          "name": "_type",
          "type": "uint256"
        },
        {
          "internalType": "uint256",
          "name": "li",
          "type": "uint256"
        },
        {
          "internalType": "uint256",
          "name": "min",
          "type": "uint256"
        },
        {
          "internalType": "uint256",
          "name": "zhi",
          "type": "uint256"
        },
        {
          "internalType": "uint256",
          "name": "lv",
          "type": "uint256"
        }
      ],
      "stateMutability": "view",
      "type": "function",
      "constant": true
    }
  ],
  "bytecode": "0x608060405234801561001057600080fd5b50614da7806100206000396000f3fe60806040526004361061014b5760003560e01c806370a08231116100b6578063a22cb4651161006f578063a22cb465146104c2578063a2d256fa146104eb578063b88d4fde146104f5578063c87b56dd1461051e578063e985e9c51461055b578063f2fde38b146105985761014b565b806370a08231146103ae578063715018a6146103eb5780638da5cb5b1461040257806395d89b411461042d578063a00f6d7614610458578063a0a291d6146104995761014b565b80633da1f63c116101085780633da1f63c1461028957806342842e0e146102cb57806342966c68146102f4578063485cc9551461031d5780635c975abb146103465780636352211e146103715761014b565b806301ffc9a71461015057806306fdde031461018d578063081812fc146101b8578063095ea7b3146101f557806323b872dd1461021e57806337983aed14610247575b600080fd5b34801561015c57600080fd5b50610177600480360381019061017291906138e1565b6105c1565b6040516101849190614005565b60405180910390f35b34801561019957600080fd5b506101a26106a3565b6040516101af9190614020565b60405180910390f35b3480156101c457600080fd5b506101df60048036038101906101da91906139a8565b610735565b6040516101ec9190613e7b565b60405180910390f35b34801561020157600080fd5b5061021c60048036038101906102179190613874565b6107ba565b005b34801561022a57600080fd5b506102456004803603810190610240919061375e565b6108d2565b005b34801561025357600080fd5b5061026e600480360381019061026991906136f1565b610932565b60405161028096959493929190613f7a565b60405180910390f35b34801561029557600080fd5b506102b060048036038101906102ab91906139a8565b610cd3565b6040516102c296959493929190614339565b60405180910390f35b3480156102d757600080fd5b506102f260048036038101906102ed919061375e565b610dce565b005b34801561030057600080fd5b5061031b600480360381019061031691906139a8565b610dee565b005b34801561032957600080fd5b50610344600480360381019061033f919061393b565b610e76565b005b34801561035257600080fd5b5061035b61118f565b6040516103689190614005565b60405180910390f35b34801561037d57600080fd5b50610398600480360381019061039391906139a8565b6111a6565b6040516103a59190613e7b565b60405180910390f35b3480156103ba57600080fd5b506103d560048036038101906103d091906136f1565b611258565b6040516103e291906142a2565b60405180910390f35b3480156103f757600080fd5b50610400611310565b005b34801561040e57600080fd5b50610417611398565b6040516104249190613e7b565b60405180910390f35b34801561043957600080fd5b506104426113c2565b60405161044f9190614020565b60405180910390f35b34801561046457600080fd5b5061047f600480360381019061047a91906139a8565b611454565b6040516104909594939291906142e6565b60405180910390f35b3480156104a557600080fd5b506104c060048036038101906104bb919061397b565b61148b565b005b3480156104ce57600080fd5b506104e960048036038101906104e49190613834565b61154b565b005b6104f36116cc565b005b34801561050157600080fd5b5061051c600480360381019061051791906137b1565b611aa7565b005b34801561052a57600080fd5b50610545600480360381019061054091906139a8565b611b09565b6040516105529190614020565b60405180910390f35b34801561056757600080fd5b50610582600480360381019061057d919061371e565b611bb0565b60405161058f9190614005565b60405180910390f35b3480156105a457600080fd5b506105bf60048036038101906105ba91906136f1565b611c44565b005b60007f80ac58cd000000000000000000000000000000000000000000000000000000007bffffffffffffffffffffffffffffffffffffffffffffffffffffffff1916827bffffffffffffffffffffffffffffffffffffffffffffffffffffffff1916148061068c57507f5b5e139f000000000000000000000000000000000000000000000000000000007bffffffffffffffffffffffffffffffffffffffffffffffffffffffff1916827bffffffffffffffffffffffffffffffffffffffffffffffffffffffff1916145b8061069c575061069b82611d3c565b5b9050919050565b6060606580546106b290614601565b80601f01602080910402602001604051908101604052809291908181526020018280546106de90614601565b801561072b5780601f106107005761010080835404028352916020019161072b565b820191906000526020600020905b81548152906001019060200180831161070e57829003601f168201915b5050505050905090565b600061074082611da6565b61077f576040517f08c379a0000000000000000000000000000000000000000000000000000000008152600401610776906141e2565b60405180910390fd5b6069600083815260200190815260200160002060009054906101000a900473ffffffffffffffffffffffffffffffffffffffff169050919050565b60006107c5826111a6565b90508073ffffffffffffffffffffffffffffffffffffffff168373ffffffffffffffffffffffffffffffffffffffff161415610836576040517f08c379a000000000000000000000000000000000000000000000000000000000815260040161082d90614262565b60405180910390fd5b8073ffffffffffffffffffffffffffffffffffffffff16610855611e12565b73ffffffffffffffffffffffffffffffffffffffff16148061088457506108838161087e611e12565b611bb0565b5b6108c3576040517f08c379a00000000000000000000000000000000000000000000000000000000081526004016108ba90614142565b60405180910390fd5b6108cd8383611e1a565b505050565b6108e36108dd611e12565b82611ed3565b610922576040517f08c379a000000000000000000000000000000000000000000000000000000000815260040161091990614282565b60405180910390fd5b61092d838383611fb1565b505050565b606080606080606080600061010160008973ffffffffffffffffffffffffffffffffffffffff1673ffffffffffffffffffffffffffffffffffffffff1681526020019081526020016000208054806020026020016040519081016040528092919081815260200182805480156109c757602002820191906000526020600020905b8154815260200190600101908083116109b3575b505050505090506000815167ffffffffffffffff8111156109eb576109ea61479a565b5b604051908082528060200260200182016040528015610a195781602001602082028036833780820191505090505b5090506000825167ffffffffffffffff811115610a3957610a3861479a565b5b604051908082528060200260200182016040528015610a675781602001602082028036833780820191505090505b5090506000835167ffffffffffffffff811115610a8757610a8661479a565b5b604051908082528060200260200182016040528015610ab55781602001602082028036833780820191505090505b5090506000845167ffffffffffffffff811115610ad557610ad461479a565b5b604051908082528060200260200182016040528015610b035781602001602082028036833780820191505090505b5090506000855167ffffffffffffffff811115610b2357610b2261479a565b5b604051908082528060200260200182016040528015610b515781602001602082028036833780820191505090505b509050600086511115610cb25760005b8651811015610cb0576000878281518110610b7f57610b7e61476b565b5b60200260200101519050610100600082815260200190815260200160002060000154878381518110610bb457610bb361476b565b5b602002602001018181525050610100600082815260200190815260200160002060010154868381518110610beb57610bea61476b565b5b602002602001018181525050610100600082815260200190815260200160002060020154858381518110610c2257610c2161476b565b5b602002602001018181525050610100600082815260200190815260200160002060030154848381518110610c5957610c5861476b565b5b602002602001018181525050610100600082815260200190815260200160002060040154838381518110610c9057610c8f61476b565b5b602002602001018181525050508080610ca890614664565b915050610b61565b505b8585858585859b509b509b509b509b509b5050505050505091939550919395565b600080600080600080600061010060008981526020019081526020016000206000015411610d36576040517f08c379a0000000000000000000000000000000000000000000000000000000008152600401610d2d906140c2565b60405180910390fd5b600061010060008981526020019081526020016000206040518060a0016040529081600082015481526020016001820154815260200160028201548152602001600382015481526020016004820154815250509050806000015160ff60008981526020019081526020016000205482602001518360400151846060015185608001519650965096509650965096505091939550919395565b610de983838360405180602001604052806000815250611aa7565b505050565b610df6611e12565b73ffffffffffffffffffffffffffffffffffffffff16610e14611398565b73ffffffffffffffffffffffffffffffffffffffff1614610e6a576040517f08c379a0000000000000000000000000000000000000000000000000000000008152600401610e6190614202565b60405180910390fd5b610e738161220d565b50565b600060019054906101000a900460ff1680610e9c575060008054906101000a900460ff16155b610edb576040517f08c379a0000000000000000000000000000000000000000000000000000000008152600401610ed2906141a2565b60405180910390fd5b60008060019054906101000a900460ff161590508015610f2b576001600060016101000a81548160ff02191690831515021790555060016000806101000a81548160ff0219169083151502179055505b610f9f6040518060400160405280600d81526020017f464d20546f6b656e2043617264000000000000000000000000000000000000008152506040518060400160405280600381526020017f464d43000000000000000000000000000000000000000000000000000000000081525061231e565b610fa7612413565b610faf6124fc565b8260fb60006101000a81548173ffffffffffffffffffffffffffffffffffffffff021916908373ffffffffffffffffffffffffffffffffffffffff1602179055508160fc60006101000a81548173ffffffffffffffffffffffffffffffffffffffff021916908373ffffffffffffffffffffffffffffffffffffffff160217905550600160ff60006001815260200190815260200160002081905550600160ff60006002815260200190815260200160002081905550600160ff60006003815260200190815260200160002081905550600160ff60006004815260200190815260200160002081905550600260ff60006005815260200190815260200160002081905550600260ff60006006815260200190815260200160002081905550600260ff60006007815260200190815260200160002081905550600260ff60006008815260200190815260200160002081905550600360ff60006009815260200190815260200160002081905550600360ff6000600a815260200190815260200160002081905550600360ff6000600b815260200190815260200160002081905550600360ff6000600c815260200190815260200160002081905550801561118a5760008060016101000a81548160ff0219169083151502179055505b505050565b600060c960009054906101000a900460ff16905090565b6000806067600084815260200190815260200160002060009054906101000a900473ffffffffffffffffffffffffffffffffffffffff169050600073ffffffffffffffffffffffffffffffffffffffff168173ffffffffffffffffffffffffffffffffffffffff16141561124f576040517f08c379a000000000000000000000000000000000000000000000000000000000815260040161124690614182565b60405180910390fd5b80915050919050565b60008073ffffffffffffffffffffffffffffffffffffffff168273ffffffffffffffffffffffffffffffffffffffff1614156112c9576040517f08c379a00000000000000000000000000000000000000000000000000000000081526004016112c090614162565b60405180910390fd5b606860008373ffffffffffffffffffffffffffffffffffffffff1673ffffffffffffffffffffffffffffffffffffffff168152602001908152602001600020549050919050565b611318611e12565b73ffffffffffffffffffffffffffffffffffffffff16611336611398565b73ffffffffffffffffffffffffffffffffffffffff161461138c576040517f08c379a000000000000000000000000000000000000000000000000000000000815260040161138390614202565b60405180910390fd5b61139660006125e5565b565b6000609760009054906101000a900473ffffffffffffffffffffffffffffffffffffffff16905090565b6060606680546113d190614601565b80601f01602080910402602001604051908101604052809291908181526020018280546113fd90614601565b801561144a5780601f1061141f5761010080835404028352916020019161144a565b820191906000526020600020905b81548152906001019060200180831161142d57829003601f168201915b5050505050905090565b6101006020528060005260406000206000915090508060000154908060010154908060020154908060030154908060040154905085565b611493611e12565b73ffffffffffffffffffffffffffffffffffffffff166114b1611398565b73ffffffffffffffffffffffffffffffffffffffff1614611507576040517f08c379a00000000000000000000000000000000000000000000000000000000081526004016114fe90614202565b60405180910390fd5b8060fc60006101000a81548173ffffffffffffffffffffffffffffffffffffffff021916908373ffffffffffffffffffffffffffffffffffffffff16021790555050565b611553611e12565b73ffffffffffffffffffffffffffffffffffffffff168273ffffffffffffffffffffffffffffffffffffffff1614156115c1576040517f08c379a00000000000000000000000000000000000000000000000000000000081526004016115b890614102565b60405180910390fd5b80606a60006115ce611e12565b73ffffffffffffffffffffffffffffffffffffffff1673ffffffffffffffffffffffffffffffffffffffff16815260200190815260200160002060008473ffffffffffffffffffffffffffffffffffffffff1673ffffffffffffffffffffffffffffffffffffffff16815260200190815260200160002060006101000a81548160ff0219169083151502179055508173ffffffffffffffffffffffffffffffffffffffff1661167b611e12565b73ffffffffffffffffffffffffffffffffffffffff167f17307eab39ab6107e8899845ad3d59bd9653f200f220920489ca2b5937696c31836040516116c09190614005565b60405180910390a35050565b6000670de0b6b3a764000090508060fb60009054906101000a900473ffffffffffffffffffffffffffffffffffffffff1673ffffffffffffffffffffffffffffffffffffffff166370a08231336040518263ffffffff1660e01b81526004016117359190613e7b565b60206040518083038186803b15801561174d57600080fd5b505afa158015611761573d6000803e3d6000fd5b505050506040513d601f19601f8201168201806040525081019061178591906139d5565b10156117c6576040517f08c379a00000000000000000000000000000000000000000000000000000000081526004016117bd90614042565b60405180910390fd5b60fb60009054906101000a900473ffffffffffffffffffffffffffffffffffffffff1673ffffffffffffffffffffffffffffffffffffffff166323b872dd3360fb60009054906101000a900473ffffffffffffffffffffffffffffffffffffffff16846040518463ffffffff1660e01b815260040161184793929190613e96565b602060405180830381600087803b15801561186157600080fd5b505af1158015611875573d6000803e3d6000fd5b505050506040513d601f19601f8201168201806040525081019061189991906138b4565b50600060fe600081546118ab90614664565b919050819055905060008060008060fc60009054906101000a900473ffffffffffffffffffffffffffffffffffffffff1673ffffffffffffffffffffffffffffffffffffffff166395032b6260fd6000815461190690614664565b9190508190556101026000611919611e12565b73ffffffffffffffffffffffffffffffffffffffff1673ffffffffffffffffffffffffffffffffffffffff1681526020019081526020016000206000815461196090614664565b9190508190556040518363ffffffff1660e01b81526004016119839291906142bd565b60806040518083038186803b15801561199b57600080fd5b505afa1580156119af573d6000803e3d6000fd5b505050506040513d601f19601f820116820180604052508101906119d39190613a02565b809450819550829650839750505050506040518060a00160405280858152602001848152602001838152602001828152602001600181525061010060008781526020019081526020016000206000820151816000015560208201518160010155604082015181600201556060820151816003015560808201518160040155905050611a5e33866126ab565b7fc6d093197649ec1fafeca555c8e2a8fe66ade0217ceb9f230c3344632d2586e7338686868686604051611a9796959493929190613f19565b60405180910390a1505050505050565b611ab8611ab2611e12565b83611ed3565b611af7576040517f08c379a0000000000000000000000000000000000000000000000000000000008152600401611aee90614282565b60405180910390fd5b611b0384848484612879565b50505050565b6060611b1482611da6565b611b53576040517f08c379a0000000000000000000000000000000000000000000000000000000008152600401611b4a90614242565b60405180910390fd5b6000611b5d6128d5565b90506000815111611b7d5760405180602001604052806000815250611ba8565b80611b87846128ec565b604051602001611b98929190613e57565b6040516020818303038152906040525b915050919050565b6000606a60008473ffffffffffffffffffffffffffffffffffffffff1673ffffffffffffffffffffffffffffffffffffffff16815260200190815260200160002060008373ffffffffffffffffffffffffffffffffffffffff1673ffffffffffffffffffffffffffffffffffffffff16815260200190815260200160002060009054906101000a900460ff16905092915050565b611c4c611e12565b73ffffffffffffffffffffffffffffffffffffffff16611c6a611398565b73ffffffffffffffffffffffffffffffffffffffff1614611cc0576040517f08c379a0000000000000000000000000000000000000000000000000000000008152600401611cb790614202565b60405180910390fd5b600073ffffffffffffffffffffffffffffffffffffffff168173ffffffffffffffffffffffffffffffffffffffff161415611d30576040517f08c379a0000000000000000000000000000000000000000000000000000000008152600401611d2790614082565b60405180910390fd5b611d39816125e5565b50565b60007f01ffc9a7000000000000000000000000000000000000000000000000000000007bffffffffffffffffffffffffffffffffffffffffffffffffffffffff1916827bffffffffffffffffffffffffffffffffffffffffffffffffffffffff1916149050919050565b60008073ffffffffffffffffffffffffffffffffffffffff166067600084815260200190815260200160002060009054906101000a900473ffffffffffffffffffffffffffffffffffffffff1673ffffffffffffffffffffffffffffffffffffffff1614159050919050565b600033905090565b816069600083815260200190815260200160002060006101000a81548173ffffffffffffffffffffffffffffffffffffffff021916908373ffffffffffffffffffffffffffffffffffffffff160217905550808273ffffffffffffffffffffffffffffffffffffffff16611e8d836111a6565b73ffffffffffffffffffffffffffffffffffffffff167f8c5be1e5ebec7d5bd14f71427d1e84f3dd0314c0f7b2291e5b200ac8c7c3b92560405160405180910390a45050565b6000611ede82611da6565b611f1d576040517f08c379a0000000000000000000000000000000000000000000000000000000008152600401611f1490614122565b60405180910390fd5b6000611f28836111a6565b90508073ffffffffffffffffffffffffffffffffffffffff168473ffffffffffffffffffffffffffffffffffffffff161480611f9757508373ffffffffffffffffffffffffffffffffffffffff16611f7f84610735565b73ffffffffffffffffffffffffffffffffffffffff16145b80611fa85750611fa78185611bb0565b5b91505092915050565b8273ffffffffffffffffffffffffffffffffffffffff16611fd1826111a6565b73ffffffffffffffffffffffffffffffffffffffff1614612027576040517f08c379a000000000000000000000000000000000000000000000000000000000815260040161201e90614222565b60405180910390fd5b600073ffffffffffffffffffffffffffffffffffffffff168273ffffffffffffffffffffffffffffffffffffffff161415612097576040517f08c379a000000000000000000000000000000000000000000000000000000000815260040161208e906140e2565b60405180910390fd5b6120a2838383612a4d565b6120ad600082611e1a565b6001606860008573ffffffffffffffffffffffffffffffffffffffff1673ffffffffffffffffffffffffffffffffffffffff16815260200190815260200160002060008282546120fd91906144f3565b925050819055506001606860008473ffffffffffffffffffffffffffffffffffffffff1673ffffffffffffffffffffffffffffffffffffffff1681526020019081526020016000206000828254612154919061446c565b92505081905550816067600083815260200190815260200160002060006101000a81548173ffffffffffffffffffffffffffffffffffffffff021916908373ffffffffffffffffffffffffffffffffffffffff160217905550808273ffffffffffffffffffffffffffffffffffffffff168473ffffffffffffffffffffffffffffffffffffffff167fddf252ad1be2c89b69c2b068fc378daa952ba7f163c4a11628f55a4df523b3ef60405160405180910390a4505050565b6000612218826111a6565b905061222681600084612a4d565b612231600083611e1a565b6001606860008373ffffffffffffffffffffffffffffffffffffffff1673ffffffffffffffffffffffffffffffffffffffff168152602001908152602001600020600082825461228191906144f3565b925050819055506067600083815260200190815260200160002060006101000a81549073ffffffffffffffffffffffffffffffffffffffff021916905581600073ffffffffffffffffffffffffffffffffffffffff168273ffffffffffffffffffffffffffffffffffffffff167fddf252ad1be2c89b69c2b068fc378daa952ba7f163c4a11628f55a4df523b3ef60405160405180910390a45050565b600060019054906101000a900460ff1680612344575060008054906101000a900460ff16155b612383576040517f08c379a000000000000000000000000000000000000000000000000000000000815260040161237a906141a2565b60405180910390fd5b60008060019054906101000a900460ff1615905080156123d3576001600060016101000a81548160ff02191690831515021790555060016000806101000a81548160ff0219169083151502179055505b6123db612e92565b6123e3612f6b565b6123ed8383613044565b801561240e5760008060016101000a81548160ff0219169083151502179055505b505050565b600060019054906101000a900460ff1680612439575060008054906101000a900460ff16155b612478576040517f08c379a000000000000000000000000000000000000000000000000000000000815260040161246f906141a2565b60405180910390fd5b60008060019054906101000a900460ff1615905080156124c8576001600060016101000a81548160ff02191690831515021790555060016000806101000a81548160ff0219169083151502179055505b6124d0612e92565b6124d861314d565b80156124f95760008060016101000a81548160ff0219169083151502179055505b50565b600060019054906101000a900460ff1680612522575060008054906101000a900460ff16155b612561576040517f08c379a0000000000000000000000000000000000000000000000000000000008152600401612558906141a2565b60405180910390fd5b60008060019054906101000a900460ff1615905080156125b1576001600060016101000a81548160ff02191690831515021790555060016000806101000a81548160ff0219169083151502179055505b6125b9612e92565b6125c1613236565b80156125e25760008060016101000a81548160ff0219169083151502179055505b50565b6000609760009054906101000a900473ffffffffffffffffffffffffffffffffffffffff16905081609760006101000a81548173ffffffffffffffffffffffffffffffffffffffff021916908373ffffffffffffffffffffffffffffffffffffffff1602179055508173ffffffffffffffffffffffffffffffffffffffff168173ffffffffffffffffffffffffffffffffffffffff167f8be0079c531659141344cd1fd0a4f28419497f9722a3daafe3b4186f6b6457e060405160405180910390a35050565b600073ffffffffffffffffffffffffffffffffffffffff168273ffffffffffffffffffffffffffffffffffffffff16141561271b576040517f08c379a0000000000000000000000000000000000000000000000000000000008152600401612712906141c2565b60405180910390fd5b61272481611da6565b15612764576040517f08c379a000000000000000000000000000000000000000000000000000000000815260040161275b906140a2565b60405180910390fd5b61277060008383612a4d565b6001606860008473ffffffffffffffffffffffffffffffffffffffff1673ffffffffffffffffffffffffffffffffffffffff16815260200190815260200160002060008282546127c0919061446c565b92505081905550816067600083815260200190815260200160002060006101000a81548173ffffffffffffffffffffffffffffffffffffffff021916908373ffffffffffffffffffffffffffffffffffffffff160217905550808273ffffffffffffffffffffffffffffffffffffffff16600073ffffffffffffffffffffffffffffffffffffffff167fddf252ad1be2c89b69c2b068fc378daa952ba7f163c4a11628f55a4df523b3ef60405160405180910390a45050565b612884848484611fb1565b6128908484848461332a565b6128cf576040517f08c379a00000000000000000000000000000000000000000000000000000000081526004016128c690614062565b60405180910390fd5b50505050565b606060405180602001604052806000815250905090565b60606000821415612934576040518060400160405280600181526020017f30000000000000000000000000000000000000000000000000000000000000008152509050612a48565b600082905060005b6000821461296657808061294f90614664565b915050600a8261295f91906144c2565b915061293c565b60008167ffffffffffffffff8111156129825761298161479a565b5b6040519080825280601f01601f1916602001820160405280156129b45781602001600182028036833780820191505090505b5090505b60008514612a41576001826129cd91906144f3565b9150600a856129dc91906146ad565b60306129e8919061446c565b60f81b8183815181106129fe576129fd61476b565b5b60200101907effffffffffffffffffffffffffffffffffffffffffffffffffffffffffffff1916908160001a905350600a85612a3a91906144c2565b94506129b8565b8093505050505b919050565b600073ffffffffffffffffffffffffffffffffffffffff168373ffffffffffffffffffffffffffffffffffffffff1614612d72576000600161010160008673ffffffffffffffffffffffffffffffffffffffff1673ffffffffffffffffffffffffffffffffffffffff16815260200190815260200160002080549050612ad391906144f3565b67ffffffffffffffff811115612aec57612aeb61479a565b5b604051908082528060200260200182016040528015612b1a5781602001602082028036833780820191505090505b509050600161010160008673ffffffffffffffffffffffffffffffffffffffff1673ffffffffffffffffffffffffffffffffffffffff168152602001908152602001600020805490501115612d1b57600080600090505b61010160008773ffffffffffffffffffffffffffffffffffffffff1673ffffffffffffffffffffffffffffffffffffffff16815260200190815260200160002080549050811015612cbd578361010160008873ffffffffffffffffffffffffffffffffffffffff1673ffffffffffffffffffffffffffffffffffffffff1681526020019081526020016000208281548110612c0f57612c0e61476b565b5b906000526020600020015414612caa5761010160008773ffffffffffffffffffffffffffffffffffffffff1673ffffffffffffffffffffffffffffffffffffffff1681526020019081526020016000208181548110612c7157612c7061476b565b5b9060005260206000200154838381518110612c8f57612c8e61476b565b5b6020026020010181815250508180612ca690614664565b9250505b8080612cb590614664565b915050612b71565b50600161010160008773ffffffffffffffffffffffffffffffffffffffff1673ffffffffffffffffffffffffffffffffffffffff16815260200190815260200160002080549050612d0e91906144f3565b8114612d1957600080fd5b505b8061010160008673ffffffffffffffffffffffffffffffffffffffff1673ffffffffffffffffffffffffffffffffffffffff1681526020019081526020016000209080519060200190612d6f9291906134d4565b50505b600073ffffffffffffffffffffffffffffffffffffffff168273ffffffffffffffffffffffffffffffffffffffff1614612e125761010160008373ffffffffffffffffffffffffffffffffffffffff1673ffffffffffffffffffffffffffffffffffffffff168152602001908152602001600020819080600181540180825580915050600190039060005260206000200160009091909190915055612e52565b6101006000828152602001908152602001600020600080820160009055600182016000905560028201600090556003820160009055600482016000905550505b7f4814987054d8fe344e5b80282e88b055b8f4bd467e8762c163d855819694b8a6838383604051612e8593929190613e96565b60405180910390a1505050565b600060019054906101000a900460ff1680612eb8575060008054906101000a900460ff16155b612ef7576040517f08c379a0000000000000000000000000000000000000000000000000000000008152600401612eee906141a2565b60405180910390fd5b60008060019054906101000a900460ff161590508015612f47576001600060016101000a81548160ff02191690831515021790555060016000806101000a81548160ff0219169083151502179055505b8015612f685760008060016101000a81548160ff0219169083151502179055505b50565b600060019054906101000a900460ff1680612f91575060008054906101000a900460ff16155b612fd0576040517f08c379a0000000000000000000000000000000000000000000000000000000008152600401612fc7906141a2565b60405180910390fd5b60008060019054906101000a900460ff161590508015613020576001600060016101000a81548160ff02191690831515021790555060016000806101000a81548160ff0219169083151502179055505b80156130415760008060016101000a81548160ff0219169083151502179055505b50565b600060019054906101000a900460ff168061306a575060008054906101000a900460ff16155b6130a9576040517f08c379a00000000000000000000000000000000000000000000000000000000081526004016130a0906141a2565b60405180910390fd5b60008060019054906101000a900460ff1615905080156130f9576001600060016101000a81548160ff02191690831515021790555060016000806101000a81548160ff0219169083151502179055505b826065908051906020019061310f929190613521565b508160669080519060200190613126929190613521565b5080156131485760008060016101000a81548160ff0219169083151502179055505b505050565b600060019054906101000a900460ff1680613173575060008054906101000a900460ff16155b6131b2576040517f08c379a00000000000000000000000000000000000000000000000000000000081526004016131a9906141a2565b60405180910390fd5b60008060019054906101000a900460ff161590508015613202576001600060016101000a81548160ff02191690831515021790555060016000806101000a81548160ff0219169083151502179055505b61321261320d611e12565b6125e5565b80156132335760008060016101000a81548160ff0219169083151502179055505b50565b600060019054906101000a900460ff168061325c575060008054906101000a900460ff16155b61329b576040517f08c379a0000000000000000000000000000000000000000000000000000000008152600401613292906141a2565b60405180910390fd5b60008060019054906101000a900460ff1615905080156132eb576001600060016101000a81548160ff02191690831515021790555060016000806101000a81548160ff0219169083151502179055505b600060c960006101000a81548160ff02191690831515021790555080156133275760008060016101000a81548160ff0219169083151502179055505b50565b600061334b8473ffffffffffffffffffffffffffffffffffffffff166134c1565b156134b4578373ffffffffffffffffffffffffffffffffffffffff1663150b7a02613374611e12565b8786866040518563ffffffff1660e01b81526004016133969493929190613ecd565b602060405180830381600087803b1580156133b057600080fd5b505af19250505080156133e157506040513d601f19601f820116820180604052508101906133de919061390e565b60015b613464573d8060008114613411576040519150601f19603f3d011682016040523d82523d6000602084013e613416565b606091505b5060008151141561345c576040517f08c379a000000000000000000000000000000000000000000000000000000000815260040161345390614062565b60405180910390fd5b805181602001fd5b63150b7a0260e01b7bffffffffffffffffffffffffffffffffffffffffffffffffffffffff1916817bffffffffffffffffffffffffffffffffffffffffffffffffffffffff1916149150506134b9565b600190505b949350505050565b600080823b905060008111915050919050565b828054828255906000526020600020908101928215613510579160200282015b8281111561350f5782518255916020019190600101906134f4565b5b50905061351d91906135a7565b5090565b82805461352d90614601565b90600052602060002090601f01602090048101928261354f5760008555613596565b82601f1061356857805160ff1916838001178555613596565b82800160010185558215613596579182015b8281111561359557825182559160200191906001019061357a565b5b5090506135a391906135a7565b5090565b5b808211156135c05760008160009055506001016135a8565b5090565b60006135d76135d2846143bf565b61439a565b9050828152602081018484840111156135f3576135f26147ce565b5b6135fe8482856145bf565b509392505050565b60008135905061361581614ce7565b92915050565b60008135905061362a81614cfe565b92915050565b60008151905061363f81614cfe565b92915050565b60008135905061365481614d15565b92915050565b60008151905061366981614d15565b92915050565b600082601f830112613684576136836147c9565b5b81356136948482602086016135c4565b91505092915050565b6000813590506136ac81614d2c565b92915050565b6000813590506136c181614d43565b92915050565b6000813590506136d681614d5a565b92915050565b6000815190506136eb81614d5a565b92915050565b600060208284031215613707576137066147d8565b5b600061371584828501613606565b91505092915050565b60008060408385031215613735576137346147d8565b5b600061374385828601613606565b925050602061375485828601613606565b9150509250929050565b600080600060608486031215613777576137766147d8565b5b600061378586828701613606565b935050602061379686828701613606565b92505060406137a7868287016136c7565b9150509250925092565b600080600080608085870312156137cb576137ca6147d8565b5b60006137d987828801613606565b94505060206137ea87828801613606565b93505060406137fb878288016136c7565b925050606085013567ffffffffffffffff81111561381c5761381b6147d3565b5b6138288782880161366f565b91505092959194509250565b6000806040838503121561384b5761384a6147d8565b5b600061385985828601613606565b925050602061386a8582860161361b565b9150509250929050565b6000806040838503121561388b5761388a6147d8565b5b600061389985828601613606565b92505060206138aa858286016136c7565b9150509250929050565b6000602082840312156138ca576138c96147d8565b5b60006138d884828501613630565b91505092915050565b6000602082840312156138f7576138f66147d8565b5b600061390584828501613645565b91505092915050565b600060208284031215613924576139236147d8565b5b60006139328482850161365a565b91505092915050565b60008060408385031215613952576139516147d8565b5b60006139608582860161369d565b9250506020613971858286016136b2565b9150509250929050565b600060208284031215613991576139906147d8565b5b600061399f848285016136b2565b91505092915050565b6000602082840312156139be576139bd6147d8565b5b60006139cc848285016136c7565b91505092915050565b6000602082840312156139eb576139ea6147d8565b5b60006139f9848285016136dc565b91505092915050565b60008060008060808587031215613a1c57613a1b6147d8565b5b6000613a2a878288016136dc565b9450506020613a3b878288016136dc565b9350506040613a4c878288016136dc565b9250506060613a5d878288016136dc565b91505092959194509250565b6000613a758383613e39565b60208301905092915050565b613a8a81614527565b82525050565b6000613a9b82614400565b613aa5818561442e565b9350613ab0836143f0565b8060005b83811015613ae1578151613ac88882613a69565b9750613ad383614421565b925050600181019050613ab4565b5085935050505092915050565b613af781614539565b82525050565b6000613b088261440b565b613b12818561443f565b9350613b228185602086016145ce565b613b2b816147dd565b840191505092915050565b6000613b4182614416565b613b4b8185614450565b9350613b5b8185602086016145ce565b613b64816147dd565b840191505092915050565b6000613b7a82614416565b613b848185614461565b9350613b948185602086016145ce565b80840191505092915050565b6000613bad601283614450565b9150613bb8826147ee565b602082019050919050565b6000613bd0603283614450565b9150613bdb82614817565b604082019050919050565b6000613bf3602683614450565b9150613bfe82614866565b604082019050919050565b6000613c16601c83614450565b9150613c21826148b5565b602082019050919050565b6000613c39601c83614450565b9150613c44826148de565b602082019050919050565b6000613c5c602483614450565b9150613c6782614907565b604082019050919050565b6000613c7f601983614450565b9150613c8a82614956565b602082019050919050565b6000613ca2602c83614450565b9150613cad8261497f565b604082019050919050565b6000613cc5603883614450565b9150613cd0826149ce565b604082019050919050565b6000613ce8602a83614450565b9150613cf382614a1d565b604082019050919050565b6000613d0b602983614450565b9150613d1682614a6c565b604082019050919050565b6000613d2e602e83614450565b9150613d3982614abb565b604082019050919050565b6000613d51602083614450565b9150613d5c82614b0a565b602082019050919050565b6000613d74602c83614450565b9150613d7f82614b33565b604082019050919050565b6000613d97602083614450565b9150613da282614b82565b602082019050919050565b6000613dba602983614450565b9150613dc582614bab565b604082019050919050565b6000613ddd602f83614450565b9150613de882614bfa565b604082019050919050565b6000613e00602183614450565b9150613e0b82614c49565b604082019050919050565b6000613e23603183614450565b9150613e2e82614c98565b604082019050919050565b613e42816145b5565b82525050565b613e51816145b5565b82525050565b6000613e638285613b6f565b9150613e6f8284613b6f565b91508190509392505050565b6000602082019050613e906000830184613a81565b92915050565b6000606082019050613eab6000830186613a81565b613eb86020830185613a81565b613ec56040830184613e48565b949350505050565b6000608082019050613ee26000830187613a81565b613eef6020830186613a81565b613efc6040830185613e48565b8181036060830152613f0e8184613afd565b905095945050505050565b600060c082019050613f2e6000830189613a81565b613f3b6020830188613e48565b613f486040830187613e48565b613f556060830186613e48565b613f626080830185613e48565b613f6f60a0830184613e48565b979650505050505050565b600060c0820190508181036000830152613f948189613a90565b90508181036020830152613fa88188613a90565b90508181036040830152613fbc8187613a90565b90508181036060830152613fd08186613a90565b90508181036080830152613fe48185613a90565b905081810360a0830152613ff88184613a90565b9050979650505050505050565b600060208201905061401a6000830184613aee565b92915050565b6000602082019050818103600083015261403a8184613b36565b905092915050565b6000602082019050818103600083015261405b81613ba0565b9050919050565b6000602082019050818103600083015261407b81613bc3565b9050919050565b6000602082019050818103600083015261409b81613be6565b9050919050565b600060208201905081810360008301526140bb81613c09565b9050919050565b600060208201905081810360008301526140db81613c2c565b9050919050565b600060208201905081810360008301526140fb81613c4f565b9050919050565b6000602082019050818103600083015261411b81613c72565b9050919050565b6000602082019050818103600083015261413b81613c95565b9050919050565b6000602082019050818103600083015261415b81613cb8565b9050919050565b6000602082019050818103600083015261417b81613cdb565b9050919050565b6000602082019050818103600083015261419b81613cfe565b9050919050565b600060208201905081810360008301526141bb81613d21565b9050919050565b600060208201905081810360008301526141db81613d44565b9050919050565b600060208201905081810360008301526141fb81613d67565b9050919050565b6000602082019050818103600083015261421b81613d8a565b9050919050565b6000602082019050818103600083015261423b81613dad565b9050919050565b6000602082019050818103600083015261425b81613dd0565b9050919050565b6000602082019050818103600083015261427b81613df3565b9050919050565b6000602082019050818103600083015261429b81613e16565b9050919050565b60006020820190506142b76000830184613e48565b92915050565b60006040820190506142d26000830185613e48565b6142df6020830184613e48565b9392505050565b600060a0820190506142fb6000830188613e48565b6143086020830187613e48565b6143156040830186613e48565b6143226060830185613e48565b61432f6080830184613e48565b9695505050505050565b600060c08201905061434e6000830189613e48565b61435b6020830188613e48565b6143686040830187613e48565b6143756060830186613e48565b6143826080830185613e48565b61438f60a0830184613e48565b979650505050505050565b60006143a46143b5565b90506143b08282614633565b919050565b6000604051905090565b600067ffffffffffffffff8211156143da576143d961479a565b5b6143e3826147dd565b9050602081019050919050565b6000819050602082019050919050565b600081519050919050565b600081519050919050565b600081519050919050565b6000602082019050919050565b600082825260208201905092915050565b600082825260208201905092915050565b600082825260208201905092915050565b600081905092915050565b6000614477826145b5565b9150614482836145b5565b9250827fffffffffffffffffffffffffffffffffffffffffffffffffffffffffffffffff038211156144b7576144b66146de565b5b828201905092915050565b60006144cd826145b5565b91506144d8836145b5565b9250826144e8576144e761470d565b5b828204905092915050565b60006144fe826145b5565b9150614509836145b5565b92508282101561451c5761451b6146de565b5b828203905092915050565b600061453282614595565b9050919050565b60008115159050919050565b60007fffffffff0000000000000000000000000000000000000000000000000000000082169050919050565b600061457c82614527565b9050919050565b600061458e82614527565b9050919050565b600073ffffffffffffffffffffffffffffffffffffffff82169050919050565b6000819050919050565b82818337600083830152505050565b60005b838110156145ec5780820151818401526020810190506145d1565b838111156145fb576000848401525b50505050565b6000600282049050600182168061461957607f821691505b6020821081141561462d5761462c61473c565b5b50919050565b61463c826147dd565b810181811067ffffffffffffffff8211171561465b5761465a61479a565b5b80604052505050565b600061466f826145b5565b91507fffffffffffffffffffffffffffffffffffffffffffffffffffffffffffffffff8214156146a2576146a16146de565b5b600182019050919050565b60006146b8826145b5565b91506146c3836145b5565b9250826146d3576146d261470d565b5b828206905092915050565b7f4e487b7100000000000000000000000000000000000000000000000000000000600052601160045260246000fd5b7f4e487b7100000000000000000000000000000000000000000000000000000000600052601260045260246000fd5b7f4e487b7100000000000000000000000000000000000000000000000000000000600052602260045260246000fd5b7f4e487b7100000000000000000000000000000000000000000000000000000000600052603260045260246000fd5b7f4e487b7100000000000000000000000000000000000000000000000000000000600052604160045260246000fd5b600080fd5b600080fd5b600080fd5b600080fd5b6000601f19601f8301169050919050565b7f62616c616e6365203c2072657175697265640000000000000000000000000000600082015250565b7f4552433732313a207472616e7366657220746f206e6f6e20455243373231526560008201527f63656976657220696d706c656d656e7465720000000000000000000000000000602082015250565b7f4f776e61626c653a206e6577206f776e657220697320746865207a65726f206160008201527f6464726573730000000000000000000000000000000000000000000000000000602082015250565b7f4552433732313a20746f6b656e20616c7265616479206d696e74656400000000600082015250565b7f6469646e6f7420666f756e64207468697320746f6b656e206174747200000000600082015250565b7f4552433732313a207472616e7366657220746f20746865207a65726f2061646460008201527f7265737300000000000000000000000000000000000000000000000000000000602082015250565b7f4552433732313a20617070726f766520746f2063616c6c657200000000000000600082015250565b7f4552433732313a206f70657261746f7220717565727920666f72206e6f6e657860008201527f697374656e7420746f6b656e0000000000000000000000000000000000000000602082015250565b7f4552433732313a20617070726f76652063616c6c6572206973206e6f74206f7760008201527f6e6572206e6f7220617070726f76656420666f7220616c6c0000000000000000602082015250565b7f4552433732313a2062616c616e636520717565727920666f7220746865207a6560008201527f726f206164647265737300000000000000000000000000000000000000000000602082015250565b7f4552433732313a206f776e657220717565727920666f72206e6f6e657869737460008201527f656e7420746f6b656e0000000000000000000000000000000000000000000000602082015250565b7f496e697469616c697a61626c653a20636f6e747261637420697320616c72656160008201527f647920696e697469616c697a6564000000000000000000000000000000000000602082015250565b7f4552433732313a206d696e7420746f20746865207a65726f2061646472657373600082015250565b7f4552433732313a20617070726f76656420717565727920666f72206e6f6e657860008201527f697374656e7420746f6b656e0000000000000000000000000000000000000000602082015250565b7f4f776e61626c653a2063616c6c6572206973206e6f7420746865206f776e6572600082015250565b7f4552433732313a207472616e73666572206f6620746f6b656e2074686174206960008201527f73206e6f74206f776e0000000000000000000000000000000000000000000000602082015250565b7f4552433732314d657461646174613a2055524920717565727920666f72206e6f60008201527f6e6578697374656e7420746f6b656e0000000000000000000000000000000000602082015250565b7f4552433732313a20617070726f76616c20746f2063757272656e74206f776e6560008201527f7200000000000000000000000000000000000000000000000000000000000000602082015250565b7f4552433732313a207472616e736665722063616c6c6572206973206e6f74206f60008201527f776e6572206e6f7220617070726f766564000000000000000000000000000000602082015250565b614cf081614527565b8114614cfb57600080fd5b50565b614d0781614539565b8114614d1257600080fd5b50565b614d1e81614545565b8114614d2957600080fd5b50565b614d3581614571565b8114614d4057600080fd5b50565b614d4c81614583565b8114614d5757600080fd5b50565b614d63816145b5565b8114614d6e57600080fd5b5056fea2646970667358221220df5544f56ba97143a0f10094a65a6cfd3e67defeb23ff12669ffdedada926bde64736f6c63430008070033",
  "immutableReferences": {},
  "source": "// SPDX-License-Identifier: MIT\r\npragma solidity ^0.8.0;\r\n\r\nimport \"@openzeppelin/contracts-upgradeable/token/ERC721/ERC721Upgradeable.sol\";\r\nimport \"@openzeppelin/contracts-upgradeable/access/OwnableUpgradeable.sol\";\r\nimport \"@openzeppelin/contracts-upgradeable/security/PausableUpgradeable.sol\";\r\nimport \"./Diamond.sol\";\r\nimport \"./lib/HeroPool.sol\";\r\n\r\n/** / */\r\ncontract NftHero is ERC721Upgradeable,OwnableUpgradeable,PausableUpgradeable {\r\n\r\n    Diamond diamondInstance;\r\n    HeroPool heroPoolInstance;\r\n\r\n    //\r\n    uint256 totalRandTimes;\r\n    //tokenID\r\n    uint256 private countor;\r\n    //id,\r\n    mapping(uint256 => uint256) herosType;\r\n    //\r\n    struct HeroInfo {\r\n        uint id;\r\n        uint li; //\r\n        uint min; //\r\n        uint zhi; //\r\n        uint lv; //\r\n    }\r\n    //\r\n    // tokenId => HeroInfo\r\n    mapping(uint256 => HeroInfo) public cardDB;\r\n    // => tokens\r\n    mapping(address => uint256[]) private tokenDB;\r\n    //\r\n    mapping(address => uint) private userRandtimes;\r\n\r\n    function initialize(Diamond _diamondInstance, HeroPool _heroPoolInstance) public initializer {\r\n        __ERC721_init(\"FM Token Card\", \"FMC\");\r\n        __Ownable_init();\r\n        __Pausable_init();\r\n        \r\n        diamondInstance = _diamondInstance;\r\n        heroPoolInstance = _heroPoolInstance;\r\n\r\n        herosType[1] = 1;\r\n        herosType[2] = 1;\r\n        herosType[3] = 1;\r\n        herosType[4] = 1;\r\n        herosType[5] = 2;\r\n        herosType[6] = 2;\r\n        herosType[7] = 2;\r\n        herosType[8] = 2;\r\n        herosType[9] = 3;\r\n        herosType[10] = 3;\r\n        herosType[11] = 3;\r\n        herosType[12] = 3;\r\n    }\r\n\r\n    function setHeroPool( HeroPool _heroPoolInstance) public onlyOwner {\r\n        heroPoolInstance = _heroPoolInstance;\r\n    }\r\n\r\n    /**  */\r\n    function createCard() public payable {\r\n        uint256 cost = 1 * 1e18;\r\n        require(\r\n            diamondInstance.balanceOf(msg.sender) >= cost,\r\n            \"balance < required\"\r\n        );\r\n        diamondInstance.transferFrom(msg.sender, address(diamondInstance), cost);\r\n\r\n        uint256 _tokenId = ++countor;\r\n\r\n        //\r\n        uint id; uint li; uint min; uint zhi;\r\n        (id,li,min,zhi) = heroPoolInstance.rand(++totalRandTimes,  ++userRandtimes[_msgSender()]);\r\n        cardDB[_tokenId] = HeroInfo(id,li,min,zhi,1);\r\n\r\n        //mint_beforeTokenTransfer\r\n        super._mint(msg.sender, _tokenId);\r\n        emit createCardEvent(msg.sender, _tokenId, id,li,min,zhi);\r\n    }\r\n\r\n    /**  */\r\n    function getMyCards(address _addr) public view returns ( uint256[] memory, uint[] memory, uint[] memory, uint[] memory, uint[] memory, uint[] memory) {\r\n        uint256[] memory _tokens = tokenDB[_addr];\r\n        uint[] memory _hero_ids = new uint[](_tokens.length);\r\n        uint[] memory _li = new uint[](_tokens.length);\r\n        uint[] memory _min = new uint[](_tokens.length);\r\n        uint[] memory _zhi = new uint[](_tokens.length);\r\n        uint[] memory _lv = new uint[](_tokens.length);\r\n\r\n        if (_tokens.length > 0) {\r\n            for (uint i=0; i<_tokens.length; i++) {\r\n                uint256 _tokenId = _tokens[i];\r\n                _hero_ids[i] = cardDB[ _tokenId ].id;\r\n                _li[i] = cardDB[ _tokenId ].li;\r\n                _min[i] = cardDB[ _tokenId ].min;\r\n                _zhi[i] = cardDB[ _tokenId ].zhi;\r\n                _lv[i] = cardDB[ _tokenId ].lv;\r\n            }\r\n        }\r\n\r\n        return (_tokens, _hero_ids, _li, _min, _zhi, _lv);\r\n    }\r\n\r\n    //token\r\n    function burn(uint256 tokenId) public onlyOwner {\r\n        _burn(tokenId);\r\n    }\r\n\r\n    /* nft */\r\n    function _beforeTokenTransfer(address from, address to, uint256 tokenId) internal override {\r\n        if (from != address(0)) {\r\n            uint256[] memory newUserTokens = new uint256[](tokenDB[from].length - 1);\r\n            if (tokenDB[from].length > 1) {\r\n                uint256 realLen;\r\n                for (uint i=0; i<tokenDB[from].length; i++) {\r\n                    if (tokenDB[from][i] != tokenId) {\r\n                        newUserTokens[realLen] = tokenDB[from][i];\r\n                        realLen ++;\r\n                    }\r\n                }\r\n                require(realLen == tokenDB[from].length - 1);\r\n            }\r\n            tokenDB[from] = newUserTokens;\r\n        }\r\n\r\n        if (to != address(0)) {\r\n            tokenDB[to].push(tokenId);\r\n        } else {\r\n            delete cardDB[tokenId];\r\n        }\r\n        \r\n        emit transferCardEvent(from, to, tokenId);\r\n    }\r\n\r\n    /**  */\r\n    function getAttr(uint256 tokenId) public view returns (uint256 _id, uint256 _type, uint256 li, uint256 min, uint256 zhi, uint lv)  {\r\n        require(cardDB[tokenId].id > 0, \"didnot found this token attr\");\r\n        HeroInfo memory info = cardDB[tokenId];\r\n        return (info.id, herosType[_id], info.li, info.min, info.zhi, info.lv);\r\n    }\r\n\r\n    function rand(uint256 _min,uint256 _max) private view returns(uint256) {\r\n        require(_max > _min);\r\n        uint256 random = uint256(keccak256(abi.encodePacked(block.difficulty, block.timestamp+ totalRandTimes)));\r\n        return uint256(random % (_max-_min)) + _min;\r\n    }\r\n\r\n    event createCardEvent(address owner, uint256 token, uint hero_id, uint li, uint min, uint zhi);\r\n    event transferCardEvent(address from, address to, uint256 tokenId);\r\n}",
  "sourcePath": "D:\\solidity\\sol-test1\\contracts\\NftHero.sol",
  "compiler": {
    "name": "solc",
    "version": "0.8.7+commit.e28d00a7.Emscripten.clang"
  },
  "schemaVersion": "3.4.3",
  "updatedAt": "2021-12-02T09:58:38.624Z",
  "networkType": "ethereum",
  "devdoc": {
    "kind": "dev",
    "methods": {
      "approve(address,uint256)": {
        "details": "See {IERC721-approve}."
      },
      "balanceOf(address)": {
        "details": "See {IERC721-balanceOf}."
      },
      "getApproved(uint256)": {
        "details": "See {IERC721-getApproved}."
      },
      "isApprovedForAll(address,address)": {
        "details": "See {IERC721-isApprovedForAll}."
      },
      "name()": {
        "details": "See {IERC721Metadata-name}."
      },
      "owner()": {
        "details": "Returns the address of the current owner."
      },
      "ownerOf(uint256)": {
        "details": "See {IERC721-ownerOf}."
      },
      "paused()": {
        "details": "Returns true if the contract is paused, and false otherwise."
      },
      "renounceOwnership()": {
        "details": "Leaves the contract without owner. It will not be possible to call `onlyOwner` functions anymore. Can only be called by the current owner. NOTE: Renouncing ownership will leave the contract without an owner, thereby removing any functionality that is only available to the owner."
      },
      "safeTransferFrom(address,address,uint256)": {
        "details": "See {IERC721-safeTransferFrom}."
      },
      "safeTransferFrom(address,address,uint256,bytes)": {
        "details": "See {IERC721-safeTransferFrom}."
      },
      "setApprovalForAll(address,bool)": {
        "details": "See {IERC721-setApprovalForAll}."
      },
      "supportsInterface(bytes4)": {
        "details": "See {IERC165-supportsInterface}."
      },
      "symbol()": {
        "details": "See {IERC721Metadata-symbol}."
      },
      "tokenURI(uint256)": {
        "details": "See {IERC721Metadata-tokenURI}."
      },
      "transferFrom(address,address,uint256)": {
        "details": "See {IERC721-transferFrom}."
      },
      "transferOwnership(address)": {
        "details": "Transfers ownership of the contract to a new account (`newOwner`). Can only be called by the current owner."
      }
    },
    "version": 1
  },
  "userdoc": {
    "kind": "user",
    "methods": {
      "createCard()": {
        "notice": " "
      },
      "getAttr(uint256)": {
        "notice": " "
      },
      "getMyCards(address)": {
        "notice": " "
      }
    },
    "notice": "/ ",
    "version": 1
  }
}