{
  "contractName": "NftHero",
  "abi": [
    {
      "anonymous": false,
      "inputs": [
        {
          "indexed": true,
          "internalType": "address",
          "name": "owner",
          "type": "address"
        },
        {
          "indexed": true,
          "internalType": "address",
          "name": "approved",
          "type": "address"
        },
        {
          "indexed": true,
          "internalType": "uint256",
          "name": "tokenId",
          "type": "uint256"
        }
      ],
      "name": "Approval",
      "type": "event"
    },
    {
      "anonymous": false,
      "inputs": [
        {
          "indexed": true,
          "internalType": "address",
          "name": "owner",
          "type": "address"
        },
        {
          "indexed": true,
          "internalType": "address",
          "name": "operator",
          "type": "address"
        },
        {
          "indexed": false,
          "internalType": "bool",
          "name": "approved",
          "type": "bool"
        }
      ],
      "name": "ApprovalForAll",
      "type": "event"
    },
    {
      "anonymous": false,
      "inputs": [
        {
          "indexed": true,
          "internalType": "address",
          "name": "previousOwner",
          "type": "address"
        },
        {
          "indexed": true,
          "internalType": "address",
          "name": "newOwner",
          "type": "address"
        }
      ],
      "name": "OwnershipTransferred",
      "type": "event"
    },
    {
      "anonymous": false,
      "inputs": [
        {
          "indexed": false,
          "internalType": "address",
          "name": "account",
          "type": "address"
        }
      ],
      "name": "Paused",
      "type": "event"
    },
    {
      "anonymous": false,
      "inputs": [
        {
          "indexed": true,
          "internalType": "address",
          "name": "from",
          "type": "address"
        },
        {
          "indexed": true,
          "internalType": "address",
          "name": "to",
          "type": "address"
        },
        {
          "indexed": true,
          "internalType": "uint256",
          "name": "tokenId",
          "type": "uint256"
        }
      ],
      "name": "Transfer",
      "type": "event"
    },
    {
      "anonymous": false,
      "inputs": [
        {
          "indexed": false,
          "internalType": "address",
          "name": "account",
          "type": "address"
        }
      ],
      "name": "Unpaused",
      "type": "event"
    },
    {
      "anonymous": false,
      "inputs": [
        {
          "indexed": false,
          "internalType": "address",
          "name": "owner",
          "type": "address"
        },
        {
          "indexed": false,
          "internalType": "uint256",
          "name": "token",
          "type": "uint256"
        },
        {
          "indexed": false,
          "internalType": "uint256",
          "name": "hero_id",
          "type": "uint256"
        },
        {
          "indexed": false,
          "internalType": "uint256",
          "name": "li",
          "type": "uint256"
        },
        {
          "indexed": false,
          "internalType": "uint256",
          "name": "min",
          "type": "uint256"
        },
        {
          "indexed": false,
          "internalType": "uint256",
          "name": "zhi",
          "type": "uint256"
        }
      ],
      "name": "createCardEvent",
      "type": "event"
    },
    {
      "anonymous": false,
      "inputs": [
        {
          "indexed": false,
          "internalType": "address",
          "name": "from",
          "type": "address"
        },
        {
          "indexed": false,
          "internalType": "address",
          "name": "to",
          "type": "address"
        },
        {
          "indexed": false,
          "internalType": "uint256",
          "name": "tokenId",
          "type": "uint256"
        }
      ],
      "name": "transferCardEvent",
      "type": "event"
    },
    {
      "anonymous": false,
      "inputs": [
        {
          "indexed": false,
          "internalType": "address",
          "name": "owner",
          "type": "address"
        },
        {
          "indexed": false,
          "internalType": "uint256",
          "name": "_tokenId",
          "type": "uint256"
        },
        {
          "indexed": false,
          "internalType": "uint256",
          "name": "newLv",
          "type": "uint256"
        },
        {
          "indexed": false,
          "internalType": "uint256",
          "name": "newExp",
          "type": "uint256"
        }
      ],
      "name": "upgradeEvent",
      "type": "event"
    },
    {
      "inputs": [
        {
          "internalType": "address",
          "name": "to",
          "type": "address"
        },
        {
          "internalType": "uint256",
          "name": "tokenId",
          "type": "uint256"
        }
      ],
      "name": "approve",
      "outputs": [],
      "stateMutability": "nonpayable",
      "type": "function"
    },
    {
      "inputs": [
        {
          "internalType": "address",
          "name": "owner",
          "type": "address"
        }
      ],
      "name": "balanceOf",
      "outputs": [
        {
          "internalType": "uint256",
          "name": "",
          "type": "uint256"
        }
      ],
      "stateMutability": "view",
      "type": "function",
      "constant": true
    },
    {
      "inputs": [
        {
          "internalType": "uint256",
          "name": "",
          "type": "uint256"
        }
      ],
      "name": "cardDB",
      "outputs": [
        {
          "internalType": "uint256",
          "name": "id",
          "type": "uint256"
        },
        {
          "internalType": "uint256",
          "name": "li",
          "type": "uint256"
        },
        {
          "internalType": "uint256",
          "name": "min",
          "type": "uint256"
        },
        {
          "internalType": "uint256",
          "name": "zhi",
          "type": "uint256"
        },
        {
          "internalType": "uint256",
          "name": "lv",
          "type": "uint256"
        },
        {
          "internalType": "uint256",
          "name": "exp",
          "type": "uint256"
        }
      ],
      "stateMutability": "view",
      "type": "function",
      "constant": true
    },
    {
      "inputs": [
        {
          "internalType": "uint256",
          "name": "tokenId",
          "type": "uint256"
        }
      ],
      "name": "getApproved",
      "outputs": [
        {
          "internalType": "address",
          "name": "",
          "type": "address"
        }
      ],
      "stateMutability": "view",
      "type": "function",
      "constant": true
    },
    {
      "inputs": [
        {
          "internalType": "address",
          "name": "owner",
          "type": "address"
        },
        {
          "internalType": "address",
          "name": "operator",
          "type": "address"
        }
      ],
      "name": "isApprovedForAll",
      "outputs": [
        {
          "internalType": "bool",
          "name": "",
          "type": "bool"
        }
      ],
      "stateMutability": "view",
      "type": "function",
      "constant": true
    },
    {
      "inputs": [],
      "name": "name",
      "outputs": [
        {
          "internalType": "string",
          "name": "",
          "type": "string"
        }
      ],
      "stateMutability": "view",
      "type": "function",
      "constant": true
    },
    {
      "inputs": [],
      "name": "owner",
      "outputs": [
        {
          "internalType": "address",
          "name": "",
          "type": "address"
        }
      ],
      "stateMutability": "view",
      "type": "function",
      "constant": true
    },
    {
      "inputs": [
        {
          "internalType": "uint256",
          "name": "tokenId",
          "type": "uint256"
        }
      ],
      "name": "ownerOf",
      "outputs": [
        {
          "internalType": "address",
          "name": "",
          "type": "address"
        }
      ],
      "stateMutability": "view",
      "type": "function",
      "constant": true
    },
    {
      "inputs": [],
      "name": "paused",
      "outputs": [
        {
          "internalType": "bool",
          "name": "",
          "type": "bool"
        }
      ],
      "stateMutability": "view",
      "type": "function",
      "constant": true
    },
    {
      "inputs": [],
      "name": "renounceOwnership",
      "outputs": [],
      "stateMutability": "nonpayable",
      "type": "function"
    },
    {
      "inputs": [
        {
          "internalType": "address",
          "name": "from",
          "type": "address"
        },
        {
          "internalType": "address",
          "name": "to",
          "type": "address"
        },
        {
          "internalType": "uint256",
          "name": "tokenId",
          "type": "uint256"
        }
      ],
      "name": "safeTransferFrom",
      "outputs": [],
      "stateMutability": "nonpayable",
      "type": "function"
    },
    {
      "inputs": [
        {
          "internalType": "address",
          "name": "from",
          "type": "address"
        },
        {
          "internalType": "address",
          "name": "to",
          "type": "address"
        },
        {
          "internalType": "uint256",
          "name": "tokenId",
          "type": "uint256"
        },
        {
          "internalType": "bytes",
          "name": "_data",
          "type": "bytes"
        }
      ],
      "name": "safeTransferFrom",
      "outputs": [],
      "stateMutability": "nonpayable",
      "type": "function"
    },
    {
      "inputs": [
        {
          "internalType": "address",
          "name": "operator",
          "type": "address"
        },
        {
          "internalType": "bool",
          "name": "approved",
          "type": "bool"
        }
      ],
      "name": "setApprovalForAll",
      "outputs": [],
      "stateMutability": "nonpayable",
      "type": "function"
    },
    {
      "inputs": [
        {
          "internalType": "bytes4",
          "name": "interfaceId",
          "type": "bytes4"
        }
      ],
      "name": "supportsInterface",
      "outputs": [
        {
          "internalType": "bool",
          "name": "",
          "type": "bool"
        }
      ],
      "stateMutability": "view",
      "type": "function",
      "constant": true
    },
    {
      "inputs": [],
      "name": "symbol",
      "outputs": [
        {
          "internalType": "string",
          "name": "",
          "type": "string"
        }
      ],
      "stateMutability": "view",
      "type": "function",
      "constant": true
    },
    {
      "inputs": [
        {
          "internalType": "uint256",
          "name": "tokenId",
          "type": "uint256"
        }
      ],
      "name": "tokenURI",
      "outputs": [
        {
          "internalType": "string",
          "name": "",
          "type": "string"
        }
      ],
      "stateMutability": "view",
      "type": "function",
      "constant": true
    },
    {
      "inputs": [
        {
          "internalType": "address",
          "name": "from",
          "type": "address"
        },
        {
          "internalType": "address",
          "name": "to",
          "type": "address"
        },
        {
          "internalType": "uint256",
          "name": "tokenId",
          "type": "uint256"
        }
      ],
      "name": "transferFrom",
      "outputs": [],
      "stateMutability": "nonpayable",
      "type": "function"
    },
    {
      "inputs": [
        {
          "internalType": "address",
          "name": "newOwner",
          "type": "address"
        }
      ],
      "name": "transferOwnership",
      "outputs": [],
      "stateMutability": "nonpayable",
      "type": "function"
    },
    {
      "inputs": [
        {
          "internalType": "contract Diamond",
          "name": "_diamondInstance",
          "type": "address"
        },
        {
          "internalType": "contract HeroPool",
          "name": "_heroPoolInstance",
          "type": "address"
        }
      ],
      "name": "initialize",
      "outputs": [],
      "stateMutability": "nonpayable",
      "type": "function"
    },
    {
      "inputs": [
        {
          "internalType": "contract HeroPool",
          "name": "_heroPoolInstance",
          "type": "address"
        }
      ],
      "name": "setHeroPool",
      "outputs": [],
      "stateMutability": "nonpayable",
      "type": "function"
    },
    {
      "inputs": [],
      "name": "createCard",
      "outputs": [],
      "stateMutability": "payable",
      "type": "function",
      "payable": true
    },
    {
      "inputs": [
        {
          "internalType": "uint256",
          "name": "tokenId",
          "type": "uint256"
        }
      ],
      "name": "upgrade",
      "outputs": [],
      "stateMutability": "nonpayable",
      "type": "function"
    },
    {
      "inputs": [
        {
          "internalType": "address",
          "name": "_addr",
          "type": "address"
        }
      ],
      "name": "getMyCards",
      "outputs": [
        {
          "internalType": "uint256[]",
          "name": "",
          "type": "uint256[]"
        },
        {
          "internalType": "uint256[]",
          "name": "",
          "type": "uint256[]"
        },
        {
          "internalType": "uint256[]",
          "name": "",
          "type": "uint256[]"
        },
        {
          "internalType": "uint256[]",
          "name": "",
          "type": "uint256[]"
        },
        {
          "internalType": "uint256[]",
          "name": "",
          "type": "uint256[]"
        },
        {
          "internalType": "uint256[]",
          "name": "",
          "type": "uint256[]"
        },
        {
          "internalType": "uint256[]",
          "name": "",
          "type": "uint256[]"
        }
      ],
      "stateMutability": "view",
      "type": "function",
      "constant": true
    },
    {
      "inputs": [
        {
          "internalType": "uint256",
          "name": "tokenId",
          "type": "uint256"
        }
      ],
      "name": "burn",
      "outputs": [],
      "stateMutability": "nonpayable",
      "type": "function"
    },
    {
      "inputs": [
        {
          "internalType": "uint256",
          "name": "tokenId",
          "type": "uint256"
        }
      ],
      "name": "getAttr",
      "outputs": [
        {
          "internalType": "uint256",
          "name": "_id",
          "type": "uint256"
        },
        {
          "internalType": "uint256",
          "name": "_type",
          "type": "uint256"
        },
        {
          "internalType": "uint256",
          "name": "li",
          "type": "uint256"
        },
        {
          "internalType": "uint256",
          "name": "min",
          "type": "uint256"
        },
        {
          "internalType": "uint256",
          "name": "zhi",
          "type": "uint256"
        },
        {
          "internalType": "uint256",
          "name": "lv",
          "type": "uint256"
        }
      ],
      "stateMutability": "view",
      "type": "function",
      "constant": true
    }
  ],
  "bytecode": "0x608060405234801561001057600080fd5b50614eef806100206000396000f3fe6080604052600436106101665760003560e01c80636352211e116100d1578063a0a291d61161008a578063b88d4fde11610064578063b88d4fde1461053b578063c87b56dd14610564578063e985e9c5146105a1578063f2fde38b146105de57610166565b8063a0a291d6146104df578063a22cb46514610508578063a2d256fa1461053157610166565b80636352211e146103b657806370a08231146103f3578063715018a6146104305780638da5cb5b1461044757806395d89b4114610472578063a00f6d761461049d57610166565b80633da1f63c116101235780633da1f63c146102a557806342842e0e146102e757806342966c681461031057806345977d0314610339578063485cc955146103625780635c975abb1461038b57610166565b806301ffc9a71461016b57806306fdde03146101a8578063081812fc146101d3578063095ea7b31461021057806323b872dd1461023957806337983aed14610262575b600080fd5b34801561017757600080fd5b50610192600480360381019061018d9190613a22565b610607565b60405161019f91906141a0565b60405180910390f35b3480156101b457600080fd5b506101bd6106e9565b6040516101ca91906141bb565b60405180910390f35b3480156101df57600080fd5b506101fa60048036038101906101f59190613ae9565b61077b565b6040516102079190613fbc565b60405180910390f35b34801561021c57600080fd5b50610237600480360381019061023291906139b5565b610800565b005b34801561024557600080fd5b50610260600480360381019061025b919061389f565b610918565b005b34801561026e57600080fd5b5061028960048036038101906102849190613832565b610978565b60405161029c9796959493929190614100565b60405180910390f35b3480156102b157600080fd5b506102cc60048036038101906102c79190613ae9565b610da6565b6040516102de96959493929190614481565b60405180910390f35b3480156102f357600080fd5b5061030e6004803603810190610309919061389f565b610eab565b005b34801561031c57600080fd5b5061033760048036038101906103329190613ae9565b610ecb565b005b34801561034557600080fd5b50610360600480360381019061035b9190613ae9565b610f53565b005b34801561036e57600080fd5b5061038960048036038101906103849190613a7c565b610f98565b005b34801561039757600080fd5b506103a06112b1565b6040516103ad91906141a0565b60405180910390f35b3480156103c257600080fd5b506103dd60048036038101906103d89190613ae9565b6112c8565b6040516103ea9190613fbc565b60405180910390f35b3480156103ff57600080fd5b5061041a60048036038101906104159190613832565b61137a565b604051610427919061443d565b60405180910390f35b34801561043c57600080fd5b50610445611432565b005b34801561045357600080fd5b5061045c6114ba565b6040516104699190613fbc565b60405180910390f35b34801561047e57600080fd5b506104876114e4565b60405161049491906141bb565b60405180910390f35b3480156104a957600080fd5b506104c460048036038101906104bf9190613ae9565b611576565b6040516104d696959493929190614481565b60405180910390f35b3480156104eb57600080fd5b5061050660048036038101906105019190613abc565b6115b3565b005b34801561051457600080fd5b5061052f600480360381019061052a9190613975565b611673565b005b6105396117f4565b005b34801561054757600080fd5b50610562600480360381019061055d91906138f2565b611be0565b005b34801561057057600080fd5b5061058b60048036038101906105869190613ae9565b611c42565b60405161059891906141bb565b60405180910390f35b3480156105ad57600080fd5b506105c860048036038101906105c3919061385f565b611ce9565b6040516105d591906141a0565b60405180910390f35b3480156105ea57600080fd5b5061060560048036038101906106009190613832565b611d7d565b005b60007f80ac58cd000000000000000000000000000000000000000000000000000000007bffffffffffffffffffffffffffffffffffffffffffffffffffffffff1916827bffffffffffffffffffffffffffffffffffffffffffffffffffffffff191614806106d257507f5b5e139f000000000000000000000000000000000000000000000000000000007bffffffffffffffffffffffffffffffffffffffffffffffffffffffff1916827bffffffffffffffffffffffffffffffffffffffffffffffffffffffff1916145b806106e257506106e182611e75565b5b9050919050565b6060606580546106f890614749565b80601f016020809104026020016040519081016040528092919081815260200182805461072490614749565b80156107715780601f1061074657610100808354040283529160200191610771565b820191906000526020600020905b81548152906001019060200180831161075457829003601f168201915b5050505050905090565b600061078682611edf565b6107c5576040517f08c379a00000000000000000000000000000000000000000000000000000000081526004016107bc9061437d565b60405180910390fd5b6069600083815260200190815260200160002060009054906101000a900473ffffffffffffffffffffffffffffffffffffffff169050919050565b600061080b826112c8565b90508073ffffffffffffffffffffffffffffffffffffffff168373ffffffffffffffffffffffffffffffffffffffff16141561087c576040517f08c379a0000000000000000000000000000000000000000000000000000000008152600401610873906143fd565b60405180910390fd5b8073ffffffffffffffffffffffffffffffffffffffff1661089b611f4b565b73ffffffffffffffffffffffffffffffffffffffff1614806108ca57506108c9816108c4611f4b565b611ce9565b5b610909576040517f08c379a0000000000000000000000000000000000000000000000000000000008152600401610900906142dd565b60405180910390fd5b6109138383611f53565b505050565b610929610923611f4b565b8261200c565b610968576040517f08c379a000000000000000000000000000000000000000000000000000000000815260040161095f9061441d565b60405180910390fd5b6109738383836120ea565b505050565b6060806060806060806060600061010160008a73ffffffffffffffffffffffffffffffffffffffff1673ffffffffffffffffffffffffffffffffffffffff168152602001908152602001600020805480602002602001604051908101604052809291908181526020018280548015610a0f57602002820191906000526020600020905b8154815260200190600101908083116109fb575b505050505090506000815167ffffffffffffffff811115610a3357610a326148e2565b5b604051908082528060200260200182016040528015610a615781602001602082028036833780820191505090505b5090506000825167ffffffffffffffff811115610a8157610a806148e2565b5b604051908082528060200260200182016040528015610aaf5781602001602082028036833780820191505090505b5090506000835167ffffffffffffffff811115610acf57610ace6148e2565b5b604051908082528060200260200182016040528015610afd5781602001602082028036833780820191505090505b5090506000845167ffffffffffffffff811115610b1d57610b1c6148e2565b5b604051908082528060200260200182016040528015610b4b5781602001602082028036833780820191505090505b5090506000855167ffffffffffffffff811115610b6b57610b6a6148e2565b5b604051908082528060200260200182016040528015610b995781602001602082028036833780820191505090505b5090506000865167ffffffffffffffff811115610bb957610bb86148e2565b5b604051908082528060200260200182016040528015610be75781602001602082028036833780820191505090505b509050600087511115610d7f5760005b8751811015610d7d576000888281518110610c1557610c146148b3565b5b60200260200101519050610100600082815260200190815260200160002060000154888381518110610c4a57610c496148b3565b5b602002602001018181525050610100600082815260200190815260200160002060010154878381518110610c8157610c806148b3565b5b602002602001018181525050610100600082815260200190815260200160002060020154868381518110610cb857610cb76148b3565b5b602002602001018181525050610100600082815260200190815260200160002060030154858381518110610cef57610cee6148b3565b5b602002602001018181525050610100600082815260200190815260200160002060040154848381518110610d2657610d256148b3565b5b602002602001018181525050610100600082815260200190815260200160002060050154838381518110610d5d57610d5c6148b3565b5b602002602001018181525050508080610d75906147ac565b915050610bf7565b505b868686868686869d509d509d509d509d509d509d5050505050505050919395979092949650565b600080600080600080600061010060008981526020019081526020016000206000015411610e09576040517f08c379a0000000000000000000000000000000000000000000000000000000008152600401610e009061425d565b60405180910390fd5b600061010060008981526020019081526020016000206040518060c001604052908160008201548152602001600182015481526020016002820154815260200160038201548152602001600482015481526020016005820154815250509050806000015160ff60008981526020019081526020016000205482602001518360400151846060015185608001519650965096509650965096505091939550919395565b610ec683838360405180602001604052806000815250611be0565b505050565b610ed3611f4b565b73ffffffffffffffffffffffffffffffffffffffff16610ef16114ba565b73ffffffffffffffffffffffffffffffffffffffff1614610f47576040517f08c379a0000000000000000000000000000000000000000000000000000000008152600401610f3e9061439d565b60405180910390fd5b610f5081612346565b50565b6000807f3fa8b49be48fa9170de00621297ea9ef83eb138efc2f7df85625a056550f869f33848484604051610f8b949392919061405a565b60405180910390a1505050565b600060019054906101000a900460ff1680610fbe575060008054906101000a900460ff16155b610ffd576040517f08c379a0000000000000000000000000000000000000000000000000000000008152600401610ff49061433d565b60405180910390fd5b60008060019054906101000a900460ff16159050801561104d576001600060016101000a81548160ff02191690831515021790555060016000806101000a81548160ff0219169083151502179055505b6110c16040518060400160405280600d81526020017f464d20546f6b656e2043617264000000000000000000000000000000000000008152506040518060400160405280600381526020017f464d430000000000000000000000000000000000000000000000000000000000815250612457565b6110c961254c565b6110d1612635565b8260fb60006101000a81548173ffffffffffffffffffffffffffffffffffffffff021916908373ffffffffffffffffffffffffffffffffffffffff1602179055508160fc60006101000a81548173ffffffffffffffffffffffffffffffffffffffff021916908373ffffffffffffffffffffffffffffffffffffffff160217905550600160ff60006001815260200190815260200160002081905550600160ff60006002815260200190815260200160002081905550600160ff60006003815260200190815260200160002081905550600160ff60006004815260200190815260200160002081905550600260ff60006005815260200190815260200160002081905550600260ff60006006815260200190815260200160002081905550600260ff60006007815260200190815260200160002081905550600260ff60006008815260200190815260200160002081905550600360ff60006009815260200190815260200160002081905550600360ff6000600a815260200190815260200160002081905550600360ff6000600b815260200190815260200160002081905550600360ff6000600c81526020019081526020016000208190555080156112ac5760008060016101000a81548160ff0219169083151502179055505b505050565b600060c960009054906101000a900460ff16905090565b6000806067600084815260200190815260200160002060009054906101000a900473ffffffffffffffffffffffffffffffffffffffff169050600073ffffffffffffffffffffffffffffffffffffffff168173ffffffffffffffffffffffffffffffffffffffff161415611371576040517f08c379a00000000000000000000000000000000000000000000000000000000081526004016113689061431d565b60405180910390fd5b80915050919050565b60008073ffffffffffffffffffffffffffffffffffffffff168273ffffffffffffffffffffffffffffffffffffffff1614156113eb576040517f08c379a00000000000000000000000000000000000000000000000000000000081526004016113e2906142fd565b60405180910390fd5b606860008373ffffffffffffffffffffffffffffffffffffffff1673ffffffffffffffffffffffffffffffffffffffff168152602001908152602001600020549050919050565b61143a611f4b565b73ffffffffffffffffffffffffffffffffffffffff166114586114ba565b73ffffffffffffffffffffffffffffffffffffffff16146114ae576040517f08c379a00000000000000000000000000000000000000000000000000000000081526004016114a59061439d565b60405180910390fd5b6114b8600061271e565b565b6000609760009054906101000a900473ffffffffffffffffffffffffffffffffffffffff16905090565b6060606680546114f390614749565b80601f016020809104026020016040519081016040528092919081815260200182805461151f90614749565b801561156c5780601f106115415761010080835404028352916020019161156c565b820191906000526020600020905b81548152906001019060200180831161154f57829003601f168201915b5050505050905090565b6101006020528060005260406000206000915090508060000154908060010154908060020154908060030154908060040154908060050154905086565b6115bb611f4b565b73ffffffffffffffffffffffffffffffffffffffff166115d96114ba565b73ffffffffffffffffffffffffffffffffffffffff161461162f576040517f08c379a00000000000000000000000000000000000000000000000000000000081526004016116269061439d565b60405180910390fd5b8060fc60006101000a81548173ffffffffffffffffffffffffffffffffffffffff021916908373ffffffffffffffffffffffffffffffffffffffff16021790555050565b61167b611f4b565b73ffffffffffffffffffffffffffffffffffffffff168273ffffffffffffffffffffffffffffffffffffffff1614156116e9576040517f08c379a00000000000000000000000000000000000000000000000000000000081526004016116e09061429d565b60405180910390fd5b80606a60006116f6611f4b565b73ffffffffffffffffffffffffffffffffffffffff1673ffffffffffffffffffffffffffffffffffffffff16815260200190815260200160002060008473ffffffffffffffffffffffffffffffffffffffff1673ffffffffffffffffffffffffffffffffffffffff16815260200190815260200160002060006101000a81548160ff0219169083151502179055508173ffffffffffffffffffffffffffffffffffffffff166117a3611f4b565b73ffffffffffffffffffffffffffffffffffffffff167f17307eab39ab6107e8899845ad3d59bd9653f200f220920489ca2b5937696c31836040516117e891906141a0565b60405180910390a35050565b6000670de0b6b3a764000090508060fb60009054906101000a900473ffffffffffffffffffffffffffffffffffffffff1673ffffffffffffffffffffffffffffffffffffffff166370a08231336040518263ffffffff1660e01b815260040161185d9190613fbc565b60206040518083038186803b15801561187557600080fd5b505afa158015611889573d6000803e3d6000fd5b505050506040513d601f19601f820116820180604052508101906118ad9190613b16565b10156118ee576040517f08c379a00000000000000000000000000000000000000000000000000000000081526004016118e5906141dd565b60405180910390fd5b60fb60009054906101000a900473ffffffffffffffffffffffffffffffffffffffff1673ffffffffffffffffffffffffffffffffffffffff166323b872dd3360fb60009054906101000a900473ffffffffffffffffffffffffffffffffffffffff16846040518463ffffffff1660e01b815260040161196f93929190613fd7565b602060405180830381600087803b15801561198957600080fd5b505af115801561199d573d6000803e3d6000fd5b505050506040513d601f19601f820116820180604052508101906119c191906139f5565b50600060fe600081546119d3906147ac565b919050819055905060008060008060fc60009054906101000a900473ffffffffffffffffffffffffffffffffffffffff1673ffffffffffffffffffffffffffffffffffffffff166395032b6260fd60008154611a2e906147ac565b9190508190556101026000611a41611f4b565b73ffffffffffffffffffffffffffffffffffffffff1673ffffffffffffffffffffffffffffffffffffffff16815260200190815260200160002060008154611a88906147ac565b9190508190556040518363ffffffff1660e01b8152600401611aab929190614458565b60806040518083038186803b158015611ac357600080fd5b505afa158015611ad7573d6000803e3d6000fd5b505050506040513d601f19601f82011682018060405250810190611afb9190613b43565b809450819550829650839750505050506040518060c001604052808581526020018481526020018381526020018281526020016001815260200160008152506101006000878152602001908152602001600020600082015181600001556020820151816001015560408201518160020155606082015181600301556080820151816004015560a08201518160050155905050611b9733866127e4565b7fc6d093197649ec1fafeca555c8e2a8fe66ade0217ceb9f230c3344632d2586e7338686868686604051611bd09695949392919061409f565b60405180910390a1505050505050565b611bf1611beb611f4b565b8361200c565b611c30576040517f08c379a0000000000000000000000000000000000000000000000000000000008152600401611c279061441d565b60405180910390fd5b611c3c848484846129b2565b50505050565b6060611c4d82611edf565b611c8c576040517f08c379a0000000000000000000000000000000000000000000000000000000008152600401611c83906143dd565b60405180910390fd5b6000611c96612a0e565b90506000815111611cb65760405180602001604052806000815250611ce1565b80611cc084612a25565b604051602001611cd1929190613f98565b6040516020818303038152906040525b915050919050565b6000606a60008473ffffffffffffffffffffffffffffffffffffffff1673ffffffffffffffffffffffffffffffffffffffff16815260200190815260200160002060008373ffffffffffffffffffffffffffffffffffffffff1673ffffffffffffffffffffffffffffffffffffffff16815260200190815260200160002060009054906101000a900460ff16905092915050565b611d85611f4b565b73ffffffffffffffffffffffffffffffffffffffff16611da36114ba565b73ffffffffffffffffffffffffffffffffffffffff1614611df9576040517f08c379a0000000000000000000000000000000000000000000000000000000008152600401611df09061439d565b60405180910390fd5b600073ffffffffffffffffffffffffffffffffffffffff168173ffffffffffffffffffffffffffffffffffffffff161415611e69576040517f08c379a0000000000000000000000000000000000000000000000000000000008152600401611e609061421d565b60405180910390fd5b611e728161271e565b50565b60007f01ffc9a7000000000000000000000000000000000000000000000000000000007bffffffffffffffffffffffffffffffffffffffffffffffffffffffff1916827bffffffffffffffffffffffffffffffffffffffffffffffffffffffff1916149050919050565b60008073ffffffffffffffffffffffffffffffffffffffff166067600084815260200190815260200160002060009054906101000a900473ffffffffffffffffffffffffffffffffffffffff1673ffffffffffffffffffffffffffffffffffffffff1614159050919050565b600033905090565b816069600083815260200190815260200160002060006101000a81548173ffffffffffffffffffffffffffffffffffffffff021916908373ffffffffffffffffffffffffffffffffffffffff160217905550808273ffffffffffffffffffffffffffffffffffffffff16611fc6836112c8565b73ffffffffffffffffffffffffffffffffffffffff167f8c5be1e5ebec7d5bd14f71427d1e84f3dd0314c0f7b2291e5b200ac8c7c3b92560405160405180910390a45050565b600061201782611edf565b612056576040517f08c379a000000000000000000000000000000000000000000000000000000000815260040161204d906142bd565b60405180910390fd5b6000612061836112c8565b90508073ffffffffffffffffffffffffffffffffffffffff168473ffffffffffffffffffffffffffffffffffffffff1614806120d057508373ffffffffffffffffffffffffffffffffffffffff166120b88461077b565b73ffffffffffffffffffffffffffffffffffffffff16145b806120e157506120e08185611ce9565b5b91505092915050565b8273ffffffffffffffffffffffffffffffffffffffff1661210a826112c8565b73ffffffffffffffffffffffffffffffffffffffff1614612160576040517f08c379a0000000000000000000000000000000000000000000000000000000008152600401612157906143bd565b60405180910390fd5b600073ffffffffffffffffffffffffffffffffffffffff168273ffffffffffffffffffffffffffffffffffffffff1614156121d0576040517f08c379a00000000000000000000000000000000000000000000000000000000081526004016121c79061427d565b60405180910390fd5b6121db838383612b86565b6121e6600082611f53565b6001606860008573ffffffffffffffffffffffffffffffffffffffff1673ffffffffffffffffffffffffffffffffffffffff1681526020019081526020016000206000828254612236919061463b565b925050819055506001606860008473ffffffffffffffffffffffffffffffffffffffff1673ffffffffffffffffffffffffffffffffffffffff168152602001908152602001600020600082825461228d91906145b4565b92505081905550816067600083815260200190815260200160002060006101000a81548173ffffffffffffffffffffffffffffffffffffffff021916908373ffffffffffffffffffffffffffffffffffffffff160217905550808273ffffffffffffffffffffffffffffffffffffffff168473ffffffffffffffffffffffffffffffffffffffff167fddf252ad1be2c89b69c2b068fc378daa952ba7f163c4a11628f55a4df523b3ef60405160405180910390a4505050565b6000612351826112c8565b905061235f81600084612b86565b61236a600083611f53565b6001606860008373ffffffffffffffffffffffffffffffffffffffff1673ffffffffffffffffffffffffffffffffffffffff16815260200190815260200160002060008282546123ba919061463b565b925050819055506067600083815260200190815260200160002060006101000a81549073ffffffffffffffffffffffffffffffffffffffff021916905581600073ffffffffffffffffffffffffffffffffffffffff168273ffffffffffffffffffffffffffffffffffffffff167fddf252ad1be2c89b69c2b068fc378daa952ba7f163c4a11628f55a4df523b3ef60405160405180910390a45050565b600060019054906101000a900460ff168061247d575060008054906101000a900460ff16155b6124bc576040517f08c379a00000000000000000000000000000000000000000000000000000000081526004016124b39061433d565b60405180910390fd5b60008060019054906101000a900460ff16159050801561250c576001600060016101000a81548160ff02191690831515021790555060016000806101000a81548160ff0219169083151502179055505b612514612fd3565b61251c6130ac565b6125268383613185565b80156125475760008060016101000a81548160ff0219169083151502179055505b505050565b600060019054906101000a900460ff1680612572575060008054906101000a900460ff16155b6125b1576040517f08c379a00000000000000000000000000000000000000000000000000000000081526004016125a89061433d565b60405180910390fd5b60008060019054906101000a900460ff161590508015612601576001600060016101000a81548160ff02191690831515021790555060016000806101000a81548160ff0219169083151502179055505b612609612fd3565b61261161328e565b80156126325760008060016101000a81548160ff0219169083151502179055505b50565b600060019054906101000a900460ff168061265b575060008054906101000a900460ff16155b61269a576040517f08c379a00000000000000000000000000000000000000000000000000000000081526004016126919061433d565b60405180910390fd5b60008060019054906101000a900460ff1615905080156126ea576001600060016101000a81548160ff02191690831515021790555060016000806101000a81548160ff0219169083151502179055505b6126f2612fd3565b6126fa613377565b801561271b5760008060016101000a81548160ff0219169083151502179055505b50565b6000609760009054906101000a900473ffffffffffffffffffffffffffffffffffffffff16905081609760006101000a81548173ffffffffffffffffffffffffffffffffffffffff021916908373ffffffffffffffffffffffffffffffffffffffff1602179055508173ffffffffffffffffffffffffffffffffffffffff168173ffffffffffffffffffffffffffffffffffffffff167f8be0079c531659141344cd1fd0a4f28419497f9722a3daafe3b4186f6b6457e060405160405180910390a35050565b600073ffffffffffffffffffffffffffffffffffffffff168273ffffffffffffffffffffffffffffffffffffffff161415612854576040517f08c379a000000000000000000000000000000000000000000000000000000000815260040161284b9061435d565b60405180910390fd5b61285d81611edf565b1561289d576040517f08c379a00000000000000000000000000000000000000000000000000000000081526004016128949061423d565b60405180910390fd5b6128a960008383612b86565b6001606860008473ffffffffffffffffffffffffffffffffffffffff1673ffffffffffffffffffffffffffffffffffffffff16815260200190815260200160002060008282546128f991906145b4565b92505081905550816067600083815260200190815260200160002060006101000a81548173ffffffffffffffffffffffffffffffffffffffff021916908373ffffffffffffffffffffffffffffffffffffffff160217905550808273ffffffffffffffffffffffffffffffffffffffff16600073ffffffffffffffffffffffffffffffffffffffff167fddf252ad1be2c89b69c2b068fc378daa952ba7f163c4a11628f55a4df523b3ef60405160405180910390a45050565b6129bd8484846120ea565b6129c98484848461346b565b612a08576040517f08c379a00000000000000000000000000000000000000000000000000000000081526004016129ff906141fd565b60405180910390fd5b50505050565b606060405180602001604052806000815250905090565b60606000821415612a6d576040518060400160405280600181526020017f30000000000000000000000000000000000000000000000000000000000000008152509050612b81565b600082905060005b60008214612a9f578080612a88906147ac565b915050600a82612a98919061460a565b9150612a75565b60008167ffffffffffffffff811115612abb57612aba6148e2565b5b6040519080825280601f01601f191660200182016040528015612aed5781602001600182028036833780820191505090505b5090505b60008514612b7a57600182612b06919061463b565b9150600a85612b1591906147f5565b6030612b2191906145b4565b60f81b818381518110612b3757612b366148b3565b5b60200101907effffffffffffffffffffffffffffffffffffffffffffffffffffffffffffff1916908160001a905350600a85612b73919061460a565b9450612af1565b8093505050505b919050565b600073ffffffffffffffffffffffffffffffffffffffff168373ffffffffffffffffffffffffffffffffffffffff1614612eab576000600161010160008673ffffffffffffffffffffffffffffffffffffffff1673ffffffffffffffffffffffffffffffffffffffff16815260200190815260200160002080549050612c0c919061463b565b67ffffffffffffffff811115612c2557612c246148e2565b5b604051908082528060200260200182016040528015612c535781602001602082028036833780820191505090505b509050600161010160008673ffffffffffffffffffffffffffffffffffffffff1673ffffffffffffffffffffffffffffffffffffffff168152602001908152602001600020805490501115612e5457600080600090505b61010160008773ffffffffffffffffffffffffffffffffffffffff1673ffffffffffffffffffffffffffffffffffffffff16815260200190815260200160002080549050811015612df6578361010160008873ffffffffffffffffffffffffffffffffffffffff1673ffffffffffffffffffffffffffffffffffffffff1681526020019081526020016000208281548110612d4857612d476148b3565b5b906000526020600020015414612de35761010160008773ffffffffffffffffffffffffffffffffffffffff1673ffffffffffffffffffffffffffffffffffffffff1681526020019081526020016000208181548110612daa57612da96148b3565b5b9060005260206000200154838381518110612dc857612dc76148b3565b5b6020026020010181815250508180612ddf906147ac565b9250505b8080612dee906147ac565b915050612caa565b50600161010160008773ffffffffffffffffffffffffffffffffffffffff1673ffffffffffffffffffffffffffffffffffffffff16815260200190815260200160002080549050612e47919061463b565b8114612e5257600080fd5b505b8061010160008673ffffffffffffffffffffffffffffffffffffffff1673ffffffffffffffffffffffffffffffffffffffff1681526020019081526020016000209080519060200190612ea8929190613615565b50505b600073ffffffffffffffffffffffffffffffffffffffff168273ffffffffffffffffffffffffffffffffffffffff1614612f4b5761010160008373ffffffffffffffffffffffffffffffffffffffff1673ffffffffffffffffffffffffffffffffffffffff168152602001908152602001600020819080600181540180825580915050600190039060005260206000200160009091909190915055612f93565b61010060008281526020019081526020016000206000808201600090556001820160009055600282016000905560038201600090556004820160009055600582016000905550505b7f4814987054d8fe344e5b80282e88b055b8f4bd467e8762c163d855819694b8a6838383604051612fc693929190613fd7565b60405180910390a1505050565b600060019054906101000a900460ff1680612ff9575060008054906101000a900460ff16155b613038576040517f08c379a000000000000000000000000000000000000000000000000000000000815260040161302f9061433d565b60405180910390fd5b60008060019054906101000a900460ff161590508015613088576001600060016101000a81548160ff02191690831515021790555060016000806101000a81548160ff0219169083151502179055505b80156130a95760008060016101000a81548160ff0219169083151502179055505b50565b600060019054906101000a900460ff16806130d2575060008054906101000a900460ff16155b613111576040517f08c379a00000000000000000000000000000000000000000000000000000000081526004016131089061433d565b60405180910390fd5b60008060019054906101000a900460ff161590508015613161576001600060016101000a81548160ff02191690831515021790555060016000806101000a81548160ff0219169083151502179055505b80156131825760008060016101000a81548160ff0219169083151502179055505b50565b600060019054906101000a900460ff16806131ab575060008054906101000a900460ff16155b6131ea576040517f08c379a00000000000000000000000000000000000000000000000000000000081526004016131e19061433d565b60405180910390fd5b60008060019054906101000a900460ff16159050801561323a576001600060016101000a81548160ff02191690831515021790555060016000806101000a81548160ff0219169083151502179055505b8260659080519060200190613250929190613662565b508160669080519060200190613267929190613662565b5080156132895760008060016101000a81548160ff0219169083151502179055505b505050565b600060019054906101000a900460ff16806132b4575060008054906101000a900460ff16155b6132f3576040517f08c379a00000000000000000000000000000000000000000000000000000000081526004016132ea9061433d565b60405180910390fd5b60008060019054906101000a900460ff161590508015613343576001600060016101000a81548160ff02191690831515021790555060016000806101000a81548160ff0219169083151502179055505b61335361334e611f4b565b61271e565b80156133745760008060016101000a81548160ff0219169083151502179055505b50565b600060019054906101000a900460ff168061339d575060008054906101000a900460ff16155b6133dc576040517f08c379a00000000000000000000000000000000000000000000000000000000081526004016133d39061433d565b60405180910390fd5b60008060019054906101000a900460ff16159050801561342c576001600060016101000a81548160ff02191690831515021790555060016000806101000a81548160ff0219169083151502179055505b600060c960006101000a81548160ff02191690831515021790555080156134685760008060016101000a81548160ff0219169083151502179055505b50565b600061348c8473ffffffffffffffffffffffffffffffffffffffff16613602565b156135f5578373ffffffffffffffffffffffffffffffffffffffff1663150b7a026134b5611f4b565b8786866040518563ffffffff1660e01b81526004016134d7949392919061400e565b602060405180830381600087803b1580156134f157600080fd5b505af192505050801561352257506040513d601f19601f8201168201806040525081019061351f9190613a4f565b60015b6135a5573d8060008114613552576040519150601f19603f3d011682016040523d82523d6000602084013e613557565b606091505b5060008151141561359d576040517f08c379a0000000000000000000000000000000000000000000000000000000008152600401613594906141fd565b60405180910390fd5b805181602001fd5b63150b7a0260e01b7bffffffffffffffffffffffffffffffffffffffffffffffffffffffff1916817bffffffffffffffffffffffffffffffffffffffffffffffffffffffff1916149150506135fa565b600190505b949350505050565b600080823b905060008111915050919050565b828054828255906000526020600020908101928215613651579160200282015b82811115613650578251825591602001919060010190613635565b5b50905061365e91906136e8565b5090565b82805461366e90614749565b90600052602060002090601f01602090048101928261369057600085556136d7565b82601f106136a957805160ff19168380011785556136d7565b828001600101855582156136d7579182015b828111156136d65782518255916020019190600101906136bb565b5b5090506136e491906136e8565b5090565b5b808211156137015760008160009055506001016136e9565b5090565b600061371861371384614507565b6144e2565b90508281526020810184848401111561373457613733614916565b5b61373f848285614707565b509392505050565b60008135905061375681614e2f565b92915050565b60008135905061376b81614e46565b92915050565b60008151905061378081614e46565b92915050565b60008135905061379581614e5d565b92915050565b6000815190506137aa81614e5d565b92915050565b600082601f8301126137c5576137c4614911565b5b81356137d5848260208601613705565b91505092915050565b6000813590506137ed81614e74565b92915050565b60008135905061380281614e8b565b92915050565b60008135905061381781614ea2565b92915050565b60008151905061382c81614ea2565b92915050565b60006020828403121561384857613847614920565b5b600061385684828501613747565b91505092915050565b6000806040838503121561387657613875614920565b5b600061388485828601613747565b925050602061389585828601613747565b9150509250929050565b6000806000606084860312156138b8576138b7614920565b5b60006138c686828701613747565b93505060206138d786828701613747565b92505060406138e886828701613808565b9150509250925092565b6000806000806080858703121561390c5761390b614920565b5b600061391a87828801613747565b945050602061392b87828801613747565b935050604061393c87828801613808565b925050606085013567ffffffffffffffff81111561395d5761395c61491b565b5b613969878288016137b0565b91505092959194509250565b6000806040838503121561398c5761398b614920565b5b600061399a85828601613747565b92505060206139ab8582860161375c565b9150509250929050565b600080604083850312156139cc576139cb614920565b5b60006139da85828601613747565b92505060206139eb85828601613808565b9150509250929050565b600060208284031215613a0b57613a0a614920565b5b6000613a1984828501613771565b91505092915050565b600060208284031215613a3857613a37614920565b5b6000613a4684828501613786565b91505092915050565b600060208284031215613a6557613a64614920565b5b6000613a738482850161379b565b91505092915050565b60008060408385031215613a9357613a92614920565b5b6000613aa1858286016137de565b9250506020613ab2858286016137f3565b9150509250929050565b600060208284031215613ad257613ad1614920565b5b6000613ae0848285016137f3565b91505092915050565b600060208284031215613aff57613afe614920565b5b6000613b0d84828501613808565b91505092915050565b600060208284031215613b2c57613b2b614920565b5b6000613b3a8482850161381d565b91505092915050565b60008060008060808587031215613b5d57613b5c614920565b5b6000613b6b8782880161381d565b9450506020613b7c8782880161381d565b9350506040613b8d8782880161381d565b9250506060613b9e8782880161381d565b91505092959194509250565b6000613bb68383613f7a565b60208301905092915050565b613bcb8161466f565b82525050565b6000613bdc82614548565b613be68185614576565b9350613bf183614538565b8060005b83811015613c22578151613c098882613baa565b9750613c1483614569565b925050600181019050613bf5565b5085935050505092915050565b613c3881614681565b82525050565b6000613c4982614553565b613c538185614587565b9350613c63818560208601614716565b613c6c81614925565b840191505092915050565b6000613c828261455e565b613c8c8185614598565b9350613c9c818560208601614716565b613ca581614925565b840191505092915050565b6000613cbb8261455e565b613cc581856145a9565b9350613cd5818560208601614716565b80840191505092915050565b6000613cee601283614598565b9150613cf982614936565b602082019050919050565b6000613d11603283614598565b9150613d1c8261495f565b604082019050919050565b6000613d34602683614598565b9150613d3f826149ae565b604082019050919050565b6000613d57601c83614598565b9150613d62826149fd565b602082019050919050565b6000613d7a601c83614598565b9150613d8582614a26565b602082019050919050565b6000613d9d602483614598565b9150613da882614a4f565b604082019050919050565b6000613dc0601983614598565b9150613dcb82614a9e565b602082019050919050565b6000613de3602c83614598565b9150613dee82614ac7565b604082019050919050565b6000613e06603883614598565b9150613e1182614b16565b604082019050919050565b6000613e29602a83614598565b9150613e3482614b65565b604082019050919050565b6000613e4c602983614598565b9150613e5782614bb4565b604082019050919050565b6000613e6f602e83614598565b9150613e7a82614c03565b604082019050919050565b6000613e92602083614598565b9150613e9d82614c52565b602082019050919050565b6000613eb5602c83614598565b9150613ec082614c7b565b604082019050919050565b6000613ed8602083614598565b9150613ee382614cca565b602082019050919050565b6000613efb602983614598565b9150613f0682614cf3565b604082019050919050565b6000613f1e602f83614598565b9150613f2982614d42565b604082019050919050565b6000613f41602183614598565b9150613f4c82614d91565b604082019050919050565b6000613f64603183614598565b9150613f6f82614de0565b604082019050919050565b613f83816146fd565b82525050565b613f92816146fd565b82525050565b6000613fa48285613cb0565b9150613fb08284613cb0565b91508190509392505050565b6000602082019050613fd16000830184613bc2565b92915050565b6000606082019050613fec6000830186613bc2565b613ff96020830185613bc2565b6140066040830184613f89565b949350505050565b60006080820190506140236000830187613bc2565b6140306020830186613bc2565b61403d6040830185613f89565b818103606083015261404f8184613c3e565b905095945050505050565b600060808201905061406f6000830187613bc2565b61407c6020830186613f89565b6140896040830185613f89565b6140966060830184613f89565b95945050505050565b600060c0820190506140b46000830189613bc2565b6140c16020830188613f89565b6140ce6040830187613f89565b6140db6060830186613f89565b6140e86080830185613f89565b6140f560a0830184613f89565b979650505050505050565b600060e082019050818103600083015261411a818a613bd1565b9050818103602083015261412e8189613bd1565b905081810360408301526141428188613bd1565b905081810360608301526141568187613bd1565b9050818103608083015261416a8186613bd1565b905081810360a083015261417e8185613bd1565b905081810360c08301526141928184613bd1565b905098975050505050505050565b60006020820190506141b56000830184613c2f565b92915050565b600060208201905081810360008301526141d58184613c77565b905092915050565b600060208201905081810360008301526141f681613ce1565b9050919050565b6000602082019050818103600083015261421681613d04565b9050919050565b6000602082019050818103600083015261423681613d27565b9050919050565b6000602082019050818103600083015261425681613d4a565b9050919050565b6000602082019050818103600083015261427681613d6d565b9050919050565b6000602082019050818103600083015261429681613d90565b9050919050565b600060208201905081810360008301526142b681613db3565b9050919050565b600060208201905081810360008301526142d681613dd6565b9050919050565b600060208201905081810360008301526142f681613df9565b9050919050565b6000602082019050818103600083015261431681613e1c565b9050919050565b6000602082019050818103600083015261433681613e3f565b9050919050565b6000602082019050818103600083015261435681613e62565b9050919050565b6000602082019050818103600083015261437681613e85565b9050919050565b6000602082019050818103600083015261439681613ea8565b9050919050565b600060208201905081810360008301526143b681613ecb565b9050919050565b600060208201905081810360008301526143d681613eee565b9050919050565b600060208201905081810360008301526143f681613f11565b9050919050565b6000602082019050818103600083015261441681613f34565b9050919050565b6000602082019050818103600083015261443681613f57565b9050919050565b60006020820190506144526000830184613f89565b92915050565b600060408201905061446d6000830185613f89565b61447a6020830184613f89565b9392505050565b600060c0820190506144966000830189613f89565b6144a36020830188613f89565b6144b06040830187613f89565b6144bd6060830186613f89565b6144ca6080830185613f89565b6144d760a0830184613f89565b979650505050505050565b60006144ec6144fd565b90506144f8828261477b565b919050565b6000604051905090565b600067ffffffffffffffff821115614522576145216148e2565b5b61452b82614925565b9050602081019050919050565b6000819050602082019050919050565b600081519050919050565b600081519050919050565b600081519050919050565b6000602082019050919050565b600082825260208201905092915050565b600082825260208201905092915050565b600082825260208201905092915050565b600081905092915050565b60006145bf826146fd565b91506145ca836146fd565b9250827fffffffffffffffffffffffffffffffffffffffffffffffffffffffffffffffff038211156145ff576145fe614826565b5b828201905092915050565b6000614615826146fd565b9150614620836146fd565b9250826146305761462f614855565b5b828204905092915050565b6000614646826146fd565b9150614651836146fd565b92508282101561466457614663614826565b5b828203905092915050565b600061467a826146dd565b9050919050565b60008115159050919050565b60007fffffffff0000000000000000000000000000000000000000000000000000000082169050919050565b60006146c48261466f565b9050919050565b60006146d68261466f565b9050919050565b600073ffffffffffffffffffffffffffffffffffffffff82169050919050565b6000819050919050565b82818337600083830152505050565b60005b83811015614734578082015181840152602081019050614719565b83811115614743576000848401525b50505050565b6000600282049050600182168061476157607f821691505b6020821081141561477557614774614884565b5b50919050565b61478482614925565b810181811067ffffffffffffffff821117156147a3576147a26148e2565b5b80604052505050565b60006147b7826146fd565b91507fffffffffffffffffffffffffffffffffffffffffffffffffffffffffffffffff8214156147ea576147e9614826565b5b600182019050919050565b6000614800826146fd565b915061480b836146fd565b92508261481b5761481a614855565b5b828206905092915050565b7f4e487b7100000000000000000000000000000000000000000000000000000000600052601160045260246000fd5b7f4e487b7100000000000000000000000000000000000000000000000000000000600052601260045260246000fd5b7f4e487b7100000000000000000000000000000000000000000000000000000000600052602260045260246000fd5b7f4e487b7100000000000000000000000000000000000000000000000000000000600052603260045260246000fd5b7f4e487b7100000000000000000000000000000000000000000000000000000000600052604160045260246000fd5b600080fd5b600080fd5b600080fd5b600080fd5b6000601f19601f8301169050919050565b7f62616c616e6365203c2072657175697265640000000000000000000000000000600082015250565b7f4552433732313a207472616e7366657220746f206e6f6e20455243373231526560008201527f63656976657220696d706c656d656e7465720000000000000000000000000000602082015250565b7f4f776e61626c653a206e6577206f776e657220697320746865207a65726f206160008201527f6464726573730000000000000000000000000000000000000000000000000000602082015250565b7f4552433732313a20746f6b656e20616c7265616479206d696e74656400000000600082015250565b7f6469646e6f7420666f756e64207468697320746f6b656e206174747200000000600082015250565b7f4552433732313a207472616e7366657220746f20746865207a65726f2061646460008201527f7265737300000000000000000000000000000000000000000000000000000000602082015250565b7f4552433732313a20617070726f766520746f2063616c6c657200000000000000600082015250565b7f4552433732313a206f70657261746f7220717565727920666f72206e6f6e657860008201527f697374656e7420746f6b656e0000000000000000000000000000000000000000602082015250565b7f4552433732313a20617070726f76652063616c6c6572206973206e6f74206f7760008201527f6e6572206e6f7220617070726f76656420666f7220616c6c0000000000000000602082015250565b7f4552433732313a2062616c616e636520717565727920666f7220746865207a6560008201527f726f206164647265737300000000000000000000000000000000000000000000602082015250565b7f4552433732313a206f776e657220717565727920666f72206e6f6e657869737460008201527f656e7420746f6b656e0000000000000000000000000000000000000000000000602082015250565b7f496e697469616c697a61626c653a20636f6e747261637420697320616c72656160008201527f647920696e697469616c697a6564000000000000000000000000000000000000602082015250565b7f4552433732313a206d696e7420746f20746865207a65726f2061646472657373600082015250565b7f4552433732313a20617070726f76656420717565727920666f72206e6f6e657860008201527f697374656e7420746f6b656e0000000000000000000000000000000000000000602082015250565b7f4f776e61626c653a2063616c6c6572206973206e6f7420746865206f776e6572600082015250565b7f4552433732313a207472616e73666572206f6620746f6b656e2074686174206960008201527f73206e6f74206f776e0000000000000000000000000000000000000000000000602082015250565b7f4552433732314d657461646174613a2055524920717565727920666f72206e6f60008201527f6e6578697374656e7420746f6b656e0000000000000000000000000000000000602082015250565b7f4552433732313a20617070726f76616c20746f2063757272656e74206f776e6560008201527f7200000000000000000000000000000000000000000000000000000000000000602082015250565b7f4552433732313a207472616e736665722063616c6c6572206973206e6f74206f60008201527f776e6572206e6f7220617070726f766564000000000000000000000000000000602082015250565b614e388161466f565b8114614e4357600080fd5b50565b614e4f81614681565b8114614e5a57600080fd5b50565b614e668161468d565b8114614e7157600080fd5b50565b614e7d816146b9565b8114614e8857600080fd5b50565b614e94816146cb565b8114614e9f57600080fd5b50565b614eab816146fd565b8114614eb657600080fd5b5056fea26469706673582212200b4f9543bd1bc7e547eb37310744193f12e785f953d1449f5b0d1201c3513b9264736f6c63430008070033",
  "immutableReferences": {},
  "source": "// SPDX-License-Identifier: MIT\r\npragma solidity ^0.8.0;\r\n\r\nimport \"@openzeppelin/contracts-upgradeable/token/ERC721/ERC721Upgradeable.sol\";\r\nimport \"@openzeppelin/contracts-upgradeable/access/OwnableUpgradeable.sol\";\r\nimport \"@openzeppelin/contracts-upgradeable/security/PausableUpgradeable.sol\";\r\nimport \"./Diamond.sol\";\r\nimport \"./lib/HeroPool.sol\";\r\n\r\n/** / */\r\ncontract NftHero is ERC721Upgradeable,OwnableUpgradeable,PausableUpgradeable {\r\n\r\n    Diamond diamondInstance;\r\n    HeroPool heroPoolInstance;\r\n\r\n    //\r\n    uint256 totalRandTimes;\r\n    //tokenID\r\n    uint256 private countor;\r\n    //id,\r\n    mapping(uint256 => uint256) herosType;\r\n    //\r\n    // tokenId => HeroInfo\r\n    mapping(uint256 => HeroInfo) public cardDB;\r\n    // => tokens\r\n    mapping(address => uint256[]) private tokenDB;\r\n    //\r\n    mapping(address => uint) private userRandtimes;\r\n    //\r\n    struct HeroInfo {\r\n        uint id;\r\n        uint li; //\r\n        uint min; //\r\n        uint zhi; //\r\n        uint lv; //\r\n        uint exp; //\r\n    }\r\n\r\n    function initialize(Diamond _diamondInstance, HeroPool _heroPoolInstance) public initializer {\r\n        __ERC721_init(\"FM Token Card\", \"FMC\");\r\n        __Ownable_init();\r\n        __Pausable_init();\r\n        \r\n        diamondInstance = _diamondInstance;\r\n        heroPoolInstance = _heroPoolInstance;\r\n\r\n        herosType[1] = 1;\r\n        herosType[2] = 1;\r\n        herosType[3] = 1;\r\n        herosType[4] = 1;\r\n        herosType[5] = 2;\r\n        herosType[6] = 2;\r\n        herosType[7] = 2;\r\n        herosType[8] = 2;\r\n        herosType[9] = 3;\r\n        herosType[10] = 3;\r\n        herosType[11] = 3;\r\n        herosType[12] = 3;\r\n    }\r\n\r\n    function setHeroPool( HeroPool _heroPoolInstance) public onlyOwner {\r\n        heroPoolInstance = _heroPoolInstance;\r\n    }\r\n\r\n    /**  */\r\n    function createCard() public payable {\r\n        uint256 cost = 1 * 1e18;\r\n        require(\r\n            diamondInstance.balanceOf(msg.sender) >= cost,\r\n            \"balance < required\"\r\n        );\r\n        diamondInstance.transferFrom(msg.sender, address(diamondInstance), cost);\r\n\r\n        uint256 _tokenId = ++countor;\r\n\r\n        //\r\n        uint id; uint li; uint min; uint zhi;\r\n        (id,li,min,zhi) = heroPoolInstance.rand(++totalRandTimes,  ++userRandtimes[_msgSender()]);\r\n        cardDB[_tokenId] = HeroInfo(id,li,min,zhi,1,0);\r\n\r\n        //mint_beforeTokenTransfer\r\n        super._mint(msg.sender, _tokenId);\r\n        emit createCardEvent(msg.sender, _tokenId, id,li,min,zhi);\r\n    }\r\n\r\n    /*  */\r\n    function upgrade(uint256 tokenId) public {\r\n        uint256 newLv = 0;\r\n        uint256 newExp = 0;\r\n        emit upgradeEvent(msg.sender, tokenId, newLv, newExp);\r\n    }\r\n\r\n    /**  */\r\n    function getMyCards(address _addr) public view returns ( uint256[] memory, uint[] memory, uint[] memory, uint[] memory, uint[] memory, uint[] memory, uint[] memory) {\r\n        uint256[] memory _tokens = tokenDB[_addr];\r\n        uint[] memory _hero_ids = new uint[](_tokens.length);\r\n        uint[] memory _li = new uint[](_tokens.length);\r\n        uint[] memory _min = new uint[](_tokens.length);\r\n        uint[] memory _zhi = new uint[](_tokens.length);\r\n        uint[] memory _lv = new uint[](_tokens.length);\r\n        uint[] memory _exp = new uint[](_tokens.length);\r\n\r\n        if (_tokens.length > 0) {\r\n            for (uint i=0; i<_tokens.length; i++) {\r\n                uint256 _tokenId = _tokens[i];\r\n                _hero_ids[i] = cardDB[ _tokenId ].id;\r\n                _li[i] = cardDB[ _tokenId ].li;\r\n                _min[i] = cardDB[ _tokenId ].min;\r\n                _zhi[i] = cardDB[ _tokenId ].zhi;\r\n                _lv[i] = cardDB[ _tokenId ].lv;\r\n                _exp[i] = cardDB[ _tokenId ].exp;\r\n            }\r\n        }\r\n\r\n        return (_tokens, _hero_ids, _li, _min, _zhi, _lv, _exp);\r\n    }\r\n\r\n    //token\r\n    function burn(uint256 tokenId) public onlyOwner {\r\n        _burn(tokenId);\r\n    }\r\n\r\n    /* nft */\r\n    function _beforeTokenTransfer(address from, address to, uint256 tokenId) internal override {\r\n        if (from != address(0)) {\r\n            uint256[] memory newUserTokens = new uint256[](tokenDB[from].length - 1);\r\n            if (tokenDB[from].length > 1) {\r\n                uint256 realLen;\r\n                for (uint i=0; i<tokenDB[from].length; i++) {\r\n                    if (tokenDB[from][i] != tokenId) {\r\n                        newUserTokens[realLen] = tokenDB[from][i];\r\n                        realLen ++;\r\n                    }\r\n                }\r\n                require(realLen == tokenDB[from].length - 1);\r\n            }\r\n            tokenDB[from] = newUserTokens;\r\n        }\r\n\r\n        if (to != address(0)) {\r\n            tokenDB[to].push(tokenId);\r\n        } else {\r\n            delete cardDB[tokenId];\r\n        }\r\n        \r\n        emit transferCardEvent(from, to, tokenId);\r\n    }\r\n\r\n    /**  */\r\n    function getAttr(uint256 tokenId) public view returns (uint256 _id, uint256 _type, uint256 li, uint256 min, uint256 zhi, uint lv)  {\r\n        require(cardDB[tokenId].id > 0, \"didnot found this token attr\");\r\n        HeroInfo memory info = cardDB[tokenId];\r\n        return (info.id, herosType[_id], info.li, info.min, info.zhi, info.lv);\r\n    }\r\n\r\n    function rand(uint256 _min,uint256 _max) private view returns(uint256) {\r\n        require(_max > _min);\r\n        uint256 random = uint256(keccak256(abi.encodePacked(block.difficulty, block.timestamp+ totalRandTimes)));\r\n        return uint256(random % (_max-_min)) + _min;\r\n    }\r\n\r\n    event createCardEvent(address owner, uint256 token, uint hero_id, uint li, uint min, uint zhi);\r\n    event transferCardEvent(address from, address to, uint256 tokenId);\r\n    event upgradeEvent(address owner, uint256 _tokenId, uint newLv, uint newExp);\r\n}",
  "sourcePath": "D:\\solidity\\sol-test1\\contracts\\NftHero.sol",
  "compiler": {
    "name": "solc",
    "version": "0.8.7+commit.e28d00a7.Emscripten.clang"
  },
  "schemaVersion": "3.4.3",
  "updatedAt": "2021-12-17T10:14:40.246Z",
  "networkType": "ethereum",
  "devdoc": {
    "kind": "dev",
    "methods": {
      "approve(address,uint256)": {
        "details": "See {IERC721-approve}."
      },
      "balanceOf(address)": {
        "details": "See {IERC721-balanceOf}."
      },
      "getApproved(uint256)": {
        "details": "See {IERC721-getApproved}."
      },
      "isApprovedForAll(address,address)": {
        "details": "See {IERC721-isApprovedForAll}."
      },
      "name()": {
        "details": "See {IERC721Metadata-name}."
      },
      "owner()": {
        "details": "Returns the address of the current owner."
      },
      "ownerOf(uint256)": {
        "details": "See {IERC721-ownerOf}."
      },
      "paused()": {
        "details": "Returns true if the contract is paused, and false otherwise."
      },
      "renounceOwnership()": {
        "details": "Leaves the contract without owner. It will not be possible to call `onlyOwner` functions anymore. Can only be called by the current owner. NOTE: Renouncing ownership will leave the contract without an owner, thereby removing any functionality that is only available to the owner."
      },
      "safeTransferFrom(address,address,uint256)": {
        "details": "See {IERC721-safeTransferFrom}."
      },
      "safeTransferFrom(address,address,uint256,bytes)": {
        "details": "See {IERC721-safeTransferFrom}."
      },
      "setApprovalForAll(address,bool)": {
        "details": "See {IERC721-setApprovalForAll}."
      },
      "supportsInterface(bytes4)": {
        "details": "See {IERC165-supportsInterface}."
      },
      "symbol()": {
        "details": "See {IERC721Metadata-symbol}."
      },
      "tokenURI(uint256)": {
        "details": "See {IERC721Metadata-tokenURI}."
      },
      "transferFrom(address,address,uint256)": {
        "details": "See {IERC721-transferFrom}."
      },
      "transferOwnership(address)": {
        "details": "Transfers ownership of the contract to a new account (`newOwner`). Can only be called by the current owner."
      }
    },
    "version": 1
  },
  "userdoc": {
    "kind": "user",
    "methods": {
      "createCard()": {
        "notice": " "
      },
      "getAttr(uint256)": {
        "notice": " "
      },
      "getMyCards(address)": {
        "notice": " "
      }
    },
    "notice": "/ ",
    "version": 1
  }
}