{
  "contractName": "NftHero",
  "abi": [
    {
      "anonymous": false,
      "inputs": [
        {
          "indexed": true,
          "internalType": "address",
          "name": "owner",
          "type": "address"
        },
        {
          "indexed": true,
          "internalType": "address",
          "name": "approved",
          "type": "address"
        },
        {
          "indexed": true,
          "internalType": "uint256",
          "name": "tokenId",
          "type": "uint256"
        }
      ],
      "name": "Approval",
      "type": "event"
    },
    {
      "anonymous": false,
      "inputs": [
        {
          "indexed": true,
          "internalType": "address",
          "name": "owner",
          "type": "address"
        },
        {
          "indexed": true,
          "internalType": "address",
          "name": "operator",
          "type": "address"
        },
        {
          "indexed": false,
          "internalType": "bool",
          "name": "approved",
          "type": "bool"
        }
      ],
      "name": "ApprovalForAll",
      "type": "event"
    },
    {
      "anonymous": false,
      "inputs": [
        {
          "indexed": true,
          "internalType": "address",
          "name": "previousOwner",
          "type": "address"
        },
        {
          "indexed": true,
          "internalType": "address",
          "name": "newOwner",
          "type": "address"
        }
      ],
      "name": "OwnershipTransferred",
      "type": "event"
    },
    {
      "anonymous": false,
      "inputs": [
        {
          "indexed": false,
          "internalType": "address",
          "name": "account",
          "type": "address"
        }
      ],
      "name": "Paused",
      "type": "event"
    },
    {
      "anonymous": false,
      "inputs": [
        {
          "indexed": true,
          "internalType": "address",
          "name": "from",
          "type": "address"
        },
        {
          "indexed": true,
          "internalType": "address",
          "name": "to",
          "type": "address"
        },
        {
          "indexed": true,
          "internalType": "uint256",
          "name": "tokenId",
          "type": "uint256"
        }
      ],
      "name": "Transfer",
      "type": "event"
    },
    {
      "anonymous": false,
      "inputs": [
        {
          "indexed": false,
          "internalType": "address",
          "name": "account",
          "type": "address"
        }
      ],
      "name": "Unpaused",
      "type": "event"
    },
    {
      "anonymous": false,
      "inputs": [
        {
          "indexed": false,
          "internalType": "address",
          "name": "owner",
          "type": "address"
        },
        {
          "indexed": false,
          "internalType": "uint256",
          "name": "token",
          "type": "uint256"
        },
        {
          "indexed": false,
          "internalType": "uint256",
          "name": "hero_id",
          "type": "uint256"
        },
        {
          "indexed": false,
          "internalType": "uint256",
          "name": "li",
          "type": "uint256"
        },
        {
          "indexed": false,
          "internalType": "uint256",
          "name": "min",
          "type": "uint256"
        },
        {
          "indexed": false,
          "internalType": "uint256",
          "name": "zhi",
          "type": "uint256"
        }
      ],
      "name": "createCardEvent",
      "type": "event"
    },
    {
      "anonymous": false,
      "inputs": [
        {
          "indexed": false,
          "internalType": "address",
          "name": "from",
          "type": "address"
        },
        {
          "indexed": false,
          "internalType": "address",
          "name": "to",
          "type": "address"
        },
        {
          "indexed": false,
          "internalType": "uint256",
          "name": "tokenId",
          "type": "uint256"
        }
      ],
      "name": "transferCardEvent",
      "type": "event"
    },
    {
      "anonymous": false,
      "inputs": [
        {
          "indexed": false,
          "internalType": "address",
          "name": "owner",
          "type": "address"
        },
        {
          "indexed": false,
          "internalType": "uint256",
          "name": "_tokenId",
          "type": "uint256"
        },
        {
          "indexed": false,
          "internalType": "uint256",
          "name": "newLv",
          "type": "uint256"
        },
        {
          "indexed": false,
          "internalType": "uint256",
          "name": "newExp",
          "type": "uint256"
        }
      ],
      "name": "upgradeEvent",
      "type": "event"
    },
    {
      "inputs": [
        {
          "internalType": "address",
          "name": "to",
          "type": "address"
        },
        {
          "internalType": "uint256",
          "name": "tokenId",
          "type": "uint256"
        }
      ],
      "name": "approve",
      "outputs": [],
      "stateMutability": "nonpayable",
      "type": "function"
    },
    {
      "inputs": [
        {
          "internalType": "address",
          "name": "owner",
          "type": "address"
        }
      ],
      "name": "balanceOf",
      "outputs": [
        {
          "internalType": "uint256",
          "name": "",
          "type": "uint256"
        }
      ],
      "stateMutability": "view",
      "type": "function",
      "constant": true
    },
    {
      "inputs": [
        {
          "internalType": "uint256",
          "name": "",
          "type": "uint256"
        }
      ],
      "name": "cardDB",
      "outputs": [
        {
          "internalType": "uint256",
          "name": "id",
          "type": "uint256"
        },
        {
          "internalType": "uint256",
          "name": "li",
          "type": "uint256"
        },
        {
          "internalType": "uint256",
          "name": "min",
          "type": "uint256"
        },
        {
          "internalType": "uint256",
          "name": "zhi",
          "type": "uint256"
        },
        {
          "internalType": "uint256",
          "name": "lv",
          "type": "uint256"
        },
        {
          "internalType": "uint256",
          "name": "exp",
          "type": "uint256"
        }
      ],
      "stateMutability": "view",
      "type": "function",
      "constant": true
    },
    {
      "inputs": [
        {
          "internalType": "uint256",
          "name": "tokenId",
          "type": "uint256"
        }
      ],
      "name": "getApproved",
      "outputs": [
        {
          "internalType": "address",
          "name": "",
          "type": "address"
        }
      ],
      "stateMutability": "view",
      "type": "function",
      "constant": true
    },
    {
      "inputs": [
        {
          "internalType": "address",
          "name": "owner",
          "type": "address"
        },
        {
          "internalType": "address",
          "name": "operator",
          "type": "address"
        }
      ],
      "name": "isApprovedForAll",
      "outputs": [
        {
          "internalType": "bool",
          "name": "",
          "type": "bool"
        }
      ],
      "stateMutability": "view",
      "type": "function",
      "constant": true
    },
    {
      "inputs": [],
      "name": "name",
      "outputs": [
        {
          "internalType": "string",
          "name": "",
          "type": "string"
        }
      ],
      "stateMutability": "view",
      "type": "function",
      "constant": true
    },
    {
      "inputs": [],
      "name": "owner",
      "outputs": [
        {
          "internalType": "address",
          "name": "",
          "type": "address"
        }
      ],
      "stateMutability": "view",
      "type": "function",
      "constant": true
    },
    {
      "inputs": [
        {
          "internalType": "uint256",
          "name": "tokenId",
          "type": "uint256"
        }
      ],
      "name": "ownerOf",
      "outputs": [
        {
          "internalType": "address",
          "name": "",
          "type": "address"
        }
      ],
      "stateMutability": "view",
      "type": "function",
      "constant": true
    },
    {
      "inputs": [],
      "name": "paused",
      "outputs": [
        {
          "internalType": "bool",
          "name": "",
          "type": "bool"
        }
      ],
      "stateMutability": "view",
      "type": "function",
      "constant": true
    },
    {
      "inputs": [],
      "name": "renounceOwnership",
      "outputs": [],
      "stateMutability": "nonpayable",
      "type": "function"
    },
    {
      "inputs": [
        {
          "internalType": "address",
          "name": "from",
          "type": "address"
        },
        {
          "internalType": "address",
          "name": "to",
          "type": "address"
        },
        {
          "internalType": "uint256",
          "name": "tokenId",
          "type": "uint256"
        }
      ],
      "name": "safeTransferFrom",
      "outputs": [],
      "stateMutability": "nonpayable",
      "type": "function"
    },
    {
      "inputs": [
        {
          "internalType": "address",
          "name": "from",
          "type": "address"
        },
        {
          "internalType": "address",
          "name": "to",
          "type": "address"
        },
        {
          "internalType": "uint256",
          "name": "tokenId",
          "type": "uint256"
        },
        {
          "internalType": "bytes",
          "name": "_data",
          "type": "bytes"
        }
      ],
      "name": "safeTransferFrom",
      "outputs": [],
      "stateMutability": "nonpayable",
      "type": "function"
    },
    {
      "inputs": [
        {
          "internalType": "address",
          "name": "operator",
          "type": "address"
        },
        {
          "internalType": "bool",
          "name": "approved",
          "type": "bool"
        }
      ],
      "name": "setApprovalForAll",
      "outputs": [],
      "stateMutability": "nonpayable",
      "type": "function"
    },
    {
      "inputs": [
        {
          "internalType": "bytes4",
          "name": "interfaceId",
          "type": "bytes4"
        }
      ],
      "name": "supportsInterface",
      "outputs": [
        {
          "internalType": "bool",
          "name": "",
          "type": "bool"
        }
      ],
      "stateMutability": "view",
      "type": "function",
      "constant": true
    },
    {
      "inputs": [],
      "name": "symbol",
      "outputs": [
        {
          "internalType": "string",
          "name": "",
          "type": "string"
        }
      ],
      "stateMutability": "view",
      "type": "function",
      "constant": true
    },
    {
      "inputs": [
        {
          "internalType": "uint256",
          "name": "tokenId",
          "type": "uint256"
        }
      ],
      "name": "tokenURI",
      "outputs": [
        {
          "internalType": "string",
          "name": "",
          "type": "string"
        }
      ],
      "stateMutability": "view",
      "type": "function",
      "constant": true
    },
    {
      "inputs": [
        {
          "internalType": "address",
          "name": "from",
          "type": "address"
        },
        {
          "internalType": "address",
          "name": "to",
          "type": "address"
        },
        {
          "internalType": "uint256",
          "name": "tokenId",
          "type": "uint256"
        }
      ],
      "name": "transferFrom",
      "outputs": [],
      "stateMutability": "nonpayable",
      "type": "function"
    },
    {
      "inputs": [
        {
          "internalType": "address",
          "name": "newOwner",
          "type": "address"
        }
      ],
      "name": "transferOwnership",
      "outputs": [],
      "stateMutability": "nonpayable",
      "type": "function"
    },
    {
      "inputs": [
        {
          "internalType": "contract Diamond",
          "name": "_diamondInstance",
          "type": "address"
        },
        {
          "internalType": "contract HeroPool",
          "name": "_heroPoolInstance",
          "type": "address"
        }
      ],
      "name": "initialize",
      "outputs": [],
      "stateMutability": "nonpayable",
      "type": "function"
    },
    {
      "inputs": [
        {
          "internalType": "contract HeroPool",
          "name": "_heroPoolInstance",
          "type": "address"
        }
      ],
      "name": "setHeroPool",
      "outputs": [],
      "stateMutability": "nonpayable",
      "type": "function"
    },
    {
      "inputs": [
        {
          "internalType": "uint256",
          "name": "_hero_id",
          "type": "uint256"
        }
      ],
      "name": "getHeroType",
      "outputs": [
        {
          "internalType": "uint256",
          "name": "_type",
          "type": "uint256"
        }
      ],
      "stateMutability": "view",
      "type": "function",
      "constant": true
    },
    {
      "inputs": [],
      "name": "createCard",
      "outputs": [],
      "stateMutability": "payable",
      "type": "function",
      "payable": true
    },
    {
      "inputs": [
        {
          "internalType": "uint256",
          "name": "tokenId",
          "type": "uint256"
        }
      ],
      "name": "upgrade",
      "outputs": [],
      "stateMutability": "nonpayable",
      "type": "function"
    },
    {
      "inputs": [
        {
          "internalType": "address",
          "name": "_addr",
          "type": "address"
        }
      ],
      "name": "getMyCards",
      "outputs": [
        {
          "internalType": "uint256[]",
          "name": "",
          "type": "uint256[]"
        },
        {
          "internalType": "uint256[]",
          "name": "",
          "type": "uint256[]"
        },
        {
          "internalType": "uint256[]",
          "name": "",
          "type": "uint256[]"
        },
        {
          "internalType": "uint256[]",
          "name": "",
          "type": "uint256[]"
        },
        {
          "internalType": "uint256[]",
          "name": "",
          "type": "uint256[]"
        },
        {
          "internalType": "uint256[]",
          "name": "",
          "type": "uint256[]"
        },
        {
          "internalType": "uint256[]",
          "name": "",
          "type": "uint256[]"
        }
      ],
      "stateMutability": "view",
      "type": "function",
      "constant": true
    },
    {
      "inputs": [
        {
          "internalType": "uint256",
          "name": "tokenId",
          "type": "uint256"
        }
      ],
      "name": "burn",
      "outputs": [],
      "stateMutability": "nonpayable",
      "type": "function"
    },
    {
      "inputs": [
        {
          "internalType": "uint256",
          "name": "tokenId",
          "type": "uint256"
        }
      ],
      "name": "getAttr",
      "outputs": [
        {
          "internalType": "uint256",
          "name": "_id",
          "type": "uint256"
        },
        {
          "internalType": "uint256",
          "name": "_type",
          "type": "uint256"
        },
        {
          "internalType": "uint256",
          "name": "li",
          "type": "uint256"
        },
        {
          "internalType": "uint256",
          "name": "min",
          "type": "uint256"
        },
        {
          "internalType": "uint256",
          "name": "zhi",
          "type": "uint256"
        },
        {
          "internalType": "uint256",
          "name": "lv",
          "type": "uint256"
        }
      ],
      "stateMutability": "view",
      "type": "function",
      "constant": true
    }
  ],
  "bytecode": "0x608060405234801561001057600080fd5b50614e1d806100206000396000f3fe6080604052600436106101815760003560e01c806370a08231116100d1578063a22cb4651161008a578063c87b56dd11610064578063c87b56dd1461057f578063e3f2b3cf146105bc578063e985e9c5146105f9578063f2fde38b1461063657610181565b8063a22cb46514610523578063a2d256fa1461054c578063b88d4fde1461055657610181565b806370a082311461040e578063715018a61461044b5780638da5cb5b1461046257806395d89b411461048d578063a00f6d76146104b8578063a0a291d6146104fa57610181565b80633da1f63c1161013e57806345977d031161011857806345977d0314610354578063485cc9551461037d5780635c975abb146103a65780636352211e146103d157610181565b80633da1f63c146102c057806342842e0e1461030257806342966c681461032b57610181565b806301ffc9a71461018657806306fdde03146101c3578063081812fc146101ee578063095ea7b31461022b57806323b872dd1461025457806337983aed1461027d575b600080fd5b34801561019257600080fd5b506101ad60048036038101906101a89190613950565b61065f565b6040516101ba91906140ce565b60405180910390f35b3480156101cf57600080fd5b506101d8610741565b6040516101e591906140e9565b60405180910390f35b3480156101fa57600080fd5b5061021560048036038101906102109190613a17565b6107d3565b6040516102229190613eea565b60405180910390f35b34801561023757600080fd5b50610252600480360381019061024d91906138e3565b610858565b005b34801561026057600080fd5b5061027b600480360381019061027691906137cd565b610970565b005b34801561028957600080fd5b506102a4600480360381019061029f9190613760565b6109d0565b6040516102b7979695949392919061402e565b60405180910390f35b3480156102cc57600080fd5b506102e760048036038101906102e29190613a17565b610df8565b6040516102f9969594939291906143af565b60405180910390f35b34801561030e57600080fd5b50610329600480360381019061032491906137cd565b610ef3565b005b34801561033757600080fd5b50610352600480360381019061034d9190613a17565b610f13565b005b34801561036057600080fd5b5061037b60048036038101906103769190613a17565b610f9b565b005b34801561038957600080fd5b506103a4600480360381019061039f91906139aa565b610fe0565b005b3480156103b257600080fd5b506103bb6111c1565b6040516103c891906140ce565b60405180910390f35b3480156103dd57600080fd5b506103f860048036038101906103f39190613a17565b6111d8565b6040516104059190613eea565b60405180910390f35b34801561041a57600080fd5b5061043560048036038101906104309190613760565b61128a565b604051610442919061436b565b60405180910390f35b34801561045757600080fd5b50610460611342565b005b34801561046e57600080fd5b506104776113ca565b6040516104849190613eea565b60405180910390f35b34801561049957600080fd5b506104a26113f4565b6040516104af91906140e9565b60405180910390f35b3480156104c457600080fd5b506104df60048036038101906104da9190613a17565b611486565b6040516104f1969594939291906143af565b60405180910390f35b34801561050657600080fd5b50610521600480360381019061051c91906139ea565b6114c2565b005b34801561052f57600080fd5b5061054a600480360381019061054591906138a3565b611582565b005b610554611703565b005b34801561056257600080fd5b5061057d60048036038101906105789190613820565b611aee565b005b34801561058b57600080fd5b506105a660048036038101906105a19190613a17565b611b50565b6040516105b391906140e9565b60405180910390f35b3480156105c857600080fd5b506105e360048036038101906105de9190613a17565b611bf7565b6040516105f0919061436b565b60405180910390f35b34801561060557600080fd5b50610620600480360381019061061b919061378d565b611c18565b60405161062d91906140ce565b60405180910390f35b34801561064257600080fd5b5061065d60048036038101906106589190613760565b611cac565b005b60007f80ac58cd000000000000000000000000000000000000000000000000000000007bffffffffffffffffffffffffffffffffffffffffffffffffffffffff1916827bffffffffffffffffffffffffffffffffffffffffffffffffffffffff1916148061072a57507f5b5e139f000000000000000000000000000000000000000000000000000000007bffffffffffffffffffffffffffffffffffffffffffffffffffffffff1916827bffffffffffffffffffffffffffffffffffffffffffffffffffffffff1916145b8061073a575061073982611da4565b5b9050919050565b60606065805461075090614677565b80601f016020809104026020016040519081016040528092919081815260200182805461077c90614677565b80156107c95780601f1061079e576101008083540402835291602001916107c9565b820191906000526020600020905b8154815290600101906020018083116107ac57829003601f168201915b5050505050905090565b60006107de82611e0e565b61081d576040517f08c379a0000000000000000000000000000000000000000000000000000000008152600401610814906142ab565b60405180910390fd5b6069600083815260200190815260200160002060009054906101000a900473ffffffffffffffffffffffffffffffffffffffff169050919050565b6000610863826111d8565b90508073ffffffffffffffffffffffffffffffffffffffff168373ffffffffffffffffffffffffffffffffffffffff1614156108d4576040517f08c379a00000000000000000000000000000000000000000000000000000000081526004016108cb9061432b565b60405180910390fd5b8073ffffffffffffffffffffffffffffffffffffffff166108f3611e7a565b73ffffffffffffffffffffffffffffffffffffffff16148061092257506109218161091c611e7a565b611c18565b5b610961576040517f08c379a00000000000000000000000000000000000000000000000000000000081526004016109589061420b565b60405180910390fd5b61096b8383611e82565b505050565b61098161097b611e7a565b82611f3b565b6109c0576040517f08c379a00000000000000000000000000000000000000000000000000000000081526004016109b79061434b565b60405180910390fd5b6109cb838383612019565b505050565b6060806060806060806060600061010060008a73ffffffffffffffffffffffffffffffffffffffff1673ffffffffffffffffffffffffffffffffffffffff168152602001908152602001600020805480602002602001604051908101604052809291908181526020018280548015610a6757602002820191906000526020600020905b815481526020019060010190808311610a53575b505050505090506000815167ffffffffffffffff811115610a8b57610a8a614810565b5b604051908082528060200260200182016040528015610ab95781602001602082028036833780820191505090505b5090506000825167ffffffffffffffff811115610ad957610ad8614810565b5b604051908082528060200260200182016040528015610b075781602001602082028036833780820191505090505b5090506000835167ffffffffffffffff811115610b2757610b26614810565b5b604051908082528060200260200182016040528015610b555781602001602082028036833780820191505090505b5090506000845167ffffffffffffffff811115610b7557610b74614810565b5b604051908082528060200260200182016040528015610ba35781602001602082028036833780820191505090505b5090506000855167ffffffffffffffff811115610bc357610bc2614810565b5b604051908082528060200260200182016040528015610bf15781602001602082028036833780820191505090505b5090506000865167ffffffffffffffff811115610c1157610c10614810565b5b604051908082528060200260200182016040528015610c3f5781602001602082028036833780820191505090505b509050600087511115610dd15760005b8751811015610dcf576000888281518110610c6d57610c6c6147e1565b5b6020026020010151905060ff600082815260200190815260200160002060000154888381518110610ca157610ca06147e1565b5b60200260200101818152505060ff600082815260200190815260200160002060010154878381518110610cd757610cd66147e1565b5b60200260200101818152505060ff600082815260200190815260200160002060020154868381518110610d0d57610d0c6147e1565b5b60200260200101818152505060ff600082815260200190815260200160002060030154858381518110610d4357610d426147e1565b5b60200260200101818152505060ff600082815260200190815260200160002060040154848381518110610d7957610d786147e1565b5b60200260200101818152505060ff600082815260200190815260200160002060050154838381518110610daf57610dae6147e1565b5b602002602001018181525050508080610dc7906146da565b915050610c4f565b505b868686868686869d509d509d509d509d509d509d5050505050505050919395979092949650565b600080600080600080600060ff60008981526020019081526020016000206000015411610e5a576040517f08c379a0000000000000000000000000000000000000000000000000000000008152600401610e519061418b565b60405180910390fd5b600060ff60008981526020019081526020016000206040518060c001604052908160008201548152602001600182015481526020016002820154815260200160038201548152602001600482015481526020016005820154815250509050610ec187611bf7565b955080600001518682602001518360400151846060015185608001519650965096509650965096505091939550919395565b610f0e83838360405180602001604052806000815250611aee565b505050565b610f1b611e7a565b73ffffffffffffffffffffffffffffffffffffffff16610f396113ca565b73ffffffffffffffffffffffffffffffffffffffff1614610f8f576040517f08c379a0000000000000000000000000000000000000000000000000000000008152600401610f86906142cb565b60405180910390fd5b610f9881612275565b50565b6000807f3fa8b49be48fa9170de00621297ea9ef83eb138efc2f7df85625a056550f869f33848484604051610fd39493929190613f88565b60405180910390a1505050565b600060019054906101000a900460ff1680611006575060008054906101000a900460ff16155b611045576040517f08c379a000000000000000000000000000000000000000000000000000000000815260040161103c9061426b565b60405180910390fd5b60008060019054906101000a900460ff161590508015611095576001600060016101000a81548160ff02191690831515021790555060016000806101000a81548160ff0219169083151502179055505b6111096040518060400160405280600d81526020017f464d20546f6b656e2043617264000000000000000000000000000000000000008152506040518060400160405280600381526020017f464d430000000000000000000000000000000000000000000000000000000000815250612386565b61111161247b565b611119612564565b8260fb60006101000a81548173ffffffffffffffffffffffffffffffffffffffff021916908373ffffffffffffffffffffffffffffffffffffffff1602179055508160fc60006101000a81548173ffffffffffffffffffffffffffffffffffffffff021916908373ffffffffffffffffffffffffffffffffffffffff16021790555080156111bc5760008060016101000a81548160ff0219169083151502179055505b505050565b600060c960009054906101000a900460ff16905090565b6000806067600084815260200190815260200160002060009054906101000a900473ffffffffffffffffffffffffffffffffffffffff169050600073ffffffffffffffffffffffffffffffffffffffff168173ffffffffffffffffffffffffffffffffffffffff161415611281576040517f08c379a00000000000000000000000000000000000000000000000000000000081526004016112789061424b565b60405180910390fd5b80915050919050565b60008073ffffffffffffffffffffffffffffffffffffffff168273ffffffffffffffffffffffffffffffffffffffff1614156112fb576040517f08c379a00000000000000000000000000000000000000000000000000000000081526004016112f29061422b565b60405180910390fd5b606860008373ffffffffffffffffffffffffffffffffffffffff1673ffffffffffffffffffffffffffffffffffffffff168152602001908152602001600020549050919050565b61134a611e7a565b73ffffffffffffffffffffffffffffffffffffffff166113686113ca565b73ffffffffffffffffffffffffffffffffffffffff16146113be576040517f08c379a00000000000000000000000000000000000000000000000000000000081526004016113b5906142cb565b60405180910390fd5b6113c8600061264d565b565b6000609760009054906101000a900473ffffffffffffffffffffffffffffffffffffffff16905090565b60606066805461140390614677565b80601f016020809104026020016040519081016040528092919081815260200182805461142f90614677565b801561147c5780601f106114515761010080835404028352916020019161147c565b820191906000526020600020905b81548152906001019060200180831161145f57829003601f168201915b5050505050905090565b60ff6020528060005260406000206000915090508060000154908060010154908060020154908060030154908060040154908060050154905086565b6114ca611e7a565b73ffffffffffffffffffffffffffffffffffffffff166114e86113ca565b73ffffffffffffffffffffffffffffffffffffffff161461153e576040517f08c379a0000000000000000000000000000000000000000000000000000000008152600401611535906142cb565b60405180910390fd5b8060fc60006101000a81548173ffffffffffffffffffffffffffffffffffffffff021916908373ffffffffffffffffffffffffffffffffffffffff16021790555050565b61158a611e7a565b73ffffffffffffffffffffffffffffffffffffffff168273ffffffffffffffffffffffffffffffffffffffff1614156115f8576040517f08c379a00000000000000000000000000000000000000000000000000000000081526004016115ef906141cb565b60405180910390fd5b80606a6000611605611e7a565b73ffffffffffffffffffffffffffffffffffffffff1673ffffffffffffffffffffffffffffffffffffffff16815260200190815260200160002060008473ffffffffffffffffffffffffffffffffffffffff1673ffffffffffffffffffffffffffffffffffffffff16815260200190815260200160002060006101000a81548160ff0219169083151502179055508173ffffffffffffffffffffffffffffffffffffffff166116b2611e7a565b73ffffffffffffffffffffffffffffffffffffffff167f17307eab39ab6107e8899845ad3d59bd9653f200f220920489ca2b5937696c31836040516116f791906140ce565b60405180910390a35050565b6000670de0b6b3a764000090508060fb60009054906101000a900473ffffffffffffffffffffffffffffffffffffffff1673ffffffffffffffffffffffffffffffffffffffff166370a08231336040518263ffffffff1660e01b815260040161176c9190613eea565b60206040518083038186803b15801561178457600080fd5b505afa158015611798573d6000803e3d6000fd5b505050506040513d601f19601f820116820180604052508101906117bc9190613a44565b10156117fd576040517f08c379a00000000000000000000000000000000000000000000000000000000081526004016117f49061410b565b60405180910390fd5b60fb60009054906101000a900473ffffffffffffffffffffffffffffffffffffffff1673ffffffffffffffffffffffffffffffffffffffff166323b872dd3360fb60009054906101000a900473ffffffffffffffffffffffffffffffffffffffff16846040518463ffffffff1660e01b815260040161187e93929190613f05565b602060405180830381600087803b15801561189857600080fd5b505af11580156118ac573d6000803e3d6000fd5b505050506040513d601f19601f820116820180604052508101906118d09190613923565b50600060fe600081546118e2906146da565b919050819055905060008060008060fc60009054906101000a900473ffffffffffffffffffffffffffffffffffffffff1673ffffffffffffffffffffffffffffffffffffffff166395032b6260fd6000815461193d906146da565b9190508190556101016000611950611e7a565b73ffffffffffffffffffffffffffffffffffffffff1673ffffffffffffffffffffffffffffffffffffffff16815260200190815260200160002060008154611997906146da565b9190508190556040518363ffffffff1660e01b81526004016119ba929190614386565b60806040518083038186803b1580156119d257600080fd5b505afa1580156119e6573d6000803e3d6000fd5b505050506040513d601f19601f82011682018060405250810190611a0a9190613a71565b809450819550829650839750505050506040518060c0016040528085815260200184815260200183815260200182815260200160018152602001600081525060ff6000878152602001908152602001600020600082015181600001556020820151816001015560408201518160020155606082015181600301556080820151816004015560a08201518160050155905050611aa53386612713565b7fc6d093197649ec1fafeca555c8e2a8fe66ade0217ceb9f230c3344632d2586e7338686868686604051611ade96959493929190613fcd565b60405180910390a1505050505050565b611aff611af9611e7a565b83611f3b565b611b3e576040517f08c379a0000000000000000000000000000000000000000000000000000000008152600401611b359061434b565b60405180910390fd5b611b4a848484846128e1565b50505050565b6060611b5b82611e0e565b611b9a576040517f08c379a0000000000000000000000000000000000000000000000000000000008152600401611b919061430b565b60405180910390fd5b6000611ba461293d565b90506000815111611bc45760405180602001604052806000815250611bef565b80611bce84612954565b604051602001611bdf929190613ec6565b6040516020818303038152906040525b915050919050565b6000606482611c069190614723565b82611c119190614569565b9050919050565b6000606a60008473ffffffffffffffffffffffffffffffffffffffff1673ffffffffffffffffffffffffffffffffffffffff16815260200190815260200160002060008373ffffffffffffffffffffffffffffffffffffffff1673ffffffffffffffffffffffffffffffffffffffff16815260200190815260200160002060009054906101000a900460ff16905092915050565b611cb4611e7a565b73ffffffffffffffffffffffffffffffffffffffff16611cd26113ca565b73ffffffffffffffffffffffffffffffffffffffff1614611d28576040517f08c379a0000000000000000000000000000000000000000000000000000000008152600401611d1f906142cb565b60405180910390fd5b600073ffffffffffffffffffffffffffffffffffffffff168173ffffffffffffffffffffffffffffffffffffffff161415611d98576040517f08c379a0000000000000000000000000000000000000000000000000000000008152600401611d8f9061414b565b60405180910390fd5b611da18161264d565b50565b60007f01ffc9a7000000000000000000000000000000000000000000000000000000007bffffffffffffffffffffffffffffffffffffffffffffffffffffffff1916827bffffffffffffffffffffffffffffffffffffffffffffffffffffffff1916149050919050565b60008073ffffffffffffffffffffffffffffffffffffffff166067600084815260200190815260200160002060009054906101000a900473ffffffffffffffffffffffffffffffffffffffff1673ffffffffffffffffffffffffffffffffffffffff1614159050919050565b600033905090565b816069600083815260200190815260200160002060006101000a81548173ffffffffffffffffffffffffffffffffffffffff021916908373ffffffffffffffffffffffffffffffffffffffff160217905550808273ffffffffffffffffffffffffffffffffffffffff16611ef5836111d8565b73ffffffffffffffffffffffffffffffffffffffff167f8c5be1e5ebec7d5bd14f71427d1e84f3dd0314c0f7b2291e5b200ac8c7c3b92560405160405180910390a45050565b6000611f4682611e0e565b611f85576040517f08c379a0000000000000000000000000000000000000000000000000000000008152600401611f7c906141eb565b60405180910390fd5b6000611f90836111d8565b90508073ffffffffffffffffffffffffffffffffffffffff168473ffffffffffffffffffffffffffffffffffffffff161480611fff57508373ffffffffffffffffffffffffffffffffffffffff16611fe7846107d3565b73ffffffffffffffffffffffffffffffffffffffff16145b80612010575061200f8185611c18565b5b91505092915050565b8273ffffffffffffffffffffffffffffffffffffffff16612039826111d8565b73ffffffffffffffffffffffffffffffffffffffff161461208f576040517f08c379a0000000000000000000000000000000000000000000000000000000008152600401612086906142eb565b60405180910390fd5b600073ffffffffffffffffffffffffffffffffffffffff168273ffffffffffffffffffffffffffffffffffffffff1614156120ff576040517f08c379a00000000000000000000000000000000000000000000000000000000081526004016120f6906141ab565b60405180910390fd5b61210a838383612ab5565b612115600082611e82565b6001606860008573ffffffffffffffffffffffffffffffffffffffff1673ffffffffffffffffffffffffffffffffffffffff16815260200190815260200160002060008282546121659190614569565b925050819055506001606860008473ffffffffffffffffffffffffffffffffffffffff1673ffffffffffffffffffffffffffffffffffffffff16815260200190815260200160002060008282546121bc91906144e2565b92505081905550816067600083815260200190815260200160002060006101000a81548173ffffffffffffffffffffffffffffffffffffffff021916908373ffffffffffffffffffffffffffffffffffffffff160217905550808273ffffffffffffffffffffffffffffffffffffffff168473ffffffffffffffffffffffffffffffffffffffff167fddf252ad1be2c89b69c2b068fc378daa952ba7f163c4a11628f55a4df523b3ef60405160405180910390a4505050565b6000612280826111d8565b905061228e81600084612ab5565b612299600083611e82565b6001606860008373ffffffffffffffffffffffffffffffffffffffff1673ffffffffffffffffffffffffffffffffffffffff16815260200190815260200160002060008282546122e99190614569565b925050819055506067600083815260200190815260200160002060006101000a81549073ffffffffffffffffffffffffffffffffffffffff021916905581600073ffffffffffffffffffffffffffffffffffffffff168273ffffffffffffffffffffffffffffffffffffffff167fddf252ad1be2c89b69c2b068fc378daa952ba7f163c4a11628f55a4df523b3ef60405160405180910390a45050565b600060019054906101000a900460ff16806123ac575060008054906101000a900460ff16155b6123eb576040517f08c379a00000000000000000000000000000000000000000000000000000000081526004016123e29061426b565b60405180910390fd5b60008060019054906101000a900460ff16159050801561243b576001600060016101000a81548160ff02191690831515021790555060016000806101000a81548160ff0219169083151502179055505b612443612f01565b61244b612fda565b61245583836130b3565b80156124765760008060016101000a81548160ff0219169083151502179055505b505050565b600060019054906101000a900460ff16806124a1575060008054906101000a900460ff16155b6124e0576040517f08c379a00000000000000000000000000000000000000000000000000000000081526004016124d79061426b565b60405180910390fd5b60008060019054906101000a900460ff161590508015612530576001600060016101000a81548160ff02191690831515021790555060016000806101000a81548160ff0219169083151502179055505b612538612f01565b6125406131bc565b80156125615760008060016101000a81548160ff0219169083151502179055505b50565b600060019054906101000a900460ff168061258a575060008054906101000a900460ff16155b6125c9576040517f08c379a00000000000000000000000000000000000000000000000000000000081526004016125c09061426b565b60405180910390fd5b60008060019054906101000a900460ff161590508015612619576001600060016101000a81548160ff02191690831515021790555060016000806101000a81548160ff0219169083151502179055505b612621612f01565b6126296132a5565b801561264a5760008060016101000a81548160ff0219169083151502179055505b50565b6000609760009054906101000a900473ffffffffffffffffffffffffffffffffffffffff16905081609760006101000a81548173ffffffffffffffffffffffffffffffffffffffff021916908373ffffffffffffffffffffffffffffffffffffffff1602179055508173ffffffffffffffffffffffffffffffffffffffff168173ffffffffffffffffffffffffffffffffffffffff167f8be0079c531659141344cd1fd0a4f28419497f9722a3daafe3b4186f6b6457e060405160405180910390a35050565b600073ffffffffffffffffffffffffffffffffffffffff168273ffffffffffffffffffffffffffffffffffffffff161415612783576040517f08c379a000000000000000000000000000000000000000000000000000000000815260040161277a9061428b565b60405180910390fd5b61278c81611e0e565b156127cc576040517f08c379a00000000000000000000000000000000000000000000000000000000081526004016127c39061416b565b60405180910390fd5b6127d860008383612ab5565b6001606860008473ffffffffffffffffffffffffffffffffffffffff1673ffffffffffffffffffffffffffffffffffffffff168152602001908152602001600020600082825461282891906144e2565b92505081905550816067600083815260200190815260200160002060006101000a81548173ffffffffffffffffffffffffffffffffffffffff021916908373ffffffffffffffffffffffffffffffffffffffff160217905550808273ffffffffffffffffffffffffffffffffffffffff16600073ffffffffffffffffffffffffffffffffffffffff167fddf252ad1be2c89b69c2b068fc378daa952ba7f163c4a11628f55a4df523b3ef60405160405180910390a45050565b6128ec848484612019565b6128f884848484613399565b612937576040517f08c379a000000000000000000000000000000000000000000000000000000000815260040161292e9061412b565b60405180910390fd5b50505050565b606060405180602001604052806000815250905090565b6060600082141561299c576040518060400160405280600181526020017f30000000000000000000000000000000000000000000000000000000000000008152509050612ab0565b600082905060005b600082146129ce5780806129b7906146da565b915050600a826129c79190614538565b91506129a4565b60008167ffffffffffffffff8111156129ea576129e9614810565b5b6040519080825280601f01601f191660200182016040528015612a1c5781602001600182028036833780820191505090505b5090505b60008514612aa957600182612a359190614569565b9150600a85612a449190614723565b6030612a5091906144e2565b60f81b818381518110612a6657612a656147e1565b5b60200101907effffffffffffffffffffffffffffffffffffffffffffffffffffffffffffff1916908160001a905350600a85612aa29190614538565b9450612a20565b8093505050505b919050565b600073ffffffffffffffffffffffffffffffffffffffff168373ffffffffffffffffffffffffffffffffffffffff1614612dda576000600161010060008673ffffffffffffffffffffffffffffffffffffffff1673ffffffffffffffffffffffffffffffffffffffff16815260200190815260200160002080549050612b3b9190614569565b67ffffffffffffffff811115612b5457612b53614810565b5b604051908082528060200260200182016040528015612b825781602001602082028036833780820191505090505b509050600161010060008673ffffffffffffffffffffffffffffffffffffffff1673ffffffffffffffffffffffffffffffffffffffff168152602001908152602001600020805490501115612d8357600080600090505b61010060008773ffffffffffffffffffffffffffffffffffffffff1673ffffffffffffffffffffffffffffffffffffffff16815260200190815260200160002080549050811015612d25578361010060008873ffffffffffffffffffffffffffffffffffffffff1673ffffffffffffffffffffffffffffffffffffffff1681526020019081526020016000208281548110612c7757612c766147e1565b5b906000526020600020015414612d125761010060008773ffffffffffffffffffffffffffffffffffffffff1673ffffffffffffffffffffffffffffffffffffffff1681526020019081526020016000208181548110612cd957612cd86147e1565b5b9060005260206000200154838381518110612cf757612cf66147e1565b5b6020026020010181815250508180612d0e906146da565b9250505b8080612d1d906146da565b915050612bd9565b50600161010060008773ffffffffffffffffffffffffffffffffffffffff1673ffffffffffffffffffffffffffffffffffffffff16815260200190815260200160002080549050612d769190614569565b8114612d8157600080fd5b505b8061010060008673ffffffffffffffffffffffffffffffffffffffff1673ffffffffffffffffffffffffffffffffffffffff1681526020019081526020016000209080519060200190612dd7929190613543565b50505b600073ffffffffffffffffffffffffffffffffffffffff168273ffffffffffffffffffffffffffffffffffffffff1614612e7a5761010060008373ffffffffffffffffffffffffffffffffffffffff1673ffffffffffffffffffffffffffffffffffffffff168152602001908152602001600020819080600181540180825580915050600190039060005260206000200160009091909190915055612ec1565b60ff60008281526020019081526020016000206000808201600090556001820160009055600282016000905560038201600090556004820160009055600582016000905550505b7f4814987054d8fe344e5b80282e88b055b8f4bd467e8762c163d855819694b8a6838383604051612ef493929190613f05565b60405180910390a1505050565b600060019054906101000a900460ff1680612f27575060008054906101000a900460ff16155b612f66576040517f08c379a0000000000000000000000000000000000000000000000000000000008152600401612f5d9061426b565b60405180910390fd5b60008060019054906101000a900460ff161590508015612fb6576001600060016101000a81548160ff02191690831515021790555060016000806101000a81548160ff0219169083151502179055505b8015612fd75760008060016101000a81548160ff0219169083151502179055505b50565b600060019054906101000a900460ff1680613000575060008054906101000a900460ff16155b61303f576040517f08c379a00000000000000000000000000000000000000000000000000000000081526004016130369061426b565b60405180910390fd5b60008060019054906101000a900460ff16159050801561308f576001600060016101000a81548160ff02191690831515021790555060016000806101000a81548160ff0219169083151502179055505b80156130b05760008060016101000a81548160ff0219169083151502179055505b50565b600060019054906101000a900460ff16806130d9575060008054906101000a900460ff16155b613118576040517f08c379a000000000000000000000000000000000000000000000000000000000815260040161310f9061426b565b60405180910390fd5b60008060019054906101000a900460ff161590508015613168576001600060016101000a81548160ff02191690831515021790555060016000806101000a81548160ff0219169083151502179055505b826065908051906020019061317e929190613590565b508160669080519060200190613195929190613590565b5080156131b75760008060016101000a81548160ff0219169083151502179055505b505050565b600060019054906101000a900460ff16806131e2575060008054906101000a900460ff16155b613221576040517f08c379a00000000000000000000000000000000000000000000000000000000081526004016132189061426b565b60405180910390fd5b60008060019054906101000a900460ff161590508015613271576001600060016101000a81548160ff02191690831515021790555060016000806101000a81548160ff0219169083151502179055505b61328161327c611e7a565b61264d565b80156132a25760008060016101000a81548160ff0219169083151502179055505b50565b600060019054906101000a900460ff16806132cb575060008054906101000a900460ff16155b61330a576040517f08c379a00000000000000000000000000000000000000000000000000000000081526004016133019061426b565b60405180910390fd5b60008060019054906101000a900460ff16159050801561335a576001600060016101000a81548160ff02191690831515021790555060016000806101000a81548160ff0219169083151502179055505b600060c960006101000a81548160ff02191690831515021790555080156133965760008060016101000a81548160ff0219169083151502179055505b50565b60006133ba8473ffffffffffffffffffffffffffffffffffffffff16613530565b15613523578373ffffffffffffffffffffffffffffffffffffffff1663150b7a026133e3611e7a565b8786866040518563ffffffff1660e01b81526004016134059493929190613f3c565b602060405180830381600087803b15801561341f57600080fd5b505af192505050801561345057506040513d601f19601f8201168201806040525081019061344d919061397d565b60015b6134d3573d8060008114613480576040519150601f19603f3d011682016040523d82523d6000602084013e613485565b606091505b506000815114156134cb576040517f08c379a00000000000000000000000000000000000000000000000000000000081526004016134c29061412b565b60405180910390fd5b805181602001fd5b63150b7a0260e01b7bffffffffffffffffffffffffffffffffffffffffffffffffffffffff1916817bffffffffffffffffffffffffffffffffffffffffffffffffffffffff191614915050613528565b600190505b949350505050565b600080823b905060008111915050919050565b82805482825590600052602060002090810192821561357f579160200282015b8281111561357e578251825591602001919060010190613563565b5b50905061358c9190613616565b5090565b82805461359c90614677565b90600052602060002090601f0160209004810192826135be5760008555613605565b82601f106135d757805160ff1916838001178555613605565b82800160010185558215613605579182015b828111156136045782518255916020019190600101906135e9565b5b5090506136129190613616565b5090565b5b8082111561362f576000816000905550600101613617565b5090565b600061364661364184614435565b614410565b90508281526020810184848401111561366257613661614844565b5b61366d848285614635565b509392505050565b60008135905061368481614d5d565b92915050565b60008135905061369981614d74565b92915050565b6000815190506136ae81614d74565b92915050565b6000813590506136c381614d8b565b92915050565b6000815190506136d881614d8b565b92915050565b600082601f8301126136f3576136f261483f565b5b8135613703848260208601613633565b91505092915050565b60008135905061371b81614da2565b92915050565b60008135905061373081614db9565b92915050565b60008135905061374581614dd0565b92915050565b60008151905061375a81614dd0565b92915050565b6000602082840312156137765761377561484e565b5b600061378484828501613675565b91505092915050565b600080604083850312156137a4576137a361484e565b5b60006137b285828601613675565b92505060206137c385828601613675565b9150509250929050565b6000806000606084860312156137e6576137e561484e565b5b60006137f486828701613675565b935050602061380586828701613675565b925050604061381686828701613736565b9150509250925092565b6000806000806080858703121561383a5761383961484e565b5b600061384887828801613675565b945050602061385987828801613675565b935050604061386a87828801613736565b925050606085013567ffffffffffffffff81111561388b5761388a614849565b5b613897878288016136de565b91505092959194509250565b600080604083850312156138ba576138b961484e565b5b60006138c885828601613675565b92505060206138d98582860161368a565b9150509250929050565b600080604083850312156138fa576138f961484e565b5b600061390885828601613675565b925050602061391985828601613736565b9150509250929050565b6000602082840312156139395761393861484e565b5b60006139478482850161369f565b91505092915050565b6000602082840312156139665761396561484e565b5b6000613974848285016136b4565b91505092915050565b6000602082840312156139935761399261484e565b5b60006139a1848285016136c9565b91505092915050565b600080604083850312156139c1576139c061484e565b5b60006139cf8582860161370c565b92505060206139e085828601613721565b9150509250929050565b600060208284031215613a00576139ff61484e565b5b6000613a0e84828501613721565b91505092915050565b600060208284031215613a2d57613a2c61484e565b5b6000613a3b84828501613736565b91505092915050565b600060208284031215613a5a57613a5961484e565b5b6000613a688482850161374b565b91505092915050565b60008060008060808587031215613a8b57613a8a61484e565b5b6000613a998782880161374b565b9450506020613aaa8782880161374b565b9350506040613abb8782880161374b565b9250506060613acc8782880161374b565b91505092959194509250565b6000613ae48383613ea8565b60208301905092915050565b613af98161459d565b82525050565b6000613b0a82614476565b613b1481856144a4565b9350613b1f83614466565b8060005b83811015613b50578151613b378882613ad8565b9750613b4283614497565b925050600181019050613b23565b5085935050505092915050565b613b66816145af565b82525050565b6000613b7782614481565b613b8181856144b5565b9350613b91818560208601614644565b613b9a81614853565b840191505092915050565b6000613bb08261448c565b613bba81856144c6565b9350613bca818560208601614644565b613bd381614853565b840191505092915050565b6000613be98261448c565b613bf381856144d7565b9350613c03818560208601614644565b80840191505092915050565b6000613c1c6012836144c6565b9150613c2782614864565b602082019050919050565b6000613c3f6032836144c6565b9150613c4a8261488d565b604082019050919050565b6000613c626026836144c6565b9150613c6d826148dc565b604082019050919050565b6000613c85601c836144c6565b9150613c908261492b565b602082019050919050565b6000613ca8601c836144c6565b9150613cb382614954565b602082019050919050565b6000613ccb6024836144c6565b9150613cd68261497d565b604082019050919050565b6000613cee6019836144c6565b9150613cf9826149cc565b602082019050919050565b6000613d11602c836144c6565b9150613d1c826149f5565b604082019050919050565b6000613d346038836144c6565b9150613d3f82614a44565b604082019050919050565b6000613d57602a836144c6565b9150613d6282614a93565b604082019050919050565b6000613d7a6029836144c6565b9150613d8582614ae2565b604082019050919050565b6000613d9d602e836144c6565b9150613da882614b31565b604082019050919050565b6000613dc06020836144c6565b9150613dcb82614b80565b602082019050919050565b6000613de3602c836144c6565b9150613dee82614ba9565b604082019050919050565b6000613e066020836144c6565b9150613e1182614bf8565b602082019050919050565b6000613e296029836144c6565b9150613e3482614c21565b604082019050919050565b6000613e4c602f836144c6565b9150613e5782614c70565b604082019050919050565b6000613e6f6021836144c6565b9150613e7a82614cbf565b604082019050919050565b6000613e926031836144c6565b9150613e9d82614d0e565b604082019050919050565b613eb18161462b565b82525050565b613ec08161462b565b82525050565b6000613ed28285613bde565b9150613ede8284613bde565b91508190509392505050565b6000602082019050613eff6000830184613af0565b92915050565b6000606082019050613f1a6000830186613af0565b613f276020830185613af0565b613f346040830184613eb7565b949350505050565b6000608082019050613f516000830187613af0565b613f5e6020830186613af0565b613f6b6040830185613eb7565b8181036060830152613f7d8184613b6c565b905095945050505050565b6000608082019050613f9d6000830187613af0565b613faa6020830186613eb7565b613fb76040830185613eb7565b613fc46060830184613eb7565b95945050505050565b600060c082019050613fe26000830189613af0565b613fef6020830188613eb7565b613ffc6040830187613eb7565b6140096060830186613eb7565b6140166080830185613eb7565b61402360a0830184613eb7565b979650505050505050565b600060e0820190508181036000830152614048818a613aff565b9050818103602083015261405c8189613aff565b905081810360408301526140708188613aff565b905081810360608301526140848187613aff565b905081810360808301526140988186613aff565b905081810360a08301526140ac8185613aff565b905081810360c08301526140c08184613aff565b905098975050505050505050565b60006020820190506140e36000830184613b5d565b92915050565b600060208201905081810360008301526141038184613ba5565b905092915050565b6000602082019050818103600083015261412481613c0f565b9050919050565b6000602082019050818103600083015261414481613c32565b9050919050565b6000602082019050818103600083015261416481613c55565b9050919050565b6000602082019050818103600083015261418481613c78565b9050919050565b600060208201905081810360008301526141a481613c9b565b9050919050565b600060208201905081810360008301526141c481613cbe565b9050919050565b600060208201905081810360008301526141e481613ce1565b9050919050565b6000602082019050818103600083015261420481613d04565b9050919050565b6000602082019050818103600083015261422481613d27565b9050919050565b6000602082019050818103600083015261424481613d4a565b9050919050565b6000602082019050818103600083015261426481613d6d565b9050919050565b6000602082019050818103600083015261428481613d90565b9050919050565b600060208201905081810360008301526142a481613db3565b9050919050565b600060208201905081810360008301526142c481613dd6565b9050919050565b600060208201905081810360008301526142e481613df9565b9050919050565b6000602082019050818103600083015261430481613e1c565b9050919050565b6000602082019050818103600083015261432481613e3f565b9050919050565b6000602082019050818103600083015261434481613e62565b9050919050565b6000602082019050818103600083015261436481613e85565b9050919050565b60006020820190506143806000830184613eb7565b92915050565b600060408201905061439b6000830185613eb7565b6143a86020830184613eb7565b9392505050565b600060c0820190506143c46000830189613eb7565b6143d16020830188613eb7565b6143de6040830187613eb7565b6143eb6060830186613eb7565b6143f86080830185613eb7565b61440560a0830184613eb7565b979650505050505050565b600061441a61442b565b905061442682826146a9565b919050565b6000604051905090565b600067ffffffffffffffff8211156144505761444f614810565b5b61445982614853565b9050602081019050919050565b6000819050602082019050919050565b600081519050919050565b600081519050919050565b600081519050919050565b6000602082019050919050565b600082825260208201905092915050565b600082825260208201905092915050565b600082825260208201905092915050565b600081905092915050565b60006144ed8261462b565b91506144f88361462b565b9250827fffffffffffffffffffffffffffffffffffffffffffffffffffffffffffffffff0382111561452d5761452c614754565b5b828201905092915050565b60006145438261462b565b915061454e8361462b565b92508261455e5761455d614783565b5b828204905092915050565b60006145748261462b565b915061457f8361462b565b92508282101561459257614591614754565b5b828203905092915050565b60006145a88261460b565b9050919050565b60008115159050919050565b60007fffffffff0000000000000000000000000000000000000000000000000000000082169050919050565b60006145f28261459d565b9050919050565b60006146048261459d565b9050919050565b600073ffffffffffffffffffffffffffffffffffffffff82169050919050565b6000819050919050565b82818337600083830152505050565b60005b83811015614662578082015181840152602081019050614647565b83811115614671576000848401525b50505050565b6000600282049050600182168061468f57607f821691505b602082108114156146a3576146a26147b2565b5b50919050565b6146b282614853565b810181811067ffffffffffffffff821117156146d1576146d0614810565b5b80604052505050565b60006146e58261462b565b91507fffffffffffffffffffffffffffffffffffffffffffffffffffffffffffffffff82141561471857614717614754565b5b600182019050919050565b600061472e8261462b565b91506147398361462b565b92508261474957614748614783565b5b828206905092915050565b7f4e487b7100000000000000000000000000000000000000000000000000000000600052601160045260246000fd5b7f4e487b7100000000000000000000000000000000000000000000000000000000600052601260045260246000fd5b7f4e487b7100000000000000000000000000000000000000000000000000000000600052602260045260246000fd5b7f4e487b7100000000000000000000000000000000000000000000000000000000600052603260045260246000fd5b7f4e487b7100000000000000000000000000000000000000000000000000000000600052604160045260246000fd5b600080fd5b600080fd5b600080fd5b600080fd5b6000601f19601f8301169050919050565b7f62616c616e6365203c2072657175697265640000000000000000000000000000600082015250565b7f4552433732313a207472616e7366657220746f206e6f6e20455243373231526560008201527f63656976657220696d706c656d656e7465720000000000000000000000000000602082015250565b7f4f776e61626c653a206e6577206f776e657220697320746865207a65726f206160008201527f6464726573730000000000000000000000000000000000000000000000000000602082015250565b7f4552433732313a20746f6b656e20616c7265616479206d696e74656400000000600082015250565b7f6469646e6f7420666f756e64207468697320746f6b656e206174747200000000600082015250565b7f4552433732313a207472616e7366657220746f20746865207a65726f2061646460008201527f7265737300000000000000000000000000000000000000000000000000000000602082015250565b7f4552433732313a20617070726f766520746f2063616c6c657200000000000000600082015250565b7f4552433732313a206f70657261746f7220717565727920666f72206e6f6e657860008201527f697374656e7420746f6b656e0000000000000000000000000000000000000000602082015250565b7f4552433732313a20617070726f76652063616c6c6572206973206e6f74206f7760008201527f6e6572206e6f7220617070726f76656420666f7220616c6c0000000000000000602082015250565b7f4552433732313a2062616c616e636520717565727920666f7220746865207a6560008201527f726f206164647265737300000000000000000000000000000000000000000000602082015250565b7f4552433732313a206f776e657220717565727920666f72206e6f6e657869737460008201527f656e7420746f6b656e0000000000000000000000000000000000000000000000602082015250565b7f496e697469616c697a61626c653a20636f6e747261637420697320616c72656160008201527f647920696e697469616c697a6564000000000000000000000000000000000000602082015250565b7f4552433732313a206d696e7420746f20746865207a65726f2061646472657373600082015250565b7f4552433732313a20617070726f76656420717565727920666f72206e6f6e657860008201527f697374656e7420746f6b656e0000000000000000000000000000000000000000602082015250565b7f4f776e61626c653a2063616c6c6572206973206e6f7420746865206f776e6572600082015250565b7f4552433732313a207472616e73666572206f6620746f6b656e2074686174206960008201527f73206e6f74206f776e0000000000000000000000000000000000000000000000602082015250565b7f4552433732314d657461646174613a2055524920717565727920666f72206e6f60008201527f6e6578697374656e7420746f6b656e0000000000000000000000000000000000602082015250565b7f4552433732313a20617070726f76616c20746f2063757272656e74206f776e6560008201527f7200000000000000000000000000000000000000000000000000000000000000602082015250565b7f4552433732313a207472616e736665722063616c6c6572206973206e6f74206f60008201527f776e6572206e6f7220617070726f766564000000000000000000000000000000602082015250565b614d668161459d565b8114614d7157600080fd5b50565b614d7d816145af565b8114614d8857600080fd5b50565b614d94816145bb565b8114614d9f57600080fd5b50565b614dab816145e7565b8114614db657600080fd5b50565b614dc2816145f9565b8114614dcd57600080fd5b50565b614dd98161462b565b8114614de457600080fd5b5056fea264697066735822122072f6d581b744e819b69daa81025d88b76e06069eee5679bc4f313d4ee6c747dc64736f6c63430008070033",
  "immutableReferences": {},
  "source": "// SPDX-License-Identifier: MIT\r\npragma solidity ^0.8.0;\r\n\r\nimport \"@openzeppelin/contracts-upgradeable/token/ERC721/ERC721Upgradeable.sol\";\r\nimport \"@openzeppelin/contracts-upgradeable/access/OwnableUpgradeable.sol\";\r\nimport \"@openzeppelin/contracts-upgradeable/security/PausableUpgradeable.sol\";\r\nimport \"./Diamond.sol\";\r\nimport \"./lib/HeroPool.sol\";\r\n\r\n/** / */\r\ncontract NftHero is ERC721Upgradeable,OwnableUpgradeable,PausableUpgradeable {\r\n\r\n    Diamond diamondInstance;\r\n    HeroPool heroPoolInstance;\r\n\r\n    //\r\n    uint256 totalRandTimes;\r\n    //tokenID\r\n    uint256 private countor;\r\n    //\r\n    // tokenId => HeroInfo\r\n    mapping(uint256 => HeroInfo) public cardDB;\r\n    // => tokens\r\n    mapping(address => uint256[]) private tokenDB;\r\n    //\r\n    mapping(address => uint) private userRandtimes;\r\n    //\r\n    struct HeroInfo {\r\n        uint id;\r\n        uint li; //\r\n        uint min; //\r\n        uint zhi; //\r\n        uint lv; //\r\n        uint exp; //\r\n    }\r\n\r\n    function initialize(Diamond _diamondInstance, HeroPool _heroPoolInstance) public initializer {\r\n        __ERC721_init(\"FM Token Card\", \"FMC\");\r\n        __Ownable_init();\r\n        __Pausable_init();\r\n        \r\n        diamondInstance = _diamondInstance;\r\n        heroPoolInstance = _heroPoolInstance;\r\n    }\r\n\r\n    function setHeroPool( HeroPool _heroPoolInstance) public onlyOwner {\r\n        heroPoolInstance = _heroPoolInstance;\r\n    }\r\n\r\n    function getHeroType(uint256 _hero_id) public view returns (uint256 _type) {\r\n        _type = _hero_id - (_hero_id % 100);\r\n        return _type;\r\n    }\r\n\r\n    /**  */\r\n    function createCard() public payable {\r\n        uint256 cost = 1 * 1e18;\r\n        require(\r\n            diamondInstance.balanceOf(msg.sender) >= cost,\r\n            \"balance < required\"\r\n        );\r\n        diamondInstance.transferFrom(msg.sender, address(diamondInstance), cost);\r\n\r\n        uint256 _tokenId = ++countor;\r\n\r\n        //\r\n        uint id; uint li; uint min; uint zhi;\r\n        (id,li,min,zhi) = heroPoolInstance.rand(++totalRandTimes,  ++userRandtimes[_msgSender()]);\r\n        cardDB[_tokenId] = HeroInfo(id,li,min,zhi,1,0);\r\n\r\n        //mint_beforeTokenTransfer\r\n        super._mint(msg.sender, _tokenId);\r\n        emit createCardEvent(msg.sender, _tokenId, id,li,min,zhi);\r\n    }\r\n\r\n    /*  */\r\n    function upgrade(uint256 tokenId) public {\r\n        uint256 newLv = 0;\r\n        uint256 newExp = 0;\r\n        emit upgradeEvent(msg.sender, tokenId, newLv, newExp);\r\n    }\r\n\r\n    /**  */\r\n    function getMyCards(address _addr) public view returns ( uint256[] memory, uint[] memory, uint[] memory, uint[] memory, uint[] memory, uint[] memory, uint[] memory) {\r\n        uint256[] memory _tokens = tokenDB[_addr];\r\n        uint[] memory _hero_ids = new uint[](_tokens.length);\r\n        uint[] memory _li = new uint[](_tokens.length);\r\n        uint[] memory _min = new uint[](_tokens.length);\r\n        uint[] memory _zhi = new uint[](_tokens.length);\r\n        uint[] memory _lv = new uint[](_tokens.length);\r\n        uint[] memory _exp = new uint[](_tokens.length);\r\n\r\n        if (_tokens.length > 0) {\r\n            for (uint i=0; i<_tokens.length; i++) {\r\n                uint256 _tokenId = _tokens[i];\r\n                _hero_ids[i] = cardDB[ _tokenId ].id;\r\n                _li[i] = cardDB[ _tokenId ].li;\r\n                _min[i] = cardDB[ _tokenId ].min;\r\n                _zhi[i] = cardDB[ _tokenId ].zhi;\r\n                _lv[i] = cardDB[ _tokenId ].lv;\r\n                _exp[i] = cardDB[ _tokenId ].exp;\r\n            }\r\n        }\r\n\r\n        return (_tokens, _hero_ids, _li, _min, _zhi, _lv, _exp);\r\n    }\r\n\r\n    //token\r\n    function burn(uint256 tokenId) public onlyOwner {\r\n        _burn(tokenId);\r\n    }\r\n\r\n    /* nft */\r\n    function _beforeTokenTransfer(address from, address to, uint256 tokenId) internal override {\r\n        if (from != address(0)) {\r\n            uint256[] memory newUserTokens = new uint256[](tokenDB[from].length - 1);\r\n            if (tokenDB[from].length > 1) {\r\n                uint256 realLen;\r\n                for (uint i=0; i<tokenDB[from].length; i++) {\r\n                    if (tokenDB[from][i] != tokenId) {\r\n                        newUserTokens[realLen] = tokenDB[from][i];\r\n                        realLen ++;\r\n                    }\r\n                }\r\n                require(realLen == tokenDB[from].length - 1);\r\n            }\r\n            tokenDB[from] = newUserTokens;\r\n        }\r\n\r\n        if (to != address(0)) {\r\n            tokenDB[to].push(tokenId);\r\n        } else {\r\n            delete cardDB[tokenId];\r\n        }\r\n        \r\n        emit transferCardEvent(from, to, tokenId);\r\n    }\r\n\r\n    /**  */\r\n    function getAttr(uint256 tokenId) public view returns (uint256 _id, uint256 _type, uint256 li, uint256 min, uint256 zhi, uint lv)  {\r\n        require(cardDB[tokenId].id > 0, \"didnot found this token attr\");\r\n        HeroInfo memory info = cardDB[tokenId];\r\n        _type = getHeroType(_id);\r\n        return (info.id, _type, info.li, info.min, info.zhi, info.lv);\r\n    }\r\n\r\n    function rand(uint256 _min,uint256 _max) private view returns(uint256) {\r\n        require(_max > _min);\r\n        uint256 random = uint256(keccak256(abi.encodePacked(block.difficulty, block.timestamp+ totalRandTimes)));\r\n        return uint256(random % (_max-_min)) + _min;\r\n    }\r\n\r\n    event createCardEvent(address owner, uint256 token, uint hero_id, uint li, uint min, uint zhi);\r\n    event transferCardEvent(address from, address to, uint256 tokenId);\r\n    event upgradeEvent(address owner, uint256 _tokenId, uint newLv, uint newExp);\r\n}",
  "sourcePath": "D:\\solidity\\sol-test1\\contracts\\NftHero.sol",
  "compiler": {
    "name": "solc",
    "version": "0.8.7+commit.e28d00a7.Emscripten.clang"
  },
  "schemaVersion": "3.4.3",
  "updatedAt": "2021-12-18T12:42:48.155Z",
  "networkType": "ethereum",
  "devdoc": {
    "kind": "dev",
    "methods": {
      "approve(address,uint256)": {
        "details": "See {IERC721-approve}."
      },
      "balanceOf(address)": {
        "details": "See {IERC721-balanceOf}."
      },
      "getApproved(uint256)": {
        "details": "See {IERC721-getApproved}."
      },
      "isApprovedForAll(address,address)": {
        "details": "See {IERC721-isApprovedForAll}."
      },
      "name()": {
        "details": "See {IERC721Metadata-name}."
      },
      "owner()": {
        "details": "Returns the address of the current owner."
      },
      "ownerOf(uint256)": {
        "details": "See {IERC721-ownerOf}."
      },
      "paused()": {
        "details": "Returns true if the contract is paused, and false otherwise."
      },
      "renounceOwnership()": {
        "details": "Leaves the contract without owner. It will not be possible to call `onlyOwner` functions anymore. Can only be called by the current owner. NOTE: Renouncing ownership will leave the contract without an owner, thereby removing any functionality that is only available to the owner."
      },
      "safeTransferFrom(address,address,uint256)": {
        "details": "See {IERC721-safeTransferFrom}."
      },
      "safeTransferFrom(address,address,uint256,bytes)": {
        "details": "See {IERC721-safeTransferFrom}."
      },
      "setApprovalForAll(address,bool)": {
        "details": "See {IERC721-setApprovalForAll}."
      },
      "supportsInterface(bytes4)": {
        "details": "See {IERC165-supportsInterface}."
      },
      "symbol()": {
        "details": "See {IERC721Metadata-symbol}."
      },
      "tokenURI(uint256)": {
        "details": "See {IERC721Metadata-tokenURI}."
      },
      "transferFrom(address,address,uint256)": {
        "details": "See {IERC721-transferFrom}."
      },
      "transferOwnership(address)": {
        "details": "Transfers ownership of the contract to a new account (`newOwner`). Can only be called by the current owner."
      }
    },
    "version": 1
  },
  "userdoc": {
    "kind": "user",
    "methods": {
      "createCard()": {
        "notice": " "
      },
      "getAttr(uint256)": {
        "notice": " "
      },
      "getMyCards(address)": {
        "notice": " "
      }
    },
    "notice": "/ ",
    "version": 1
  }
}