{
  "contractName": "NftHero",
  "abi": [
    {
      "anonymous": false,
      "inputs": [
        {
          "indexed": true,
          "internalType": "address",
          "name": "owner",
          "type": "address"
        },
        {
          "indexed": true,
          "internalType": "address",
          "name": "approved",
          "type": "address"
        },
        {
          "indexed": true,
          "internalType": "uint256",
          "name": "tokenId",
          "type": "uint256"
        }
      ],
      "name": "Approval",
      "type": "event"
    },
    {
      "anonymous": false,
      "inputs": [
        {
          "indexed": true,
          "internalType": "address",
          "name": "owner",
          "type": "address"
        },
        {
          "indexed": true,
          "internalType": "address",
          "name": "operator",
          "type": "address"
        },
        {
          "indexed": false,
          "internalType": "bool",
          "name": "approved",
          "type": "bool"
        }
      ],
      "name": "ApprovalForAll",
      "type": "event"
    },
    {
      "anonymous": false,
      "inputs": [
        {
          "indexed": true,
          "internalType": "address",
          "name": "previousOwner",
          "type": "address"
        },
        {
          "indexed": true,
          "internalType": "address",
          "name": "newOwner",
          "type": "address"
        }
      ],
      "name": "OwnershipTransferred",
      "type": "event"
    },
    {
      "anonymous": false,
      "inputs": [
        {
          "indexed": true,
          "internalType": "address",
          "name": "from",
          "type": "address"
        },
        {
          "indexed": true,
          "internalType": "address",
          "name": "to",
          "type": "address"
        },
        {
          "indexed": true,
          "internalType": "uint256",
          "name": "tokenId",
          "type": "uint256"
        }
      ],
      "name": "Transfer",
      "type": "event"
    },
    {
      "anonymous": false,
      "inputs": [
        {
          "indexed": false,
          "internalType": "uint256",
          "name": "token",
          "type": "uint256"
        },
        {
          "indexed": false,
          "internalType": "uint256",
          "name": "hero_id",
          "type": "uint256"
        },
        {
          "indexed": false,
          "internalType": "uint256",
          "name": "li",
          "type": "uint256"
        },
        {
          "indexed": false,
          "internalType": "uint256",
          "name": "min",
          "type": "uint256"
        },
        {
          "indexed": false,
          "internalType": "uint256",
          "name": "zhi",
          "type": "uint256"
        }
      ],
      "name": "createCardEvent",
      "type": "event"
    },
    {
      "anonymous": false,
      "inputs": [
        {
          "indexed": false,
          "internalType": "address",
          "name": "from",
          "type": "address"
        },
        {
          "indexed": false,
          "internalType": "address",
          "name": "to",
          "type": "address"
        },
        {
          "indexed": false,
          "internalType": "uint256",
          "name": "tokenId",
          "type": "uint256"
        }
      ],
      "name": "transferCardEvent",
      "type": "event"
    },
    {
      "inputs": [
        {
          "internalType": "address",
          "name": "to",
          "type": "address"
        },
        {
          "internalType": "uint256",
          "name": "tokenId",
          "type": "uint256"
        }
      ],
      "name": "approve",
      "outputs": [],
      "stateMutability": "nonpayable",
      "type": "function"
    },
    {
      "inputs": [
        {
          "internalType": "address",
          "name": "owner",
          "type": "address"
        }
      ],
      "name": "balanceOf",
      "outputs": [
        {
          "internalType": "uint256",
          "name": "",
          "type": "uint256"
        }
      ],
      "stateMutability": "view",
      "type": "function",
      "constant": true
    },
    {
      "inputs": [
        {
          "internalType": "uint256",
          "name": "",
          "type": "uint256"
        }
      ],
      "name": "cardDB",
      "outputs": [
        {
          "internalType": "uint256",
          "name": "id",
          "type": "uint256"
        },
        {
          "internalType": "uint256",
          "name": "li",
          "type": "uint256"
        },
        {
          "internalType": "uint256",
          "name": "min",
          "type": "uint256"
        },
        {
          "internalType": "uint256",
          "name": "zhi",
          "type": "uint256"
        },
        {
          "internalType": "uint256",
          "name": "lv",
          "type": "uint256"
        }
      ],
      "stateMutability": "view",
      "type": "function",
      "constant": true
    },
    {
      "inputs": [
        {
          "internalType": "uint256",
          "name": "tokenId",
          "type": "uint256"
        }
      ],
      "name": "getApproved",
      "outputs": [
        {
          "internalType": "address",
          "name": "",
          "type": "address"
        }
      ],
      "stateMutability": "view",
      "type": "function",
      "constant": true
    },
    {
      "inputs": [
        {
          "internalType": "address",
          "name": "owner",
          "type": "address"
        },
        {
          "internalType": "address",
          "name": "operator",
          "type": "address"
        }
      ],
      "name": "isApprovedForAll",
      "outputs": [
        {
          "internalType": "bool",
          "name": "",
          "type": "bool"
        }
      ],
      "stateMutability": "view",
      "type": "function",
      "constant": true
    },
    {
      "inputs": [],
      "name": "name",
      "outputs": [
        {
          "internalType": "string",
          "name": "",
          "type": "string"
        }
      ],
      "stateMutability": "view",
      "type": "function",
      "constant": true
    },
    {
      "inputs": [],
      "name": "owner",
      "outputs": [
        {
          "internalType": "address",
          "name": "",
          "type": "address"
        }
      ],
      "stateMutability": "view",
      "type": "function",
      "constant": true
    },
    {
      "inputs": [
        {
          "internalType": "uint256",
          "name": "tokenId",
          "type": "uint256"
        }
      ],
      "name": "ownerOf",
      "outputs": [
        {
          "internalType": "address",
          "name": "",
          "type": "address"
        }
      ],
      "stateMutability": "view",
      "type": "function",
      "constant": true
    },
    {
      "inputs": [],
      "name": "renounceOwnership",
      "outputs": [],
      "stateMutability": "nonpayable",
      "type": "function"
    },
    {
      "inputs": [
        {
          "internalType": "address",
          "name": "from",
          "type": "address"
        },
        {
          "internalType": "address",
          "name": "to",
          "type": "address"
        },
        {
          "internalType": "uint256",
          "name": "tokenId",
          "type": "uint256"
        }
      ],
      "name": "safeTransferFrom",
      "outputs": [],
      "stateMutability": "nonpayable",
      "type": "function"
    },
    {
      "inputs": [
        {
          "internalType": "address",
          "name": "from",
          "type": "address"
        },
        {
          "internalType": "address",
          "name": "to",
          "type": "address"
        },
        {
          "internalType": "uint256",
          "name": "tokenId",
          "type": "uint256"
        },
        {
          "internalType": "bytes",
          "name": "_data",
          "type": "bytes"
        }
      ],
      "name": "safeTransferFrom",
      "outputs": [],
      "stateMutability": "nonpayable",
      "type": "function"
    },
    {
      "inputs": [
        {
          "internalType": "address",
          "name": "operator",
          "type": "address"
        },
        {
          "internalType": "bool",
          "name": "approved",
          "type": "bool"
        }
      ],
      "name": "setApprovalForAll",
      "outputs": [],
      "stateMutability": "nonpayable",
      "type": "function"
    },
    {
      "inputs": [
        {
          "internalType": "bytes4",
          "name": "interfaceId",
          "type": "bytes4"
        }
      ],
      "name": "supportsInterface",
      "outputs": [
        {
          "internalType": "bool",
          "name": "",
          "type": "bool"
        }
      ],
      "stateMutability": "view",
      "type": "function",
      "constant": true
    },
    {
      "inputs": [],
      "name": "symbol",
      "outputs": [
        {
          "internalType": "string",
          "name": "",
          "type": "string"
        }
      ],
      "stateMutability": "view",
      "type": "function",
      "constant": true
    },
    {
      "inputs": [
        {
          "internalType": "uint256",
          "name": "tokenId",
          "type": "uint256"
        }
      ],
      "name": "tokenURI",
      "outputs": [
        {
          "internalType": "string",
          "name": "",
          "type": "string"
        }
      ],
      "stateMutability": "view",
      "type": "function",
      "constant": true
    },
    {
      "inputs": [
        {
          "internalType": "address",
          "name": "from",
          "type": "address"
        },
        {
          "internalType": "address",
          "name": "to",
          "type": "address"
        },
        {
          "internalType": "uint256",
          "name": "tokenId",
          "type": "uint256"
        }
      ],
      "name": "transferFrom",
      "outputs": [],
      "stateMutability": "nonpayable",
      "type": "function"
    },
    {
      "inputs": [
        {
          "internalType": "address",
          "name": "newOwner",
          "type": "address"
        }
      ],
      "name": "transferOwnership",
      "outputs": [],
      "stateMutability": "nonpayable",
      "type": "function"
    },
    {
      "inputs": [
        {
          "internalType": "contract Diamond",
          "name": "_diamondInstance",
          "type": "address"
        },
        {
          "internalType": "contract HeroPool",
          "name": "_heroPoolInstance",
          "type": "address"
        }
      ],
      "name": "initialize",
      "outputs": [],
      "stateMutability": "nonpayable",
      "type": "function"
    },
    {
      "inputs": [
        {
          "internalType": "contract HeroPool",
          "name": "_heroPoolInstance",
          "type": "address"
        }
      ],
      "name": "setHeroPool",
      "outputs": [],
      "stateMutability": "nonpayable",
      "type": "function"
    },
    {
      "inputs": [],
      "name": "createCard",
      "outputs": [],
      "stateMutability": "payable",
      "type": "function",
      "payable": true
    },
    {
      "inputs": [
        {
          "internalType": "address",
          "name": "_addr",
          "type": "address"
        }
      ],
      "name": "getMyCards",
      "outputs": [
        {
          "internalType": "uint256[]",
          "name": "",
          "type": "uint256[]"
        },
        {
          "internalType": "uint256[]",
          "name": "",
          "type": "uint256[]"
        },
        {
          "internalType": "uint256[]",
          "name": "",
          "type": "uint256[]"
        },
        {
          "internalType": "uint256[]",
          "name": "",
          "type": "uint256[]"
        },
        {
          "internalType": "uint256[]",
          "name": "",
          "type": "uint256[]"
        },
        {
          "internalType": "uint256[]",
          "name": "",
          "type": "uint256[]"
        }
      ],
      "stateMutability": "view",
      "type": "function",
      "constant": true
    },
    {
      "inputs": [
        {
          "internalType": "uint256",
          "name": "tokenId",
          "type": "uint256"
        }
      ],
      "name": "burn",
      "outputs": [],
      "stateMutability": "nonpayable",
      "type": "function"
    }
  ],
  "bytecode": "0x608060405234801561001057600080fd5b5061487b806100206000396000f3fe6080604052600436106101355760003560e01c8063715018a6116100ab578063a22cb4651161006f578063a22cb4651461043f578063a2d256fa14610468578063b88d4fde14610472578063c87b56dd1461049b578063e985e9c5146104d8578063f2fde38b1461051557610135565b8063715018a6146103685780638da5cb5b1461037f57806395d89b41146103aa578063a00f6d76146103d5578063a0a291d61461041657610135565b806337983aed116100fd57806337983aed1461023157806342842e0e1461027357806342966c681461029c578063485cc955146102c55780636352211e146102ee57806370a082311461032b57610135565b806301ffc9a71461013a57806306fdde0314610177578063081812fc146101a2578063095ea7b3146101df57806323b872dd14610208575b600080fd5b34801561014657600080fd5b50610161600480360381019061015c91906134e3565b61053e565b60405161016e9190613b83565b60405180910390f35b34801561018357600080fd5b5061018c610620565b6040516101999190613b9e565b60405180910390f35b3480156101ae57600080fd5b506101c960048036038101906101c491906135aa565b6106b2565b6040516101d69190613a5a565b60405180910390f35b3480156101eb57600080fd5b5061020660048036038101906102019190613476565b610737565b005b34801561021457600080fd5b5061022f600480360381019061022a9190613360565b61084f565b005b34801561023d57600080fd5b50610258600480360381019061025391906132f3565b6108af565b60405161026a96959493929190613af8565b60405180910390f35b34801561027f57600080fd5b5061029a60048036038101906102959190613360565b610c4a565b005b3480156102a857600080fd5b506102c360048036038101906102be91906135aa565b610c6a565b005b3480156102d157600080fd5b506102ec60048036038101906102e7919061353d565b610f9d565b005b3480156102fa57600080fd5b50610315600480360381019061031091906135aa565b6112ae565b6040516103229190613a5a565b60405180910390f35b34801561033757600080fd5b50610352600480360381019061034d91906132f3565b611360565b60405161035f9190613e00565b60405180910390f35b34801561037457600080fd5b5061037d611418565b005b34801561038b57600080fd5b506103946114a0565b6040516103a19190613a5a565b60405180910390f35b3480156103b657600080fd5b506103bf6114ca565b6040516103cc9190613b9e565b60405180910390f35b3480156103e157600080fd5b506103fc60048036038101906103f791906135aa565b61155c565b60405161040d959493929190613e44565b60405180910390f35b34801561042257600080fd5b5061043d6004803603810190610438919061357d565b611592565b005b34801561044b57600080fd5b5061046660048036038101906104619190613436565b611652565b005b6104706117d3565b005b34801561047e57600080fd5b50610499600480360381019061049491906133b3565b611ba6565b005b3480156104a757600080fd5b506104c260048036038101906104bd91906135aa565b611c08565b6040516104cf9190613b9e565b60405180910390f35b3480156104e457600080fd5b506104ff60048036038101906104fa9190613320565b611caf565b60405161050c9190613b83565b60405180910390f35b34801561052157600080fd5b5061053c600480360381019061053791906132f3565b611d43565b005b60007f80ac58cd000000000000000000000000000000000000000000000000000000007bffffffffffffffffffffffffffffffffffffffffffffffffffffffff1916827bffffffffffffffffffffffffffffffffffffffffffffffffffffffff1916148061060957507f5b5e139f000000000000000000000000000000000000000000000000000000007bffffffffffffffffffffffffffffffffffffffffffffffffffffffff1916827bffffffffffffffffffffffffffffffffffffffffffffffffffffffff1916145b80610619575061061882611e3b565b5b9050919050565b60606065805461062f906140fe565b80601f016020809104026020016040519081016040528092919081815260200182805461065b906140fe565b80156106a85780601f1061067d576101008083540402835291602001916106a8565b820191906000526020600020905b81548152906001019060200180831161068b57829003601f168201915b5050505050905090565b60006106bd82611ea5565b6106fc576040517f08c379a00000000000000000000000000000000000000000000000000000000081526004016106f390613d40565b60405180910390fd5b6069600083815260200190815260200160002060009054906101000a900473ffffffffffffffffffffffffffffffffffffffff169050919050565b6000610742826112ae565b90508073ffffffffffffffffffffffffffffffffffffffff168373ffffffffffffffffffffffffffffffffffffffff1614156107b3576040517f08c379a00000000000000000000000000000000000000000000000000000000081526004016107aa90613dc0565b60405180910390fd5b8073ffffffffffffffffffffffffffffffffffffffff166107d2611f11565b73ffffffffffffffffffffffffffffffffffffffff1614806108015750610800816107fb611f11565b611caf565b5b610840576040517f08c379a000000000000000000000000000000000000000000000000000000000815260040161083790613ca0565b60405180910390fd5b61084a8383611f19565b505050565b61086061085a611f11565b82611fd2565b61089f576040517f08c379a000000000000000000000000000000000000000000000000000000000815260040161089690613de0565b60405180910390fd5b6108aa8383836120b0565b505050565b606080606080606080600060cf60008973ffffffffffffffffffffffffffffffffffffffff1673ffffffffffffffffffffffffffffffffffffffff16815260200190815260200160002080548060200260200160405190810160405280929190818152602001828054801561094357602002820191906000526020600020905b81548152602001906001019080831161092f575b505050505090506000815167ffffffffffffffff81111561096757610966614297565b5b6040519080825280602002602001820160405280156109955781602001602082028036833780820191505090505b5090506000825167ffffffffffffffff8111156109b5576109b4614297565b5b6040519080825280602002602001820160405280156109e35781602001602082028036833780820191505090505b5090506000835167ffffffffffffffff811115610a0357610a02614297565b5b604051908082528060200260200182016040528015610a315781602001602082028036833780820191505090505b5090506000845167ffffffffffffffff811115610a5157610a50614297565b5b604051908082528060200260200182016040528015610a7f5781602001602082028036833780820191505090505b5090506000855167ffffffffffffffff811115610a9f57610a9e614297565b5b604051908082528060200260200182016040528015610acd5781602001602082028036833780820191505090505b509050600086511115610c295760005b8651811015610c27576000878281518110610afb57610afa614268565b5b6020026020010151905060ce600082815260200190815260200160002060000154878381518110610b2f57610b2e614268565b5b60200260200101818152505060ce600082815260200190815260200160002060010154868381518110610b6557610b64614268565b5b60200260200101818152505060ce600082815260200190815260200160002060020154858381518110610b9b57610b9a614268565b5b60200260200101818152505060ce600082815260200190815260200160002060030154848381518110610bd157610bd0614268565b5b60200260200101818152505060ce600082815260200190815260200160002060040154838381518110610c0757610c06614268565b5b602002602001018181525050508080610c1f90614161565b915050610add565b505b8585858585859b509b509b509b509b509b5050505050505091939550919395565b610c6583838360405180602001604052806000815250611ba6565b505050565b610c72611f11565b73ffffffffffffffffffffffffffffffffffffffff16610c906114a0565b73ffffffffffffffffffffffffffffffffffffffff1614610ce6576040517f08c379a0000000000000000000000000000000000000000000000000000000008152600401610cdd90613d60565b60405180910390fd5b6000610cf1826112ae565b90506000600160cf60008473ffffffffffffffffffffffffffffffffffffffff1673ffffffffffffffffffffffffffffffffffffffff16815260200190815260200160002080549050610d449190613ff0565b67ffffffffffffffff811115610d5d57610d5c614297565b5b604051908082528060200260200182016040528015610d8b5781602001602082028036833780820191505090505b509050600080600090505b60cf60008573ffffffffffffffffffffffffffffffffffffffff1673ffffffffffffffffffffffffffffffffffffffff16815260200190815260200160002080549050811015610edf578460cf60008673ffffffffffffffffffffffffffffffffffffffff1673ffffffffffffffffffffffffffffffffffffffff1681526020019081526020016000208281548110610e3257610e31614268565b5b906000526020600020015414610ebe5760cf60008573ffffffffffffffffffffffffffffffffffffffff1673ffffffffffffffffffffffffffffffffffffffff1681526020019081526020016000208181548110610e9357610e92614268565b5b9060005260206000200154838381518110610eb157610eb0614268565b5b6020026020010181815250505b8180610ec990614161565b9250508080610ed790614161565b915050610d96565b50600160cf60008573ffffffffffffffffffffffffffffffffffffffff1673ffffffffffffffffffffffffffffffffffffffff16815260200190815260200160002080549050610f2f9190613ff0565b8114610f3a57600080fd5b8160cf60008573ffffffffffffffffffffffffffffffffffffffff1673ffffffffffffffffffffffffffffffffffffffff1681526020019081526020016000209080519060200190610f8d9291906130d6565b50610f978461230c565b50505050565b600060019054906101000a900460ff1680610fc3575060008054906101000a900460ff16155b611002576040517f08c379a0000000000000000000000000000000000000000000000000000000008152600401610ff990613d00565b60405180910390fd5b60008060019054906101000a900460ff161590508015611052576001600060016101000a81548160ff02191690831515021790555060016000806101000a81548160ff0219169083151502179055505b6110c66040518060400160405280600d81526020017f464d20546f6b656e2043617264000000000000000000000000000000000000008152506040518060400160405280600381526020017f464d43000000000000000000000000000000000000000000000000000000000081525061241d565b6110ce612512565b8260c960006101000a81548173ffffffffffffffffffffffffffffffffffffffff021916908373ffffffffffffffffffffffffffffffffffffffff1602179055508160ca60006101000a81548173ffffffffffffffffffffffffffffffffffffffff021916908373ffffffffffffffffffffffffffffffffffffffff160217905550600160cd60006001815260200190815260200160002081905550600160cd60006002815260200190815260200160002081905550600160cd60006003815260200190815260200160002081905550600160cd60006004815260200190815260200160002081905550600260cd60006005815260200190815260200160002081905550600260cd60006006815260200190815260200160002081905550600260cd60006007815260200190815260200160002081905550600260cd60006008815260200190815260200160002081905550600360cd60006009815260200190815260200160002081905550600360cd6000600a815260200190815260200160002081905550600360cd6000600b815260200190815260200160002081905550600360cd6000600c81526020019081526020016000208190555080156112a95760008060016101000a81548160ff0219169083151502179055505b505050565b6000806067600084815260200190815260200160002060009054906101000a900473ffffffffffffffffffffffffffffffffffffffff169050600073ffffffffffffffffffffffffffffffffffffffff168173ffffffffffffffffffffffffffffffffffffffff161415611357576040517f08c379a000000000000000000000000000000000000000000000000000000000815260040161134e90613ce0565b60405180910390fd5b80915050919050565b60008073ffffffffffffffffffffffffffffffffffffffff168273ffffffffffffffffffffffffffffffffffffffff1614156113d1576040517f08c379a00000000000000000000000000000000000000000000000000000000081526004016113c890613cc0565b60405180910390fd5b606860008373ffffffffffffffffffffffffffffffffffffffff1673ffffffffffffffffffffffffffffffffffffffff168152602001908152602001600020549050919050565b611420611f11565b73ffffffffffffffffffffffffffffffffffffffff1661143e6114a0565b73ffffffffffffffffffffffffffffffffffffffff1614611494576040517f08c379a000000000000000000000000000000000000000000000000000000000815260040161148b90613d60565b60405180910390fd5b61149e60006125fb565b565b6000609760009054906101000a900473ffffffffffffffffffffffffffffffffffffffff16905090565b6060606680546114d9906140fe565b80601f0160208091040260200160405190810160405280929190818152602001828054611505906140fe565b80156115525780601f1061152757610100808354040283529160200191611552565b820191906000526020600020905b81548152906001019060200180831161153557829003601f168201915b5050505050905090565b60ce6020528060005260406000206000915090508060000154908060010154908060020154908060030154908060040154905085565b61159a611f11565b73ffffffffffffffffffffffffffffffffffffffff166115b86114a0565b73ffffffffffffffffffffffffffffffffffffffff161461160e576040517f08c379a000000000000000000000000000000000000000000000000000000000815260040161160590613d60565b60405180910390fd5b8060ca60006101000a81548173ffffffffffffffffffffffffffffffffffffffff021916908373ffffffffffffffffffffffffffffffffffffffff16021790555050565b61165a611f11565b73ffffffffffffffffffffffffffffffffffffffff168273ffffffffffffffffffffffffffffffffffffffff1614156116c8576040517f08c379a00000000000000000000000000000000000000000000000000000000081526004016116bf90613c60565b60405180910390fd5b80606a60006116d5611f11565b73ffffffffffffffffffffffffffffffffffffffff1673ffffffffffffffffffffffffffffffffffffffff16815260200190815260200160002060008473ffffffffffffffffffffffffffffffffffffffff1673ffffffffffffffffffffffffffffffffffffffff16815260200190815260200160002060006101000a81548160ff0219169083151502179055508173ffffffffffffffffffffffffffffffffffffffff16611782611f11565b73ffffffffffffffffffffffffffffffffffffffff167f17307eab39ab6107e8899845ad3d59bd9653f200f220920489ca2b5937696c31836040516117c79190613b83565b60405180910390a35050565b60006305f5e10090508060c960009054906101000a900473ffffffffffffffffffffffffffffffffffffffff1673ffffffffffffffffffffffffffffffffffffffff166370a08231336040518263ffffffff1660e01b81526004016118389190613a5a565b60206040518083038186803b15801561185057600080fd5b505afa158015611864573d6000803e3d6000fd5b505050506040513d601f19601f8201168201806040525081019061188891906135d7565b10156118c9576040517f08c379a00000000000000000000000000000000000000000000000000000000081526004016118c090613bc0565b60405180910390fd5b60c960009054906101000a900473ffffffffffffffffffffffffffffffffffffffff1673ffffffffffffffffffffffffffffffffffffffff166323b872dd3360c960009054906101000a900473ffffffffffffffffffffffffffffffffffffffff16846040518463ffffffff1660e01b815260040161194a93929190613a75565b602060405180830381600087803b15801561196457600080fd5b505af1158015611978573d6000803e3d6000fd5b505050506040513d601f19601f8201168201806040525081019061199c91906134b6565b50600060cc600081546119ae90614161565b919050819055905060008060008060ca60009054906101000a900473ffffffffffffffffffffffffffffffffffffffff1673ffffffffffffffffffffffffffffffffffffffff166395032b6260cb60008154611a0990614161565b91905081905560d06000611a1b611f11565b73ffffffffffffffffffffffffffffffffffffffff1673ffffffffffffffffffffffffffffffffffffffff16815260200190815260200160002060008154611a6290614161565b9190508190556040518363ffffffff1660e01b8152600401611a85929190613e1b565b60806040518083038186803b158015611a9d57600080fd5b505afa158015611ab1573d6000803e3d6000fd5b505050506040513d601f19601f82011682018060405250810190611ad59190613604565b809450819550829650839750505050506040518060a00160405280858152602001848152602001838152602001828152602001600181525060ce60008781526020019081526020016000206000820151816000015560208201518160010155604082015181600201556060820151816003015560808201518160040155905050611b5f33866126c1565b7f34fe1642a0ca93b1ef0aafba83195bd647a07069c5807c33e3e21d59ff4749c28585858585604051611b96959493929190613e44565b60405180910390a1505050505050565b611bb7611bb1611f11565b83611fd2565b611bf6576040517f08c379a0000000000000000000000000000000000000000000000000000000008152600401611bed90613de0565b60405180910390fd5b611c028484848461288f565b50505050565b6060611c1382611ea5565b611c52576040517f08c379a0000000000000000000000000000000000000000000000000000000008152600401611c4990613da0565b60405180910390fd5b6000611c5c6128eb565b90506000815111611c7c5760405180602001604052806000815250611ca7565b80611c8684612902565b604051602001611c97929190613a36565b6040516020818303038152906040525b915050919050565b6000606a60008473ffffffffffffffffffffffffffffffffffffffff1673ffffffffffffffffffffffffffffffffffffffff16815260200190815260200160002060008373ffffffffffffffffffffffffffffffffffffffff1673ffffffffffffffffffffffffffffffffffffffff16815260200190815260200160002060009054906101000a900460ff16905092915050565b611d4b611f11565b73ffffffffffffffffffffffffffffffffffffffff16611d696114a0565b73ffffffffffffffffffffffffffffffffffffffff1614611dbf576040517f08c379a0000000000000000000000000000000000000000000000000000000008152600401611db690613d60565b60405180910390fd5b600073ffffffffffffffffffffffffffffffffffffffff168173ffffffffffffffffffffffffffffffffffffffff161415611e2f576040517f08c379a0000000000000000000000000000000000000000000000000000000008152600401611e2690613c00565b60405180910390fd5b611e38816125fb565b50565b60007f01ffc9a7000000000000000000000000000000000000000000000000000000007bffffffffffffffffffffffffffffffffffffffffffffffffffffffff1916827bffffffffffffffffffffffffffffffffffffffffffffffffffffffff1916149050919050565b60008073ffffffffffffffffffffffffffffffffffffffff166067600084815260200190815260200160002060009054906101000a900473ffffffffffffffffffffffffffffffffffffffff1673ffffffffffffffffffffffffffffffffffffffff1614159050919050565b600033905090565b816069600083815260200190815260200160002060006101000a81548173ffffffffffffffffffffffffffffffffffffffff021916908373ffffffffffffffffffffffffffffffffffffffff160217905550808273ffffffffffffffffffffffffffffffffffffffff16611f8c836112ae565b73ffffffffffffffffffffffffffffffffffffffff167f8c5be1e5ebec7d5bd14f71427d1e84f3dd0314c0f7b2291e5b200ac8c7c3b92560405160405180910390a45050565b6000611fdd82611ea5565b61201c576040517f08c379a000000000000000000000000000000000000000000000000000000000815260040161201390613c80565b60405180910390fd5b6000612027836112ae565b90508073ffffffffffffffffffffffffffffffffffffffff168473ffffffffffffffffffffffffffffffffffffffff16148061209657508373ffffffffffffffffffffffffffffffffffffffff1661207e846106b2565b73ffffffffffffffffffffffffffffffffffffffff16145b806120a757506120a68185611caf565b5b91505092915050565b8273ffffffffffffffffffffffffffffffffffffffff166120d0826112ae565b73ffffffffffffffffffffffffffffffffffffffff1614612126576040517f08c379a000000000000000000000000000000000000000000000000000000000815260040161211d90613d80565b60405180910390fd5b600073ffffffffffffffffffffffffffffffffffffffff168273ffffffffffffffffffffffffffffffffffffffff161415612196576040517f08c379a000000000000000000000000000000000000000000000000000000000815260040161218d90613c40565b60405180910390fd5b6121a1838383612a63565b6121ac600082611f19565b6001606860008573ffffffffffffffffffffffffffffffffffffffff1673ffffffffffffffffffffffffffffffffffffffff16815260200190815260200160002060008282546121fc9190613ff0565b925050819055506001606860008473ffffffffffffffffffffffffffffffffffffffff1673ffffffffffffffffffffffffffffffffffffffff16815260200190815260200160002060008282546122539190613f69565b92505081905550816067600083815260200190815260200160002060006101000a81548173ffffffffffffffffffffffffffffffffffffffff021916908373ffffffffffffffffffffffffffffffffffffffff160217905550808273ffffffffffffffffffffffffffffffffffffffff168473ffffffffffffffffffffffffffffffffffffffff167fddf252ad1be2c89b69c2b068fc378daa952ba7f163c4a11628f55a4df523b3ef60405160405180910390a4505050565b6000612317826112ae565b905061232581600084612a63565b612330600083611f19565b6001606860008373ffffffffffffffffffffffffffffffffffffffff1673ffffffffffffffffffffffffffffffffffffffff16815260200190815260200160002060008282546123809190613ff0565b925050819055506067600083815260200190815260200160002060006101000a81549073ffffffffffffffffffffffffffffffffffffffff021916905581600073ffffffffffffffffffffffffffffffffffffffff168273ffffffffffffffffffffffffffffffffffffffff167fddf252ad1be2c89b69c2b068fc378daa952ba7f163c4a11628f55a4df523b3ef60405160405180910390a45050565b600060019054906101000a900460ff1680612443575060008054906101000a900460ff16155b612482576040517f08c379a000000000000000000000000000000000000000000000000000000000815260040161247990613d00565b60405180910390fd5b60008060019054906101000a900460ff1615905080156124d2576001600060016101000a81548160ff02191690831515021790555060016000806101000a81548160ff0219169083151502179055505b6124da612b88565b6124e2612c61565b6124ec8383612d3a565b801561250d5760008060016101000a81548160ff0219169083151502179055505b505050565b600060019054906101000a900460ff1680612538575060008054906101000a900460ff16155b612577576040517f08c379a000000000000000000000000000000000000000000000000000000000815260040161256e90613d00565b60405180910390fd5b60008060019054906101000a900460ff1615905080156125c7576001600060016101000a81548160ff02191690831515021790555060016000806101000a81548160ff0219169083151502179055505b6125cf612b88565b6125d7612e43565b80156125f85760008060016101000a81548160ff0219169083151502179055505b50565b6000609760009054906101000a900473ffffffffffffffffffffffffffffffffffffffff16905081609760006101000a81548173ffffffffffffffffffffffffffffffffffffffff021916908373ffffffffffffffffffffffffffffffffffffffff1602179055508173ffffffffffffffffffffffffffffffffffffffff168173ffffffffffffffffffffffffffffffffffffffff167f8be0079c531659141344cd1fd0a4f28419497f9722a3daafe3b4186f6b6457e060405160405180910390a35050565b600073ffffffffffffffffffffffffffffffffffffffff168273ffffffffffffffffffffffffffffffffffffffff161415612731576040517f08c379a000000000000000000000000000000000000000000000000000000000815260040161272890613d20565b60405180910390fd5b61273a81611ea5565b1561277a576040517f08c379a000000000000000000000000000000000000000000000000000000000815260040161277190613c20565b60405180910390fd5b61278660008383612a63565b6001606860008473ffffffffffffffffffffffffffffffffffffffff1673ffffffffffffffffffffffffffffffffffffffff16815260200190815260200160002060008282546127d69190613f69565b92505081905550816067600083815260200190815260200160002060006101000a81548173ffffffffffffffffffffffffffffffffffffffff021916908373ffffffffffffffffffffffffffffffffffffffff160217905550808273ffffffffffffffffffffffffffffffffffffffff16600073ffffffffffffffffffffffffffffffffffffffff167fddf252ad1be2c89b69c2b068fc378daa952ba7f163c4a11628f55a4df523b3ef60405160405180910390a45050565b61289a8484846120b0565b6128a684848484612f2c565b6128e5576040517f08c379a00000000000000000000000000000000000000000000000000000000081526004016128dc90613be0565b60405180910390fd5b50505050565b606060405180602001604052806000815250905090565b6060600082141561294a576040518060400160405280600181526020017f30000000000000000000000000000000000000000000000000000000000000008152509050612a5e565b600082905060005b6000821461297c57808061296590614161565b915050600a826129759190613fbf565b9150612952565b60008167ffffffffffffffff81111561299857612997614297565b5b6040519080825280601f01601f1916602001820160405280156129ca5781602001600182028036833780820191505090505b5090505b60008514612a57576001826129e39190613ff0565b9150600a856129f291906141aa565b60306129fe9190613f69565b60f81b818381518110612a1457612a13614268565b5b60200101907effffffffffffffffffffffffffffffffffffffffffffffffffffffffffffff1916908160001a905350600a85612a509190613fbf565b94506129ce565b8093505050505b919050565b600073ffffffffffffffffffffffffffffffffffffffff168273ffffffffffffffffffffffffffffffffffffffff1614612b095760cf6000612aa3611f11565b73ffffffffffffffffffffffffffffffffffffffff1673ffffffffffffffffffffffffffffffffffffffff168152602001908152602001600020819080600181540180825580915050600190039060005260206000200160009091909190915055612b48565b60ce6000828152602001908152602001600020600080820160009055600182016000905560028201600090556003820160009055600482016000905550505b7f4814987054d8fe344e5b80282e88b055b8f4bd467e8762c163d855819694b8a6838383604051612b7b93929190613a75565b60405180910390a1505050565b600060019054906101000a900460ff1680612bae575060008054906101000a900460ff16155b612bed576040517f08c379a0000000000000000000000000000000000000000000000000000000008152600401612be490613d00565b60405180910390fd5b60008060019054906101000a900460ff161590508015612c3d576001600060016101000a81548160ff02191690831515021790555060016000806101000a81548160ff0219169083151502179055505b8015612c5e5760008060016101000a81548160ff0219169083151502179055505b50565b600060019054906101000a900460ff1680612c87575060008054906101000a900460ff16155b612cc6576040517f08c379a0000000000000000000000000000000000000000000000000000000008152600401612cbd90613d00565b60405180910390fd5b60008060019054906101000a900460ff161590508015612d16576001600060016101000a81548160ff02191690831515021790555060016000806101000a81548160ff0219169083151502179055505b8015612d375760008060016101000a81548160ff0219169083151502179055505b50565b600060019054906101000a900460ff1680612d60575060008054906101000a900460ff16155b612d9f576040517f08c379a0000000000000000000000000000000000000000000000000000000008152600401612d9690613d00565b60405180910390fd5b60008060019054906101000a900460ff161590508015612def576001600060016101000a81548160ff02191690831515021790555060016000806101000a81548160ff0219169083151502179055505b8260659080519060200190612e05929190613123565b508160669080519060200190612e1c929190613123565b508015612e3e5760008060016101000a81548160ff0219169083151502179055505b505050565b600060019054906101000a900460ff1680612e69575060008054906101000a900460ff16155b612ea8576040517f08c379a0000000000000000000000000000000000000000000000000000000008152600401612e9f90613d00565b60405180910390fd5b60008060019054906101000a900460ff161590508015612ef8576001600060016101000a81548160ff02191690831515021790555060016000806101000a81548160ff0219169083151502179055505b612f08612f03611f11565b6125fb565b8015612f295760008060016101000a81548160ff0219169083151502179055505b50565b6000612f4d8473ffffffffffffffffffffffffffffffffffffffff166130c3565b156130b6578373ffffffffffffffffffffffffffffffffffffffff1663150b7a02612f76611f11565b8786866040518563ffffffff1660e01b8152600401612f989493929190613aac565b602060405180830381600087803b158015612fb257600080fd5b505af1925050508015612fe357506040513d601f19601f82011682018060405250810190612fe09190613510565b60015b613066573d8060008114613013576040519150601f19603f3d011682016040523d82523d6000602084013e613018565b606091505b5060008151141561305e576040517f08c379a000000000000000000000000000000000000000000000000000000000815260040161305590613be0565b60405180910390fd5b805181602001fd5b63150b7a0260e01b7bffffffffffffffffffffffffffffffffffffffffffffffffffffffff1916817bffffffffffffffffffffffffffffffffffffffffffffffffffffffff1916149150506130bb565b600190505b949350505050565b600080823b905060008111915050919050565b828054828255906000526020600020908101928215613112579160200282015b828111156131115782518255916020019190600101906130f6565b5b50905061311f91906131a9565b5090565b82805461312f906140fe565b90600052602060002090601f0160209004810192826131515760008555613198565b82601f1061316a57805160ff1916838001178555613198565b82800160010185558215613198579182015b8281111561319757825182559160200191906001019061317c565b5b5090506131a591906131a9565b5090565b5b808211156131c25760008160009055506001016131aa565b5090565b60006131d96131d484613ebc565b613e97565b9050828152602081018484840111156131f5576131f46142cb565b5b6132008482856140bc565b509392505050565b600081359050613217816147bb565b92915050565b60008135905061322c816147d2565b92915050565b600081519050613241816147d2565b92915050565b600081359050613256816147e9565b92915050565b60008151905061326b816147e9565b92915050565b600082601f830112613286576132856142c6565b5b81356132968482602086016131c6565b91505092915050565b6000813590506132ae81614800565b92915050565b6000813590506132c381614817565b92915050565b6000813590506132d88161482e565b92915050565b6000815190506132ed8161482e565b92915050565b600060208284031215613309576133086142d5565b5b600061331784828501613208565b91505092915050565b60008060408385031215613337576133366142d5565b5b600061334585828601613208565b925050602061335685828601613208565b9150509250929050565b600080600060608486031215613379576133786142d5565b5b600061338786828701613208565b935050602061339886828701613208565b92505060406133a9868287016132c9565b9150509250925092565b600080600080608085870312156133cd576133cc6142d5565b5b60006133db87828801613208565b94505060206133ec87828801613208565b93505060406133fd878288016132c9565b925050606085013567ffffffffffffffff81111561341e5761341d6142d0565b5b61342a87828801613271565b91505092959194509250565b6000806040838503121561344d5761344c6142d5565b5b600061345b85828601613208565b925050602061346c8582860161321d565b9150509250929050565b6000806040838503121561348d5761348c6142d5565b5b600061349b85828601613208565b92505060206134ac858286016132c9565b9150509250929050565b6000602082840312156134cc576134cb6142d5565b5b60006134da84828501613232565b91505092915050565b6000602082840312156134f9576134f86142d5565b5b600061350784828501613247565b91505092915050565b600060208284031215613526576135256142d5565b5b60006135348482850161325c565b91505092915050565b60008060408385031215613554576135536142d5565b5b60006135628582860161329f565b9250506020613573858286016132b4565b9150509250929050565b600060208284031215613593576135926142d5565b5b60006135a1848285016132b4565b91505092915050565b6000602082840312156135c0576135bf6142d5565b5b60006135ce848285016132c9565b91505092915050565b6000602082840312156135ed576135ec6142d5565b5b60006135fb848285016132de565b91505092915050565b6000806000806080858703121561361e5761361d6142d5565b5b600061362c878288016132de565b945050602061363d878288016132de565b935050604061364e878288016132de565b925050606061365f878288016132de565b91505092959194509250565b60006136778383613a18565b60208301905092915050565b61368c81614024565b82525050565b600061369d82613efd565b6136a78185613f2b565b93506136b283613eed565b8060005b838110156136e35781516136ca888261366b565b97506136d583613f1e565b9250506001810190506136b6565b5085935050505092915050565b6136f981614036565b82525050565b600061370a82613f08565b6137148185613f3c565b93506137248185602086016140cb565b61372d816142da565b840191505092915050565b600061374382613f13565b61374d8185613f4d565b935061375d8185602086016140cb565b613766816142da565b840191505092915050565b600061377c82613f13565b6137868185613f5e565b93506137968185602086016140cb565b80840191505092915050565b60006137af601283613f4d565b91506137ba826142eb565b602082019050919050565b60006137d2603283613f4d565b91506137dd82614314565b604082019050919050565b60006137f5602683613f4d565b915061380082614363565b604082019050919050565b6000613818601c83613f4d565b9150613823826143b2565b602082019050919050565b600061383b602483613f4d565b9150613846826143db565b604082019050919050565b600061385e601983613f4d565b91506138698261442a565b602082019050919050565b6000613881602c83613f4d565b915061388c82614453565b604082019050919050565b60006138a4603883613f4d565b91506138af826144a2565b604082019050919050565b60006138c7602a83613f4d565b91506138d2826144f1565b604082019050919050565b60006138ea602983613f4d565b91506138f582614540565b604082019050919050565b600061390d602e83613f4d565b91506139188261458f565b604082019050919050565b6000613930602083613f4d565b915061393b826145de565b602082019050919050565b6000613953602c83613f4d565b915061395e82614607565b604082019050919050565b6000613976602083613f4d565b915061398182614656565b602082019050919050565b6000613999602983613f4d565b91506139a48261467f565b604082019050919050565b60006139bc602f83613f4d565b91506139c7826146ce565b604082019050919050565b60006139df602183613f4d565b91506139ea8261471d565b604082019050919050565b6000613a02603183613f4d565b9150613a0d8261476c565b604082019050919050565b613a21816140b2565b82525050565b613a30816140b2565b82525050565b6000613a428285613771565b9150613a4e8284613771565b91508190509392505050565b6000602082019050613a6f6000830184613683565b92915050565b6000606082019050613a8a6000830186613683565b613a976020830185613683565b613aa46040830184613a27565b949350505050565b6000608082019050613ac16000830187613683565b613ace6020830186613683565b613adb6040830185613a27565b8181036060830152613aed81846136ff565b905095945050505050565b600060c0820190508181036000830152613b128189613692565b90508181036020830152613b268188613692565b90508181036040830152613b3a8187613692565b90508181036060830152613b4e8186613692565b90508181036080830152613b628185613692565b905081810360a0830152613b768184613692565b9050979650505050505050565b6000602082019050613b9860008301846136f0565b92915050565b60006020820190508181036000830152613bb88184613738565b905092915050565b60006020820190508181036000830152613bd9816137a2565b9050919050565b60006020820190508181036000830152613bf9816137c5565b9050919050565b60006020820190508181036000830152613c19816137e8565b9050919050565b60006020820190508181036000830152613c398161380b565b9050919050565b60006020820190508181036000830152613c598161382e565b9050919050565b60006020820190508181036000830152613c7981613851565b9050919050565b60006020820190508181036000830152613c9981613874565b9050919050565b60006020820190508181036000830152613cb981613897565b9050919050565b60006020820190508181036000830152613cd9816138ba565b9050919050565b60006020820190508181036000830152613cf9816138dd565b9050919050565b60006020820190508181036000830152613d1981613900565b9050919050565b60006020820190508181036000830152613d3981613923565b9050919050565b60006020820190508181036000830152613d5981613946565b9050919050565b60006020820190508181036000830152613d7981613969565b9050919050565b60006020820190508181036000830152613d998161398c565b9050919050565b60006020820190508181036000830152613db9816139af565b9050919050565b60006020820190508181036000830152613dd9816139d2565b9050919050565b60006020820190508181036000830152613df9816139f5565b9050919050565b6000602082019050613e156000830184613a27565b92915050565b6000604082019050613e306000830185613a27565b613e3d6020830184613a27565b9392505050565b600060a082019050613e596000830188613a27565b613e666020830187613a27565b613e736040830186613a27565b613e806060830185613a27565b613e8d6080830184613a27565b9695505050505050565b6000613ea1613eb2565b9050613ead8282614130565b919050565b6000604051905090565b600067ffffffffffffffff821115613ed757613ed6614297565b5b613ee0826142da565b9050602081019050919050565b6000819050602082019050919050565b600081519050919050565b600081519050919050565b600081519050919050565b6000602082019050919050565b600082825260208201905092915050565b600082825260208201905092915050565b600082825260208201905092915050565b600081905092915050565b6000613f74826140b2565b9150613f7f836140b2565b9250827fffffffffffffffffffffffffffffffffffffffffffffffffffffffffffffffff03821115613fb457613fb36141db565b5b828201905092915050565b6000613fca826140b2565b9150613fd5836140b2565b925082613fe557613fe461420a565b5b828204905092915050565b6000613ffb826140b2565b9150614006836140b2565b925082821015614019576140186141db565b5b828203905092915050565b600061402f82614092565b9050919050565b60008115159050919050565b60007fffffffff0000000000000000000000000000000000000000000000000000000082169050919050565b600061407982614024565b9050919050565b600061408b82614024565b9050919050565b600073ffffffffffffffffffffffffffffffffffffffff82169050919050565b6000819050919050565b82818337600083830152505050565b60005b838110156140e95780820151818401526020810190506140ce565b838111156140f8576000848401525b50505050565b6000600282049050600182168061411657607f821691505b6020821081141561412a57614129614239565b5b50919050565b614139826142da565b810181811067ffffffffffffffff8211171561415857614157614297565b5b80604052505050565b600061416c826140b2565b91507fffffffffffffffffffffffffffffffffffffffffffffffffffffffffffffffff82141561419f5761419e6141db565b5b600182019050919050565b60006141b5826140b2565b91506141c0836140b2565b9250826141d0576141cf61420a565b5b828206905092915050565b7f4e487b7100000000000000000000000000000000000000000000000000000000600052601160045260246000fd5b7f4e487b7100000000000000000000000000000000000000000000000000000000600052601260045260246000fd5b7f4e487b7100000000000000000000000000000000000000000000000000000000600052602260045260246000fd5b7f4e487b7100000000000000000000000000000000000000000000000000000000600052603260045260246000fd5b7f4e487b7100000000000000000000000000000000000000000000000000000000600052604160045260246000fd5b600080fd5b600080fd5b600080fd5b600080fd5b6000601f19601f8301169050919050565b7f62616c616e6365203c2072657175697265640000000000000000000000000000600082015250565b7f4552433732313a207472616e7366657220746f206e6f6e20455243373231526560008201527f63656976657220696d706c656d656e7465720000000000000000000000000000602082015250565b7f4f776e61626c653a206e6577206f776e657220697320746865207a65726f206160008201527f6464726573730000000000000000000000000000000000000000000000000000602082015250565b7f4552433732313a20746f6b656e20616c7265616479206d696e74656400000000600082015250565b7f4552433732313a207472616e7366657220746f20746865207a65726f2061646460008201527f7265737300000000000000000000000000000000000000000000000000000000602082015250565b7f4552433732313a20617070726f766520746f2063616c6c657200000000000000600082015250565b7f4552433732313a206f70657261746f7220717565727920666f72206e6f6e657860008201527f697374656e7420746f6b656e0000000000000000000000000000000000000000602082015250565b7f4552433732313a20617070726f76652063616c6c6572206973206e6f74206f7760008201527f6e6572206e6f7220617070726f76656420666f7220616c6c0000000000000000602082015250565b7f4552433732313a2062616c616e636520717565727920666f7220746865207a6560008201527f726f206164647265737300000000000000000000000000000000000000000000602082015250565b7f4552433732313a206f776e657220717565727920666f72206e6f6e657869737460008201527f656e7420746f6b656e0000000000000000000000000000000000000000000000602082015250565b7f496e697469616c697a61626c653a20636f6e747261637420697320616c72656160008201527f647920696e697469616c697a6564000000000000000000000000000000000000602082015250565b7f4552433732313a206d696e7420746f20746865207a65726f2061646472657373600082015250565b7f4552433732313a20617070726f76656420717565727920666f72206e6f6e657860008201527f697374656e7420746f6b656e0000000000000000000000000000000000000000602082015250565b7f4f776e61626c653a2063616c6c6572206973206e6f7420746865206f776e6572600082015250565b7f4552433732313a207472616e73666572206f6620746f6b656e2074686174206960008201527f73206e6f74206f776e0000000000000000000000000000000000000000000000602082015250565b7f4552433732314d657461646174613a2055524920717565727920666f72206e6f60008201527f6e6578697374656e7420746f6b656e0000000000000000000000000000000000602082015250565b7f4552433732313a20617070726f76616c20746f2063757272656e74206f776e6560008201527f7200000000000000000000000000000000000000000000000000000000000000602082015250565b7f4552433732313a207472616e736665722063616c6c6572206973206e6f74206f60008201527f776e6572206e6f7220617070726f766564000000000000000000000000000000602082015250565b6147c481614024565b81146147cf57600080fd5b50565b6147db81614036565b81146147e657600080fd5b50565b6147f281614042565b81146147fd57600080fd5b50565b6148098161406e565b811461481457600080fd5b50565b61482081614080565b811461482b57600080fd5b50565b614837816140b2565b811461484257600080fd5b5056fea264697066735822122019d0646414428d938116d14575feb9f3a8a4b447ecff38c8daadee63f7911d9664736f6c63430008070033",
  "immutableReferences": {},
  "source": "// SPDX-License-Identifier: MIT\r\npragma solidity ^0.8.0;\r\n\r\nimport \"@openzeppelin/contracts-upgradeable/token/ERC721/ERC721Upgradeable.sol\";\r\nimport \"@openzeppelin/contracts-upgradeable/access/OwnableUpgradeable.sol\";\r\nimport \"./Diamond.sol\";\r\nimport \"./lib/HeroPool.sol\";\r\n\r\n/** / */\r\ncontract NftHero is ERC721Upgradeable,OwnableUpgradeable {\r\n\r\n    Diamond diamondInstance;\r\n    HeroPool heroPoolInstance;\r\n\r\n    //\r\n    uint256 totalRandTimes;\r\n    //tokenID\r\n    uint256 private countor;\r\n    //id,\r\n    mapping(uint => uint) herosType;\r\n    //\r\n    struct HeroInfo {\r\n        uint id;\r\n        uint li; //\r\n        uint min; //\r\n        uint zhi; //\r\n        uint lv; //\r\n    }\r\n    //\r\n    // tokenId => HeroInfo\r\n    mapping(uint256 => HeroInfo) public cardDB;\r\n    // => tokens\r\n    mapping(address => uint256[]) private tokenDB;\r\n    //\r\n    mapping(address => uint) private userRandtimes;\r\n\r\n\r\n    function initialize(Diamond _diamondInstance, HeroPool _heroPoolInstance) public initializer {\r\n        __ERC721_init(\"FM Token Card\", \"FMC\");\r\n        __Ownable_init();\r\n        \r\n        diamondInstance = _diamondInstance;\r\n        heroPoolInstance = _heroPoolInstance;\r\n\r\n        herosType[1] = 1;\r\n        herosType[2] = 1;\r\n        herosType[3] = 1;\r\n        herosType[4] = 1;\r\n        herosType[5] = 2;\r\n        herosType[6] = 2;\r\n        herosType[7] = 2;\r\n        herosType[8] = 2;\r\n        herosType[9] = 3;\r\n        herosType[10] = 3;\r\n        herosType[11] = 3;\r\n        herosType[12] = 3;\r\n    }\r\n\r\n    function setHeroPool( HeroPool _heroPoolInstance) public onlyOwner {\r\n        heroPoolInstance = _heroPoolInstance;\r\n    }\r\n\r\n    /**  */\r\n    function createCard() public payable {\r\n        uint256 cost = 1 * 1e8;\r\n        require(\r\n            diamondInstance.balanceOf(msg.sender) >= cost,\r\n            \"balance < required\"\r\n        );\r\n        diamondInstance.transferFrom(msg.sender, address(diamondInstance), cost);\r\n\r\n        uint256 _tokenId = ++countor;\r\n\r\n        //\r\n        uint id; uint li; uint min; uint zhi;\r\n        (id,li,min,zhi) = heroPoolInstance.rand(++totalRandTimes,  ++userRandtimes[_msgSender()]);\r\n        cardDB[_tokenId] = HeroInfo(id,li,min,zhi,1);\r\n\r\n        //mint_beforeTokenTransfer\r\n        super._mint(msg.sender, _tokenId);\r\n        emit createCardEvent(_tokenId, id,li,min,zhi);\r\n    }\r\n\r\n    /**  */\r\n    function getMyCards(address _addr) public view returns ( uint256[] memory, uint[] memory, uint[] memory, uint[] memory, uint[] memory, uint[] memory) {\r\n        uint256[] memory _tokens = tokenDB[_addr];\r\n        uint[] memory _hero_ids = new uint[](_tokens.length);\r\n        uint[] memory _li = new uint[](_tokens.length);\r\n        uint[] memory _min = new uint[](_tokens.length);\r\n        uint[] memory _zhi = new uint[](_tokens.length);\r\n        uint[] memory _lv = new uint[](_tokens.length);\r\n\r\n        if (_tokens.length > 0) {\r\n            for (uint i=0; i<_tokens.length; i++) {\r\n                uint256 _tokenId = _tokens[i];\r\n                _hero_ids[i] = cardDB[ _tokenId ].id;\r\n                _li[i] = cardDB[ _tokenId ].li;\r\n                _min[i] = cardDB[ _tokenId ].min;\r\n                _zhi[i] = cardDB[ _tokenId ].zhi;\r\n                _lv[i] = cardDB[ _tokenId ].lv;\r\n            }\r\n        }\r\n\r\n        return (_tokens, _hero_ids, _li, _min, _zhi, _lv);\r\n    }\r\n\r\n    //token\r\n    function burn(uint256 tokenId) public onlyOwner {\r\n        address tokenOwner = ownerOf(tokenId);\r\n\r\n        //tokenId\r\n        uint256[] memory newUserTokens = new uint256[](tokenDB[tokenOwner].length - 1);\r\n        uint256 realLen;\r\n\r\n        for (uint i=0; i<tokenDB[tokenOwner].length; i++) {\r\n            if (tokenDB[tokenOwner][i] != tokenId) {\r\n                newUserTokens[realLen] = tokenDB[tokenOwner][i];\r\n            }\r\n            realLen ++;\r\n        }\r\n        require(realLen == tokenDB[tokenOwner].length - 1);\r\n        tokenDB[tokenOwner] = newUserTokens;\r\n\r\n        //\r\n        _burn(tokenId);\r\n    }\r\n\r\n    function _beforeTokenTransfer(address from, address to, uint256 tokenId) internal override {\r\n        if (to != address(0)) {\r\n            //token\r\n            tokenDB[_msgSender()].push(tokenId);\r\n        } else {\r\n            delete cardDB[tokenId];\r\n        }\r\n        \r\n        emit transferCardEvent(from, to, tokenId);\r\n    }\r\n/*\r\n    //\r\n    function _randHero(uint times) private returns(uint id, uint li, uint min, uint zhi) {\r\n        uint overTimes = times - 1;\r\n\r\ntotalRandTimes++;\r\n        id = rand(1, 12); //hero id\r\n        uint attr_main; //\r\n        uint attr_side_min;  //\r\n        uint attr_side1;\r\n        uint attr_side2;\r\n\r\ntotalRandTimes++;\r\n        if (overTimes == 0) {\r\n            attr_main = rand(80, 100);\r\n        } else if (overTimes % 5 == 0) {\r\n            attr_main = rand(70, 99);\r\n        } else {\r\n            attr_main = rand(65, 94);\r\n        }\r\n\r\ntotalRandTimes++;\r\n        attr_side_min = rand(10, 64);\r\ntotalRandTimes++;\r\n        attr_side1 = rand(attr_side_min, attr_main);\r\ntotalRandTimes++;\r\n        attr_side2 = rand(attr_side_min, attr_main);\r\n\r\n        if (herosType[id] == 1) {\r\n            li = attr_main;\r\n            min = attr_side1;\r\n            zhi = attr_side2;\r\n        } else if (herosType[id] == 2) {\r\n            li = attr_side1;\r\n            min = attr_side2;\r\n            zhi = attr_main;\r\n        } else {\r\n            li = attr_side1;\r\n            min = attr_side2;\r\n            zhi = attr_main;\r\n        }\r\n        return (id, li, zhi, min);\r\n    }\r\n*/\r\n    function rand(uint256 _min,uint256 _max) private view returns(uint256) {\r\n        require(_max > _min);\r\n        uint256 random = uint256(keccak256(abi.encodePacked(block.difficulty, block.timestamp+ totalRandTimes)));\r\n        return uint256(random % (_max-_min)) + _min;\r\n    }\r\n\r\n    event createCardEvent(uint256 token, uint hero_id, uint li, uint min, uint zhi);\r\n    event transferCardEvent(address from, address to, uint256 tokenId);\r\n}",
  "sourcePath": "D:\\solidity\\sol-test1\\contracts\\NftHero.sol",
  "compiler": {
    "name": "solc",
    "version": "0.8.7+commit.e28d00a7.Emscripten.clang"
  },
  "schemaVersion": "3.4.3",
  "updatedAt": "2021-10-21T07:53:40.011Z",
  "networkType": "ethereum",
  "devdoc": {
    "kind": "dev",
    "methods": {
      "approve(address,uint256)": {
        "details": "See {IERC721-approve}."
      },
      "balanceOf(address)": {
        "details": "See {IERC721-balanceOf}."
      },
      "getApproved(uint256)": {
        "details": "See {IERC721-getApproved}."
      },
      "isApprovedForAll(address,address)": {
        "details": "See {IERC721-isApprovedForAll}."
      },
      "name()": {
        "details": "See {IERC721Metadata-name}."
      },
      "owner()": {
        "details": "Returns the address of the current owner."
      },
      "ownerOf(uint256)": {
        "details": "See {IERC721-ownerOf}."
      },
      "renounceOwnership()": {
        "details": "Leaves the contract without owner. It will not be possible to call `onlyOwner` functions anymore. Can only be called by the current owner. NOTE: Renouncing ownership will leave the contract without an owner, thereby removing any functionality that is only available to the owner."
      },
      "safeTransferFrom(address,address,uint256)": {
        "details": "See {IERC721-safeTransferFrom}."
      },
      "safeTransferFrom(address,address,uint256,bytes)": {
        "details": "See {IERC721-safeTransferFrom}."
      },
      "setApprovalForAll(address,bool)": {
        "details": "See {IERC721-setApprovalForAll}."
      },
      "supportsInterface(bytes4)": {
        "details": "See {IERC165-supportsInterface}."
      },
      "symbol()": {
        "details": "See {IERC721Metadata-symbol}."
      },
      "tokenURI(uint256)": {
        "details": "See {IERC721Metadata-tokenURI}."
      },
      "transferFrom(address,address,uint256)": {
        "details": "See {IERC721-transferFrom}."
      },
      "transferOwnership(address)": {
        "details": "Transfers ownership of the contract to a new account (`newOwner`). Can only be called by the current owner."
      }
    },
    "version": 1
  },
  "userdoc": {
    "kind": "user",
    "methods": {
      "createCard()": {
        "notice": " "
      },
      "getMyCards(address)": {
        "notice": " "
      }
    },
    "notice": "/ ",
    "version": 1
  }
}