{
  "contractName": "NftHero",
  "abi": [
    {
      "anonymous": false,
      "inputs": [
        {
          "indexed": true,
          "internalType": "address",
          "name": "owner",
          "type": "address"
        },
        {
          "indexed": true,
          "internalType": "address",
          "name": "approved",
          "type": "address"
        },
        {
          "indexed": true,
          "internalType": "uint256",
          "name": "tokenId",
          "type": "uint256"
        }
      ],
      "name": "Approval",
      "type": "event"
    },
    {
      "anonymous": false,
      "inputs": [
        {
          "indexed": true,
          "internalType": "address",
          "name": "owner",
          "type": "address"
        },
        {
          "indexed": true,
          "internalType": "address",
          "name": "operator",
          "type": "address"
        },
        {
          "indexed": false,
          "internalType": "bool",
          "name": "approved",
          "type": "bool"
        }
      ],
      "name": "ApprovalForAll",
      "type": "event"
    },
    {
      "anonymous": false,
      "inputs": [
        {
          "indexed": true,
          "internalType": "address",
          "name": "previousOwner",
          "type": "address"
        },
        {
          "indexed": true,
          "internalType": "address",
          "name": "newOwner",
          "type": "address"
        }
      ],
      "name": "OwnershipTransferred",
      "type": "event"
    },
    {
      "anonymous": false,
      "inputs": [
        {
          "indexed": true,
          "internalType": "address",
          "name": "from",
          "type": "address"
        },
        {
          "indexed": true,
          "internalType": "address",
          "name": "to",
          "type": "address"
        },
        {
          "indexed": true,
          "internalType": "uint256",
          "name": "tokenId",
          "type": "uint256"
        }
      ],
      "name": "Transfer",
      "type": "event"
    },
    {
      "anonymous": false,
      "inputs": [
        {
          "indexed": false,
          "internalType": "uint256",
          "name": "token",
          "type": "uint256"
        },
        {
          "indexed": false,
          "internalType": "uint256",
          "name": "hero_id",
          "type": "uint256"
        },
        {
          "indexed": false,
          "internalType": "uint256",
          "name": "li",
          "type": "uint256"
        },
        {
          "indexed": false,
          "internalType": "uint256",
          "name": "min",
          "type": "uint256"
        },
        {
          "indexed": false,
          "internalType": "uint256",
          "name": "zhi",
          "type": "uint256"
        }
      ],
      "name": "createCardEvent",
      "type": "event"
    },
    {
      "anonymous": false,
      "inputs": [
        {
          "indexed": false,
          "internalType": "address",
          "name": "from",
          "type": "address"
        },
        {
          "indexed": false,
          "internalType": "address",
          "name": "to",
          "type": "address"
        },
        {
          "indexed": false,
          "internalType": "uint256",
          "name": "tokenId",
          "type": "uint256"
        }
      ],
      "name": "transferCardEvent",
      "type": "event"
    },
    {
      "inputs": [
        {
          "internalType": "address",
          "name": "to",
          "type": "address"
        },
        {
          "internalType": "uint256",
          "name": "tokenId",
          "type": "uint256"
        }
      ],
      "name": "approve",
      "outputs": [],
      "stateMutability": "nonpayable",
      "type": "function"
    },
    {
      "inputs": [
        {
          "internalType": "address",
          "name": "owner",
          "type": "address"
        }
      ],
      "name": "balanceOf",
      "outputs": [
        {
          "internalType": "uint256",
          "name": "",
          "type": "uint256"
        }
      ],
      "stateMutability": "view",
      "type": "function",
      "constant": true
    },
    {
      "inputs": [
        {
          "internalType": "uint256",
          "name": "",
          "type": "uint256"
        }
      ],
      "name": "cardDB",
      "outputs": [
        {
          "internalType": "uint256",
          "name": "id",
          "type": "uint256"
        },
        {
          "internalType": "uint256",
          "name": "li",
          "type": "uint256"
        },
        {
          "internalType": "uint256",
          "name": "min",
          "type": "uint256"
        },
        {
          "internalType": "uint256",
          "name": "zhi",
          "type": "uint256"
        },
        {
          "internalType": "uint256",
          "name": "lv",
          "type": "uint256"
        }
      ],
      "stateMutability": "view",
      "type": "function",
      "constant": true
    },
    {
      "inputs": [
        {
          "internalType": "uint256",
          "name": "tokenId",
          "type": "uint256"
        }
      ],
      "name": "getApproved",
      "outputs": [
        {
          "internalType": "address",
          "name": "",
          "type": "address"
        }
      ],
      "stateMutability": "view",
      "type": "function",
      "constant": true
    },
    {
      "inputs": [
        {
          "internalType": "address",
          "name": "owner",
          "type": "address"
        },
        {
          "internalType": "address",
          "name": "operator",
          "type": "address"
        }
      ],
      "name": "isApprovedForAll",
      "outputs": [
        {
          "internalType": "bool",
          "name": "",
          "type": "bool"
        }
      ],
      "stateMutability": "view",
      "type": "function",
      "constant": true
    },
    {
      "inputs": [],
      "name": "name",
      "outputs": [
        {
          "internalType": "string",
          "name": "",
          "type": "string"
        }
      ],
      "stateMutability": "view",
      "type": "function",
      "constant": true
    },
    {
      "inputs": [],
      "name": "owner",
      "outputs": [
        {
          "internalType": "address",
          "name": "",
          "type": "address"
        }
      ],
      "stateMutability": "view",
      "type": "function",
      "constant": true
    },
    {
      "inputs": [
        {
          "internalType": "uint256",
          "name": "tokenId",
          "type": "uint256"
        }
      ],
      "name": "ownerOf",
      "outputs": [
        {
          "internalType": "address",
          "name": "",
          "type": "address"
        }
      ],
      "stateMutability": "view",
      "type": "function",
      "constant": true
    },
    {
      "inputs": [],
      "name": "renounceOwnership",
      "outputs": [],
      "stateMutability": "nonpayable",
      "type": "function"
    },
    {
      "inputs": [
        {
          "internalType": "address",
          "name": "from",
          "type": "address"
        },
        {
          "internalType": "address",
          "name": "to",
          "type": "address"
        },
        {
          "internalType": "uint256",
          "name": "tokenId",
          "type": "uint256"
        }
      ],
      "name": "safeTransferFrom",
      "outputs": [],
      "stateMutability": "nonpayable",
      "type": "function"
    },
    {
      "inputs": [
        {
          "internalType": "address",
          "name": "from",
          "type": "address"
        },
        {
          "internalType": "address",
          "name": "to",
          "type": "address"
        },
        {
          "internalType": "uint256",
          "name": "tokenId",
          "type": "uint256"
        },
        {
          "internalType": "bytes",
          "name": "_data",
          "type": "bytes"
        }
      ],
      "name": "safeTransferFrom",
      "outputs": [],
      "stateMutability": "nonpayable",
      "type": "function"
    },
    {
      "inputs": [
        {
          "internalType": "address",
          "name": "operator",
          "type": "address"
        },
        {
          "internalType": "bool",
          "name": "approved",
          "type": "bool"
        }
      ],
      "name": "setApprovalForAll",
      "outputs": [],
      "stateMutability": "nonpayable",
      "type": "function"
    },
    {
      "inputs": [
        {
          "internalType": "bytes4",
          "name": "interfaceId",
          "type": "bytes4"
        }
      ],
      "name": "supportsInterface",
      "outputs": [
        {
          "internalType": "bool",
          "name": "",
          "type": "bool"
        }
      ],
      "stateMutability": "view",
      "type": "function",
      "constant": true
    },
    {
      "inputs": [],
      "name": "symbol",
      "outputs": [
        {
          "internalType": "string",
          "name": "",
          "type": "string"
        }
      ],
      "stateMutability": "view",
      "type": "function",
      "constant": true
    },
    {
      "inputs": [
        {
          "internalType": "uint256",
          "name": "tokenId",
          "type": "uint256"
        }
      ],
      "name": "tokenURI",
      "outputs": [
        {
          "internalType": "string",
          "name": "",
          "type": "string"
        }
      ],
      "stateMutability": "view",
      "type": "function",
      "constant": true
    },
    {
      "inputs": [
        {
          "internalType": "address",
          "name": "from",
          "type": "address"
        },
        {
          "internalType": "address",
          "name": "to",
          "type": "address"
        },
        {
          "internalType": "uint256",
          "name": "tokenId",
          "type": "uint256"
        }
      ],
      "name": "transferFrom",
      "outputs": [],
      "stateMutability": "nonpayable",
      "type": "function"
    },
    {
      "inputs": [
        {
          "internalType": "address",
          "name": "newOwner",
          "type": "address"
        }
      ],
      "name": "transferOwnership",
      "outputs": [],
      "stateMutability": "nonpayable",
      "type": "function"
    },
    {
      "inputs": [
        {
          "internalType": "contract Diamond",
          "name": "_diamondInstance",
          "type": "address"
        }
      ],
      "name": "initialize",
      "outputs": [],
      "stateMutability": "nonpayable",
      "type": "function"
    },
    {
      "inputs": [],
      "name": "createCard",
      "outputs": [],
      "stateMutability": "payable",
      "type": "function",
      "payable": true
    },
    {
      "inputs": [
        {
          "internalType": "address",
          "name": "_addr",
          "type": "address"
        }
      ],
      "name": "getMyCards",
      "outputs": [
        {
          "internalType": "uint256[]",
          "name": "",
          "type": "uint256[]"
        },
        {
          "internalType": "uint256[]",
          "name": "",
          "type": "uint256[]"
        },
        {
          "internalType": "uint256[]",
          "name": "",
          "type": "uint256[]"
        },
        {
          "internalType": "uint256[]",
          "name": "",
          "type": "uint256[]"
        },
        {
          "internalType": "uint256[]",
          "name": "",
          "type": "uint256[]"
        },
        {
          "internalType": "uint256[]",
          "name": "",
          "type": "uint256[]"
        }
      ],
      "stateMutability": "view",
      "type": "function",
      "constant": true
    },
    {
      "inputs": [
        {
          "internalType": "uint256",
          "name": "tokenId",
          "type": "uint256"
        }
      ],
      "name": "burn",
      "outputs": [],
      "stateMutability": "nonpayable",
      "type": "function"
    }
  ],
  "bytecode": "0x608060405234801561001057600080fd5b506147d6806100206000396000f3fe60806040526004361061012a5760003560e01c8063715018a6116100ab578063a2d256fa1161006f578063a2d256fa1461040b578063b88d4fde14610415578063c4d66de81461043e578063c87b56dd14610467578063e985e9c5146104a4578063f2fde38b146104e15761012a565b8063715018a6146103345780638da5cb5b1461034b57806395d89b4114610376578063a00f6d76146103a1578063a22cb465146103e25761012a565b806337983aed116100f257806337983aed1461022657806342842e0e1461026857806342966c68146102915780636352211e146102ba57806370a08231146102f75761012a565b806301ffc9a71461012f57806306fdde031461016c578063081812fc14610197578063095ea7b3146101d457806323b872dd146101fd575b600080fd5b34801561013b57600080fd5b50610156600480360381019061015191906134ea565b61050a565b6040516101639190613b26565b60405180910390f35b34801561017857600080fd5b506101816105ec565b60405161018e9190613b41565b60405180910390f35b3480156101a357600080fd5b506101be60048036038101906101b99190613571565b61067e565b6040516101cb91906139fd565b60405180910390f35b3480156101e057600080fd5b506101fb60048036038101906101f6919061347d565b610703565b005b34801561020957600080fd5b50610224600480360381019061021f9190613367565b61081b565b005b34801561023257600080fd5b5061024d600480360381019061024891906132fa565b61087b565b60405161025f96959493929190613a9b565b60405180910390f35b34801561027457600080fd5b5061028f600480360381019061028a9190613367565b610c16565b005b34801561029d57600080fd5b506102b860048036038101906102b39190613571565b610c36565b005b3480156102c657600080fd5b506102e160048036038101906102dc9190613571565b610f69565b6040516102ee91906139fd565b60405180910390f35b34801561030357600080fd5b5061031e600480360381019061031991906132fa565b61101b565b60405161032b9190613da3565b60405180910390f35b34801561034057600080fd5b506103496110d3565b005b34801561035757600080fd5b5061036061115b565b60405161036d91906139fd565b60405180910390f35b34801561038257600080fd5b5061038b611185565b6040516103989190613b41565b60405180910390f35b3480156103ad57600080fd5b506103c860048036038101906103c39190613571565b611217565b6040516103d9959493929190613dbe565b60405180910390f35b3480156103ee57600080fd5b506104096004803603810190610404919061343d565b61124d565b005b6104136113ce565b005b34801561042157600080fd5b5061043c600480360381019061043791906133ba565b6116e9565b005b34801561044a57600080fd5b5061046560048036038101906104609190613544565b61174b565b005b34801561047357600080fd5b5061048e60048036038101906104899190613571565b611a1a565b60405161049b9190613b41565b60405180910390f35b3480156104b057600080fd5b506104cb60048036038101906104c69190613327565b611ac1565b6040516104d89190613b26565b60405180910390f35b3480156104ed57600080fd5b50610508600480360381019061050391906132fa565b611b55565b005b60007f80ac58cd000000000000000000000000000000000000000000000000000000007bffffffffffffffffffffffffffffffffffffffffffffffffffffffff1916827bffffffffffffffffffffffffffffffffffffffffffffffffffffffff191614806105d557507f5b5e139f000000000000000000000000000000000000000000000000000000007bffffffffffffffffffffffffffffffffffffffffffffffffffffffff1916827bffffffffffffffffffffffffffffffffffffffffffffffffffffffff1916145b806105e557506105e482611c4d565b5b9050919050565b6060606580546105fb90614066565b80601f016020809104026020016040519081016040528092919081815260200182805461062790614066565b80156106745780601f1061064957610100808354040283529160200191610674565b820191906000526020600020905b81548152906001019060200180831161065757829003601f168201915b5050505050905090565b600061068982611cb7565b6106c8576040517f08c379a00000000000000000000000000000000000000000000000000000000081526004016106bf90613ce3565b60405180910390fd5b6069600083815260200190815260200160002060009054906101000a900473ffffffffffffffffffffffffffffffffffffffff169050919050565b600061070e82610f69565b90508073ffffffffffffffffffffffffffffffffffffffff168373ffffffffffffffffffffffffffffffffffffffff16141561077f576040517f08c379a000000000000000000000000000000000000000000000000000000000815260040161077690613d63565b60405180910390fd5b8073ffffffffffffffffffffffffffffffffffffffff1661079e611d23565b73ffffffffffffffffffffffffffffffffffffffff1614806107cd57506107cc816107c7611d23565b611ac1565b5b61080c576040517f08c379a000000000000000000000000000000000000000000000000000000000815260040161080390613c43565b60405180910390fd5b6108168383611d2b565b505050565b61082c610826611d23565b82611de4565b61086b576040517f08c379a000000000000000000000000000000000000000000000000000000000815260040161086290613d83565b60405180910390fd5b610876838383611ec2565b505050565b606080606080606080600060ce60008973ffffffffffffffffffffffffffffffffffffffff1673ffffffffffffffffffffffffffffffffffffffff16815260200190815260200160002080548060200260200160405190810160405280929190818152602001828054801561090f57602002820191906000526020600020905b8154815260200190600101908083116108fb575b505050505090506000815167ffffffffffffffff81111561093357610932614209565b5b6040519080825280602002602001820160405280156109615781602001602082028036833780820191505090505b5090506000825167ffffffffffffffff81111561098157610980614209565b5b6040519080825280602002602001820160405280156109af5781602001602082028036833780820191505090505b5090506000835167ffffffffffffffff8111156109cf576109ce614209565b5b6040519080825280602002602001820160405280156109fd5781602001602082028036833780820191505090505b5090506000845167ffffffffffffffff811115610a1d57610a1c614209565b5b604051908082528060200260200182016040528015610a4b5781602001602082028036833780820191505090505b5090506000855167ffffffffffffffff811115610a6b57610a6a614209565b5b604051908082528060200260200182016040528015610a995781602001602082028036833780820191505090505b509050600086511115610bf55760005b8651811015610bf3576000878281518110610ac757610ac66141da565b5b6020026020010151905060cd600082815260200190815260200160002060000154878381518110610afb57610afa6141da565b5b60200260200101818152505060cd600082815260200190815260200160002060010154868381518110610b3157610b306141da565b5b60200260200101818152505060cd600082815260200190815260200160002060020154858381518110610b6757610b666141da565b5b60200260200101818152505060cd600082815260200190815260200160002060030154848381518110610b9d57610b9c6141da565b5b60200260200101818152505060cd600082815260200190815260200160002060040154838381518110610bd357610bd26141da565b5b602002602001018181525050508080610beb906140c9565b915050610aa9565b505b8585858585859b509b509b509b509b509b5050505050505091939550919395565b610c31838383604051806020016040528060008152506116e9565b505050565b610c3e611d23565b73ffffffffffffffffffffffffffffffffffffffff16610c5c61115b565b73ffffffffffffffffffffffffffffffffffffffff1614610cb2576040517f08c379a0000000000000000000000000000000000000000000000000000000008152600401610ca990613d03565b60405180910390fd5b6000610cbd82610f69565b90506000600160ce60008473ffffffffffffffffffffffffffffffffffffffff1673ffffffffffffffffffffffffffffffffffffffff16815260200190815260200160002080549050610d109190613f6a565b67ffffffffffffffff811115610d2957610d28614209565b5b604051908082528060200260200182016040528015610d575781602001602082028036833780820191505090505b509050600080600090505b60ce60008573ffffffffffffffffffffffffffffffffffffffff1673ffffffffffffffffffffffffffffffffffffffff16815260200190815260200160002080549050811015610eab578460ce60008673ffffffffffffffffffffffffffffffffffffffff1673ffffffffffffffffffffffffffffffffffffffff1681526020019081526020016000208281548110610dfe57610dfd6141da565b5b906000526020600020015414610e8a5760ce60008573ffffffffffffffffffffffffffffffffffffffff1673ffffffffffffffffffffffffffffffffffffffff1681526020019081526020016000208181548110610e5f57610e5e6141da565b5b9060005260206000200154838381518110610e7d57610e7c6141da565b5b6020026020010181815250505b8180610e95906140c9565b9250508080610ea3906140c9565b915050610d62565b50600160ce60008573ffffffffffffffffffffffffffffffffffffffff1673ffffffffffffffffffffffffffffffffffffffff16815260200190815260200160002080549050610efb9190613f6a565b8114610f0657600080fd5b8160ce60008573ffffffffffffffffffffffffffffffffffffffff1673ffffffffffffffffffffffffffffffffffffffff1681526020019081526020016000209080519060200190610f599291906130f2565b50610f638461211e565b50505050565b6000806067600084815260200190815260200160002060009054906101000a900473ffffffffffffffffffffffffffffffffffffffff169050600073ffffffffffffffffffffffffffffffffffffffff168173ffffffffffffffffffffffffffffffffffffffff161415611012576040517f08c379a000000000000000000000000000000000000000000000000000000000815260040161100990613c83565b60405180910390fd5b80915050919050565b60008073ffffffffffffffffffffffffffffffffffffffff168273ffffffffffffffffffffffffffffffffffffffff16141561108c576040517f08c379a000000000000000000000000000000000000000000000000000000000815260040161108390613c63565b60405180910390fd5b606860008373ffffffffffffffffffffffffffffffffffffffff1673ffffffffffffffffffffffffffffffffffffffff168152602001908152602001600020549050919050565b6110db611d23565b73ffffffffffffffffffffffffffffffffffffffff166110f961115b565b73ffffffffffffffffffffffffffffffffffffffff161461114f576040517f08c379a000000000000000000000000000000000000000000000000000000000815260040161114690613d03565b60405180910390fd5b611159600061222f565b565b6000609760009054906101000a900473ffffffffffffffffffffffffffffffffffffffff16905090565b60606066805461119490614066565b80601f01602080910402602001604051908101604052809291908181526020018280546111c090614066565b801561120d5780601f106111e25761010080835404028352916020019161120d565b820191906000526020600020905b8154815290600101906020018083116111f057829003601f168201915b5050505050905090565b60cd6020528060005260406000206000915090508060000154908060010154908060020154908060030154908060040154905085565b611255611d23565b73ffffffffffffffffffffffffffffffffffffffff168273ffffffffffffffffffffffffffffffffffffffff1614156112c3576040517f08c379a00000000000000000000000000000000000000000000000000000000081526004016112ba90613c03565b60405180910390fd5b80606a60006112d0611d23565b73ffffffffffffffffffffffffffffffffffffffff1673ffffffffffffffffffffffffffffffffffffffff16815260200190815260200160002060008473ffffffffffffffffffffffffffffffffffffffff1673ffffffffffffffffffffffffffffffffffffffff16815260200190815260200160002060006101000a81548160ff0219169083151502179055508173ffffffffffffffffffffffffffffffffffffffff1661137d611d23565b73ffffffffffffffffffffffffffffffffffffffff167f17307eab39ab6107e8899845ad3d59bd9653f200f220920489ca2b5937696c31836040516113c29190613b26565b60405180910390a35050565b60006305f5e10090508060c960009054906101000a900473ffffffffffffffffffffffffffffffffffffffff1673ffffffffffffffffffffffffffffffffffffffff166370a08231336040518263ffffffff1660e01b815260040161143391906139fd565b60206040518083038186803b15801561144b57600080fd5b505afa15801561145f573d6000803e3d6000fd5b505050506040513d601f19601f82011682018060405250810190611483919061359e565b10156114c4576040517f08c379a00000000000000000000000000000000000000000000000000000000081526004016114bb90613b63565b60405180910390fd5b60c960009054906101000a900473ffffffffffffffffffffffffffffffffffffffff1673ffffffffffffffffffffffffffffffffffffffff166323b872dd3360c960009054906101000a900473ffffffffffffffffffffffffffffffffffffffff16846040518463ffffffff1660e01b815260040161154593929190613a18565b602060405180830381600087803b15801561155f57600080fd5b505af1158015611573573d6000803e3d6000fd5b505050506040513d601f19601f8201168201806040525081019061159791906134bd565b50600060cb600081546115a9906140c9565b919050819055905060008060008061161860cf60006115c6611d23565b73ffffffffffffffffffffffffffffffffffffffff1673ffffffffffffffffffffffffffffffffffffffff1681526020019081526020016000206000815461160d906140c9565b9190508190556122f5565b809450819550829650839750505050506040518060a00160405280858152602001848152602001838152602001828152602001600181525060cd600087815260200190815260200160002060008201518160000155602082015181600101556040820151816002015560608201518160030155608082015181600401559050506116a23386612489565b7f34fe1642a0ca93b1ef0aafba83195bd647a07069c5807c33e3e21d59ff4749c285858585856040516116d9959493929190613dbe565b60405180910390a1505050505050565b6116fa6116f4611d23565b83611de4565b611739576040517f08c379a000000000000000000000000000000000000000000000000000000000815260040161173090613d83565b60405180910390fd5b61174584848484612657565b50505050565b600060019054906101000a900460ff1680611771575060008054906101000a900460ff16155b6117b0576040517f08c379a00000000000000000000000000000000000000000000000000000000081526004016117a790613ca3565b60405180910390fd5b60008060019054906101000a900460ff161590508015611800576001600060016101000a81548160ff02191690831515021790555060016000806101000a81548160ff0219169083151502179055505b6118746040518060400160405280600d81526020017f464d20546f6b656e2043617264000000000000000000000000000000000000008152506040518060400160405280600381526020017f464d4300000000000000000000000000000000000000000000000000000000008152506126b3565b61187c6127a8565b8160c960006101000a81548173ffffffffffffffffffffffffffffffffffffffff021916908373ffffffffffffffffffffffffffffffffffffffff160217905550600160cc60006001815260200190815260200160002081905550600160cc60006002815260200190815260200160002081905550600160cc60006003815260200190815260200160002081905550600160cc60006004815260200190815260200160002081905550600260cc60006005815260200190815260200160002081905550600260cc60006006815260200190815260200160002081905550600260cc60006007815260200190815260200160002081905550600260cc60006008815260200190815260200160002081905550600360cc60006009815260200190815260200160002081905550600360cc6000600a815260200190815260200160002081905550600360cc6000600b815260200190815260200160002081905550600360cc6000600c8152602001908152602001600020819055508015611a165760008060016101000a81548160ff0219169083151502179055505b5050565b6060611a2582611cb7565b611a64576040517f08c379a0000000000000000000000000000000000000000000000000000000008152600401611a5b90613d43565b60405180910390fd5b6000611a6e612891565b90506000815111611a8e5760405180602001604052806000815250611ab9565b80611a98846128a8565b604051602001611aa99291906139ad565b6040516020818303038152906040525b915050919050565b6000606a60008473ffffffffffffffffffffffffffffffffffffffff1673ffffffffffffffffffffffffffffffffffffffff16815260200190815260200160002060008373ffffffffffffffffffffffffffffffffffffffff1673ffffffffffffffffffffffffffffffffffffffff16815260200190815260200160002060009054906101000a900460ff16905092915050565b611b5d611d23565b73ffffffffffffffffffffffffffffffffffffffff16611b7b61115b565b73ffffffffffffffffffffffffffffffffffffffff1614611bd1576040517f08c379a0000000000000000000000000000000000000000000000000000000008152600401611bc890613d03565b60405180910390fd5b600073ffffffffffffffffffffffffffffffffffffffff168173ffffffffffffffffffffffffffffffffffffffff161415611c41576040517f08c379a0000000000000000000000000000000000000000000000000000000008152600401611c3890613ba3565b60405180910390fd5b611c4a8161222f565b50565b60007f01ffc9a7000000000000000000000000000000000000000000000000000000007bffffffffffffffffffffffffffffffffffffffffffffffffffffffff1916827bffffffffffffffffffffffffffffffffffffffffffffffffffffffff1916149050919050565b60008073ffffffffffffffffffffffffffffffffffffffff166067600084815260200190815260200160002060009054906101000a900473ffffffffffffffffffffffffffffffffffffffff1673ffffffffffffffffffffffffffffffffffffffff1614159050919050565b600033905090565b816069600083815260200190815260200160002060006101000a81548173ffffffffffffffffffffffffffffffffffffffff021916908373ffffffffffffffffffffffffffffffffffffffff160217905550808273ffffffffffffffffffffffffffffffffffffffff16611d9e83610f69565b73ffffffffffffffffffffffffffffffffffffffff167f8c5be1e5ebec7d5bd14f71427d1e84f3dd0314c0f7b2291e5b200ac8c7c3b92560405160405180910390a45050565b6000611def82611cb7565b611e2e576040517f08c379a0000000000000000000000000000000000000000000000000000000008152600401611e2590613c23565b60405180910390fd5b6000611e3983610f69565b90508073ffffffffffffffffffffffffffffffffffffffff168473ffffffffffffffffffffffffffffffffffffffff161480611ea857508373ffffffffffffffffffffffffffffffffffffffff16611e908461067e565b73ffffffffffffffffffffffffffffffffffffffff16145b80611eb95750611eb88185611ac1565b5b91505092915050565b8273ffffffffffffffffffffffffffffffffffffffff16611ee282610f69565b73ffffffffffffffffffffffffffffffffffffffff1614611f38576040517f08c379a0000000000000000000000000000000000000000000000000000000008152600401611f2f90613d23565b60405180910390fd5b600073ffffffffffffffffffffffffffffffffffffffff168273ffffffffffffffffffffffffffffffffffffffff161415611fa8576040517f08c379a0000000000000000000000000000000000000000000000000000000008152600401611f9f90613be3565b60405180910390fd5b611fb3838383612a09565b611fbe600082611d2b565b6001606860008573ffffffffffffffffffffffffffffffffffffffff1673ffffffffffffffffffffffffffffffffffffffff168152602001908152602001600020600082825461200e9190613f6a565b925050819055506001606860008473ffffffffffffffffffffffffffffffffffffffff1673ffffffffffffffffffffffffffffffffffffffff16815260200190815260200160002060008282546120659190613ee3565b92505081905550816067600083815260200190815260200160002060006101000a81548173ffffffffffffffffffffffffffffffffffffffff021916908373ffffffffffffffffffffffffffffffffffffffff160217905550808273ffffffffffffffffffffffffffffffffffffffff168473ffffffffffffffffffffffffffffffffffffffff167fddf252ad1be2c89b69c2b068fc378daa952ba7f163c4a11628f55a4df523b3ef60405160405180910390a4505050565b600061212982610f69565b905061213781600084612a09565b612142600083611d2b565b6001606860008373ffffffffffffffffffffffffffffffffffffffff1673ffffffffffffffffffffffffffffffffffffffff16815260200190815260200160002060008282546121929190613f6a565b925050819055506067600083815260200190815260200160002060006101000a81549073ffffffffffffffffffffffffffffffffffffffff021916905581600073ffffffffffffffffffffffffffffffffffffffff168273ffffffffffffffffffffffffffffffffffffffff167fddf252ad1be2c89b69c2b068fc378daa952ba7f163c4a11628f55a4df523b3ef60405160405180910390a45050565b6000609760009054906101000a900473ffffffffffffffffffffffffffffffffffffffff16905081609760006101000a81548173ffffffffffffffffffffffffffffffffffffffff021916908373ffffffffffffffffffffffffffffffffffffffff1602179055508173ffffffffffffffffffffffffffffffffffffffff168173ffffffffffffffffffffffffffffffffffffffff167f8be0079c531659141344cd1fd0a4f28419497f9722a3daafe3b4186f6b6457e060405160405180910390a35050565b600080600080600060018661230a9190613f6a565b905060ca600081548092919061231f906140c9565b91905055506123306001600c612b2e565b945060008060008060ca600081548092919061234b906140c9565b9190505550600085141561236c5761236560506064612b2e565b93506123a4565b600060058661237b919061411c565b14156123945761238d60466063612b2e565b93506123a3565b6123a06041605e612b2e565b93505b5b60ca60008154809291906123b7906140c9565b91905055506123c8600a6040612b2e565b925060ca60008154809291906123dd906140c9565b91905055506123ec8385612b2e565b915060ca6000815480929190612401906140c9565b91905055506124108385612b2e565b9050600160cc60008b815260200190815260200160002054141561243c57839750819650809550612471565b600260cc60008b815260200190815260200160002054141561246657819750809650839550612470565b8197508096508395505b5b88888789985098509850985050505050509193509193565b600073ffffffffffffffffffffffffffffffffffffffff168273ffffffffffffffffffffffffffffffffffffffff1614156124f9576040517f08c379a00000000000000000000000000000000000000000000000000000000081526004016124f090613cc3565b60405180910390fd5b61250281611cb7565b15612542576040517f08c379a000000000000000000000000000000000000000000000000000000000815260040161253990613bc3565b60405180910390fd5b61254e60008383612a09565b6001606860008473ffffffffffffffffffffffffffffffffffffffff1673ffffffffffffffffffffffffffffffffffffffff168152602001908152602001600020600082825461259e9190613ee3565b92505081905550816067600083815260200190815260200160002060006101000a81548173ffffffffffffffffffffffffffffffffffffffff021916908373ffffffffffffffffffffffffffffffffffffffff160217905550808273ffffffffffffffffffffffffffffffffffffffff16600073ffffffffffffffffffffffffffffffffffffffff167fddf252ad1be2c89b69c2b068fc378daa952ba7f163c4a11628f55a4df523b3ef60405160405180910390a45050565b612662848484611ec2565b61266e84848484612ba4565b6126ad576040517f08c379a00000000000000000000000000000000000000000000000000000000081526004016126a490613b83565b60405180910390fd5b50505050565b600060019054906101000a900460ff16806126d9575060008054906101000a900460ff16155b612718576040517f08c379a000000000000000000000000000000000000000000000000000000000815260040161270f90613ca3565b60405180910390fd5b60008060019054906101000a900460ff161590508015612768576001600060016101000a81548160ff02191690831515021790555060016000806101000a81548160ff0219169083151502179055505b612770612d3b565b612778612e14565b6127828383612eed565b80156127a35760008060016101000a81548160ff0219169083151502179055505b505050565b600060019054906101000a900460ff16806127ce575060008054906101000a900460ff16155b61280d576040517f08c379a000000000000000000000000000000000000000000000000000000000815260040161280490613ca3565b60405180910390fd5b60008060019054906101000a900460ff16159050801561285d576001600060016101000a81548160ff02191690831515021790555060016000806101000a81548160ff0219169083151502179055505b612865612d3b565b61286d612ff6565b801561288e5760008060016101000a81548160ff0219169083151502179055505b50565b606060405180602001604052806000815250905090565b606060008214156128f0576040518060400160405280600181526020017f30000000000000000000000000000000000000000000000000000000000000008152509050612a04565b600082905060005b6000821461292257808061290b906140c9565b915050600a8261291b9190613f39565b91506128f8565b60008167ffffffffffffffff81111561293e5761293d614209565b5b6040519080825280601f01601f1916602001820160405280156129705781602001600182028036833780820191505090505b5090505b600085146129fd576001826129899190613f6a565b9150600a85612998919061411c565b60306129a49190613ee3565b60f81b8183815181106129ba576129b96141da565b5b60200101907effffffffffffffffffffffffffffffffffffffffffffffffffffffffffffff1916908160001a905350600a856129f69190613f39565b9450612974565b8093505050505b919050565b600073ffffffffffffffffffffffffffffffffffffffff168273ffffffffffffffffffffffffffffffffffffffff1614612aaf5760ce6000612a49611d23565b73ffffffffffffffffffffffffffffffffffffffff1673ffffffffffffffffffffffffffffffffffffffff168152602001908152602001600020819080600181540180825580915050600190039060005260206000200160009091909190915055612aee565b60cd6000828152602001908152602001600020600080820160009055600182016000905560028201600090556003820160009055600482016000905550505b7f4814987054d8fe344e5b80282e88b055b8f4bd467e8762c163d855819694b8a6838383604051612b2193929190613a18565b60405180910390a1505050565b6000828211612b3c57600080fd5b60004460ca5442612b4d9190613ee3565b604051602001612b5e9291906139d1565b6040516020818303038152906040528051906020012060001c9050838484612b869190613f6a565b82612b91919061411c565b612b9b9190613ee3565b91505092915050565b6000612bc58473ffffffffffffffffffffffffffffffffffffffff166130df565b15612d2e578373ffffffffffffffffffffffffffffffffffffffff1663150b7a02612bee611d23565b8786866040518563ffffffff1660e01b8152600401612c109493929190613a4f565b602060405180830381600087803b158015612c2a57600080fd5b505af1925050508015612c5b57506040513d601f19601f82011682018060405250810190612c589190613517565b60015b612cde573d8060008114612c8b576040519150601f19603f3d011682016040523d82523d6000602084013e612c90565b606091505b50600081511415612cd6576040517f08c379a0000000000000000000000000000000000000000000000000000000008152600401612ccd90613b83565b60405180910390fd5b805181602001fd5b63150b7a0260e01b7bffffffffffffffffffffffffffffffffffffffffffffffffffffffff1916817bffffffffffffffffffffffffffffffffffffffffffffffffffffffff191614915050612d33565b600190505b949350505050565b600060019054906101000a900460ff1680612d61575060008054906101000a900460ff16155b612da0576040517f08c379a0000000000000000000000000000000000000000000000000000000008152600401612d9790613ca3565b60405180910390fd5b60008060019054906101000a900460ff161590508015612df0576001600060016101000a81548160ff02191690831515021790555060016000806101000a81548160ff0219169083151502179055505b8015612e115760008060016101000a81548160ff0219169083151502179055505b50565b600060019054906101000a900460ff1680612e3a575060008054906101000a900460ff16155b612e79576040517f08c379a0000000000000000000000000000000000000000000000000000000008152600401612e7090613ca3565b60405180910390fd5b60008060019054906101000a900460ff161590508015612ec9576001600060016101000a81548160ff02191690831515021790555060016000806101000a81548160ff0219169083151502179055505b8015612eea5760008060016101000a81548160ff0219169083151502179055505b50565b600060019054906101000a900460ff1680612f13575060008054906101000a900460ff16155b612f52576040517f08c379a0000000000000000000000000000000000000000000000000000000008152600401612f4990613ca3565b60405180910390fd5b60008060019054906101000a900460ff161590508015612fa2576001600060016101000a81548160ff02191690831515021790555060016000806101000a81548160ff0219169083151502179055505b8260659080519060200190612fb892919061313f565b508160669080519060200190612fcf92919061313f565b508015612ff15760008060016101000a81548160ff0219169083151502179055505b505050565b600060019054906101000a900460ff168061301c575060008054906101000a900460ff16155b61305b576040517f08c379a000000000000000000000000000000000000000000000000000000000815260040161305290613ca3565b60405180910390fd5b60008060019054906101000a900460ff1615905080156130ab576001600060016101000a81548160ff02191690831515021790555060016000806101000a81548160ff0219169083151502179055505b6130bb6130b6611d23565b61222f565b80156130dc5760008060016101000a81548160ff0219169083151502179055505b50565b600080823b905060008111915050919050565b82805482825590600052602060002090810192821561312e579160200282015b8281111561312d578251825591602001919060010190613112565b5b50905061313b91906131c5565b5090565b82805461314b90614066565b90600052602060002090601f01602090048101928261316d57600085556131b4565b82601f1061318657805160ff19168380011785556131b4565b828001600101855582156131b4579182015b828111156131b3578251825591602001919060010190613198565b5b5090506131c191906131c5565b5090565b5b808211156131de5760008160009055506001016131c6565b5090565b60006131f56131f084613e36565b613e11565b9050828152602081018484840111156132115761321061423d565b5b61321c848285614024565b509392505050565b6000813590506132338161472d565b92915050565b60008135905061324881614744565b92915050565b60008151905061325d81614744565b92915050565b6000813590506132728161475b565b92915050565b6000815190506132878161475b565b92915050565b600082601f8301126132a2576132a1614238565b5b81356132b28482602086016131e2565b91505092915050565b6000813590506132ca81614772565b92915050565b6000813590506132df81614789565b92915050565b6000815190506132f481614789565b92915050565b6000602082840312156133105761330f614247565b5b600061331e84828501613224565b91505092915050565b6000806040838503121561333e5761333d614247565b5b600061334c85828601613224565b925050602061335d85828601613224565b9150509250929050565b6000806000606084860312156133805761337f614247565b5b600061338e86828701613224565b935050602061339f86828701613224565b92505060406133b0868287016132d0565b9150509250925092565b600080600080608085870312156133d4576133d3614247565b5b60006133e287828801613224565b94505060206133f387828801613224565b9350506040613404878288016132d0565b925050606085013567ffffffffffffffff81111561342557613424614242565b5b6134318782880161328d565b91505092959194509250565b6000806040838503121561345457613453614247565b5b600061346285828601613224565b925050602061347385828601613239565b9150509250929050565b6000806040838503121561349457613493614247565b5b60006134a285828601613224565b92505060206134b3858286016132d0565b9150509250929050565b6000602082840312156134d3576134d2614247565b5b60006134e18482850161324e565b91505092915050565b600060208284031215613500576134ff614247565b5b600061350e84828501613263565b91505092915050565b60006020828403121561352d5761352c614247565b5b600061353b84828501613278565b91505092915050565b60006020828403121561355a57613559614247565b5b6000613568848285016132bb565b91505092915050565b60006020828403121561358757613586614247565b5b6000613595848285016132d0565b91505092915050565b6000602082840312156135b4576135b3614247565b5b60006135c2848285016132e5565b91505092915050565b60006135d78383613978565b60208301905092915050565b6135ec81613f9e565b82525050565b60006135fd82613e77565b6136078185613ea5565b935061361283613e67565b8060005b8381101561364357815161362a88826135cb565b975061363583613e98565b925050600181019050613616565b5085935050505092915050565b61365981613fb0565b82525050565b600061366a82613e82565b6136748185613eb6565b9350613684818560208601614033565b61368d8161424c565b840191505092915050565b60006136a382613e8d565b6136ad8185613ec7565b93506136bd818560208601614033565b6136c68161424c565b840191505092915050565b60006136dc82613e8d565b6136e68185613ed8565b93506136f6818560208601614033565b80840191505092915050565b600061370f601283613ec7565b915061371a8261425d565b602082019050919050565b6000613732603283613ec7565b915061373d82614286565b604082019050919050565b6000613755602683613ec7565b9150613760826142d5565b604082019050919050565b6000613778601c83613ec7565b915061378382614324565b602082019050919050565b600061379b602483613ec7565b91506137a68261434d565b604082019050919050565b60006137be601983613ec7565b91506137c98261439c565b602082019050919050565b60006137e1602c83613ec7565b91506137ec826143c5565b604082019050919050565b6000613804603883613ec7565b915061380f82614414565b604082019050919050565b6000613827602a83613ec7565b915061383282614463565b604082019050919050565b600061384a602983613ec7565b9150613855826144b2565b604082019050919050565b600061386d602e83613ec7565b915061387882614501565b604082019050919050565b6000613890602083613ec7565b915061389b82614550565b602082019050919050565b60006138b3602c83613ec7565b91506138be82614579565b604082019050919050565b60006138d6602083613ec7565b91506138e1826145c8565b602082019050919050565b60006138f9602983613ec7565b9150613904826145f1565b604082019050919050565b600061391c602f83613ec7565b915061392782614640565b604082019050919050565b600061393f602183613ec7565b915061394a8261468f565b604082019050919050565b6000613962603183613ec7565b915061396d826146de565b604082019050919050565b6139818161401a565b82525050565b6139908161401a565b82525050565b6139a76139a28261401a565b614112565b82525050565b60006139b982856136d1565b91506139c582846136d1565b91508190509392505050565b60006139dd8285613996565b6020820191506139ed8284613996565b6020820191508190509392505050565b6000602082019050613a1260008301846135e3565b92915050565b6000606082019050613a2d60008301866135e3565b613a3a60208301856135e3565b613a476040830184613987565b949350505050565b6000608082019050613a6460008301876135e3565b613a7160208301866135e3565b613a7e6040830185613987565b8181036060830152613a90818461365f565b905095945050505050565b600060c0820190508181036000830152613ab581896135f2565b90508181036020830152613ac981886135f2565b90508181036040830152613add81876135f2565b90508181036060830152613af181866135f2565b90508181036080830152613b0581856135f2565b905081810360a0830152613b1981846135f2565b9050979650505050505050565b6000602082019050613b3b6000830184613650565b92915050565b60006020820190508181036000830152613b5b8184613698565b905092915050565b60006020820190508181036000830152613b7c81613702565b9050919050565b60006020820190508181036000830152613b9c81613725565b9050919050565b60006020820190508181036000830152613bbc81613748565b9050919050565b60006020820190508181036000830152613bdc8161376b565b9050919050565b60006020820190508181036000830152613bfc8161378e565b9050919050565b60006020820190508181036000830152613c1c816137b1565b9050919050565b60006020820190508181036000830152613c3c816137d4565b9050919050565b60006020820190508181036000830152613c5c816137f7565b9050919050565b60006020820190508181036000830152613c7c8161381a565b9050919050565b60006020820190508181036000830152613c9c8161383d565b9050919050565b60006020820190508181036000830152613cbc81613860565b9050919050565b60006020820190508181036000830152613cdc81613883565b9050919050565b60006020820190508181036000830152613cfc816138a6565b9050919050565b60006020820190508181036000830152613d1c816138c9565b9050919050565b60006020820190508181036000830152613d3c816138ec565b9050919050565b60006020820190508181036000830152613d5c8161390f565b9050919050565b60006020820190508181036000830152613d7c81613932565b9050919050565b60006020820190508181036000830152613d9c81613955565b9050919050565b6000602082019050613db86000830184613987565b92915050565b600060a082019050613dd36000830188613987565b613de06020830187613987565b613ded6040830186613987565b613dfa6060830185613987565b613e076080830184613987565b9695505050505050565b6000613e1b613e2c565b9050613e278282614098565b919050565b6000604051905090565b600067ffffffffffffffff821115613e5157613e50614209565b5b613e5a8261424c565b9050602081019050919050565b6000819050602082019050919050565b600081519050919050565b600081519050919050565b600081519050919050565b6000602082019050919050565b600082825260208201905092915050565b600082825260208201905092915050565b600082825260208201905092915050565b600081905092915050565b6000613eee8261401a565b9150613ef98361401a565b9250827fffffffffffffffffffffffffffffffffffffffffffffffffffffffffffffffff03821115613f2e57613f2d61414d565b5b828201905092915050565b6000613f448261401a565b9150613f4f8361401a565b925082613f5f57613f5e61417c565b5b828204905092915050565b6000613f758261401a565b9150613f808361401a565b925082821015613f9357613f9261414d565b5b828203905092915050565b6000613fa982613ffa565b9050919050565b60008115159050919050565b60007fffffffff0000000000000000000000000000000000000000000000000000000082169050919050565b6000613ff382613f9e565b9050919050565b600073ffffffffffffffffffffffffffffffffffffffff82169050919050565b6000819050919050565b82818337600083830152505050565b60005b83811015614051578082015181840152602081019050614036565b83811115614060576000848401525b50505050565b6000600282049050600182168061407e57607f821691505b60208210811415614092576140916141ab565b5b50919050565b6140a18261424c565b810181811067ffffffffffffffff821117156140c0576140bf614209565b5b80604052505050565b60006140d48261401a565b91507fffffffffffffffffffffffffffffffffffffffffffffffffffffffffffffffff8214156141075761410661414d565b5b600182019050919050565b6000819050919050565b60006141278261401a565b91506141328361401a565b9250826141425761414161417c565b5b828206905092915050565b7f4e487b7100000000000000000000000000000000000000000000000000000000600052601160045260246000fd5b7f4e487b7100000000000000000000000000000000000000000000000000000000600052601260045260246000fd5b7f4e487b7100000000000000000000000000000000000000000000000000000000600052602260045260246000fd5b7f4e487b7100000000000000000000000000000000000000000000000000000000600052603260045260246000fd5b7f4e487b7100000000000000000000000000000000000000000000000000000000600052604160045260246000fd5b600080fd5b600080fd5b600080fd5b600080fd5b6000601f19601f8301169050919050565b7f62616c616e6365203c2072657175697265640000000000000000000000000000600082015250565b7f4552433732313a207472616e7366657220746f206e6f6e20455243373231526560008201527f63656976657220696d706c656d656e7465720000000000000000000000000000602082015250565b7f4f776e61626c653a206e6577206f776e657220697320746865207a65726f206160008201527f6464726573730000000000000000000000000000000000000000000000000000602082015250565b7f4552433732313a20746f6b656e20616c7265616479206d696e74656400000000600082015250565b7f4552433732313a207472616e7366657220746f20746865207a65726f2061646460008201527f7265737300000000000000000000000000000000000000000000000000000000602082015250565b7f4552433732313a20617070726f766520746f2063616c6c657200000000000000600082015250565b7f4552433732313a206f70657261746f7220717565727920666f72206e6f6e657860008201527f697374656e7420746f6b656e0000000000000000000000000000000000000000602082015250565b7f4552433732313a20617070726f76652063616c6c6572206973206e6f74206f7760008201527f6e6572206e6f7220617070726f76656420666f7220616c6c0000000000000000602082015250565b7f4552433732313a2062616c616e636520717565727920666f7220746865207a6560008201527f726f206164647265737300000000000000000000000000000000000000000000602082015250565b7f4552433732313a206f776e657220717565727920666f72206e6f6e657869737460008201527f656e7420746f6b656e0000000000000000000000000000000000000000000000602082015250565b7f496e697469616c697a61626c653a20636f6e747261637420697320616c72656160008201527f647920696e697469616c697a6564000000000000000000000000000000000000602082015250565b7f4552433732313a206d696e7420746f20746865207a65726f2061646472657373600082015250565b7f4552433732313a20617070726f76656420717565727920666f72206e6f6e657860008201527f697374656e7420746f6b656e0000000000000000000000000000000000000000602082015250565b7f4f776e61626c653a2063616c6c6572206973206e6f7420746865206f776e6572600082015250565b7f4552433732313a207472616e73666572206f6620746f6b656e2074686174206960008201527f73206e6f74206f776e0000000000000000000000000000000000000000000000602082015250565b7f4552433732314d657461646174613a2055524920717565727920666f72206e6f60008201527f6e6578697374656e7420746f6b656e0000000000000000000000000000000000602082015250565b7f4552433732313a20617070726f76616c20746f2063757272656e74206f776e6560008201527f7200000000000000000000000000000000000000000000000000000000000000602082015250565b7f4552433732313a207472616e736665722063616c6c6572206973206e6f74206f60008201527f776e6572206e6f7220617070726f766564000000000000000000000000000000602082015250565b61473681613f9e565b811461474157600080fd5b50565b61474d81613fb0565b811461475857600080fd5b50565b61476481613fbc565b811461476f57600080fd5b50565b61477b81613fe8565b811461478657600080fd5b50565b6147928161401a565b811461479d57600080fd5b5056fea2646970667358221220f05b4b83075678a002e16f62dd41ab44923e138361195990dcb80e43671f9f6f64736f6c63430008070033",
  "immutableReferences": {},
  "source": "// SPDX-License-Identifier: MIT\r\npragma solidity ^0.8.0;\r\n\r\nimport \"@openzeppelin/contracts-upgradeable/token/ERC721/ERC721Upgradeable.sol\";\r\nimport \"@openzeppelin/contracts-upgradeable/access/OwnableUpgradeable.sol\";\r\nimport \"./Diamond.sol\";\r\n\r\n/** / */\r\ncontract NftHero is ERC721Upgradeable,OwnableUpgradeable {\r\n\r\n    Diamond diamondInstance;\r\n\r\n    //\r\n    uint256 randSeed;\r\n    //tokenID\r\n    uint256 private countor;\r\n    //id,\r\n    mapping(uint => uint) herosType;\r\n    //\r\n    struct HeroInfo {\r\n        uint id;\r\n        uint li; //\r\n        uint min; //\r\n        uint zhi; //\r\n        uint lv; //\r\n    }\r\n    //\r\n    // tokenId => HeroInfo\r\n    mapping(uint256 => HeroInfo) public cardDB;\r\n    // => tokens\r\n    mapping(address => uint256[]) private tokenDB;\r\n    //\r\n    mapping(address => uint) private userRandtimes;\r\n\r\n\r\n    function initialize(Diamond _diamondInstance) public initializer {\r\n        __ERC721_init(\"FM Token Card\", \"FMC\");\r\n        __Ownable_init();\r\n        \r\n        diamondInstance = _diamondInstance;\r\n\r\n        herosType[1] = 1;\r\n        herosType[2] = 1;\r\n        herosType[3] = 1;\r\n        herosType[4] = 1;\r\n        herosType[5] = 2;\r\n        herosType[6] = 2;\r\n        herosType[7] = 2;\r\n        herosType[8] = 2;\r\n        herosType[9] = 3;\r\n        herosType[10] = 3;\r\n        herosType[11] = 3;\r\n        herosType[12] = 3;\r\n    }\r\n\r\n    /**  */\r\n    function createCard() public payable {\r\n        uint256 cost = 1 * 1e8;\r\n        require(\r\n            diamondInstance.balanceOf(msg.sender) >= cost,\r\n            \"balance < required\"\r\n        );\r\n        diamondInstance.transferFrom(msg.sender, address(diamondInstance), cost);\r\n\r\n        uint256 _tokenId = ++countor;\r\n\r\n        //\r\n        uint id; uint li; uint min; uint zhi;\r\n        (id,li,min,zhi) = _randHero(++ userRandtimes[_msgSender()]);\r\n        cardDB[_tokenId] = HeroInfo(id,li,min,zhi,1);\r\n\r\n        //mint_beforeTokenTransfer\r\n        super._mint(msg.sender, _tokenId);\r\n        emit createCardEvent(_tokenId, id,li,min,zhi);\r\n    }\r\n\r\n    /**  */\r\n    function getMyCards(address _addr) public view returns ( uint256[] memory, uint[] memory, uint[] memory, uint[] memory, uint[] memory, uint[] memory) {\r\n        uint256[] memory _tokens = tokenDB[_addr];\r\n        uint[] memory _hero_ids = new uint[](_tokens.length);\r\n        uint[] memory _li = new uint[](_tokens.length);\r\n        uint[] memory _min = new uint[](_tokens.length);\r\n        uint[] memory _zhi = new uint[](_tokens.length);\r\n        uint[] memory _lv = new uint[](_tokens.length);\r\n\r\n        if (_tokens.length > 0) {\r\n            for (uint i=0; i<_tokens.length; i++) {\r\n                uint256 _tokenId = _tokens[i];\r\n                _hero_ids[i] = cardDB[ _tokenId ].id;\r\n                _li[i] = cardDB[ _tokenId ].li;\r\n                _min[i] = cardDB[ _tokenId ].min;\r\n                _zhi[i] = cardDB[ _tokenId ].zhi;\r\n                _lv[i] = cardDB[ _tokenId ].lv;\r\n            }\r\n        }\r\n\r\n        return (_tokens, _hero_ids, _li, _min, _zhi, _lv);\r\n    }\r\n\r\n    //token\r\n    function burn(uint256 tokenId) public onlyOwner {\r\n        address tokenOwner = ownerOf(tokenId);\r\n\r\n        //tokenId\r\n        uint256[] memory newUserTokens = new uint256[](tokenDB[tokenOwner].length - 1);\r\n        uint256 realLen;\r\n\r\n        for (uint i=0; i<tokenDB[tokenOwner].length; i++) {\r\n            if (tokenDB[tokenOwner][i] != tokenId) {\r\n                newUserTokens[realLen] = tokenDB[tokenOwner][i];\r\n            }\r\n            realLen ++;\r\n        }\r\n        require(realLen == tokenDB[tokenOwner].length - 1);\r\n        tokenDB[tokenOwner] = newUserTokens;\r\n\r\n        //\r\n        _burn(tokenId);\r\n    }\r\n\r\n    function _beforeTokenTransfer(address from, address to, uint256 tokenId) internal override {\r\n        if (to != address(0)) {\r\n            //token\r\n            tokenDB[_msgSender()].push(tokenId);\r\n        } else {\r\n            delete cardDB[tokenId];\r\n        }\r\n        \r\n        emit transferCardEvent(from, to, tokenId);\r\n    }\r\n\r\n    //\r\n    function _randHero(uint times) private returns(uint id, uint li, uint min, uint zhi) {\r\n        uint overTimes = times - 1;\r\n\r\nrandSeed++;\r\n        id = rand(1, 12); //hero id\r\n        uint attr_main; //\r\n        uint attr_side_min;  //\r\n        uint attr_side1;\r\n        uint attr_side2;\r\n\r\nrandSeed++;\r\n        if (overTimes == 0) {\r\n            attr_main = rand(80, 100);\r\n        } else if (overTimes % 5 == 0) {\r\n            attr_main = rand(70, 99);\r\n        } else {\r\n            attr_main = rand(65, 94);\r\n        }\r\n\r\nrandSeed++;\r\n        attr_side_min = rand(10, 64);\r\nrandSeed++;\r\n        attr_side1 = rand(attr_side_min, attr_main);\r\nrandSeed++;\r\n        attr_side2 = rand(attr_side_min, attr_main);\r\n\r\n        if (herosType[id] == 1) {\r\n            li = attr_main;\r\n            min = attr_side1;\r\n            zhi = attr_side2;\r\n        } else if (herosType[id] == 2) {\r\n            li = attr_side1;\r\n            min = attr_side2;\r\n            zhi = attr_main;\r\n        } else {\r\n            li = attr_side1;\r\n            min = attr_side2;\r\n            zhi = attr_main;\r\n        }\r\n        return (id, li, zhi, min);\r\n    }\r\n\r\n    function rand(uint256 _min,uint256 _max) private view returns(uint256) {\r\n        require(_max > _min);\r\n        uint256 random = uint256(keccak256(abi.encodePacked(block.difficulty, block.timestamp+ randSeed)));\r\n        return uint256(random % (_max-_min)) + _min;\r\n    }\r\n\r\n    event createCardEvent(uint256 token, uint hero_id, uint li, uint min, uint zhi);\r\n    event transferCardEvent(address from, address to, uint256 tokenId);\r\n}",
  "sourcePath": "D:\\solidity\\sol-test1\\contracts\\NftHero.sol",
  "compiler": {
    "name": "solc",
    "version": "0.8.7+commit.e28d00a7.Emscripten.clang"
  },
  "schemaVersion": "3.4.3",
  "updatedAt": "2021-10-19T09:48:58.261Z",
  "networkType": "ethereum",
  "devdoc": {
    "kind": "dev",
    "methods": {
      "approve(address,uint256)": {
        "details": "See {IERC721-approve}."
      },
      "balanceOf(address)": {
        "details": "See {IERC721-balanceOf}."
      },
      "getApproved(uint256)": {
        "details": "See {IERC721-getApproved}."
      },
      "isApprovedForAll(address,address)": {
        "details": "See {IERC721-isApprovedForAll}."
      },
      "name()": {
        "details": "See {IERC721Metadata-name}."
      },
      "owner()": {
        "details": "Returns the address of the current owner."
      },
      "ownerOf(uint256)": {
        "details": "See {IERC721-ownerOf}."
      },
      "renounceOwnership()": {
        "details": "Leaves the contract without owner. It will not be possible to call `onlyOwner` functions anymore. Can only be called by the current owner. NOTE: Renouncing ownership will leave the contract without an owner, thereby removing any functionality that is only available to the owner."
      },
      "safeTransferFrom(address,address,uint256)": {
        "details": "See {IERC721-safeTransferFrom}."
      },
      "safeTransferFrom(address,address,uint256,bytes)": {
        "details": "See {IERC721-safeTransferFrom}."
      },
      "setApprovalForAll(address,bool)": {
        "details": "See {IERC721-setApprovalForAll}."
      },
      "supportsInterface(bytes4)": {
        "details": "See {IERC165-supportsInterface}."
      },
      "symbol()": {
        "details": "See {IERC721Metadata-symbol}."
      },
      "tokenURI(uint256)": {
        "details": "See {IERC721Metadata-tokenURI}."
      },
      "transferFrom(address,address,uint256)": {
        "details": "See {IERC721-transferFrom}."
      },
      "transferOwnership(address)": {
        "details": "Transfers ownership of the contract to a new account (`newOwner`). Can only be called by the current owner."
      }
    },
    "version": 1
  },
  "userdoc": {
    "kind": "user",
    "methods": {
      "createCard()": {
        "notice": " "
      },
      "getMyCards(address)": {
        "notice": " "
      }
    },
    "notice": "/ ",
    "version": 1
  }
}