{
  "contractName": "NftPlayerV2",
  "abi": [
    {
      "anonymous": false,
      "inputs": [
        {
          "indexed": true,
          "internalType": "address",
          "name": "owner",
          "type": "address"
        },
        {
          "indexed": true,
          "internalType": "address",
          "name": "approved",
          "type": "address"
        },
        {
          "indexed": true,
          "internalType": "uint256",
          "name": "tokenId",
          "type": "uint256"
        }
      ],
      "name": "Approval",
      "type": "event"
    },
    {
      "anonymous": false,
      "inputs": [
        {
          "indexed": true,
          "internalType": "address",
          "name": "owner",
          "type": "address"
        },
        {
          "indexed": true,
          "internalType": "address",
          "name": "operator",
          "type": "address"
        },
        {
          "indexed": false,
          "internalType": "bool",
          "name": "approved",
          "type": "bool"
        }
      ],
      "name": "ApprovalForAll",
      "type": "event"
    },
    {
      "anonymous": false,
      "inputs": [
        {
          "indexed": true,
          "internalType": "address",
          "name": "previousOwner",
          "type": "address"
        },
        {
          "indexed": true,
          "internalType": "address",
          "name": "newOwner",
          "type": "address"
        }
      ],
      "name": "OwnershipTransferred",
      "type": "event"
    },
    {
      "anonymous": false,
      "inputs": [
        {
          "indexed": true,
          "internalType": "address",
          "name": "from",
          "type": "address"
        },
        {
          "indexed": true,
          "internalType": "address",
          "name": "to",
          "type": "address"
        },
        {
          "indexed": true,
          "internalType": "uint256",
          "name": "tokenId",
          "type": "uint256"
        }
      ],
      "name": "Transfer",
      "type": "event"
    },
    {
      "anonymous": false,
      "inputs": [
        {
          "indexed": false,
          "internalType": "uint256",
          "name": "token",
          "type": "uint256"
        },
        {
          "indexed": false,
          "internalType": "uint32",
          "name": "player_id",
          "type": "uint32"
        }
      ],
      "name": "createCardEvent",
      "type": "event"
    },
    {
      "inputs": [
        {
          "internalType": "address",
          "name": "to",
          "type": "address"
        },
        {
          "internalType": "uint256",
          "name": "tokenId",
          "type": "uint256"
        }
      ],
      "name": "approve",
      "outputs": [],
      "stateMutability": "nonpayable",
      "type": "function"
    },
    {
      "inputs": [
        {
          "internalType": "address",
          "name": "owner",
          "type": "address"
        }
      ],
      "name": "balanceOf",
      "outputs": [
        {
          "internalType": "uint256",
          "name": "",
          "type": "uint256"
        }
      ],
      "stateMutability": "view",
      "type": "function"
    },
    {
      "inputs": [
        {
          "internalType": "uint256",
          "name": "",
          "type": "uint256"
        }
      ],
      "name": "cardDB",
      "outputs": [
        {
          "internalType": "uint32",
          "name": "",
          "type": "uint32"
        }
      ],
      "stateMutability": "view",
      "type": "function"
    },
    {
      "inputs": [
        {
          "internalType": "uint256",
          "name": "tokenId",
          "type": "uint256"
        }
      ],
      "name": "getApproved",
      "outputs": [
        {
          "internalType": "address",
          "name": "",
          "type": "address"
        }
      ],
      "stateMutability": "view",
      "type": "function"
    },
    {
      "inputs": [
        {
          "internalType": "address",
          "name": "owner",
          "type": "address"
        },
        {
          "internalType": "address",
          "name": "operator",
          "type": "address"
        }
      ],
      "name": "isApprovedForAll",
      "outputs": [
        {
          "internalType": "bool",
          "name": "",
          "type": "bool"
        }
      ],
      "stateMutability": "view",
      "type": "function"
    },
    {
      "inputs": [],
      "name": "name",
      "outputs": [
        {
          "internalType": "string",
          "name": "",
          "type": "string"
        }
      ],
      "stateMutability": "view",
      "type": "function"
    },
    {
      "inputs": [],
      "name": "owner",
      "outputs": [
        {
          "internalType": "address",
          "name": "",
          "type": "address"
        }
      ],
      "stateMutability": "view",
      "type": "function"
    },
    {
      "inputs": [
        {
          "internalType": "uint256",
          "name": "tokenId",
          "type": "uint256"
        }
      ],
      "name": "ownerOf",
      "outputs": [
        {
          "internalType": "address",
          "name": "",
          "type": "address"
        }
      ],
      "stateMutability": "view",
      "type": "function"
    },
    {
      "inputs": [],
      "name": "renounceOwnership",
      "outputs": [],
      "stateMutability": "nonpayable",
      "type": "function"
    },
    {
      "inputs": [
        {
          "internalType": "address",
          "name": "from",
          "type": "address"
        },
        {
          "internalType": "address",
          "name": "to",
          "type": "address"
        },
        {
          "internalType": "uint256",
          "name": "tokenId",
          "type": "uint256"
        }
      ],
      "name": "safeTransferFrom",
      "outputs": [],
      "stateMutability": "nonpayable",
      "type": "function"
    },
    {
      "inputs": [
        {
          "internalType": "address",
          "name": "from",
          "type": "address"
        },
        {
          "internalType": "address",
          "name": "to",
          "type": "address"
        },
        {
          "internalType": "uint256",
          "name": "tokenId",
          "type": "uint256"
        },
        {
          "internalType": "bytes",
          "name": "_data",
          "type": "bytes"
        }
      ],
      "name": "safeTransferFrom",
      "outputs": [],
      "stateMutability": "nonpayable",
      "type": "function"
    },
    {
      "inputs": [
        {
          "internalType": "address",
          "name": "operator",
          "type": "address"
        },
        {
          "internalType": "bool",
          "name": "approved",
          "type": "bool"
        }
      ],
      "name": "setApprovalForAll",
      "outputs": [],
      "stateMutability": "nonpayable",
      "type": "function"
    },
    {
      "inputs": [
        {
          "internalType": "bytes4",
          "name": "interfaceId",
          "type": "bytes4"
        }
      ],
      "name": "supportsInterface",
      "outputs": [
        {
          "internalType": "bool",
          "name": "",
          "type": "bool"
        }
      ],
      "stateMutability": "view",
      "type": "function"
    },
    {
      "inputs": [],
      "name": "symbol",
      "outputs": [
        {
          "internalType": "string",
          "name": "",
          "type": "string"
        }
      ],
      "stateMutability": "view",
      "type": "function"
    },
    {
      "inputs": [
        {
          "internalType": "uint256",
          "name": "tokenId",
          "type": "uint256"
        }
      ],
      "name": "tokenURI",
      "outputs": [
        {
          "internalType": "string",
          "name": "",
          "type": "string"
        }
      ],
      "stateMutability": "view",
      "type": "function"
    },
    {
      "inputs": [
        {
          "internalType": "address",
          "name": "from",
          "type": "address"
        },
        {
          "internalType": "address",
          "name": "to",
          "type": "address"
        },
        {
          "internalType": "uint256",
          "name": "tokenId",
          "type": "uint256"
        }
      ],
      "name": "transferFrom",
      "outputs": [],
      "stateMutability": "nonpayable",
      "type": "function"
    },
    {
      "inputs": [
        {
          "internalType": "address",
          "name": "newOwner",
          "type": "address"
        }
      ],
      "name": "transferOwnership",
      "outputs": [],
      "stateMutability": "nonpayable",
      "type": "function"
    },
    {
      "inputs": [
        {
          "internalType": "contract Diamond",
          "name": "_diamondInstance",
          "type": "address"
        }
      ],
      "name": "initialize",
      "outputs": [],
      "stateMutability": "nonpayable",
      "type": "function"
    },
    {
      "inputs": [
        {
          "internalType": "uint32[]",
          "name": "",
          "type": "uint32[]"
        }
      ],
      "name": "setPlayerPool",
      "outputs": [],
      "stateMutability": "nonpayable",
      "type": "function"
    },
    {
      "inputs": [],
      "name": "getPlayerPool",
      "outputs": [
        {
          "internalType": "uint32[]",
          "name": "",
          "type": "uint32[]"
        }
      ],
      "stateMutability": "view",
      "type": "function"
    },
    {
      "inputs": [],
      "name": "createCard",
      "outputs": [],
      "stateMutability": "payable",
      "type": "function"
    },
    {
      "inputs": [
        {
          "internalType": "address",
          "name": "_addr",
          "type": "address"
        }
      ],
      "name": "getMyCards",
      "outputs": [
        {
          "internalType": "uint256[]",
          "name": "",
          "type": "uint256[]"
        },
        {
          "internalType": "uint32[]",
          "name": "",
          "type": "uint32[]"
        }
      ],
      "stateMutability": "view",
      "type": "function"
    }
  ],
  "bytecode": "0x608060405234801561001057600080fd5b5061400f806100206000396000f3fe6080604052600436106101355760003560e01c80637f63fd3b116100ab578063a2d256fa1161006f578063a2d256fa14610439578063b88d4fde14610443578063c4d66de81461046c578063c87b56dd14610495578063e985e9c5146104d2578063f2fde38b1461050f57610135565b80637f63fd3b146103525780638da5cb5b1461037d57806395d89b41146103a8578063a00f6d76146103d3578063a22cb4651461041057610135565b806337983aed116100fd57806337983aed1461023157806342842e0e1461026f5780636352211e1461029857806366ea03a8146102d557806370a08231146102fe578063715018a61461033b57610135565b806301ffc9a71461013a57806306fdde0314610177578063081812fc146101a2578063095ea7b3146101df57806323b872dd14610208575b600080fd5b34801561014657600080fd5b50610161600480360381019061015c9190612c3f565b610538565b60405161016e91906132dd565b60405180910390f35b34801561018357600080fd5b5061018c61061a565b60405161019991906132f8565b60405180910390f35b3480156101ae57600080fd5b506101c960048036038101906101c49190612cc6565b6106ac565b6040516101d691906131e6565b60405180910390f35b3480156101eb57600080fd5b5061020660048036038101906102019190612b89565b610731565b005b34801561021457600080fd5b5061022f600480360381019061022a9190612a73565b610849565b005b34801561023d57600080fd5b5061025860048036038101906102539190612a06565b6108a9565b604051610266929190613284565b60405180910390f35b34801561027b57600080fd5b5061029660048036038101906102919190612a73565b610a3b565b005b3480156102a457600080fd5b506102bf60048036038101906102ba9190612cc6565b610a5b565b6040516102cc91906131e6565b60405180910390f35b3480156102e157600080fd5b506102fc60048036038101906102f79190612bc9565b610b0d565b005b34801561030a57600080fd5b5061032560048036038101906103209190612a06565b610b8c565b604051610332919061355a565b60405180910390f35b34801561034757600080fd5b50610350610c44565b005b34801561035e57600080fd5b50610367610ccc565b60405161037491906132bb565b60405180910390f35b34801561038957600080fd5b50610392610db2565b60405161039f91906131e6565b60405180910390f35b3480156103b457600080fd5b506103bd610ddc565b6040516103ca91906132f8565b60405180910390f35b3480156103df57600080fd5b506103fa60048036038101906103f59190612cc6565b610e6e565b604051610407919061359e565b60405180910390f35b34801561041c57600080fd5b5061043760048036038101906104329190612b49565b610e91565b005b610441611012565b005b34801561044f57600080fd5b5061046a60048036038101906104659190612ac6565b61132f565b005b34801561047857600080fd5b50610493600480360381019061048e9190612c99565b611391565b005b3480156104a157600080fd5b506104bc60048036038101906104b79190612cc6565b6115d8565b6040516104c991906132f8565b60405180910390f35b3480156104de57600080fd5b506104f960048036038101906104f49190612a33565b61167f565b60405161050691906132dd565b60405180910390f35b34801561051b57600080fd5b5061053660048036038101906105319190612a06565b611713565b005b60007f80ac58cd000000000000000000000000000000000000000000000000000000007bffffffffffffffffffffffffffffffffffffffffffffffffffffffff1916827bffffffffffffffffffffffffffffffffffffffffffffffffffffffff1916148061060357507f5b5e139f000000000000000000000000000000000000000000000000000000007bffffffffffffffffffffffffffffffffffffffffffffffffffffffff1916827bffffffffffffffffffffffffffffffffffffffffffffffffffffffff1916145b8061061357506106128261180b565b5b9050919050565b60606065805461062990613883565b80601f016020809104026020016040519081016040528092919081815260200182805461065590613883565b80156106a25780601f10610677576101008083540402835291602001916106a2565b820191906000526020600020905b81548152906001019060200180831161068557829003601f168201915b5050505050905090565b60006106b782611875565b6106f6576040517f08c379a00000000000000000000000000000000000000000000000000000000081526004016106ed9061349a565b60405180910390fd5b6069600083815260200190815260200160002060009054906101000a900473ffffffffffffffffffffffffffffffffffffffff169050919050565b600061073c82610a5b565b90508073ffffffffffffffffffffffffffffffffffffffff168373ffffffffffffffffffffffffffffffffffffffff1614156107ad576040517f08c379a00000000000000000000000000000000000000000000000000000000081526004016107a49061351a565b60405180910390fd5b8073ffffffffffffffffffffffffffffffffffffffff166107cc6118e1565b73ffffffffffffffffffffffffffffffffffffffff1614806107fb57506107fa816107f56118e1565b61167f565b5b61083a576040517f08c379a0000000000000000000000000000000000000000000000000000000008152600401610831906133fa565b60405180910390fd5b61084483836118e9565b505050565b61085a6108546118e1565b826119a2565b610899576040517f08c379a00000000000000000000000000000000000000000000000000000000081526004016108909061353a565b60405180910390fd5b6108a4838383611a80565b505050565b606080600060cd60008573ffffffffffffffffffffffffffffffffffffffff1673ffffffffffffffffffffffffffffffffffffffff16815260200190815260200160002080548060200260200160405190810160405280929190818152602001828054801561093757602002820191906000526020600020905b815481526020019060010190808311610923575b505050505090506000815167ffffffffffffffff81111561095b5761095a613a26565b5b6040519080825280602002602001820160405280156109895781602001602082028036833780820191505090505b509050600082511115610a2e5760005b8251811015610a2c5760008382815181106109b7576109b66139f7565b5b60200260200101519050600060cc600083815260200190815260200160002060009054906101000a900463ffffffff169050808484815181106109fd576109fc6139f7565b5b602002602001019063ffffffff16908163ffffffff168152505050508080610a24906138e6565b915050610999565b505b8181935093505050915091565b610a568383836040518060200160405280600081525061132f565b505050565b6000806067600084815260200190815260200160002060009054906101000a900473ffffffffffffffffffffffffffffffffffffffff169050600073ffffffffffffffffffffffffffffffffffffffff168173ffffffffffffffffffffffffffffffffffffffff161415610b04576040517f08c379a0000000000000000000000000000000000000000000000000000000008152600401610afb9061343a565b60405180910390fd5b80915050919050565b610b156118e1565b73ffffffffffffffffffffffffffffffffffffffff16610b33610db2565b73ffffffffffffffffffffffffffffffffffffffff1614610b89576040517f08c379a0000000000000000000000000000000000000000000000000000000008152600401610b80906134ba565b60405180910390fd5b50565b60008073ffffffffffffffffffffffffffffffffffffffff168273ffffffffffffffffffffffffffffffffffffffff161415610bfd576040517f08c379a0000000000000000000000000000000000000000000000000000000008152600401610bf49061341a565b60405180910390fd5b606860008373ffffffffffffffffffffffffffffffffffffffff1673ffffffffffffffffffffffffffffffffffffffff168152602001908152602001600020549050919050565b610c4c6118e1565b73ffffffffffffffffffffffffffffffffffffffff16610c6a610db2565b73ffffffffffffffffffffffffffffffffffffffff1614610cc0576040517f08c379a0000000000000000000000000000000000000000000000000000000008152600401610cb7906134ba565b60405180910390fd5b610cca6000611cdc565b565b6060600060cb8054905067ffffffffffffffff811115610cef57610cee613a26565b5b604051908082528060200260200182016040528015610d1d5781602001602082028036833780820191505090505b50905060005b60cb80549050811015610daa5760cb8181548110610d4457610d436139f7565b5b90600052602060002090600891828204019190066004029054906101000a900463ffffffff16828281518110610d7d57610d7c6139f7565b5b602002602001019063ffffffff16908163ffffffff16815250508080610da2906138e6565b915050610d23565b508091505090565b6000609760009054906101000a900473ffffffffffffffffffffffffffffffffffffffff16905090565b606060668054610deb90613883565b80601f0160208091040260200160405190810160405280929190818152602001828054610e1790613883565b8015610e645780601f10610e3957610100808354040283529160200191610e64565b820191906000526020600020905b815481529060010190602001808311610e4757829003601f168201915b5050505050905090565b60cc6020528060005260406000206000915054906101000a900463ffffffff1681565b610e996118e1565b73ffffffffffffffffffffffffffffffffffffffff168273ffffffffffffffffffffffffffffffffffffffff161415610f07576040517f08c379a0000000000000000000000000000000000000000000000000000000008152600401610efe906133ba565b60405180910390fd5b80606a6000610f146118e1565b73ffffffffffffffffffffffffffffffffffffffff1673ffffffffffffffffffffffffffffffffffffffff16815260200190815260200160002060008473ffffffffffffffffffffffffffffffffffffffff1673ffffffffffffffffffffffffffffffffffffffff16815260200190815260200160002060006101000a81548160ff0219169083151502179055508173ffffffffffffffffffffffffffffffffffffffff16610fc16118e1565b73ffffffffffffffffffffffffffffffffffffffff167f17307eab39ab6107e8899845ad3d59bd9653f200f220920489ca2b5937696c318360405161100691906132dd565b60405180910390a35050565b6000600190508060c960009054906101000a900473ffffffffffffffffffffffffffffffffffffffff1673ffffffffffffffffffffffffffffffffffffffff166370a08231336040518263ffffffff1660e01b815260040161107491906131e6565b60206040518083038186803b15801561108c57600080fd5b505afa1580156110a0573d6000803e3d6000fd5b505050506040513d601f19601f820116820180604052508101906110c49190612cf3565b1015611105576040517f08c379a00000000000000000000000000000000000000000000000000000000081526004016110fc9061331a565b60405180910390fd5b60c960009054906101000a900473ffffffffffffffffffffffffffffffffffffffff1673ffffffffffffffffffffffffffffffffffffffff166323b872dd3360c960009054906101000a900473ffffffffffffffffffffffffffffffffffffffff16846040518463ffffffff1660e01b815260040161118693929190613201565b602060405180830381600087803b1580156111a057600080fd5b505af11580156111b4573d6000803e3d6000fd5b505050506040513d601f19601f820116820180604052508101906111d89190612c12565b50600060ca600081546111ea906138e6565b9190508190559050600061120260cb80549050611da2565b9050600060cb8263ffffffff16815481106112205761121f6139f7565b5b90600052602060002090600891828204019190066004029054906101000a900463ffffffff1690508060cc600085815260200190815260200160002060006101000a81548163ffffffff021916908363ffffffff160217905550600033905060cd60008273ffffffffffffffffffffffffffffffffffffffff1673ffffffffffffffffffffffffffffffffffffffff1681526020019081526020016000208490806001815401808255809150506001900390600052602060002001600090919091909150556112ef3385611de7565b7fd0914a6950c93bc7cbd3d399e1a012b25c869d62d90fa63d7cd149113f4755438483604051611320929190613575565b60405180910390a15050505050565b61134061133a6118e1565b836119a2565b61137f576040517f08c379a00000000000000000000000000000000000000000000000000000000081526004016113769061353a565b60405180910390fd5b61138b84848484611fb5565b50505050565b600060019054906101000a900460ff16806113b7575060008054906101000a900460ff16155b6113f6576040517f08c379a00000000000000000000000000000000000000000000000000000000081526004016113ed9061345a565b60405180910390fd5b60008060019054906101000a900460ff161590508015611446576001600060016101000a81548160ff02191690831515021790555060016000806101000a81548160ff0219169083151502179055505b6114ba6040518060400160405280600d81526020017f464d20546f6b656e2043617264000000000000000000000000000000000000008152506040518060400160405280600381526020017f464d430000000000000000000000000000000000000000000000000000000000815250612011565b8160c960006101000a81548173ffffffffffffffffffffffffffffffffffffffff021916908373ffffffffffffffffffffffffffffffffffffffff160217905550604051806101400160405280621fbd6763ffffffff16815260200162f11fbf63ffffffff16815260200163010d709363ffffffff16815260200162ff93bf63ffffffff1681526020016301233eff63ffffffff16815260200163011fb26763ffffffff168152602001630117a89763ffffffff16815260200163012678c763ffffffff1681526020016301269de363ffffffff168152602001630116814763ffffffff1681525060cb90600a6115b29291906126e8565b5080156115d45760008060016101000a81548160ff0219169083151502179055505b5050565b60606115e382611875565b611622576040517f08c379a0000000000000000000000000000000000000000000000000000000008152600401611619906134fa565b60405180910390fd5b600061162c612106565b9050600081511161164c5760405180602001604052806000815250611677565b806116568461211d565b604051602001611667929190613196565b6040516020818303038152906040525b915050919050565b6000606a60008473ffffffffffffffffffffffffffffffffffffffff1673ffffffffffffffffffffffffffffffffffffffff16815260200190815260200160002060008373ffffffffffffffffffffffffffffffffffffffff1673ffffffffffffffffffffffffffffffffffffffff16815260200190815260200160002060009054906101000a900460ff16905092915050565b61171b6118e1565b73ffffffffffffffffffffffffffffffffffffffff16611739610db2565b73ffffffffffffffffffffffffffffffffffffffff161461178f576040517f08c379a0000000000000000000000000000000000000000000000000000000008152600401611786906134ba565b60405180910390fd5b600073ffffffffffffffffffffffffffffffffffffffff168173ffffffffffffffffffffffffffffffffffffffff1614156117ff576040517f08c379a00000000000000000000000000000000000000000000000000000000081526004016117f69061335a565b60405180910390fd5b61180881611cdc565b50565b60007f01ffc9a7000000000000000000000000000000000000000000000000000000007bffffffffffffffffffffffffffffffffffffffffffffffffffffffff1916827bffffffffffffffffffffffffffffffffffffffffffffffffffffffff1916149050919050565b60008073ffffffffffffffffffffffffffffffffffffffff166067600084815260200190815260200160002060009054906101000a900473ffffffffffffffffffffffffffffffffffffffff1673ffffffffffffffffffffffffffffffffffffffff1614159050919050565b600033905090565b816069600083815260200190815260200160002060006101000a81548173ffffffffffffffffffffffffffffffffffffffff021916908373ffffffffffffffffffffffffffffffffffffffff160217905550808273ffffffffffffffffffffffffffffffffffffffff1661195c83610a5b565b73ffffffffffffffffffffffffffffffffffffffff167f8c5be1e5ebec7d5bd14f71427d1e84f3dd0314c0f7b2291e5b200ac8c7c3b92560405160405180910390a45050565b60006119ad82611875565b6119ec576040517f08c379a00000000000000000000000000000000000000000000000000000000081526004016119e3906133da565b60405180910390fd5b60006119f783610a5b565b90508073ffffffffffffffffffffffffffffffffffffffff168473ffffffffffffffffffffffffffffffffffffffff161480611a6657508373ffffffffffffffffffffffffffffffffffffffff16611a4e846106ac565b73ffffffffffffffffffffffffffffffffffffffff16145b80611a775750611a76818561167f565b5b91505092915050565b8273ffffffffffffffffffffffffffffffffffffffff16611aa082610a5b565b73ffffffffffffffffffffffffffffffffffffffff1614611af6576040517f08c379a0000000000000000000000000000000000000000000000000000000008152600401611aed906134da565b60405180910390fd5b600073ffffffffffffffffffffffffffffffffffffffff168273ffffffffffffffffffffffffffffffffffffffff161415611b66576040517f08c379a0000000000000000000000000000000000000000000000000000000008152600401611b5d9061339a565b60405180910390fd5b611b7183838361227e565b611b7c6000826118e9565b6001606860008573ffffffffffffffffffffffffffffffffffffffff1673ffffffffffffffffffffffffffffffffffffffff1681526020019081526020016000206000828254611bcc9190613777565b925050819055506001606860008473ffffffffffffffffffffffffffffffffffffffff1673ffffffffffffffffffffffffffffffffffffffff1681526020019081526020016000206000828254611c2391906136f0565b92505081905550816067600083815260200190815260200160002060006101000a81548173ffffffffffffffffffffffffffffffffffffffff021916908373ffffffffffffffffffffffffffffffffffffffff160217905550808273ffffffffffffffffffffffffffffffffffffffff168473ffffffffffffffffffffffffffffffffffffffff167fddf252ad1be2c89b69c2b068fc378daa952ba7f163c4a11628f55a4df523b3ef60405160405180910390a4505050565b6000609760009054906101000a900473ffffffffffffffffffffffffffffffffffffffff16905081609760006101000a81548173ffffffffffffffffffffffffffffffffffffffff021916908373ffffffffffffffffffffffffffffffffffffffff1602179055508173ffffffffffffffffffffffffffffffffffffffff168173ffffffffffffffffffffffffffffffffffffffff167f8be0079c531659141344cd1fd0a4f28419497f9722a3daafe3b4186f6b6457e060405160405180910390a35050565b6000804442604051602001611db89291906131ba565b6040516020818303038152906040528051906020012060001c90508281611ddf9190613939565b915050919050565b600073ffffffffffffffffffffffffffffffffffffffff168273ffffffffffffffffffffffffffffffffffffffff161415611e57576040517f08c379a0000000000000000000000000000000000000000000000000000000008152600401611e4e9061347a565b60405180910390fd5b611e6081611875565b15611ea0576040517f08c379a0000000000000000000000000000000000000000000000000000000008152600401611e979061337a565b60405180910390fd5b611eac6000838361227e565b6001606860008473ffffffffffffffffffffffffffffffffffffffff1673ffffffffffffffffffffffffffffffffffffffff1681526020019081526020016000206000828254611efc91906136f0565b92505081905550816067600083815260200190815260200160002060006101000a81548173ffffffffffffffffffffffffffffffffffffffff021916908373ffffffffffffffffffffffffffffffffffffffff160217905550808273ffffffffffffffffffffffffffffffffffffffff16600073ffffffffffffffffffffffffffffffffffffffff167fddf252ad1be2c89b69c2b068fc378daa952ba7f163c4a11628f55a4df523b3ef60405160405180910390a45050565b611fc0848484611a80565b611fcc84848484612283565b61200b576040517f08c379a00000000000000000000000000000000000000000000000000000000081526004016120029061333a565b60405180910390fd5b50505050565b600060019054906101000a900460ff1680612037575060008054906101000a900460ff16155b612076576040517f08c379a000000000000000000000000000000000000000000000000000000000815260040161206d9061345a565b60405180910390fd5b60008060019054906101000a900460ff1615905080156120c6576001600060016101000a81548160ff02191690831515021790555060016000806101000a81548160ff0219169083151502179055505b6120ce61241a565b6120d66124f3565b6120e083836125cc565b80156121015760008060016101000a81548160ff0219169083151502179055505b505050565b606060405180602001604052806000815250905090565b60606000821415612165576040518060400160405280600181526020017f30000000000000000000000000000000000000000000000000000000000000008152509050612279565b600082905060005b60008214612197578080612180906138e6565b915050600a826121909190613746565b915061216d565b60008167ffffffffffffffff8111156121b3576121b2613a26565b5b6040519080825280601f01601f1916602001820160405280156121e55781602001600182028036833780820191505090505b5090505b60008514612272576001826121fe9190613777565b9150600a8561220d9190613939565b603061221991906136f0565b60f81b81838151811061222f5761222e6139f7565b5b60200101907effffffffffffffffffffffffffffffffffffffffffffffffffffffffffffff1916908160001a905350600a8561226b9190613746565b94506121e9565b8093505050505b919050565b505050565b60006122a48473ffffffffffffffffffffffffffffffffffffffff166126d5565b1561240d578373ffffffffffffffffffffffffffffffffffffffff1663150b7a026122cd6118e1565b8786866040518563ffffffff1660e01b81526004016122ef9493929190613238565b602060405180830381600087803b15801561230957600080fd5b505af192505050801561233a57506040513d601f19601f820116820180604052508101906123379190612c6c565b60015b6123bd573d806000811461236a576040519150601f19603f3d011682016040523d82523d6000602084013e61236f565b606091505b506000815114156123b5576040517f08c379a00000000000000000000000000000000000000000000000000000000081526004016123ac9061333a565b60405180910390fd5b805181602001fd5b63150b7a0260e01b7bffffffffffffffffffffffffffffffffffffffffffffffffffffffff1916817bffffffffffffffffffffffffffffffffffffffffffffffffffffffff191614915050612412565b600190505b949350505050565b600060019054906101000a900460ff1680612440575060008054906101000a900460ff16155b61247f576040517f08c379a00000000000000000000000000000000000000000000000000000000081526004016124769061345a565b60405180910390fd5b60008060019054906101000a900460ff1615905080156124cf576001600060016101000a81548160ff02191690831515021790555060016000806101000a81548160ff0219169083151502179055505b80156124f05760008060016101000a81548160ff0219169083151502179055505b50565b600060019054906101000a900460ff1680612519575060008054906101000a900460ff16155b612558576040517f08c379a000000000000000000000000000000000000000000000000000000000815260040161254f9061345a565b60405180910390fd5b60008060019054906101000a900460ff1615905080156125a8576001600060016101000a81548160ff02191690831515021790555060016000806101000a81548160ff0219169083151502179055505b80156125c95760008060016101000a81548160ff0219169083151502179055505b50565b600060019054906101000a900460ff16806125f2575060008054906101000a900460ff16155b612631576040517f08c379a00000000000000000000000000000000000000000000000000000000081526004016126289061345a565b60405180910390fd5b60008060019054906101000a900460ff161590508015612681576001600060016101000a81548160ff02191690831515021790555060016000806101000a81548160ff0219169083151502179055505b8260659080519060200190612697929190612798565b5081606690805190602001906126ae929190612798565b5080156126d05760008060016101000a81548160ff0219169083151502179055505b505050565b600080823b905060008111915050919050565b828054828255906000526020600020906007016008900481019282156127875791602002820160005b8382111561275557835183826101000a81548163ffffffff021916908363ffffffff1602179055509260200192600401602081600301049283019260010302612711565b80156127855782816101000a81549063ffffffff0219169055600401602081600301049283019260010302612755565b505b509050612794919061281e565b5090565b8280546127a490613883565b90600052602060002090601f0160209004810192826127c6576000855561280d565b82601f106127df57805160ff191683800117855561280d565b8280016001018555821561280d579182015b8281111561280c5782518255916020019190600101906127f1565b5b50905061281a919061281e565b5090565b5b8082111561283757600081600090555060010161281f565b5090565b600061284e612849846135de565b6135b9565b9050808382526020820190508285602086028201111561287157612870613a5a565b5b60005b858110156128a1578161288788826129f1565b845260208401935060208301925050600181019050612874565b5050509392505050565b60006128be6128b98461360a565b6135b9565b9050828152602081018484840111156128da576128d9613a5f565b5b6128e5848285613841565b509392505050565b6000813590506128fc81613f4f565b92915050565b600082601f83011261291757612916613a55565b5b813561292784826020860161283b565b91505092915050565b60008135905061293f81613f66565b92915050565b60008151905061295481613f66565b92915050565b60008135905061296981613f7d565b92915050565b60008151905061297e81613f7d565b92915050565b600082601f83011261299957612998613a55565b5b81356129a98482602086016128ab565b91505092915050565b6000813590506129c181613f94565b92915050565b6000813590506129d681613fab565b92915050565b6000815190506129eb81613fab565b92915050565b600081359050612a0081613fc2565b92915050565b600060208284031215612a1c57612a1b613a69565b5b6000612a2a848285016128ed565b91505092915050565b60008060408385031215612a4a57612a49613a69565b5b6000612a58858286016128ed565b9250506020612a69858286016128ed565b9150509250929050565b600080600060608486031215612a8c57612a8b613a69565b5b6000612a9a868287016128ed565b9350506020612aab868287016128ed565b9250506040612abc868287016129c7565b9150509250925092565b60008060008060808587031215612ae057612adf613a69565b5b6000612aee878288016128ed565b9450506020612aff878288016128ed565b9350506040612b10878288016129c7565b925050606085013567ffffffffffffffff811115612b3157612b30613a64565b5b612b3d87828801612984565b91505092959194509250565b60008060408385031215612b6057612b5f613a69565b5b6000612b6e858286016128ed565b9250506020612b7f85828601612930565b9150509250929050565b60008060408385031215612ba057612b9f613a69565b5b6000612bae858286016128ed565b9250506020612bbf858286016129c7565b9150509250929050565b600060208284031215612bdf57612bde613a69565b5b600082013567ffffffffffffffff811115612bfd57612bfc613a64565b5b612c0984828501612902565b91505092915050565b600060208284031215612c2857612c27613a69565b5b6000612c3684828501612945565b91505092915050565b600060208284031215612c5557612c54613a69565b5b6000612c638482850161295a565b91505092915050565b600060208284031215612c8257612c81613a69565b5b6000612c908482850161296f565b91505092915050565b600060208284031215612caf57612cae613a69565b5b6000612cbd848285016129b2565b91505092915050565b600060208284031215612cdc57612cdb613a69565b5b6000612cea848285016129c7565b91505092915050565b600060208284031215612d0957612d08613a69565b5b6000612d17848285016129dc565b91505092915050565b6000612d2c8383613143565b60208301905092915050565b6000612d448383613178565b60208301905092915050565b612d59816137ab565b82525050565b6000612d6a8261365b565b612d7481856136a1565b9350612d7f8361363b565b8060005b83811015612db0578151612d978882612d20565b9750612da283613687565b925050600181019050612d83565b5085935050505092915050565b6000612dc882613666565b612dd281856136b2565b9350612ddd8361364b565b8060005b83811015612e0e578151612df58882612d38565b9750612e0083613694565b925050600181019050612de1565b5085935050505092915050565b612e24816137bd565b82525050565b6000612e3582613671565b612e3f81856136c3565b9350612e4f818560208601613850565b612e5881613a6e565b840191505092915050565b6000612e6e8261367c565b612e7881856136d4565b9350612e88818560208601613850565b612e9181613a6e565b840191505092915050565b6000612ea78261367c565b612eb181856136e5565b9350612ec1818560208601613850565b80840191505092915050565b6000612eda6012836136d4565b9150612ee582613a7f565b602082019050919050565b6000612efd6032836136d4565b9150612f0882613aa8565b604082019050919050565b6000612f206026836136d4565b9150612f2b82613af7565b604082019050919050565b6000612f43601c836136d4565b9150612f4e82613b46565b602082019050919050565b6000612f666024836136d4565b9150612f7182613b6f565b604082019050919050565b6000612f896019836136d4565b9150612f9482613bbe565b602082019050919050565b6000612fac602c836136d4565b9150612fb782613be7565b604082019050919050565b6000612fcf6038836136d4565b9150612fda82613c36565b604082019050919050565b6000612ff2602a836136d4565b9150612ffd82613c85565b604082019050919050565b60006130156029836136d4565b915061302082613cd4565b604082019050919050565b6000613038602e836136d4565b915061304382613d23565b604082019050919050565b600061305b6020836136d4565b915061306682613d72565b602082019050919050565b600061307e602c836136d4565b915061308982613d9b565b604082019050919050565b60006130a16020836136d4565b91506130ac82613dea565b602082019050919050565b60006130c46029836136d4565b91506130cf82613e13565b604082019050919050565b60006130e7602f836136d4565b91506130f282613e62565b604082019050919050565b600061310a6021836136d4565b915061311582613eb1565b604082019050919050565b600061312d6031836136d4565b915061313882613f00565b604082019050919050565b61314c81613827565b82525050565b61315b81613827565b82525050565b61317261316d82613827565b61392f565b82525050565b61318181613831565b82525050565b61319081613831565b82525050565b60006131a28285612e9c565b91506131ae8284612e9c565b91508190509392505050565b60006131c68285613161565b6020820191506131d68284613161565b6020820191508190509392505050565b60006020820190506131fb6000830184612d50565b92915050565b60006060820190506132166000830186612d50565b6132236020830185612d50565b6132306040830184613152565b949350505050565b600060808201905061324d6000830187612d50565b61325a6020830186612d50565b6132676040830185613152565b81810360608301526132798184612e2a565b905095945050505050565b6000604082019050818103600083015261329e8185612d5f565b905081810360208301526132b28184612dbd565b90509392505050565b600060208201905081810360008301526132d58184612dbd565b905092915050565b60006020820190506132f26000830184612e1b565b92915050565b600060208201905081810360008301526133128184612e63565b905092915050565b6000602082019050818103600083015261333381612ecd565b9050919050565b6000602082019050818103600083015261335381612ef0565b9050919050565b6000602082019050818103600083015261337381612f13565b9050919050565b6000602082019050818103600083015261339381612f36565b9050919050565b600060208201905081810360008301526133b381612f59565b9050919050565b600060208201905081810360008301526133d381612f7c565b9050919050565b600060208201905081810360008301526133f381612f9f565b9050919050565b6000602082019050818103600083015261341381612fc2565b9050919050565b6000602082019050818103600083015261343381612fe5565b9050919050565b6000602082019050818103600083015261345381613008565b9050919050565b600060208201905081810360008301526134738161302b565b9050919050565b600060208201905081810360008301526134938161304e565b9050919050565b600060208201905081810360008301526134b381613071565b9050919050565b600060208201905081810360008301526134d381613094565b9050919050565b600060208201905081810360008301526134f3816130b7565b9050919050565b60006020820190508181036000830152613513816130da565b9050919050565b60006020820190508181036000830152613533816130fd565b9050919050565b6000602082019050818103600083015261355381613120565b9050919050565b600060208201905061356f6000830184613152565b92915050565b600060408201905061358a6000830185613152565b6135976020830184613187565b9392505050565b60006020820190506135b36000830184613187565b92915050565b60006135c36135d4565b90506135cf82826138b5565b919050565b6000604051905090565b600067ffffffffffffffff8211156135f9576135f8613a26565b5b602082029050602081019050919050565b600067ffffffffffffffff82111561362557613624613a26565b5b61362e82613a6e565b9050602081019050919050565b6000819050602082019050919050565b6000819050602082019050919050565b600081519050919050565b600081519050919050565b600081519050919050565b600081519050919050565b6000602082019050919050565b6000602082019050919050565b600082825260208201905092915050565b600082825260208201905092915050565b600082825260208201905092915050565b600082825260208201905092915050565b600081905092915050565b60006136fb82613827565b915061370683613827565b9250827fffffffffffffffffffffffffffffffffffffffffffffffffffffffffffffffff0382111561373b5761373a61396a565b5b828201905092915050565b600061375182613827565b915061375c83613827565b92508261376c5761376b613999565b5b828204905092915050565b600061378282613827565b915061378d83613827565b9250828210156137a05761379f61396a565b5b828203905092915050565b60006137b682613807565b9050919050565b60008115159050919050565b60007fffffffff0000000000000000000000000000000000000000000000000000000082169050919050565b6000613800826137ab565b9050919050565b600073ffffffffffffffffffffffffffffffffffffffff82169050919050565b6000819050919050565b600063ffffffff82169050919050565b82818337600083830152505050565b60005b8381101561386e578082015181840152602081019050613853565b8381111561387d576000848401525b50505050565b6000600282049050600182168061389b57607f821691505b602082108114156138af576138ae6139c8565b5b50919050565b6138be82613a6e565b810181811067ffffffffffffffff821117156138dd576138dc613a26565b5b80604052505050565b60006138f182613827565b91507fffffffffffffffffffffffffffffffffffffffffffffffffffffffffffffffff8214156139245761392361396a565b5b600182019050919050565b6000819050919050565b600061394482613827565b915061394f83613827565b92508261395f5761395e613999565b5b828206905092915050565b7f4e487b7100000000000000000000000000000000000000000000000000000000600052601160045260246000fd5b7f4e487b7100000000000000000000000000000000000000000000000000000000600052601260045260246000fd5b7f4e487b7100000000000000000000000000000000000000000000000000000000600052602260045260246000fd5b7f4e487b7100000000000000000000000000000000000000000000000000000000600052603260045260246000fd5b7f4e487b7100000000000000000000000000000000000000000000000000000000600052604160045260246000fd5b600080fd5b600080fd5b600080fd5b600080fd5b600080fd5b6000601f19601f8301169050919050565b7f62616c616e6365203c2072657175697265640000000000000000000000000000600082015250565b7f4552433732313a207472616e7366657220746f206e6f6e20455243373231526560008201527f63656976657220696d706c656d656e7465720000000000000000000000000000602082015250565b7f4f776e61626c653a206e6577206f776e657220697320746865207a65726f206160008201527f6464726573730000000000000000000000000000000000000000000000000000602082015250565b7f4552433732313a20746f6b656e20616c7265616479206d696e74656400000000600082015250565b7f4552433732313a207472616e7366657220746f20746865207a65726f2061646460008201527f7265737300000000000000000000000000000000000000000000000000000000602082015250565b7f4552433732313a20617070726f766520746f2063616c6c657200000000000000600082015250565b7f4552433732313a206f70657261746f7220717565727920666f72206e6f6e657860008201527f697374656e7420746f6b656e0000000000000000000000000000000000000000602082015250565b7f4552433732313a20617070726f76652063616c6c6572206973206e6f74206f7760008201527f6e6572206e6f7220617070726f76656420666f7220616c6c0000000000000000602082015250565b7f4552433732313a2062616c616e636520717565727920666f7220746865207a6560008201527f726f206164647265737300000000000000000000000000000000000000000000602082015250565b7f4552433732313a206f776e657220717565727920666f72206e6f6e657869737460008201527f656e7420746f6b656e0000000000000000000000000000000000000000000000602082015250565b7f496e697469616c697a61626c653a20636f6e747261637420697320616c72656160008201527f647920696e697469616c697a6564000000000000000000000000000000000000602082015250565b7f4552433732313a206d696e7420746f20746865207a65726f2061646472657373600082015250565b7f4552433732313a20617070726f76656420717565727920666f72206e6f6e657860008201527f697374656e7420746f6b656e0000000000000000000000000000000000000000602082015250565b7f4f776e61626c653a2063616c6c6572206973206e6f7420746865206f776e6572600082015250565b7f4552433732313a207472616e73666572206f6620746f6b656e2074686174206960008201527f73206e6f74206f776e0000000000000000000000000000000000000000000000602082015250565b7f4552433732314d657461646174613a2055524920717565727920666f72206e6f60008201527f6e6578697374656e7420746f6b656e0000000000000000000000000000000000602082015250565b7f4552433732313a20617070726f76616c20746f2063757272656e74206f776e6560008201527f7200000000000000000000000000000000000000000000000000000000000000602082015250565b7f4552433732313a207472616e736665722063616c6c6572206973206e6f74206f60008201527f776e6572206e6f7220617070726f766564000000000000000000000000000000602082015250565b613f58816137ab565b8114613f6357600080fd5b50565b613f6f816137bd565b8114613f7a57600080fd5b50565b613f86816137c9565b8114613f9157600080fd5b50565b613f9d816137f5565b8114613fa857600080fd5b50565b613fb481613827565b8114613fbf57600080fd5b50565b613fcb81613831565b8114613fd657600080fd5b5056fea26469706673582212208724ca1cec31d4ec2e5b6600a55ab79603f4b225753d7fd281fa5e076ab83f1b64736f6c63430008070033",
  "immutableReferences": {},
  "source": "// SPDX-License-Identifier: MIT\r\npragma solidity ^0.8.0;\r\n\r\nimport \"@openzeppelin/contracts-upgradeable/token/ERC721/ERC721Upgradeable.sol\";\r\nimport \"@openzeppelin/contracts-upgradeable/access/OwnableUpgradeable.sol\";\r\nimport \"./Diamond.sol\";\r\n\r\n/** / */\r\ncontract NftPlayerV2 is ERC721Upgradeable,OwnableUpgradeable {\r\n\r\n    Diamond diamondInstance;\r\n\r\n    //tokenID\r\n    uint256 private countor;\r\n    //\r\n    uint32[] private playerPool;\r\n    // tokenId => player_id\r\n    mapping(uint256 => uint32) public cardDB;\r\n    //tokens\r\n    mapping(address => uint256[]) private tokenDB;\r\n\r\n\r\n    function initialize(Diamond _diamondInstance) public initializer {\r\n        __ERC721_init(\"FM Token Card\", \"FMC\");\r\n        diamondInstance = _diamondInstance;\r\n        playerPool = [2080103,15802303,17658003,16749503,19087103,18854503,18327703,19298503,19308003,18252103];\r\n    }\r\n\r\n    /**  */\r\n    function setPlayerPool(uint32[] memory) public onlyOwner {}\r\n\r\n    /**  */\r\n    function getPlayerPool() public view returns (uint32[] memory) {\r\n        uint32[] memory pool = new uint32[](playerPool.length);\r\n        for (uint i=0; i<playerPool.length; i++) {\r\n            pool[i] = playerPool[i];\r\n        }\r\n        return pool;\r\n    }\r\n\r\n    /**  */\r\n    function createCard() public payable {\r\n        uint256 cost = 1;\r\n        require(\r\n            diamondInstance.balanceOf(msg.sender) >= cost,\r\n            \"balance < required\"\r\n        );\r\n        diamondInstance.transferFrom(msg.sender, address(diamondInstance), cost);\r\n\r\n        uint256 _tokenId = ++countor;\r\n\r\n        //\r\n        uint32 _index = rand(playerPool.length);\r\n        uint32 _player_id = playerPool[_index];\r\n        cardDB[_tokenId] = _player_id;\r\n\r\n        //token\r\n        address _addr = msg.sender;\r\n        tokenDB[_addr].push(_tokenId);\r\n\r\n        super._mint(msg.sender, _tokenId);\r\n        emit createCardEvent(_tokenId, _player_id);\r\n    }\r\n\r\n    /**  */\r\n    function getMyCards(address _addr) public view returns ( uint256[] memory, uint32[] memory) {\r\n        uint256[] memory _tokens = tokenDB[_addr];\r\n        uint32[] memory _player_ids = new uint32[](_tokens.length);\r\n\r\n        if (_tokens.length > 0) {\r\n            for (uint i=0; i<_tokens.length; i++) {\r\n                uint256 _tokenId = _tokens[i];\r\n                uint32  _player_id = cardDB[ _tokenId ];\r\n                _player_ids[i] = _player_id;\r\n            }\r\n        }\r\n\r\n        return (_tokens, _player_ids);\r\n    }\r\n\r\n    function rand(uint256 _length) private view returns(uint32) {\r\n        uint256 random = uint256(keccak256(abi.encodePacked(block.difficulty, block.timestamp)));\r\n        return uint32(random % _length);\r\n    }\r\n\r\n    event createCardEvent(uint256 token, uint32 player_id);\r\n}",
  "sourcePath": "D:\\solidity\\sol-test1\\contracts\\NftPlayerV2.sol",
  "compiler": {
    "name": "solc",
    "version": "0.8.7+commit.e28d00a7.Emscripten.clang"
  },
  "schemaVersion": "3.4.3",
  "updatedAt": "2021-09-30T07:19:17.892Z",
  "devdoc": {
    "kind": "dev",
    "methods": {
      "approve(address,uint256)": {
        "details": "See {IERC721-approve}."
      },
      "balanceOf(address)": {
        "details": "See {IERC721-balanceOf}."
      },
      "getApproved(uint256)": {
        "details": "See {IERC721-getApproved}."
      },
      "isApprovedForAll(address,address)": {
        "details": "See {IERC721-isApprovedForAll}."
      },
      "name()": {
        "details": "See {IERC721Metadata-name}."
      },
      "owner()": {
        "details": "Returns the address of the current owner."
      },
      "ownerOf(uint256)": {
        "details": "See {IERC721-ownerOf}."
      },
      "renounceOwnership()": {
        "details": "Leaves the contract without owner. It will not be possible to call `onlyOwner` functions anymore. Can only be called by the current owner. NOTE: Renouncing ownership will leave the contract without an owner, thereby removing any functionality that is only available to the owner."
      },
      "safeTransferFrom(address,address,uint256)": {
        "details": "See {IERC721-safeTransferFrom}."
      },
      "safeTransferFrom(address,address,uint256,bytes)": {
        "details": "See {IERC721-safeTransferFrom}."
      },
      "setApprovalForAll(address,bool)": {
        "details": "See {IERC721-setApprovalForAll}."
      },
      "supportsInterface(bytes4)": {
        "details": "See {IERC165-supportsInterface}."
      },
      "symbol()": {
        "details": "See {IERC721Metadata-symbol}."
      },
      "tokenURI(uint256)": {
        "details": "See {IERC721Metadata-tokenURI}."
      },
      "transferFrom(address,address,uint256)": {
        "details": "See {IERC721-transferFrom}."
      },
      "transferOwnership(address)": {
        "details": "Transfers ownership of the contract to a new account (`newOwner`). Can only be called by the current owner."
      }
    },
    "version": 1
  },
  "userdoc": {
    "kind": "user",
    "methods": {
      "createCard()": {
        "notice": " "
      },
      "getMyCards(address)": {
        "notice": " "
      },
      "getPlayerPool()": {
        "notice": " "
      },
      "setPlayerPool(uint32[])": {
        "notice": " "
      }
    },
    "notice": "/ ",
    "version": 1
  }
}