{
  "contractName": "NftPlayer",
  "abi": [
    {
      "anonymous": false,
      "inputs": [
        {
          "indexed": true,
          "internalType": "address",
          "name": "owner",
          "type": "address"
        },
        {
          "indexed": true,
          "internalType": "address",
          "name": "approved",
          "type": "address"
        },
        {
          "indexed": true,
          "internalType": "uint256",
          "name": "tokenId",
          "type": "uint256"
        }
      ],
      "name": "Approval",
      "type": "event"
    },
    {
      "anonymous": false,
      "inputs": [
        {
          "indexed": true,
          "internalType": "address",
          "name": "owner",
          "type": "address"
        },
        {
          "indexed": true,
          "internalType": "address",
          "name": "operator",
          "type": "address"
        },
        {
          "indexed": false,
          "internalType": "bool",
          "name": "approved",
          "type": "bool"
        }
      ],
      "name": "ApprovalForAll",
      "type": "event"
    },
    {
      "anonymous": false,
      "inputs": [
        {
          "indexed": true,
          "internalType": "address",
          "name": "previousOwner",
          "type": "address"
        },
        {
          "indexed": true,
          "internalType": "address",
          "name": "newOwner",
          "type": "address"
        }
      ],
      "name": "OwnershipTransferred",
      "type": "event"
    },
    {
      "anonymous": false,
      "inputs": [
        {
          "indexed": true,
          "internalType": "address",
          "name": "from",
          "type": "address"
        },
        {
          "indexed": true,
          "internalType": "address",
          "name": "to",
          "type": "address"
        },
        {
          "indexed": true,
          "internalType": "uint256",
          "name": "tokenId",
          "type": "uint256"
        }
      ],
      "name": "Transfer",
      "type": "event"
    },
    {
      "anonymous": false,
      "inputs": [
        {
          "indexed": false,
          "internalType": "uint256",
          "name": "token",
          "type": "uint256"
        },
        {
          "indexed": false,
          "internalType": "uint32",
          "name": "player_id",
          "type": "uint32"
        }
      ],
      "name": "createCardEvent",
      "type": "event"
    },
    {
      "inputs": [
        {
          "internalType": "address",
          "name": "to",
          "type": "address"
        },
        {
          "internalType": "uint256",
          "name": "tokenId",
          "type": "uint256"
        }
      ],
      "name": "approve",
      "outputs": [],
      "stateMutability": "nonpayable",
      "type": "function"
    },
    {
      "inputs": [
        {
          "internalType": "address",
          "name": "owner",
          "type": "address"
        }
      ],
      "name": "balanceOf",
      "outputs": [
        {
          "internalType": "uint256",
          "name": "",
          "type": "uint256"
        }
      ],
      "stateMutability": "view",
      "type": "function"
    },
    {
      "inputs": [
        {
          "internalType": "uint256",
          "name": "",
          "type": "uint256"
        }
      ],
      "name": "cardDB",
      "outputs": [
        {
          "internalType": "uint32",
          "name": "",
          "type": "uint32"
        }
      ],
      "stateMutability": "view",
      "type": "function"
    },
    {
      "inputs": [
        {
          "internalType": "uint256",
          "name": "tokenId",
          "type": "uint256"
        }
      ],
      "name": "getApproved",
      "outputs": [
        {
          "internalType": "address",
          "name": "",
          "type": "address"
        }
      ],
      "stateMutability": "view",
      "type": "function"
    },
    {
      "inputs": [
        {
          "internalType": "address",
          "name": "owner",
          "type": "address"
        },
        {
          "internalType": "address",
          "name": "operator",
          "type": "address"
        }
      ],
      "name": "isApprovedForAll",
      "outputs": [
        {
          "internalType": "bool",
          "name": "",
          "type": "bool"
        }
      ],
      "stateMutability": "view",
      "type": "function"
    },
    {
      "inputs": [],
      "name": "name",
      "outputs": [
        {
          "internalType": "string",
          "name": "",
          "type": "string"
        }
      ],
      "stateMutability": "view",
      "type": "function"
    },
    {
      "inputs": [],
      "name": "owner",
      "outputs": [
        {
          "internalType": "address",
          "name": "",
          "type": "address"
        }
      ],
      "stateMutability": "view",
      "type": "function"
    },
    {
      "inputs": [
        {
          "internalType": "uint256",
          "name": "tokenId",
          "type": "uint256"
        }
      ],
      "name": "ownerOf",
      "outputs": [
        {
          "internalType": "address",
          "name": "",
          "type": "address"
        }
      ],
      "stateMutability": "view",
      "type": "function"
    },
    {
      "inputs": [],
      "name": "renounceOwnership",
      "outputs": [],
      "stateMutability": "nonpayable",
      "type": "function"
    },
    {
      "inputs": [
        {
          "internalType": "address",
          "name": "from",
          "type": "address"
        },
        {
          "internalType": "address",
          "name": "to",
          "type": "address"
        },
        {
          "internalType": "uint256",
          "name": "tokenId",
          "type": "uint256"
        }
      ],
      "name": "safeTransferFrom",
      "outputs": [],
      "stateMutability": "nonpayable",
      "type": "function"
    },
    {
      "inputs": [
        {
          "internalType": "address",
          "name": "from",
          "type": "address"
        },
        {
          "internalType": "address",
          "name": "to",
          "type": "address"
        },
        {
          "internalType": "uint256",
          "name": "tokenId",
          "type": "uint256"
        },
        {
          "internalType": "bytes",
          "name": "_data",
          "type": "bytes"
        }
      ],
      "name": "safeTransferFrom",
      "outputs": [],
      "stateMutability": "nonpayable",
      "type": "function"
    },
    {
      "inputs": [
        {
          "internalType": "address",
          "name": "operator",
          "type": "address"
        },
        {
          "internalType": "bool",
          "name": "approved",
          "type": "bool"
        }
      ],
      "name": "setApprovalForAll",
      "outputs": [],
      "stateMutability": "nonpayable",
      "type": "function"
    },
    {
      "inputs": [
        {
          "internalType": "bytes4",
          "name": "interfaceId",
          "type": "bytes4"
        }
      ],
      "name": "supportsInterface",
      "outputs": [
        {
          "internalType": "bool",
          "name": "",
          "type": "bool"
        }
      ],
      "stateMutability": "view",
      "type": "function"
    },
    {
      "inputs": [],
      "name": "symbol",
      "outputs": [
        {
          "internalType": "string",
          "name": "",
          "type": "string"
        }
      ],
      "stateMutability": "view",
      "type": "function"
    },
    {
      "inputs": [
        {
          "internalType": "uint256",
          "name": "tokenId",
          "type": "uint256"
        }
      ],
      "name": "tokenURI",
      "outputs": [
        {
          "internalType": "string",
          "name": "",
          "type": "string"
        }
      ],
      "stateMutability": "view",
      "type": "function"
    },
    {
      "inputs": [
        {
          "internalType": "address",
          "name": "from",
          "type": "address"
        },
        {
          "internalType": "address",
          "name": "to",
          "type": "address"
        },
        {
          "internalType": "uint256",
          "name": "tokenId",
          "type": "uint256"
        }
      ],
      "name": "transferFrom",
      "outputs": [],
      "stateMutability": "nonpayable",
      "type": "function"
    },
    {
      "inputs": [
        {
          "internalType": "address",
          "name": "newOwner",
          "type": "address"
        }
      ],
      "name": "transferOwnership",
      "outputs": [],
      "stateMutability": "nonpayable",
      "type": "function"
    },
    {
      "inputs": [
        {
          "internalType": "contract Diamond",
          "name": "_diamondInstance",
          "type": "address"
        }
      ],
      "name": "initialize",
      "outputs": [],
      "stateMutability": "nonpayable",
      "type": "function"
    },
    {
      "inputs": [
        {
          "internalType": "uint32[]",
          "name": "",
          "type": "uint32[]"
        }
      ],
      "name": "setPlayerPool",
      "outputs": [],
      "stateMutability": "nonpayable",
      "type": "function"
    },
    {
      "inputs": [],
      "name": "getPlayerPool",
      "outputs": [
        {
          "internalType": "uint32[]",
          "name": "",
          "type": "uint32[]"
        }
      ],
      "stateMutability": "view",
      "type": "function"
    },
    {
      "inputs": [],
      "name": "createCard",
      "outputs": [],
      "stateMutability": "payable",
      "type": "function"
    },
    {
      "inputs": [
        {
          "internalType": "address",
          "name": "_addr",
          "type": "address"
        }
      ],
      "name": "getMyCards",
      "outputs": [
        {
          "internalType": "uint256[]",
          "name": "",
          "type": "uint256[]"
        },
        {
          "internalType": "uint32[]",
          "name": "",
          "type": "uint32[]"
        }
      ],
      "stateMutability": "view",
      "type": "function"
    }
  ],
  "bytecode": "0x608060405234801561001057600080fd5b50613f84806100206000396000f3fe6080604052600436106101355760003560e01c80637f63fd3b116100ab578063a2d256fa1161006f578063a2d256fa14610439578063b88d4fde14610443578063c4d66de81461046c578063c87b56dd14610495578063e985e9c5146104d2578063f2fde38b1461050f57610135565b80637f63fd3b146103525780638da5cb5b1461037d57806395d89b41146103a8578063a00f6d76146103d3578063a22cb4651461041057610135565b806337983aed116100fd57806337983aed1461023157806342842e0e1461026f5780636352211e1461029857806366ea03a8146102d557806370a08231146102fe578063715018a61461033b57610135565b806301ffc9a71461013a57806306fdde0314610177578063081812fc146101a2578063095ea7b3146101df57806323b872dd14610208575b600080fd5b34801561014657600080fd5b50610161600480360381019061015c9190612bb4565b610538565b60405161016e9190613252565b60405180910390f35b34801561018357600080fd5b5061018c61061a565b604051610199919061326d565b60405180910390f35b3480156101ae57600080fd5b506101c960048036038101906101c49190612c3b565b6106ac565b6040516101d6919061315b565b60405180910390f35b3480156101eb57600080fd5b5061020660048036038101906102019190612afe565b610731565b005b34801561021457600080fd5b5061022f600480360381019061022a91906129e8565b610849565b005b34801561023d57600080fd5b506102586004803603810190610253919061297b565b6108a9565b6040516102669291906131f9565b60405180910390f35b34801561027b57600080fd5b50610296600480360381019061029191906129e8565b610a3b565b005b3480156102a457600080fd5b506102bf60048036038101906102ba9190612c3b565b610a5b565b6040516102cc919061315b565b60405180910390f35b3480156102e157600080fd5b506102fc60048036038101906102f79190612b3e565b610b0d565b005b34801561030a57600080fd5b506103256004803603810190610320919061297b565b610b8c565b60405161033291906134cf565b60405180910390f35b34801561034757600080fd5b50610350610c44565b005b34801561035e57600080fd5b50610367610ccc565b6040516103749190613230565b60405180910390f35b34801561038957600080fd5b50610392610d27565b60405161039f919061315b565b60405180910390f35b3480156103b457600080fd5b506103bd610d51565b6040516103ca919061326d565b60405180910390f35b3480156103df57600080fd5b506103fa60048036038101906103f59190612c3b565b610de3565b6040516104079190613513565b60405180910390f35b34801561041c57600080fd5b5061043760048036038101906104329190612abe565b610e06565b005b610441610f87565b005b34801561044f57600080fd5b5061046a60048036038101906104659190612a3b565b6112a4565b005b34801561047857600080fd5b50610493600480360381019061048e9190612c0e565b611306565b005b3480156104a157600080fd5b506104bc60048036038101906104b79190612c3b565b61154d565b6040516104c9919061326d565b60405180910390f35b3480156104de57600080fd5b506104f960048036038101906104f491906129a8565b6115f4565b6040516105069190613252565b60405180910390f35b34801561051b57600080fd5b506105366004803603810190610531919061297b565b611688565b005b60007f80ac58cd000000000000000000000000000000000000000000000000000000007bffffffffffffffffffffffffffffffffffffffffffffffffffffffff1916827bffffffffffffffffffffffffffffffffffffffffffffffffffffffff1916148061060357507f5b5e139f000000000000000000000000000000000000000000000000000000007bffffffffffffffffffffffffffffffffffffffffffffffffffffffff1916827bffffffffffffffffffffffffffffffffffffffffffffffffffffffff1916145b80610613575061061282611780565b5b9050919050565b606060658054610629906137f8565b80601f0160208091040260200160405190810160405280929190818152602001828054610655906137f8565b80156106a25780601f10610677576101008083540402835291602001916106a2565b820191906000526020600020905b81548152906001019060200180831161068557829003601f168201915b5050505050905090565b60006106b7826117ea565b6106f6576040517f08c379a00000000000000000000000000000000000000000000000000000000081526004016106ed9061340f565b60405180910390fd5b6069600083815260200190815260200160002060009054906101000a900473ffffffffffffffffffffffffffffffffffffffff169050919050565b600061073c82610a5b565b90508073ffffffffffffffffffffffffffffffffffffffff168373ffffffffffffffffffffffffffffffffffffffff1614156107ad576040517f08c379a00000000000000000000000000000000000000000000000000000000081526004016107a49061348f565b60405180910390fd5b8073ffffffffffffffffffffffffffffffffffffffff166107cc611856565b73ffffffffffffffffffffffffffffffffffffffff1614806107fb57506107fa816107f5611856565b6115f4565b5b61083a576040517f08c379a00000000000000000000000000000000000000000000000000000000081526004016108319061336f565b60405180910390fd5b610844838361185e565b505050565b61085a610854611856565b82611917565b610899576040517f08c379a0000000000000000000000000000000000000000000000000000000008152600401610890906134af565b60405180910390fd5b6108a48383836119f5565b505050565b606080600060cd60008573ffffffffffffffffffffffffffffffffffffffff1673ffffffffffffffffffffffffffffffffffffffff16815260200190815260200160002080548060200260200160405190810160405280929190818152602001828054801561093757602002820191906000526020600020905b815481526020019060010190808311610923575b505050505090506000815167ffffffffffffffff81111561095b5761095a61399b565b5b6040519080825280602002602001820160405280156109895781602001602082028036833780820191505090505b509050600082511115610a2e5760005b8251811015610a2c5760008382815181106109b7576109b661396c565b5b60200260200101519050600060cc600083815260200190815260200160002060009054906101000a900463ffffffff169050808484815181106109fd576109fc61396c565b5b602002602001019063ffffffff16908163ffffffff168152505050508080610a249061385b565b915050610999565b505b8181935093505050915091565b610a56838383604051806020016040528060008152506112a4565b505050565b6000806067600084815260200190815260200160002060009054906101000a900473ffffffffffffffffffffffffffffffffffffffff169050600073ffffffffffffffffffffffffffffffffffffffff168173ffffffffffffffffffffffffffffffffffffffff161415610b04576040517f08c379a0000000000000000000000000000000000000000000000000000000008152600401610afb906133af565b60405180910390fd5b80915050919050565b610b15611856565b73ffffffffffffffffffffffffffffffffffffffff16610b33610d27565b73ffffffffffffffffffffffffffffffffffffffff1614610b89576040517f08c379a0000000000000000000000000000000000000000000000000000000008152600401610b809061342f565b60405180910390fd5b50565b60008073ffffffffffffffffffffffffffffffffffffffff168273ffffffffffffffffffffffffffffffffffffffff161415610bfd576040517f08c379a0000000000000000000000000000000000000000000000000000000008152600401610bf49061338f565b60405180910390fd5b606860008373ffffffffffffffffffffffffffffffffffffffff1673ffffffffffffffffffffffffffffffffffffffff168152602001908152602001600020549050919050565b610c4c611856565b73ffffffffffffffffffffffffffffffffffffffff16610c6a610d27565b73ffffffffffffffffffffffffffffffffffffffff1614610cc0576040517f08c379a0000000000000000000000000000000000000000000000000000000008152600401610cb79061342f565b60405180910390fd5b610cca6000611c51565b565b6060600060cb8054905067ffffffffffffffff811115610cef57610cee61399b565b5b604051908082528060200260200182016040528015610d1d5781602001602082028036833780820191505090505b5090508091505090565b6000609760009054906101000a900473ffffffffffffffffffffffffffffffffffffffff16905090565b606060668054610d60906137f8565b80601f0160208091040260200160405190810160405280929190818152602001828054610d8c906137f8565b8015610dd95780601f10610dae57610100808354040283529160200191610dd9565b820191906000526020600020905b815481529060010190602001808311610dbc57829003601f168201915b5050505050905090565b60cc6020528060005260406000206000915054906101000a900463ffffffff1681565b610e0e611856565b73ffffffffffffffffffffffffffffffffffffffff168273ffffffffffffffffffffffffffffffffffffffff161415610e7c576040517f08c379a0000000000000000000000000000000000000000000000000000000008152600401610e739061332f565b60405180910390fd5b80606a6000610e89611856565b73ffffffffffffffffffffffffffffffffffffffff1673ffffffffffffffffffffffffffffffffffffffff16815260200190815260200160002060008473ffffffffffffffffffffffffffffffffffffffff1673ffffffffffffffffffffffffffffffffffffffff16815260200190815260200160002060006101000a81548160ff0219169083151502179055508173ffffffffffffffffffffffffffffffffffffffff16610f36611856565b73ffffffffffffffffffffffffffffffffffffffff167f17307eab39ab6107e8899845ad3d59bd9653f200f220920489ca2b5937696c3183604051610f7b9190613252565b60405180910390a35050565b6000600190508060c960009054906101000a900473ffffffffffffffffffffffffffffffffffffffff1673ffffffffffffffffffffffffffffffffffffffff166370a08231336040518263ffffffff1660e01b8152600401610fe9919061315b565b60206040518083038186803b15801561100157600080fd5b505afa158015611015573d6000803e3d6000fd5b505050506040513d601f19601f820116820180604052508101906110399190612c68565b101561107a576040517f08c379a00000000000000000000000000000000000000000000000000000000081526004016110719061328f565b60405180910390fd5b60c960009054906101000a900473ffffffffffffffffffffffffffffffffffffffff1673ffffffffffffffffffffffffffffffffffffffff166323b872dd3360c960009054906101000a900473ffffffffffffffffffffffffffffffffffffffff16846040518463ffffffff1660e01b81526004016110fb93929190613176565b602060405180830381600087803b15801561111557600080fd5b505af1158015611129573d6000803e3d6000fd5b505050506040513d601f19601f8201168201806040525081019061114d9190612b87565b50600060ca6000815461115f9061385b565b9190508190559050600061117760cb80549050611d17565b9050600060cb8263ffffffff16815481106111955761119461396c565b5b90600052602060002090600891828204019190066004029054906101000a900463ffffffff1690508060cc600085815260200190815260200160002060006101000a81548163ffffffff021916908363ffffffff160217905550600033905060cd60008273ffffffffffffffffffffffffffffffffffffffff1673ffffffffffffffffffffffffffffffffffffffff1681526020019081526020016000208490806001815401808255809150506001900390600052602060002001600090919091909150556112643385611d5c565b7fd0914a6950c93bc7cbd3d399e1a012b25c869d62d90fa63d7cd149113f47554384836040516112959291906134ea565b60405180910390a15050505050565b6112b56112af611856565b83611917565b6112f4576040517f08c379a00000000000000000000000000000000000000000000000000000000081526004016112eb906134af565b60405180910390fd5b61130084848484611f2a565b50505050565b600060019054906101000a900460ff168061132c575060008054906101000a900460ff16155b61136b576040517f08c379a0000000000000000000000000000000000000000000000000000000008152600401611362906133cf565b60405180910390fd5b60008060019054906101000a900460ff1615905080156113bb576001600060016101000a81548160ff02191690831515021790555060016000806101000a81548160ff0219169083151502179055505b61142f6040518060400160405280600d81526020017f464d20546f6b656e2043617264000000000000000000000000000000000000008152506040518060400160405280600381526020017f464d430000000000000000000000000000000000000000000000000000000000815250611f86565b8160c960006101000a81548173ffffffffffffffffffffffffffffffffffffffff021916908373ffffffffffffffffffffffffffffffffffffffff160217905550604051806101400160405280621fbd6763ffffffff16815260200162f11fbf63ffffffff16815260200163010d709363ffffffff16815260200162ff93bf63ffffffff1681526020016301233eff63ffffffff16815260200163011fb26763ffffffff168152602001630117a89763ffffffff16815260200163012678c763ffffffff1681526020016301269de363ffffffff168152602001630116814763ffffffff1681525060cb90600a61152792919061265d565b5080156115495760008060016101000a81548160ff0219169083151502179055505b5050565b6060611558826117ea565b611597576040517f08c379a000000000000000000000000000000000000000000000000000000000815260040161158e9061346f565b60405180910390fd5b60006115a161207b565b905060008151116115c157604051806020016040528060008152506115ec565b806115cb84612092565b6040516020016115dc92919061310b565b6040516020818303038152906040525b915050919050565b6000606a60008473ffffffffffffffffffffffffffffffffffffffff1673ffffffffffffffffffffffffffffffffffffffff16815260200190815260200160002060008373ffffffffffffffffffffffffffffffffffffffff1673ffffffffffffffffffffffffffffffffffffffff16815260200190815260200160002060009054906101000a900460ff16905092915050565b611690611856565b73ffffffffffffffffffffffffffffffffffffffff166116ae610d27565b73ffffffffffffffffffffffffffffffffffffffff1614611704576040517f08c379a00000000000000000000000000000000000000000000000000000000081526004016116fb9061342f565b60405180910390fd5b600073ffffffffffffffffffffffffffffffffffffffff168173ffffffffffffffffffffffffffffffffffffffff161415611774576040517f08c379a000000000000000000000000000000000000000000000000000000000815260040161176b906132cf565b60405180910390fd5b61177d81611c51565b50565b60007f01ffc9a7000000000000000000000000000000000000000000000000000000007bffffffffffffffffffffffffffffffffffffffffffffffffffffffff1916827bffffffffffffffffffffffffffffffffffffffffffffffffffffffff1916149050919050565b60008073ffffffffffffffffffffffffffffffffffffffff166067600084815260200190815260200160002060009054906101000a900473ffffffffffffffffffffffffffffffffffffffff1673ffffffffffffffffffffffffffffffffffffffff1614159050919050565b600033905090565b816069600083815260200190815260200160002060006101000a81548173ffffffffffffffffffffffffffffffffffffffff021916908373ffffffffffffffffffffffffffffffffffffffff160217905550808273ffffffffffffffffffffffffffffffffffffffff166118d183610a5b565b73ffffffffffffffffffffffffffffffffffffffff167f8c5be1e5ebec7d5bd14f71427d1e84f3dd0314c0f7b2291e5b200ac8c7c3b92560405160405180910390a45050565b6000611922826117ea565b611961576040517f08c379a00000000000000000000000000000000000000000000000000000000081526004016119589061334f565b60405180910390fd5b600061196c83610a5b565b90508073ffffffffffffffffffffffffffffffffffffffff168473ffffffffffffffffffffffffffffffffffffffff1614806119db57508373ffffffffffffffffffffffffffffffffffffffff166119c3846106ac565b73ffffffffffffffffffffffffffffffffffffffff16145b806119ec57506119eb81856115f4565b5b91505092915050565b8273ffffffffffffffffffffffffffffffffffffffff16611a1582610a5b565b73ffffffffffffffffffffffffffffffffffffffff1614611a6b576040517f08c379a0000000000000000000000000000000000000000000000000000000008152600401611a629061344f565b60405180910390fd5b600073ffffffffffffffffffffffffffffffffffffffff168273ffffffffffffffffffffffffffffffffffffffff161415611adb576040517f08c379a0000000000000000000000000000000000000000000000000000000008152600401611ad29061330f565b60405180910390fd5b611ae68383836121f3565b611af160008261185e565b6001606860008573ffffffffffffffffffffffffffffffffffffffff1673ffffffffffffffffffffffffffffffffffffffff1681526020019081526020016000206000828254611b4191906136ec565b925050819055506001606860008473ffffffffffffffffffffffffffffffffffffffff1673ffffffffffffffffffffffffffffffffffffffff1681526020019081526020016000206000828254611b989190613665565b92505081905550816067600083815260200190815260200160002060006101000a81548173ffffffffffffffffffffffffffffffffffffffff021916908373ffffffffffffffffffffffffffffffffffffffff160217905550808273ffffffffffffffffffffffffffffffffffffffff168473ffffffffffffffffffffffffffffffffffffffff167fddf252ad1be2c89b69c2b068fc378daa952ba7f163c4a11628f55a4df523b3ef60405160405180910390a4505050565b6000609760009054906101000a900473ffffffffffffffffffffffffffffffffffffffff16905081609760006101000a81548173ffffffffffffffffffffffffffffffffffffffff021916908373ffffffffffffffffffffffffffffffffffffffff1602179055508173ffffffffffffffffffffffffffffffffffffffff168173ffffffffffffffffffffffffffffffffffffffff167f8be0079c531659141344cd1fd0a4f28419497f9722a3daafe3b4186f6b6457e060405160405180910390a35050565b6000804442604051602001611d2d92919061312f565b6040516020818303038152906040528051906020012060001c90508281611d5491906138ae565b915050919050565b600073ffffffffffffffffffffffffffffffffffffffff168273ffffffffffffffffffffffffffffffffffffffff161415611dcc576040517f08c379a0000000000000000000000000000000000000000000000000000000008152600401611dc3906133ef565b60405180910390fd5b611dd5816117ea565b15611e15576040517f08c379a0000000000000000000000000000000000000000000000000000000008152600401611e0c906132ef565b60405180910390fd5b611e21600083836121f3565b6001606860008473ffffffffffffffffffffffffffffffffffffffff1673ffffffffffffffffffffffffffffffffffffffff1681526020019081526020016000206000828254611e719190613665565b92505081905550816067600083815260200190815260200160002060006101000a81548173ffffffffffffffffffffffffffffffffffffffff021916908373ffffffffffffffffffffffffffffffffffffffff160217905550808273ffffffffffffffffffffffffffffffffffffffff16600073ffffffffffffffffffffffffffffffffffffffff167fddf252ad1be2c89b69c2b068fc378daa952ba7f163c4a11628f55a4df523b3ef60405160405180910390a45050565b611f358484846119f5565b611f41848484846121f8565b611f80576040517f08c379a0000000000000000000000000000000000000000000000000000000008152600401611f77906132af565b60405180910390fd5b50505050565b600060019054906101000a900460ff1680611fac575060008054906101000a900460ff16155b611feb576040517f08c379a0000000000000000000000000000000000000000000000000000000008152600401611fe2906133cf565b60405180910390fd5b60008060019054906101000a900460ff16159050801561203b576001600060016101000a81548160ff02191690831515021790555060016000806101000a81548160ff0219169083151502179055505b61204361238f565b61204b612468565b6120558383612541565b80156120765760008060016101000a81548160ff0219169083151502179055505b505050565b606060405180602001604052806000815250905090565b606060008214156120da576040518060400160405280600181526020017f300000000000000000000000000000000000000000000000000000000000000081525090506121ee565b600082905060005b6000821461210c5780806120f59061385b565b915050600a8261210591906136bb565b91506120e2565b60008167ffffffffffffffff8111156121285761212761399b565b5b6040519080825280601f01601f19166020018201604052801561215a5781602001600182028036833780820191505090505b5090505b600085146121e75760018261217391906136ec565b9150600a8561218291906138ae565b603061218e9190613665565b60f81b8183815181106121a4576121a361396c565b5b60200101907effffffffffffffffffffffffffffffffffffffffffffffffffffffffffffff1916908160001a905350600a856121e091906136bb565b945061215e565b8093505050505b919050565b505050565b60006122198473ffffffffffffffffffffffffffffffffffffffff1661264a565b15612382578373ffffffffffffffffffffffffffffffffffffffff1663150b7a02612242611856565b8786866040518563ffffffff1660e01b815260040161226494939291906131ad565b602060405180830381600087803b15801561227e57600080fd5b505af19250505080156122af57506040513d601f19601f820116820180604052508101906122ac9190612be1565b60015b612332573d80600081146122df576040519150601f19603f3d011682016040523d82523d6000602084013e6122e4565b606091505b5060008151141561232a576040517f08c379a0000000000000000000000000000000000000000000000000000000008152600401612321906132af565b60405180910390fd5b805181602001fd5b63150b7a0260e01b7bffffffffffffffffffffffffffffffffffffffffffffffffffffffff1916817bffffffffffffffffffffffffffffffffffffffffffffffffffffffff191614915050612387565b600190505b949350505050565b600060019054906101000a900460ff16806123b5575060008054906101000a900460ff16155b6123f4576040517f08c379a00000000000000000000000000000000000000000000000000000000081526004016123eb906133cf565b60405180910390fd5b60008060019054906101000a900460ff161590508015612444576001600060016101000a81548160ff02191690831515021790555060016000806101000a81548160ff0219169083151502179055505b80156124655760008060016101000a81548160ff0219169083151502179055505b50565b600060019054906101000a900460ff168061248e575060008054906101000a900460ff16155b6124cd576040517f08c379a00000000000000000000000000000000000000000000000000000000081526004016124c4906133cf565b60405180910390fd5b60008060019054906101000a900460ff16159050801561251d576001600060016101000a81548160ff02191690831515021790555060016000806101000a81548160ff0219169083151502179055505b801561253e5760008060016101000a81548160ff0219169083151502179055505b50565b600060019054906101000a900460ff1680612567575060008054906101000a900460ff16155b6125a6576040517f08c379a000000000000000000000000000000000000000000000000000000000815260040161259d906133cf565b60405180910390fd5b60008060019054906101000a900460ff1615905080156125f6576001600060016101000a81548160ff02191690831515021790555060016000806101000a81548160ff0219169083151502179055505b826065908051906020019061260c92919061270d565b50816066908051906020019061262392919061270d565b5080156126455760008060016101000a81548160ff0219169083151502179055505b505050565b600080823b905060008111915050919050565b828054828255906000526020600020906007016008900481019282156126fc5791602002820160005b838211156126ca57835183826101000a81548163ffffffff021916908363ffffffff1602179055509260200192600401602081600301049283019260010302612686565b80156126fa5782816101000a81549063ffffffff02191690556004016020816003010492830192600103026126ca565b505b5090506127099190612793565b5090565b828054612719906137f8565b90600052602060002090601f01602090048101928261273b5760008555612782565b82601f1061275457805160ff1916838001178555612782565b82800160010185558215612782579182015b82811115612781578251825591602001919060010190612766565b5b50905061278f9190612793565b5090565b5b808211156127ac576000816000905550600101612794565b5090565b60006127c36127be84613553565b61352e565b905080838252602082019050828560208602820111156127e6576127e56139cf565b5b60005b8581101561281657816127fc8882612966565b8452602084019350602083019250506001810190506127e9565b5050509392505050565b600061283361282e8461357f565b61352e565b90508281526020810184848401111561284f5761284e6139d4565b5b61285a8482856137b6565b509392505050565b60008135905061287181613ec4565b92915050565b600082601f83011261288c5761288b6139ca565b5b813561289c8482602086016127b0565b91505092915050565b6000813590506128b481613edb565b92915050565b6000815190506128c981613edb565b92915050565b6000813590506128de81613ef2565b92915050565b6000815190506128f381613ef2565b92915050565b600082601f83011261290e5761290d6139ca565b5b813561291e848260208601612820565b91505092915050565b60008135905061293681613f09565b92915050565b60008135905061294b81613f20565b92915050565b60008151905061296081613f20565b92915050565b60008135905061297581613f37565b92915050565b600060208284031215612991576129906139de565b5b600061299f84828501612862565b91505092915050565b600080604083850312156129bf576129be6139de565b5b60006129cd85828601612862565b92505060206129de85828601612862565b9150509250929050565b600080600060608486031215612a0157612a006139de565b5b6000612a0f86828701612862565b9350506020612a2086828701612862565b9250506040612a318682870161293c565b9150509250925092565b60008060008060808587031215612a5557612a546139de565b5b6000612a6387828801612862565b9450506020612a7487828801612862565b9350506040612a858782880161293c565b925050606085013567ffffffffffffffff811115612aa657612aa56139d9565b5b612ab2878288016128f9565b91505092959194509250565b60008060408385031215612ad557612ad46139de565b5b6000612ae385828601612862565b9250506020612af4858286016128a5565b9150509250929050565b60008060408385031215612b1557612b146139de565b5b6000612b2385828601612862565b9250506020612b348582860161293c565b9150509250929050565b600060208284031215612b5457612b536139de565b5b600082013567ffffffffffffffff811115612b7257612b716139d9565b5b612b7e84828501612877565b91505092915050565b600060208284031215612b9d57612b9c6139de565b5b6000612bab848285016128ba565b91505092915050565b600060208284031215612bca57612bc96139de565b5b6000612bd8848285016128cf565b91505092915050565b600060208284031215612bf757612bf66139de565b5b6000612c05848285016128e4565b91505092915050565b600060208284031215612c2457612c236139de565b5b6000612c3284828501612927565b91505092915050565b600060208284031215612c5157612c506139de565b5b6000612c5f8482850161293c565b91505092915050565b600060208284031215612c7e57612c7d6139de565b5b6000612c8c84828501612951565b91505092915050565b6000612ca183836130b8565b60208301905092915050565b6000612cb983836130ed565b60208301905092915050565b612cce81613720565b82525050565b6000612cdf826135d0565b612ce98185613616565b9350612cf4836135b0565b8060005b83811015612d25578151612d0c8882612c95565b9750612d17836135fc565b925050600181019050612cf8565b5085935050505092915050565b6000612d3d826135db565b612d478185613627565b9350612d52836135c0565b8060005b83811015612d83578151612d6a8882612cad565b9750612d7583613609565b925050600181019050612d56565b5085935050505092915050565b612d9981613732565b82525050565b6000612daa826135e6565b612db48185613638565b9350612dc48185602086016137c5565b612dcd816139e3565b840191505092915050565b6000612de3826135f1565b612ded8185613649565b9350612dfd8185602086016137c5565b612e06816139e3565b840191505092915050565b6000612e1c826135f1565b612e26818561365a565b9350612e368185602086016137c5565b80840191505092915050565b6000612e4f601283613649565b9150612e5a826139f4565b602082019050919050565b6000612e72603283613649565b9150612e7d82613a1d565b604082019050919050565b6000612e95602683613649565b9150612ea082613a6c565b604082019050919050565b6000612eb8601c83613649565b9150612ec382613abb565b602082019050919050565b6000612edb602483613649565b9150612ee682613ae4565b604082019050919050565b6000612efe601983613649565b9150612f0982613b33565b602082019050919050565b6000612f21602c83613649565b9150612f2c82613b5c565b604082019050919050565b6000612f44603883613649565b9150612f4f82613bab565b604082019050919050565b6000612f67602a83613649565b9150612f7282613bfa565b604082019050919050565b6000612f8a602983613649565b9150612f9582613c49565b604082019050919050565b6000612fad602e83613649565b9150612fb882613c98565b604082019050919050565b6000612fd0602083613649565b9150612fdb82613ce7565b602082019050919050565b6000612ff3602c83613649565b9150612ffe82613d10565b604082019050919050565b6000613016602083613649565b915061302182613d5f565b602082019050919050565b6000613039602983613649565b915061304482613d88565b604082019050919050565b600061305c602f83613649565b915061306782613dd7565b604082019050919050565b600061307f602183613649565b915061308a82613e26565b604082019050919050565b60006130a2603183613649565b91506130ad82613e75565b604082019050919050565b6130c18161379c565b82525050565b6130d08161379c565b82525050565b6130e76130e28261379c565b6138a4565b82525050565b6130f6816137a6565b82525050565b613105816137a6565b82525050565b60006131178285612e11565b91506131238284612e11565b91508190509392505050565b600061313b82856130d6565b60208201915061314b82846130d6565b6020820191508190509392505050565b60006020820190506131706000830184612cc5565b92915050565b600060608201905061318b6000830186612cc5565b6131986020830185612cc5565b6131a560408301846130c7565b949350505050565b60006080820190506131c26000830187612cc5565b6131cf6020830186612cc5565b6131dc60408301856130c7565b81810360608301526131ee8184612d9f565b905095945050505050565b600060408201905081810360008301526132138185612cd4565b905081810360208301526132278184612d32565b90509392505050565b6000602082019050818103600083015261324a8184612d32565b905092915050565b60006020820190506132676000830184612d90565b92915050565b600060208201905081810360008301526132878184612dd8565b905092915050565b600060208201905081810360008301526132a881612e42565b9050919050565b600060208201905081810360008301526132c881612e65565b9050919050565b600060208201905081810360008301526132e881612e88565b9050919050565b6000602082019050818103600083015261330881612eab565b9050919050565b6000602082019050818103600083015261332881612ece565b9050919050565b6000602082019050818103600083015261334881612ef1565b9050919050565b6000602082019050818103600083015261336881612f14565b9050919050565b6000602082019050818103600083015261338881612f37565b9050919050565b600060208201905081810360008301526133a881612f5a565b9050919050565b600060208201905081810360008301526133c881612f7d565b9050919050565b600060208201905081810360008301526133e881612fa0565b9050919050565b6000602082019050818103600083015261340881612fc3565b9050919050565b6000602082019050818103600083015261342881612fe6565b9050919050565b6000602082019050818103600083015261344881613009565b9050919050565b600060208201905081810360008301526134688161302c565b9050919050565b600060208201905081810360008301526134888161304f565b9050919050565b600060208201905081810360008301526134a881613072565b9050919050565b600060208201905081810360008301526134c881613095565b9050919050565b60006020820190506134e460008301846130c7565b92915050565b60006040820190506134ff60008301856130c7565b61350c60208301846130fc565b9392505050565b600060208201905061352860008301846130fc565b92915050565b6000613538613549565b9050613544828261382a565b919050565b6000604051905090565b600067ffffffffffffffff82111561356e5761356d61399b565b5b602082029050602081019050919050565b600067ffffffffffffffff82111561359a5761359961399b565b5b6135a3826139e3565b9050602081019050919050565b6000819050602082019050919050565b6000819050602082019050919050565b600081519050919050565b600081519050919050565b600081519050919050565b600081519050919050565b6000602082019050919050565b6000602082019050919050565b600082825260208201905092915050565b600082825260208201905092915050565b600082825260208201905092915050565b600082825260208201905092915050565b600081905092915050565b60006136708261379c565b915061367b8361379c565b9250827fffffffffffffffffffffffffffffffffffffffffffffffffffffffffffffffff038211156136b0576136af6138df565b5b828201905092915050565b60006136c68261379c565b91506136d18361379c565b9250826136e1576136e061390e565b5b828204905092915050565b60006136f78261379c565b91506137028361379c565b925082821015613715576137146138df565b5b828203905092915050565b600061372b8261377c565b9050919050565b60008115159050919050565b60007fffffffff0000000000000000000000000000000000000000000000000000000082169050919050565b600061377582613720565b9050919050565b600073ffffffffffffffffffffffffffffffffffffffff82169050919050565b6000819050919050565b600063ffffffff82169050919050565b82818337600083830152505050565b60005b838110156137e35780820151818401526020810190506137c8565b838111156137f2576000848401525b50505050565b6000600282049050600182168061381057607f821691505b602082108114156138245761382361393d565b5b50919050565b613833826139e3565b810181811067ffffffffffffffff821117156138525761385161399b565b5b80604052505050565b60006138668261379c565b91507fffffffffffffffffffffffffffffffffffffffffffffffffffffffffffffffff821415613899576138986138df565b5b600182019050919050565b6000819050919050565b60006138b98261379c565b91506138c48361379c565b9250826138d4576138d361390e565b5b828206905092915050565b7f4e487b7100000000000000000000000000000000000000000000000000000000600052601160045260246000fd5b7f4e487b7100000000000000000000000000000000000000000000000000000000600052601260045260246000fd5b7f4e487b7100000000000000000000000000000000000000000000000000000000600052602260045260246000fd5b7f4e487b7100000000000000000000000000000000000000000000000000000000600052603260045260246000fd5b7f4e487b7100000000000000000000000000000000000000000000000000000000600052604160045260246000fd5b600080fd5b600080fd5b600080fd5b600080fd5b600080fd5b6000601f19601f8301169050919050565b7f62616c616e6365203c2072657175697265640000000000000000000000000000600082015250565b7f4552433732313a207472616e7366657220746f206e6f6e20455243373231526560008201527f63656976657220696d706c656d656e7465720000000000000000000000000000602082015250565b7f4f776e61626c653a206e6577206f776e657220697320746865207a65726f206160008201527f6464726573730000000000000000000000000000000000000000000000000000602082015250565b7f4552433732313a20746f6b656e20616c7265616479206d696e74656400000000600082015250565b7f4552433732313a207472616e7366657220746f20746865207a65726f2061646460008201527f7265737300000000000000000000000000000000000000000000000000000000602082015250565b7f4552433732313a20617070726f766520746f2063616c6c657200000000000000600082015250565b7f4552433732313a206f70657261746f7220717565727920666f72206e6f6e657860008201527f697374656e7420746f6b656e0000000000000000000000000000000000000000602082015250565b7f4552433732313a20617070726f76652063616c6c6572206973206e6f74206f7760008201527f6e6572206e6f7220617070726f76656420666f7220616c6c0000000000000000602082015250565b7f4552433732313a2062616c616e636520717565727920666f7220746865207a6560008201527f726f206164647265737300000000000000000000000000000000000000000000602082015250565b7f4552433732313a206f776e657220717565727920666f72206e6f6e657869737460008201527f656e7420746f6b656e0000000000000000000000000000000000000000000000602082015250565b7f496e697469616c697a61626c653a20636f6e747261637420697320616c72656160008201527f647920696e697469616c697a6564000000000000000000000000000000000000602082015250565b7f4552433732313a206d696e7420746f20746865207a65726f2061646472657373600082015250565b7f4552433732313a20617070726f76656420717565727920666f72206e6f6e657860008201527f697374656e7420746f6b656e0000000000000000000000000000000000000000602082015250565b7f4f776e61626c653a2063616c6c6572206973206e6f7420746865206f776e6572600082015250565b7f4552433732313a207472616e73666572206f6620746f6b656e2074686174206960008201527f73206e6f74206f776e0000000000000000000000000000000000000000000000602082015250565b7f4552433732314d657461646174613a2055524920717565727920666f72206e6f60008201527f6e6578697374656e7420746f6b656e0000000000000000000000000000000000602082015250565b7f4552433732313a20617070726f76616c20746f2063757272656e74206f776e6560008201527f7200000000000000000000000000000000000000000000000000000000000000602082015250565b7f4552433732313a207472616e736665722063616c6c6572206973206e6f74206f60008201527f776e6572206e6f7220617070726f766564000000000000000000000000000000602082015250565b613ecd81613720565b8114613ed857600080fd5b50565b613ee481613732565b8114613eef57600080fd5b50565b613efb8161373e565b8114613f0657600080fd5b50565b613f128161376a565b8114613f1d57600080fd5b50565b613f298161379c565b8114613f3457600080fd5b50565b613f40816137a6565b8114613f4b57600080fd5b5056fea264697066735822122074adaad0f2c391d5b469b10df655c3b9580e2ac3ae1500020a592737f6d1254164736f6c63430008070033",
  "immutableReferences": {},
  "source": "// SPDX-License-Identifier: MIT\r\npragma solidity ^0.8.0;\r\n\r\nimport \"@openzeppelin/contracts-upgradeable/token/ERC721/ERC721Upgradeable.sol\";\r\nimport \"@openzeppelin/contracts-upgradeable/access/OwnableUpgradeable.sol\";\r\nimport \"./Diamond.sol\";\r\n\r\n/** / */\r\ncontract NftPlayer is ERC721Upgradeable,OwnableUpgradeable {\r\n\r\n    Diamond diamondInstance;\r\n\r\n    //tokenID\r\n    uint256 private countor;\r\n    //\r\n    uint32[] private playerPool;\r\n    // tokenId => player_id\r\n    mapping(uint256 => uint32) public cardDB;\r\n    //tokens\r\n    mapping(address => uint256[]) private tokenDB;\r\n\r\n\r\n    function initialize(Diamond _diamondInstance) public initializer {\r\n        __ERC721_init(\"FM Token Card\", \"FMC\");\r\n        diamondInstance = _diamondInstance;\r\n        playerPool = [2080103,15802303,17658003,16749503,19087103,18854503,18327703,19298503,19308003,18252103];\r\n    }\r\n\r\n    /**  */\r\n    function setPlayerPool(uint32[] memory) public onlyOwner {}\r\n\r\n    /**  */\r\n    function getPlayerPool() public view returns (uint32[] memory) {\r\n        uint32[] memory pool = new uint32[](playerPool.length);\r\n        return pool;\r\n    }\r\n\r\n    /**  */\r\n    function createCard() public payable {\r\n        uint256 cost = 1;\r\n        require(\r\n            diamondInstance.balanceOf(msg.sender) >= cost,\r\n            \"balance < required\"\r\n        );\r\n        diamondInstance.transferFrom(msg.sender, address(diamondInstance), cost);\r\n\r\n        uint256 _tokenId = ++countor;\r\n\r\n        //\r\n        uint32 _index = rand(playerPool.length);\r\n        uint32 _player_id = playerPool[_index];\r\n        cardDB[_tokenId] = _player_id;\r\n\r\n        //token\r\n        address _addr = msg.sender;\r\n        tokenDB[_addr].push(_tokenId);\r\n\r\n        super._mint(msg.sender, _tokenId);\r\n        emit createCardEvent(_tokenId, _player_id);\r\n    }\r\n\r\n    /**  */\r\n    function getMyCards(address _addr) public view returns ( uint256[] memory, uint32[] memory) {\r\n        uint256[] memory _tokens = tokenDB[_addr];\r\n        uint32[] memory _player_ids = new uint32[](_tokens.length);\r\n\r\n        if (_tokens.length > 0) {\r\n            for (uint i=0; i<_tokens.length; i++) {\r\n                uint256 _tokenId = _tokens[i];\r\n                uint32  _player_id = cardDB[ _tokenId ];\r\n                _player_ids[i] = _player_id;\r\n            }\r\n        }\r\n\r\n        return (_tokens, _player_ids);\r\n    }\r\n\r\n    function rand(uint256 _length) private view returns(uint32) {\r\n        uint256 random = uint256(keccak256(abi.encodePacked(block.difficulty, block.timestamp)));\r\n        return uint32(random % _length);\r\n    }\r\n\r\n    event createCardEvent(uint256 token, uint32 player_id);\r\n}",
  "sourcePath": "D:\\solidity\\sol-test1\\contracts\\NftPlayer.sol",
  "compiler": {
    "name": "solc",
    "version": "0.8.7+commit.e28d00a7.Emscripten.clang"
  },
  "schemaVersion": "3.4.3",
  "updatedAt": "2021-09-30T07:19:17.851Z",
  "devdoc": {
    "kind": "dev",
    "methods": {
      "approve(address,uint256)": {
        "details": "See {IERC721-approve}."
      },
      "balanceOf(address)": {
        "details": "See {IERC721-balanceOf}."
      },
      "getApproved(uint256)": {
        "details": "See {IERC721-getApproved}."
      },
      "isApprovedForAll(address,address)": {
        "details": "See {IERC721-isApprovedForAll}."
      },
      "name()": {
        "details": "See {IERC721Metadata-name}."
      },
      "owner()": {
        "details": "Returns the address of the current owner."
      },
      "ownerOf(uint256)": {
        "details": "See {IERC721-ownerOf}."
      },
      "renounceOwnership()": {
        "details": "Leaves the contract without owner. It will not be possible to call `onlyOwner` functions anymore. Can only be called by the current owner. NOTE: Renouncing ownership will leave the contract without an owner, thereby removing any functionality that is only available to the owner."
      },
      "safeTransferFrom(address,address,uint256)": {
        "details": "See {IERC721-safeTransferFrom}."
      },
      "safeTransferFrom(address,address,uint256,bytes)": {
        "details": "See {IERC721-safeTransferFrom}."
      },
      "setApprovalForAll(address,bool)": {
        "details": "See {IERC721-setApprovalForAll}."
      },
      "supportsInterface(bytes4)": {
        "details": "See {IERC165-supportsInterface}."
      },
      "symbol()": {
        "details": "See {IERC721Metadata-symbol}."
      },
      "tokenURI(uint256)": {
        "details": "See {IERC721Metadata-tokenURI}."
      },
      "transferFrom(address,address,uint256)": {
        "details": "See {IERC721-transferFrom}."
      },
      "transferOwnership(address)": {
        "details": "Transfers ownership of the contract to a new account (`newOwner`). Can only be called by the current owner."
      }
    },
    "version": 1
  },
  "userdoc": {
    "kind": "user",
    "methods": {
      "createCard()": {
        "notice": " "
      },
      "getMyCards(address)": {
        "notice": " "
      },
      "getPlayerPool()": {
        "notice": " "
      },
      "setPlayerPool(uint32[])": {
        "notice": " "
      }
    },
    "notice": "/ ",
    "version": 1
  }
}