{
  "contractName": "NFTToken",
  "abi": [
    {
      "inputs": [],
      "stateMutability": "nonpayable",
      "type": "constructor"
    },
    {
      "anonymous": false,
      "inputs": [
        {
          "indexed": true,
          "internalType": "address",
          "name": "owner",
          "type": "address"
        },
        {
          "indexed": true,
          "internalType": "address",
          "name": "approved",
          "type": "address"
        },
        {
          "indexed": true,
          "internalType": "uint256",
          "name": "tokenId",
          "type": "uint256"
        }
      ],
      "name": "Approval",
      "type": "event"
    },
    {
      "anonymous": false,
      "inputs": [
        {
          "indexed": true,
          "internalType": "address",
          "name": "owner",
          "type": "address"
        },
        {
          "indexed": true,
          "internalType": "address",
          "name": "operator",
          "type": "address"
        },
        {
          "indexed": false,
          "internalType": "bool",
          "name": "approved",
          "type": "bool"
        }
      ],
      "name": "ApprovalForAll",
      "type": "event"
    },
    {
      "anonymous": false,
      "inputs": [
        {
          "indexed": true,
          "internalType": "address",
          "name": "previousOwner",
          "type": "address"
        },
        {
          "indexed": true,
          "internalType": "address",
          "name": "newOwner",
          "type": "address"
        }
      ],
      "name": "OwnershipTransferred",
      "type": "event"
    },
    {
      "anonymous": false,
      "inputs": [
        {
          "indexed": true,
          "internalType": "address",
          "name": "from",
          "type": "address"
        },
        {
          "indexed": true,
          "internalType": "address",
          "name": "to",
          "type": "address"
        },
        {
          "indexed": true,
          "internalType": "uint256",
          "name": "tokenId",
          "type": "uint256"
        }
      ],
      "name": "Transfer",
      "type": "event"
    },
    {
      "inputs": [
        {
          "internalType": "address",
          "name": "to",
          "type": "address"
        },
        {
          "internalType": "uint256",
          "name": "tokenId",
          "type": "uint256"
        }
      ],
      "name": "approve",
      "outputs": [],
      "stateMutability": "nonpayable",
      "type": "function"
    },
    {
      "inputs": [
        {
          "internalType": "address",
          "name": "owner",
          "type": "address"
        }
      ],
      "name": "balanceOf",
      "outputs": [
        {
          "internalType": "uint256",
          "name": "",
          "type": "uint256"
        }
      ],
      "stateMutability": "view",
      "type": "function"
    },
    {
      "inputs": [
        {
          "internalType": "uint256",
          "name": "",
          "type": "uint256"
        }
      ],
      "name": "cardDB",
      "outputs": [
        {
          "internalType": "uint32",
          "name": "",
          "type": "uint32"
        }
      ],
      "stateMutability": "view",
      "type": "function"
    },
    {
      "inputs": [
        {
          "internalType": "uint256",
          "name": "tokenId",
          "type": "uint256"
        }
      ],
      "name": "getApproved",
      "outputs": [
        {
          "internalType": "address",
          "name": "",
          "type": "address"
        }
      ],
      "stateMutability": "view",
      "type": "function"
    },
    {
      "inputs": [
        {
          "internalType": "address",
          "name": "owner",
          "type": "address"
        },
        {
          "internalType": "address",
          "name": "operator",
          "type": "address"
        }
      ],
      "name": "isApprovedForAll",
      "outputs": [
        {
          "internalType": "bool",
          "name": "",
          "type": "bool"
        }
      ],
      "stateMutability": "view",
      "type": "function"
    },
    {
      "inputs": [],
      "name": "name",
      "outputs": [
        {
          "internalType": "string",
          "name": "",
          "type": "string"
        }
      ],
      "stateMutability": "view",
      "type": "function"
    },
    {
      "inputs": [],
      "name": "owner",
      "outputs": [
        {
          "internalType": "address",
          "name": "",
          "type": "address"
        }
      ],
      "stateMutability": "view",
      "type": "function"
    },
    {
      "inputs": [
        {
          "internalType": "uint256",
          "name": "tokenId",
          "type": "uint256"
        }
      ],
      "name": "ownerOf",
      "outputs": [
        {
          "internalType": "address",
          "name": "",
          "type": "address"
        }
      ],
      "stateMutability": "view",
      "type": "function"
    },
    {
      "inputs": [],
      "name": "renounceOwnership",
      "outputs": [],
      "stateMutability": "nonpayable",
      "type": "function"
    },
    {
      "inputs": [
        {
          "internalType": "address",
          "name": "from",
          "type": "address"
        },
        {
          "internalType": "address",
          "name": "to",
          "type": "address"
        },
        {
          "internalType": "uint256",
          "name": "tokenId",
          "type": "uint256"
        }
      ],
      "name": "safeTransferFrom",
      "outputs": [],
      "stateMutability": "nonpayable",
      "type": "function"
    },
    {
      "inputs": [
        {
          "internalType": "address",
          "name": "from",
          "type": "address"
        },
        {
          "internalType": "address",
          "name": "to",
          "type": "address"
        },
        {
          "internalType": "uint256",
          "name": "tokenId",
          "type": "uint256"
        },
        {
          "internalType": "bytes",
          "name": "_data",
          "type": "bytes"
        }
      ],
      "name": "safeTransferFrom",
      "outputs": [],
      "stateMutability": "nonpayable",
      "type": "function"
    },
    {
      "inputs": [
        {
          "internalType": "address",
          "name": "operator",
          "type": "address"
        },
        {
          "internalType": "bool",
          "name": "approved",
          "type": "bool"
        }
      ],
      "name": "setApprovalForAll",
      "outputs": [],
      "stateMutability": "nonpayable",
      "type": "function"
    },
    {
      "inputs": [
        {
          "internalType": "bytes4",
          "name": "interfaceId",
          "type": "bytes4"
        }
      ],
      "name": "supportsInterface",
      "outputs": [
        {
          "internalType": "bool",
          "name": "",
          "type": "bool"
        }
      ],
      "stateMutability": "view",
      "type": "function"
    },
    {
      "inputs": [],
      "name": "symbol",
      "outputs": [
        {
          "internalType": "string",
          "name": "",
          "type": "string"
        }
      ],
      "stateMutability": "view",
      "type": "function"
    },
    {
      "inputs": [
        {
          "internalType": "uint256",
          "name": "tokenId",
          "type": "uint256"
        }
      ],
      "name": "tokenURI",
      "outputs": [
        {
          "internalType": "string",
          "name": "",
          "type": "string"
        }
      ],
      "stateMutability": "view",
      "type": "function"
    },
    {
      "inputs": [
        {
          "internalType": "address",
          "name": "from",
          "type": "address"
        },
        {
          "internalType": "address",
          "name": "to",
          "type": "address"
        },
        {
          "internalType": "uint256",
          "name": "tokenId",
          "type": "uint256"
        }
      ],
      "name": "transferFrom",
      "outputs": [],
      "stateMutability": "nonpayable",
      "type": "function"
    },
    {
      "inputs": [
        {
          "internalType": "address",
          "name": "newOwner",
          "type": "address"
        }
      ],
      "name": "transferOwnership",
      "outputs": [],
      "stateMutability": "nonpayable",
      "type": "function"
    },
    {
      "inputs": [
        {
          "internalType": "uint32[]",
          "name": "",
          "type": "uint32[]"
        }
      ],
      "name": "setPlayerPool",
      "outputs": [],
      "stateMutability": "nonpayable",
      "type": "function"
    },
    {
      "inputs": [],
      "name": "createCard",
      "outputs": [
        {
          "internalType": "uint256",
          "name": "",
          "type": "uint256"
        },
        {
          "internalType": "uint32",
          "name": "",
          "type": "uint32"
        }
      ],
      "stateMutability": "nonpayable",
      "type": "function"
    },
    {
      "inputs": [
        {
          "internalType": "address",
          "name": "_addr",
          "type": "address"
        }
      ],
      "name": "getMyCards",
      "outputs": [
        {
          "internalType": "uint256[]",
          "name": "",
          "type": "uint256[]"
        },
        {
          "internalType": "uint32[]",
          "name": "",
          "type": "uint32[]"
        }
      ],
      "stateMutability": "view",
      "type": "function"
    }
  ],
  "bytecode": "0x608060405260006007553480156200001657600080fd5b506040518060400160405280600d81526020017f464d20546f6b656e2043617264000000000000000000000000000000000000008152506040518060400160405280600381526020017f464d43000000000000000000000000000000000000000000000000000000000081525081600090805190602001906200009b92919062000265565b508060019080519060200190620000b492919062000265565b505050620000d7620000cb6200019760201b60201c565b6200019f60201b60201c565b604051806101400160405280621fbd6763ffffffff16815260200162f11fbf63ffffffff16815260200163010d709363ffffffff16815260200162ff93bf63ffffffff1681526020016301233eff63ffffffff16815260200163011fb26763ffffffff168152602001630117a89763ffffffff16815260200163012678c763ffffffff1681526020016301269de363ffffffff168152602001630116814763ffffffff16815250600890600a62000190929190620002f6565b5062000431565b600033905090565b6000600660009054906101000a900473ffffffffffffffffffffffffffffffffffffffff16905081600660006101000a81548173ffffffffffffffffffffffffffffffffffffffff021916908373ffffffffffffffffffffffffffffffffffffffff1602179055508173ffffffffffffffffffffffffffffffffffffffff168173ffffffffffffffffffffffffffffffffffffffff167f8be0079c531659141344cd1fd0a4f28419497f9722a3daafe3b4186f6b6457e060405160405180910390a35050565b8280546200027390620003cc565b90600052602060002090601f016020900481019282620002975760008555620002e3565b82601f10620002b257805160ff1916838001178555620002e3565b82800160010185558215620002e3579182015b82811115620002e2578251825591602001919060010190620002c5565b5b509050620002f29190620003ad565b5090565b828054828255906000526020600020906007016008900481019282156200039a5791602002820160005b838211156200036657835183826101000a81548163ffffffff021916908363ffffffff160217905550926020019260040160208160030104928301926001030262000320565b8015620003985782816101000a81549063ffffffff021916905560040160208160030104928301926001030262000366565b505b509050620003a99190620003ad565b5090565b5b80821115620003c8576000816000905550600101620003ae565b5090565b60006002820490506001821680620003e557607f821691505b60208210811415620003fc57620003fb62000402565b5b50919050565b7f4e487b7100000000000000000000000000000000000000000000000000000000600052602260045260246000fd5b61326480620004416000396000f3fe608060405234801561001057600080fd5b506004361061012c5760003560e01c8063715018a6116100ad578063a2d256fa11610071578063a2d256fa14610342578063b88d4fde14610361578063c87b56dd1461037d578063e985e9c5146103ad578063f2fde38b146103dd5761012c565b8063715018a6146102b05780638da5cb5b146102ba57806395d89b41146102d8578063a00f6d76146102f6578063a22cb465146103265761012c565b806337983aed116100f457806337983aed146101e757806342842e0e146102185780636352211e1461023457806366ea03a81461026457806370a08231146102805761012c565b806301ffc9a71461013157806306fdde0314610161578063081812fc1461017f578063095ea7b3146101af57806323b872dd146101cb575b600080fd5b61014b6004803603810190610146919061206e565b6103f9565b6040516101589190612613565b60405180910390f35b6101696104db565b604051610176919061262e565b60405180910390f35b610199600480360381019061019491906120c8565b61056d565b6040516101a69190612575565b60405180910390f35b6101c960048036038101906101c49190611fe5565b6105f2565b005b6101e560048036038101906101e09190611ecf565b61070a565b005b61020160048036038101906101fc9190611e62565b61076a565b60405161020f9291906125dc565b60405180910390f35b610232600480360381019061022d9190611ecf565b6108fc565b005b61024e600480360381019061024991906120c8565b61091c565b60405161025b9190612575565b60405180910390f35b61027e60048036038101906102799190612025565b6109ce565b005b61029a60048036038101906102959190611e62565b610a4d565b6040516102a79190612850565b60405180910390f35b6102b8610b05565b005b6102c2610b8d565b6040516102cf9190612575565b60405180910390f35b6102e0610bb7565b6040516102ed919061262e565b60405180910390f35b610310600480360381019061030b91906120c8565b610c49565b60405161031d9190612894565b60405180910390f35b610340600480360381019061033b9190611fa5565b610c6c565b005b61034a610ded565b60405161035892919061286b565b60405180910390f35b61037b60048036038101906103769190611f22565b610f14565b005b610397600480360381019061039291906120c8565b610f76565b6040516103a4919061262e565b60405180910390f35b6103c760048036038101906103c29190611e8f565b61101d565b6040516103d49190612613565b60405180910390f35b6103f760048036038101906103f29190611e62565b6110b1565b005b60007f80ac58cd000000000000000000000000000000000000000000000000000000007bffffffffffffffffffffffffffffffffffffffffffffffffffffffff1916827bffffffffffffffffffffffffffffffffffffffffffffffffffffffff191614806104c457507f5b5e139f000000000000000000000000000000000000000000000000000000007bffffffffffffffffffffffffffffffffffffffffffffffffffffffff1916827bffffffffffffffffffffffffffffffffffffffffffffffffffffffff1916145b806104d457506104d3826111a9565b5b9050919050565b6060600080546104ea90612b67565b80601f016020809104026020016040519081016040528092919081815260200182805461051690612b67565b80156105635780601f1061053857610100808354040283529160200191610563565b820191906000526020600020905b81548152906001019060200180831161054657829003601f168201915b5050505050905090565b600061057882611213565b6105b7576040517f08c379a00000000000000000000000000000000000000000000000000000000081526004016105ae90612790565b60405180910390fd5b6004600083815260200190815260200160002060009054906101000a900473ffffffffffffffffffffffffffffffffffffffff169050919050565b60006105fd8261091c565b90508073ffffffffffffffffffffffffffffffffffffffff168373ffffffffffffffffffffffffffffffffffffffff16141561066e576040517f08c379a000000000000000000000000000000000000000000000000000000000815260040161066590612810565b60405180910390fd5b8073ffffffffffffffffffffffffffffffffffffffff1661068d61127f565b73ffffffffffffffffffffffffffffffffffffffff1614806106bc57506106bb816106b661127f565b61101d565b5b6106fb576040517f08c379a00000000000000000000000000000000000000000000000000000000081526004016106f290612710565b60405180910390fd5b6107058383611287565b505050565b61071b61071561127f565b82611340565b61075a576040517f08c379a000000000000000000000000000000000000000000000000000000000815260040161075190612830565b60405180910390fd5b61076583838361141e565b505050565b6060806000600a60008573ffffffffffffffffffffffffffffffffffffffff1673ffffffffffffffffffffffffffffffffffffffff1681526020019081526020016000208054806020026020016040519081016040528092919081815260200182805480156107f857602002820191906000526020600020905b8154815260200190600101908083116107e4575b505050505090506000815167ffffffffffffffff81111561081c5761081b612d0a565b5b60405190808252806020026020018201604052801561084a5781602001602082028036833780820191505090505b5090506000825111156108ef5760005b82518110156108ed57600083828151811061087857610877612cdb565b5b6020026020010151905060006009600083815260200190815260200160002060009054906101000a900463ffffffff169050808484815181106108be576108bd612cdb565b5b602002602001019063ffffffff16908163ffffffff1681525050505080806108e590612bca565b91505061085a565b505b8181935093505050915091565b61091783838360405180602001604052806000815250610f14565b505050565b6000806002600084815260200190815260200160002060009054906101000a900473ffffffffffffffffffffffffffffffffffffffff169050600073ffffffffffffffffffffffffffffffffffffffff168173ffffffffffffffffffffffffffffffffffffffff1614156109c5576040517f08c379a00000000000000000000000000000000000000000000000000000000081526004016109bc90612750565b60405180910390fd5b80915050919050565b6109d661127f565b73ffffffffffffffffffffffffffffffffffffffff166109f4610b8d565b73ffffffffffffffffffffffffffffffffffffffff1614610a4a576040517f08c379a0000000000000000000000000000000000000000000000000000000008152600401610a41906127b0565b60405180910390fd5b50565b60008073ffffffffffffffffffffffffffffffffffffffff168273ffffffffffffffffffffffffffffffffffffffff161415610abe576040517f08c379a0000000000000000000000000000000000000000000000000000000008152600401610ab590612730565b60405180910390fd5b600360008373ffffffffffffffffffffffffffffffffffffffff1673ffffffffffffffffffffffffffffffffffffffff168152602001908152602001600020549050919050565b610b0d61127f565b73ffffffffffffffffffffffffffffffffffffffff16610b2b610b8d565b73ffffffffffffffffffffffffffffffffffffffff1614610b81576040517f08c379a0000000000000000000000000000000000000000000000000000000008152600401610b78906127b0565b60405180910390fd5b610b8b600061167a565b565b6000600660009054906101000a900473ffffffffffffffffffffffffffffffffffffffff16905090565b606060018054610bc690612b67565b80601f0160208091040260200160405190810160405280929190818152602001828054610bf290612b67565b8015610c3f5780601f10610c1457610100808354040283529160200191610c3f565b820191906000526020600020905b815481529060010190602001808311610c2257829003601f168201915b5050505050905090565b60096020528060005260406000206000915054906101000a900463ffffffff1681565b610c7461127f565b73ffffffffffffffffffffffffffffffffffffffff168273ffffffffffffffffffffffffffffffffffffffff161415610ce2576040517f08c379a0000000000000000000000000000000000000000000000000000000008152600401610cd9906126d0565b60405180910390fd5b8060056000610cef61127f565b73ffffffffffffffffffffffffffffffffffffffff1673ffffffffffffffffffffffffffffffffffffffff16815260200190815260200160002060008473ffffffffffffffffffffffffffffffffffffffff1673ffffffffffffffffffffffffffffffffffffffff16815260200190815260200160002060006101000a81548160ff0219169083151502179055508173ffffffffffffffffffffffffffffffffffffffff16610d9c61127f565b73ffffffffffffffffffffffffffffffffffffffff167f17307eab39ab6107e8899845ad3d59bd9653f200f220920489ca2b5937696c3183604051610de19190612613565b60405180910390a35050565b6000806000600760008154610e0190612bca565b91905081905590506000610e19600880549050611740565b9050600060088263ffffffff1681548110610e3757610e36612cdb565b5b90600052602060002090600891828204019190066004029054906101000a900463ffffffff169050806009600085815260200190815260200160002060006101000a81548163ffffffff021916908363ffffffff1602179055506000339050600a60008273ffffffffffffffffffffffffffffffffffffffff1673ffffffffffffffffffffffffffffffffffffffff168152602001908152602001600020849080600181540180825580915050600190039060005260206000200160009091909190915055610f063385611785565b838295509550505050509091565b610f25610f1f61127f565b83611340565b610f64576040517f08c379a0000000000000000000000000000000000000000000000000000000008152600401610f5b90612830565b60405180910390fd5b610f7084848484611953565b50505050565b6060610f8182611213565b610fc0576040517f08c379a0000000000000000000000000000000000000000000000000000000008152600401610fb7906127f0565b60405180910390fd5b6000610fca6119af565b90506000815111610fea5760405180602001604052806000815250611015565b80610ff4846119c6565b604051602001611005929190612525565b6040516020818303038152906040525b915050919050565b6000600560008473ffffffffffffffffffffffffffffffffffffffff1673ffffffffffffffffffffffffffffffffffffffff16815260200190815260200160002060008373ffffffffffffffffffffffffffffffffffffffff1673ffffffffffffffffffffffffffffffffffffffff16815260200190815260200160002060009054906101000a900460ff16905092915050565b6110b961127f565b73ffffffffffffffffffffffffffffffffffffffff166110d7610b8d565b73ffffffffffffffffffffffffffffffffffffffff161461112d576040517f08c379a0000000000000000000000000000000000000000000000000000000008152600401611124906127b0565b60405180910390fd5b600073ffffffffffffffffffffffffffffffffffffffff168173ffffffffffffffffffffffffffffffffffffffff16141561119d576040517f08c379a000000000000000000000000000000000000000000000000000000000815260040161119490612670565b60405180910390fd5b6111a68161167a565b50565b60007f01ffc9a7000000000000000000000000000000000000000000000000000000007bffffffffffffffffffffffffffffffffffffffffffffffffffffffff1916827bffffffffffffffffffffffffffffffffffffffffffffffffffffffff1916149050919050565b60008073ffffffffffffffffffffffffffffffffffffffff166002600084815260200190815260200160002060009054906101000a900473ffffffffffffffffffffffffffffffffffffffff1673ffffffffffffffffffffffffffffffffffffffff1614159050919050565b600033905090565b816004600083815260200190815260200160002060006101000a81548173ffffffffffffffffffffffffffffffffffffffff021916908373ffffffffffffffffffffffffffffffffffffffff160217905550808273ffffffffffffffffffffffffffffffffffffffff166112fa8361091c565b73ffffffffffffffffffffffffffffffffffffffff167f8c5be1e5ebec7d5bd14f71427d1e84f3dd0314c0f7b2291e5b200ac8c7c3b92560405160405180910390a45050565b600061134b82611213565b61138a576040517f08c379a0000000000000000000000000000000000000000000000000000000008152600401611381906126f0565b60405180910390fd5b60006113958361091c565b90508073ffffffffffffffffffffffffffffffffffffffff168473ffffffffffffffffffffffffffffffffffffffff16148061140457508373ffffffffffffffffffffffffffffffffffffffff166113ec8461056d565b73ffffffffffffffffffffffffffffffffffffffff16145b806114155750611414818561101d565b5b91505092915050565b8273ffffffffffffffffffffffffffffffffffffffff1661143e8261091c565b73ffffffffffffffffffffffffffffffffffffffff1614611494576040517f08c379a000000000000000000000000000000000000000000000000000000000815260040161148b906127d0565b60405180910390fd5b600073ffffffffffffffffffffffffffffffffffffffff168273ffffffffffffffffffffffffffffffffffffffff161415611504576040517f08c379a00000000000000000000000000000000000000000000000000000000081526004016114fb906126b0565b60405180910390fd5b61150f838383611b27565b61151a600082611287565b6001600360008573ffffffffffffffffffffffffffffffffffffffff1673ffffffffffffffffffffffffffffffffffffffff168152602001908152602001600020600082825461156a9190612a6d565b925050819055506001600360008473ffffffffffffffffffffffffffffffffffffffff1673ffffffffffffffffffffffffffffffffffffffff16815260200190815260200160002060008282546115c191906129e6565b92505081905550816002600083815260200190815260200160002060006101000a81548173ffffffffffffffffffffffffffffffffffffffff021916908373ffffffffffffffffffffffffffffffffffffffff160217905550808273ffffffffffffffffffffffffffffffffffffffff168473ffffffffffffffffffffffffffffffffffffffff167fddf252ad1be2c89b69c2b068fc378daa952ba7f163c4a11628f55a4df523b3ef60405160405180910390a4505050565b6000600660009054906101000a900473ffffffffffffffffffffffffffffffffffffffff16905081600660006101000a81548173ffffffffffffffffffffffffffffffffffffffff021916908373ffffffffffffffffffffffffffffffffffffffff1602179055508173ffffffffffffffffffffffffffffffffffffffff168173ffffffffffffffffffffffffffffffffffffffff167f8be0079c531659141344cd1fd0a4f28419497f9722a3daafe3b4186f6b6457e060405160405180910390a35050565b6000804442604051602001611756929190612549565b6040516020818303038152906040528051906020012060001c9050828161177d9190612c1d565b915050919050565b600073ffffffffffffffffffffffffffffffffffffffff168273ffffffffffffffffffffffffffffffffffffffff1614156117f5576040517f08c379a00000000000000000000000000000000000000000000000000000000081526004016117ec90612770565b60405180910390fd5b6117fe81611213565b1561183e576040517f08c379a000000000000000000000000000000000000000000000000000000000815260040161183590612690565b60405180910390fd5b61184a60008383611b27565b6001600360008473ffffffffffffffffffffffffffffffffffffffff1673ffffffffffffffffffffffffffffffffffffffff168152602001908152602001600020600082825461189a91906129e6565b92505081905550816002600083815260200190815260200160002060006101000a81548173ffffffffffffffffffffffffffffffffffffffff021916908373ffffffffffffffffffffffffffffffffffffffff160217905550808273ffffffffffffffffffffffffffffffffffffffff16600073ffffffffffffffffffffffffffffffffffffffff167fddf252ad1be2c89b69c2b068fc378daa952ba7f163c4a11628f55a4df523b3ef60405160405180910390a45050565b61195e84848461141e565b61196a84848484611b2c565b6119a9576040517f08c379a00000000000000000000000000000000000000000000000000000000081526004016119a090612650565b60405180910390fd5b50505050565b606060405180602001604052806000815250905090565b60606000821415611a0e576040518060400160405280600181526020017f30000000000000000000000000000000000000000000000000000000000000008152509050611b22565b600082905060005b60008214611a40578080611a2990612bca565b915050600a82611a399190612a3c565b9150611a16565b60008167ffffffffffffffff811115611a5c57611a5b612d0a565b5b6040519080825280601f01601f191660200182016040528015611a8e5781602001600182028036833780820191505090505b5090505b60008514611b1b57600182611aa79190612a6d565b9150600a85611ab69190612c1d565b6030611ac291906129e6565b60f81b818381518110611ad857611ad7612cdb565b5b60200101907effffffffffffffffffffffffffffffffffffffffffffffffffffffffffffff1916908160001a905350600a85611b149190612a3c565b9450611a92565b8093505050505b919050565b505050565b6000611b4d8473ffffffffffffffffffffffffffffffffffffffff16611cc3565b15611cb6578373ffffffffffffffffffffffffffffffffffffffff1663150b7a02611b7661127f565b8786866040518563ffffffff1660e01b8152600401611b989493929190612590565b602060405180830381600087803b158015611bb257600080fd5b505af1925050508015611be357506040513d601f19601f82011682018060405250810190611be0919061209b565b60015b611c66573d8060008114611c13576040519150601f19603f3d011682016040523d82523d6000602084013e611c18565b606091505b50600081511415611c5e576040517f08c379a0000000000000000000000000000000000000000000000000000000008152600401611c5590612650565b60405180910390fd5b805181602001fd5b63150b7a0260e01b7bffffffffffffffffffffffffffffffffffffffffffffffffffffffff1916817bffffffffffffffffffffffffffffffffffffffffffffffffffffffff191614915050611cbb565b600190505b949350505050565b600080823b905060008111915050919050565b6000611ce9611ce4846128d4565b6128af565b90508083825260208201905082856020860282011115611d0c57611d0b612d3e565b5b60005b85811015611d3c5781611d228882611e4d565b845260208401935060208301925050600181019050611d0f565b5050509392505050565b6000611d59611d5484612900565b6128af565b905082815260208101848484011115611d7557611d74612d43565b5b611d80848285612b25565b509392505050565b600081359050611d97816131bb565b92915050565b600082601f830112611db257611db1612d39565b5b8135611dc2848260208601611cd6565b91505092915050565b600081359050611dda816131d2565b92915050565b600081359050611def816131e9565b92915050565b600081519050611e04816131e9565b92915050565b600082601f830112611e1f57611e1e612d39565b5b8135611e2f848260208601611d46565b91505092915050565b600081359050611e4781613200565b92915050565b600081359050611e5c81613217565b92915050565b600060208284031215611e7857611e77612d4d565b5b6000611e8684828501611d88565b91505092915050565b60008060408385031215611ea657611ea5612d4d565b5b6000611eb485828601611d88565b9250506020611ec585828601611d88565b9150509250929050565b600080600060608486031215611ee857611ee7612d4d565b5b6000611ef686828701611d88565b9350506020611f0786828701611d88565b9250506040611f1886828701611e38565b9150509250925092565b60008060008060808587031215611f3c57611f3b612d4d565b5b6000611f4a87828801611d88565b9450506020611f5b87828801611d88565b9350506040611f6c87828801611e38565b925050606085013567ffffffffffffffff811115611f8d57611f8c612d48565b5b611f9987828801611e0a565b91505092959194509250565b60008060408385031215611fbc57611fbb612d4d565b5b6000611fca85828601611d88565b9250506020611fdb85828601611dcb565b9150509250929050565b60008060408385031215611ffc57611ffb612d4d565b5b600061200a85828601611d88565b925050602061201b85828601611e38565b9150509250929050565b60006020828403121561203b5761203a612d4d565b5b600082013567ffffffffffffffff81111561205957612058612d48565b5b61206584828501611d9d565b91505092915050565b60006020828403121561208457612083612d4d565b5b600061209284828501611de0565b91505092915050565b6000602082840312156120b1576120b0612d4d565b5b60006120bf84828501611df5565b91505092915050565b6000602082840312156120de576120dd612d4d565b5b60006120ec84828501611e38565b91505092915050565b600061210183836124d2565b60208301905092915050565b60006121198383612507565b60208301905092915050565b61212e81612aa1565b82525050565b600061213f82612951565b6121498185612997565b935061215483612931565b8060005b8381101561218557815161216c88826120f5565b97506121778361297d565b925050600181019050612158565b5085935050505092915050565b600061219d8261295c565b6121a781856129a8565b93506121b283612941565b8060005b838110156121e35781516121ca888261210d565b97506121d58361298a565b9250506001810190506121b6565b5085935050505092915050565b6121f981612ab3565b82525050565b600061220a82612967565b61221481856129b9565b9350612224818560208601612b34565b61222d81612d52565b840191505092915050565b600061224382612972565b61224d81856129ca565b935061225d818560208601612b34565b61226681612d52565b840191505092915050565b600061227c82612972565b61228681856129db565b9350612296818560208601612b34565b80840191505092915050565b60006122af6032836129ca565b91506122ba82612d63565b604082019050919050565b60006122d26026836129ca565b91506122dd82612db2565b604082019050919050565b60006122f5601c836129ca565b915061230082612e01565b602082019050919050565b60006123186024836129ca565b915061232382612e2a565b604082019050919050565b600061233b6019836129ca565b915061234682612e79565b602082019050919050565b600061235e602c836129ca565b915061236982612ea2565b604082019050919050565b60006123816038836129ca565b915061238c82612ef1565b604082019050919050565b60006123a4602a836129ca565b91506123af82612f40565b604082019050919050565b60006123c76029836129ca565b91506123d282612f8f565b604082019050919050565b60006123ea6020836129ca565b91506123f582612fde565b602082019050919050565b600061240d602c836129ca565b915061241882613007565b604082019050919050565b60006124306020836129ca565b915061243b82613056565b602082019050919050565b60006124536029836129ca565b915061245e8261307f565b604082019050919050565b6000612476602f836129ca565b9150612481826130ce565b604082019050919050565b60006124996021836129ca565b91506124a48261311d565b604082019050919050565b60006124bc6031836129ca565b91506124c78261316c565b604082019050919050565b6124db81612b0b565b82525050565b6124ea81612b0b565b82525050565b6125016124fc82612b0b565b612c13565b82525050565b61251081612b15565b82525050565b61251f81612b15565b82525050565b60006125318285612271565b915061253d8284612271565b91508190509392505050565b600061255582856124f0565b60208201915061256582846124f0565b6020820191508190509392505050565b600060208201905061258a6000830184612125565b92915050565b60006080820190506125a56000830187612125565b6125b26020830186612125565b6125bf60408301856124e1565b81810360608301526125d181846121ff565b905095945050505050565b600060408201905081810360008301526125f68185612134565b9050818103602083015261260a8184612192565b90509392505050565b600060208201905061262860008301846121f0565b92915050565b600060208201905081810360008301526126488184612238565b905092915050565b60006020820190508181036000830152612669816122a2565b9050919050565b60006020820190508181036000830152612689816122c5565b9050919050565b600060208201905081810360008301526126a9816122e8565b9050919050565b600060208201905081810360008301526126c98161230b565b9050919050565b600060208201905081810360008301526126e98161232e565b9050919050565b6000602082019050818103600083015261270981612351565b9050919050565b6000602082019050818103600083015261272981612374565b9050919050565b6000602082019050818103600083015261274981612397565b9050919050565b60006020820190508181036000830152612769816123ba565b9050919050565b60006020820190508181036000830152612789816123dd565b9050919050565b600060208201905081810360008301526127a981612400565b9050919050565b600060208201905081810360008301526127c981612423565b9050919050565b600060208201905081810360008301526127e981612446565b9050919050565b6000602082019050818103600083015261280981612469565b9050919050565b600060208201905081810360008301526128298161248c565b9050919050565b60006020820190508181036000830152612849816124af565b9050919050565b600060208201905061286560008301846124e1565b92915050565b600060408201905061288060008301856124e1565b61288d6020830184612516565b9392505050565b60006020820190506128a96000830184612516565b92915050565b60006128b96128ca565b90506128c58282612b99565b919050565b6000604051905090565b600067ffffffffffffffff8211156128ef576128ee612d0a565b5b602082029050602081019050919050565b600067ffffffffffffffff82111561291b5761291a612d0a565b5b61292482612d52565b9050602081019050919050565b6000819050602082019050919050565b6000819050602082019050919050565b600081519050919050565b600081519050919050565b600081519050919050565b600081519050919050565b6000602082019050919050565b6000602082019050919050565b600082825260208201905092915050565b600082825260208201905092915050565b600082825260208201905092915050565b600082825260208201905092915050565b600081905092915050565b60006129f182612b0b565b91506129fc83612b0b565b9250827fffffffffffffffffffffffffffffffffffffffffffffffffffffffffffffffff03821115612a3157612a30612c4e565b5b828201905092915050565b6000612a4782612b0b565b9150612a5283612b0b565b925082612a6257612a61612c7d565b5b828204905092915050565b6000612a7882612b0b565b9150612a8383612b0b565b925082821015612a9657612a95612c4e565b5b828203905092915050565b6000612aac82612aeb565b9050919050565b60008115159050919050565b60007fffffffff0000000000000000000000000000000000000000000000000000000082169050919050565b600073ffffffffffffffffffffffffffffffffffffffff82169050919050565b6000819050919050565b600063ffffffff82169050919050565b82818337600083830152505050565b60005b83811015612b52578082015181840152602081019050612b37565b83811115612b61576000848401525b50505050565b60006002820490506001821680612b7f57607f821691505b60208210811415612b9357612b92612cac565b5b50919050565b612ba282612d52565b810181811067ffffffffffffffff82111715612bc157612bc0612d0a565b5b80604052505050565b6000612bd582612b0b565b91507fffffffffffffffffffffffffffffffffffffffffffffffffffffffffffffffff821415612c0857612c07612c4e565b5b600182019050919050565b6000819050919050565b6000612c2882612b0b565b9150612c3383612b0b565b925082612c4357612c42612c7d565b5b828206905092915050565b7f4e487b7100000000000000000000000000000000000000000000000000000000600052601160045260246000fd5b7f4e487b7100000000000000000000000000000000000000000000000000000000600052601260045260246000fd5b7f4e487b7100000000000000000000000000000000000000000000000000000000600052602260045260246000fd5b7f4e487b7100000000000000000000000000000000000000000000000000000000600052603260045260246000fd5b7f4e487b7100000000000000000000000000000000000000000000000000000000600052604160045260246000fd5b600080fd5b600080fd5b600080fd5b600080fd5b600080fd5b6000601f19601f8301169050919050565b7f4552433732313a207472616e7366657220746f206e6f6e20455243373231526560008201527f63656976657220696d706c656d656e7465720000000000000000000000000000602082015250565b7f4f776e61626c653a206e6577206f776e657220697320746865207a65726f206160008201527f6464726573730000000000000000000000000000000000000000000000000000602082015250565b7f4552433732313a20746f6b656e20616c7265616479206d696e74656400000000600082015250565b7f4552433732313a207472616e7366657220746f20746865207a65726f2061646460008201527f7265737300000000000000000000000000000000000000000000000000000000602082015250565b7f4552433732313a20617070726f766520746f2063616c6c657200000000000000600082015250565b7f4552433732313a206f70657261746f7220717565727920666f72206e6f6e657860008201527f697374656e7420746f6b656e0000000000000000000000000000000000000000602082015250565b7f4552433732313a20617070726f76652063616c6c6572206973206e6f74206f7760008201527f6e6572206e6f7220617070726f76656420666f7220616c6c0000000000000000602082015250565b7f4552433732313a2062616c616e636520717565727920666f7220746865207a6560008201527f726f206164647265737300000000000000000000000000000000000000000000602082015250565b7f4552433732313a206f776e657220717565727920666f72206e6f6e657869737460008201527f656e7420746f6b656e0000000000000000000000000000000000000000000000602082015250565b7f4552433732313a206d696e7420746f20746865207a65726f2061646472657373600082015250565b7f4552433732313a20617070726f76656420717565727920666f72206e6f6e657860008201527f697374656e7420746f6b656e0000000000000000000000000000000000000000602082015250565b7f4f776e61626c653a2063616c6c6572206973206e6f7420746865206f776e6572600082015250565b7f4552433732313a207472616e73666572206f6620746f6b656e2074686174206960008201527f73206e6f74206f776e0000000000000000000000000000000000000000000000602082015250565b7f4552433732314d657461646174613a2055524920717565727920666f72206e6f60008201527f6e6578697374656e7420746f6b656e0000000000000000000000000000000000602082015250565b7f4552433732313a20617070726f76616c20746f2063757272656e74206f776e6560008201527f7200000000000000000000000000000000000000000000000000000000000000602082015250565b7f4552433732313a207472616e736665722063616c6c6572206973206e6f74206f60008201527f776e6572206e6f7220617070726f766564000000000000000000000000000000602082015250565b6131c481612aa1565b81146131cf57600080fd5b50565b6131db81612ab3565b81146131e657600080fd5b50565b6131f281612abf565b81146131fd57600080fd5b50565b61320981612b0b565b811461321457600080fd5b50565b61322081612b15565b811461322b57600080fd5b5056fea2646970667358221220f4f936b6695e6d38246071dbdf5ab96882b766b981dd58ee2fb8f9e1080be8d664736f6c63430008070033",
  "immutableReferences": {},
  "source": "// SPDX-License-Identifier: SimPL-2.0\r\npragma solidity ^0.8.0;\r\n\r\nimport \"openzeppelin-solidity/contracts/token/ERC721/ERC721.sol\";\r\nimport \"openzeppelin-solidity/contracts/access/Ownable.sol\";\r\n\r\n\r\n/**  */\r\ncontract NFTToken is ERC721,Ownable {\r\n\r\n    //tokenID\r\n    uint256 private countor = 0;\r\n\r\n    //\r\n    uint32[] private playerPool;\r\n\r\n    // tokenId => player_id\r\n    mapping(uint256 => uint32) public cardDB;\r\n    //tokens\r\n    mapping(address => uint256[]) private tokenDB;\r\n\r\n\r\n    constructor() ERC721(\"FM Token Card\", \"FMC\") {\r\n        playerPool = [2080103,15802303,17658003,16749503,19087103,18854503,18327703,19298503,19308003,18252103];\r\n    }\r\n\r\n    /**  */\r\n    function setPlayerPool(uint32[] memory) public onlyOwner {}\r\n\r\n    /**  */\r\n    function createCard() public returns (uint256, uint32) {\r\n        uint256 _tokenId = ++countor;\r\n\r\n        //\r\n        uint32 _index = rand(playerPool.length);\r\n        uint32 _player_id = playerPool[_index];\r\n        cardDB[_tokenId] = _player_id;\r\n\r\n        //token\r\n        address _addr = msg.sender;\r\n        tokenDB[_addr].push(_tokenId);\r\n\r\n        super._mint(msg.sender, _tokenId);\r\n        return (_tokenId, _player_id);\r\n    }\r\n\r\n    /**  */\r\n    function getMyCards(address _addr) public view returns ( uint256[] memory, uint32[] memory) {\r\n        uint256[] memory _tokens = tokenDB[_addr];\r\n        uint32[] memory _player_ids = new uint32[](_tokens.length);\r\n\r\n        if (_tokens.length > 0) {\r\n            for (uint i=0; i<_tokens.length; i++) {\r\n                uint256 _tokenId = _tokens[i];\r\n                uint32  _player_id = cardDB[ _tokenId ];\r\n                _player_ids[i] = _player_id;\r\n            }\r\n        }\r\n\r\n        return (_tokens, _player_ids);\r\n    }\r\n\r\n    function rand(uint256 _length) private view returns(uint32) {\r\n        uint256 random = uint256(keccak256(abi.encodePacked(block.difficulty, block.timestamp)));\r\n        return uint32(random % _length);\r\n    }\r\n}",
  "sourcePath": "D:\\solidity\\sol-test1\\contracts\\NFTToken.sol",
  "compiler": {
    "name": "solc",
    "version": "0.8.7+commit.e28d00a7.Emscripten.clang"
  },
  "schemaVersion": "3.4.3",
  "updatedAt": "2021-09-18T06:49:10.256Z",
  "devdoc": {
    "kind": "dev",
    "methods": {
      "approve(address,uint256)": {
        "details": "See {IERC721-approve}."
      },
      "balanceOf(address)": {
        "details": "See {IERC721-balanceOf}."
      },
      "getApproved(uint256)": {
        "details": "See {IERC721-getApproved}."
      },
      "isApprovedForAll(address,address)": {
        "details": "See {IERC721-isApprovedForAll}."
      },
      "name()": {
        "details": "See {IERC721Metadata-name}."
      },
      "owner()": {
        "details": "Returns the address of the current owner."
      },
      "ownerOf(uint256)": {
        "details": "See {IERC721-ownerOf}."
      },
      "renounceOwnership()": {
        "details": "Leaves the contract without owner. It will not be possible to call `onlyOwner` functions anymore. Can only be called by the current owner. NOTE: Renouncing ownership will leave the contract without an owner, thereby removing any functionality that is only available to the owner."
      },
      "safeTransferFrom(address,address,uint256)": {
        "details": "See {IERC721-safeTransferFrom}."
      },
      "safeTransferFrom(address,address,uint256,bytes)": {
        "details": "See {IERC721-safeTransferFrom}."
      },
      "setApprovalForAll(address,bool)": {
        "details": "See {IERC721-setApprovalForAll}."
      },
      "supportsInterface(bytes4)": {
        "details": "See {IERC165-supportsInterface}."
      },
      "symbol()": {
        "details": "See {IERC721Metadata-symbol}."
      },
      "tokenURI(uint256)": {
        "details": "See {IERC721Metadata-tokenURI}."
      },
      "transferFrom(address,address,uint256)": {
        "details": "See {IERC721-transferFrom}."
      },
      "transferOwnership(address)": {
        "details": "Transfers ownership of the contract to a new account (`newOwner`). Can only be called by the current owner."
      }
    },
    "version": 1
  },
  "userdoc": {
    "kind": "user",
    "methods": {
      "createCard()": {
        "notice": " "
      },
      "getMyCards(address)": {
        "notice": " "
      },
      "setPlayerPool(uint32[])": {
        "notice": " "
      }
    },
    "notice": " ",
    "version": 1
  }
}