{
  "contractName": "Stake",
  "abi": [
    {
      "anonymous": false,
      "inputs": [
        {
          "indexed": true,
          "internalType": "address",
          "name": "previousOwner",
          "type": "address"
        },
        {
          "indexed": true,
          "internalType": "address",
          "name": "newOwner",
          "type": "address"
        }
      ],
      "name": "OwnershipTransferred",
      "type": "event"
    },
    {
      "anonymous": false,
      "inputs": [
        {
          "indexed": false,
          "internalType": "uint256",
          "name": "_token",
          "type": "uint256"
        }
      ],
      "name": "onStake",
      "type": "event"
    },
    {
      "inputs": [],
      "name": "owner",
      "outputs": [
        {
          "internalType": "address",
          "name": "",
          "type": "address"
        }
      ],
      "stateMutability": "view",
      "type": "function"
    },
    {
      "inputs": [],
      "name": "renounceOwnership",
      "outputs": [],
      "stateMutability": "nonpayable",
      "type": "function"
    },
    {
      "inputs": [
        {
          "internalType": "address",
          "name": "newOwner",
          "type": "address"
        }
      ],
      "name": "transferOwnership",
      "outputs": [],
      "stateMutability": "nonpayable",
      "type": "function"
    },
    {
      "inputs": [
        {
          "internalType": "contract Gold",
          "name": "_gold",
          "type": "address"
        },
        {
          "internalType": "contract NftHero",
          "name": "_NftHero",
          "type": "address"
        }
      ],
      "name": "initialize",
      "outputs": [],
      "stateMutability": "nonpayable",
      "type": "function"
    },
    {
      "inputs": [
        {
          "internalType": "uint256",
          "name": "_token",
          "type": "uint256"
        }
      ],
      "name": "stakeHero",
      "outputs": [],
      "stateMutability": "nonpayable",
      "type": "function"
    },
    {
      "inputs": [],
      "name": "reviewStaked",
      "outputs": [
        {
          "internalType": "uint256[]",
          "name": "_tokens",
          "type": "uint256[]"
        },
        {
          "internalType": "uint256[]",
          "name": "_award",
          "type": "uint256[]"
        }
      ],
      "stateMutability": "view",
      "type": "function"
    },
    {
      "inputs": [
        {
          "internalType": "uint256",
          "name": "_token",
          "type": "uint256"
        }
      ],
      "name": "earn",
      "outputs": [
        {
          "internalType": "uint256",
          "name": "_goldNum",
          "type": "uint256"
        }
      ],
      "stateMutability": "nonpayable",
      "type": "function"
    },
    {
      "inputs": [
        {
          "internalType": "uint256",
          "name": "_token",
          "type": "uint256"
        }
      ],
      "name": "unstake",
      "outputs": [],
      "stateMutability": "nonpayable",
      "type": "function"
    }
  ],
  "bytecode": "0x608060405234801561001057600080fd5b50610dee806100206000396000f3fe608060405234801561001057600080fd5b50600436106100885760003560e01c80638da5cb5b1161005b5780638da5cb5b146100ee578063c51fadaf1461010c578063e65a011714610128578063f2fde38b1461015857610088565b80632e17de781461008d57806343dd3a31146100a9578063485cc955146100c8578063715018a6146100e4575b600080fd5b6100a760048036038101906100a29190610880565b610174565b005b6100b1610177565b6040516100bf929190610a2e565b60405180910390f35b6100e260048036038101906100dd9190610840565b61017d565b005b6100ec6102da565b005b6100f6610362565b60405161010391906109dc565b60405180910390f35b61012660048036038101906101219190610880565b61038c565b005b610142600480360381019061013d9190610880565b610546565b60405161014f9190610ae5565b60405180910390f35b610172600480360381019061016d91906107e6565b6105b7565b005b50565b60608091565b600060019054906101000a900460ff16806101a3575060008054906101000a900460ff16155b6101e2576040517f08c379a00000000000000000000000000000000000000000000000000000000081526004016101d990610a85565b60405180910390fd5b60008060019054906101000a900460ff161590508015610232576001600060016101000a81548160ff02191690831515021790555060016000806101000a81548160ff0219169083151502179055505b82606560006101000a81548173ffffffffffffffffffffffffffffffffffffffff021916908373ffffffffffffffffffffffffffffffffffffffff16021790555081606660006101000a81548173ffffffffffffffffffffffffffffffffffffffff021916908373ffffffffffffffffffffffffffffffffffffffff16021790555080156102d55760008060016101000a81548160ff0219169083151502179055505b505050565b6102e26106af565b73ffffffffffffffffffffffffffffffffffffffff16610300610362565b73ffffffffffffffffffffffffffffffffffffffff1614610356576040517f08c379a000000000000000000000000000000000000000000000000000000000815260040161034d90610aa5565b60405180910390fd5b61036060006106b7565b565b6000603360009054906101000a900473ffffffffffffffffffffffffffffffffffffffff16905090565b6103946106af565b73ffffffffffffffffffffffffffffffffffffffff16606660009054906101000a900473ffffffffffffffffffffffffffffffffffffffff1673ffffffffffffffffffffffffffffffffffffffff16636352211e836040518263ffffffff1660e01b81526004016104059190610ae5565b60206040518083038186803b15801561041d57600080fd5b505afa158015610431573d6000803e3d6000fd5b505050506040513d601f19601f820116820180604052508101906104559190610813565b73ffffffffffffffffffffffffffffffffffffffff16146104ab576040517f08c379a00000000000000000000000000000000000000000000000000000000081526004016104a290610ac5565b60405180910390fd5b606660009054906101000a900473ffffffffffffffffffffffffffffffffffffffff1673ffffffffffffffffffffffffffffffffffffffff166342842e0e6104f16106af565b30846040518463ffffffff1660e01b8152600401610511939291906109f7565b600060405180830381600087803b15801561052b57600080fd5b505af115801561053f573d6000803e3d6000fd5b5050505050565b60008060676000848152602001908152602001600020541161056757600080fd5b60006067600084815260200190815260200160002054426105889190610ba4565b9050600a816105979190610b4a565b915042606760008581526020019081526020016000208190555050919050565b6105bf6106af565b73ffffffffffffffffffffffffffffffffffffffff166105dd610362565b73ffffffffffffffffffffffffffffffffffffffff1614610633576040517f08c379a000000000000000000000000000000000000000000000000000000000815260040161062a90610aa5565b60405180910390fd5b600073ffffffffffffffffffffffffffffffffffffffff168173ffffffffffffffffffffffffffffffffffffffff1614156106a3576040517f08c379a000000000000000000000000000000000000000000000000000000000815260040161069a90610a65565b60405180910390fd5b6106ac816106b7565b50565b600033905090565b6000603360009054906101000a900473ffffffffffffffffffffffffffffffffffffffff16905081603360006101000a81548173ffffffffffffffffffffffffffffffffffffffff021916908373ffffffffffffffffffffffffffffffffffffffff1602179055508173ffffffffffffffffffffffffffffffffffffffff168173ffffffffffffffffffffffffffffffffffffffff167f8be0079c531659141344cd1fd0a4f28419497f9722a3daafe3b4186f6b6457e060405160405180910390a35050565b60008135905061078c81610d5c565b92915050565b6000815190506107a181610d5c565b92915050565b6000813590506107b681610d73565b92915050565b6000813590506107cb81610d8a565b92915050565b6000813590506107e081610da1565b92915050565b6000602082840312156107fc576107fb610c67565b5b600061080a8482850161077d565b91505092915050565b60006020828403121561082957610828610c67565b5b600061083784828501610792565b91505092915050565b6000806040838503121561085757610856610c67565b5b6000610865858286016107a7565b9250506020610876858286016107bc565b9150509250929050565b60006020828403121561089657610895610c67565b5b60006108a4848285016107d1565b91505092915050565b60006108b983836109be565b60208301905092915050565b6108ce81610bd8565b82525050565b60006108df82610b10565b6108e98185610b28565b93506108f483610b00565b8060005b8381101561092557815161090c88826108ad565b975061091783610b1b565b9250506001810190506108f8565b5085935050505092915050565b600061093f602683610b39565b915061094a82610c6c565b604082019050919050565b6000610962602e83610b39565b915061096d82610cbb565b604082019050919050565b6000610985602083610b39565b915061099082610d0a565b602082019050919050565b60006109a8601683610b39565b91506109b382610d33565b602082019050919050565b6109c781610c2e565b82525050565b6109d681610c2e565b82525050565b60006020820190506109f160008301846108c5565b92915050565b6000606082019050610a0c60008301866108c5565b610a1960208301856108c5565b610a2660408301846109cd565b949350505050565b60006040820190508181036000830152610a4881856108d4565b90508181036020830152610a5c81846108d4565b90509392505050565b60006020820190508181036000830152610a7e81610932565b9050919050565b60006020820190508181036000830152610a9e81610955565b9050919050565b60006020820190508181036000830152610abe81610978565b9050919050565b60006020820190508181036000830152610ade8161099b565b9050919050565b6000602082019050610afa60008301846109cd565b92915050565b6000819050602082019050919050565b600081519050919050565b6000602082019050919050565b600082825260208201905092915050565b600082825260208201905092915050565b6000610b5582610c2e565b9150610b6083610c2e565b9250817fffffffffffffffffffffffffffffffffffffffffffffffffffffffffffffffff0483118215151615610b9957610b98610c38565b5b828202905092915050565b6000610baf82610c2e565b9150610bba83610c2e565b925082821015610bcd57610bcc610c38565b5b828203905092915050565b6000610be382610c0e565b9050919050565b6000610bf582610bd8565b9050919050565b6000610c0782610bd8565b9050919050565b600073ffffffffffffffffffffffffffffffffffffffff82169050919050565b6000819050919050565b7f4e487b7100000000000000000000000000000000000000000000000000000000600052601160045260246000fd5b600080fd5b7f4f776e61626c653a206e6577206f776e657220697320746865207a65726f206160008201527f6464726573730000000000000000000000000000000000000000000000000000602082015250565b7f496e697469616c697a61626c653a20636f6e747261637420697320616c72656160008201527f647920696e697469616c697a6564000000000000000000000000000000000000602082015250565b7f4f776e61626c653a2063616c6c6572206973206e6f7420746865206f776e6572600082015250565b7f54686174206973206e6f7420796f757220746f6b656e00000000000000000000600082015250565b610d6581610bd8565b8114610d7057600080fd5b50565b610d7c81610bea565b8114610d8757600080fd5b50565b610d9381610bfc565b8114610d9e57600080fd5b50565b610daa81610c2e565b8114610db557600080fd5b5056fea2646970667358221220ca963f4c64b8f3dbb7fc7b1620e006490d403d5e04c95d9cf23ba787675cf25064736f6c63430008070033",
  "immutableReferences": {},
  "source": "// SPDX-License-Identifier: MIT\r\npragma solidity ^0.8.0;\r\n\r\nimport \"@openzeppelin/contracts-upgradeable/access/OwnableUpgradeable.sol\";\r\nimport \"./NftHero.sol\";\r\nimport \"./Gold.sol\";\r\n\r\n/** NFT */\r\ncontract Stake is OwnableUpgradeable {\r\n\r\n    Gold goldInstance;\r\n    NftHero nftHeroInst;\r\n\r\n    //nft\r\n    mapping(uint256 => uint256) tokenStaketime;\r\n    //nft\r\n    mapping(address => uint256) userToken;\r\n\r\n    function initialize(Gold _gold, NftHero _NftHero) public initializer {\r\n        goldInstance = _gold;\r\n        nftHeroInst = _NftHero;\r\n    }\r\n\r\n    /**  */\r\n    function stakeHero(uint256 _token) public {\r\n        require(nftHeroInst.ownerOf(_token) == _msgSender(), \"That is not your token\");\r\n        nftHeroInst.safeTransferFrom(_msgSender(), address(this), _token);\r\n        \r\n    }\r\n\r\n    /**  */\r\n    function reviewStaked() public view returns (uint256[] memory _tokens, uint256[] memory _award) {\r\n\r\n    }\r\n\r\n    /**  */\r\n    function earn(uint256 _token) public returns (uint256 _goldNum) {\r\n        require(tokenStaketime[_token] > 0);\r\n\r\n        uint256 ontime = block.timestamp - tokenStaketime[_token];\r\n        _goldNum = ontime * 10 ;\r\n\r\n        tokenStaketime[_token] = block.timestamp;\r\n    }\r\n\r\n    /**  */\r\n    function unstake(uint256 _token) public {\r\n\r\n    }\r\n\r\n    event onStake(uint256 _token);\r\n}",
  "sourcePath": "D:\\solidity\\sol-test1\\contracts\\Stake.sol",
  "compiler": {
    "name": "solc",
    "version": "0.8.7+commit.e28d00a7.Emscripten.clang"
  },
  "schemaVersion": "3.4.3",
  "updatedAt": "2021-10-21T07:53:06.967Z",
  "devdoc": {
    "kind": "dev",
    "methods": {
      "owner()": {
        "details": "Returns the address of the current owner."
      },
      "renounceOwnership()": {
        "details": "Leaves the contract without owner. It will not be possible to call `onlyOwner` functions anymore. Can only be called by the current owner. NOTE: Renouncing ownership will leave the contract without an owner, thereby removing any functionality that is only available to the owner."
      },
      "transferOwnership(address)": {
        "details": "Transfers ownership of the contract to a new account (`newOwner`). Can only be called by the current owner."
      }
    },
    "version": 1
  },
  "userdoc": {
    "kind": "user",
    "methods": {
      "earn(uint256)": {
        "notice": " "
      },
      "reviewStaked()": {
        "notice": " "
      },
      "stakeHero(uint256)": {
        "notice": " "
      },
      "unstake(uint256)": {
        "notice": " "
      }
    },
    "notice": "NFT ",
    "version": 1
  }
}