{
  "contractName": "Stake",
  "abi": [
    {
      "inputs": [
        {
          "internalType": "contract Gold",
          "name": "_gold",
          "type": "address"
        },
        {
          "internalType": "contract NftPlayer",
          "name": "_nftPlayer",
          "type": "address"
        }
      ],
      "stateMutability": "nonpayable",
      "type": "constructor"
    },
    {
      "anonymous": false,
      "inputs": [
        {
          "indexed": true,
          "internalType": "address",
          "name": "previousOwner",
          "type": "address"
        },
        {
          "indexed": true,
          "internalType": "address",
          "name": "newOwner",
          "type": "address"
        }
      ],
      "name": "OwnershipTransferred",
      "type": "event"
    },
    {
      "anonymous": false,
      "inputs": [
        {
          "indexed": false,
          "internalType": "uint256",
          "name": "_token",
          "type": "uint256"
        }
      ],
      "name": "onStake",
      "type": "event"
    },
    {
      "inputs": [],
      "name": "owner",
      "outputs": [
        {
          "internalType": "address",
          "name": "",
          "type": "address"
        }
      ],
      "stateMutability": "view",
      "type": "function"
    },
    {
      "inputs": [],
      "name": "renounceOwnership",
      "outputs": [],
      "stateMutability": "nonpayable",
      "type": "function"
    },
    {
      "inputs": [
        {
          "internalType": "address",
          "name": "newOwner",
          "type": "address"
        }
      ],
      "name": "transferOwnership",
      "outputs": [],
      "stateMutability": "nonpayable",
      "type": "function"
    },
    {
      "inputs": [
        {
          "internalType": "uint256",
          "name": "_token",
          "type": "uint256"
        }
      ],
      "name": "stake",
      "outputs": [],
      "stateMutability": "nonpayable",
      "type": "function"
    },
    {
      "inputs": [],
      "name": "reviewStaked",
      "outputs": [
        {
          "internalType": "uint256[]",
          "name": "_tokens",
          "type": "uint256[]"
        },
        {
          "internalType": "uint256[]",
          "name": "_award",
          "type": "uint256[]"
        }
      ],
      "stateMutability": "view",
      "type": "function"
    },
    {
      "inputs": [
        {
          "internalType": "uint256",
          "name": "_token",
          "type": "uint256"
        }
      ],
      "name": "earn",
      "outputs": [
        {
          "internalType": "uint256",
          "name": "_goldNum",
          "type": "uint256"
        }
      ],
      "stateMutability": "nonpayable",
      "type": "function"
    },
    {
      "inputs": [
        {
          "internalType": "uint256",
          "name": "_token",
          "type": "uint256"
        }
      ],
      "name": "unstake",
      "outputs": [],
      "stateMutability": "nonpayable",
      "type": "function"
    }
  ],
  "bytecode": "0x60806040523480156200001157600080fd5b5060405162000b4438038062000b448339818101604052810190620000379190620001db565b620000576200004b620000e160201b60201c565b620000e960201b60201c565b81600160006101000a81548173ffffffffffffffffffffffffffffffffffffffff021916908373ffffffffffffffffffffffffffffffffffffffff16021790555080600260006101000a81548173ffffffffffffffffffffffffffffffffffffffff021916908373ffffffffffffffffffffffffffffffffffffffff1602179055505050620002b7565b600033905090565b60008060009054906101000a900473ffffffffffffffffffffffffffffffffffffffff169050816000806101000a81548173ffffffffffffffffffffffffffffffffffffffff021916908373ffffffffffffffffffffffffffffffffffffffff1602179055508173ffffffffffffffffffffffffffffffffffffffff168173ffffffffffffffffffffffffffffffffffffffff167f8be0079c531659141344cd1fd0a4f28419497f9722a3daafe3b4186f6b6457e060405160405180910390a35050565b600081519050620001be8162000283565b92915050565b600081519050620001d5816200029d565b92915050565b60008060408385031215620001f557620001f46200027e565b5b60006200020585828601620001ad565b92505060206200021885828601620001c4565b9150509250929050565b60006200022f826200025e565b9050919050565b6000620002438262000222565b9050919050565b6000620002578262000222565b9050919050565b600073ffffffffffffffffffffffffffffffffffffffff82169050919050565b600080fd5b6200028e8162000236565b81146200029a57600080fd5b50565b620002a8816200024a565b8114620002b457600080fd5b50565b61087d80620002c76000396000f3fe608060405234801561001057600080fd5b506004361061007d5760003560e01c80638da5cb5b1161005b5780638da5cb5b146100c7578063a694fc3a146100e5578063e65a011714610101578063f2fde38b146101315761007d565b80632e17de781461008257806343dd3a311461009e578063715018a6146100bd575b600080fd5b61009c60048036038101906100979190610496565b61014d565b005b6100a6610150565b6040516100b49291906105c7565b60405180910390f35b6100c5610156565b005b6100cf6101de565b6040516100dc91906105ac565b60405180910390f35b6100ff60048036038101906100fa9190610496565b610207565b005b61011b60048036038101906101169190610496565b61020a565b604051610128919061063e565b60405180910390f35b61014b60048036038101906101469190610469565b61027b565b005b50565b60608091565b61015e610373565b73ffffffffffffffffffffffffffffffffffffffff1661017c6101de565b73ffffffffffffffffffffffffffffffffffffffff16146101d2576040517f08c379a00000000000000000000000000000000000000000000000000000000081526004016101c99061061e565b60405180910390fd5b6101dc600061037b565b565b60008060009054906101000a900473ffffffffffffffffffffffffffffffffffffffff16905090565b50565b60008060036000848152602001908152602001600020541161022b57600080fd5b600060036000848152602001908152602001600020544261024c91906106fd565b9050600a8161025b91906106a3565b915042600360008581526020019081526020016000208190555050919050565b610283610373565b73ffffffffffffffffffffffffffffffffffffffff166102a16101de565b73ffffffffffffffffffffffffffffffffffffffff16146102f7576040517f08c379a00000000000000000000000000000000000000000000000000000000081526004016102ee9061061e565b60405180910390fd5b600073ffffffffffffffffffffffffffffffffffffffff168173ffffffffffffffffffffffffffffffffffffffff161415610367576040517f08c379a000000000000000000000000000000000000000000000000000000000815260040161035e906105fe565b60405180910390fd5b6103708161037b565b50565b600033905090565b60008060009054906101000a900473ffffffffffffffffffffffffffffffffffffffff169050816000806101000a81548173ffffffffffffffffffffffffffffffffffffffff021916908373ffffffffffffffffffffffffffffffffffffffff1602179055508173ffffffffffffffffffffffffffffffffffffffff168173ffffffffffffffffffffffffffffffffffffffff167f8be0079c531659141344cd1fd0a4f28419497f9722a3daafe3b4186f6b6457e060405160405180910390a35050565b60008135905061044e81610819565b92915050565b60008135905061046381610830565b92915050565b60006020828403121561047f5761047e61079c565b5b600061048d8482850161043f565b91505092915050565b6000602082840312156104ac576104ab61079c565b5b60006104ba84828501610454565b91505092915050565b60006104cf838361058e565b60208301905092915050565b6104e481610731565b82525050565b60006104f582610669565b6104ff8185610681565b935061050a83610659565b8060005b8381101561053b57815161052288826104c3565b975061052d83610674565b92505060018101905061050e565b5085935050505092915050565b6000610555602683610692565b9150610560826107a1565b604082019050919050565b6000610578602083610692565b9150610583826107f0565b602082019050919050565b61059781610763565b82525050565b6105a681610763565b82525050565b60006020820190506105c160008301846104db565b92915050565b600060408201905081810360008301526105e181856104ea565b905081810360208301526105f581846104ea565b90509392505050565b6000602082019050818103600083015261061781610548565b9050919050565b600060208201905081810360008301526106378161056b565b9050919050565b6000602082019050610653600083018461059d565b92915050565b6000819050602082019050919050565b600081519050919050565b6000602082019050919050565b600082825260208201905092915050565b600082825260208201905092915050565b60006106ae82610763565b91506106b983610763565b9250817fffffffffffffffffffffffffffffffffffffffffffffffffffffffffffffffff04831182151516156106f2576106f161076d565b5b828202905092915050565b600061070882610763565b915061071383610763565b9250828210156107265761072561076d565b5b828203905092915050565b600061073c82610743565b9050919050565b600073ffffffffffffffffffffffffffffffffffffffff82169050919050565b6000819050919050565b7f4e487b7100000000000000000000000000000000000000000000000000000000600052601160045260246000fd5b600080fd5b7f4f776e61626c653a206e6577206f776e657220697320746865207a65726f206160008201527f6464726573730000000000000000000000000000000000000000000000000000602082015250565b7f4f776e61626c653a2063616c6c6572206973206e6f7420746865206f776e6572600082015250565b61082281610731565b811461082d57600080fd5b50565b61083981610763565b811461084457600080fd5b5056fea2646970667358221220255d73884009e29184f291b038fff28109cf0fac53a3c6526cecb581e7c39cff64736f6c63430008070033",
  "immutableReferences": {},
  "source": "// SPDX-License-Identifier: MIT\r\npragma solidity ^0.8.0;\r\n\r\nimport \"openzeppelin-solidity/contracts/access/Ownable.sol\";\r\nimport \"./NftPlayer.sol\";\r\nimport \"./Gold.sol\";\r\n\r\n/** NFT */\r\ncontract Stake is Ownable {\r\n\r\n    Gold goldInstance;\r\n    NftPlayer playerInstance;\r\n\r\n    //nft\r\n    mapping(uint256 => uint256) tokenStaketime;\r\n    //nft\r\n    mapping(address => uint256) userToken;\r\n\r\n    constructor(Gold _gold, NftPlayer _nftPlayer) {\r\n        goldInstance = _gold;\r\n        playerInstance = _nftPlayer;\r\n    }\r\n\r\n    /**  */\r\n    function stake(uint256 _token) public {\r\n        \r\n    }\r\n\r\n    /**  */\r\n    function reviewStaked() public view returns (uint256[] memory _tokens, uint256[] memory _award) {\r\n\r\n    }\r\n\r\n    /**  */\r\n    function earn(uint256 _token) public returns (uint256 _goldNum) {\r\n        require(tokenStaketime[_token] > 0);\r\n\r\n        uint256 ontime = block.timestamp - tokenStaketime[_token];\r\n        _goldNum = ontime * 10 ;\r\n\r\n        tokenStaketime[_token] = block.timestamp;\r\n    }\r\n\r\n    /**  */\r\n    function unstake(uint256 _token) public {\r\n\r\n    }\r\n\r\n    event onStake(uint256 _token);\r\n}",
  "sourcePath": "D:\\solidity\\sol-test1\\contracts\\Stake.sol",
  "compiler": {
    "name": "solc",
    "version": "0.8.7+commit.e28d00a7.Emscripten.clang"
  },
  "schemaVersion": "3.4.3",
  "updatedAt": "2021-09-30T06:41:17.140Z",
  "devdoc": {
    "kind": "dev",
    "methods": {
      "owner()": {
        "details": "Returns the address of the current owner."
      },
      "renounceOwnership()": {
        "details": "Leaves the contract without owner. It will not be possible to call `onlyOwner` functions anymore. Can only be called by the current owner. NOTE: Renouncing ownership will leave the contract without an owner, thereby removing any functionality that is only available to the owner."
      },
      "transferOwnership(address)": {
        "details": "Transfers ownership of the contract to a new account (`newOwner`). Can only be called by the current owner."
      }
    },
    "version": 1
  },
  "userdoc": {
    "kind": "user",
    "methods": {
      "earn(uint256)": {
        "notice": " "
      },
      "reviewStaked()": {
        "notice": " "
      },
      "stake(uint256)": {
        "notice": " "
      },
      "unstake(uint256)": {
        "notice": " "
      }
    },
    "notice": "NFT ",
    "version": 1
  }
}