{
  "contractName": "Stake",
  "abi": [
    {
      "anonymous": false,
      "inputs": [
        {
          "indexed": true,
          "internalType": "address",
          "name": "previousOwner",
          "type": "address"
        },
        {
          "indexed": true,
          "internalType": "address",
          "name": "newOwner",
          "type": "address"
        }
      ],
      "name": "OwnershipTransferred",
      "type": "event"
    },
    {
      "anonymous": false,
      "inputs": [
        {
          "indexed": true,
          "internalType": "address",
          "name": "staker",
          "type": "address"
        },
        {
          "indexed": false,
          "internalType": "uint256",
          "name": "tokenId",
          "type": "uint256"
        },
        {
          "indexed": false,
          "internalType": "uint256",
          "name": "stakeAmount",
          "type": "uint256"
        },
        {
          "indexed": false,
          "internalType": "uint256",
          "name": "fromBlock",
          "type": "uint256"
        },
        {
          "indexed": false,
          "internalType": "uint256",
          "name": "toBlock",
          "type": "uint256"
        }
      ],
      "name": "StakePayout",
      "type": "event"
    },
    {
      "anonymous": false,
      "inputs": [
        {
          "indexed": true,
          "internalType": "address",
          "name": "staker",
          "type": "address"
        },
        {
          "indexed": false,
          "internalType": "uint256",
          "name": "tokenId",
          "type": "uint256"
        },
        {
          "indexed": false,
          "internalType": "uint256",
          "name": "blockNumber",
          "type": "uint256"
        }
      ],
      "name": "onNftStake",
      "type": "event"
    },
    {
      "anonymous": false,
      "inputs": [
        {
          "indexed": true,
          "internalType": "address",
          "name": "staker",
          "type": "address"
        },
        {
          "indexed": false,
          "internalType": "uint256",
          "name": "tokenId",
          "type": "uint256"
        },
        {
          "indexed": false,
          "internalType": "uint256",
          "name": "blockNumber",
          "type": "uint256"
        }
      ],
      "name": "onNftUnStaked",
      "type": "event"
    },
    {
      "inputs": [],
      "name": "owner",
      "outputs": [
        {
          "internalType": "address",
          "name": "",
          "type": "address"
        }
      ],
      "stateMutability": "view",
      "type": "function",
      "constant": true
    },
    {
      "inputs": [
        {
          "internalType": "uint256",
          "name": "",
          "type": "uint256"
        }
      ],
      "name": "receipt",
      "outputs": [
        {
          "internalType": "uint256",
          "name": "tokenId",
          "type": "uint256"
        },
        {
          "internalType": "uint256",
          "name": "stakedFromBlock",
          "type": "uint256"
        },
        {
          "internalType": "address",
          "name": "owner",
          "type": "address"
        },
        {
          "internalType": "uint256",
          "name": "blockBonus",
          "type": "uint256"
        }
      ],
      "stateMutability": "view",
      "type": "function",
      "constant": true
    },
    {
      "inputs": [],
      "name": "renounceOwnership",
      "outputs": [],
      "stateMutability": "nonpayable",
      "type": "function"
    },
    {
      "inputs": [
        {
          "internalType": "address",
          "name": "newOwner",
          "type": "address"
        }
      ],
      "name": "transferOwnership",
      "outputs": [],
      "stateMutability": "nonpayable",
      "type": "function"
    },
    {
      "inputs": [
        {
          "internalType": "address",
          "name": "_gold",
          "type": "address"
        },
        {
          "internalType": "address",
          "name": "_NftHero",
          "type": "address"
        }
      ],
      "name": "initialize",
      "outputs": [],
      "stateMutability": "nonpayable",
      "type": "function"
    },
    {
      "inputs": [
        {
          "internalType": "address",
          "name": "_NftHero",
          "type": "address"
        }
      ],
      "name": "setNftHeroInst",
      "outputs": [],
      "stateMutability": "nonpayable",
      "type": "function"
    },
    {
      "inputs": [
        {
          "internalType": "string",
          "name": "_name",
          "type": "string"
        },
        {
          "internalType": "uint256",
          "name": "_value",
          "type": "uint256"
        }
      ],
      "name": "setParam",
      "outputs": [],
      "stateMutability": "nonpayable",
      "type": "function"
    },
    {
      "inputs": [
        {
          "internalType": "string",
          "name": "_name",
          "type": "string"
        }
      ],
      "name": "getParam",
      "outputs": [
        {
          "internalType": "uint256",
          "name": "",
          "type": "uint256"
        }
      ],
      "stateMutability": "view",
      "type": "function",
      "constant": true
    },
    {
      "inputs": [],
      "name": "getStakeContractBalance",
      "outputs": [
        {
          "internalType": "uint256",
          "name": "",
          "type": "uint256"
        }
      ],
      "stateMutability": "view",
      "type": "function",
      "constant": true
    },
    {
      "inputs": [
        {
          "internalType": "uint256",
          "name": "tokenId",
          "type": "uint256"
        }
      ],
      "name": "stakeNFT",
      "outputs": [],
      "stateMutability": "nonpayable",
      "type": "function"
    },
    {
      "inputs": [],
      "name": "reviewStaked",
      "outputs": [
        {
          "internalType": "uint256[]",
          "name": "_tokens",
          "type": "uint256[]"
        },
        {
          "internalType": "uint256[]",
          "name": "_award",
          "type": "uint256[]"
        }
      ],
      "stateMutability": "view",
      "type": "function",
      "constant": true
    },
    {
      "inputs": [
        {
          "internalType": "uint256",
          "name": "tokenId",
          "type": "uint256"
        }
      ],
      "name": "unstake",
      "outputs": [],
      "stateMutability": "nonpayable",
      "type": "function"
    },
    {
      "inputs": [
        {
          "internalType": "uint256",
          "name": "tokenId",
          "type": "uint256"
        }
      ],
      "name": "harvest",
      "outputs": [],
      "stateMutability": "nonpayable",
      "type": "function"
    },
    {
      "inputs": [
        {
          "internalType": "address",
          "name": "",
          "type": "address"
        },
        {
          "internalType": "address",
          "name": "",
          "type": "address"
        },
        {
          "internalType": "uint256",
          "name": "",
          "type": "uint256"
        },
        {
          "internalType": "bytes",
          "name": "",
          "type": "bytes"
        }
      ],
      "name": "onERC721Received",
      "outputs": [
        {
          "internalType": "bytes4",
          "name": "",
          "type": "bytes4"
        }
      ],
      "stateMutability": "nonpayable",
      "type": "function"
    }
  ],
  "bytecode": "0x608060405234801561001057600080fd5b50613133806100206000396000f3fe608060405234801561001057600080fd5b50600436106100e95760003560e01c80636eb604e01161008c578063a2aa433711610066578063a2aa433714610221578063bf8f021814610254578063ddc6326214610272578063f2fde38b1461028e576100e9565b80636eb604e0146101dd578063715018a6146101f95780638da5cb5b14610203576100e9565b806343dd3a31116100c857806343dd3a311461015657806344d9da6814610175578063485cc955146101915780635d4f71d4146101ad576100e9565b8062259683146100ee578063150b7a021461010a5780632e17de781461013a575b600080fd5b61010860048036038101906101039190611fd7565b6102aa565b005b610124600480360381019061011f9190612071565b61036a565b60405161013191906126b4565b60405180910390f35b610154600480360381019061014f91906121c6565b61037e565b005b61015e61081c565b60405161016c92919061267d565b60405180910390f35b61018f600480360381019061018a919061216a565b610a81565b005b6101ab60048036038101906101a69190612031565b610b24565b005b6101c760048036038101906101c29190612121565b610ceb565b6040516101d4919061284f565b60405180910390f35b6101f760048036038101906101f291906121c6565b610d13565b005b610201611195565b005b61020b61121d565b6040516102189190612602565b60405180910390f35b61023b600480360381019061023691906121c6565b611247565b60405161024b94939291906128d8565b60405180910390f35b61025c611297565b604051610269919061284f565b60405180910390f35b61028c600480360381019061028791906121c6565b611349565b005b6102a860048036038101906102a39190611fd7565b6115e2565b005b6102b26116da565b73ffffffffffffffffffffffffffffffffffffffff166102d061121d565b73ffffffffffffffffffffffffffffffffffffffff1614610326576040517f08c379a000000000000000000000000000000000000000000000000000000000815260040161031d906127af565b60405180910390fd5b80606660006101000a81548173ffffffffffffffffffffffffffffffffffffffff021916908373ffffffffffffffffffffffffffffffffffffffff16021790555050565b600063150b7a0260e01b9050949350505050565b803073ffffffffffffffffffffffffffffffffffffffff16606660009054906101000a900473ffffffffffffffffffffffffffffffffffffffff1673ffffffffffffffffffffffffffffffffffffffff16636352211e836040518263ffffffff1660e01b81526004016103f1919061284f565b60206040518083038186803b15801561040957600080fd5b505afa15801561041d573d6000803e3d6000fd5b505050506040513d601f19601f820116820180604052508101906104419190612004565b73ffffffffffffffffffffffffffffffffffffffff1614610497576040517f08c379a000000000000000000000000000000000000000000000000000000000815260040161048e906127ef565b60405180910390fd5b6000606760008381526020019081526020016000206001015414156104f1576040517f08c379a00000000000000000000000000000000000000000000000000000000081526004016104e8906127cf565b60405180910390fd5b3373ffffffffffffffffffffffffffffffffffffffff166067600083815260200190815260200160002060020160009054906101000a900473ffffffffffffffffffffffffffffffffffffffff1673ffffffffffffffffffffffffffffffffffffffff1614610595576040517f08c379a000000000000000000000000000000000000000000000000000000000815260040161058c9061282f565b60405180910390fd5b81436067600083815260200190815260200160002060010154106105ee576040517f08c379a00000000000000000000000000000000000000000000000000000000081526004016105e59061278f565b60405180910390fd5b6105f7836116e2565b6067600084815260200190815260200160002060008082016000905560018201600090556002820160006101000a81549073ffffffffffffffffffffffffffffffffffffffff021916905560038201600090555050606660009054906101000a900473ffffffffffffffffffffffffffffffffffffffff1673ffffffffffffffffffffffffffffffffffffffff166342842e0e3033866040518463ffffffff1660e01b81526004016106ab9392919061261d565b600060405180830381600087803b1580156106c557600080fd5b505af11580156106d9573d6000803e3d6000fd5b505050503373ffffffffffffffffffffffffffffffffffffffff167f36debf9bde21e9970ddaef027c046ea453975592d028496c8ce3d0e7eae7b51584436040516107259291906128af565b60405180910390a26107c4606860003373ffffffffffffffffffffffffffffffffffffffff1673ffffffffffffffffffffffffffffffffffffffff1681526020019081526020016000208054806020026020016040519081016040528092919081815260200182805480156107b957602002820191906000526020600020905b8154815260200190600101908083116107a5575b505050505084611967565b606860003373ffffffffffffffffffffffffffffffffffffffff1673ffffffffffffffffffffffffffffffffffffffff1681526020019081526020016000209080519060200190610816929190611e24565b50505050565b6060806001606860003373ffffffffffffffffffffffffffffffffffffffff1673ffffffffffffffffffffffffffffffffffffffff16815260200190815260200160002080549050101561086f57610a7d565b6000606860003373ffffffffffffffffffffffffffffffffffffffff1673ffffffffffffffffffffffffffffffffffffffff1681526020019081526020016000208054905067ffffffffffffffff8111156108cd576108cc612ccd565b5b6040519080825280602002602001820160405280156108fb5781602001602082028036833780820191505090505b50915060005b606860003373ffffffffffffffffffffffffffffffffffffffff1673ffffffffffffffffffffffffffffffffffffffff168152602001908152602001600020805490508110156109e457606860003373ffffffffffffffffffffffffffffffffffffffff1673ffffffffffffffffffffffffffffffffffffffff168152602001908152602001600020818154811061099c5761099b612c9e565b5b906000526020600020015491506109b282611aa9565b8382815181106109c5576109c4612c9e565b5b60200260200101818152505080806109dc90612c26565b915050610901565b50606860003373ffffffffffffffffffffffffffffffffffffffff1673ffffffffffffffffffffffffffffffffffffffff1681526020019081526020016000208281805480602002602001604051908101604052809291908181526020018280548015610a7057602002820191906000526020600020905b815481526020019060010190808311610a5c575b5050505050915092509250505b9091565b610a896116da565b73ffffffffffffffffffffffffffffffffffffffff16610aa761121d565b73ffffffffffffffffffffffffffffffffffffffff1614610afd576040517f08c379a0000000000000000000000000000000000000000000000000000000008152600401610af4906127af565b60405180910390fd5b80606983604051610b0e91906125ac565b9081526020016040518091039020819055505050565b600060019054906101000a900460ff1680610b4a575060008054906101000a900460ff16155b610b89576040517f08c379a0000000000000000000000000000000000000000000000000000000008152600401610b809061274f565b60405180910390fd5b60008060019054906101000a900460ff161590508015610bd9576001600060016101000a81548160ff02191690831515021790555060016000806101000a81548160ff0219169083151502179055505b82606560006101000a81548173ffffffffffffffffffffffffffffffffffffffff021916908373ffffffffffffffffffffffffffffffffffffffff16021790555081606660006101000a81548173ffffffffffffffffffffffffffffffffffffffff021916908373ffffffffffffffffffffffffffffffffffffffff16021790555060016069604051610c6b906125c3565b908152602001604051809103902081905550620f42406069604051610c8f906125d8565b9081526020016040518091039020819055506207a1206069604051610cb3906125ed565b9081526020016040518091039020819055508015610ce65760008060016101000a81548160ff0219169083151502179055505b505050565b6000606982604051610cfd91906125ac565b9081526020016040518091039020549050919050565b3073ffffffffffffffffffffffffffffffffffffffff16606660009054906101000a900473ffffffffffffffffffffffffffffffffffffffff1673ffffffffffffffffffffffffffffffffffffffff16636352211e836040518263ffffffff1660e01b8152600401610d85919061284f565b60206040518083038186803b158015610d9d57600080fd5b505afa158015610db1573d6000803e3d6000fd5b505050506040513d601f19601f82011682018060405250810190610dd59190612004565b73ffffffffffffffffffffffffffffffffffffffff161415610e2c576040517f08c379a0000000000000000000000000000000000000000000000000000000008152600401610e239061272f565b60405180910390fd5b6000606760008381526020019081526020016000206001015414610e85576040517f08c379a0000000000000000000000000000000000000000000000000000000008152600401610e7c9061280f565b60405180910390fd5b606660009054906101000a900473ffffffffffffffffffffffffffffffffffffffff1673ffffffffffffffffffffffffffffffffffffffff166342842e0e3330846040518463ffffffff1660e01b8152600401610ee49392919061261d565b600060405180830381600087803b158015610efe57600080fd5b505af1158015610f12573d6000803e3d6000fd5b505050503073ffffffffffffffffffffffffffffffffffffffff16606660009054906101000a900473ffffffffffffffffffffffffffffffffffffffff1673ffffffffffffffffffffffffffffffffffffffff16636352211e836040518263ffffffff1660e01b8152600401610f88919061284f565b60206040518083038186803b158015610fa057600080fd5b505afa158015610fb4573d6000803e3d6000fd5b505050506040513d601f19601f82011682018060405250810190610fd89190612004565b73ffffffffffffffffffffffffffffffffffffffff161461102e576040517f08c379a00000000000000000000000000000000000000000000000000000000081526004016110259061276f565b60405180910390fd5b806067600083815260200190815260200160002060000181905550436067600083815260200190815260200160002060010181905550336067600083815260200190815260200160002060020160006101000a81548173ffffffffffffffffffffffffffffffffffffffff021916908373ffffffffffffffffffffffffffffffffffffffff1602179055506110c281611b5a565b6067600083815260200190815260200160002060030181905550606860003373ffffffffffffffffffffffffffffffffffffffff1673ffffffffffffffffffffffffffffffffffffffff1681526020019081526020016000208190806001815401808255809150506001900390600052602060002001600090919091909150553373ffffffffffffffffffffffffffffffffffffffff167f1e683d6ad5aed2b9f91e8b9b6ae0254c6db5075a931ee61daaea1771c6e141e2824360405161118a9291906128af565b60405180910390a250565b61119d6116da565b73ffffffffffffffffffffffffffffffffffffffff166111bb61121d565b73ffffffffffffffffffffffffffffffffffffffff1614611211576040517f08c379a0000000000000000000000000000000000000000000000000000000008152600401611208906127af565b60405180910390fd5b61121b6000611cd8565b565b6000603360009054906101000a900473ffffffffffffffffffffffffffffffffffffffff16905090565b60676020528060005260406000206000915090508060000154908060010154908060020160009054906101000a900473ffffffffffffffffffffffffffffffffffffffff16908060030154905084565b6000606560009054906101000a900473ffffffffffffffffffffffffffffffffffffffff1673ffffffffffffffffffffffffffffffffffffffff166370a08231306040518263ffffffff1660e01b81526004016112f49190612602565b60206040518083038186803b15801561130c57600080fd5b505afa158015611320573d6000803e3d6000fd5b505050506040513d601f19601f8201168201806040525081019061134491906121f3565b905090565b803073ffffffffffffffffffffffffffffffffffffffff16606660009054906101000a900473ffffffffffffffffffffffffffffffffffffffff1673ffffffffffffffffffffffffffffffffffffffff16636352211e836040518263ffffffff1660e01b81526004016113bc919061284f565b60206040518083038186803b1580156113d457600080fd5b505afa1580156113e8573d6000803e3d6000fd5b505050506040513d601f19601f8201168201806040525081019061140c9190612004565b73ffffffffffffffffffffffffffffffffffffffff1614611462576040517f08c379a0000000000000000000000000000000000000000000000000000000008152600401611459906127ef565b60405180910390fd5b6000606760008381526020019081526020016000206001015414156114bc576040517f08c379a00000000000000000000000000000000000000000000000000000000081526004016114b3906127cf565b60405180910390fd5b3373ffffffffffffffffffffffffffffffffffffffff166067600083815260200190815260200160002060020160009054906101000a900473ffffffffffffffffffffffffffffffffffffffff1673ffffffffffffffffffffffffffffffffffffffff1614611560576040517f08c379a00000000000000000000000000000000000000000000000000000000081526004016115579061282f565b60405180910390fd5b81436067600083815260200190815260200160002060010154106115b9576040517f08c379a00000000000000000000000000000000000000000000000000000000081526004016115b09061278f565b60405180910390fd5b6115c2836116e2565b436067600085815260200190815260200160002060010181905550505050565b6115ea6116da565b73ffffffffffffffffffffffffffffffffffffffff1661160861121d565b73ffffffffffffffffffffffffffffffffffffffff161461165e576040517f08c379a0000000000000000000000000000000000000000000000000000000008152600401611655906127af565b60405180910390fd5b600073ffffffffffffffffffffffffffffffffffffffff168173ffffffffffffffffffffffffffffffffffffffff1614156116ce576040517f08c379a00000000000000000000000000000000000000000000000000000000081526004016116c5906126cf565b60405180910390fd5b6116d781611cd8565b50565b600033905090565b60006116ed82611aa9565b905080606560009054906101000a900473ffffffffffffffffffffffffffffffffffffffff1673ffffffffffffffffffffffffffffffffffffffff166370a08231306040518263ffffffff1660e01b815260040161174b9190612602565b60206040518083038186803b15801561176357600080fd5b505afa158015611777573d6000803e3d6000fd5b505050506040513d601f19601f8201168201806040525081019061179b91906121f3565b1015611812573373ffffffffffffffffffffffffffffffffffffffff167f7e8de6a1e6682f9d48e1dca794f42aa811c7a6515c3e9bf64713fd7ece9e8e13836000606760008781526020019081526020016000206001015443604051611804949392919061286a565b60405180910390a250611964565b606560009054906101000a900473ffffffffffffffffffffffffffffffffffffffff1673ffffffffffffffffffffffffffffffffffffffff1663a9059cbb6067600085815260200190815260200160002060020160009054906101000a900473ffffffffffffffffffffffffffffffffffffffff16836040518363ffffffff1660e01b81526004016118a5929190612654565b602060405180830381600087803b1580156118bf57600080fd5b505af11580156118d3573d6000803e3d6000fd5b505050506040513d601f19601f820116820180604052508101906118f791906120f4565b503373ffffffffffffffffffffffffffffffffffffffff167f7e8de6a1e6682f9d48e1dca794f42aa811c7a6515c3e9bf64713fd7ece9e8e13838360676000878152602001908152602001600020600101544360405161195a949392919061291d565b60405180910390a2505b50565b60606001835110156119ae576040517f08c379a00000000000000000000000000000000000000000000000000000000081526004016119a5906126ef565b60405180910390fd5b6000600184516119be9190612af9565b67ffffffffffffffff8111156119d7576119d6612ccd565b5b604051908082528060200260200182016040528015611a055781602001602082028036833780820191505090505b509050600184511115611a9f576000805b8551811015611a9c5784868281518110611a3357611a32612c9e565b5b602002602001015114611a8957858181518110611a5357611a52612c9e565b5b6020026020010151838381518110611a6e57611a6d612c9e565b5b6020026020010181815250508180611a8590612c26565b9250505b8080611a9490612c26565b915050611a16565b50505b8091505092915050565b600080606760008481526020019081526020016000206001015411611b03576040517f08c379a0000000000000000000000000000000000000000000000000000000008152600401611afa9061270f565b60405180910390fd5b6000611b216001611b1385611d9e565b611df890919063ffffffff16565b90506000611b4e606760008681526020019081526020016000206003015483611e0e90919063ffffffff16565b90508092505050919050565b6000806000806000806000606660009054906101000a900473ffffffffffffffffffffffffffffffffffffffff1673ffffffffffffffffffffffffffffffffffffffff16633da1f63c896040518263ffffffff1660e01b8152600401611bc0919061284f565b60c06040518083038186803b158015611bd857600080fd5b505afa158015611bec573d6000803e3d6000fd5b505050506040513d601f19601f82011682018060405250810190611c109190612220565b809650819750829850839950849a50859b5050505050505060006001861415611c3b57849050611c51565b6002861415611c4c57839050611c50565b8290505b5b60006069604051611c61906125d8565b90815260200160405180910390205490506055821115611cc857826069604051611c8a906125ed565b908152602001604051809103902054605584611ca69190612af9565b611cb09190612a9f565b611cba9190612a9f565b81611cc59190612a49565b90505b8098505050505050505050919050565b6000603360009054906101000a900473ffffffffffffffffffffffffffffffffffffffff16905081603360006101000a81548173ffffffffffffffffffffffffffffffffffffffff021916908373ffffffffffffffffffffffffffffffffffffffff1602179055508173ffffffffffffffffffffffffffffffffffffffff168173ffffffffffffffffffffffffffffffffffffffff167f8be0079c531659141344cd1fd0a4f28419497f9722a3daafe3b4186f6b6457e060405160405180910390a35050565b60008060676000848152602001908152602001600020600101541415611dc75760009050611df3565b611df0606760008481526020019081526020016000206001015443611df890919063ffffffff16565b90505b919050565b60008183611e069190612af9565b905092915050565b60008183611e1c9190612a9f565b905092915050565b828054828255906000526020600020908101928215611e60579160200282015b82811115611e5f578251825591602001919060010190611e44565b5b509050611e6d9190611e71565b5090565b5b80821115611e8a576000816000905550600101611e72565b5090565b6000611ea1611e9c84612987565b612962565b905082815260208101848484011115611ebd57611ebc612d01565b5b611ec8848285612bb3565b509392505050565b6000611ee3611ede846129b8565b612962565b905082815260208101848484011115611eff57611efe612d01565b5b611f0a848285612bb3565b509392505050565b600081359050611f21816130b8565b92915050565b600081519050611f36816130b8565b92915050565b600081519050611f4b816130cf565b92915050565b600082601f830112611f6657611f65612cfc565b5b8135611f76848260208601611e8e565b91505092915050565b600082601f830112611f9457611f93612cfc565b5b8135611fa4848260208601611ed0565b91505092915050565b600081359050611fbc816130e6565b92915050565b600081519050611fd1816130e6565b92915050565b600060208284031215611fed57611fec612d0b565b5b6000611ffb84828501611f12565b91505092915050565b60006020828403121561201a57612019612d0b565b5b600061202884828501611f27565b91505092915050565b6000806040838503121561204857612047612d0b565b5b600061205685828601611f12565b925050602061206785828601611f12565b9150509250929050565b6000806000806080858703121561208b5761208a612d0b565b5b600061209987828801611f12565b94505060206120aa87828801611f12565b93505060406120bb87828801611fad565b925050606085013567ffffffffffffffff8111156120dc576120db612d06565b5b6120e887828801611f51565b91505092959194509250565b60006020828403121561210a57612109612d0b565b5b600061211884828501611f3c565b91505092915050565b60006020828403121561213757612136612d0b565b5b600082013567ffffffffffffffff81111561215557612154612d06565b5b61216184828501611f7f565b91505092915050565b6000806040838503121561218157612180612d0b565b5b600083013567ffffffffffffffff81111561219f5761219e612d06565b5b6121ab85828601611f7f565b92505060206121bc85828601611fad565b9150509250929050565b6000602082840312156121dc576121db612d0b565b5b60006121ea84828501611fad565b91505092915050565b60006020828403121561220957612208612d0b565b5b600061221784828501611fc2565b91505092915050565b60008060008060008060c0878903121561223d5761223c612d0b565b5b600061224b89828a01611fc2565b965050602061225c89828a01611fc2565b955050604061226d89828a01611fc2565b945050606061227e89828a01611fc2565b935050608061228f89828a01611fc2565b92505060a06122a089828a01611fc2565b9150509295509295509295565b60006122b9838361258e565b60208301905092915050565b6122ce81612b2d565b82525050565b60006122df826129f9565b6122e98185612a1c565b93506122f4836129e9565b8060005b8381101561232557815161230c88826122ad565b975061231783612a0f565b9250506001810190506122f8565b5085935050505092915050565b61233b81612b4b565b82525050565b61234a81612ba1565b82525050565b600061235b82612a04565b6123658185612a3e565b9350612375818560208601612bc2565b80840191505092915050565b600061238e602683612a2d565b915061239982612d21565b604082019050919050565b60006123b1600a83612a3e565b91506123bc82612d70565b600a82019050919050565b60006123d4601283612a2d565b91506123df82612d99565b602082019050919050565b60006123f7602883612a2d565b915061240282612dc2565b604082019050919050565b600061241a601083612a3e565b915061242582612e11565b601082019050919050565b600061243d601c83612a2d565b915061244882612e3a565b602082019050919050565b6000612460602e83612a2d565b915061246b82612e63565b604082019050919050565b6000612483602f83612a2d565b915061248e82612eb2565b604082019050919050565b60006124a6603f83612a2d565b91506124b182612f01565b604082019050919050565b60006124c9602083612a2d565b91506124d482612f50565b602082019050919050565b60006124ec601083612a3e565b91506124f782612f79565b601082019050919050565b600061250f601f83612a2d565b915061251a82612fa2565b602082019050919050565b6000612532602d83612a2d565b915061253d82612fcb565b604082019050919050565b6000612555602483612a2d565b91506125608261301a565b604082019050919050565b6000612578602983612a2d565b915061258382613069565b604082019050919050565b61259781612b97565b82525050565b6125a681612b97565b82525050565b60006125b88284612350565b915081905092915050565b60006125ce826123a4565b9150819050919050565b60006125e38261240d565b9150819050919050565b60006125f8826124df565b9150819050919050565b600060208201905061261760008301846122c5565b92915050565b600060608201905061263260008301866122c5565b61263f60208301856122c5565b61264c604083018461259d565b949350505050565b600060408201905061266960008301856122c5565b612676602083018461259d565b9392505050565b6000604082019050818103600083015261269781856122d4565b905081810360208301526126ab81846122d4565b90509392505050565b60006020820190506126c96000830184612332565b92915050565b600060208201905081810360008301526126e881612381565b9050919050565b60006020820190508181036000830152612708816123c7565b9050919050565b60006020820190508181036000830152612728816123ea565b9050919050565b6000602082019050818103600083015261274881612430565b9050919050565b6000602082019050818103600083015261276881612453565b9050919050565b6000602082019050818103600083015261278881612476565b9050919050565b600060208201905081810360008301526127a881612499565b9050919050565b600060208201905081810360008301526127c8816124bc565b9050919050565b600060208201905081810360008301526127e881612502565b9050919050565b6000602082019050818103600083015261280881612525565b9050919050565b6000602082019050818103600083015261282881612548565b9050919050565b600060208201905081810360008301526128488161256b565b9050919050565b6000602082019050612864600083018461259d565b92915050565b600060808201905061287f600083018761259d565b61288c6020830186612341565b612899604083018561259d565b6128a6606083018461259d565b95945050505050565b60006040820190506128c4600083018561259d565b6128d1602083018461259d565b9392505050565b60006080820190506128ed600083018761259d565b6128fa602083018661259d565b61290760408301856122c5565b612914606083018461259d565b95945050505050565b6000608082019050612932600083018761259d565b61293f602083018661259d565b61294c604083018561259d565b612959606083018461259d565b95945050505050565b600061296c61297d565b90506129788282612bf5565b919050565b6000604051905090565b600067ffffffffffffffff8211156129a2576129a1612ccd565b5b6129ab82612d10565b9050602081019050919050565b600067ffffffffffffffff8211156129d3576129d2612ccd565b5b6129dc82612d10565b9050602081019050919050565b6000819050602082019050919050565b600081519050919050565b600081519050919050565b6000602082019050919050565b600082825260208201905092915050565b600082825260208201905092915050565b600081905092915050565b6000612a5482612b97565b9150612a5f83612b97565b9250827fffffffffffffffffffffffffffffffffffffffffffffffffffffffffffffffff03821115612a9457612a93612c6f565b5b828201905092915050565b6000612aaa82612b97565b9150612ab583612b97565b9250817fffffffffffffffffffffffffffffffffffffffffffffffffffffffffffffffff0483118215151615612aee57612aed612c6f565b5b828202905092915050565b6000612b0482612b97565b9150612b0f83612b97565b925082821015612b2257612b21612c6f565b5b828203905092915050565b6000612b3882612b77565b9050919050565b60008115159050919050565b60007fffffffff0000000000000000000000000000000000000000000000000000000082169050919050565b600073ffffffffffffffffffffffffffffffffffffffff82169050919050565b6000819050919050565b6000612bac82612b97565b9050919050565b82818337600083830152505050565b60005b83811015612be0578082015181840152602081019050612bc5565b83811115612bef576000848401525b50505050565b612bfe82612d10565b810181811067ffffffffffffffff82111715612c1d57612c1c612ccd565b5b80604052505050565b6000612c3182612b97565b91507fffffffffffffffffffffffffffffffffffffffffffffffffffffffffffffffff821415612c6457612c63612c6f565b5b600182019050919050565b7f4e487b7100000000000000000000000000000000000000000000000000000000600052601160045260246000fd5b7f4e487b7100000000000000000000000000000000000000000000000000000000600052603260045260246000fd5b7f4e487b7100000000000000000000000000000000000000000000000000000000600052604160045260246000fd5b600080fd5b600080fd5b600080fd5b600080fd5b6000601f19601f8301169050919050565b7f4f776e61626c653a206e6577206f776e657220697320746865207a65726f206160008201527f6464726573730000000000000000000000000000000000000000000000000000602082015250565b7f626f6e75735f7261746500000000000000000000000000000000000000000000600082015250565b7f5f61727252656d6f76652066726f6d205b5d0000000000000000000000000000600082015250565b7f5f7061796f75745374616b653a2043616e206e6f74207374616b652066726f6d60008201527f20626c6f636b2030000000000000000000000000000000000000000000000000602082015250565b7f626173655f626c6f636b5f626f6e757300000000000000000000000000000000600082015250565b7f7374616b65206661696c65643a207374616b656420616c726561647900000000600082015250565b7f496e697469616c697a61626c653a20636f6e747261637420697320616c72656160008201527f647920696e697469616c697a6564000000000000000000000000000000000000602082015250565b7f7374616b65206661696c65643a206e66742062656c6f6e67732074686973206360008201527f6f6e747261637420616c72656164790000000000000000000000000000000000602082015250565b7f7265717569726554696d65456c61707365643a2043616e206e6f74207374616b60008201527f652f756e5374616b652f6861727665737420696e2073616d6520626c6f636b00602082015250565b7f4f776e61626c653a2063616c6c6572206973206e6f7420746865206f776e6572600082015250565b7f617474725f626c6f636b5f626f6e757300000000000000000000000000000000600082015250565b7f6f6e6c795374616b65723a20546f6b656e206973206e6f74207374616b656400600082015250565b7f6f6e6c795374616b65723a20436f6e7472616374206973206e6f74206f776e6560008201527f72206f662074686973204e465400000000000000000000000000000000000000602082015250565b7f7374616b65206661696c65643a20746f6b656e6964207374616b656420616c7260008201527f6561647900000000000000000000000000000000000000000000000000000000602082015250565b7f6f6e6c795374616b65723a2043616c6c6572206973206e6f74204e465420737460008201527f616b65206f776e65720000000000000000000000000000000000000000000000602082015250565b6130c181612b2d565b81146130cc57600080fd5b50565b6130d881612b3f565b81146130e357600080fd5b50565b6130ef81612b97565b81146130fa57600080fd5b5056fea26469706673582212205cadc10205a31181b797e95c04760b2719954bba0a8b03f67a6dde721a779ed364736f6c63430008070033",
  "immutableReferences": {},
  "source": "// SPDX-License-Identifier: MIT\r\n// https://github.com/crazyrabbitLTC/NFT-staking-boiler/blob/main/contracts/NftStake.sol\r\npragma solidity ^0.8.0;\r\n\r\nimport \"@openzeppelin/contracts-upgradeable/access/OwnableUpgradeable.sol\";\r\nimport \"@openzeppelin/contracts-upgradeable/utils/math/SafeMathUpgradeable.sol\";\r\nimport \"@openzeppelin/contracts-upgradeable/token/ERC721/ERC721Upgradeable.sol\";\r\nimport \"@openzeppelin/contracts-upgradeable/token/ERC721/IERC721ReceiverUpgradeable.sol\";\r\nimport \"./NftHero.sol\";\r\nimport \"./Gold.sol\";\r\n\r\n/** NFT */\r\ncontract Stake is IERC721ReceiverUpgradeable,OwnableUpgradeable {\r\n    using SafeMathUpgradeable for uint256;\r\n\r\n    Gold goldInstance;\r\n    NftHero nftHeroInst;\r\n\r\n    //\r\n    struct stake {\r\n        uint256 tokenId;\r\n        uint256 stakedFromBlock;\r\n        address owner;\r\n        uint256 blockBonus;\r\n    }\r\n    mapping(uint256 => stake) public receipt;\r\n    //tokens\r\n    mapping(address => uint256[]) userTokens;\r\n    //\r\n    //bonus_rate 100\r\n    mapping(string => uint256) params;\r\n\r\n    /** token */\r\n    modifier onlyStaker(uint256 tokenId) {\r\n        //token\r\n        require(nftHeroInst.ownerOf(tokenId) == address(this), \"onlyStaker: Contract is not owner of this NFT\");\r\n        //\r\n        require(receipt[tokenId].stakedFromBlock != 0, \"onlyStaker: Token is not staked\");\r\n        //\r\n        require(receipt[tokenId].owner == msg.sender, \"onlyStaker: Caller is not NFT stake owner\");\r\n        _;\r\n    }\r\n\r\n    /** token */\r\n    modifier requireTimeElapsed(uint256 tokenId) {\r\n        require(\r\n            receipt[tokenId].stakedFromBlock < block.number,\r\n            \"requireTimeElapsed: Can not stake/unStake/harvest in same block\"\r\n        );\r\n        _;\r\n    }\r\n\r\n    function initialize(address _gold, address _NftHero) public initializer {\r\n        goldInstance = Gold(_gold);\r\n        nftHeroInst = NftHero(_NftHero);\r\n        params[\"bonus_rate\"] = 1;\r\n        params[\"base_block_bonus\"] = uint256(0.01 * 1e8);\r\n        params[\"attr_block_bonus\"] = uint256(0.005 * 1e8);\r\n    }\r\n\r\n    function setNftHeroInst(address _NftHero) public onlyOwner {\r\n        nftHeroInst = NftHero(_NftHero);\r\n    }\r\n\r\n    function setParam(string memory _name, uint256 _value) public onlyOwner {\r\n        params[_name] = _value;\r\n    }\r\n\r\n    function getParam(string memory _name) public view returns (uint256) {\r\n        return params[_name];\r\n    }\r\n\r\n    /**  */\r\n    function getStakeContractBalance() public view returns (uint256) {\r\n        return goldInstance.balanceOf(address(this));\r\n    }\r\n\r\n    /**  */\r\n    function stakeNFT(uint256 tokenId) public {\r\n        //token\r\n        require(nftHeroInst.ownerOf(tokenId) != address(this), \"stake failed: staked already\");\r\n        //\r\n        require(receipt[tokenId].stakedFromBlock == 0, \"stake failed: tokenid staked already\");\r\n\r\n        //\r\n        nftHeroInst.safeTransferFrom(msg.sender, address(this), tokenId); \r\n        require(nftHeroInst.ownerOf(tokenId) == address(this), \"stake failed: nft belongs this contract already\");\r\n\r\n        //\r\n        receipt[tokenId].tokenId = tokenId;\r\n        receipt[tokenId].stakedFromBlock = block.number;\r\n        receipt[tokenId].owner = msg.sender;\r\n        receipt[tokenId].blockBonus = _getBlockBonus(tokenId);\r\n\r\n        //tokenstoken\r\n        userTokens[msg.sender].push(tokenId);\r\n\r\n        emit onNftStake(msg.sender, tokenId, block.number);\r\n    }\r\n\r\n    /**  */\r\n    function _payoutStake(uint256 tokenId) internal {\r\n        uint256 payout = _calcBonus(tokenId);\r\n\r\n        //\r\n        if (goldInstance.balanceOf(address(this)) < payout) {\r\n            emit StakePayout(msg.sender, tokenId, 0, receipt[tokenId].stakedFromBlock, block.number);\r\n            return;\r\n        }\r\n\r\n        // payout stake\r\n        goldInstance.transfer(receipt[tokenId].owner, payout);\r\n\r\n        emit StakePayout(msg.sender, tokenId, payout, receipt[tokenId].stakedFromBlock, block.number);\r\n    }\r\n\r\n    /**  */\r\n    function _calcBonus(uint256 tokenId) private view returns (uint256) {\r\n        require(receipt[tokenId].stakedFromBlock > 0, \"_payoutStake: Can not stake from block 0\");\r\n\r\n        uint256 blockStaked = _getBlockStaked(tokenId).sub(1); //\r\n        uint256 payout = blockStaked.mul(receipt[tokenId].blockBonus);\r\n        return payout;\r\n    }\r\n\r\n    /**  */\r\n    function reviewStaked() public view returns (uint256[] memory _tokens, uint256[] memory _award) {\r\n        if (userTokens[msg.sender].length < 1) {\r\n            return (_tokens, _award);\r\n        }\r\n\r\n        uint256 _tokenId;\r\n        _award = new uint256[](userTokens[msg.sender].length);\r\n        for (uint i=0; i<userTokens[msg.sender].length; i++) {\r\n            _tokenId = userTokens[msg.sender][i];\r\n            _award[i] = _calcBonus(_tokenId);\r\n        }\r\n        return (userTokens[msg.sender], _award);\r\n    }\r\n\r\n\r\n    /**  */\r\n    function unstake(uint256 tokenId) public onlyStaker(tokenId) requireTimeElapsed(tokenId) {\r\n        //\r\n        _payoutStake(tokenId);\r\n        //\r\n        delete receipt[tokenId];\r\n        //\r\n        nftHeroInst.safeTransferFrom(address(this), msg.sender, tokenId);\r\n        emit onNftUnStaked(msg.sender, tokenId, block.number);\r\n\r\n        //tokenstoken\r\n        userTokens[msg.sender] = _arrRemove(userTokens[msg.sender], tokenId);\r\n    }\r\n\r\n    /**  */\r\n    function harvest(uint256 tokenId) public onlyStaker(tokenId) requireTimeElapsed(tokenId) {\r\n        //\r\n        _payoutStake(tokenId);\r\n        //\r\n        receipt[tokenId].stakedFromBlock = block.number;\r\n    }\r\n\r\n    /**  */\r\n    function _getBlockBonus(uint256 tokenId) private view returns (uint256) {\r\n        uint256 id; uint256 _type; uint256 li; uint256 min; uint256 zhi; uint lv;\r\n        (id,_type,li,min,zhi,lv) = nftHeroInst.getAttr(tokenId);\r\n\r\n        uint256 mainAttr;\r\n        if (_type == 1) {\r\n            mainAttr = li;\r\n        } else if (_type == 2) {\r\n            mainAttr = min;\r\n        } else {\r\n            mainAttr = zhi;\r\n        }\r\n\r\n        //0.01 + -85*0.005*\r\n        uint256 blockBonus = params[\"base_block_bonus\"];\r\n        if (mainAttr > 85) {\r\n            blockBonus += uint256((mainAttr - 85) * params[\"attr_block_bonus\"] * lv);\r\n        }\r\n        return blockBonus;\r\n    }\r\n\r\n    /**  */\r\n    function _getBlockStaked(uint256 tokenId) internal view returns (uint256) {\r\n        if (receipt[tokenId].stakedFromBlock == 0) {\r\n            return 0;\r\n        }\r\n\r\n        return block.number.sub(receipt[tokenId].stakedFromBlock);\r\n    }\r\n\r\n    /**  */\r\n    function _arrRemove(uint256[] memory arr, uint256 one) private pure returns (uint256[] memory) {\r\n        require(arr.length >= 1, \"_arrRemove from []\");\r\n\r\n        uint256[] memory ret = new uint256[](arr.length - 1);\r\n\r\n        //0\r\n        if (arr.length > 1) {\r\n            uint k;\r\n            for (uint i; i<arr.length; i++) {\r\n                if (arr[i] != one) {\r\n                    ret[k] = arr[i];\r\n                    k++;\r\n                }\r\n            }\r\n        }\r\n        return ret;\r\n    } \r\n\r\n    function onERC721Received(\r\n        address,\r\n        address,\r\n        uint256,\r\n        bytes memory\r\n    ) public override returns (bytes4) {\r\n        return this.onERC721Received.selector;\r\n    }\r\n\r\n    event onNftStake(address indexed staker, uint256 tokenId, uint256 blockNumber);\r\n    event onNftUnStaked(address indexed staker, uint256 tokenId, uint256 blockNumber);\r\n    event StakePayout(address indexed staker, uint256 tokenId, uint256 stakeAmount, uint256 fromBlock, uint256 toBlock);\r\n}",
  "sourcePath": "D:\\solidity\\sol-test1\\contracts\\Stake.sol",
  "compiler": {
    "name": "solc",
    "version": "0.8.7+commit.e28d00a7.Emscripten.clang"
  },
  "schemaVersion": "3.4.3",
  "updatedAt": "2021-11-26T03:16:36.575Z",
  "networkType": "ethereum",
  "devdoc": {
    "kind": "dev",
    "methods": {
      "owner()": {
        "details": "Returns the address of the current owner."
      },
      "renounceOwnership()": {
        "details": "Leaves the contract without owner. It will not be possible to call `onlyOwner` functions anymore. Can only be called by the current owner. NOTE: Renouncing ownership will leave the contract without an owner, thereby removing any functionality that is only available to the owner."
      },
      "transferOwnership(address)": {
        "details": "Transfers ownership of the contract to a new account (`newOwner`). Can only be called by the current owner."
      }
    },
    "version": 1
  },
  "userdoc": {
    "kind": "user",
    "methods": {
      "getStakeContractBalance()": {
        "notice": " "
      },
      "harvest(uint256)": {
        "notice": " "
      },
      "reviewStaked()": {
        "notice": " "
      },
      "stakeNFT(uint256)": {
        "notice": " "
      },
      "unstake(uint256)": {
        "notice": " "
      }
    },
    "notice": "NFT ",
    "version": 1
  }
}