{
  "contractName": "Stake",
  "abi": [
    {
      "inputs": [
        {
          "internalType": "contract Gold",
          "name": "_gold",
          "type": "address"
        },
        {
          "internalType": "contract NftPlayer",
          "name": "_nftPlayer",
          "type": "address"
        }
      ],
      "stateMutability": "nonpayable",
      "type": "constructor"
    },
    {
      "anonymous": false,
      "inputs": [
        {
          "indexed": true,
          "internalType": "address",
          "name": "previousOwner",
          "type": "address"
        },
        {
          "indexed": true,
          "internalType": "address",
          "name": "newOwner",
          "type": "address"
        }
      ],
      "name": "OwnershipTransferred",
      "type": "event"
    },
    {
      "anonymous": false,
      "inputs": [
        {
          "indexed": false,
          "internalType": "uint256",
          "name": "_token",
          "type": "uint256"
        }
      ],
      "name": "onStake",
      "type": "event"
    },
    {
      "inputs": [],
      "name": "owner",
      "outputs": [
        {
          "internalType": "address",
          "name": "",
          "type": "address"
        }
      ],
      "stateMutability": "view",
      "type": "function"
    },
    {
      "inputs": [],
      "name": "renounceOwnership",
      "outputs": [],
      "stateMutability": "nonpayable",
      "type": "function"
    },
    {
      "inputs": [
        {
          "internalType": "address",
          "name": "newOwner",
          "type": "address"
        }
      ],
      "name": "transferOwnership",
      "outputs": [],
      "stateMutability": "nonpayable",
      "type": "function"
    },
    {
      "inputs": [
        {
          "internalType": "uint256",
          "name": "_token",
          "type": "uint256"
        }
      ],
      "name": "stake",
      "outputs": [],
      "stateMutability": "nonpayable",
      "type": "function"
    },
    {
      "inputs": [],
      "name": "reviewStaked",
      "outputs": [
        {
          "internalType": "uint256[]",
          "name": "_tokens",
          "type": "uint256[]"
        },
        {
          "internalType": "uint256[]",
          "name": "_award",
          "type": "uint256[]"
        }
      ],
      "stateMutability": "view",
      "type": "function"
    },
    {
      "inputs": [
        {
          "internalType": "uint256",
          "name": "_token",
          "type": "uint256"
        }
      ],
      "name": "earn",
      "outputs": [
        {
          "internalType": "uint256",
          "name": "_goldNum",
          "type": "uint256"
        }
      ],
      "stateMutability": "nonpayable",
      "type": "function"
    },
    {
      "inputs": [
        {
          "internalType": "uint256",
          "name": "_token",
          "type": "uint256"
        }
      ],
      "name": "unstake",
      "outputs": [],
      "stateMutability": "nonpayable",
      "type": "function"
    }
  ],
  "bytecode": "0x608060405234801561001057600080fd5b50604051610a3d380380610a3d833981810160405281019061003291906100e5565b81606560006101000a81548173ffffffffffffffffffffffffffffffffffffffff021916908373ffffffffffffffffffffffffffffffffffffffff16021790555080606660006101000a81548173ffffffffffffffffffffffffffffffffffffffff021916908373ffffffffffffffffffffffffffffffffffffffff16021790555050506101ae565b6000815190506100ca81610180565b92915050565b6000815190506100df81610197565b92915050565b600080604083850312156100fc576100fb61017b565b5b600061010a858286016100bb565b925050602061011b858286016100d0565b9150509250929050565b60006101308261015b565b9050919050565b600061014282610125565b9050919050565b600061015482610125565b9050919050565b600073ffffffffffffffffffffffffffffffffffffffff82169050919050565b600080fd5b61018981610137565b811461019457600080fd5b50565b6101a081610149565b81146101ab57600080fd5b50565b610880806101bd6000396000f3fe608060405234801561001057600080fd5b506004361061007d5760003560e01c80638da5cb5b1161005b5780638da5cb5b146100c7578063a694fc3a146100e5578063e65a011714610101578063f2fde38b146101315761007d565b80632e17de781461008257806343dd3a311461009e578063715018a6146100bd575b600080fd5b61009c60048036038101906100979190610499565b61014d565b005b6100a6610150565b6040516100b49291906105ca565b60405180910390f35b6100c5610156565b005b6100cf6101de565b6040516100dc91906105af565b60405180910390f35b6100ff60048036038101906100fa9190610499565b610208565b005b61011b60048036038101906101169190610499565b61020b565b6040516101289190610641565b60405180910390f35b61014b6004803603810190610146919061046c565b61027c565b005b50565b60608091565b61015e610374565b73ffffffffffffffffffffffffffffffffffffffff1661017c6101de565b73ffffffffffffffffffffffffffffffffffffffff16146101d2576040517f08c379a00000000000000000000000000000000000000000000000000000000081526004016101c990610621565b60405180910390fd5b6101dc600061037c565b565b6000603360009054906101000a900473ffffffffffffffffffffffffffffffffffffffff16905090565b50565b60008060676000848152602001908152602001600020541161022c57600080fd5b600060676000848152602001908152602001600020544261024d9190610700565b9050600a8161025c91906106a6565b915042606760008581526020019081526020016000208190555050919050565b610284610374565b73ffffffffffffffffffffffffffffffffffffffff166102a26101de565b73ffffffffffffffffffffffffffffffffffffffff16146102f8576040517f08c379a00000000000000000000000000000000000000000000000000000000081526004016102ef90610621565b60405180910390fd5b600073ffffffffffffffffffffffffffffffffffffffff168173ffffffffffffffffffffffffffffffffffffffff161415610368576040517f08c379a000000000000000000000000000000000000000000000000000000000815260040161035f90610601565b60405180910390fd5b6103718161037c565b50565b600033905090565b6000603360009054906101000a900473ffffffffffffffffffffffffffffffffffffffff16905081603360006101000a81548173ffffffffffffffffffffffffffffffffffffffff021916908373ffffffffffffffffffffffffffffffffffffffff1602179055508173ffffffffffffffffffffffffffffffffffffffff168173ffffffffffffffffffffffffffffffffffffffff167f8be0079c531659141344cd1fd0a4f28419497f9722a3daafe3b4186f6b6457e060405160405180910390a35050565b6000813590506104518161081c565b92915050565b60008135905061046681610833565b92915050565b6000602082840312156104825761048161079f565b5b600061049084828501610442565b91505092915050565b6000602082840312156104af576104ae61079f565b5b60006104bd84828501610457565b91505092915050565b60006104d28383610591565b60208301905092915050565b6104e781610734565b82525050565b60006104f88261066c565b6105028185610684565b935061050d8361065c565b8060005b8381101561053e57815161052588826104c6565b975061053083610677565b925050600181019050610511565b5085935050505092915050565b6000610558602683610695565b9150610563826107a4565b604082019050919050565b600061057b602083610695565b9150610586826107f3565b602082019050919050565b61059a81610766565b82525050565b6105a981610766565b82525050565b60006020820190506105c460008301846104de565b92915050565b600060408201905081810360008301526105e481856104ed565b905081810360208301526105f881846104ed565b90509392505050565b6000602082019050818103600083015261061a8161054b565b9050919050565b6000602082019050818103600083015261063a8161056e565b9050919050565b600060208201905061065660008301846105a0565b92915050565b6000819050602082019050919050565b600081519050919050565b6000602082019050919050565b600082825260208201905092915050565b600082825260208201905092915050565b60006106b182610766565b91506106bc83610766565b9250817fffffffffffffffffffffffffffffffffffffffffffffffffffffffffffffffff04831182151516156106f5576106f4610770565b5b828202905092915050565b600061070b82610766565b915061071683610766565b92508282101561072957610728610770565b5b828203905092915050565b600061073f82610746565b9050919050565b600073ffffffffffffffffffffffffffffffffffffffff82169050919050565b6000819050919050565b7f4e487b7100000000000000000000000000000000000000000000000000000000600052601160045260246000fd5b600080fd5b7f4f776e61626c653a206e6577206f776e657220697320746865207a65726f206160008201527f6464726573730000000000000000000000000000000000000000000000000000602082015250565b7f4f776e61626c653a2063616c6c6572206973206e6f7420746865206f776e6572600082015250565b61082581610734565b811461083057600080fd5b50565b61083c81610766565b811461084757600080fd5b5056fea264697066735822122036bd743a22954f7963a6d0bdbd3f023a710221f624abca5a1c09cf2339a8d76364736f6c63430008070033",
  "immutableReferences": {},
  "source": "// SPDX-License-Identifier: MIT\r\npragma solidity ^0.8.0;\r\n\r\nimport \"@openzeppelin/contracts-upgradeable/access/OwnableUpgradeable.sol\";\r\nimport \"./NftPlayer.sol\";\r\nimport \"./Gold.sol\";\r\n\r\n/** NFT */\r\ncontract Stake is OwnableUpgradeable {\r\n\r\n    Gold goldInstance;\r\n    NftPlayer playerInstance;\r\n\r\n    //nft\r\n    mapping(uint256 => uint256) tokenStaketime;\r\n    //nft\r\n    mapping(address => uint256) userToken;\r\n\r\n    constructor(Gold _gold, NftPlayer _nftPlayer) {\r\n        goldInstance = _gold;\r\n        playerInstance = _nftPlayer;\r\n    }\r\n\r\n    /**  */\r\n    function stake(uint256 _token) public {\r\n        \r\n    }\r\n\r\n    /**  */\r\n    function reviewStaked() public view returns (uint256[] memory _tokens, uint256[] memory _award) {\r\n\r\n    }\r\n\r\n    /**  */\r\n    function earn(uint256 _token) public returns (uint256 _goldNum) {\r\n        require(tokenStaketime[_token] > 0);\r\n\r\n        uint256 ontime = block.timestamp - tokenStaketime[_token];\r\n        _goldNum = ontime * 10 ;\r\n\r\n        tokenStaketime[_token] = block.timestamp;\r\n    }\r\n\r\n    /**  */\r\n    function unstake(uint256 _token) public {\r\n\r\n    }\r\n\r\n    event onStake(uint256 _token);\r\n}",
  "sourcePath": "D:\\solidity\\sol-test1\\contracts\\Stake.sol",
  "compiler": {
    "name": "solc",
    "version": "0.8.7+commit.e28d00a7.Emscripten.clang"
  },
  "schemaVersion": "3.4.3",
  "updatedAt": "2021-09-30T07:19:17.939Z",
  "devdoc": {
    "kind": "dev",
    "methods": {
      "owner()": {
        "details": "Returns the address of the current owner."
      },
      "renounceOwnership()": {
        "details": "Leaves the contract without owner. It will not be possible to call `onlyOwner` functions anymore. Can only be called by the current owner. NOTE: Renouncing ownership will leave the contract without an owner, thereby removing any functionality that is only available to the owner."
      },
      "transferOwnership(address)": {
        "details": "Transfers ownership of the contract to a new account (`newOwner`). Can only be called by the current owner."
      }
    },
    "version": 1
  },
  "userdoc": {
    "kind": "user",
    "methods": {
      "earn(uint256)": {
        "notice": " "
      },
      "reviewStaked()": {
        "notice": " "
      },
      "stake(uint256)": {
        "notice": " "
      },
      "unstake(uint256)": {
        "notice": " "
      }
    },
    "notice": "NFT ",
    "version": 1
  }
}