{
  "contractName": "Stake",
  "abi": [
    {
      "anonymous": false,
      "inputs": [
        {
          "indexed": true,
          "internalType": "address",
          "name": "previousOwner",
          "type": "address"
        },
        {
          "indexed": true,
          "internalType": "address",
          "name": "newOwner",
          "type": "address"
        }
      ],
      "name": "OwnershipTransferred",
      "type": "event"
    },
    {
      "anonymous": false,
      "inputs": [
        {
          "indexed": false,
          "internalType": "address",
          "name": "account",
          "type": "address"
        }
      ],
      "name": "Paused",
      "type": "event"
    },
    {
      "anonymous": false,
      "inputs": [
        {
          "indexed": true,
          "internalType": "address",
          "name": "staker",
          "type": "address"
        },
        {
          "indexed": false,
          "internalType": "uint256",
          "name": "tokenId",
          "type": "uint256"
        },
        {
          "indexed": false,
          "internalType": "uint256",
          "name": "stakeAmount",
          "type": "uint256"
        },
        {
          "indexed": false,
          "internalType": "uint256",
          "name": "fromBlock",
          "type": "uint256"
        },
        {
          "indexed": false,
          "internalType": "uint256",
          "name": "toBlock",
          "type": "uint256"
        }
      ],
      "name": "StakePayout",
      "type": "event"
    },
    {
      "anonymous": false,
      "inputs": [
        {
          "indexed": false,
          "internalType": "address",
          "name": "account",
          "type": "address"
        }
      ],
      "name": "Unpaused",
      "type": "event"
    },
    {
      "anonymous": false,
      "inputs": [
        {
          "indexed": true,
          "internalType": "address",
          "name": "staker",
          "type": "address"
        },
        {
          "indexed": false,
          "internalType": "uint256",
          "name": "tokenId",
          "type": "uint256"
        },
        {
          "indexed": false,
          "internalType": "uint256",
          "name": "blockNumber",
          "type": "uint256"
        }
      ],
      "name": "onNftStake",
      "type": "event"
    },
    {
      "anonymous": false,
      "inputs": [
        {
          "indexed": true,
          "internalType": "address",
          "name": "staker",
          "type": "address"
        },
        {
          "indexed": false,
          "internalType": "uint256",
          "name": "tokenId",
          "type": "uint256"
        },
        {
          "indexed": false,
          "internalType": "uint256",
          "name": "blockNumber",
          "type": "uint256"
        }
      ],
      "name": "onNftUnStaked",
      "type": "event"
    },
    {
      "inputs": [],
      "name": "owner",
      "outputs": [
        {
          "internalType": "address",
          "name": "",
          "type": "address"
        }
      ],
      "stateMutability": "view",
      "type": "function",
      "constant": true
    },
    {
      "inputs": [],
      "name": "paused",
      "outputs": [
        {
          "internalType": "bool",
          "name": "",
          "type": "bool"
        }
      ],
      "stateMutability": "view",
      "type": "function",
      "constant": true
    },
    {
      "inputs": [
        {
          "internalType": "uint256",
          "name": "",
          "type": "uint256"
        }
      ],
      "name": "receipt",
      "outputs": [
        {
          "internalType": "uint256",
          "name": "tokenId",
          "type": "uint256"
        },
        {
          "internalType": "uint256",
          "name": "stakedFromBlock",
          "type": "uint256"
        },
        {
          "internalType": "address",
          "name": "owner",
          "type": "address"
        },
        {
          "internalType": "uint256",
          "name": "blockBonus",
          "type": "uint256"
        }
      ],
      "stateMutability": "view",
      "type": "function",
      "constant": true
    },
    {
      "inputs": [],
      "name": "renounceOwnership",
      "outputs": [],
      "stateMutability": "nonpayable",
      "type": "function"
    },
    {
      "inputs": [
        {
          "internalType": "address",
          "name": "newOwner",
          "type": "address"
        }
      ],
      "name": "transferOwnership",
      "outputs": [],
      "stateMutability": "nonpayable",
      "type": "function"
    },
    {
      "inputs": [
        {
          "internalType": "address",
          "name": "_gold",
          "type": "address"
        },
        {
          "internalType": "address",
          "name": "_NftHero",
          "type": "address"
        }
      ],
      "name": "initialize",
      "outputs": [],
      "stateMutability": "nonpayable",
      "type": "function"
    },
    {
      "inputs": [
        {
          "internalType": "address",
          "name": "_NftHero",
          "type": "address"
        }
      ],
      "name": "setNftHeroInst",
      "outputs": [],
      "stateMutability": "nonpayable",
      "type": "function"
    },
    {
      "inputs": [
        {
          "internalType": "string",
          "name": "_name",
          "type": "string"
        },
        {
          "internalType": "uint256",
          "name": "_value",
          "type": "uint256"
        }
      ],
      "name": "setParam",
      "outputs": [],
      "stateMutability": "nonpayable",
      "type": "function"
    },
    {
      "inputs": [
        {
          "internalType": "string",
          "name": "_name",
          "type": "string"
        }
      ],
      "name": "getParam",
      "outputs": [
        {
          "internalType": "uint256",
          "name": "",
          "type": "uint256"
        }
      ],
      "stateMutability": "view",
      "type": "function",
      "constant": true
    },
    {
      "inputs": [],
      "name": "getStakeContractBalance",
      "outputs": [
        {
          "internalType": "uint256",
          "name": "",
          "type": "uint256"
        }
      ],
      "stateMutability": "view",
      "type": "function",
      "constant": true
    },
    {
      "inputs": [
        {
          "internalType": "uint256",
          "name": "tokenId",
          "type": "uint256"
        }
      ],
      "name": "stakeNFT",
      "outputs": [],
      "stateMutability": "nonpayable",
      "type": "function"
    },
    {
      "inputs": [],
      "name": "reviewStaked",
      "outputs": [
        {
          "internalType": "uint256[]",
          "name": "_tokens",
          "type": "uint256[]"
        },
        {
          "internalType": "uint256[]",
          "name": "_award",
          "type": "uint256[]"
        }
      ],
      "stateMutability": "view",
      "type": "function",
      "constant": true
    },
    {
      "inputs": [
        {
          "internalType": "uint256",
          "name": "tokenId",
          "type": "uint256"
        }
      ],
      "name": "unstake",
      "outputs": [],
      "stateMutability": "nonpayable",
      "type": "function"
    },
    {
      "inputs": [
        {
          "internalType": "uint256",
          "name": "tokenId",
          "type": "uint256"
        }
      ],
      "name": "harvest",
      "outputs": [],
      "stateMutability": "nonpayable",
      "type": "function"
    },
    {
      "inputs": [
        {
          "internalType": "address",
          "name": "",
          "type": "address"
        },
        {
          "internalType": "address",
          "name": "",
          "type": "address"
        },
        {
          "internalType": "uint256",
          "name": "",
          "type": "uint256"
        },
        {
          "internalType": "bytes",
          "name": "",
          "type": "bytes"
        }
      ],
      "name": "onERC721Received",
      "outputs": [
        {
          "internalType": "bytes4",
          "name": "",
          "type": "bytes4"
        }
      ],
      "stateMutability": "nonpayable",
      "type": "function"
    }
  ],
  "bytecode": "0x608060405234801561001057600080fd5b5061363d806100206000396000f3fe608060405234801561001057600080fd5b50600436106100f45760003560e01c80635d4f71d411610097578063a2aa433711610066578063a2aa43371461024a578063bf8f02181461027d578063ddc632621461029b578063f2fde38b146102b7576100f4565b80635d4f71d4146101d65780636eb604e014610206578063715018a6146102225780638da5cb5b1461022c576100f4565b806343dd3a31116100d357806343dd3a311461016157806344d9da6814610180578063485cc9551461019c5780635c975abb146101b8576100f4565b8062259683146100f9578063150b7a02146101155780632e17de7814610145575b600080fd5b610113600480360381019061010e91906124b7565b6102d3565b005b61012f600480360381019061012a9190612551565b610393565b60405161013c9190612bbe565b60405180910390f35b61015f600480360381019061015a91906126a6565b6103a7565b005b610169610845565b604051610177929190612b6c565b60405180910390f35b61019a6004803603810190610195919061264a565b610aaa565b005b6101b660048036038101906101b19190612511565b610b4d565b005b6101c0610d2c565b6040516101cd9190612ba3565b60405180910390f35b6101f060048036038101906101eb9190612601565b610d43565b6040516101fd9190612d59565b60405180910390f35b610220600480360381019061021b91906126a6565b610d6b565b005b61022a6111ed565b005b610234611275565b6040516102419190612af1565b60405180910390f35b610264600480360381019061025f91906126a6565b61129f565b6040516102749493929190612de2565b60405180910390f35b6102856112ef565b6040516102929190612d59565b60405180910390f35b6102b560048036038101906102b091906126a6565b6113a1565b005b6102d160048036038101906102cc91906124b7565b61163a565b005b6102db611732565b73ffffffffffffffffffffffffffffffffffffffff166102f9611275565b73ffffffffffffffffffffffffffffffffffffffff161461034f576040517f08c379a000000000000000000000000000000000000000000000000000000000815260040161034690612cb9565b60405180910390fd5b80609860006101000a81548173ffffffffffffffffffffffffffffffffffffffff021916908373ffffffffffffffffffffffffffffffffffffffff16021790555050565b600063150b7a0260e01b9050949350505050565b803073ffffffffffffffffffffffffffffffffffffffff16609860009054906101000a900473ffffffffffffffffffffffffffffffffffffffff1673ffffffffffffffffffffffffffffffffffffffff16636352211e836040518263ffffffff1660e01b815260040161041a9190612d59565b60206040518083038186803b15801561043257600080fd5b505afa158015610446573d6000803e3d6000fd5b505050506040513d601f19601f8201168201806040525081019061046a91906124e4565b73ffffffffffffffffffffffffffffffffffffffff16146104c0576040517f08c379a00000000000000000000000000000000000000000000000000000000081526004016104b790612cf9565b60405180910390fd5b60006099600083815260200190815260200160002060010154141561051a576040517f08c379a000000000000000000000000000000000000000000000000000000000815260040161051190612cd9565b60405180910390fd5b3373ffffffffffffffffffffffffffffffffffffffff166099600083815260200190815260200160002060020160009054906101000a900473ffffffffffffffffffffffffffffffffffffffff1673ffffffffffffffffffffffffffffffffffffffff16146105be576040517f08c379a00000000000000000000000000000000000000000000000000000000081526004016105b590612d39565b60405180910390fd5b8143609960008381526020019081526020016000206001015410610617576040517f08c379a000000000000000000000000000000000000000000000000000000000815260040161060e90612c99565b60405180910390fd5b6106208361173a565b6099600084815260200190815260200160002060008082016000905560018201600090556002820160006101000a81549073ffffffffffffffffffffffffffffffffffffffff021916905560038201600090555050609860009054906101000a900473ffffffffffffffffffffffffffffffffffffffff1673ffffffffffffffffffffffffffffffffffffffff166342842e0e3033866040518463ffffffff1660e01b81526004016106d493929190612b0c565b600060405180830381600087803b1580156106ee57600080fd5b505af1158015610702573d6000803e3d6000fd5b505050503373ffffffffffffffffffffffffffffffffffffffff167f36debf9bde21e9970ddaef027c046ea453975592d028496c8ce3d0e7eae7b515844360405161074e929190612db9565b60405180910390a26107ed609a60003373ffffffffffffffffffffffffffffffffffffffff1673ffffffffffffffffffffffffffffffffffffffff1681526020019081526020016000208054806020026020016040519081016040528092919081815260200182805480156107e257602002820191906000526020600020905b8154815260200190600101908083116107ce575b5050505050846119bf565b609a60003373ffffffffffffffffffffffffffffffffffffffff1673ffffffffffffffffffffffffffffffffffffffff168152602001908152602001600020908051906020019061083f929190612304565b50505050565b6060806001609a60003373ffffffffffffffffffffffffffffffffffffffff1673ffffffffffffffffffffffffffffffffffffffff16815260200190815260200160002080549050101561089857610aa6565b6000609a60003373ffffffffffffffffffffffffffffffffffffffff1673ffffffffffffffffffffffffffffffffffffffff1681526020019081526020016000208054905067ffffffffffffffff8111156108f6576108f56131d7565b5b6040519080825280602002602001820160405280156109245781602001602082028036833780820191505090505b50915060005b609a60003373ffffffffffffffffffffffffffffffffffffffff1673ffffffffffffffffffffffffffffffffffffffff16815260200190815260200160002080549050811015610a0d57609a60003373ffffffffffffffffffffffffffffffffffffffff1673ffffffffffffffffffffffffffffffffffffffff16815260200190815260200160002081815481106109c5576109c46131a8565b5b906000526020600020015491506109db82611b01565b8382815181106109ee576109ed6131a8565b5b6020026020010181815250508080610a0590613130565b91505061092a565b50609a60003373ffffffffffffffffffffffffffffffffffffffff1673ffffffffffffffffffffffffffffffffffffffff1681526020019081526020016000208281805480602002602001604051908101604052809291908181526020018280548015610a9957602002820191906000526020600020905b815481526020019060010190808311610a85575b5050505050915092509250505b9091565b610ab2611732565b73ffffffffffffffffffffffffffffffffffffffff16610ad0611275565b73ffffffffffffffffffffffffffffffffffffffff1614610b26576040517f08c379a0000000000000000000000000000000000000000000000000000000008152600401610b1d90612cb9565b60405180910390fd5b80609b83604051610b379190612a9b565b9081526020016040518091039020819055505050565b600060019054906101000a900460ff1680610b73575060008054906101000a900460ff16155b610bb2576040517f08c379a0000000000000000000000000000000000000000000000000000000008152600401610ba990612c59565b60405180910390fd5b60008060019054906101000a900460ff161590508015610c02576001600060016101000a81548160ff02191690831515021790555060016000806101000a81548160ff0219169083151502179055505b610c0a611bb2565b610c12611c9b565b82609760006101000a81548173ffffffffffffffffffffffffffffffffffffffff021916908373ffffffffffffffffffffffffffffffffffffffff16021790555081609860006101000a81548173ffffffffffffffffffffffffffffffffffffffff021916908373ffffffffffffffffffffffffffffffffffffffff1602179055506001609b604051610ca490612ab2565b908152602001604051809103902081905550662386f26fc10000609b604051610ccc90612ac7565b9081526020016040518091039020819055506611c37937e08000609b604051610cf490612adc565b9081526020016040518091039020819055508015610d275760008060016101000a81548160ff0219169083151502179055505b505050565b6000606560009054906101000a900460ff16905090565b6000609b82604051610d559190612a9b565b9081526020016040518091039020549050919050565b3073ffffffffffffffffffffffffffffffffffffffff16609860009054906101000a900473ffffffffffffffffffffffffffffffffffffffff1673ffffffffffffffffffffffffffffffffffffffff16636352211e836040518263ffffffff1660e01b8152600401610ddd9190612d59565b60206040518083038186803b158015610df557600080fd5b505afa158015610e09573d6000803e3d6000fd5b505050506040513d601f19601f82011682018060405250810190610e2d91906124e4565b73ffffffffffffffffffffffffffffffffffffffff161415610e84576040517f08c379a0000000000000000000000000000000000000000000000000000000008152600401610e7b90612c39565b60405180910390fd5b6000609960008381526020019081526020016000206001015414610edd576040517f08c379a0000000000000000000000000000000000000000000000000000000008152600401610ed490612d19565b60405180910390fd5b609860009054906101000a900473ffffffffffffffffffffffffffffffffffffffff1673ffffffffffffffffffffffffffffffffffffffff166342842e0e3330846040518463ffffffff1660e01b8152600401610f3c93929190612b0c565b600060405180830381600087803b158015610f5657600080fd5b505af1158015610f6a573d6000803e3d6000fd5b505050503073ffffffffffffffffffffffffffffffffffffffff16609860009054906101000a900473ffffffffffffffffffffffffffffffffffffffff1673ffffffffffffffffffffffffffffffffffffffff16636352211e836040518263ffffffff1660e01b8152600401610fe09190612d59565b60206040518083038186803b158015610ff857600080fd5b505afa15801561100c573d6000803e3d6000fd5b505050506040513d601f19601f8201168201806040525081019061103091906124e4565b73ffffffffffffffffffffffffffffffffffffffff1614611086576040517f08c379a000000000000000000000000000000000000000000000000000000000815260040161107d90612c79565b60405180910390fd5b806099600083815260200190815260200160002060000181905550436099600083815260200190815260200160002060010181905550336099600083815260200190815260200160002060020160006101000a81548173ffffffffffffffffffffffffffffffffffffffff021916908373ffffffffffffffffffffffffffffffffffffffff16021790555061111a81611d84565b6099600083815260200190815260200160002060030181905550609a60003373ffffffffffffffffffffffffffffffffffffffff1673ffffffffffffffffffffffffffffffffffffffff1681526020019081526020016000208190806001815401808255809150506001900390600052602060002001600090919091909150553373ffffffffffffffffffffffffffffffffffffffff167f1e683d6ad5aed2b9f91e8b9b6ae0254c6db5075a931ee61daaea1771c6e141e282436040516111e2929190612db9565b60405180910390a250565b6111f5611732565b73ffffffffffffffffffffffffffffffffffffffff16611213611275565b73ffffffffffffffffffffffffffffffffffffffff1614611269576040517f08c379a000000000000000000000000000000000000000000000000000000000815260040161126090612cb9565b60405180910390fd5b6112736000611f02565b565b6000603360009054906101000a900473ffffffffffffffffffffffffffffffffffffffff16905090565b60996020528060005260406000206000915090508060000154908060010154908060020160009054906101000a900473ffffffffffffffffffffffffffffffffffffffff16908060030154905084565b6000609760009054906101000a900473ffffffffffffffffffffffffffffffffffffffff1673ffffffffffffffffffffffffffffffffffffffff166370a08231306040518263ffffffff1660e01b815260040161134c9190612af1565b60206040518083038186803b15801561136457600080fd5b505afa158015611378573d6000803e3d6000fd5b505050506040513d601f19601f8201168201806040525081019061139c91906126d3565b905090565b803073ffffffffffffffffffffffffffffffffffffffff16609860009054906101000a900473ffffffffffffffffffffffffffffffffffffffff1673ffffffffffffffffffffffffffffffffffffffff16636352211e836040518263ffffffff1660e01b81526004016114149190612d59565b60206040518083038186803b15801561142c57600080fd5b505afa158015611440573d6000803e3d6000fd5b505050506040513d601f19601f8201168201806040525081019061146491906124e4565b73ffffffffffffffffffffffffffffffffffffffff16146114ba576040517f08c379a00000000000000000000000000000000000000000000000000000000081526004016114b190612cf9565b60405180910390fd5b600060996000838152602001908152602001600020600101541415611514576040517f08c379a000000000000000000000000000000000000000000000000000000000815260040161150b90612cd9565b60405180910390fd5b3373ffffffffffffffffffffffffffffffffffffffff166099600083815260200190815260200160002060020160009054906101000a900473ffffffffffffffffffffffffffffffffffffffff1673ffffffffffffffffffffffffffffffffffffffff16146115b8576040517f08c379a00000000000000000000000000000000000000000000000000000000081526004016115af90612d39565b60405180910390fd5b8143609960008381526020019081526020016000206001015410611611576040517f08c379a000000000000000000000000000000000000000000000000000000000815260040161160890612c99565b60405180910390fd5b61161a8361173a565b436099600085815260200190815260200160002060010181905550505050565b611642611732565b73ffffffffffffffffffffffffffffffffffffffff16611660611275565b73ffffffffffffffffffffffffffffffffffffffff16146116b6576040517f08c379a00000000000000000000000000000000000000000000000000000000081526004016116ad90612cb9565b60405180910390fd5b600073ffffffffffffffffffffffffffffffffffffffff168173ffffffffffffffffffffffffffffffffffffffff161415611726576040517f08c379a000000000000000000000000000000000000000000000000000000000815260040161171d90612bd9565b60405180910390fd5b61172f81611f02565b50565b600033905090565b600061174582611b01565b905080609760009054906101000a900473ffffffffffffffffffffffffffffffffffffffff1673ffffffffffffffffffffffffffffffffffffffff166370a08231306040518263ffffffff1660e01b81526004016117a39190612af1565b60206040518083038186803b1580156117bb57600080fd5b505afa1580156117cf573d6000803e3d6000fd5b505050506040513d601f19601f820116820180604052508101906117f391906126d3565b101561186a573373ffffffffffffffffffffffffffffffffffffffff167f7e8de6a1e6682f9d48e1dca794f42aa811c7a6515c3e9bf64713fd7ece9e8e1383600060996000878152602001908152602001600020600101544360405161185c9493929190612d74565b60405180910390a2506119bc565b609760009054906101000a900473ffffffffffffffffffffffffffffffffffffffff1673ffffffffffffffffffffffffffffffffffffffff1663a9059cbb6099600085815260200190815260200160002060020160009054906101000a900473ffffffffffffffffffffffffffffffffffffffff16836040518363ffffffff1660e01b81526004016118fd929190612b43565b602060405180830381600087803b15801561191757600080fd5b505af115801561192b573d6000803e3d6000fd5b505050506040513d601f19601f8201168201806040525081019061194f91906125d4565b503373ffffffffffffffffffffffffffffffffffffffff167f7e8de6a1e6682f9d48e1dca794f42aa811c7a6515c3e9bf64713fd7ece9e8e1383836099600087815260200190815260200160002060010154436040516119b29493929190612e27565b60405180910390a2505b50565b6060600183511015611a06576040517f08c379a00000000000000000000000000000000000000000000000000000000081526004016119fd90612bf9565b60405180910390fd5b600060018451611a169190613003565b67ffffffffffffffff811115611a2f57611a2e6131d7565b5b604051908082528060200260200182016040528015611a5d5781602001602082028036833780820191505090505b509050600184511115611af7576000805b8551811015611af45784868281518110611a8b57611a8a6131a8565b5b602002602001015114611ae157858181518110611aab57611aaa6131a8565b5b6020026020010151838381518110611ac657611ac56131a8565b5b6020026020010181815250508180611add90613130565b9250505b8080611aec90613130565b915050611a6e565b50505b8091505092915050565b600080609960008481526020019081526020016000206001015411611b5b576040517f08c379a0000000000000000000000000000000000000000000000000000000008152600401611b5290612c19565b60405180910390fd5b6000611b796001611b6b85611fc8565b61202290919063ffffffff16565b90506000611ba660996000868152602001908152602001600020600301548361203890919063ffffffff16565b90508092505050919050565b600060019054906101000a900460ff1680611bd8575060008054906101000a900460ff16155b611c17576040517f08c379a0000000000000000000000000000000000000000000000000000000008152600401611c0e90612c59565b60405180910390fd5b60008060019054906101000a900460ff161590508015611c67576001600060016101000a81548160ff02191690831515021790555060016000806101000a81548160ff0219169083151502179055505b611c6f61204e565b611c77612127565b8015611c985760008060016101000a81548160ff0219169083151502179055505b50565b600060019054906101000a900460ff1680611cc1575060008054906101000a900460ff16155b611d00576040517f08c379a0000000000000000000000000000000000000000000000000000000008152600401611cf790612c59565b60405180910390fd5b60008060019054906101000a900460ff161590508015611d50576001600060016101000a81548160ff02191690831515021790555060016000806101000a81548160ff0219169083151502179055505b611d5861204e565b611d60612210565b8015611d815760008060016101000a81548160ff0219169083151502179055505b50565b6000806000806000806000609860009054906101000a900473ffffffffffffffffffffffffffffffffffffffff1673ffffffffffffffffffffffffffffffffffffffff16633da1f63c896040518263ffffffff1660e01b8152600401611dea9190612d59565b60c06040518083038186803b158015611e0257600080fd5b505afa158015611e16573d6000803e3d6000fd5b505050506040513d601f19601f82011682018060405250810190611e3a9190612700565b809650819750829850839950849a50859b5050505050505060006001861415611e6557849050611e7b565b6002861415611e7657839050611e7a565b8290505b5b6000609b604051611e8b90612ac7565b90815260200160405180910390205490506055821115611ef25782609b604051611eb490612adc565b908152602001604051809103902054605584611ed09190613003565b611eda9190612fa9565b611ee49190612fa9565b81611eef9190612f53565b90505b8098505050505050505050919050565b6000603360009054906101000a900473ffffffffffffffffffffffffffffffffffffffff16905081603360006101000a81548173ffffffffffffffffffffffffffffffffffffffff021916908373ffffffffffffffffffffffffffffffffffffffff1602179055508173ffffffffffffffffffffffffffffffffffffffff168173ffffffffffffffffffffffffffffffffffffffff167f8be0079c531659141344cd1fd0a4f28419497f9722a3daafe3b4186f6b6457e060405160405180910390a35050565b60008060996000848152602001908152602001600020600101541415611ff1576000905061201d565b61201a60996000848152602001908152602001600020600101544361202290919063ffffffff16565b90505b919050565b600081836120309190613003565b905092915050565b600081836120469190612fa9565b905092915050565b600060019054906101000a900460ff1680612074575060008054906101000a900460ff16155b6120b3576040517f08c379a00000000000000000000000000000000000000000000000000000000081526004016120aa90612c59565b60405180910390fd5b60008060019054906101000a900460ff161590508015612103576001600060016101000a81548160ff02191690831515021790555060016000806101000a81548160ff0219169083151502179055505b80156121245760008060016101000a81548160ff0219169083151502179055505b50565b600060019054906101000a900460ff168061214d575060008054906101000a900460ff16155b61218c576040517f08c379a000000000000000000000000000000000000000000000000000000000815260040161218390612c59565b60405180910390fd5b60008060019054906101000a900460ff1615905080156121dc576001600060016101000a81548160ff02191690831515021790555060016000806101000a81548160ff0219169083151502179055505b6121ec6121e7611732565b611f02565b801561220d5760008060016101000a81548160ff0219169083151502179055505b50565b600060019054906101000a900460ff1680612236575060008054906101000a900460ff16155b612275576040517f08c379a000000000000000000000000000000000000000000000000000000000815260040161226c90612c59565b60405180910390fd5b60008060019054906101000a900460ff1615905080156122c5576001600060016101000a81548160ff02191690831515021790555060016000806101000a81548160ff0219169083151502179055505b6000606560006101000a81548160ff02191690831515021790555080156123015760008060016101000a81548160ff0219169083151502179055505b50565b828054828255906000526020600020908101928215612340579160200282015b8281111561233f578251825591602001919060010190612324565b5b50905061234d9190612351565b5090565b5b8082111561236a576000816000905550600101612352565b5090565b600061238161237c84612e91565b612e6c565b90508281526020810184848401111561239d5761239c61320b565b5b6123a88482856130bd565b509392505050565b60006123c36123be84612ec2565b612e6c565b9050828152602081018484840111156123df576123de61320b565b5b6123ea8482856130bd565b509392505050565b600081359050612401816135c2565b92915050565b600081519050612416816135c2565b92915050565b60008151905061242b816135d9565b92915050565b600082601f83011261244657612445613206565b5b813561245684826020860161236e565b91505092915050565b600082601f83011261247457612473613206565b5b81356124848482602086016123b0565b91505092915050565b60008135905061249c816135f0565b92915050565b6000815190506124b1816135f0565b92915050565b6000602082840312156124cd576124cc613215565b5b60006124db848285016123f2565b91505092915050565b6000602082840312156124fa576124f9613215565b5b600061250884828501612407565b91505092915050565b6000806040838503121561252857612527613215565b5b6000612536858286016123f2565b9250506020612547858286016123f2565b9150509250929050565b6000806000806080858703121561256b5761256a613215565b5b6000612579878288016123f2565b945050602061258a878288016123f2565b935050604061259b8782880161248d565b925050606085013567ffffffffffffffff8111156125bc576125bb613210565b5b6125c887828801612431565b91505092959194509250565b6000602082840312156125ea576125e9613215565b5b60006125f88482850161241c565b91505092915050565b60006020828403121561261757612616613215565b5b600082013567ffffffffffffffff81111561263557612634613210565b5b6126418482850161245f565b91505092915050565b6000806040838503121561266157612660613215565b5b600083013567ffffffffffffffff81111561267f5761267e613210565b5b61268b8582860161245f565b925050602061269c8582860161248d565b9150509250929050565b6000602082840312156126bc576126bb613215565b5b60006126ca8482850161248d565b91505092915050565b6000602082840312156126e9576126e8613215565b5b60006126f7848285016124a2565b91505092915050565b60008060008060008060c0878903121561271d5761271c613215565b5b600061272b89828a016124a2565b965050602061273c89828a016124a2565b955050604061274d89828a016124a2565b945050606061275e89828a016124a2565b935050608061276f89828a016124a2565b92505060a061278089828a016124a2565b9150509295509295509295565b60006127998383612a7d565b60208301905092915050565b6127ae81613037565b82525050565b60006127bf82612f03565b6127c98185612f26565b93506127d483612ef3565b8060005b838110156128055781516127ec888261278d565b97506127f783612f19565b9250506001810190506127d8565b5085935050505092915050565b61281b81613049565b82525050565b61282a81613055565b82525050565b612839816130ab565b82525050565b600061284a82612f0e565b6128548185612f48565b93506128648185602086016130cc565b80840191505092915050565b600061287d602683612f37565b91506128888261322b565b604082019050919050565b60006128a0600a83612f48565b91506128ab8261327a565b600a82019050919050565b60006128c3601283612f37565b91506128ce826132a3565b602082019050919050565b60006128e6602883612f37565b91506128f1826132cc565b604082019050919050565b6000612909601083612f48565b91506129148261331b565b601082019050919050565b600061292c601c83612f37565b915061293782613344565b602082019050919050565b600061294f602e83612f37565b915061295a8261336d565b604082019050919050565b6000612972602f83612f37565b915061297d826133bc565b604082019050919050565b6000612995603f83612f37565b91506129a08261340b565b604082019050919050565b60006129b8602083612f37565b91506129c38261345a565b602082019050919050565b60006129db601083612f48565b91506129e682613483565b601082019050919050565b60006129fe601f83612f37565b9150612a09826134ac565b602082019050919050565b6000612a21602d83612f37565b9150612a2c826134d5565b604082019050919050565b6000612a44602483612f37565b9150612a4f82613524565b604082019050919050565b6000612a67602983612f37565b9150612a7282613573565b604082019050919050565b612a86816130a1565b82525050565b612a95816130a1565b82525050565b6000612aa7828461283f565b915081905092915050565b6000612abd82612893565b9150819050919050565b6000612ad2826128fc565b9150819050919050565b6000612ae7826129ce565b9150819050919050565b6000602082019050612b0660008301846127a5565b92915050565b6000606082019050612b2160008301866127a5565b612b2e60208301856127a5565b612b3b6040830184612a8c565b949350505050565b6000604082019050612b5860008301856127a5565b612b656020830184612a8c565b9392505050565b60006040820190508181036000830152612b8681856127b4565b90508181036020830152612b9a81846127b4565b90509392505050565b6000602082019050612bb86000830184612812565b92915050565b6000602082019050612bd36000830184612821565b92915050565b60006020820190508181036000830152612bf281612870565b9050919050565b60006020820190508181036000830152612c12816128b6565b9050919050565b60006020820190508181036000830152612c32816128d9565b9050919050565b60006020820190508181036000830152612c528161291f565b9050919050565b60006020820190508181036000830152612c7281612942565b9050919050565b60006020820190508181036000830152612c9281612965565b9050919050565b60006020820190508181036000830152612cb281612988565b9050919050565b60006020820190508181036000830152612cd2816129ab565b9050919050565b60006020820190508181036000830152612cf2816129f1565b9050919050565b60006020820190508181036000830152612d1281612a14565b9050919050565b60006020820190508181036000830152612d3281612a37565b9050919050565b60006020820190508181036000830152612d5281612a5a565b9050919050565b6000602082019050612d6e6000830184612a8c565b92915050565b6000608082019050612d896000830187612a8c565b612d966020830186612830565b612da36040830185612a8c565b612db06060830184612a8c565b95945050505050565b6000604082019050612dce6000830185612a8c565b612ddb6020830184612a8c565b9392505050565b6000608082019050612df76000830187612a8c565b612e046020830186612a8c565b612e1160408301856127a5565b612e1e6060830184612a8c565b95945050505050565b6000608082019050612e3c6000830187612a8c565b612e496020830186612a8c565b612e566040830185612a8c565b612e636060830184612a8c565b95945050505050565b6000612e76612e87565b9050612e8282826130ff565b919050565b6000604051905090565b600067ffffffffffffffff821115612eac57612eab6131d7565b5b612eb58261321a565b9050602081019050919050565b600067ffffffffffffffff821115612edd57612edc6131d7565b5b612ee68261321a565b9050602081019050919050565b6000819050602082019050919050565b600081519050919050565b600081519050919050565b6000602082019050919050565b600082825260208201905092915050565b600082825260208201905092915050565b600081905092915050565b6000612f5e826130a1565b9150612f69836130a1565b9250827fffffffffffffffffffffffffffffffffffffffffffffffffffffffffffffffff03821115612f9e57612f9d613179565b5b828201905092915050565b6000612fb4826130a1565b9150612fbf836130a1565b9250817fffffffffffffffffffffffffffffffffffffffffffffffffffffffffffffffff0483118215151615612ff857612ff7613179565b5b828202905092915050565b600061300e826130a1565b9150613019836130a1565b92508282101561302c5761302b613179565b5b828203905092915050565b600061304282613081565b9050919050565b60008115159050919050565b60007fffffffff0000000000000000000000000000000000000000000000000000000082169050919050565b600073ffffffffffffffffffffffffffffffffffffffff82169050919050565b6000819050919050565b60006130b6826130a1565b9050919050565b82818337600083830152505050565b60005b838110156130ea5780820151818401526020810190506130cf565b838111156130f9576000848401525b50505050565b6131088261321a565b810181811067ffffffffffffffff82111715613127576131266131d7565b5b80604052505050565b600061313b826130a1565b91507fffffffffffffffffffffffffffffffffffffffffffffffffffffffffffffffff82141561316e5761316d613179565b5b600182019050919050565b7f4e487b7100000000000000000000000000000000000000000000000000000000600052601160045260246000fd5b7f4e487b7100000000000000000000000000000000000000000000000000000000600052603260045260246000fd5b7f4e487b7100000000000000000000000000000000000000000000000000000000600052604160045260246000fd5b600080fd5b600080fd5b600080fd5b600080fd5b6000601f19601f8301169050919050565b7f4f776e61626c653a206e6577206f776e657220697320746865207a65726f206160008201527f6464726573730000000000000000000000000000000000000000000000000000602082015250565b7f626f6e75735f7261746500000000000000000000000000000000000000000000600082015250565b7f5f61727252656d6f76652066726f6d205b5d0000000000000000000000000000600082015250565b7f5f7061796f75745374616b653a2043616e206e6f74207374616b652066726f6d60008201527f20626c6f636b2030000000000000000000000000000000000000000000000000602082015250565b7f626173655f626c6f636b5f626f6e757300000000000000000000000000000000600082015250565b7f7374616b65206661696c65643a207374616b656420616c726561647900000000600082015250565b7f496e697469616c697a61626c653a20636f6e747261637420697320616c72656160008201527f647920696e697469616c697a6564000000000000000000000000000000000000602082015250565b7f7374616b65206661696c65643a206e66742062656c6f6e67732074686973206360008201527f6f6e747261637420616c72656164790000000000000000000000000000000000602082015250565b7f7265717569726554696d65456c61707365643a2043616e206e6f74207374616b60008201527f652f756e5374616b652f6861727665737420696e2073616d6520626c6f636b00602082015250565b7f4f776e61626c653a2063616c6c6572206973206e6f7420746865206f776e6572600082015250565b7f617474725f626c6f636b5f626f6e757300000000000000000000000000000000600082015250565b7f6f6e6c795374616b65723a20546f6b656e206973206e6f74207374616b656400600082015250565b7f6f6e6c795374616b65723a20436f6e7472616374206973206e6f74206f776e6560008201527f72206f662074686973204e465400000000000000000000000000000000000000602082015250565b7f7374616b65206661696c65643a20746f6b656e6964207374616b656420616c7260008201527f6561647900000000000000000000000000000000000000000000000000000000602082015250565b7f6f6e6c795374616b65723a2043616c6c6572206973206e6f74204e465420737460008201527f616b65206f776e65720000000000000000000000000000000000000000000000602082015250565b6135cb81613037565b81146135d657600080fd5b50565b6135e281613049565b81146135ed57600080fd5b50565b6135f9816130a1565b811461360457600080fd5b5056fea2646970667358221220e713419b3f2bcaa7bf0357f4bac046d058549988e6e073837993b9292273814464736f6c63430008070033",
  "immutableReferences": {},
  "source": "// SPDX-License-Identifier: MIT\r\n// https://github.com/crazyrabbitLTC/NFT-staking-boiler/blob/main/contracts/NftStake.sol\r\npragma solidity ^0.8.0;\r\n\r\nimport \"@openzeppelin/contracts-upgradeable/access/OwnableUpgradeable.sol\";\r\nimport \"@openzeppelin/contracts-upgradeable/utils/math/SafeMathUpgradeable.sol\";\r\nimport \"@openzeppelin/contracts-upgradeable/token/ERC721/ERC721Upgradeable.sol\";\r\nimport \"@openzeppelin/contracts-upgradeable/token/ERC721/IERC721ReceiverUpgradeable.sol\";\r\nimport \"@openzeppelin/contracts-upgradeable/security/PausableUpgradeable.sol\";\r\nimport \"./NftHero.sol\";\r\nimport \"./Gold.sol\";\r\n\r\n/** NFT */\r\ncontract Stake is IERC721ReceiverUpgradeable,OwnableUpgradeable,PausableUpgradeable {\r\n    using SafeMathUpgradeable for uint256;\r\n\r\n    Gold goldInstance;\r\n    NftHero nftHeroInst;\r\n\r\n    //\r\n    struct stake {\r\n        uint256 tokenId;\r\n        uint256 stakedFromBlock;\r\n        address owner;\r\n        uint256 blockBonus;\r\n    }\r\n    mapping(uint256 => stake) public receipt;\r\n    //tokens\r\n    mapping(address => uint256[]) userTokens;\r\n    //\r\n    //bonus_rate 100\r\n    mapping(string => uint256) params;\r\n\r\n    /** token */\r\n    modifier onlyStaker(uint256 tokenId) {\r\n        //token\r\n        require(nftHeroInst.ownerOf(tokenId) == address(this), \"onlyStaker: Contract is not owner of this NFT\");\r\n        //\r\n        require(receipt[tokenId].stakedFromBlock != 0, \"onlyStaker: Token is not staked\");\r\n        //\r\n        require(receipt[tokenId].owner == msg.sender, \"onlyStaker: Caller is not NFT stake owner\");\r\n        _;\r\n    }\r\n\r\n    /** token */\r\n    modifier requireTimeElapsed(uint256 tokenId) {\r\n        require(\r\n            receipt[tokenId].stakedFromBlock < block.number,\r\n            \"requireTimeElapsed: Can not stake/unStake/harvest in same block\"\r\n        );\r\n        _;\r\n    }\r\n\r\n    function initialize(address _gold, address _NftHero) public initializer {\r\n        __Ownable_init();\r\n        __Pausable_init();\r\n        \r\n        goldInstance = Gold(_gold);\r\n        nftHeroInst = NftHero(_NftHero);\r\n        params[\"bonus_rate\"] = 1;\r\n        params[\"base_block_bonus\"] = uint256(0.01 * 1e18);\r\n        params[\"attr_block_bonus\"] = uint256(0.005 * 1e18);\r\n    }\r\n\r\n    function setNftHeroInst(address _NftHero) public onlyOwner {\r\n        nftHeroInst = NftHero(_NftHero);\r\n    }\r\n\r\n    function setParam(string memory _name, uint256 _value) public onlyOwner {\r\n        params[_name] = _value;\r\n    }\r\n\r\n    function getParam(string memory _name) public view returns (uint256) {\r\n        return params[_name];\r\n    }\r\n\r\n    /**  */\r\n    function getStakeContractBalance() public view returns (uint256) {\r\n        return goldInstance.balanceOf(address(this));\r\n    }\r\n\r\n    /**  */\r\n    function stakeNFT(uint256 tokenId) public {\r\n        //token\r\n        require(nftHeroInst.ownerOf(tokenId) != address(this), \"stake failed: staked already\");\r\n        //\r\n        require(receipt[tokenId].stakedFromBlock == 0, \"stake failed: tokenid staked already\");\r\n\r\n        //\r\n        nftHeroInst.safeTransferFrom(msg.sender, address(this), tokenId); \r\n        require(nftHeroInst.ownerOf(tokenId) == address(this), \"stake failed: nft belongs this contract already\");\r\n\r\n        //\r\n        receipt[tokenId].tokenId = tokenId;\r\n        receipt[tokenId].stakedFromBlock = block.number;\r\n        receipt[tokenId].owner = msg.sender;\r\n        receipt[tokenId].blockBonus = _getBlockBonus(tokenId);\r\n\r\n        //tokenstoken\r\n        userTokens[msg.sender].push(tokenId);\r\n\r\n        emit onNftStake(msg.sender, tokenId, block.number);\r\n    }\r\n\r\n    /**  */\r\n    function _payoutStake(uint256 tokenId) internal {\r\n        uint256 payout = _calcBonus(tokenId);\r\n\r\n        //\r\n        if (goldInstance.balanceOf(address(this)) < payout) {\r\n            emit StakePayout(msg.sender, tokenId, 0, receipt[tokenId].stakedFromBlock, block.number);\r\n            return;\r\n        }\r\n\r\n        // payout stake\r\n        goldInstance.transfer(receipt[tokenId].owner, payout);\r\n\r\n        emit StakePayout(msg.sender, tokenId, payout, receipt[tokenId].stakedFromBlock, block.number);\r\n    }\r\n\r\n    /**  */\r\n    function _calcBonus(uint256 tokenId) private view returns (uint256) {\r\n        require(receipt[tokenId].stakedFromBlock > 0, \"_payoutStake: Can not stake from block 0\");\r\n\r\n        uint256 blockStaked = _getBlockStaked(tokenId).sub(1); //\r\n        uint256 payout = blockStaked.mul(receipt[tokenId].blockBonus);\r\n        return payout;\r\n    }\r\n\r\n    /**  */\r\n    function reviewStaked() public view returns (uint256[] memory _tokens, uint256[] memory _award) {\r\n        if (userTokens[msg.sender].length < 1) {\r\n            return (_tokens, _award);\r\n        }\r\n\r\n        uint256 _tokenId;\r\n        _award = new uint256[](userTokens[msg.sender].length);\r\n        for (uint i=0; i<userTokens[msg.sender].length; i++) {\r\n            _tokenId = userTokens[msg.sender][i];\r\n            _award[i] = _calcBonus(_tokenId);\r\n        }\r\n        return (userTokens[msg.sender], _award);\r\n    }\r\n\r\n\r\n    /**  */\r\n    function unstake(uint256 tokenId) public onlyStaker(tokenId) requireTimeElapsed(tokenId) {\r\n        //\r\n        _payoutStake(tokenId);\r\n        //\r\n        delete receipt[tokenId];\r\n        //\r\n        nftHeroInst.safeTransferFrom(address(this), msg.sender, tokenId);\r\n        emit onNftUnStaked(msg.sender, tokenId, block.number);\r\n\r\n        //tokenstoken\r\n        userTokens[msg.sender] = _arrRemove(userTokens[msg.sender], tokenId);\r\n    }\r\n\r\n    /**  */\r\n    function harvest(uint256 tokenId) public onlyStaker(tokenId) requireTimeElapsed(tokenId) {\r\n        //\r\n        _payoutStake(tokenId);\r\n        //\r\n        receipt[tokenId].stakedFromBlock = block.number;\r\n    }\r\n\r\n    /**  */\r\n    function _getBlockBonus(uint256 tokenId) private view returns (uint256) {\r\n        uint256 id; uint256 _type; uint256 li; uint256 min; uint256 zhi; uint lv;\r\n        (id,_type,li,min,zhi,lv) = nftHeroInst.getAttr(tokenId);\r\n\r\n        uint256 mainAttr;\r\n        if (_type == 1) {\r\n            mainAttr = li;\r\n        } else if (_type == 2) {\r\n            mainAttr = min;\r\n        } else {\r\n            mainAttr = zhi;\r\n        }\r\n\r\n        //0.01 + -85*0.005*\r\n        uint256 blockBonus = params[\"base_block_bonus\"];\r\n        if (mainAttr > 85) {\r\n            blockBonus += uint256((mainAttr - 85) * params[\"attr_block_bonus\"] * lv);\r\n        }\r\n        return blockBonus;\r\n    }\r\n\r\n    /**  */\r\n    function _getBlockStaked(uint256 tokenId) internal view returns (uint256) {\r\n        if (receipt[tokenId].stakedFromBlock == 0) {\r\n            return 0;\r\n        }\r\n\r\n        return block.number.sub(receipt[tokenId].stakedFromBlock);\r\n    }\r\n\r\n    /**  */\r\n    function _arrRemove(uint256[] memory arr, uint256 one) private pure returns (uint256[] memory) {\r\n        require(arr.length >= 1, \"_arrRemove from []\");\r\n\r\n        uint256[] memory ret = new uint256[](arr.length - 1);\r\n\r\n        //0\r\n        if (arr.length > 1) {\r\n            uint k;\r\n            for (uint i; i<arr.length; i++) {\r\n                if (arr[i] != one) {\r\n                    ret[k] = arr[i];\r\n                    k++;\r\n                }\r\n            }\r\n        }\r\n        return ret;\r\n    } \r\n\r\n    /**\r\n     * Always returns `IERC721Receiver.onERC721Received.selector`.\r\n     */\r\n    function onERC721Received(\r\n        address,\r\n        address,\r\n        uint256,\r\n        bytes memory\r\n    ) public virtual override returns (bytes4) {\r\n        return this.onERC721Received.selector;\r\n    }\r\n\r\n    event onNftStake(address indexed staker, uint256 tokenId, uint256 blockNumber);\r\n    event onNftUnStaked(address indexed staker, uint256 tokenId, uint256 blockNumber);\r\n    event StakePayout(address indexed staker, uint256 tokenId, uint256 stakeAmount, uint256 fromBlock, uint256 toBlock);\r\n}",
  "sourcePath": "D:\\solidity\\sol-test1\\contracts\\Stake.sol",
  "compiler": {
    "name": "solc",
    "version": "0.8.7+commit.e28d00a7.Emscripten.clang"
  },
  "schemaVersion": "3.4.3",
  "updatedAt": "2021-12-18T12:42:48.224Z",
  "networkType": "ethereum",
  "devdoc": {
    "kind": "dev",
    "methods": {
      "owner()": {
        "details": "Returns the address of the current owner."
      },
      "paused()": {
        "details": "Returns true if the contract is paused, and false otherwise."
      },
      "renounceOwnership()": {
        "details": "Leaves the contract without owner. It will not be possible to call `onlyOwner` functions anymore. Can only be called by the current owner. NOTE: Renouncing ownership will leave the contract without an owner, thereby removing any functionality that is only available to the owner."
      },
      "transferOwnership(address)": {
        "details": "Transfers ownership of the contract to a new account (`newOwner`). Can only be called by the current owner."
      }
    },
    "version": 1
  },
  "userdoc": {
    "kind": "user",
    "methods": {
      "getStakeContractBalance()": {
        "notice": " "
      },
      "harvest(uint256)": {
        "notice": " "
      },
      "onERC721Received(address,address,uint256,bytes)": {
        "notice": "Always returns `IERC721Receiver.onERC721Received.selector`."
      },
      "reviewStaked()": {
        "notice": " "
      },
      "stakeNFT(uint256)": {
        "notice": " "
      },
      "unstake(uint256)": {
        "notice": " "
      }
    },
    "notice": "NFT ",
    "version": 1
  }
}