{
  "contractName": "Stake",
  "abi": [
    {
      "anonymous": false,
      "inputs": [
        {
          "indexed": true,
          "internalType": "address",
          "name": "previousOwner",
          "type": "address"
        },
        {
          "indexed": true,
          "internalType": "address",
          "name": "newOwner",
          "type": "address"
        }
      ],
      "name": "OwnershipTransferred",
      "type": "event"
    },
    {
      "anonymous": false,
      "inputs": [
        {
          "indexed": true,
          "internalType": "address",
          "name": "staker",
          "type": "address"
        },
        {
          "indexed": false,
          "internalType": "uint256",
          "name": "tokenId",
          "type": "uint256"
        },
        {
          "indexed": false,
          "internalType": "uint256",
          "name": "stakeAmount",
          "type": "uint256"
        },
        {
          "indexed": false,
          "internalType": "uint256",
          "name": "fromBlock",
          "type": "uint256"
        },
        {
          "indexed": false,
          "internalType": "uint256",
          "name": "toBlock",
          "type": "uint256"
        }
      ],
      "name": "StakePayout",
      "type": "event"
    },
    {
      "anonymous": false,
      "inputs": [
        {
          "indexed": true,
          "internalType": "address",
          "name": "staker",
          "type": "address"
        },
        {
          "indexed": false,
          "internalType": "uint256",
          "name": "tokenId",
          "type": "uint256"
        },
        {
          "indexed": false,
          "internalType": "uint256",
          "name": "blockNumber",
          "type": "uint256"
        }
      ],
      "name": "onNftStake",
      "type": "event"
    },
    {
      "anonymous": false,
      "inputs": [
        {
          "indexed": true,
          "internalType": "address",
          "name": "staker",
          "type": "address"
        },
        {
          "indexed": false,
          "internalType": "uint256",
          "name": "tokenId",
          "type": "uint256"
        },
        {
          "indexed": false,
          "internalType": "uint256",
          "name": "blockNumber",
          "type": "uint256"
        }
      ],
      "name": "onNftUnStaked",
      "type": "event"
    },
    {
      "inputs": [],
      "name": "owner",
      "outputs": [
        {
          "internalType": "address",
          "name": "",
          "type": "address"
        }
      ],
      "stateMutability": "view",
      "type": "function"
    },
    {
      "inputs": [
        {
          "internalType": "uint256",
          "name": "",
          "type": "uint256"
        }
      ],
      "name": "receipt",
      "outputs": [
        {
          "internalType": "uint256",
          "name": "tokenId",
          "type": "uint256"
        },
        {
          "internalType": "uint256",
          "name": "stakedFromBlock",
          "type": "uint256"
        },
        {
          "internalType": "address",
          "name": "owner",
          "type": "address"
        },
        {
          "internalType": "uint256",
          "name": "blockBonus",
          "type": "uint256"
        }
      ],
      "stateMutability": "view",
      "type": "function"
    },
    {
      "inputs": [],
      "name": "renounceOwnership",
      "outputs": [],
      "stateMutability": "nonpayable",
      "type": "function"
    },
    {
      "inputs": [
        {
          "internalType": "address",
          "name": "newOwner",
          "type": "address"
        }
      ],
      "name": "transferOwnership",
      "outputs": [],
      "stateMutability": "nonpayable",
      "type": "function"
    },
    {
      "inputs": [
        {
          "internalType": "address",
          "name": "_gold",
          "type": "address"
        },
        {
          "internalType": "address",
          "name": "_NftHero",
          "type": "address"
        }
      ],
      "name": "initialize",
      "outputs": [],
      "stateMutability": "nonpayable",
      "type": "function"
    },
    {
      "inputs": [
        {
          "internalType": "address",
          "name": "_NftHero",
          "type": "address"
        }
      ],
      "name": "setNftHeroInst",
      "outputs": [],
      "stateMutability": "nonpayable",
      "type": "function"
    },
    {
      "inputs": [
        {
          "internalType": "string",
          "name": "_name",
          "type": "string"
        },
        {
          "internalType": "uint256",
          "name": "_value",
          "type": "uint256"
        }
      ],
      "name": "setParam",
      "outputs": [],
      "stateMutability": "nonpayable",
      "type": "function"
    },
    {
      "inputs": [
        {
          "internalType": "string",
          "name": "_name",
          "type": "string"
        }
      ],
      "name": "getParam",
      "outputs": [
        {
          "internalType": "uint256",
          "name": "",
          "type": "uint256"
        }
      ],
      "stateMutability": "view",
      "type": "function"
    },
    {
      "inputs": [],
      "name": "getStakeContractBalance",
      "outputs": [
        {
          "internalType": "uint256",
          "name": "",
          "type": "uint256"
        }
      ],
      "stateMutability": "view",
      "type": "function"
    },
    {
      "inputs": [
        {
          "internalType": "uint256",
          "name": "tokenId",
          "type": "uint256"
        }
      ],
      "name": "stakeNFT",
      "outputs": [],
      "stateMutability": "nonpayable",
      "type": "function"
    },
    {
      "inputs": [],
      "name": "reviewStaked",
      "outputs": [
        {
          "internalType": "uint256[]",
          "name": "_tokens",
          "type": "uint256[]"
        },
        {
          "internalType": "uint256[]",
          "name": "_award",
          "type": "uint256[]"
        }
      ],
      "stateMutability": "view",
      "type": "function"
    },
    {
      "inputs": [
        {
          "internalType": "uint256",
          "name": "tokenId",
          "type": "uint256"
        }
      ],
      "name": "unstake",
      "outputs": [],
      "stateMutability": "nonpayable",
      "type": "function"
    },
    {
      "inputs": [
        {
          "internalType": "uint256",
          "name": "tokenId",
          "type": "uint256"
        }
      ],
      "name": "harvest",
      "outputs": [],
      "stateMutability": "nonpayable",
      "type": "function"
    },
    {
      "inputs": [
        {
          "internalType": "address",
          "name": "",
          "type": "address"
        },
        {
          "internalType": "address",
          "name": "",
          "type": "address"
        },
        {
          "internalType": "uint256",
          "name": "",
          "type": "uint256"
        },
        {
          "internalType": "bytes",
          "name": "",
          "type": "bytes"
        }
      ],
      "name": "onERC721Received",
      "outputs": [
        {
          "internalType": "bytes4",
          "name": "",
          "type": "bytes4"
        }
      ],
      "stateMutability": "nonpayable",
      "type": "function"
    }
  ],
  "bytecode": "0x608060405234801561001057600080fd5b5061313b806100206000396000f3fe608060405234801561001057600080fd5b50600436106100e95760003560e01c80636eb604e01161008c578063a2aa433711610066578063a2aa433714610221578063bf8f021814610254578063ddc6326214610272578063f2fde38b1461028e576100e9565b80636eb604e0146101dd578063715018a6146101f95780638da5cb5b14610203576100e9565b806343dd3a31116100c857806343dd3a311461015657806344d9da6814610175578063485cc955146101915780635d4f71d4146101ad576100e9565b8062259683146100ee578063150b7a021461010a5780632e17de781461013a575b600080fd5b61010860048036038101906101039190611fdf565b6102aa565b005b610124600480360381019061011f9190612079565b61036a565b60405161013191906126bc565b60405180910390f35b610154600480360381019061014f91906121ce565b61037e565b005b61015e61081c565b60405161016c929190612685565b60405180910390f35b61018f600480360381019061018a9190612172565b610a81565b005b6101ab60048036038101906101a69190612039565b610b24565b005b6101c760048036038101906101c29190612129565b610cf3565b6040516101d49190612857565b60405180910390f35b6101f760048036038101906101f291906121ce565b610d1b565b005b61020161119d565b005b61020b611225565b604051610218919061260a565b60405180910390f35b61023b600480360381019061023691906121ce565b61124f565b60405161024b94939291906128e0565b60405180910390f35b61025c61129f565b6040516102699190612857565b60405180910390f35b61028c600480360381019061028791906121ce565b611351565b005b6102a860048036038101906102a39190611fdf565b6115ea565b005b6102b26116e2565b73ffffffffffffffffffffffffffffffffffffffff166102d0611225565b73ffffffffffffffffffffffffffffffffffffffff1614610326576040517f08c379a000000000000000000000000000000000000000000000000000000000815260040161031d906127b7565b60405180910390fd5b80606660006101000a81548173ffffffffffffffffffffffffffffffffffffffff021916908373ffffffffffffffffffffffffffffffffffffffff16021790555050565b600063150b7a0260e01b9050949350505050565b803073ffffffffffffffffffffffffffffffffffffffff16606660009054906101000a900473ffffffffffffffffffffffffffffffffffffffff1673ffffffffffffffffffffffffffffffffffffffff16636352211e836040518263ffffffff1660e01b81526004016103f19190612857565b60206040518083038186803b15801561040957600080fd5b505afa15801561041d573d6000803e3d6000fd5b505050506040513d601f19601f82011682018060405250810190610441919061200c565b73ffffffffffffffffffffffffffffffffffffffff1614610497576040517f08c379a000000000000000000000000000000000000000000000000000000000815260040161048e906127f7565b60405180910390fd5b6000606760008381526020019081526020016000206001015414156104f1576040517f08c379a00000000000000000000000000000000000000000000000000000000081526004016104e8906127d7565b60405180910390fd5b3373ffffffffffffffffffffffffffffffffffffffff166067600083815260200190815260200160002060020160009054906101000a900473ffffffffffffffffffffffffffffffffffffffff1673ffffffffffffffffffffffffffffffffffffffff1614610595576040517f08c379a000000000000000000000000000000000000000000000000000000000815260040161058c90612837565b60405180910390fd5b81436067600083815260200190815260200160002060010154106105ee576040517f08c379a00000000000000000000000000000000000000000000000000000000081526004016105e590612797565b60405180910390fd5b6105f7836116ea565b6067600084815260200190815260200160002060008082016000905560018201600090556002820160006101000a81549073ffffffffffffffffffffffffffffffffffffffff021916905560038201600090555050606660009054906101000a900473ffffffffffffffffffffffffffffffffffffffff1673ffffffffffffffffffffffffffffffffffffffff166342842e0e3033866040518463ffffffff1660e01b81526004016106ab93929190612625565b600060405180830381600087803b1580156106c557600080fd5b505af11580156106d9573d6000803e3d6000fd5b505050503373ffffffffffffffffffffffffffffffffffffffff167f36debf9bde21e9970ddaef027c046ea453975592d028496c8ce3d0e7eae7b51584436040516107259291906128b7565b60405180910390a26107c4606860003373ffffffffffffffffffffffffffffffffffffffff1673ffffffffffffffffffffffffffffffffffffffff1681526020019081526020016000208054806020026020016040519081016040528092919081815260200182805480156107b957602002820191906000526020600020905b8154815260200190600101908083116107a5575b50505050508461196f565b606860003373ffffffffffffffffffffffffffffffffffffffff1673ffffffffffffffffffffffffffffffffffffffff1681526020019081526020016000209080519060200190610816929190611e2c565b50505050565b6060806001606860003373ffffffffffffffffffffffffffffffffffffffff1673ffffffffffffffffffffffffffffffffffffffff16815260200190815260200160002080549050101561086f57610a7d565b6000606860003373ffffffffffffffffffffffffffffffffffffffff1673ffffffffffffffffffffffffffffffffffffffff1681526020019081526020016000208054905067ffffffffffffffff8111156108cd576108cc612cd5565b5b6040519080825280602002602001820160405280156108fb5781602001602082028036833780820191505090505b50915060005b606860003373ffffffffffffffffffffffffffffffffffffffff1673ffffffffffffffffffffffffffffffffffffffff168152602001908152602001600020805490508110156109e457606860003373ffffffffffffffffffffffffffffffffffffffff1673ffffffffffffffffffffffffffffffffffffffff168152602001908152602001600020818154811061099c5761099b612ca6565b5b906000526020600020015491506109b282611ab1565b8382815181106109c5576109c4612ca6565b5b60200260200101818152505080806109dc90612c2e565b915050610901565b50606860003373ffffffffffffffffffffffffffffffffffffffff1673ffffffffffffffffffffffffffffffffffffffff1681526020019081526020016000208281805480602002602001604051908101604052809291908181526020018280548015610a7057602002820191906000526020600020905b815481526020019060010190808311610a5c575b5050505050915092509250505b9091565b610a896116e2565b73ffffffffffffffffffffffffffffffffffffffff16610aa7611225565b73ffffffffffffffffffffffffffffffffffffffff1614610afd576040517f08c379a0000000000000000000000000000000000000000000000000000000008152600401610af4906127b7565b60405180910390fd5b80606983604051610b0e91906125b4565b9081526020016040518091039020819055505050565b600060019054906101000a900460ff1680610b4a575060008054906101000a900460ff16155b610b89576040517f08c379a0000000000000000000000000000000000000000000000000000000008152600401610b8090612757565b60405180910390fd5b60008060019054906101000a900460ff161590508015610bd9576001600060016101000a81548160ff02191690831515021790555060016000806101000a81548160ff0219169083151502179055505b82606560006101000a81548173ffffffffffffffffffffffffffffffffffffffff021916908373ffffffffffffffffffffffffffffffffffffffff16021790555081606660006101000a81548173ffffffffffffffffffffffffffffffffffffffff021916908373ffffffffffffffffffffffffffffffffffffffff16021790555060016069604051610c6b906125cb565b908152602001604051809103902081905550662386f26fc100006069604051610c93906125e0565b9081526020016040518091039020819055506611c37937e080006069604051610cbb906125f5565b9081526020016040518091039020819055508015610cee5760008060016101000a81548160ff0219169083151502179055505b505050565b6000606982604051610d0591906125b4565b9081526020016040518091039020549050919050565b3073ffffffffffffffffffffffffffffffffffffffff16606660009054906101000a900473ffffffffffffffffffffffffffffffffffffffff1673ffffffffffffffffffffffffffffffffffffffff16636352211e836040518263ffffffff1660e01b8152600401610d8d9190612857565b60206040518083038186803b158015610da557600080fd5b505afa158015610db9573d6000803e3d6000fd5b505050506040513d601f19601f82011682018060405250810190610ddd919061200c565b73ffffffffffffffffffffffffffffffffffffffff161415610e34576040517f08c379a0000000000000000000000000000000000000000000000000000000008152600401610e2b90612737565b60405180910390fd5b6000606760008381526020019081526020016000206001015414610e8d576040517f08c379a0000000000000000000000000000000000000000000000000000000008152600401610e8490612817565b60405180910390fd5b606660009054906101000a900473ffffffffffffffffffffffffffffffffffffffff1673ffffffffffffffffffffffffffffffffffffffff166342842e0e3330846040518463ffffffff1660e01b8152600401610eec93929190612625565b600060405180830381600087803b158015610f0657600080fd5b505af1158015610f1a573d6000803e3d6000fd5b505050503073ffffffffffffffffffffffffffffffffffffffff16606660009054906101000a900473ffffffffffffffffffffffffffffffffffffffff1673ffffffffffffffffffffffffffffffffffffffff16636352211e836040518263ffffffff1660e01b8152600401610f909190612857565b60206040518083038186803b158015610fa857600080fd5b505afa158015610fbc573d6000803e3d6000fd5b505050506040513d601f19601f82011682018060405250810190610fe0919061200c565b73ffffffffffffffffffffffffffffffffffffffff1614611036576040517f08c379a000000000000000000000000000000000000000000000000000000000815260040161102d90612777565b60405180910390fd5b806067600083815260200190815260200160002060000181905550436067600083815260200190815260200160002060010181905550336067600083815260200190815260200160002060020160006101000a81548173ffffffffffffffffffffffffffffffffffffffff021916908373ffffffffffffffffffffffffffffffffffffffff1602179055506110ca81611b62565b6067600083815260200190815260200160002060030181905550606860003373ffffffffffffffffffffffffffffffffffffffff1673ffffffffffffffffffffffffffffffffffffffff1681526020019081526020016000208190806001815401808255809150506001900390600052602060002001600090919091909150553373ffffffffffffffffffffffffffffffffffffffff167f1e683d6ad5aed2b9f91e8b9b6ae0254c6db5075a931ee61daaea1771c6e141e282436040516111929291906128b7565b60405180910390a250565b6111a56116e2565b73ffffffffffffffffffffffffffffffffffffffff166111c3611225565b73ffffffffffffffffffffffffffffffffffffffff1614611219576040517f08c379a0000000000000000000000000000000000000000000000000000000008152600401611210906127b7565b60405180910390fd5b6112236000611ce0565b565b6000603360009054906101000a900473ffffffffffffffffffffffffffffffffffffffff16905090565b60676020528060005260406000206000915090508060000154908060010154908060020160009054906101000a900473ffffffffffffffffffffffffffffffffffffffff16908060030154905084565b6000606560009054906101000a900473ffffffffffffffffffffffffffffffffffffffff1673ffffffffffffffffffffffffffffffffffffffff166370a08231306040518263ffffffff1660e01b81526004016112fc919061260a565b60206040518083038186803b15801561131457600080fd5b505afa158015611328573d6000803e3d6000fd5b505050506040513d601f19601f8201168201806040525081019061134c91906121fb565b905090565b803073ffffffffffffffffffffffffffffffffffffffff16606660009054906101000a900473ffffffffffffffffffffffffffffffffffffffff1673ffffffffffffffffffffffffffffffffffffffff16636352211e836040518263ffffffff1660e01b81526004016113c49190612857565b60206040518083038186803b1580156113dc57600080fd5b505afa1580156113f0573d6000803e3d6000fd5b505050506040513d601f19601f82011682018060405250810190611414919061200c565b73ffffffffffffffffffffffffffffffffffffffff161461146a576040517f08c379a0000000000000000000000000000000000000000000000000000000008152600401611461906127f7565b60405180910390fd5b6000606760008381526020019081526020016000206001015414156114c4576040517f08c379a00000000000000000000000000000000000000000000000000000000081526004016114bb906127d7565b60405180910390fd5b3373ffffffffffffffffffffffffffffffffffffffff166067600083815260200190815260200160002060020160009054906101000a900473ffffffffffffffffffffffffffffffffffffffff1673ffffffffffffffffffffffffffffffffffffffff1614611568576040517f08c379a000000000000000000000000000000000000000000000000000000000815260040161155f90612837565b60405180910390fd5b81436067600083815260200190815260200160002060010154106115c1576040517f08c379a00000000000000000000000000000000000000000000000000000000081526004016115b890612797565b60405180910390fd5b6115ca836116ea565b436067600085815260200190815260200160002060010181905550505050565b6115f26116e2565b73ffffffffffffffffffffffffffffffffffffffff16611610611225565b73ffffffffffffffffffffffffffffffffffffffff1614611666576040517f08c379a000000000000000000000000000000000000000000000000000000000815260040161165d906127b7565b60405180910390fd5b600073ffffffffffffffffffffffffffffffffffffffff168173ffffffffffffffffffffffffffffffffffffffff1614156116d6576040517f08c379a00000000000000000000000000000000000000000000000000000000081526004016116cd906126d7565b60405180910390fd5b6116df81611ce0565b50565b600033905090565b60006116f582611ab1565b905080606560009054906101000a900473ffffffffffffffffffffffffffffffffffffffff1673ffffffffffffffffffffffffffffffffffffffff166370a08231306040518263ffffffff1660e01b8152600401611753919061260a565b60206040518083038186803b15801561176b57600080fd5b505afa15801561177f573d6000803e3d6000fd5b505050506040513d601f19601f820116820180604052508101906117a391906121fb565b101561181a573373ffffffffffffffffffffffffffffffffffffffff167f7e8de6a1e6682f9d48e1dca794f42aa811c7a6515c3e9bf64713fd7ece9e8e1383600060676000878152602001908152602001600020600101544360405161180c9493929190612872565b60405180910390a25061196c565b606560009054906101000a900473ffffffffffffffffffffffffffffffffffffffff1673ffffffffffffffffffffffffffffffffffffffff1663a9059cbb6067600085815260200190815260200160002060020160009054906101000a900473ffffffffffffffffffffffffffffffffffffffff16836040518363ffffffff1660e01b81526004016118ad92919061265c565b602060405180830381600087803b1580156118c757600080fd5b505af11580156118db573d6000803e3d6000fd5b505050506040513d601f19601f820116820180604052508101906118ff91906120fc565b503373ffffffffffffffffffffffffffffffffffffffff167f7e8de6a1e6682f9d48e1dca794f42aa811c7a6515c3e9bf64713fd7ece9e8e1383836067600087815260200190815260200160002060010154436040516119629493929190612925565b60405180910390a2505b50565b60606001835110156119b6576040517f08c379a00000000000000000000000000000000000000000000000000000000081526004016119ad906126f7565b60405180910390fd5b6000600184516119c69190612b01565b67ffffffffffffffff8111156119df576119de612cd5565b5b604051908082528060200260200182016040528015611a0d5781602001602082028036833780820191505090505b509050600184511115611aa7576000805b8551811015611aa45784868281518110611a3b57611a3a612ca6565b5b602002602001015114611a9157858181518110611a5b57611a5a612ca6565b5b6020026020010151838381518110611a7657611a75612ca6565b5b6020026020010181815250508180611a8d90612c2e565b9250505b8080611a9c90612c2e565b915050611a1e565b50505b8091505092915050565b600080606760008481526020019081526020016000206001015411611b0b576040517f08c379a0000000000000000000000000000000000000000000000000000000008152600401611b0290612717565b60405180910390fd5b6000611b296001611b1b85611da6565b611e0090919063ffffffff16565b90506000611b56606760008681526020019081526020016000206003015483611e1690919063ffffffff16565b90508092505050919050565b6000806000806000806000606660009054906101000a900473ffffffffffffffffffffffffffffffffffffffff1673ffffffffffffffffffffffffffffffffffffffff16633da1f63c896040518263ffffffff1660e01b8152600401611bc89190612857565b60c06040518083038186803b158015611be057600080fd5b505afa158015611bf4573d6000803e3d6000fd5b505050506040513d601f19601f82011682018060405250810190611c189190612228565b809650819750829850839950849a50859b5050505050505060006001861415611c4357849050611c59565b6002861415611c5457839050611c58565b8290505b5b60006069604051611c69906125e0565b90815260200160405180910390205490506055821115611cd057826069604051611c92906125f5565b908152602001604051809103902054605584611cae9190612b01565b611cb89190612aa7565b611cc29190612aa7565b81611ccd9190612a51565b90505b8098505050505050505050919050565b6000603360009054906101000a900473ffffffffffffffffffffffffffffffffffffffff16905081603360006101000a81548173ffffffffffffffffffffffffffffffffffffffff021916908373ffffffffffffffffffffffffffffffffffffffff1602179055508173ffffffffffffffffffffffffffffffffffffffff168173ffffffffffffffffffffffffffffffffffffffff167f8be0079c531659141344cd1fd0a4f28419497f9722a3daafe3b4186f6b6457e060405160405180910390a35050565b60008060676000848152602001908152602001600020600101541415611dcf5760009050611dfb565b611df8606760008481526020019081526020016000206001015443611e0090919063ffffffff16565b90505b919050565b60008183611e0e9190612b01565b905092915050565b60008183611e249190612aa7565b905092915050565b828054828255906000526020600020908101928215611e68579160200282015b82811115611e67578251825591602001919060010190611e4c565b5b509050611e759190611e79565b5090565b5b80821115611e92576000816000905550600101611e7a565b5090565b6000611ea9611ea48461298f565b61296a565b905082815260208101848484011115611ec557611ec4612d09565b5b611ed0848285612bbb565b509392505050565b6000611eeb611ee6846129c0565b61296a565b905082815260208101848484011115611f0757611f06612d09565b5b611f12848285612bbb565b509392505050565b600081359050611f29816130c0565b92915050565b600081519050611f3e816130c0565b92915050565b600081519050611f53816130d7565b92915050565b600082601f830112611f6e57611f6d612d04565b5b8135611f7e848260208601611e96565b91505092915050565b600082601f830112611f9c57611f9b612d04565b5b8135611fac848260208601611ed8565b91505092915050565b600081359050611fc4816130ee565b92915050565b600081519050611fd9816130ee565b92915050565b600060208284031215611ff557611ff4612d13565b5b600061200384828501611f1a565b91505092915050565b60006020828403121561202257612021612d13565b5b600061203084828501611f2f565b91505092915050565b600080604083850312156120505761204f612d13565b5b600061205e85828601611f1a565b925050602061206f85828601611f1a565b9150509250929050565b6000806000806080858703121561209357612092612d13565b5b60006120a187828801611f1a565b94505060206120b287828801611f1a565b93505060406120c387828801611fb5565b925050606085013567ffffffffffffffff8111156120e4576120e3612d0e565b5b6120f087828801611f59565b91505092959194509250565b60006020828403121561211257612111612d13565b5b600061212084828501611f44565b91505092915050565b60006020828403121561213f5761213e612d13565b5b600082013567ffffffffffffffff81111561215d5761215c612d0e565b5b61216984828501611f87565b91505092915050565b6000806040838503121561218957612188612d13565b5b600083013567ffffffffffffffff8111156121a7576121a6612d0e565b5b6121b385828601611f87565b92505060206121c485828601611fb5565b9150509250929050565b6000602082840312156121e4576121e3612d13565b5b60006121f284828501611fb5565b91505092915050565b60006020828403121561221157612210612d13565b5b600061221f84828501611fca565b91505092915050565b60008060008060008060c0878903121561224557612244612d13565b5b600061225389828a01611fca565b965050602061226489828a01611fca565b955050604061227589828a01611fca565b945050606061228689828a01611fca565b935050608061229789828a01611fca565b92505060a06122a889828a01611fca565b9150509295509295509295565b60006122c18383612596565b60208301905092915050565b6122d681612b35565b82525050565b60006122e782612a01565b6122f18185612a24565b93506122fc836129f1565b8060005b8381101561232d57815161231488826122b5565b975061231f83612a17565b925050600181019050612300565b5085935050505092915050565b61234381612b53565b82525050565b61235281612ba9565b82525050565b600061236382612a0c565b61236d8185612a46565b935061237d818560208601612bca565b80840191505092915050565b6000612396602683612a35565b91506123a182612d29565b604082019050919050565b60006123b9600a83612a46565b91506123c482612d78565b600a82019050919050565b60006123dc601283612a35565b91506123e782612da1565b602082019050919050565b60006123ff602883612a35565b915061240a82612dca565b604082019050919050565b6000612422601083612a46565b915061242d82612e19565b601082019050919050565b6000612445601c83612a35565b915061245082612e42565b602082019050919050565b6000612468602e83612a35565b915061247382612e6b565b604082019050919050565b600061248b602f83612a35565b915061249682612eba565b604082019050919050565b60006124ae603f83612a35565b91506124b982612f09565b604082019050919050565b60006124d1602083612a35565b91506124dc82612f58565b602082019050919050565b60006124f4601083612a46565b91506124ff82612f81565b601082019050919050565b6000612517601f83612a35565b915061252282612faa565b602082019050919050565b600061253a602d83612a35565b915061254582612fd3565b604082019050919050565b600061255d602483612a35565b915061256882613022565b604082019050919050565b6000612580602983612a35565b915061258b82613071565b604082019050919050565b61259f81612b9f565b82525050565b6125ae81612b9f565b82525050565b60006125c08284612358565b915081905092915050565b60006125d6826123ac565b9150819050919050565b60006125eb82612415565b9150819050919050565b6000612600826124e7565b9150819050919050565b600060208201905061261f60008301846122cd565b92915050565b600060608201905061263a60008301866122cd565b61264760208301856122cd565b61265460408301846125a5565b949350505050565b600060408201905061267160008301856122cd565b61267e60208301846125a5565b9392505050565b6000604082019050818103600083015261269f81856122dc565b905081810360208301526126b381846122dc565b90509392505050565b60006020820190506126d1600083018461233a565b92915050565b600060208201905081810360008301526126f081612389565b9050919050565b60006020820190508181036000830152612710816123cf565b9050919050565b60006020820190508181036000830152612730816123f2565b9050919050565b6000602082019050818103600083015261275081612438565b9050919050565b600060208201905081810360008301526127708161245b565b9050919050565b600060208201905081810360008301526127908161247e565b9050919050565b600060208201905081810360008301526127b0816124a1565b9050919050565b600060208201905081810360008301526127d0816124c4565b9050919050565b600060208201905081810360008301526127f08161250a565b9050919050565b600060208201905081810360008301526128108161252d565b9050919050565b6000602082019050818103600083015261283081612550565b9050919050565b6000602082019050818103600083015261285081612573565b9050919050565b600060208201905061286c60008301846125a5565b92915050565b600060808201905061288760008301876125a5565b6128946020830186612349565b6128a160408301856125a5565b6128ae60608301846125a5565b95945050505050565b60006040820190506128cc60008301856125a5565b6128d960208301846125a5565b9392505050565b60006080820190506128f560008301876125a5565b61290260208301866125a5565b61290f60408301856122cd565b61291c60608301846125a5565b95945050505050565b600060808201905061293a60008301876125a5565b61294760208301866125a5565b61295460408301856125a5565b61296160608301846125a5565b95945050505050565b6000612974612985565b90506129808282612bfd565b919050565b6000604051905090565b600067ffffffffffffffff8211156129aa576129a9612cd5565b5b6129b382612d18565b9050602081019050919050565b600067ffffffffffffffff8211156129db576129da612cd5565b5b6129e482612d18565b9050602081019050919050565b6000819050602082019050919050565b600081519050919050565b600081519050919050565b6000602082019050919050565b600082825260208201905092915050565b600082825260208201905092915050565b600081905092915050565b6000612a5c82612b9f565b9150612a6783612b9f565b9250827fffffffffffffffffffffffffffffffffffffffffffffffffffffffffffffffff03821115612a9c57612a9b612c77565b5b828201905092915050565b6000612ab282612b9f565b9150612abd83612b9f565b9250817fffffffffffffffffffffffffffffffffffffffffffffffffffffffffffffffff0483118215151615612af657612af5612c77565b5b828202905092915050565b6000612b0c82612b9f565b9150612b1783612b9f565b925082821015612b2a57612b29612c77565b5b828203905092915050565b6000612b4082612b7f565b9050919050565b60008115159050919050565b60007fffffffff0000000000000000000000000000000000000000000000000000000082169050919050565b600073ffffffffffffffffffffffffffffffffffffffff82169050919050565b6000819050919050565b6000612bb482612b9f565b9050919050565b82818337600083830152505050565b60005b83811015612be8578082015181840152602081019050612bcd565b83811115612bf7576000848401525b50505050565b612c0682612d18565b810181811067ffffffffffffffff82111715612c2557612c24612cd5565b5b80604052505050565b6000612c3982612b9f565b91507fffffffffffffffffffffffffffffffffffffffffffffffffffffffffffffffff821415612c6c57612c6b612c77565b5b600182019050919050565b7f4e487b7100000000000000000000000000000000000000000000000000000000600052601160045260246000fd5b7f4e487b7100000000000000000000000000000000000000000000000000000000600052603260045260246000fd5b7f4e487b7100000000000000000000000000000000000000000000000000000000600052604160045260246000fd5b600080fd5b600080fd5b600080fd5b600080fd5b6000601f19601f8301169050919050565b7f4f776e61626c653a206e6577206f776e657220697320746865207a65726f206160008201527f6464726573730000000000000000000000000000000000000000000000000000602082015250565b7f626f6e75735f7261746500000000000000000000000000000000000000000000600082015250565b7f5f61727252656d6f76652066726f6d205b5d0000000000000000000000000000600082015250565b7f5f7061796f75745374616b653a2043616e206e6f74207374616b652066726f6d60008201527f20626c6f636b2030000000000000000000000000000000000000000000000000602082015250565b7f626173655f626c6f636b5f626f6e757300000000000000000000000000000000600082015250565b7f7374616b65206661696c65643a207374616b656420616c726561647900000000600082015250565b7f496e697469616c697a61626c653a20636f6e747261637420697320616c72656160008201527f647920696e697469616c697a6564000000000000000000000000000000000000602082015250565b7f7374616b65206661696c65643a206e66742062656c6f6e67732074686973206360008201527f6f6e747261637420616c72656164790000000000000000000000000000000000602082015250565b7f7265717569726554696d65456c61707365643a2043616e206e6f74207374616b60008201527f652f756e5374616b652f6861727665737420696e2073616d6520626c6f636b00602082015250565b7f4f776e61626c653a2063616c6c6572206973206e6f7420746865206f776e6572600082015250565b7f617474725f626c6f636b5f626f6e757300000000000000000000000000000000600082015250565b7f6f6e6c795374616b65723a20546f6b656e206973206e6f74207374616b656400600082015250565b7f6f6e6c795374616b65723a20436f6e7472616374206973206e6f74206f776e6560008201527f72206f662074686973204e465400000000000000000000000000000000000000602082015250565b7f7374616b65206661696c65643a20746f6b656e6964207374616b656420616c7260008201527f6561647900000000000000000000000000000000000000000000000000000000602082015250565b7f6f6e6c795374616b65723a2043616c6c6572206973206e6f74204e465420737460008201527f616b65206f776e65720000000000000000000000000000000000000000000000602082015250565b6130c981612b35565b81146130d457600080fd5b50565b6130e081612b47565b81146130eb57600080fd5b50565b6130f781612b9f565b811461310257600080fd5b5056fea2646970667358221220f9bbf2675c2699cb4224437108d55538506a204b7dd1086e6f439f7ea805cadd64736f6c63430008070033",
  "immutableReferences": {},
  "source": "// SPDX-License-Identifier: MIT\r\n// https://github.com/crazyrabbitLTC/NFT-staking-boiler/blob/main/contracts/NftStake.sol\r\npragma solidity ^0.8.0;\r\n\r\nimport \"@openzeppelin/contracts-upgradeable/access/OwnableUpgradeable.sol\";\r\nimport \"@openzeppelin/contracts-upgradeable/utils/math/SafeMathUpgradeable.sol\";\r\nimport \"@openzeppelin/contracts-upgradeable/token/ERC721/ERC721Upgradeable.sol\";\r\nimport \"@openzeppelin/contracts-upgradeable/token/ERC721/IERC721ReceiverUpgradeable.sol\";\r\nimport \"./NftHero.sol\";\r\nimport \"./Gold.sol\";\r\n\r\n/** NFT */\r\ncontract Stake is IERC721ReceiverUpgradeable,OwnableUpgradeable {\r\n    using SafeMathUpgradeable for uint256;\r\n\r\n    Gold goldInstance;\r\n    NftHero nftHeroInst;\r\n\r\n    //\r\n    struct stake {\r\n        uint256 tokenId;\r\n        uint256 stakedFromBlock;\r\n        address owner;\r\n        uint256 blockBonus;\r\n    }\r\n    mapping(uint256 => stake) public receipt;\r\n    //tokens\r\n    mapping(address => uint256[]) userTokens;\r\n    //\r\n    //bonus_rate 100\r\n    mapping(string => uint256) params;\r\n\r\n    /** token */\r\n    modifier onlyStaker(uint256 tokenId) {\r\n        //token\r\n        require(nftHeroInst.ownerOf(tokenId) == address(this), \"onlyStaker: Contract is not owner of this NFT\");\r\n        //\r\n        require(receipt[tokenId].stakedFromBlock != 0, \"onlyStaker: Token is not staked\");\r\n        //\r\n        require(receipt[tokenId].owner == msg.sender, \"onlyStaker: Caller is not NFT stake owner\");\r\n        _;\r\n    }\r\n\r\n    /** token */\r\n    modifier requireTimeElapsed(uint256 tokenId) {\r\n        require(\r\n            receipt[tokenId].stakedFromBlock < block.number,\r\n            \"requireTimeElapsed: Can not stake/unStake/harvest in same block\"\r\n        );\r\n        _;\r\n    }\r\n\r\n    function initialize(address _gold, address _NftHero) public initializer {\r\n        goldInstance = Gold(_gold);\r\n        nftHeroInst = NftHero(_NftHero);\r\n        params[\"bonus_rate\"] = 1;\r\n        params[\"base_block_bonus\"] = uint256(0.01 * 1e18);\r\n        params[\"attr_block_bonus\"] = uint256(0.005 * 1e18);\r\n    }\r\n\r\n    function setNftHeroInst(address _NftHero) public onlyOwner {\r\n        nftHeroInst = NftHero(_NftHero);\r\n    }\r\n\r\n    function setParam(string memory _name, uint256 _value) public onlyOwner {\r\n        params[_name] = _value;\r\n    }\r\n\r\n    function getParam(string memory _name) public view returns (uint256) {\r\n        return params[_name];\r\n    }\r\n\r\n    /**  */\r\n    function getStakeContractBalance() public view returns (uint256) {\r\n        return goldInstance.balanceOf(address(this));\r\n    }\r\n\r\n    /**  */\r\n    function stakeNFT(uint256 tokenId) public {\r\n        //token\r\n        require(nftHeroInst.ownerOf(tokenId) != address(this), \"stake failed: staked already\");\r\n        //\r\n        require(receipt[tokenId].stakedFromBlock == 0, \"stake failed: tokenid staked already\");\r\n\r\n        //\r\n        nftHeroInst.safeTransferFrom(msg.sender, address(this), tokenId); \r\n        require(nftHeroInst.ownerOf(tokenId) == address(this), \"stake failed: nft belongs this contract already\");\r\n\r\n        //\r\n        receipt[tokenId].tokenId = tokenId;\r\n        receipt[tokenId].stakedFromBlock = block.number;\r\n        receipt[tokenId].owner = msg.sender;\r\n        receipt[tokenId].blockBonus = _getBlockBonus(tokenId);\r\n\r\n        //tokenstoken\r\n        userTokens[msg.sender].push(tokenId);\r\n\r\n        emit onNftStake(msg.sender, tokenId, block.number);\r\n    }\r\n\r\n    /**  */\r\n    function _payoutStake(uint256 tokenId) internal {\r\n        uint256 payout = _calcBonus(tokenId);\r\n\r\n        //\r\n        if (goldInstance.balanceOf(address(this)) < payout) {\r\n            emit StakePayout(msg.sender, tokenId, 0, receipt[tokenId].stakedFromBlock, block.number);\r\n            return;\r\n        }\r\n\r\n        // payout stake\r\n        goldInstance.transfer(receipt[tokenId].owner, payout);\r\n\r\n        emit StakePayout(msg.sender, tokenId, payout, receipt[tokenId].stakedFromBlock, block.number);\r\n    }\r\n\r\n    /**  */\r\n    function _calcBonus(uint256 tokenId) private view returns (uint256) {\r\n        require(receipt[tokenId].stakedFromBlock > 0, \"_payoutStake: Can not stake from block 0\");\r\n\r\n        uint256 blockStaked = _getBlockStaked(tokenId).sub(1); //\r\n        uint256 payout = blockStaked.mul(receipt[tokenId].blockBonus);\r\n        return payout;\r\n    }\r\n\r\n    /**  */\r\n    function reviewStaked() public view returns (uint256[] memory _tokens, uint256[] memory _award) {\r\n        if (userTokens[msg.sender].length < 1) {\r\n            return (_tokens, _award);\r\n        }\r\n\r\n        uint256 _tokenId;\r\n        _award = new uint256[](userTokens[msg.sender].length);\r\n        for (uint i=0; i<userTokens[msg.sender].length; i++) {\r\n            _tokenId = userTokens[msg.sender][i];\r\n            _award[i] = _calcBonus(_tokenId);\r\n        }\r\n        return (userTokens[msg.sender], _award);\r\n    }\r\n\r\n\r\n    /**  */\r\n    function unstake(uint256 tokenId) public onlyStaker(tokenId) requireTimeElapsed(tokenId) {\r\n        //\r\n        _payoutStake(tokenId);\r\n        //\r\n        delete receipt[tokenId];\r\n        //\r\n        nftHeroInst.safeTransferFrom(address(this), msg.sender, tokenId);\r\n        emit onNftUnStaked(msg.sender, tokenId, block.number);\r\n\r\n        //tokenstoken\r\n        userTokens[msg.sender] = _arrRemove(userTokens[msg.sender], tokenId);\r\n    }\r\n\r\n    /**  */\r\n    function harvest(uint256 tokenId) public onlyStaker(tokenId) requireTimeElapsed(tokenId) {\r\n        //\r\n        _payoutStake(tokenId);\r\n        //\r\n        receipt[tokenId].stakedFromBlock = block.number;\r\n    }\r\n\r\n    /**  */\r\n    function _getBlockBonus(uint256 tokenId) private view returns (uint256) {\r\n        uint256 id; uint256 _type; uint256 li; uint256 min; uint256 zhi; uint lv;\r\n        (id,_type,li,min,zhi,lv) = nftHeroInst.getAttr(tokenId);\r\n\r\n        uint256 mainAttr;\r\n        if (_type == 1) {\r\n            mainAttr = li;\r\n        } else if (_type == 2) {\r\n            mainAttr = min;\r\n        } else {\r\n            mainAttr = zhi;\r\n        }\r\n\r\n        //0.01 + -85*0.005*\r\n        uint256 blockBonus = params[\"base_block_bonus\"];\r\n        if (mainAttr > 85) {\r\n            blockBonus += uint256((mainAttr - 85) * params[\"attr_block_bonus\"] * lv);\r\n        }\r\n        return blockBonus;\r\n    }\r\n\r\n    /**  */\r\n    function _getBlockStaked(uint256 tokenId) internal view returns (uint256) {\r\n        if (receipt[tokenId].stakedFromBlock == 0) {\r\n            return 0;\r\n        }\r\n\r\n        return block.number.sub(receipt[tokenId].stakedFromBlock);\r\n    }\r\n\r\n    /**  */\r\n    function _arrRemove(uint256[] memory arr, uint256 one) private pure returns (uint256[] memory) {\r\n        require(arr.length >= 1, \"_arrRemove from []\");\r\n\r\n        uint256[] memory ret = new uint256[](arr.length - 1);\r\n\r\n        //0\r\n        if (arr.length > 1) {\r\n            uint k;\r\n            for (uint i; i<arr.length; i++) {\r\n                if (arr[i] != one) {\r\n                    ret[k] = arr[i];\r\n                    k++;\r\n                }\r\n            }\r\n        }\r\n        return ret;\r\n    } \r\n\r\n    /**\r\n     * Always returns `IERC721Receiver.onERC721Received.selector`.\r\n     */\r\n    function onERC721Received(\r\n        address,\r\n        address,\r\n        uint256,\r\n        bytes memory\r\n    ) public virtual override returns (bytes4) {\r\n        return this.onERC721Received.selector;\r\n    }\r\n\r\n    event onNftStake(address indexed staker, uint256 tokenId, uint256 blockNumber);\r\n    event onNftUnStaked(address indexed staker, uint256 tokenId, uint256 blockNumber);\r\n    event StakePayout(address indexed staker, uint256 tokenId, uint256 stakeAmount, uint256 fromBlock, uint256 toBlock);\r\n}",
  "sourcePath": "D:\\solidity\\sol-test1\\contracts\\Stake.sol",
  "compiler": {
    "name": "solc",
    "version": "0.8.7+commit.e28d00a7.Emscripten.clang"
  },
  "schemaVersion": "3.4.3",
  "updatedAt": "2021-11-29T09:10:02.425Z",
  "devdoc": {
    "kind": "dev",
    "methods": {
      "owner()": {
        "details": "Returns the address of the current owner."
      },
      "renounceOwnership()": {
        "details": "Leaves the contract without owner. It will not be possible to call `onlyOwner` functions anymore. Can only be called by the current owner. NOTE: Renouncing ownership will leave the contract without an owner, thereby removing any functionality that is only available to the owner."
      },
      "transferOwnership(address)": {
        "details": "Transfers ownership of the contract to a new account (`newOwner`). Can only be called by the current owner."
      }
    },
    "version": 1
  },
  "userdoc": {
    "kind": "user",
    "methods": {
      "getStakeContractBalance()": {
        "notice": " "
      },
      "harvest(uint256)": {
        "notice": " "
      },
      "onERC721Received(address,address,uint256,bytes)": {
        "notice": "Always returns `IERC721Receiver.onERC721Received.selector`."
      },
      "reviewStaked()": {
        "notice": " "
      },
      "stakeNFT(uint256)": {
        "notice": " "
      },
      "unstake(uint256)": {
        "notice": " "
      }
    },
    "notice": "NFT ",
    "version": 1
  }
}